{
  "_format": "hh-sol-artifact-1",
  "contractName": "LotteryTable",
  "sourceName": "contracts/LotteryTable.sol",
  "abi": [
    {
      "inputs": [],
      "stateMutability": "nonpayable",
      "type": "constructor"
    },
    {
      "inputs": [],
      "name": "tableInfo",
      "outputs": [
        {
          "internalType": "address",
          "name": "factory",
          "type": "address"
        },
        {
          "internalType": "address",
          "name": "creator",
          "type": "address"
        },
        {
          "internalType": "uint256",
          "name": "amount",
          "type": "uint256"
        },
        {
          "internalType": "uint256",
          "name": "minPPL",
          "type": "uint256"
        },
        {
          "internalType": "uint256",
          "name": "maxPPL",
          "type": "uint256"
        },
        {
          "internalType": "uint256",
          "name": "coolDownTime",
          "type": "uint256"
        },
        {
          "internalType": "uint256",
          "name": "gameTime",
          "type": "uint256"
        },
        {
          "internalType": "uint256",
          "name": "bankerCommission",
          "type": "uint256"
        },
        {
          "internalType": "uint256",
          "name": "referralCommission",
          "type": "uint256"
        },
        {
          "internalType": "address",
          "name": "bankerWallet",
          "type": "address"
        }
      ],
      "stateMutability": "view",
      "type": "function"
    }
  ],
  "bytecode": "0x608060405234801561001057600080fd5b506000336001600160a01b031663a5ea11da6040518163ffffffff1660e01b81526004016101406040518083038186803b15801561004d57600080fd5b505afa158015610061573d6000803e3d6000fd5b505050506040513d601f19601f820116820180604052508101906100859190610180565b604080516101408101825282516001600160a01b0390811680835260208086015183169084018190528486018051958501869052606080880151908601819052608080890151908701819052915160a0870181905260c0808a015190880181905260e0808b0151908901819052610100808c0151908a018190526101209b8c01519098169a9098018a9052600080546001600160a01b031990811690971790556001805487169095179094556002979097556003556004556005949094556006939093556007919091556008556009805490911690911790555061024e565b80516001600160a01b038116811461017b57600080fd5b919050565b60006101408284031215610192578081fd5b61019a610217565b6101a383610164565b81526101b160208401610164565b602082015260408301516040820152606083015160608201526080830151608082015260a083015160a082015260c083015160c082015260e083015160e082015261010080840151818301525061012061020c818501610164565b908201529392505050565b60405161014081016001600160401b038111828210171561024857634e487b7160e01b600052604160045260246000fd5b60405290565b60fb8061025c6000396000f3fe6080604052348015600f57600080fd5b506004361060285760003560e01c8063d707a2c414602d575b600080fd5b6000546001546002546003546004546005546006546007546008546009546068996001600160a01b039081169981169897969594939291168a565b604080516001600160a01b039b8c168152998b1660208b01528901979097526060880195909552608087019390935260a086019190915260c085015260e08401526101008301529091166101208201526101400160405180910390f3fea26469706673582212208e13afdc9a986ea61963fa08fb6fe6fad315a23f8780fef14003910bf546329364736f6c63430008040033",
  "linkReferences": {},
  "deployedLinkReferences": {}
}