{
  "_format": "hh-sol-artifact-1",
  "contractName": "LotteryTable",
  "sourceName": "contracts/LotteryTable.sol",
  "abi": [
    {
      "inputs": [],
      "stateMutability": "nonpayable",
      "type": "constructor"
    },
    {
      "inputs": [],
      "name": "factory",
      "outputs": [
        {
          "internalType": "address",
          "name": "",
          "type": "address"
        }
      ],
      "stateMutability": "view",
      "type": "function"
    },
    {
      "inputs": [],
      "name": "getAllPlayers",
      "outputs": [
        {
          "internalType": "address[]",
          "name": "allPlayers",
          "type": "address[]"
        }
      ],
      "stateMutability": "view",
      "type": "function"
    },
    {
      "inputs": [],
      "name": "getTableInfo",
      "outputs": [
        {
          "components": [
            {
              "internalType": "address",
              "name": "creator",
              "type": "address"
            },
            {
              "internalType": "uint256",
              "name": "amount",
              "type": "uint256"
            },
            {
              "internalType": "uint256",
              "name": "minPPL",
              "type": "uint256"
            },
            {
              "internalType": "uint256",
              "name": "maxPPL",
              "type": "uint256"
            },
            {
              "internalType": "uint256",
              "name": "coolDownTime",
              "type": "uint256"
            },
            {
              "internalType": "uint256",
              "name": "gameTime",
              "type": "uint256"
            },
            {
              "internalType": "uint256",
              "name": "bankerCommission",
              "type": "uint256"
            },
            {
              "internalType": "uint256",
              "name": "referralCommission",
              "type": "uint256"
            },
            {
              "internalType": "address",
              "name": "bankerWallet",
              "type": "address"
            }
          ],
          "internalType": "struct ILotteryTable.TableInfo",
          "name": "_tableInfo",
          "type": "tuple"
        }
      ],
      "stateMutability": "view",
      "type": "function"
    },
    {
      "inputs": [
        {
          "components": [
            {
              "internalType": "address",
              "name": "player",
              "type": "address"
            },
            {
              "internalType": "uint256",
              "name": "count",
              "type": "uint256"
            },
            {
              "internalType": "uint256",
              "name": "number",
              "type": "uint256"
            },
            {
              "internalType": "address",
              "name": "referraler",
              "type": "address"
            }
          ],
          "internalType": "struct ILotteryTable.JoinInfo",
          "name": "joinInfo",
          "type": "tuple"
        }
      ],
      "name": "joinTable",
      "outputs": [],
      "stateMutability": "nonpayable",
      "type": "function"
    },
    {
      "inputs": [],
      "name": "managerContract",
      "outputs": [
        {
          "internalType": "address",
          "name": "",
          "type": "address"
        }
      ],
      "stateMutability": "view",
      "type": "function"
    },
    {
      "inputs": [],
      "name": "nextRound",
      "outputs": [
        {
          "internalType": "uint256",
          "name": "round",
          "type": "uint256"
        }
      ],
      "stateMutability": "view",
      "type": "function"
    },
    {
      "inputs": [],
      "name": "reset",
      "outputs": [
        {
          "internalType": "bool",
          "name": "",
          "type": "bool"
        }
      ],
      "stateMutability": "nonpayable",
      "type": "function"
    },
    {
      "inputs": [],
      "name": "start",
      "outputs": [
        {
          "internalType": "uint256",
          "name": "round",
          "type": "uint256"
        },
        {
          "internalType": "uint256",
          "name": "roundResult",
          "type": "uint256"
        },
        {
          "internalType": "address[]",
          "name": "roundWinnerArray",
          "type": "address[]"
        },
        {
          "internalType": "uint256",
          "name": "allCount",
          "type": "uint256"
        },
        {
          "internalType": "uint256[]",
          "name": "playersCount",
          "type": "uint256[]"
        }
      ],
      "stateMutability": "nonpayable",
      "type": "function"
    },
    {
      "inputs": [
        {
          "components": [
            {
              "internalType": "address",
              "name": "creator",
              "type": "address"
            },
            {
              "internalType": "uint256",
              "name": "amount",
              "type": "uint256"
            },
            {
              "internalType": "uint256",
              "name": "minPPL",
              "type": "uint256"
            },
            {
              "internalType": "uint256",
              "name": "maxPPL",
              "type": "uint256"
            },
            {
              "internalType": "uint256",
              "name": "coolDownTime",
              "type": "uint256"
            },
            {
              "internalType": "uint256",
              "name": "gameTime",
              "type": "uint256"
            },
            {
              "internalType": "uint256",
              "name": "bankerCommission",
              "type": "uint256"
            },
            {
              "internalType": "uint256",
              "name": "referralCommission",
              "type": "uint256"
            },
            {
              "internalType": "address",
              "name": "bankerWallet",
              "type": "address"
            }
          ],
          "internalType": "struct ILotteryTable.TableInfo",
          "name": "_tableInfo",
          "type": "tuple"
        }
      ],
      "name": "updateTableInfo",
      "outputs": [],
      "stateMutability": "nonpayable",
      "type": "function"
    }
  ],
  "bytecode": "0x60c06040526040516200001290620001ca565b604051809103906000f0801580156200002f573d6000803e3d6000fd5b50600a80546001600160a01b0319166001600160a01b03929092169190911790553480156200005d57600080fd5b5060016000819055506000336001600160a01b031663a5ea11da6040518163ffffffff1660e01b81526004016101606040518083038186803b158015620000a357600080fd5b505afa158015620000b8573d6000803e3d6000fd5b505050506040513d601f19601f82011682018060405250810190620000de9190620001f5565b80516001600160601b0319606091821b811660a0908152602080850151841b9092166080908152604080516101208082018352828801516001600160a01b03908116808452888a018051988501899052868b0151958501869052878b01519985018a90525195840186905260e0808b0151978501889052610100808c015160c08701819052948c0151918601829052610140909b015190921699909301899052600180546001600160a01b0319908116909417905560029690965560039290925560049590955560059190915560069190915560075560085560098054909116909117905550620002e2565b61060980620018a683390190565b80516001600160a01b0381168114620001f057600080fd5b919050565b6000610160828403121562000208578081fd5b62000212620002aa565b6200021d83620001d8565b81526200022d60208401620001d8565b60208201526200024060408401620001d8565b6040820152606083015160608201526080830151608082015260a083015160a082015260c083015160c082015260e083015160e08201526101008084015181830152506101208084015181830152506101406200029f818501620001d8565b908201529392505050565b60405161016081016001600160401b0381118282101715620002dc57634e487b7160e01b600052604160045260246000fd5b60405290565b60805160601c60a05160601c61157d6200032960003960008181609d01528181610288015281816103ec0152818161077a015261089b0152600061013a015261157d6000f3fe608060405234801561001057600080fd5b50600436106100935760003560e01c8063be9a655511610066578063be9a65551461011c578063c45a015514610135578063d826f88f1461015c578063efa1c48214610174578063fa2d259d1461018957600080fd5b80632710ac801461009857806347e40553146100dc5780635f2d82ea146100f2578063796ab25d14610107575b600080fd5b6100bf7f000000000000000000000000000000000000000000000000000000000000000081565b6040516001600160a01b0390911681526020015b60405180910390f35b6100e461019c565b6040519081526020016100d3565b6100fa6101b7565b6040516100d39190610d68565b61011a610115366004610c02565b61027d565b005b610124610380565b6040516100d3959493929190610de6565b6100bf7f000000000000000000000000000000000000000000000000000000000000000081565b61016461076d565b60405190151581526020016100d3565b61017c61080f565b6040516100d39190610d55565b61011a610197366004610c76565b610890565b60006101a7600c5490565b6101b2906001610eaa565b905090565b61021860405180610120016040528060006001600160a01b031681526020016000815260200160008152602001600081526020016000815260200160008152602001600081526020016000815260200160006001600160a01b031681525090565b5060408051610120810182526001546001600160a01b0390811682526002546020830152600354928201929092526004546060820152600554608082015260065460a082015260075460c082015260085460e082015260095490911661010082015290565b336001600160a01b037f000000000000000000000000000000000000000000000000000000000000000016146102b257600080fd5b600a548151604051634f0cd27b60e01b81526001600160a01b039182166004820152911690634f0cd27b9060240160206040518083038186803b1580156102f857600080fd5b505afa15801561030c573d6000803e3d6000fd5b505050506040513d601f19601f820116820180604052508101906103309190610cfa565b156103745760405162461bcd60e51b815260206004820152600f60248201526e6475706c696361746564206265742160881b60448201526064015b60405180910390fd5b61037d81610934565b50565b600080606060006060600260005414156103dc5760405162461bcd60e51b815260206004820152601f60248201527f5265656e7472616e637947756172643a207265656e7472616e742063616c6c00604482015260640161036b565b6002600055336001600160a01b037f0000000000000000000000000000000000000000000000000000000000000000161461041657600080fd5b610424600c80546001019055565b600c54945060006104ef600a60009054906101000a90046001600160a01b03166001600160a01b0316638b5b9ccc6040518163ffffffff1660e01b815260040160006040518083038186803b15801561047c57600080fd5b505afa158015610490573d6000803e3d6000fd5b505050506040513d6000823e601f3d908101601f191682016040526104b89190810190610b4e565b5160408051426020808301919091524482840152606080830194909452825180830390940184526080909101909152815191012090565b90506104fc81600a610ae7565b600a5460405163760e116d60e01b8152600481018390529196506001600160a01b03169063760e116d9060240160006040518083038186803b15801561054157600080fd5b505afa158015610555573d6000803e3d6000fd5b505050506040513d6000823e601f3d908101601f1916820160405261057d9190810190610b4e565b600a5460405163478a1cbf60e01b8152600481018890529195506001600160a01b03169063478a1cbf9060240160206040518083038186803b1580156105c257600080fd5b505afa1580156105d6573d6000803e3d6000fd5b505050506040513d601f19601f820116820180604052508101906105fa9190610cfa565b84519093501561070a5760005b845181101561070857600085828151811061063257634e487b7160e01b600052603260045260246000fd5b6020908102919091010151600a54604051634f0cd27b60e01b81526001600160a01b03808416600483015292935060009290911690634f0cd27b9060240160206040518083038186803b15801561068857600080fd5b505afa15801561069c573d6000803e3d6000fd5b505050506040513d601f19601f820116820180604052508101906106c09190610cfa565b600b80546001810182556000919091527f0175b7a638427703f0dbe7bb9bbf987a2551717b34e79f33b5b1008d1fa01db901555081905061070081610ec2565b915050610607565b505b600b80548060200260200160405190810160405280929190818152602001828054801561075657602002820191906000526020600020905b815481526020019060010190808311610742575b505050505091505060016000819055509091929394565b6000336001600160a01b037f000000000000000000000000000000000000000000000000000000000000000016146107a457600080fd5b600a80546001600160a01b03191690556107c0600b6000610afa565b6040516107cc90610b18565b604051809103906000f0801580156107e8573d6000803e3d6000fd5b50600a80546001600160a01b0319166001600160a01b039290921691909117905550600190565b600a54604080516322d6e73360e21b815290516060926001600160a01b031691638b5b9ccc916004808301926000929190829003018186803b15801561085457600080fd5b505afa158015610868573d6000803e3d6000fd5b505050506040513d6000823e601f3d908101601f191682016040526101b29190810190610b4e565b336001600160a01b037f000000000000000000000000000000000000000000000000000000000000000016146108c557600080fd5b600180546009805484516001600160a01b03199384166001600160a01b0391821617909455602085015160025560408501516003556060850151600455608085015160055560a085015160065560c085015160075560e085015160085561010090940151919093169116179055565b600a548151604051630640ef8160e11b81526001600160a01b039182166004820152911690630c81df0290602401600060405180830381600087803b15801561097c57600080fd5b505af1158015610990573d6000803e3d6000fd5b5050600a5483516020850151604051630a4341ab60e41b81526001600160a01b03928316600482015260248101919091529116925063a4341ab09150604401600060405180830381600087803b1580156109e957600080fd5b505af11580156109fd573d6000803e3d6000fd5b5050600a548351604080860151905163108b42ef60e31b81526001600160a01b03928316600482015260248101919091529116925063845a17789150604401600060405180830381600087803b158015610a5657600080fd5b505af1158015610a6a573d6000803e3d6000fd5b5050600a546040808501516020860151915163bda642ef60e01b81526001600160a01b03909316945063bda642ef9350610ab292909190600401918252602082015260400190565b600060405180830381600087803b158015610acc57600080fd5b505af1158015610ae0573d6000803e3d6000fd5b5050505050565b6000610af38284610edd565b9392505050565b508054600082559060005260206000209081019061037d9190610b25565b61060980610f3f83390190565b5b80821115610b3a5760008155600101610b26565b5090565b8035610b4981610f29565b919050565b60006020808385031215610b60578182fd5b825167ffffffffffffffff80821115610b77578384fd5b818501915085601f830112610b8a578384fd5b815181811115610b9c57610b9c610f13565b8060051b9150610bad848301610e79565b8181528481019084860184860187018a1015610bc7578788fd5b8795505b83861015610bf55780519450610be085610f29565b84835260019590950194918601918601610bcb565b5098975050505050505050565b600060808284031215610c13578081fd5b6040516080810181811067ffffffffffffffff82111715610c3657610c36610f13565b6040528235610c4481610f29565b8082525060208301356020820152604083013560408201526060830135610c6a81610f29565b60608201529392505050565b60006101208284031215610c88578081fd5b610c90610e4f565b610c9983610b3e565b81526020830135602082015260408301356040820152606083013560608201526080830135608082015260a083013560a082015260c083013560c082015260e083013560e0820152610100610cef818501610b3e565b908201529392505050565b600060208284031215610d0b578081fd5b5051919050565b6000815180845260208085019450808401835b83811015610d4a5781516001600160a01b031687529582019590820190600101610d25565b509495945050505050565b602081526000610af36020830184610d12565b60006101208201905060018060a01b0383511682526020830151602083015260408301516040830152606083015160608301526080830151608083015260a083015160a083015260c083015160c083015260e083015160e083015261010080840151610dde828501826001600160a01b03169052565b505092915050565b85815260006020868184015260a06040840152610e0660a0840187610d12565b606084018690528381036080850152845180825282860191830190845b81811015610e3f57835183529284019291840191600101610e23565b50909a9950505050505050505050565b604051610120810167ffffffffffffffff81118282101715610e7357610e73610f13565b60405290565b604051601f8201601f1916810167ffffffffffffffff81118282101715610ea257610ea2610f13565b604052919050565b60008219821115610ebd57610ebd610efd565b500190565b6000600019821415610ed657610ed6610efd565b5060010190565b600082610ef857634e487b7160e01b81526012600452602481fd5b500690565b634e487b7160e01b600052601160045260246000fd5b634e487b7160e01b600052604160045260246000fd5b6001600160a01b038116811461037d57600080fdfe608060405234801561001057600080fd5b506105e9806100206000396000f3fe608060405234801561001057600080fd5b50600436106100ea5760003560e01c80638b5b9ccc1161008c578063bda642ef11610066578063bda642ef146102bc578063df15c37e14610261578063e4064c4e146102cf578063f71d96cb1461032e57600080fd5b80638b5b9ccc14610261578063942ea46614610269578063a4341ab01461029257600080fd5b80634f0cd27b116100c85780634f0cd27b146101ce578063760e116d146101f75780637b5e6f6b14610217578063845a17781461023757600080fd5b80630c81df02146100ef578063276df0d11461014e578063478a1cbf1461019b575b600080fd5b61014c6100fd366004610494565b600080546001810182559080527f290decd9548b62a8d60345a988386fc84ba6bc95484008f6362f93160ef3e5630180546001600160a01b0319166001600160a01b0392909216919091179055565b005b61014c61015c3660046104f6565b600091825260056020908152604083208054600181018255908452922090910180546001600160a01b0319166001600160a01b03909216919091179055565b6101bb6101a93660046104de565b60009081526006602052604090205490565b6040519081526020015b60405180910390f35b6101bb6101dc366004610494565b6001600160a01b031660009081526002602052604090205490565b61020a6102053660046104de565b610359565b6040516101c59190610542565b6101bb610225366004610494565b60026020526000908152604090205481565b61014c6102453660046104b5565b6001600160a01b03909116600090815260036020526040902055565b61020a6103c5565b6101bb610277366004610494565b6001600160a01b031660009081526003602052604090205490565b61014c6102a03660046104b5565b6001600160a01b03909116600090815260026020526040902055565b61014c6102ca366004610521565b610427565b61014c6102dd366004610494565b6001805480820182556000919091527fb10e2d527612073b26eecdfd717e6a320cf44b4afac2b0732d9fcbe2b7fa0cf60180546001600160a01b0319166001600160a01b0392909216919091179055565b61034161033c3660046104de565b61044e565b6040516001600160a01b0390911681526020016101c5565b6000818152600560209081526040918290208054835181840281018401909452808452606093928301828280156103b957602002820191906000526020600020905b81546001600160a01b0316815260019091019060200180831161039b575b50505050509050919050565b6060600080548060200260200160405190810160405280929190818152602001828054801561041d57602002820191906000526020600020905b81546001600160a01b031681526001909101906020018083116103ff575b5050505050905090565b6000828152600660205260408120805483929061044590849061058f565b90915550505050565b6000818154811061045e57600080fd5b6000918252602090912001546001600160a01b0316905081565b80356001600160a01b038116811461048f57600080fd5b919050565b6000602082840312156104a5578081fd5b6104ae82610478565b9392505050565b600080604083850312156104c7578081fd5b6104d083610478565b946020939093013593505050565b6000602082840312156104ef578081fd5b5035919050565b60008060408385031215610508578182fd5b8235915061051860208401610478565b90509250929050565b60008060408385031215610533578182fd5b50508035926020909101359150565b6020808252825182820181905260009190848201906040850190845b818110156105835783516001600160a01b03168352928401929184019160010161055e565b50909695505050505050565b600082198211156105ae57634e487b7160e01b81526011600452602481fd5b50019056fea26469706673582212203456fa8f16a30834e1c4a64b881e747c2db8adb12e9827e9a7cb60c3c56f893364736f6c63430008040033a2646970667358221220f200acc4fe3ddac3eafdc3b1c8cdeb9c8a2004d7547be6c612b31f3da864c8a764736f6c63430008040033608060405234801561001057600080fd5b506105e9806100206000396000f3fe608060405234801561001057600080fd5b50600436106100ea5760003560e01c80638b5b9ccc1161008c578063bda642ef11610066578063bda642ef146102bc578063df15c37e14610261578063e4064c4e146102cf578063f71d96cb1461032e57600080fd5b80638b5b9ccc14610261578063942ea46614610269578063a4341ab01461029257600080fd5b80634f0cd27b116100c85780634f0cd27b146101ce578063760e116d146101f75780637b5e6f6b14610217578063845a17781461023757600080fd5b80630c81df02146100ef578063276df0d11461014e578063478a1cbf1461019b575b600080fd5b61014c6100fd366004610494565b600080546001810182559080527f290decd9548b62a8d60345a988386fc84ba6bc95484008f6362f93160ef3e5630180546001600160a01b0319166001600160a01b0392909216919091179055565b005b61014c61015c3660046104f6565b600091825260056020908152604083208054600181018255908452922090910180546001600160a01b0319166001600160a01b03909216919091179055565b6101bb6101a93660046104de565b60009081526006602052604090205490565b6040519081526020015b60405180910390f35b6101bb6101dc366004610494565b6001600160a01b031660009081526002602052604090205490565b61020a6102053660046104de565b610359565b6040516101c59190610542565b6101bb610225366004610494565b60026020526000908152604090205481565b61014c6102453660046104b5565b6001600160a01b03909116600090815260036020526040902055565b61020a6103c5565b6101bb610277366004610494565b6001600160a01b031660009081526003602052604090205490565b61014c6102a03660046104b5565b6001600160a01b03909116600090815260026020526040902055565b61014c6102ca366004610521565b610427565b61014c6102dd366004610494565b6001805480820182556000919091527fb10e2d527612073b26eecdfd717e6a320cf44b4afac2b0732d9fcbe2b7fa0cf60180546001600160a01b0319166001600160a01b0392909216919091179055565b61034161033c3660046104de565b61044e565b6040516001600160a01b0390911681526020016101c5565b6000818152600560209081526040918290208054835181840281018401909452808452606093928301828280156103b957602002820191906000526020600020905b81546001600160a01b0316815260019091019060200180831161039b575b50505050509050919050565b6060600080548060200260200160405190810160405280929190818152602001828054801561041d57602002820191906000526020600020905b81546001600160a01b031681526001909101906020018083116103ff575b5050505050905090565b6000828152600660205260408120805483929061044590849061058f565b90915550505050565b6000818154811061045e57600080fd5b6000918252602090912001546001600160a01b0316905081565b80356001600160a01b038116811461048f57600080fd5b919050565b6000602082840312156104a5578081fd5b6104ae82610478565b9392505050565b600080604083850312156104c7578081fd5b6104d083610478565b946020939093013593505050565b6000602082840312156104ef578081fd5b5035919050565b60008060408385031215610508578182fd5b8235915061051860208401610478565b90509250929050565b60008060408385031215610533578182fd5b50508035926020909101359150565b6020808252825182820181905260009190848201906040850190845b818110156105835783516001600160a01b03168352928401929184019160010161055e565b50909695505050505050565b600082198211156105ae57634e487b7160e01b81526011600452602481fd5b50019056fea26469706673582212203456fa8f16a30834e1c4a64b881e747c2db8adb12e9827e9a7cb60c3c56f893364736f6c63430008040033",
  "linkReferences": {},
  "deployedLinkReferences": {}
}