{
  "_format": "hh-sol-artifact-1",
  "contractName": "LotteryManager",
  "sourceName": "contracts/LotteryManager.sol",
  "abi": [
    {
      "inputs": [
        {
          "internalType": "address",
          "name": "_factory",
          "type": "address"
        },
        {
          "internalType": "address",
          "name": "_tokenAddress",
          "type": "address"
        }
      ],
      "stateMutability": "nonpayable",
      "type": "constructor"
    },
    {
      "anonymous": false,
      "inputs": [
        {
          "indexed": false,
          "internalType": "string",
          "name": "hash",
          "type": "string"
        }
      ],
      "name": "CreateTableIfNecessary",
      "type": "event"
    },
    {
      "anonymous": false,
      "inputs": [
        {
          "indexed": false,
          "internalType": "string",
          "name": "beforeHash",
          "type": "string"
        },
        {
          "indexed": false,
          "internalType": "string",
          "name": "newHash",
          "type": "string"
        }
      ],
      "name": "EditTable",
      "type": "event"
    },
    {
      "anonymous": false,
      "inputs": [
        {
          "indexed": false,
          "internalType": "address",
          "name": "player",
          "type": "address"
        },
        {
          "indexed": false,
          "internalType": "uint256",
          "name": "count",
          "type": "uint256"
        },
        {
          "indexed": false,
          "internalType": "uint256",
          "name": "number",
          "type": "uint256"
        },
        {
          "indexed": false,
          "internalType": "string",
          "name": "hash",
          "type": "string"
        }
      ],
      "name": "JoinTable",
      "type": "event"
    },
    {
      "anonymous": false,
      "inputs": [
        {
          "indexed": false,
          "internalType": "string",
          "name": "hash",
          "type": "string"
        },
        {
          "indexed": false,
          "internalType": "uint256",
          "name": "round",
          "type": "uint256"
        },
        {
          "indexed": false,
          "internalType": "uint256",
          "name": "roundResult",
          "type": "uint256"
        },
        {
          "indexed": false,
          "internalType": "address[]",
          "name": "roundWinnerArray",
          "type": "address[]"
        },
        {
          "indexed": false,
          "internalType": "address[]",
          "name": "allPlayers",
          "type": "address[]"
        }
      ],
      "name": "StartRound",
      "type": "event"
    },
    {
      "inputs": [
        {
          "internalType": "address",
          "name": "creator",
          "type": "address"
        },
        {
          "internalType": "uint256",
          "name": "amount",
          "type": "uint256"
        },
        {
          "internalType": "uint256",
          "name": "minPPL",
          "type": "uint256"
        },
        {
          "internalType": "uint256",
          "name": "maxPPL",
          "type": "uint256"
        },
        {
          "internalType": "uint256",
          "name": "coolDownTime",
          "type": "uint256"
        },
        {
          "internalType": "uint256",
          "name": "gameTime",
          "type": "uint256"
        },
        {
          "internalType": "uint256",
          "name": "bankerCommission",
          "type": "uint256"
        },
        {
          "internalType": "uint256",
          "name": "referralCommission",
          "type": "uint256"
        },
        {
          "internalType": "address",
          "name": "bankerWallet",
          "type": "address"
        }
      ],
      "name": "createTableIfNecessary",
      "outputs": [
        {
          "internalType": "string",
          "name": "hashString",
          "type": "string"
        }
      ],
      "stateMutability": "payable",
      "type": "function"
    },
    {
      "inputs": [
        {
          "internalType": "string",
          "name": "hashString",
          "type": "string"
        },
        {
          "components": [
            {
              "internalType": "address",
              "name": "creator",
              "type": "address"
            },
            {
              "internalType": "uint256",
              "name": "amount",
              "type": "uint256"
            },
            {
              "internalType": "uint256",
              "name": "minPPL",
              "type": "uint256"
            },
            {
              "internalType": "uint256",
              "name": "maxPPL",
              "type": "uint256"
            },
            {
              "internalType": "uint256",
              "name": "coolDownTime",
              "type": "uint256"
            },
            {
              "internalType": "uint256",
              "name": "gameTime",
              "type": "uint256"
            },
            {
              "internalType": "uint256",
              "name": "bankerCommission",
              "type": "uint256"
            },
            {
              "internalType": "uint256",
              "name": "referralCommission",
              "type": "uint256"
            },
            {
              "internalType": "address",
              "name": "bankerWallet",
              "type": "address"
            }
          ],
          "internalType": "struct ILotteryTable.TableInfo",
          "name": "tableInfo",
          "type": "tuple"
        }
      ],
      "name": "editTable",
      "outputs": [],
      "stateMutability": "nonpayable",
      "type": "function"
    },
    {
      "inputs": [],
      "name": "factory",
      "outputs": [
        {
          "internalType": "address",
          "name": "",
          "type": "address"
        }
      ],
      "stateMutability": "view",
      "type": "function"
    },
    {
      "inputs": [
        {
          "internalType": "uint256",
          "name": "count",
          "type": "uint256"
        },
        {
          "internalType": "uint256",
          "name": "number",
          "type": "uint256"
        },
        {
          "internalType": "string",
          "name": "hash",
          "type": "string"
        }
      ],
      "name": "joinTableV2",
      "outputs": [
        {
          "internalType": "bool",
          "name": "result",
          "type": "bool"
        }
      ],
      "stateMutability": "payable",
      "type": "function"
    },
    {
      "inputs": [],
      "name": "owner",
      "outputs": [
        {
          "internalType": "address",
          "name": "",
          "type": "address"
        }
      ],
      "stateMutability": "view",
      "type": "function"
    },
    {
      "inputs": [
        {
          "internalType": "address",
          "name": "a",
          "type": "address"
        },
        {
          "internalType": "address",
          "name": "b",
          "type": "address"
        }
      ],
      "name": "referral",
      "outputs": [
        {
          "internalType": "bool",
          "name": "result",
          "type": "bool"
        }
      ],
      "stateMutability": "nonpayable",
      "type": "function"
    },
    {
      "inputs": [
        {
          "internalType": "string",
          "name": "hash",
          "type": "string"
        }
      ],
      "name": "startRoundV2",
      "outputs": [
        {
          "internalType": "bool",
          "name": "",
          "type": "bool"
        }
      ],
      "stateMutability": "payable",
      "type": "function"
    }
  ],
  "bytecode": "0x60a06040523480156200001157600080fd5b506040516200287538038062002875833981016040819052620000349162000097565b6001600160601b031960609290921b91909116608052600080546001600160a01b03929092166001600160a01b03199283161790556001805490911633179055620000ce565b80516001600160a01b03811681146200009257600080fd5b919050565b60008060408385031215620000aa578182fd5b620000b5836200007a565b9150620000c5602084016200007a565b90509250929050565b60805160601c61277a620000fb60003960008181610160015281816102320152610337015261277a6000f3fe6080604052600436106100705760003560e01c806353b00f421161004e57806353b00f42146100e15780635433f103146101035780638da5cb5b14610116578063c45a01551461014e57600080fd5b806315282636146100755780631c505d1d1461009e578063225276c8146100ce575b600080fd5b610088610083366004611ee2565b610182565b604051610095919061237b565b60405180910390f35b3480156100aa57600080fd5b506100be6100b9366004611eaa565b6104fc565b6040519015158152602001610095565b6100be6100dc366004611fb1565b61058d565b3480156100ed57600080fd5b506101016100fc366004611fe4565b610b1e565b005b6100be61011136600461221f565b610c5b565b34801561012257600080fd5b50600154610136906001600160a01b031681565b6040516001600160a01b039091168152602001610095565b34801561015a57600080fd5b506101367f000000000000000000000000000000000000000000000000000000000000000081565b6001546060906001600160a01b0316331461019c57600080fd5b6001546001600160a01b031633146102185760405162461bcd60e51b815260206004820152603460248201527f4f6e6c7920636f6e7472616374206f776e657220697320616c6c6f7765642074604482015273379031b0b636103a3434b990333ab731ba34b7b760611b60648201526084015b60405180910390fd5b6040516336c8dfbf60e21b81526000906001600160a01b037f0000000000000000000000000000000000000000000000000000000000000000169063db237efc90610277908e908e908e908e908e908e908e908e908e9060040161232f565b60206040518083038186803b15801561028f57600080fd5b505afa1580156102a3573d6000803e3d6000fd5b505050506040513d601f19601f820116820180604052508101906102c79190611e8e565b90506001600160a01b0381166103b757604051633ebc31eb60e11b81523060048201526001600160a01b038c81166024830152604482018c9052606482018b9052608482018a905260a4820189905260c4820188905260e4820187905261010482018690528481166101248301527f00000000000000000000000000000000000000000000000000000000000000001690637d7863d69061014401602060405180830381600087803b15801561037c57600080fd5b505af1158015610390573d6000803e3d6000fd5b505050506040513d601f19601f820116820180604052508101906103b49190611e8e565b90505b60008b8b8b8b8b8b8b8b8b6040516020016103da9998979695949392919061232f565b6040516020818303038152906040528051906020012060001c90506103fe81610eb8565b92508160038460405161041191906122dc565b908152604080516020928190038301902080546001600160a01b0319166001600160a01b0394851617905591841660009081526004825291909120845161045a92860190611cfc565b50610486604051806040016040528060098152602001683a30b136329034b99d60b91b81525083610fda565b6104b66040518060400160405280600e81526020016d3430b9b429ba3934b7339034b99d60911b81525084611023565b7ffeadb03e5864c7ba3800506584c86f9177a7d4a3547a3db6021574c3a678b3d1836040516104e5919061237b565b60405180910390a150509998505050505050505050565b6001546000906001600160a01b0316331461051657600080fd5b6001600160a01b03831661052957600080fd5b6001600160a01b03821661053c57600080fd5b816001600160a01b0316836001600160a01b0316141561055b57600080fd5b506001600160a01b03918216600090815260026020526040902080546001600160a01b03191691909216179055600190565b6001546000906001600160a01b031633146105a757600080fd5b60006003836040516105b991906122dc565b908152604051908190036020019020546001600160a01b03169050806106215760405162461bcd60e51b815260206004820152601960248201527f706c6561736520636865636b2074686520616464726573732100000000000000604482015260640161020f565b60008190506000816001600160a01b0316635f2d82ea6040518163ffffffff1660e01b81526004016101206040518083038186803b15801561066257600080fd5b505afa158015610676573d6000803e3d6000fd5b505050506040513d601f19601f8201168201806040525081019061069a91906120ab565b90506106a68184611068565b6000806000806000866001600160a01b031663be9a65556040518163ffffffff1660e01b8152600401600060405180830381600087803b1580156106e957600080fd5b505af11580156106fd573d6000803e3d6000fd5b505050506040513d6000823e601f3d908101601f191682016040526107259190810190612147565b945094509450945094508251600014156107f557600080546101008801516001600160a01b038b81168452600560205260409384902054935163a9059cbb60e01b81529181166004830152602482019390935291169063a9059cbb90604401602060405180830381600087803b15801561079e57600080fd5b505af11580156107b2573d6000803e3d6000fd5b505050506040513d601f19601f820116820180604052508101906107d69190611f91565b506001600160a01b0388166000908152600560205260408120556109d5565b6001600160a01b038816600090815260056020526040812054905b84518110156109d257600085828151811061083b57634e487b7160e01b600052603260045260246000fd5b60200260200101519050600084838151811061086757634e487b7160e01b600052603260045260246000fd5b6020026020010151905060006108908261088a89886112ae90919063ffffffff16565b906112c1565b6001600160a01b038e1660009081526005602052604090205490915081106109065760405162461bcd60e51b8152602060048201526024808201527f7461626c6520706f6f6c206e6f7420656e6f75676820666f722077696e416d6f604482015263756e742160e01b606482015260840161020f565b60005460405163a9059cbb60e01b81526001600160a01b038581166004830152602482018490529091169063a9059cbb90604401602060405180830381600087803b15801561095457600080fd5b505af1158015610968573d6000803e3d6000fd5b505050506040513d601f19601f8201168201806040525081019061098c9190611f91565b506001600160a01b038d16600090815260056020526040812080548392906109b590849061263f565b9250508190555050505080806109ca906126bb565b915050610810565b50505b866001600160a01b031663d826f88f6040518163ffffffff1660e01b8152600401602060405180830381600087803b158015610a1057600080fd5b505af1158015610a24573d6000803e3d6000fd5b505050506040513d601f19601f82011682018060405250810190610a489190611f91565b50610a52886112cd565b506000876001600160a01b031663efa1c4826040518163ffffffff1660e01b815260040160006040518083038186803b158015610a8e57600080fd5b505afa158015610aa2573d6000803e3d6000fd5b505050506040513d6000823e601f3d908101601f19168201604052610aca9190810190611f5e565b90507f098bdb345a1d578ac9b9dc82f5e8fb1f6712f38b127c6020e3b780f1308399368b87878785604051610b0395949392919061246f565b60405180910390a1600199505050505050505050505b919050565b6001546001600160a01b03163314610b3557600080fd5b6000600383604051610b4791906122dc565b908152604051908190036020019020546001600160a01b0316905080610bc65760405162461bcd60e51b815260206004820152602e60248201527f4e6f207461626c6520776974682074686520686173682c20706c65617365206360448201526d6865636b2074686520686173682160901b606482015260840161020f565b6001600160a01b03908116600090815260066020818152604092839020855181546001600160a01b0319908116918716919091178255918601516001820155928501516002840155606085015160038401556080850151600484015560a0850151600584015560c08501519183019190915560e084015160078301556101009093015160089091018054909316911617905550565b6000610c86604051806040016040528060078152602001666861736820697360c81b81525083611023565b336000908152600260205260408082205490516001600160a01b039091169190600390610cb49086906122dc565b90815260408051918290036020908101832054838301909252600f83526e7461626c654164647265737320697360881b908301526001600160a01b03169150610cfd9082610fda565b6001600160a01b038116610d6a5760405162461bcd60e51b815260206004820152602e60248201527f6e6f207461626c6520776974682074686520686173682c20706c65617365206360448201526d6865636b2074686520686173682160901b606482015260840161020f565b60408051608081018252338152602081018890528082018790526001600160a01b038481166060830152915163796ab25d60e01b8152839283169063796ab25d90610db99084906004016124c0565b600060405180830381600087803b158015610dd357600080fd5b505af1158015610de7573d6000803e3d6000fd5b505050506000826001600160a01b0316635f2d82ea6040518163ffffffff1660e01b81526004016101206040518083038186803b158015610e2757600080fd5b505afa158015610e3b573d6000803e3d6000fd5b505050506040513d601f19601f82011682018060405250810190610e5f91906120ab565b9050610e6c898286611706565b7f08b584e6aceb13e620c46e9d7288284e3b3a1c9dce5ca8e843559f5c4c8456a7338a8a8a604051610ea194939291906122f8565b60405180910390a150600198975050505050505050565b606081610edc5750506040805180820190915260018152600360fc1b602082015290565b8160005b8115610f065780610ef0816126bb565b9150610eff9050600a8361260c565b9150610ee0565b60008167ffffffffffffffff811115610f2f57634e487b7160e01b600052604160045260246000fd5b6040519080825280601f01601f191660200182016040528015610f59576020820181803683370190505b5090505b8415610fd257610f6e60018361263f565b9150610f7b600a866126d6565b610f869060306125f4565b60f81b818381518110610fa957634e487b7160e01b600052603260045260246000fd5b60200101906001600160f81b031916908160001a905350610fcb600a8661260c565b9450610f5d565b949350505050565b61101f8282604051602401610ff092919061238e565b60408051601f198184030181529190526020810180516001600160e01b031663319af33360e01b179052611beb565b5050565b61101f82826040516024016110399291906123e6565b60408051601f198184030181529190526020810180516001600160e01b0316634b5c427760e01b179052611beb565b60008190506000816001600160a01b031663efa1c4826040518163ffffffff1660e01b815260040160006040518083038186803b1580156110a857600080fd5b505afa1580156110bc573d6000803e3d6000fd5b505050506040513d6000823e601f3d908101601f191682016040526110e49190810190611f5e565b80516040860151919250908110156112a75760408501516000906111089083611c0c565b905060005b818110156112a4576111416040518060400160405280600a815260200169030b232103937b137ba160b51b81525082611c18565b6000611188600a6111828460408051426020808301919091524482840152606080830194909452825180830390940184526080909101909152815191012090565b90611c5d565b905060008290506111bf6040518060400160405280600e81526020016d726f626f7473206164647265737360901b81525082610fda565b611200604051806040016040528060168152602001750726f626f747320616464726573732075696e743136360541b815250826001600160a01b0316611c18565b604080516080810182526001600160a01b0380841682526001602083015281830185905260006060830152915163796ab25d60e01b8152909189169063796ab25d906112509084906004016124c0565b600060405180830381600087803b15801561126a57600080fd5b505af115801561127e573d6000803e3d6000fd5b5050505061128e60018b8b611706565b505050808061129c906126bb565b91505061110d565b50505b5050505050565b60006112ba828461260c565b9392505050565b60006112ba8284612620565b6001600160a01b0380821660009081526006602081815260408084208151610120810183528154871681526001820154818501526002820154818401908152600380840154606084015260048401546080840152600584015460a08401529583015460c0830152600783015460e083015260089092015490961661010087015281518083019092529281526261736b60e81b9181019190915290519192916113759190611c18565b80516001600160a01b0316156116f7576001600160a01b038316600090815260046020526040812080546113a890612686565b80601f01602080910402602001604051908101604052809291908181526020018280546113d490612686565b80156114215780601f106113f657610100808354040283529160200191611421565b820191906000526020600020905b81548152906001019060200180831161140457829003601f168201915b505060405163fa2d259d60e01b815293945087936001600160a01b038516935063fa2d259d9250611457915086906004016124f7565b600060405180830381600087803b15801561147157600080fd5b505af1158015611485573d6000803e3d6000fd5b50505050611523604051806040016040528060038152602001626e6f7760e81b815250826001600160a01b0316635f2d82ea6040518163ffffffff1660e01b81526004016101206040518083038186803b1580156114e257600080fd5b505afa1580156114f6573d6000803e3d6000fd5b505050506040513d601f19601f8201168201806040525081019061151a91906120ab565b60400151611c18565b82516020808501516040808701516060880151608089015160a08a015160c08b015160e08c01516101008d0151965160009a6115639a909998910161232f565b6040516020818303038152906040528051906020012060001c905085600361158a83610eb8565b60405161159791906122dc565b90815260405190819003602001902080546001600160a01b03929092166001600160a01b03199092169190911790556115cf81610eb8565b6001600160a01b038716600090815260046020908152604090912082516115fc9391929190910190611cfc565b506001600160a01b038616600090815260066020818152604080842080546001600160a01b0319908116825560018201869055600282018690556003820186905560048201869055600582018690559381018590556007810194909455600890930180549092169091558151808301909252601b82527f6265666f7265486173682c20686173682e746f537472696e6728290000000000908201526116aa90846116a584610eb8565b611c69565b7fe3e57a24b8f74d2723608b23c0f9b294b5919b85093bade5338255ac2f903556836116d583610eb8565b6040516116e39291906123e6565b60405180910390a150600195945050505050565b50600092915050565b50919050565b600061171f8360200151856112c190919063ffffffff16565b90506117526040518060400160405280600f81526020016e5f61667465724a6f696e5461626c6560881b81525033610fda565b6000546040516323b872dd60e01b8152336004820152306024820152604481018390526001600160a01b03909116906323b872dd90606401602060405180830381600087803b1580156117a457600080fd5b505af11580156117b8573d6000803e3d6000fd5b505050506040513d601f19601f820116820180604052508101906117dc9190611f91565b5060408051808201825260198152783130b630b731b29037b31030b2323932b9b9943a3434b9949d60391b602082015260005491516370a0823160e01b815230600482018190526118949390916001600160a01b03909116906370a08231906024015b60206040518083038186803b15801561185757600080fd5b505afa15801561186b573d6000803e3d6000fd5b505050506040513d601f19601f8201168201806040525081019061188f919061212f565b611cb5565b6001600160a01b038216600090815260056020526040812080548392906118bc9084906125f4565b909155505060c08301516000906118d99061088a846127106112ae565b6001600160a01b03841660009081526005602052604090205490915081106119575760405162461bcd60e51b815260206004820152602b60248201527f5461626c6520706f6f6c206e6f7420656e6f75676820666f722062616e6b657260448201526a436f6d6d697373696f6e2160a81b606482015260840161020f565b6001600160a01b0383166000908152600560205260408120805483929061197f90849061263f565b909155505060005461010085015160405163a9059cbb60e01b81526001600160a01b0391821660048201526024810184905291169063a9059cbb90604401602060405180830381600087803b1580156119d757600080fd5b505af11580156119eb573d6000803e3d6000fd5b505050506040513d601f19601f82011682018060405250810190611a0f9190611f91565b5060408051808201825260198152783130b630b731b29037b31030b2323932b9b9943a3434b9949d60391b602082015260005491516370a0823160e01b81523060048201819052611a769390916001600160a01b03909116906370a082319060240161183f565b336000908152600260205260409020546001600160a01b03168015611be35760e0850151600090611aad9061088a866127106112ae565b6001600160a01b0386166000908152600560205260409020549091508110611b2d5760405162461bcd60e51b815260206004820152602d60248201527f5461626c6520706f6f6c206e6f7420656e6f75676820666f722072656665727260448201526c616c436f6d6d697373696f6e2160981b606482015260840161020f565b6001600160a01b03851660009081526005602052604081208054839290611b5590849061263f565b909155505060005460405163a9059cbb60e01b81526001600160a01b038481166004830152602482018490529091169063a9059cbb90604401602060405180830381600087803b158015611ba857600080fd5b505af1158015611bbc573d6000803e3d6000fd5b505050506040513d601f19601f82011682018060405250810190611be09190611f91565b50505b505050505050565b80516a636f6e736f6c652e6c6f67602083016000808483855afa5050505050565b60006112ba828461263f565b61101f8282604051602401611c2e92919061244d565b60408051601f198184030181529190526020810180516001600160e01b03166309710a9d60e41b179052611beb565b60006112ba82846126d6565b611cb0838383604051602401611c8193929190612414565b60408051601f198184030181529190526020810180516001600160e01b0316632ced7cef60e01b179052611beb565b505050565b611cb0838383604051602401611ccd939291906123b8565b60408051601f198184030181529190526020810180516001600160e01b03166307c8121760e01b179052611beb565b828054611d0890612686565b90600052602060002090601f016020900481019282611d2a5760008555611d70565b82601f10611d4357805160ff1916838001178555611d70565b82800160010185558215611d70579182015b82811115611d70578251825591602001919060010190611d55565b50611d7c929150611d80565b5090565b5b80821115611d7c5760008155600101611d81565b8035610b198161272c565b8051610b198161272c565b600082601f830112611dbb578081fd5b81516020611dd0611dcb836125d0565b61259f565b80838252828201915082860187848660051b8901011115611def578586fd5b855b85811015611e16578151611e048161272c565b84529284019290840190600101611df1565b5090979650505050505050565b600082601f830112611e33578081fd5b813567ffffffffffffffff811115611e4d57611e4d612716565b611e60601f8201601f191660200161259f565b818152846020838601011115611e74578283fd5b816020850160208301379081016020019190915292915050565b600060208284031215611e9f578081fd5b81516112ba8161272c565b60008060408385031215611ebc578081fd5b8235611ec78161272c565b91506020830135611ed78161272c565b809150509250929050565b60008060008060008060008060006101208a8c031215611f00578485fd5b8935611f0b8161272c565b985060208a0135975060408a0135965060608a0135955060808a0135945060a08a0135935060c08a0135925060e08a013591506101008a0135611f4d8161272c565b809150509295985092959850929598565b600060208284031215611f6f578081fd5b815167ffffffffffffffff811115611f85578182fd5b610fd284828501611dab565b600060208284031215611fa2578081fd5b815180151581146112ba578182fd5b600060208284031215611fc2578081fd5b813567ffffffffffffffff811115611fd8578182fd5b610fd284828501611e23565b600080828403610140811215611ff8578283fd5b833567ffffffffffffffff81111561200e578384fd5b61201a86828701611e23565b93505061012080601f1983011215612030578283fd5b612038612575565b915061204660208601611d95565b825260408501356020830152606085013560408301526080850135606083015260a0850135608083015260c085013560a083015260e085013560c08301526101008086013560e084015261209b828701611d95565b9083015250919491935090915050565b600061012082840312156120bd578081fd5b6120c5612575565b6120ce83611da0565b81526020830151602082015260408301516040820152606083015160608201526080830151608082015260a083015160a082015260c083015160c082015260e083015160e0820152610100612124818501611da0565b908201529392505050565b600060208284031215612140578081fd5b5051919050565b600080600080600060a0868803121561215e578283fd5b855194506020808701519450604087015167ffffffffffffffff80821115612184578586fd5b6121908a838b01611dab565b95506060890151945060808901519150808211156121ac578384fd5b508701601f810189136121bd578283fd5b80516121cb611dcb826125d0565b8082825284820191508484018c868560051b87010111156121ea578687fd5b8694505b8385101561220c5780518352600194909401939185019185016121ee565b5080955050505050509295509295909350565b600080600060608486031215612233578081fd5b8335925060208401359150604084013567ffffffffffffffff811115612257578182fd5b61226386828701611e23565b9150509250925092565b6000815180845260208085019450808401835b838110156122a55781516001600160a01b031687529582019590820190600101612280565b509495945050505050565b600081518084526122c8816020860160208601612656565b601f01601f19169290920160200192915050565b600082516122ee818460208701612656565b9190910192915050565b60018060a01b038516815283602082015282604082015260806060820152600061232560808301846122b0565b9695505050505050565b6001600160a01b03998a168152602081019890985260408801969096526060870194909452608086019290925260a085015260c084015260e08301529091166101008201526101200190565b6020815260006112ba60208301846122b0565b6040815260006123a160408301856122b0565b905060018060a01b03831660208301529392505050565b6060815260006123cb60608301866122b0565b6001600160a01b039490941660208301525060400152919050565b6040815260006123f960408301856122b0565b828103602084015261240b81856122b0565b95945050505050565b60608152600061242760608301866122b0565b828103602084015261243981866122b0565b9050828103604084015261232581856122b0565b60408152600061246060408301856122b0565b90508260208301529392505050565b60a08152600061248260a08301886122b0565b86602084015285604084015282810360608401526124a0818661226d565b905082810360808401526124b4818561226d565b98975050505050505050565b81516001600160a01b0390811682526020808401519083015260408084015190830152606092830151169181019190915260800190565b60006101208201905060018060a01b0383511682526020830151602083015260408301516040830152606083015160608301526080830151608083015260a083015160a083015260c083015160c083015260e083015160e08301526101008084015161256d828501826001600160a01b03169052565b505092915050565b604051610120810167ffffffffffffffff8111828210171561259957612599612716565b60405290565b604051601f8201601f1916810167ffffffffffffffff811182821017156125c8576125c8612716565b604052919050565b600067ffffffffffffffff8211156125ea576125ea612716565b5060051b60200190565b60008219821115612607576126076126ea565b500190565b60008261261b5761261b612700565b500490565b600081600019048311821515161561263a5761263a6126ea565b500290565b600082821015612651576126516126ea565b500390565b60005b83811015612671578181015183820152602001612659565b83811115612680576000848401525b50505050565b600181811c9082168061269a57607f821691505b6020821081141561170057634e487b7160e01b600052602260045260246000fd5b60006000198214156126cf576126cf6126ea565b5060010190565b6000826126e5576126e5612700565b500690565b634e487b7160e01b600052601160045260246000fd5b634e487b7160e01b600052601260045260246000fd5b634e487b7160e01b600052604160045260246000fd5b6001600160a01b038116811461274157600080fd5b5056fea26469706673582212208190d1163bad471fcc2792ea9a851a05a1502e79f1f004f791548ea718e5d9b764736f6c63430008040033",
  "linkReferences": {},
  "deployedLinkReferences": {}
}