{
  "_format": "hh-sol-artifact-1",
  "contractName": "LotteryManager",
  "sourceName": "contracts/LotteryManager.sol",
  "abi": [
    {
      "inputs": [
        {
          "internalType": "address",
          "name": "_factory",
          "type": "address"
        },
        {
          "internalType": "address",
          "name": "_tokenAddress",
          "type": "address"
        }
      ],
      "stateMutability": "nonpayable",
      "type": "constructor"
    },
    {
      "anonymous": false,
      "inputs": [
        {
          "indexed": false,
          "internalType": "string",
          "name": "hash",
          "type": "string"
        }
      ],
      "name": "CreateTableIfNecessary",
      "type": "event"
    },
    {
      "anonymous": false,
      "inputs": [
        {
          "indexed": false,
          "internalType": "string",
          "name": "beforeHash",
          "type": "string"
        },
        {
          "indexed": false,
          "internalType": "string",
          "name": "newHash",
          "type": "string"
        }
      ],
      "name": "EditTable",
      "type": "event"
    },
    {
      "anonymous": false,
      "inputs": [
        {
          "indexed": false,
          "internalType": "address",
          "name": "player",
          "type": "address"
        },
        {
          "indexed": false,
          "internalType": "uint256",
          "name": "count",
          "type": "uint256"
        },
        {
          "indexed": false,
          "internalType": "uint256",
          "name": "number",
          "type": "uint256"
        },
        {
          "indexed": false,
          "internalType": "string",
          "name": "hash",
          "type": "string"
        }
      ],
      "name": "JoinTable",
      "type": "event"
    },
    {
      "anonymous": false,
      "inputs": [
        {
          "indexed": false,
          "internalType": "string",
          "name": "hash",
          "type": "string"
        },
        {
          "indexed": false,
          "internalType": "uint256",
          "name": "round",
          "type": "uint256"
        },
        {
          "indexed": false,
          "internalType": "uint256",
          "name": "roundResult",
          "type": "uint256"
        },
        {
          "indexed": false,
          "internalType": "address[]",
          "name": "roundWinnerArray",
          "type": "address[]"
        },
        {
          "indexed": false,
          "internalType": "address[]",
          "name": "allPlayers",
          "type": "address[]"
        }
      ],
      "name": "StartRound",
      "type": "event"
    },
    {
      "inputs": [
        {
          "internalType": "address",
          "name": "creator",
          "type": "address"
        },
        {
          "internalType": "uint256",
          "name": "amount",
          "type": "uint256"
        },
        {
          "internalType": "uint256",
          "name": "minPPL",
          "type": "uint256"
        },
        {
          "internalType": "uint256",
          "name": "maxPPL",
          "type": "uint256"
        },
        {
          "internalType": "uint256",
          "name": "coolDownTime",
          "type": "uint256"
        },
        {
          "internalType": "uint256",
          "name": "gameTime",
          "type": "uint256"
        },
        {
          "internalType": "uint256",
          "name": "bankerCommission",
          "type": "uint256"
        },
        {
          "internalType": "uint256",
          "name": "referralCommission",
          "type": "uint256"
        },
        {
          "internalType": "address",
          "name": "bankerWallet",
          "type": "address"
        }
      ],
      "name": "createTableIfNecessary",
      "outputs": [
        {
          "internalType": "string",
          "name": "hashString",
          "type": "string"
        }
      ],
      "stateMutability": "payable",
      "type": "function"
    },
    {
      "inputs": [
        {
          "internalType": "string",
          "name": "hashString",
          "type": "string"
        },
        {
          "components": [
            {
              "internalType": "address",
              "name": "creator",
              "type": "address"
            },
            {
              "internalType": "uint256",
              "name": "amount",
              "type": "uint256"
            },
            {
              "internalType": "uint256",
              "name": "minPPL",
              "type": "uint256"
            },
            {
              "internalType": "uint256",
              "name": "maxPPL",
              "type": "uint256"
            },
            {
              "internalType": "uint256",
              "name": "coolDownTime",
              "type": "uint256"
            },
            {
              "internalType": "uint256",
              "name": "gameTime",
              "type": "uint256"
            },
            {
              "internalType": "uint256",
              "name": "bankerCommission",
              "type": "uint256"
            },
            {
              "internalType": "uint256",
              "name": "referralCommission",
              "type": "uint256"
            },
            {
              "internalType": "address",
              "name": "bankerWallet",
              "type": "address"
            }
          ],
          "internalType": "struct ILotteryTable.TableInfo",
          "name": "tableInfo",
          "type": "tuple"
        }
      ],
      "name": "editTable",
      "outputs": [],
      "stateMutability": "nonpayable",
      "type": "function"
    },
    {
      "inputs": [],
      "name": "factory",
      "outputs": [
        {
          "internalType": "address",
          "name": "",
          "type": "address"
        }
      ],
      "stateMutability": "view",
      "type": "function"
    },
    {
      "inputs": [
        {
          "components": [
            {
              "internalType": "address",
              "name": "creator",
              "type": "address"
            },
            {
              "internalType": "uint256",
              "name": "amount",
              "type": "uint256"
            },
            {
              "internalType": "uint256",
              "name": "minPPL",
              "type": "uint256"
            },
            {
              "internalType": "uint256",
              "name": "maxPPL",
              "type": "uint256"
            },
            {
              "internalType": "uint256",
              "name": "coolDownTime",
              "type": "uint256"
            },
            {
              "internalType": "uint256",
              "name": "gameTime",
              "type": "uint256"
            },
            {
              "internalType": "uint256",
              "name": "bankerCommission",
              "type": "uint256"
            },
            {
              "internalType": "uint256",
              "name": "referralCommission",
              "type": "uint256"
            },
            {
              "internalType": "address",
              "name": "bankerWallet",
              "type": "address"
            }
          ],
          "internalType": "struct ILotteryTable.TableInfo",
          "name": "tableInfo",
          "type": "tuple"
        }
      ],
      "name": "joinTableV1",
      "outputs": [
        {
          "internalType": "bool",
          "name": "result",
          "type": "bool"
        }
      ],
      "stateMutability": "payable",
      "type": "function"
    },
    {
      "inputs": [
        {
          "internalType": "uint256",
          "name": "count",
          "type": "uint256"
        },
        {
          "internalType": "uint256",
          "name": "number",
          "type": "uint256"
        },
        {
          "internalType": "string",
          "name": "hash",
          "type": "string"
        }
      ],
      "name": "joinTableV2",
      "outputs": [
        {
          "internalType": "bool",
          "name": "result",
          "type": "bool"
        }
      ],
      "stateMutability": "payable",
      "type": "function"
    },
    {
      "inputs": [],
      "name": "owner",
      "outputs": [
        {
          "internalType": "address",
          "name": "",
          "type": "address"
        }
      ],
      "stateMutability": "view",
      "type": "function"
    },
    {
      "inputs": [
        {
          "internalType": "address",
          "name": "a",
          "type": "address"
        },
        {
          "internalType": "address",
          "name": "b",
          "type": "address"
        }
      ],
      "name": "referral",
      "outputs": [
        {
          "internalType": "bool",
          "name": "result",
          "type": "bool"
        }
      ],
      "stateMutability": "nonpayable",
      "type": "function"
    },
    {
      "inputs": [
        {
          "internalType": "string",
          "name": "hash",
          "type": "string"
        }
      ],
      "name": "startRoundV2",
      "outputs": [
        {
          "internalType": "bool",
          "name": "",
          "type": "bool"
        }
      ],
      "stateMutability": "payable",
      "type": "function"
    }
  ],
  "bytecode": "0x60a06040523480156200001157600080fd5b506040516200301a3803806200301a833981016040819052620000349162000097565b6001600160601b031960609290921b91909116608052600080546001600160a01b03929092166001600160a01b03199283161790556001805490911633179055620000ce565b80516001600160a01b03811681146200009257600080fd5b919050565b60008060408385031215620000aa578182fd5b620000b5836200007a565b9150620000c5602084016200007a565b90509250929050565b60805160601c612f11620001096000396000818161017e01528181610250015281816103550152818161126801526113200152612f116000f3fe60806040526004361061007b5760003560e01c80635433f1031161004e5780635433f1031461010e5780638da5cb5b14610121578063b560010914610159578063c45a01551461016c57600080fd5b806315282636146100805780631c505d1d146100a9578063225276c8146100d957806353b00f42146100ec575b600080fd5b61009361008e3660046125ea565b6101a0565b6040516100a09190612ac8565b60405180910390f35b3480156100b557600080fd5b506100c96100c43660046125b2565b61051a565b60405190151581526020016100a0565b6100c96100e73660046126b9565b6105ab565b3480156100f857600080fd5b5061010c6101073660046126ec565b610e7d565b005b6100c961011c3660046128ca565b610fba565b34801561012d57600080fd5b50600154610141906001600160a01b031681565b6040516001600160a01b0390911681526020016100a0565b6100c961016736600461273a565b611223565b34801561017857600080fd5b506101417f000000000000000000000000000000000000000000000000000000000000000081565b6001546060906001600160a01b031633146101ba57600080fd5b6001546001600160a01b031633146102365760405162461bcd60e51b815260206004820152603460248201527f4f6e6c7920636f6e7472616374206f776e657220697320616c6c6f7765642074604482015273379031b0b636103a3434b990333ab731ba34b7b760611b60648201526084015b60405180910390fd5b6040516336c8dfbf60e21b81526000906001600160a01b037f0000000000000000000000000000000000000000000000000000000000000000169063db237efc90610295908e908e908e908e908e908e908e908e908e90600401612a7c565b60206040518083038186803b1580156102ad57600080fd5b505afa1580156102c1573d6000803e3d6000fd5b505050506040513d601f19601f820116820180604052508101906102e59190612596565b90506001600160a01b0381166103d557604051633ebc31eb60e11b81523060048201526001600160a01b038c81166024830152604482018c9052606482018b9052608482018a905260a4820189905260c4820188905260e4820187905261010482018690528481166101248301527f00000000000000000000000000000000000000000000000000000000000000001690637d7863d69061014401602060405180830381600087803b15801561039a57600080fd5b505af11580156103ae573d6000803e3d6000fd5b505050506040513d601f19601f820116820180604052508101906103d29190612596565b90505b60008b8b8b8b8b8b8b8b8b6040516020016103f899989796959493929190612a7c565b6040516020818303038152906040528051906020012060001c905061041c816113ea565b92508160038460405161042f9190612987565b908152604080516020928190038301902080546001600160a01b0319166001600160a01b039485161790559184166000908152600482529190912084516104789286019061237f565b506104a4604051806040016040528060098152602001683a30b136329034b99d60b91b8152508361150c565b6104d46040518060400160405280600e81526020016d3430b9b429ba3934b7339034b99d60911b81525084611555565b7ffeadb03e5864c7ba3800506584c86f9177a7d4a3547a3db6021574c3a678b3d1836040516105039190612ac8565b60405180910390a150509998505050505050505050565b6001546000906001600160a01b0316331461053457600080fd5b6001600160a01b03831661054757600080fd5b6001600160a01b03821661055a57600080fd5b816001600160a01b0316836001600160a01b0316141561057957600080fd5b506001600160a01b03918216600090815260026020526040902080546001600160a01b03191691909216179055600190565b6001546000906001600160a01b031633146105c557600080fd5b60006003836040516105d79190612987565b908152604051908190036020019020546001600160a01b031690508061063f5760405162461bcd60e51b815260206004820152601960248201527f706c6561736520636865636b2074686520616464726573732100000000000000604482015260640161022d565b60008190506000816001600160a01b0316635f2d82ea6040518163ffffffff1660e01b81526004016101206040518083038186803b15801561068057600080fd5b505afa158015610694573d6000803e3d6000fd5b505050506040513d601f19601f820116820180604052508101906106b89190612756565b90506106c4818461159a565b6000806000806000866001600160a01b031663be9a65556040518163ffffffff1660e01b8152600401600060405180830381600087803b15801561070757600080fd5b505af115801561071b573d6000803e3d6000fd5b505050506040513d6000823e601f3d908101601f1916820160405261074391908101906127f2565b9450945094509450945061077a6040518060400160405280600b81526020016a1c9bdd5b9914995cdd5b1d60aa1b8152508561180f565b6000600560008a6001600160a01b03166001600160a01b031681526020019081526020016000205490506107d06040518060400160405280600a8152602001691c1bdbdb105b5bdd5b9d60b21b8152508261180f565b835161087b576001600160a01b0389811660009081526005602052604080822082905590546101008a0151915163a9059cbb60e01b81529183166004830152602482018490529091169063a9059cbb90604401602060405180830381600087803b15801561083d57600080fd5b505af1158015610851573d6000803e3d6000fd5b505050506040513d601f19601f820116820180604052508101906108759190612699565b50610d33565b60005b8451811015610d315760008582815181106108a957634e487b7160e01b600052603260045260246000fd5b6020026020010151905060008483815181106108d557634e487b7160e01b600052603260045260246000fd5b602002602001015190506109116040518060400160405280600f81526020016e18dbdd5b9d0b08185b1b10dbdd5b9d608a1b8152508288611854565b600061092782610921878a6118a0565b906118b3565b9050610954604051806040016040528060098152602001681dda5b905b5bdd5b9d60ba1b8152508261180f565b6001600160a01b038d166000908152600560205260409020548111156109c85760405162461bcd60e51b8152602060048201526024808201527f7461626c6520706f6f6c206e6f7420656e6f75676820666f722077696e416d6f604482015263756e742160e01b606482015260840161022d565b6001600160a01b038d16600090815260056020526040812080548392906109f0908490612db1565b90915550506040805180820190915260068152653bb4b73732b960d11b6020820152610a1c908461150c565b633b9aca006001600160a01b0384161015610bd457604080518082018252601b81527f746f6b656e2e62616c616e63654f66286d73672e73656e646572290000000000602082015260005491516370a0823160e01b8152336004820152610ae6926001600160a01b0316906370a08231906024015b60206040518083038186803b158015610aa957600080fd5b505afa158015610abd573d6000803e3d6000fd5b505050506040513d601f19601f82011682018060405250810190610ae191906127da565b61180f565b60005460405163a9059cbb60e01b8152336004820152602481018390526001600160a01b039091169063a9059cbb90604401602060405180830381600087803b158015610b3257600080fd5b505af1158015610b46573d6000803e3d6000fd5b505050506040513d601f19601f82011682018060405250810190610b6a9190612699565b50604080518082018252601b81527f746f6b656e2e62616c616e63654f66286d73672e73656e646572290000000000602082015260005491516370a0823160e01b8152336004820152610bcf926001600160a01b0316906370a0823190602401610a91565b610d1b565b6040805180820182526017815276746f6b656e2e62616c616e63654f662877696e6e65722960481b602082015260005491516370a0823160e01b81526001600160a01b038681166004830152610c349316906370a0823190602401610a91565b60005460405163a9059cbb60e01b81526001600160a01b038581166004830152602482018490529091169063a9059cbb90604401602060405180830381600087803b158015610c8257600080fd5b505af1158015610c96573d6000803e3d6000fd5b505050506040513d601f19601f82011682018060405250810190610cba9190612699565b506040805180820182526017815276746f6b656e2e62616c616e63654f662877696e6e65722960481b602082015260005491516370a0823160e01b81526001600160a01b038681166004830152610d1b9316906370a0823190602401610a91565b5050508080610d2990612e2d565b91505061087e565b505b876001600160a01b031663d826f88f6040518163ffffffff1660e01b8152600401602060405180830381600087803b158015610d6e57600080fd5b505af1158015610d82573d6000803e3d6000fd5b505050506040513d601f19601f82011682018060405250810190610da69190612699565b50610db0896118bf565b506000886001600160a01b031663efa1c4826040518163ffffffff1660e01b815260040160006040518083038186803b158015610dec57600080fd5b505afa158015610e00573d6000803e3d6000fd5b505050506040513d6000823e601f3d908101601f19168201604052610e289190810190612666565b90507f098bdb345a1d578ac9b9dc82f5e8fb1f6712f38b127c6020e3b780f1308399368c88888885604051610e61959493929190612be1565b60405180910390a160019a50505050505050505050505b919050565b6001546001600160a01b03163314610e9457600080fd5b6000600383604051610ea69190612987565b908152604051908190036020019020546001600160a01b0316905080610f255760405162461bcd60e51b815260206004820152602e60248201527f4e6f207461626c6520776974682074686520686173682c20706c65617365206360448201526d6865636b2074686520686173682160901b606482015260840161022d565b6001600160a01b03908116600090815260066020818152604092839020855181546001600160a01b0319908116918716919091178255918601516001820155928501516002840155606085015160038401556080850151600484015560a0850151600584015560c08501519183019190915560e084015160078301556101009093015160089091018054909316911617905550565b6000610ff1604051806040016040528060138152602001726a6f696e5461626c655632206861736820697360681b81525083611555565b336000908152600260205260408082205490516001600160a01b03909116919060039061101f908690612987565b90815260408051918290036020908101832054838301909252600f83526e7461626c654164647265737320697360881b908301526001600160a01b03169150611068908261150c565b6001600160a01b0381166110d55760405162461bcd60e51b815260206004820152602e60248201527f6e6f207461626c6520776974682074686520686173682c20706c65617365206360448201526d6865636b2074686520686173682160901b606482015260840161022d565b60408051608081018252338152602081018890528082018790526001600160a01b038481166060830152915163796ab25d60e01b8152839283169063796ab25d90611124908490600401612c32565b600060405180830381600087803b15801561113e57600080fd5b505af1158015611152573d6000803e3d6000fd5b505050506000826001600160a01b0316635f2d82ea6040518163ffffffff1660e01b81526004016101206040518083038186803b15801561119257600080fd5b505afa1580156111a6573d6000803e3d6000fd5b505050506040513d601f19601f820116820180604052508101906111ca9190612756565b90506111d7898286611cf8565b7f08b584e6aceb13e620c46e9d7288284e3b3a1c9dce5ca8e843559f5c4c8456a7338a8a8a60405161120c9493929190612a45565b60405180910390a150600198975050505050505050565b60006112586040518060400160405280600d81526020016c3a30b13632a4b733379034b99d60991b815250836000015161150c565b60006040518061014001604052807f00000000000000000000000000000000000000000000000000000000000000006001600160a01b0316815260200184600001516001600160a01b03168152602001846020015181526020018460400151815260200184606001518152602001846080015181526020018460a0015181526020018460c0015181526020018460e0015181526020018461010001516001600160a01b03168152509050600073__$d338a75012ee7ed7e904a610d26dfd60e5$__6354363abe7f0000000000000000000000000000000000000000000000000000000000000000846040518363ffffffff1660e01b815260040161135d9291906129a3565b60206040518083038186803b15801561137557600080fd5b505af4158015611389573d6000803e3d6000fd5b505050506040513d601f19601f820116820180604052508101906113ad9190612596565b90506113e06040518060400160405280600f81526020016e7461626c654164647265737320697360881b8152508261150c565b5060019392505050565b60608161140e5750506040805180820190915260018152600360fc1b602082015290565b8160005b8115611438578061142281612e2d565b91506114319050600a83612d7e565b9150611412565b60008167ffffffffffffffff81111561146157634e487b7160e01b600052604160045260246000fd5b6040519080825280601f01601f19166020018201604052801561148b576020820181803683370190505b5090505b8415611504576114a0600183612db1565b91506114ad600a86612e48565b6114b8906030612d66565b60f81b8183815181106114db57634e487b7160e01b600052603260045260246000fd5b60200101906001600160f81b031916908160001a9053506114fd600a86612d7e565b945061148f565b949350505050565b6115518282604051602401611522929190612adb565b60408051601f198184030181529190526020810180516001600160e01b031663319af33360e01b1790526122b8565b5050565b611551828260405160240161156b929190612b33565b60408051601f198184030181529190526020810180516001600160e01b0316634b5c427760e01b1790526122b8565b60008190506000816001600160a01b031663efa1c4826040518163ffffffff1660e01b815260040160006040518083038186803b1580156115da57600080fd5b505afa1580156115ee573d6000803e3d6000fd5b505050506040513d6000823e601f3d908101601f191682016040526116169190810190612666565b805160408601519192509081101561180857604085015160009061163a90836122d9565b905060005b81811015611805576116736040518060400160405280600a815260200169030b232103937b137ba160b51b8152508261180f565b60006116ba600a6116b48460408051426020808301919091524482840152606080830194909452825180830390940184526080909101909152815191012090565b906122e5565b905060008290506116f16040518060400160405280600e81526020016d726f626f7473206164647265737360901b8152508261150c565b611732604051806040016040528060168152602001750726f626f747320616464726573732075696e743136360541b815250826001600160a01b031661180f565b6117616040518060400160405280600d81526020016c3937b137ba3990373ab6b132b960991b8152508361180f565b604080516080810182526001600160a01b0380841682526001602083015281830185905260006060830152915163796ab25d60e01b8152909189169063796ab25d906117b1908490600401612c32565b600060405180830381600087803b1580156117cb57600080fd5b505af11580156117df573d6000803e3d6000fd5b505050506117ef60018b8b611cf8565b50505080806117fd90612e2d565b91505061163f565b50505b5050505050565b6115518282604051602401611825929190612b9a565b60408051601f198184030181529190526020810180516001600160e01b03166309710a9d60e41b1790526122b8565b61189b83838360405160240161186c93929190612bbc565b60408051601f198184030181529190526020810180516001600160e01b031663969cdd0360e01b1790526122b8565b505050565b60006118ac8284612d7e565b9392505050565b60006118ac8284612d92565b6001600160a01b0380821660009081526006602081815260408084208151610120810183528154871681526001820154818501526002820154818401908152600380840154606084015260048401546080840152600584015460a08401529583015460c0830152600783015460e083015260089092015490961661010087015281518083019092529281526261736b60e81b918101919091529051919291611967919061180f565b80516001600160a01b031615611ce9576001600160a01b0383166000908152600460205260408120805461199a90612df8565b80601f01602080910402602001604051908101604052809291908181526020018280546119c690612df8565b8015611a135780601f106119e857610100808354040283529160200191611a13565b820191906000526020600020905b8154815290600101906020018083116119f657829003601f168201915b505060405163fa2d259d60e01b815293945087936001600160a01b038516935063fa2d259d9250611a4991508690600401612c69565b600060405180830381600087803b158015611a6357600080fd5b505af1158015611a77573d6000803e3d6000fd5b50505050611b15604051806040016040528060038152602001626e6f7760e81b815250826001600160a01b0316635f2d82ea6040518163ffffffff1660e01b81526004016101206040518083038186803b158015611ad457600080fd5b505afa158015611ae8573d6000803e3d6000fd5b505050506040513d601f19601f82011682018060405250810190611b0c9190612756565b6040015161180f565b82516020808501516040808701516060880151608089015160a08a015160c08b015160e08c01516101008d0151965160009a611b559a9099989101612a7c565b6040516020818303038152906040528051906020012060001c9050856003611b7c836113ea565b604051611b899190612987565b90815260405190819003602001902080546001600160a01b03929092166001600160a01b0319909216919091179055611bc1816113ea565b6001600160a01b03871660009081526004602090815260409091208251611bee939192919091019061237f565b506001600160a01b038616600090815260066020818152604080842080546001600160a01b0319908116825560018201869055600282018690556003820186905560048201869055600582018690559381018590556007810194909455600890930180549092169091558151808301909252601b82527f6265666f7265486173682c20686173682e746f537472696e672829000000000090820152611c9c9084611c97846113ea565b6122f1565b7fe3e57a24b8f74d2723608b23c0f9b294b5919b85093bade5338255ac2f90355683611cc7836113ea565b604051611cd5929190612b33565b60405180910390a150600195945050505050565b50600092915050565b50919050565b6000611d118360200151856118b390919063ffffffff16565b9050611d446040518060400160405280600f81526020016e5f61667465724a6f696e5461626c6560881b8152503361150c565b60408051808201825260198152783130b630b731b29037b31030b2323932b9b9943a3434b9949d60391b602082015260005491516370a0823160e01b81523060048201819052611dfb9390916001600160a01b03909116906370a08231906024015b60206040518083038186803b158015611dbe57600080fd5b505afa158015611dd2573d6000803e3d6000fd5b505050506040513d601f19601f82011682018060405250810190611df691906127da565b612338565b6000546040516323b872dd60e01b8152336004820152306024820152604481018390526001600160a01b03909116906323b872dd90606401602060405180830381600087803b158015611e4d57600080fd5b505af1158015611e61573d6000803e3d6000fd5b505050506040513d601f19601f82011682018060405250810190611e859190612699565b5060408051808201825260198152783130b630b731b29037b31030b2323932b9b9943a3434b9949d60391b602082015260005491516370a0823160e01b81523060048201819052611eec9390916001600160a01b03909116906370a0823190602401611da6565b6001600160a01b03821660009081526005602052604081208054839290611f14908490612d66565b92505081905550611f42604051806060016040528060258152602001612eb760259139828560c00151611854565b60c08301511561213b5760c0830151600090611f6490610921846127106118a0565b9050611f9e6040518060400160405280601681526020017518985b9ad95c90dbdb5b5a5cdcda5bdb905b5bdd5b9d60521b8152508261180f565b6001600160a01b03831660009081526005602052604090205481111561201a5760405162461bcd60e51b815260206004820152602b60248201527f5461626c6520706f6f6c206e6f7420656e6f75676820666f722062616e6b657260448201526a436f6d6d697373696f6e2160a81b606482015260840161022d565b6001600160a01b03831660009081526005602052604081208054839290612042908490612db1565b909155505060005461010085015160405163a9059cbb60e01b81526001600160a01b0391821660048201526024810184905291169063a9059cbb90604401602060405180830381600087803b15801561209a57600080fd5b505af11580156120ae573d6000803e3d6000fd5b505050506040513d601f19601f820116820180604052508101906120d29190612699565b5060408051808201825260198152783130b630b731b29037b31030b2323932b9b9943a3434b9949d60391b602082015260005491516370a0823160e01b815230600482018190526121399390916001600160a01b03909116906370a0823190602401611da6565b505b336000908152600260205260409020546001600160a01b03168015801590612167575060008460e00151115b156118085760e084015160009061218490610921856127106118a0565b6001600160a01b0385166000908152600560205260409020549091508111156122055760405162461bcd60e51b815260206004820152602d60248201527f5461626c6520706f6f6c206e6f7420656e6f75676820666f722072656665727260448201526c616c436f6d6d697373696f6e2160981b606482015260840161022d565b6001600160a01b0384166000908152600560205260408120805483929061222d908490612db1565b909155505060005460405163a9059cbb60e01b81526001600160a01b038481166004830152602482018490529091169063a9059cbb90604401602060405180830381600087803b15801561228057600080fd5b505af1158015612294573d6000803e3d6000fd5b505050506040513d601f19601f820116820180604052508101906118059190612699565b80516a636f6e736f6c652e6c6f67602083016000808483855afa5050505050565b60006118ac8284612db1565b60006118ac8284612e48565b61189b83838360405160240161230993929190612b61565b60408051601f198184030181529190526020810180516001600160e01b0316632ced7cef60e01b1790526122b8565b61189b83838360405160240161235093929190612b05565b60408051601f198184030181529190526020810180516001600160e01b03166307c8121760e01b1790526122b8565b82805461238b90612df8565b90600052602060002090601f0160209004810192826123ad57600085556123f3565b82601f106123c657805160ff19168380011785556123f3565b828001600101855582156123f3579182015b828111156123f35782518255916020019190600101906123d8565b506123ff929150612403565b5090565b5b808211156123ff5760008155600101612404565b8035610e7881612e9e565b8051610e7881612e9e565b600082601f83011261243e578081fd5b8151602061245361244e83612d42565b612d11565b80838252828201915082860187848660051b8901011115612472578586fd5b855b8581101561249957815161248781612e9e565b84529284019290840190600101612474565b5090979650505050505050565b600082601f8301126124b6578081fd5b813567ffffffffffffffff8111156124d0576124d0612e88565b6124e3601f8201601f1916602001612d11565b8181528460208386010111156124f7578283fd5b816020850160208301379081016020019190915292915050565b60006101208284031215612523578081fd5b61252b612ce7565b905061253682612418565b81526020820135602082015260408201356040820152606082013560608201526080820135608082015260a082013560a082015260c082013560c082015260e082013560e082015261010061258c818401612418565b9082015292915050565b6000602082840312156125a7578081fd5b81516118ac81612e9e565b600080604083850312156125c4578081fd5b82356125cf81612e9e565b915060208301356125df81612e9e565b809150509250929050565b60008060008060008060008060006101208a8c031215612608578485fd5b893561261381612e9e565b985060208a0135975060408a0135965060608a0135955060808a0135945060a08a0135935060c08a0135925060e08a013591506101008a013561265581612e9e565b809150509295985092959850929598565b600060208284031215612677578081fd5b815167ffffffffffffffff81111561268d578182fd5b6115048482850161242e565b6000602082840312156126aa578081fd5b815180151581146118ac578182fd5b6000602082840312156126ca578081fd5b813567ffffffffffffffff8111156126e0578182fd5b611504848285016124a6565b60008061014083850312156126ff578182fd5b823567ffffffffffffffff811115612715578283fd5b612721858286016124a6565b9250506127318460208501612511565b90509250929050565b6000610120828403121561274c578081fd5b6118ac8383612511565b60006101208284031215612768578081fd5b612770612ce7565b61277983612423565b81526020830151602082015260408301516040820152606083015160608201526080830151608082015260a083015160a082015260c083015160c082015260e083015160e08201526101006127cf818501612423565b908201529392505050565b6000602082840312156127eb578081fd5b5051919050565b600080600080600060a08688031215612809578283fd5b855194506020808701519450604087015167ffffffffffffffff8082111561282f578586fd5b61283b8a838b0161242e565b9550606089015194506080890151915080821115612857578384fd5b508701601f81018913612868578283fd5b805161287661244e82612d42565b8082825284820191508484018c868560051b8701011115612895578687fd5b8694505b838510156128b7578051835260019490940193918501918501612899565b5080955050505050509295509295909350565b6000806000606084860312156128de578081fd5b8335925060208401359150604084013567ffffffffffffffff811115612902578182fd5b61290e868287016124a6565b9150509250925092565b6000815180845260208085019450808401835b838110156129505781516001600160a01b03168752958201959082019060010161292b565b509495945050505050565b60008151808452612973816020860160208601612dc8565b601f01601f19169290920160200192915050565b60008251612999818460208701612dc8565b9190910192915050565b6001600160a01b0383811682528251166020820152610160810160208301516001600160a01b0381166040840152506040830151606083015260608301516080830152608083015160a083015260a083015160c083015260c083015160e083015260e0830151610100818185015280850151915050610120818185015280850151915050612a3d6101408401826001600160a01b03169052565b509392505050565b60018060a01b0385168152836020820152826040820152608060608201526000612a72608083018461295b565b9695505050505050565b6001600160a01b03998a168152602081019890985260408801969096526060870194909452608086019290925260a085015260c084015260e08301529091166101008201526101200190565b6020815260006118ac602083018461295b565b604081526000612aee604083018561295b565b905060018060a01b03831660208301529392505050565b606081526000612b18606083018661295b565b6001600160a01b039490941660208301525060400152919050565b604081526000612b46604083018561295b565b8281036020840152612b58818561295b565b95945050505050565b606081526000612b74606083018661295b565b8281036020840152612b86818661295b565b90508281036040840152612a72818561295b565b604081526000612bad604083018561295b565b90508260208301529392505050565b606081526000612bcf606083018661295b565b60208301949094525060400152919050565b60a081526000612bf460a083018861295b565b8660208401528560408401528281036060840152612c128186612918565b90508281036080840152612c268185612918565b98975050505050505050565b81516001600160a01b0390811682526020808401519083015260408084015190830152606092830151169181019190915260800190565b60006101208201905060018060a01b0383511682526020830151602083015260408301516040830152606083015160608301526080830151608083015260a083015160a083015260c083015160c083015260e083015160e083015261010080840151612cdf828501826001600160a01b03169052565b505092915050565b604051610120810167ffffffffffffffff81118282101715612d0b57612d0b612e88565b60405290565b604051601f8201601f1916810167ffffffffffffffff81118282101715612d3a57612d3a612e88565b604052919050565b600067ffffffffffffffff821115612d5c57612d5c612e88565b5060051b60200190565b60008219821115612d7957612d79612e5c565b500190565b600082612d8d57612d8d612e72565b500490565b6000816000190483118215151615612dac57612dac612e5c565b500290565b600082821015612dc357612dc3612e5c565b500390565b60005b83811015612de3578181015183820152602001612dcb565b83811115612df2576000848401525b50505050565b600181811c90821680612e0c57607f821691505b60208210811415611cf257634e487b7160e01b600052602260045260246000fd5b6000600019821415612e4157612e41612e5c565b5060010190565b600082612e5757612e57612e72565b500690565b634e487b7160e01b600052601160045260246000fd5b634e487b7160e01b600052601260045260246000fd5b634e487b7160e01b600052604160045260246000fd5b6001600160a01b0381168114612eb357600080fd5b5056fe626574416d6f756e742c207461626c65496e666f2e62616e6b6572436f6d6d697373696f6ea26469706673582212209a85c04fbf9df9f9253755137fb136f54792e8463a4d833bfccaf99d0c8a875764736f6c63430008040033",
  "linkReferences": {
    "contracts/libraries/TableAddress.sol": {
      "TableAddress": [
        {
          "length": 20,
          "start": 5135
        }
      ]
    }
  },
  "deployedLinkReferences": {
    "contracts/libraries/TableAddress.sol": {
      "TableAddress": [
        {
          "length": 20,
          "start": 4870
        }
      ]
    }
  }
}