{
  "_format": "hh-sol-artifact-1",
  "contractName": "LotteryManager",
  "sourceName": "contracts/LotteryManager.sol",
  "abi": [
    {
      "inputs": [
        {
          "internalType": "address",
          "name": "_factory",
          "type": "address"
        },
        {
          "internalType": "address",
          "name": "_tokenAddress",
          "type": "address"
        }
      ],
      "stateMutability": "nonpayable",
      "type": "constructor"
    },
    {
      "anonymous": false,
      "inputs": [
        {
          "indexed": false,
          "internalType": "string",
          "name": "hash",
          "type": "string"
        }
      ],
      "name": "CreateTableIfNecessary",
      "type": "event"
    },
    {
      "anonymous": false,
      "inputs": [
        {
          "indexed": false,
          "internalType": "string",
          "name": "beforeHash",
          "type": "string"
        },
        {
          "indexed": false,
          "internalType": "string",
          "name": "newHash",
          "type": "string"
        }
      ],
      "name": "EditTable",
      "type": "event"
    },
    {
      "anonymous": false,
      "inputs": [
        {
          "indexed": false,
          "internalType": "address",
          "name": "player",
          "type": "address"
        },
        {
          "indexed": false,
          "internalType": "uint256",
          "name": "count",
          "type": "uint256"
        },
        {
          "indexed": false,
          "internalType": "uint256",
          "name": "number",
          "type": "uint256"
        },
        {
          "indexed": false,
          "internalType": "string",
          "name": "hash",
          "type": "string"
        }
      ],
      "name": "JoinTable",
      "type": "event"
    },
    {
      "anonymous": false,
      "inputs": [
        {
          "indexed": false,
          "internalType": "string",
          "name": "hash",
          "type": "string"
        },
        {
          "indexed": false,
          "internalType": "uint256",
          "name": "round",
          "type": "uint256"
        },
        {
          "indexed": false,
          "internalType": "uint256",
          "name": "roundResult",
          "type": "uint256"
        },
        {
          "indexed": false,
          "internalType": "address[]",
          "name": "roundWinnerArray",
          "type": "address[]"
        },
        {
          "indexed": false,
          "internalType": "address[]",
          "name": "allPlayers",
          "type": "address[]"
        }
      ],
      "name": "StartRound",
      "type": "event"
    },
    {
      "inputs": [
        {
          "internalType": "address",
          "name": "creator",
          "type": "address"
        },
        {
          "internalType": "uint256",
          "name": "amount",
          "type": "uint256"
        },
        {
          "internalType": "uint256",
          "name": "minPPL",
          "type": "uint256"
        },
        {
          "internalType": "uint256",
          "name": "maxPPL",
          "type": "uint256"
        },
        {
          "internalType": "uint256",
          "name": "coolDownTime",
          "type": "uint256"
        },
        {
          "internalType": "uint256",
          "name": "gameTime",
          "type": "uint256"
        },
        {
          "internalType": "uint256",
          "name": "bankerCommission",
          "type": "uint256"
        },
        {
          "internalType": "uint256",
          "name": "referralCommission",
          "type": "uint256"
        },
        {
          "internalType": "address",
          "name": "bankerWallet",
          "type": "address"
        }
      ],
      "name": "createTableIfNecessary",
      "outputs": [
        {
          "internalType": "string",
          "name": "hashString",
          "type": "string"
        }
      ],
      "stateMutability": "payable",
      "type": "function"
    },
    {
      "inputs": [
        {
          "internalType": "string",
          "name": "hashString",
          "type": "string"
        },
        {
          "components": [
            {
              "internalType": "address",
              "name": "creator",
              "type": "address"
            },
            {
              "internalType": "uint256",
              "name": "amount",
              "type": "uint256"
            },
            {
              "internalType": "uint256",
              "name": "minPPL",
              "type": "uint256"
            },
            {
              "internalType": "uint256",
              "name": "maxPPL",
              "type": "uint256"
            },
            {
              "internalType": "uint256",
              "name": "coolDownTime",
              "type": "uint256"
            },
            {
              "internalType": "uint256",
              "name": "gameTime",
              "type": "uint256"
            },
            {
              "internalType": "uint256",
              "name": "bankerCommission",
              "type": "uint256"
            },
            {
              "internalType": "uint256",
              "name": "referralCommission",
              "type": "uint256"
            },
            {
              "internalType": "address",
              "name": "bankerWallet",
              "type": "address"
            }
          ],
          "internalType": "struct ILotteryTable.TableInfo",
          "name": "tableInfo",
          "type": "tuple"
        }
      ],
      "name": "editTable",
      "outputs": [],
      "stateMutability": "nonpayable",
      "type": "function"
    },
    {
      "inputs": [],
      "name": "factory",
      "outputs": [
        {
          "internalType": "address",
          "name": "",
          "type": "address"
        }
      ],
      "stateMutability": "view",
      "type": "function"
    },
    {
      "inputs": [
        {
          "internalType": "uint256",
          "name": "count",
          "type": "uint256"
        },
        {
          "internalType": "uint256",
          "name": "number",
          "type": "uint256"
        },
        {
          "internalType": "string",
          "name": "hash",
          "type": "string"
        }
      ],
      "name": "joinTableV2",
      "outputs": [
        {
          "internalType": "bool",
          "name": "result",
          "type": "bool"
        }
      ],
      "stateMutability": "payable",
      "type": "function"
    },
    {
      "inputs": [],
      "name": "owner",
      "outputs": [
        {
          "internalType": "address",
          "name": "",
          "type": "address"
        }
      ],
      "stateMutability": "view",
      "type": "function"
    },
    {
      "inputs": [
        {
          "internalType": "address",
          "name": "a",
          "type": "address"
        },
        {
          "internalType": "address",
          "name": "b",
          "type": "address"
        }
      ],
      "name": "referral",
      "outputs": [
        {
          "internalType": "bool",
          "name": "result",
          "type": "bool"
        }
      ],
      "stateMutability": "nonpayable",
      "type": "function"
    },
    {
      "inputs": [
        {
          "internalType": "string",
          "name": "hash",
          "type": "string"
        }
      ],
      "name": "startRoundV2",
      "outputs": [
        {
          "internalType": "bool",
          "name": "",
          "type": "bool"
        }
      ],
      "stateMutability": "payable",
      "type": "function"
    }
  ],
  "bytecode": "0x60a06040523480156200001157600080fd5b5060405162002d5d38038062002d5d833981016040819052620000349162000097565b6001600160601b031960609290921b91909116608052600080546001600160a01b03929092166001600160a01b03199283161790556001805490911633179055620000ce565b80516001600160a01b03811681146200009257600080fd5b919050565b60008060408385031215620000aa578182fd5b620000b5836200007a565b9150620000c5602084016200007a565b90509250929050565b60805160601c612c62620000fb600039600081816101600152818161023201526103370152612c626000f3fe6080604052600436106100705760003560e01c806353b00f421161004e57806353b00f42146100e15780635433f103146101035780638da5cb5b14610116578063c45a01551461014e57600080fd5b806315282636146100755780631c505d1d1461009e578063225276c8146100ce575b600080fd5b610088610083366004612380565b610182565b6040516100959190612819565b60405180910390f35b3480156100aa57600080fd5b506100be6100b9366004612348565b6104fc565b6040519015158152602001610095565b6100be6100dc36600461244f565b61058d565b3480156100ed57600080fd5b506101016100fc366004612482565b610e5f565b005b6100be6101113660046126bd565b610f9c565b34801561012257600080fd5b50600154610136906001600160a01b031681565b6040516001600160a01b039091168152602001610095565b34801561015a57600080fd5b506101367f000000000000000000000000000000000000000000000000000000000000000081565b6001546060906001600160a01b0316331461019c57600080fd5b6001546001600160a01b031633146102185760405162461bcd60e51b815260206004820152603460248201527f4f6e6c7920636f6e7472616374206f776e657220697320616c6c6f7765642074604482015273379031b0b636103a3434b990333ab731ba34b7b760611b60648201526084015b60405180910390fd5b6040516336c8dfbf60e21b81526000906001600160a01b037f0000000000000000000000000000000000000000000000000000000000000000169063db237efc90610277908e908e908e908e908e908e908e908e908e906004016127cd565b60206040518083038186803b15801561028f57600080fd5b505afa1580156102a3573d6000803e3d6000fd5b505050506040513d601f19601f820116820180604052508101906102c7919061232c565b90506001600160a01b0381166103b757604051633ebc31eb60e11b81523060048201526001600160a01b038c81166024830152604482018c9052606482018b9052608482018a905260a4820189905260c4820188905260e4820187905261010482018690528481166101248301527f00000000000000000000000000000000000000000000000000000000000000001690637d7863d69061014401602060405180830381600087803b15801561037c57600080fd5b505af1158015610390573d6000803e3d6000fd5b505050506040513d601f19601f820116820180604052508101906103b4919061232c565b90505b60008b8b8b8b8b8b8b8b8b6040516020016103da999897969594939291906127cd565b6040516020818303038152906040528051906020012060001c90506103fe81611205565b925081600384604051610411919061277a565b908152604080516020928190038301902080546001600160a01b0319166001600160a01b0394851617905591841660009081526004825291909120845161045a9286019061219a565b50610486604051806040016040528060098152602001683a30b136329034b99d60b91b81525083611327565b6104b66040518060400160405280600e81526020016d3430b9b429ba3934b7339034b99d60911b81525084611370565b7ffeadb03e5864c7ba3800506584c86f9177a7d4a3547a3db6021574c3a678b3d1836040516104e59190612819565b60405180910390a150509998505050505050505050565b6001546000906001600160a01b0316331461051657600080fd5b6001600160a01b03831661052957600080fd5b6001600160a01b03821661053c57600080fd5b816001600160a01b0316836001600160a01b0316141561055b57600080fd5b506001600160a01b03918216600090815260026020526040902080546001600160a01b03191691909216179055600190565b6001546000906001600160a01b031633146105a757600080fd5b60006003836040516105b9919061277a565b908152604051908190036020019020546001600160a01b03169050806106215760405162461bcd60e51b815260206004820152601960248201527f706c6561736520636865636b2074686520616464726573732100000000000000604482015260640161020f565b60008190506000816001600160a01b0316635f2d82ea6040518163ffffffff1660e01b81526004016101206040518083038186803b15801561066257600080fd5b505afa158015610676573d6000803e3d6000fd5b505050506040513d601f19601f8201168201806040525081019061069a9190612549565b90506106a681846113b5565b6000806000806000866001600160a01b031663be9a65556040518163ffffffff1660e01b8152600401600060405180830381600087803b1580156106e957600080fd5b505af11580156106fd573d6000803e3d6000fd5b505050506040513d6000823e601f3d908101601f1916820160405261072591908101906125e5565b9450945094509450945061075c6040518060400160405280600b81526020016a1c9bdd5b9914995cdd5b1d60aa1b8152508561162a565b6000600560008a6001600160a01b03166001600160a01b031681526020019081526020016000205490506107b26040518060400160405280600a8152602001691c1bdbdb105b5bdd5b9d60b21b8152508261162a565b835161085d576001600160a01b0389811660009081526005602052604080822082905590546101008a0151915163a9059cbb60e01b81529183166004830152602482018490529091169063a9059cbb90604401602060405180830381600087803b15801561081f57600080fd5b505af1158015610833573d6000803e3d6000fd5b505050506040513d601f19601f82011682018060405250810190610857919061242f565b50610d15565b60005b8451811015610d1357600085828151811061088b57634e487b7160e01b600052603260045260246000fd5b6020026020010151905060008483815181106108b757634e487b7160e01b600052603260045260246000fd5b602002602001015190506108f36040518060400160405280600f81526020016e18dbdd5b9d0b08185b1b10dbdd5b9d608a1b815250828861166f565b600061090982610903878a6116bb565b906116ce565b9050610936604051806040016040528060098152602001681dda5b905b5bdd5b9d60ba1b8152508261162a565b6001600160a01b038d166000908152600560205260409020548111156109aa5760405162461bcd60e51b8152602060048201526024808201527f7461626c6520706f6f6c206e6f7420656e6f75676820666f722077696e416d6f604482015263756e742160e01b606482015260840161020f565b6001600160a01b038d16600090815260056020526040812080548392906109d2908490612b02565b90915550506040805180820190915260068152653bb4b73732b960d11b60208201526109fe9084611327565b633b9aca006001600160a01b0384161015610bb657604080518082018252601b81527f746f6b656e2e62616c616e63654f66286d73672e73656e646572290000000000602082015260005491516370a0823160e01b8152336004820152610ac8926001600160a01b0316906370a08231906024015b60206040518083038186803b158015610a8b57600080fd5b505afa158015610a9f573d6000803e3d6000fd5b505050506040513d601f19601f82011682018060405250810190610ac391906125cd565b61162a565b60005460405163a9059cbb60e01b8152336004820152602481018390526001600160a01b039091169063a9059cbb90604401602060405180830381600087803b158015610b1457600080fd5b505af1158015610b28573d6000803e3d6000fd5b505050506040513d601f19601f82011682018060405250810190610b4c919061242f565b50604080518082018252601b81527f746f6b656e2e62616c616e63654f66286d73672e73656e646572290000000000602082015260005491516370a0823160e01b8152336004820152610bb1926001600160a01b0316906370a0823190602401610a73565b610cfd565b6040805180820182526017815276746f6b656e2e62616c616e63654f662877696e6e65722960481b602082015260005491516370a0823160e01b81526001600160a01b038681166004830152610c169316906370a0823190602401610a73565b60005460405163a9059cbb60e01b81526001600160a01b038581166004830152602482018490529091169063a9059cbb90604401602060405180830381600087803b158015610c6457600080fd5b505af1158015610c78573d6000803e3d6000fd5b505050506040513d601f19601f82011682018060405250810190610c9c919061242f565b506040805180820182526017815276746f6b656e2e62616c616e63654f662877696e6e65722960481b602082015260005491516370a0823160e01b81526001600160a01b038681166004830152610cfd9316906370a0823190602401610a73565b5050508080610d0b90612b7e565b915050610860565b505b876001600160a01b031663d826f88f6040518163ffffffff1660e01b8152600401602060405180830381600087803b158015610d5057600080fd5b505af1158015610d64573d6000803e3d6000fd5b505050506040513d601f19601f82011682018060405250810190610d88919061242f565b50610d92896116da565b506000886001600160a01b031663efa1c4826040518163ffffffff1660e01b815260040160006040518083038186803b158015610dce57600080fd5b505afa158015610de2573d6000803e3d6000fd5b505050506040513d6000823e601f3d908101601f19168201604052610e0a91908101906123fc565b90507f098bdb345a1d578ac9b9dc82f5e8fb1f6712f38b127c6020e3b780f1308399368c88888885604051610e43959493929190612932565b60405180910390a160019a50505050505050505050505b919050565b6001546001600160a01b03163314610e7657600080fd5b6000600383604051610e88919061277a565b908152604051908190036020019020546001600160a01b0316905080610f075760405162461bcd60e51b815260206004820152602e60248201527f4e6f207461626c6520776974682074686520686173682c20706c65617365206360448201526d6865636b2074686520686173682160901b606482015260840161020f565b6001600160a01b03908116600090815260066020818152604092839020855181546001600160a01b0319908116918716919091178255918601516001820155928501516002840155606085015160038401556080850151600484015560a0850151600584015560c08501519183019190915560e084015160078301556101009093015160089091018054909316911617905550565b6000610fd3604051806040016040528060138152602001726a6f696e5461626c655632206861736820697360681b81525083611370565b336000908152600260205260408082205490516001600160a01b03909116919060039061100190869061277a565b90815260408051918290036020908101832054838301909252600f83526e7461626c654164647265737320697360881b908301526001600160a01b0316915061104a9082611327565b6001600160a01b0381166110b75760405162461bcd60e51b815260206004820152602e60248201527f6e6f207461626c6520776974682074686520686173682c20706c65617365206360448201526d6865636b2074686520686173682160901b606482015260840161020f565b60408051608081018252338152602081018890528082018790526001600160a01b038481166060830152915163796ab25d60e01b8152839283169063796ab25d90611106908490600401612983565b600060405180830381600087803b15801561112057600080fd5b505af1158015611134573d6000803e3d6000fd5b505050506000826001600160a01b0316635f2d82ea6040518163ffffffff1660e01b81526004016101206040518083038186803b15801561117457600080fd5b505afa158015611188573d6000803e3d6000fd5b505050506040513d601f19601f820116820180604052508101906111ac9190612549565b90506111b9898286611b13565b7f08b584e6aceb13e620c46e9d7288284e3b3a1c9dce5ca8e843559f5c4c8456a7338a8a8a6040516111ee9493929190612796565b60405180910390a150600198975050505050505050565b6060816112295750506040805180820190915260018152600360fc1b602082015290565b8160005b8115611253578061123d81612b7e565b915061124c9050600a83612acf565b915061122d565b60008167ffffffffffffffff81111561127c57634e487b7160e01b600052604160045260246000fd5b6040519080825280601f01601f1916602001820160405280156112a6576020820181803683370190505b5090505b841561131f576112bb600183612b02565b91506112c8600a86612b99565b6112d3906030612ab7565b60f81b8183815181106112f657634e487b7160e01b600052603260045260246000fd5b60200101906001600160f81b031916908160001a905350611318600a86612acf565b94506112aa565b949350505050565b61136c828260405160240161133d92919061282c565b60408051601f198184030181529190526020810180516001600160e01b031663319af33360e01b1790526120d3565b5050565b61136c8282604051602401611386929190612884565b60408051601f198184030181529190526020810180516001600160e01b0316634b5c427760e01b1790526120d3565b60008190506000816001600160a01b031663efa1c4826040518163ffffffff1660e01b815260040160006040518083038186803b1580156113f557600080fd5b505afa158015611409573d6000803e3d6000fd5b505050506040513d6000823e601f3d908101601f1916820160405261143191908101906123fc565b805160408601519192509081101561162357604085015160009061145590836120f4565b905060005b818110156116205761148e6040518060400160405280600a815260200169030b232103937b137ba160b51b8152508261162a565b60006114d5600a6114cf8460408051426020808301919091524482840152606080830194909452825180830390940184526080909101909152815191012090565b90612100565b9050600082905061150c6040518060400160405280600e81526020016d726f626f7473206164647265737360901b81525082611327565b61154d604051806040016040528060168152602001750726f626f747320616464726573732075696e743136360541b815250826001600160a01b031661162a565b61157c6040518060400160405280600d81526020016c3937b137ba3990373ab6b132b960991b8152508361162a565b604080516080810182526001600160a01b0380841682526001602083015281830185905260006060830152915163796ab25d60e01b8152909189169063796ab25d906115cc908490600401612983565b600060405180830381600087803b1580156115e657600080fd5b505af11580156115fa573d6000803e3d6000fd5b5050505061160a60018b8b611b13565b505050808061161890612b7e565b91505061145a565b50505b5050505050565b61136c82826040516024016116409291906128eb565b60408051601f198184030181529190526020810180516001600160e01b03166309710a9d60e41b1790526120d3565b6116b68383836040516024016116879392919061290d565b60408051601f198184030181529190526020810180516001600160e01b031663969cdd0360e01b1790526120d3565b505050565b60006116c78284612acf565b9392505050565b60006116c78284612ae3565b6001600160a01b0380821660009081526006602081815260408084208151610120810183528154871681526001820154818501526002820154818401908152600380840154606084015260048401546080840152600584015460a08401529583015460c0830152600783015460e083015260089092015490961661010087015281518083019092529281526261736b60e81b918101919091529051919291611782919061162a565b80516001600160a01b031615611b04576001600160a01b038316600090815260046020526040812080546117b590612b49565b80601f01602080910402602001604051908101604052809291908181526020018280546117e190612b49565b801561182e5780601f106118035761010080835404028352916020019161182e565b820191906000526020600020905b81548152906001019060200180831161181157829003601f168201915b505060405163fa2d259d60e01b815293945087936001600160a01b038516935063fa2d259d9250611864915086906004016129ba565b600060405180830381600087803b15801561187e57600080fd5b505af1158015611892573d6000803e3d6000fd5b50505050611930604051806040016040528060038152602001626e6f7760e81b815250826001600160a01b0316635f2d82ea6040518163ffffffff1660e01b81526004016101206040518083038186803b1580156118ef57600080fd5b505afa158015611903573d6000803e3d6000fd5b505050506040513d601f19601f820116820180604052508101906119279190612549565b6040015161162a565b82516020808501516040808701516060880151608089015160a08a015160c08b015160e08c01516101008d0151965160009a6119709a90999891016127cd565b6040516020818303038152906040528051906020012060001c905085600361199783611205565b6040516119a4919061277a565b90815260405190819003602001902080546001600160a01b03929092166001600160a01b03199092169190911790556119dc81611205565b6001600160a01b03871660009081526004602090815260409091208251611a09939192919091019061219a565b506001600160a01b038616600090815260066020818152604080842080546001600160a01b0319908116825560018201869055600282018690556003820186905560048201869055600582018690559381018590556007810194909455600890930180549092169091558151808301909252601b82527f6265666f7265486173682c20686173682e746f537472696e672829000000000090820152611ab79084611ab284611205565b61210c565b7fe3e57a24b8f74d2723608b23c0f9b294b5919b85093bade5338255ac2f90355683611ae283611205565b604051611af0929190612884565b60405180910390a150600195945050505050565b50600092915050565b50919050565b6000611b2c8360200151856116ce90919063ffffffff16565b9050611b5f6040518060400160405280600f81526020016e5f61667465724a6f696e5461626c6560881b81525033611327565b60408051808201825260198152783130b630b731b29037b31030b2323932b9b9943a3434b9949d60391b602082015260005491516370a0823160e01b81523060048201819052611c169390916001600160a01b03909116906370a08231906024015b60206040518083038186803b158015611bd957600080fd5b505afa158015611bed573d6000803e3d6000fd5b505050506040513d601f19601f82011682018060405250810190611c1191906125cd565b612153565b6000546040516323b872dd60e01b8152336004820152306024820152604481018390526001600160a01b03909116906323b872dd90606401602060405180830381600087803b158015611c6857600080fd5b505af1158015611c7c573d6000803e3d6000fd5b505050506040513d601f19601f82011682018060405250810190611ca0919061242f565b5060408051808201825260198152783130b630b731b29037b31030b2323932b9b9943a3434b9949d60391b602082015260005491516370a0823160e01b81523060048201819052611d079390916001600160a01b03909116906370a0823190602401611bc1565b6001600160a01b03821660009081526005602052604081208054839290611d2f908490612ab7565b92505081905550611d5d604051806060016040528060258152602001612c0860259139828560c0015161166f565b60c083015115611f565760c0830151600090611d7f90610903846127106116bb565b9050611db96040518060400160405280601681526020017518985b9ad95c90dbdb5b5a5cdcda5bdb905b5bdd5b9d60521b8152508261162a565b6001600160a01b038316600090815260056020526040902054811115611e355760405162461bcd60e51b815260206004820152602b60248201527f5461626c6520706f6f6c206e6f7420656e6f75676820666f722062616e6b657260448201526a436f6d6d697373696f6e2160a81b606482015260840161020f565b6001600160a01b03831660009081526005602052604081208054839290611e5d908490612b02565b909155505060005461010085015160405163a9059cbb60e01b81526001600160a01b0391821660048201526024810184905291169063a9059cbb90604401602060405180830381600087803b158015611eb557600080fd5b505af1158015611ec9573d6000803e3d6000fd5b505050506040513d601f19601f82011682018060405250810190611eed919061242f565b5060408051808201825260198152783130b630b731b29037b31030b2323932b9b9943a3434b9949d60391b602082015260005491516370a0823160e01b81523060048201819052611f549390916001600160a01b03909116906370a0823190602401611bc1565b505b336000908152600260205260409020546001600160a01b03168015801590611f82575060008460e00151115b156116235760e0840151600090611f9f90610903856127106116bb565b6001600160a01b0385166000908152600560205260409020549091508111156120205760405162461bcd60e51b815260206004820152602d60248201527f5461626c6520706f6f6c206e6f7420656e6f75676820666f722072656665727260448201526c616c436f6d6d697373696f6e2160981b606482015260840161020f565b6001600160a01b03841660009081526005602052604081208054839290612048908490612b02565b909155505060005460405163a9059cbb60e01b81526001600160a01b038481166004830152602482018490529091169063a9059cbb90604401602060405180830381600087803b15801561209b57600080fd5b505af11580156120af573d6000803e3d6000fd5b505050506040513d601f19601f82011682018060405250810190611620919061242f565b80516a636f6e736f6c652e6c6f67602083016000808483855afa5050505050565b60006116c78284612b02565b60006116c78284612b99565b6116b6838383604051602401612124939291906128b2565b60408051601f198184030181529190526020810180516001600160e01b0316632ced7cef60e01b1790526120d3565b6116b683838360405160240161216b93929190612856565b60408051601f198184030181529190526020810180516001600160e01b03166307c8121760e01b1790526120d3565b8280546121a690612b49565b90600052602060002090601f0160209004810192826121c8576000855561220e565b82601f106121e157805160ff191683800117855561220e565b8280016001018555821561220e579182015b8281111561220e5782518255916020019190600101906121f3565b5061221a92915061221e565b5090565b5b8082111561221a576000815560010161221f565b8035610e5a81612bef565b8051610e5a81612bef565b600082601f830112612259578081fd5b8151602061226e61226983612a93565b612a62565b80838252828201915082860187848660051b890101111561228d578586fd5b855b858110156122b45781516122a281612bef565b8452928401929084019060010161228f565b5090979650505050505050565b600082601f8301126122d1578081fd5b813567ffffffffffffffff8111156122eb576122eb612bd9565b6122fe601f8201601f1916602001612a62565b818152846020838601011115612312578283fd5b816020850160208301379081016020019190915292915050565b60006020828403121561233d578081fd5b81516116c781612bef565b6000806040838503121561235a578081fd5b823561236581612bef565b9150602083013561237581612bef565b809150509250929050565b60008060008060008060008060006101208a8c03121561239e578485fd5b89356123a981612bef565b985060208a0135975060408a0135965060608a0135955060808a0135945060a08a0135935060c08a0135925060e08a013591506101008a01356123eb81612bef565b809150509295985092959850929598565b60006020828403121561240d578081fd5b815167ffffffffffffffff811115612423578182fd5b61131f84828501612249565b600060208284031215612440578081fd5b815180151581146116c7578182fd5b600060208284031215612460578081fd5b813567ffffffffffffffff811115612476578182fd5b61131f848285016122c1565b600080828403610140811215612496578283fd5b833567ffffffffffffffff8111156124ac578384fd5b6124b8868287016122c1565b93505061012080601f19830112156124ce578283fd5b6124d6612a38565b91506124e460208601612233565b825260408501356020830152606085013560408301526080850135606083015260a0850135608083015260c085013560a083015260e085013560c08301526101008086013560e0840152612539828701612233565b9083015250919491935090915050565b6000610120828403121561255b578081fd5b612563612a38565b61256c8361223e565b81526020830151602082015260408301516040820152606083015160608201526080830151608082015260a083015160a082015260c083015160c082015260e083015160e08201526101006125c281850161223e565b908201529392505050565b6000602082840312156125de578081fd5b5051919050565b600080600080600060a086880312156125fc578283fd5b855194506020808701519450604087015167ffffffffffffffff80821115612622578586fd5b61262e8a838b01612249565b955060608901519450608089015191508082111561264a578384fd5b508701601f8101891361265b578283fd5b805161266961226982612a93565b8082825284820191508484018c868560051b8701011115612688578687fd5b8694505b838510156126aa57805183526001949094019391850191850161268c565b5080955050505050509295509295909350565b6000806000606084860312156126d1578081fd5b8335925060208401359150604084013567ffffffffffffffff8111156126f5578182fd5b612701868287016122c1565b9150509250925092565b6000815180845260208085019450808401835b838110156127435781516001600160a01b03168752958201959082019060010161271e565b509495945050505050565b60008151808452612766816020860160208601612b19565b601f01601f19169290920160200192915050565b6000825161278c818460208701612b19565b9190910192915050565b60018060a01b03851681528360208201528260408201526080606082015260006127c3608083018461274e565b9695505050505050565b6001600160a01b03998a168152602081019890985260408801969096526060870194909452608086019290925260a085015260c084015260e08301529091166101008201526101200190565b6020815260006116c7602083018461274e565b60408152600061283f604083018561274e565b905060018060a01b03831660208301529392505050565b606081526000612869606083018661274e565b6001600160a01b039490941660208301525060400152919050565b604081526000612897604083018561274e565b82810360208401526128a9818561274e565b95945050505050565b6060815260006128c5606083018661274e565b82810360208401526128d7818661274e565b905082810360408401526127c3818561274e565b6040815260006128fe604083018561274e565b90508260208301529392505050565b606081526000612920606083018661274e565b60208301949094525060400152919050565b60a08152600061294560a083018861274e565b8660208401528560408401528281036060840152612963818661270b565b90508281036080840152612977818561270b565b98975050505050505050565b81516001600160a01b0390811682526020808401519083015260408084015190830152606092830151169181019190915260800190565b60006101208201905060018060a01b0383511682526020830151602083015260408301516040830152606083015160608301526080830151608083015260a083015160a083015260c083015160c083015260e083015160e083015261010080840151612a30828501826001600160a01b03169052565b505092915050565b604051610120810167ffffffffffffffff81118282101715612a5c57612a5c612bd9565b60405290565b604051601f8201601f1916810167ffffffffffffffff81118282101715612a8b57612a8b612bd9565b604052919050565b600067ffffffffffffffff821115612aad57612aad612bd9565b5060051b60200190565b60008219821115612aca57612aca612bad565b500190565b600082612ade57612ade612bc3565b500490565b6000816000190483118215151615612afd57612afd612bad565b500290565b600082821015612b1457612b14612bad565b500390565b60005b83811015612b34578181015183820152602001612b1c565b83811115612b43576000848401525b50505050565b600181811c90821680612b5d57607f821691505b60208210811415611b0d57634e487b7160e01b600052602260045260246000fd5b6000600019821415612b9257612b92612bad565b5060010190565b600082612ba857612ba8612bc3565b500690565b634e487b7160e01b600052601160045260246000fd5b634e487b7160e01b600052601260045260246000fd5b634e487b7160e01b600052604160045260246000fd5b6001600160a01b0381168114612c0457600080fd5b5056fe626574416d6f756e742c207461626c65496e666f2e62616e6b6572436f6d6d697373696f6ea26469706673582212205b8f5d5d75994cc173b091ca354e0c4613d80cd8629aca2ae9907747a490814e64736f6c63430008040033",
  "linkReferences": {},
  "deployedLinkReferences": {}
}