{
  "_format": "hh-sol-artifact-1",
  "contractName": "LotteryManager",
  "sourceName": "contracts/LotteryManager.sol",
  "abi": [
    {
      "inputs": [
        {
          "internalType": "address",
          "name": "_factory",
          "type": "address"
        }
      ],
      "stateMutability": "nonpayable",
      "type": "constructor"
    },
    {
      "inputs": [
        {
          "internalType": "address",
          "name": "creator",
          "type": "address"
        },
        {
          "internalType": "uint256",
          "name": "amount",
          "type": "uint256"
        },
        {
          "internalType": "uint256",
          "name": "minPPL",
          "type": "uint256"
        },
        {
          "internalType": "uint256",
          "name": "maxPPL",
          "type": "uint256"
        },
        {
          "internalType": "uint256",
          "name": "coolDownTime",
          "type": "uint256"
        },
        {
          "internalType": "uint256",
          "name": "gameTime",
          "type": "uint256"
        },
        {
          "internalType": "uint256",
          "name": "bankerCommission",
          "type": "uint256"
        },
        {
          "internalType": "uint256",
          "name": "referralCommission",
          "type": "uint256"
        },
        {
          "internalType": "address",
          "name": "bankerWallet",
          "type": "address"
        }
      ],
      "name": "createTableIfNecessary",
      "outputs": [
        {
          "internalType": "bool",
          "name": "result",
          "type": "bool"
        }
      ],
      "stateMutability": "payable",
      "type": "function"
    },
    {
      "inputs": [],
      "name": "factory",
      "outputs": [
        {
          "internalType": "address",
          "name": "",
          "type": "address"
        }
      ],
      "stateMutability": "view",
      "type": "function"
    },
    {
      "inputs": [
        {
          "internalType": "uint32",
          "name": "count",
          "type": "uint32"
        },
        {
          "internalType": "uint8",
          "name": "number",
          "type": "uint8"
        },
        {
          "components": [
            {
              "internalType": "address",
              "name": "creator",
              "type": "address"
            },
            {
              "internalType": "uint256",
              "name": "amount",
              "type": "uint256"
            },
            {
              "internalType": "uint256",
              "name": "minPPL",
              "type": "uint256"
            },
            {
              "internalType": "uint256",
              "name": "maxPPL",
              "type": "uint256"
            },
            {
              "internalType": "uint256",
              "name": "coolDownTime",
              "type": "uint256"
            },
            {
              "internalType": "uint256",
              "name": "gameTime",
              "type": "uint256"
            },
            {
              "internalType": "uint256",
              "name": "bankerCommission",
              "type": "uint256"
            },
            {
              "internalType": "uint256",
              "name": "referralCommission",
              "type": "uint256"
            },
            {
              "internalType": "address",
              "name": "bankerWallet",
              "type": "address"
            }
          ],
          "internalType": "struct ILotteryTable.TableInfo",
          "name": "tableInfo",
          "type": "tuple"
        }
      ],
      "name": "joinTableV1",
      "outputs": [
        {
          "internalType": "bool",
          "name": "result",
          "type": "bool"
        }
      ],
      "stateMutability": "payable",
      "type": "function"
    },
    {
      "inputs": [
        {
          "internalType": "address",
          "name": "a",
          "type": "address"
        },
        {
          "internalType": "address",
          "name": "b",
          "type": "address"
        }
      ],
      "name": "referral",
      "outputs": [
        {
          "internalType": "bool",
          "name": "result",
          "type": "bool"
        }
      ],
      "stateMutability": "nonpayable",
      "type": "function"
    },
    {
      "inputs": [
        {
          "components": [
            {
              "internalType": "address",
              "name": "creator",
              "type": "address"
            },
            {
              "internalType": "uint256",
              "name": "amount",
              "type": "uint256"
            },
            {
              "internalType": "uint256",
              "name": "minPPL",
              "type": "uint256"
            },
            {
              "internalType": "uint256",
              "name": "maxPPL",
              "type": "uint256"
            },
            {
              "internalType": "uint256",
              "name": "coolDownTime",
              "type": "uint256"
            },
            {
              "internalType": "uint256",
              "name": "gameTime",
              "type": "uint256"
            },
            {
              "internalType": "uint256",
              "name": "bankerCommission",
              "type": "uint256"
            },
            {
              "internalType": "uint256",
              "name": "referralCommission",
              "type": "uint256"
            },
            {
              "internalType": "address",
              "name": "bankerWallet",
              "type": "address"
            }
          ],
          "internalType": "struct ILotteryTable.TableInfo",
          "name": "tableInfo",
          "type": "tuple"
        }
      ],
      "name": "startRound",
      "outputs": [
        {
          "internalType": "bool",
          "name": "result",
          "type": "bool"
        }
      ],
      "stateMutability": "payable",
      "type": "function"
    }
  ],
  "bytecode": "0x60a060405234801561001057600080fd5b50604051610cc9380380610cc983398101604081905261002f91610058565b60601b6001600160601b03191660805260008054336001600160a01b0319909116179055610086565b600060208284031215610069578081fd5b81516001600160a01b038116811461007f578182fd5b9392505050565b60805160601c610c186100b16000396000818160cf015281816101b701526102720152610c186000f3fe60806040526004361061004a5760003560e01c8063152826361461004f5780631c505d1d1461007757806341b5987a14610097578063b3c7e317146100aa578063c45a0155146100bd575b600080fd5b61006261005d3660046109c2565b610109565b60405190151581526020015b60405180910390f35b34801561008357600080fd5b5061006261009236600461098a565b6103bb565b6100626100a5366004610a5a565b61044f565b6100626100b8366004610a3e565b6106f2565b3480156100c957600080fd5b506100f17f000000000000000000000000000000000000000000000000000000000000000081565b6040516001600160a01b03909116815260200161006e565b600080546001600160a01b0316331461012157600080fd5b6000546001600160a01b0316331461019d5760405162461bcd60e51b815260206004820152603460248201527f4f6e6c7920636f6e7472616374206f776e657220697320616c6c6f7765642074604482015273379031b0b636103a3434b990333ab731ba34b7b760611b60648201526084015b60405180910390fd5b6040516336c8dfbf60e21b81526000906001600160a01b037f0000000000000000000000000000000000000000000000000000000000000000169063db237efc906101fc908e908e908e908e908e908e908e908e908e90600401610afa565b60206040518083038186803b15801561021457600080fd5b505afa158015610228573d6000803e3d6000fd5b505050506040513d601f19601f8201168201806040525081019061024c9190610967565b90506001600160a01b03811661030c576040516203ca4760ed1b81526001600160a01b037f00000000000000000000000000000000000000000000000000000000000000001690637948e000906102b7908e908e908e908e908e908e908e908e908e90600401610afa565b602060405180830381600087803b1580156102d157600080fd5b505af11580156102e5573d6000803e3d6000fd5b505050506040513d601f19601f820116820180604052508101906103099190610967565b90505b610337604051806040016040528060098152602001683a30b136329034b99d60b91b81525082610827565b60008b8b8b8b8b8b8b8b8b60405160200161035a99989796959493929190610afa565b60408051601f19818403018152918152815160209283012060008181526002845282812080546001600160a01b039097166001600160a01b0319909716871790559485526003909252909220919091555060019a9950505050505050505050565b600080546001600160a01b031633146103d357600080fd5b6001600160a01b0383166103e657600080fd5b6001600160a01b0382166103f957600080fd5b816001600160a01b0316836001600160a01b0316141561041857600080fd5b506001600160a01b03918216600090815260016020819052604090912080546001600160a01b031916929093169190911790915590565b60006104846040518060400160405280600d81526020016c3a30b13632a4b733379034b99d60991b8152508360000151610827565b3360009081526001602090815260408083205485518684015187840151606089015160808a015160a08b015160c08c015160e08d01516101008e015199516001600160a01b039099169b9a6104ea9a989997989697959694959394929391929101610afa565b60408051601f198184030181529181528151602092830120600081815260029093529120549091506001600160a01b0316806105645760405162461bcd60e51b8152602060048201526019602482015278706c6561736520636865636b2074686520616464726573732160381b6044820152606401610194565b6105956040518060400160405280600f81526020016e7461626c654164647265737320697360881b81525082610827565b6105f96040518060400160405280601781526020017f7461626c65486173685b7461626c65416464726573735d00000000000000000081525060036000846001600160a01b03166001600160a01b0316815260200190815260200160002054610870565b6001600160a01b03811660009081526003602052604090205461061b57600080fd5b6106496040518060400160405280600c81526020016b7461626c654164647265737360a01b81525082610827565b6040805160608101825263ffffffff898116825260ff898116602084019081526001600160a01b03888116858701908152955163fbe25d4760e01b81528551909416600485015290519091166024830152925183166044820152839283169063fbe25d4790606401600060405180830381600087803b1580156106cb57600080fd5b505af11580156106df573d6000803e3d6000fd5b5060019c9b505050505050505050505050565b600080546001600160a01b0316331461070a57600080fd5b81516020808401516040808601516060870151608088015160a089015160c08a015160e08b01516101008c0151965160009a61074a9a9099989101610afa565b60408051601f198184030181529181528151602092830120600081815260029093529120549091506001600160a01b0316806107c45760405162461bcd60e51b8152602060048201526019602482015278706c6561736520636865636b2074686520616464726573732160381b6044820152606401610194565b6000819050806001600160a01b031663be9a65556040518163ffffffff1660e01b8152600401600060405180830381600087803b15801561080457600080fd5b505af1158015610818573d6000803e3d6000fd5b50600198975050505050505050565b61086c828260405160240161083d929190610b46565b60408051601f198184030181529190526020810180516001600160e01b031663319af33360e01b1790526108b1565b5050565b61086c8282604051602401610886929190610b70565b60408051601f198184030181529190526020810180516001600160e01b03166309710a9d60e41b1790525b80516a636f6e736f6c652e6c6f67602083016000808483855afa5050505050565b80356108dd81610bca565b919050565b600061012082840312156108f4578081fd5b6108fc610b92565b9050610907826108d2565b81526020820135602082015260408201356040820152606082013560608201526080820135608082015260a082013560a082015260c082013560c082015260e082013560e082015261010061095d8184016108d2565b9082015292915050565b600060208284031215610978578081fd5b815161098381610bca565b9392505050565b6000806040838503121561099c578081fd5b82356109a781610bca565b915060208301356109b781610bca565b809150509250929050565b60008060008060008060008060006101208a8c0312156109e0578485fd5b89356109eb81610bca565b985060208a0135975060408a0135965060608a0135955060808a0135945060a08a0135935060c08a0135925060e08a013591506101008a0135610a2d81610bca565b809150509295985092959850929598565b60006101208284031215610a50578081fd5b61098383836108e2565b60008060006101608486031215610a6f578283fd5b833563ffffffff81168114610a82578384fd5b9250602084013560ff81168114610a97578283fd5b9150610aa685604086016108e2565b90509250925092565b60008151808452815b81811015610ad457602081850181015186830182015201610ab8565b81811115610ae55782602083870101525b50601f01601f19169290920160200192915050565b6001600160a01b03998a168152602081019890985260408801969096526060870194909452608086019290925260a085015260c084015260e08301529091166101008201526101200190565b604081526000610b596040830185610aaf565b905060018060a01b03831660208301529392505050565b604081526000610b836040830185610aaf565b90508260208301529392505050565b604051610120810167ffffffffffffffff81118282101715610bc457634e487b7160e01b600052604160045260246000fd5b60405290565b6001600160a01b0381168114610bdf57600080fd5b5056fea2646970667358221220eb4ff61178b60fa61ce0bc39be5bb8612fe5d907baef7208ee7fbfecaacd376164736f6c63430008040033",
  "linkReferences": {},
  "deployedLinkReferences": {}
}