{
  "_format": "hh-sol-artifact-1",
  "contractName": "LotteryManager",
  "sourceName": "contracts/LotteryManager.sol",
  "abi": [
    {
      "inputs": [
        {
          "internalType": "address",
          "name": "_factory",
          "type": "address"
        },
        {
          "internalType": "address",
          "name": "_tokenAddress",
          "type": "address"
        }
      ],
      "stateMutability": "nonpayable",
      "type": "constructor"
    },
    {
      "anonymous": false,
      "inputs": [
        {
          "indexed": false,
          "internalType": "string",
          "name": "hash",
          "type": "string"
        }
      ],
      "name": "CreateTableIfNecessary",
      "type": "event"
    },
    {
      "anonymous": false,
      "inputs": [
        {
          "indexed": false,
          "internalType": "string",
          "name": "beforeHash",
          "type": "string"
        },
        {
          "indexed": false,
          "internalType": "string",
          "name": "newHash",
          "type": "string"
        }
      ],
      "name": "EditTable",
      "type": "event"
    },
    {
      "anonymous": false,
      "inputs": [
        {
          "indexed": false,
          "internalType": "address",
          "name": "player",
          "type": "address"
        },
        {
          "indexed": false,
          "internalType": "uint256",
          "name": "count",
          "type": "uint256"
        },
        {
          "indexed": false,
          "internalType": "uint256",
          "name": "number",
          "type": "uint256"
        },
        {
          "indexed": false,
          "internalType": "string",
          "name": "hash",
          "type": "string"
        }
      ],
      "name": "JoinTable",
      "type": "event"
    },
    {
      "anonymous": false,
      "inputs": [
        {
          "indexed": false,
          "internalType": "string",
          "name": "hash",
          "type": "string"
        },
        {
          "indexed": false,
          "internalType": "uint256",
          "name": "round",
          "type": "uint256"
        },
        {
          "indexed": false,
          "internalType": "uint256",
          "name": "roundResult",
          "type": "uint256"
        },
        {
          "indexed": false,
          "internalType": "address[]",
          "name": "roundWinnerArray",
          "type": "address[]"
        },
        {
          "indexed": false,
          "internalType": "address[]",
          "name": "allPlayers",
          "type": "address[]"
        }
      ],
      "name": "StartRound",
      "type": "event"
    },
    {
      "inputs": [
        {
          "internalType": "address",
          "name": "creator",
          "type": "address"
        },
        {
          "internalType": "uint256",
          "name": "amount",
          "type": "uint256"
        },
        {
          "internalType": "uint256",
          "name": "minPPL",
          "type": "uint256"
        },
        {
          "internalType": "uint256",
          "name": "maxPPL",
          "type": "uint256"
        },
        {
          "internalType": "uint256",
          "name": "coolDownTime",
          "type": "uint256"
        },
        {
          "internalType": "uint256",
          "name": "gameTime",
          "type": "uint256"
        },
        {
          "internalType": "uint256",
          "name": "bankerCommission",
          "type": "uint256"
        },
        {
          "internalType": "uint256",
          "name": "referralCommission",
          "type": "uint256"
        },
        {
          "internalType": "address",
          "name": "bankerWallet",
          "type": "address"
        }
      ],
      "name": "createTableIfNecessary",
      "outputs": [
        {
          "internalType": "string",
          "name": "hashString",
          "type": "string"
        }
      ],
      "stateMutability": "payable",
      "type": "function"
    },
    {
      "inputs": [
        {
          "internalType": "string",
          "name": "hashString",
          "type": "string"
        },
        {
          "components": [
            {
              "internalType": "address",
              "name": "creator",
              "type": "address"
            },
            {
              "internalType": "uint256",
              "name": "amount",
              "type": "uint256"
            },
            {
              "internalType": "uint256",
              "name": "minPPL",
              "type": "uint256"
            },
            {
              "internalType": "uint256",
              "name": "maxPPL",
              "type": "uint256"
            },
            {
              "internalType": "uint256",
              "name": "coolDownTime",
              "type": "uint256"
            },
            {
              "internalType": "uint256",
              "name": "gameTime",
              "type": "uint256"
            },
            {
              "internalType": "uint256",
              "name": "bankerCommission",
              "type": "uint256"
            },
            {
              "internalType": "uint256",
              "name": "referralCommission",
              "type": "uint256"
            },
            {
              "internalType": "address",
              "name": "bankerWallet",
              "type": "address"
            }
          ],
          "internalType": "struct ILotteryTable.TableInfo",
          "name": "tableInfo",
          "type": "tuple"
        }
      ],
      "name": "editTable",
      "outputs": [],
      "stateMutability": "nonpayable",
      "type": "function"
    },
    {
      "inputs": [],
      "name": "factory",
      "outputs": [
        {
          "internalType": "address",
          "name": "",
          "type": "address"
        }
      ],
      "stateMutability": "view",
      "type": "function"
    },
    {
      "inputs": [
        {
          "internalType": "uint256",
          "name": "count",
          "type": "uint256"
        },
        {
          "internalType": "uint256",
          "name": "number",
          "type": "uint256"
        },
        {
          "components": [
            {
              "internalType": "address",
              "name": "creator",
              "type": "address"
            },
            {
              "internalType": "uint256",
              "name": "amount",
              "type": "uint256"
            },
            {
              "internalType": "uint256",
              "name": "minPPL",
              "type": "uint256"
            },
            {
              "internalType": "uint256",
              "name": "maxPPL",
              "type": "uint256"
            },
            {
              "internalType": "uint256",
              "name": "coolDownTime",
              "type": "uint256"
            },
            {
              "internalType": "uint256",
              "name": "gameTime",
              "type": "uint256"
            },
            {
              "internalType": "uint256",
              "name": "bankerCommission",
              "type": "uint256"
            },
            {
              "internalType": "uint256",
              "name": "referralCommission",
              "type": "uint256"
            },
            {
              "internalType": "address",
              "name": "bankerWallet",
              "type": "address"
            }
          ],
          "internalType": "struct ILotteryTable.TableInfo",
          "name": "tableInfo",
          "type": "tuple"
        }
      ],
      "name": "joinTableV1",
      "outputs": [
        {
          "internalType": "bool",
          "name": "result",
          "type": "bool"
        }
      ],
      "stateMutability": "payable",
      "type": "function"
    },
    {
      "inputs": [
        {
          "internalType": "uint256",
          "name": "count",
          "type": "uint256"
        },
        {
          "internalType": "uint256",
          "name": "number",
          "type": "uint256"
        },
        {
          "internalType": "string",
          "name": "hash",
          "type": "string"
        }
      ],
      "name": "joinTableV2",
      "outputs": [
        {
          "internalType": "bool",
          "name": "result",
          "type": "bool"
        }
      ],
      "stateMutability": "payable",
      "type": "function"
    },
    {
      "inputs": [
        {
          "internalType": "address",
          "name": "a",
          "type": "address"
        },
        {
          "internalType": "address",
          "name": "b",
          "type": "address"
        }
      ],
      "name": "referral",
      "outputs": [
        {
          "internalType": "bool",
          "name": "result",
          "type": "bool"
        }
      ],
      "stateMutability": "nonpayable",
      "type": "function"
    },
    {
      "inputs": [
        {
          "components": [
            {
              "internalType": "address",
              "name": "creator",
              "type": "address"
            },
            {
              "internalType": "uint256",
              "name": "amount",
              "type": "uint256"
            },
            {
              "internalType": "uint256",
              "name": "minPPL",
              "type": "uint256"
            },
            {
              "internalType": "uint256",
              "name": "maxPPL",
              "type": "uint256"
            },
            {
              "internalType": "uint256",
              "name": "coolDownTime",
              "type": "uint256"
            },
            {
              "internalType": "uint256",
              "name": "gameTime",
              "type": "uint256"
            },
            {
              "internalType": "uint256",
              "name": "bankerCommission",
              "type": "uint256"
            },
            {
              "internalType": "uint256",
              "name": "referralCommission",
              "type": "uint256"
            },
            {
              "internalType": "address",
              "name": "bankerWallet",
              "type": "address"
            }
          ],
          "internalType": "struct ILotteryTable.TableInfo",
          "name": "tableInfo",
          "type": "tuple"
        }
      ],
      "name": "startRoundV1",
      "outputs": [
        {
          "internalType": "uint256",
          "name": "",
          "type": "uint256"
        },
        {
          "internalType": "uint256",
          "name": "",
          "type": "uint256"
        },
        {
          "internalType": "address[]",
          "name": "",
          "type": "address[]"
        },
        {
          "internalType": "address[]",
          "name": "",
          "type": "address[]"
        }
      ],
      "stateMutability": "payable",
      "type": "function"
    },
    {
      "inputs": [
        {
          "internalType": "string",
          "name": "hash",
          "type": "string"
        }
      ],
      "name": "startRoundV2",
      "outputs": [
        {
          "internalType": "bool",
          "name": "",
          "type": "bool"
        }
      ],
      "stateMutability": "payable",
      "type": "function"
    },
    {
      "inputs": [],
      "name": "token",
      "outputs": [
        {
          "internalType": "contract IERC20",
          "name": "",
          "type": "address"
        }
      ],
      "stateMutability": "view",
      "type": "function"
    }
  ],
  "bytecode": "0x60a06040523480156200001157600080fd5b5060405162002f1038038062002f10833981016040819052620000349162000097565b6001600160601b031960609290921b91909116608052600080546001600160a01b03929092166001600160a01b03199283161790556001805490911633179055620000ce565b80516001600160a01b03811681146200009257600080fd5b919050565b60008060408385031215620000aa578182fd5b620000b5836200007a565b9150620000c5602084016200007a565b90509250929050565b60805160601c612e15620000fb600039600081816101610152818161027e01526103830152612e156000f3fe6080604052600436106100865760003560e01c806353b00f421161005957806353b00f421461011a5780635433f1031461013c578063c45a01551461014f578063d0356c091461019b578063fc0c546a146101ae57600080fd5b8063152826361461008b5780631c505d1d146100b4578063225276c8146100e457806334ac125f146100f7575b600080fd5b61009e61009936600461256a565b6101ce565b6040516100ab91906129dc565b60405180910390f35b3480156100c057600080fd5b506100d46100cf366004612532565b610548565b60405190151581526020016100ab565b6100d46100f2366004612639565b6105d9565b61010a6101053660046126ba565b610b2e565b6040516100ab9493929190612bd4565b34801561012657600080fd5b5061013a61013536600461266c565b6110df565b005b6100d461014a36600461284a565b61121c565b34801561015b57600080fd5b506101837f000000000000000000000000000000000000000000000000000000000000000081565b6040516001600160a01b0390911681526020016100ab565b6100d46101a9366004612898565b611479565b3480156101ba57600080fd5b50600054610183906001600160a01b031681565b6001546060906001600160a01b031633146101e857600080fd5b6001546001600160a01b031633146102645760405162461bcd60e51b815260206004820152603460248201527f4f6e6c7920636f6e7472616374206f776e657220697320616c6c6f7765642074604482015273379031b0b636103a3434b990333ab731ba34b7b760611b60648201526084015b60405180910390fd5b6040516336c8dfbf60e21b81526000906001600160a01b037f0000000000000000000000000000000000000000000000000000000000000000169063db237efc906102c3908e908e908e908e908e908e908e908e908e90600401612990565b60206040518083038186803b1580156102db57600080fd5b505afa1580156102ef573d6000803e3d6000fd5b505050506040513d601f19601f820116820180604052508101906103139190612516565b90506001600160a01b03811661040357604051633ebc31eb60e11b81523060048201526001600160a01b038c81166024830152604482018c9052606482018b9052608482018a905260a4820189905260c4820188905260e4820187905261010482018690528481166101248301527f00000000000000000000000000000000000000000000000000000000000000001690637d7863d69061014401602060405180830381600087803b1580156103c857600080fd5b505af11580156103dc573d6000803e3d6000fd5b505050506040513d601f19601f820116820180604052508101906104009190612516565b90505b60008b8b8b8b8b8b8b8b8b60405160200161042699989796959493929190612990565b6040516020818303038152906040528051906020012060001c905061044a81611607565b92508160038460405161045d919061293d565b908152604080516020928190038301902080546001600160a01b0319166001600160a01b039485161790559184166000908152600482529190912084516104a6928601906122ff565b506104d2604051806040016040528060098152602001683a30b136329034b99d60b91b81525083611729565b6105026040518060400160405280600e81526020016d3430b9b429ba3934b7339034b99d60911b81525084611772565b7ffeadb03e5864c7ba3800506584c86f9177a7d4a3547a3db6021574c3a678b3d18360405161053191906129dc565b60405180910390a150509998505050505050505050565b6001546000906001600160a01b0316331461056257600080fd5b6001600160a01b03831661057557600080fd5b6001600160a01b03821661058857600080fd5b816001600160a01b0316836001600160a01b031614156105a757600080fd5b506001600160a01b03918216600090815260026020526040902080546001600160a01b03191691909216179055600190565b6001546000906001600160a01b031633146105f357600080fd5b6000600383604051610605919061293d565b908152604051908190036020019020546001600160a01b031690508061063d5760405162461bcd60e51b815260040161025b90612ae8565b60008190506000816001600160a01b0316635f2d82ea6040518163ffffffff1660e01b81526004016101206040518083038186803b15801561067e57600080fd5b505afa158015610692573d6000803e3d6000fd5b505050506040513d601f19601f820116820180604052508101906106b691906126d6565b90506106c281846117b7565b6000806000806000866001600160a01b031663be9a65556040518163ffffffff1660e01b8152600401600060405180830381600087803b15801561070557600080fd5b505af1158015610719573d6000803e3d6000fd5b505050506040513d6000823e601f3d908101601f191682016040526107419190810190612772565b9450945094509450945082516000141561081157600080546101008801516001600160a01b038b81168452600560205260409384902054935163a9059cbb60e01b81529181166004830152602482019390935291169063a9059cbb90604401602060405180830381600087803b1580156107ba57600080fd5b505af11580156107ce573d6000803e3d6000fd5b505050506040513d601f19601f820116820180604052508101906107f29190612619565b506001600160a01b0388166000908152600560205260408120556109e5565b6001600160a01b038816600090815260056020526040812054905b84518110156109e257600085828151811061085757634e487b7160e01b600052603260045260246000fd5b60200260200101519050600084838151811061088357634e487b7160e01b600052603260045260246000fd5b6020026020010151905060006108ac826108a689886119fd90919063ffffffff16565b90611a10565b6001600160a01b038e1660009081526005602052604090205490915081106109165760405162461bcd60e51b815260206004820152601e60248201527f706f6f6c206e6f7420656e6f75676820666f722077696e416d6f756e74210000604482015260640161025b565b60005460405163a9059cbb60e01b81526001600160a01b038581166004830152602482018490529091169063a9059cbb90604401602060405180830381600087803b15801561096457600080fd5b505af1158015610978573d6000803e3d6000fd5b505050506040513d601f19601f8201168201806040525081019061099c9190612619565b506001600160a01b038d16600090815260056020526040812080548392906109c5908490612cda565b9250508190555050505080806109da90612d56565b91505061082c565b50505b866001600160a01b031663d826f88f6040518163ffffffff1660e01b8152600401602060405180830381600087803b158015610a2057600080fd5b505af1158015610a34573d6000803e3d6000fd5b505050506040513d601f19601f82011682018060405250810190610a589190612619565b50610a6288611a1c565b506000876001600160a01b031663efa1c4826040518163ffffffff1660e01b815260040160006040518083038186803b158015610a9e57600080fd5b505afa158015610ab2573d6000803e3d6000fd5b505050506040513d6000823e601f3d908101601f19168201604052610ada91908101906125e6565b90507f098bdb345a1d578ac9b9dc82f5e8fb1f6712f38b127c6020e3b780f1308399368b87878785604051610b13959493929190612a97565b60405180910390a1600199505050505050505050505b919050565b600154600090819060609081906001600160a01b03163314610b4f57600080fd5b845160208087015160408089015160608a015160808b015160a08c015160c08d015160e08e01516101008f0151965160009a610b8f9a9099989101612990565b6040516020818303038152906040528051906020012060001c905060006003610bb783611607565b604051610bc4919061293d565b908152604051908190036020019020546001600160a01b0316905080610bfc5760405162461bcd60e51b815260040161025b90612ae8565b60008190506000806000806000856001600160a01b031663be9a65556040518163ffffffff1660e01b8152600401600060405180830381600087803b158015610c4457600080fd5b505af1158015610c58573d6000803e3d6000fd5b505050506040513d6000823e601f3d908101601f19168201604052610c809190810190612772565b94509450945094509450610cb76040518060400160405280600b81526020016a1c9bdd5b9914995cdd5b1d60aa1b81525085611d50565b8251610dbf57600060056000896001600160a01b03166001600160a01b031681526020019081526020016000208190555060008054906101000a90046001600160a01b03166001600160a01b031663a9059cbb8e6101000151600560008b6001600160a01b03166001600160a01b03168152602001908152602001600020546040518363ffffffff1660e01b8152600401610d679291906001600160a01b03929092168252602082015260400190565b602060405180830381600087803b158015610d8157600080fd5b505af1158015610d95573d6000803e3d6000fd5b505050506040513d601f19601f82011682018060405250810190610db99190612619565b50610f8b565b6001600160a01b038716600090815260056020526040812054905b8451811015610f88576000858281518110610e0557634e487b7160e01b600052603260045260246000fd5b602002602001015190506000848381518110610e3157634e487b7160e01b600052603260045260246000fd5b602002602001015190506000610e54826108a689886119fd90919063ffffffff16565b6001600160a01b038d166000908152600560205260409020549091508110610ebe5760405162461bcd60e51b815260206004820152601e60248201527f706f6f6c206e6f7420656e6f75676820666f722077696e416d6f756e74210000604482015260640161025b565b6001600160a01b038c1660009081526005602052604081208054839290610ee6908490612cda565b909155505060005460405163a9059cbb60e01b81526001600160a01b038581166004830152602482018490529091169063a9059cbb90604401602060405180830381600087803b158015610f3957600080fd5b505af1158015610f4d573d6000803e3d6000fd5b505050506040513d601f19601f82011682018060405250810190610f719190612619565b505050508080610f8090612d56565b915050610dda565b50505b6000866001600160a01b031663efa1c4826040518163ffffffff1660e01b815260040160006040518083038186803b158015610fc657600080fd5b505afa158015610fda573d6000803e3d6000fd5b505050506040513d6000823e601f3d908101601f1916820160405261100291908101906125e6565b9050866001600160a01b031663d826f88f6040518163ffffffff1660e01b8152600401602060405180830381600087803b15801561103f57600080fd5b505af1158015611053573d6000803e3d6000fd5b505050506040513d601f19601f820116820180604052508101906110779190612619565b5061108188611a1c565b507f098bdb345a1d578ac9b9dc82f5e8fb1f6712f38b127c6020e3b780f1308399366110ac8a611607565b878787856040516110c1959493929190612a97565b60405180910390a1949d939c50919a50929850909650505050505050565b6001546001600160a01b031633146110f657600080fd5b6000600383604051611108919061293d565b908152604051908190036020019020546001600160a01b03169050806111875760405162461bcd60e51b815260206004820152602e60248201527f4e6f207461626c6520776974682074686520686173682c20706c65617365206360448201526d6865636b2074686520686173682160901b606482015260840161025b565b6001600160a01b03908116600090815260066020818152604092839020855181546001600160a01b0319908116918716919091178255918601516001820155928501516002840155606085015160038401556080850151600484015560a0850151600584015560c08501519183019190915560e084015160078301556101009093015160089091018054909316911617905550565b6000611247604051806040016040528060078152602001666861736820697360c81b81525083611772565b336000908152600260205260408082205490516001600160a01b03909116919060039061127590869061293d565b90815260408051918290036020908101832054838301909252600f83526e7461626c654164647265737320697360881b908301526001600160a01b031691506112be9082611729565b6001600160a01b03811661132b5760405162461bcd60e51b815260206004820152602e60248201527f6e6f207461626c6520776974682074686520686173682c20706c65617365206360448201526d6865636b2074686520686173682160901b606482015260840161025b565b60408051608081018252338152602081018890528082018790526001600160a01b038481166060830152915163796ab25d60e01b8152839283169063796ab25d9061137a908490600401612b1f565b600060405180830381600087803b15801561139457600080fd5b505af11580156113a8573d6000803e3d6000fd5b505050506000826001600160a01b0316635f2d82ea6040518163ffffffff1660e01b81526004016101206040518083038186803b1580156113e857600080fd5b505afa1580156113fc573d6000803e3d6000fd5b505050506040513d601f19601f8201168201806040525081019061142091906126d6565b905061142d898286611d95565b7f08b584e6aceb13e620c46e9d7288284e3b3a1c9dce5ca8e843559f5c4c8456a7338a8a8a6040516114629493929190612959565b60405180910390a150600198975050505050505050565b33600090815260026020908152604080832054845185840151868401516060880151608089015160a08a015160c08b015160e08c01516101008d015199516001600160a01b039099169a8c9a6114d19a909101612990565b6040516020818303038152906040528051906020012060001c9050600060036114f983611607565b604051611506919061293d565b908152604051908190036020019020546001600160a01b031690508061153e5760405162461bcd60e51b815260040161025b90612ae8565b60408051608081018252338152602081018990528082018890526001600160a01b038581166060830152915163796ab25d60e01b8152839283169063796ab25d9061158d908490600401612b1f565b600060405180830381600087803b1580156115a757600080fd5b505af11580156115bb573d6000803e3d6000fd5b505050506115ca898885611d95565b7f08b584e6aceb13e620c46e9d7288284e3b3a1c9dce5ca8e843559f5c4c8456a7338a8a6115f788611607565b6040516114629493929190612959565b60608161162b5750506040805180820190915260018152600360fc1b602082015290565b8160005b8115611655578061163f81612d56565b915061164e9050600a83612ca7565b915061162f565b60008167ffffffffffffffff81111561167e57634e487b7160e01b600052604160045260246000fd5b6040519080825280601f01601f1916602001820160405280156116a8576020820181803683370190505b5090505b8415611721576116bd600183612cda565b91506116ca600a86612d71565b6116d5906030612c8f565b60f81b8183815181106116f857634e487b7160e01b600052603260045260246000fd5b60200101906001600160f81b031916908160001a90535061171a600a86612ca7565b94506116ac565b949350505050565b61176e828260405160240161173f9291906129ef565b60408051601f198184030181529190526020810180516001600160e01b031663319af33360e01b17905261227a565b5050565b61176e8282604051602401611788929190612a47565b60408051601f198184030181529190526020810180516001600160e01b0316634b5c427760e01b17905261227a565b60008190506000816001600160a01b031663efa1c4826040518163ffffffff1660e01b815260040160006040518083038186803b1580156117f757600080fd5b505afa15801561180b573d6000803e3d6000fd5b505050506040513d6000823e601f3d908101601f1916820160405261183391908101906125e6565b80516040860151919250908110156119f6576040850151600090611857908361229b565b905060005b818110156119f3576118906040518060400160405280600a815260200169030b232103937b137ba160b51b81525082611d50565b60006118d7600a6118d18460408051426020808301919091524482840152606080830194909452825180830390940184526080909101909152815191012090565b906122a7565b9050600082905061190e6040518060400160405280600e81526020016d726f626f7473206164647265737360901b81525082611729565b61194f604051806040016040528060168152602001750726f626f747320616464726573732075696e743136360541b815250826001600160a01b0316611d50565b604080516080810182526001600160a01b0380841682526001602083015281830185905260006060830152915163796ab25d60e01b8152909189169063796ab25d9061199f908490600401612b1f565b600060405180830381600087803b1580156119b957600080fd5b505af11580156119cd573d6000803e3d6000fd5b505050506119dd60018b8b611d95565b50505080806119eb90612d56565b91505061185c565b50505b5050505050565b6000611a098284612ca7565b9392505050565b6000611a098284612cbb565b6001600160a01b038082166000908152600660208181526040808420815161012081018352815487168082526001830154948201949094526002820154928101929092526003810154606083015260048101546080830152600581015460a08301529283015460c0820152600783015460e0820152600890920154909316610100820152909115611d41576001600160a01b03831660009081526004602052604081208054611aca90612d21565b80601f0160208091040260200160405190810160405280929190818152602001828054611af690612d21565b8015611b435780601f10611b1857610100808354040283529160200191611b43565b820191906000526020600020905b815481529060010190602001808311611b2657829003601f168201915b505060405163fa2d259d60e01b815293945087936001600160a01b038516935063fa2d259d9250611b7991508690600401612b56565b600060405180830381600087803b158015611b9357600080fd5b505af1158015611ba7573d6000803e3d6000fd5b505050506000836000015184602001518560400151866060015187608001518860a001518960c001518a60e001518b6101000151604051602001611bf399989796959493929190612990565b6040516020818303038152906040528051906020012060001c9050856003611c1a83611607565b604051611c27919061293d565b90815260405190819003602001902080546001600160a01b03929092166001600160a01b0319909216919091179055611c5f81611607565b6001600160a01b03871660009081526004602090815260409091208251611c8c93919291909101906122ff565b506001600160a01b0386166000908152600660208190526040822080546001600160a01b03199081168255600182018490556002820184905560038201849055600482018490556005820184905591810183905560078101929092556008909101805490911690557fe3e57a24b8f74d2723608b23c0f9b294b5919b85093bade5338255ac2f90355683611d1f83611607565b604051611d2d929190612a47565b60405180910390a150600195945050505050565b50600092915050565b50919050565b61176e8282604051602401611d66929190612a75565b60408051601f198184030181529190526020810180516001600160e01b03166309710a9d60e41b17905261227a565b6000611dae836020015185611a1090919063ffffffff16565b9050611de16040518060400160405280600f81526020016e5f61667465724a6f696e5461626c6560881b81525033611729565b6000546040516323b872dd60e01b8152336004820152306024820152604481018390526001600160a01b03909116906323b872dd90606401602060405180830381600087803b158015611e3357600080fd5b505af1158015611e47573d6000803e3d6000fd5b505050506040513d601f19601f82011682018060405250810190611e6b9190612619565b5060408051808201825260198152783130b630b731b29037b31030b2323932b9b9943a3434b9949d60391b602082015260005491516370a0823160e01b81523060048201819052611f239390916001600160a01b03909116906370a08231906024015b60206040518083038186803b158015611ee657600080fd5b505afa158015611efa573d6000803e3d6000fd5b505050506040513d601f19601f82011682018060405250810190611f1e919061275a565b6122b3565b6001600160a01b03821660009081526005602052604081208054839290611f4b908490612c8f565b909155505060c0830151600090611f68906108a6846127106119fd565b6001600160a01b0384166000908152600560205260409020549091508110611fe65760405162461bcd60e51b815260206004820152602b60248201527f5461626c6520706f6f6c206e6f7420656e6f75676820666f722062616e6b657260448201526a436f6d6d697373696f6e2160a81b606482015260840161025b565b6001600160a01b0383166000908152600560205260408120805483929061200e908490612cda565b909155505060005461010085015160405163a9059cbb60e01b81526001600160a01b0391821660048201526024810184905291169063a9059cbb90604401602060405180830381600087803b15801561206657600080fd5b505af115801561207a573d6000803e3d6000fd5b505050506040513d601f19601f8201168201806040525081019061209e9190612619565b5060408051808201825260198152783130b630b731b29037b31030b2323932b9b9943a3434b9949d60391b602082015260005491516370a0823160e01b815230600482018190526121059390916001600160a01b03909116906370a0823190602401611ece565b336000908152600260205260409020546001600160a01b031680156122725760e085015160009061213c906108a6866127106119fd565b6001600160a01b03861660009081526005602052604090205490915081106121bc5760405162461bcd60e51b815260206004820152602d60248201527f5461626c6520706f6f6c206e6f7420656e6f75676820666f722072656665727260448201526c616c436f6d6d697373696f6e2160981b606482015260840161025b565b6001600160a01b038516600090815260056020526040812080548392906121e4908490612cda565b909155505060005460405163a9059cbb60e01b81526001600160a01b038481166004830152602482018490529091169063a9059cbb90604401602060405180830381600087803b15801561223757600080fd5b505af115801561224b573d6000803e3d6000fd5b505050506040513d601f19601f8201168201806040525081019061226f9190612619565b50505b505050505050565b80516a636f6e736f6c652e6c6f67602083016000808483855afa5050505050565b6000611a098284612cda565b6000611a098284612d71565b6122fa8383836040516024016122cb93929190612a19565b60408051601f198184030181529190526020810180516001600160e01b03166307c8121760e01b17905261227a565b505050565b82805461230b90612d21565b90600052602060002090601f01602090048101928261232d5760008555612373565b82601f1061234657805160ff1916838001178555612373565b82800160010185558215612373579182015b82811115612373578251825591602001919060010190612358565b5061237f929150612383565b5090565b5b8082111561237f5760008155600101612384565b8035610b2981612dc7565b8051610b2981612dc7565b600082601f8301126123be578081fd5b815160206123d36123ce83612c6b565b612c3a565b80838252828201915082860187848660051b89010111156123f2578586fd5b855b8581101561241957815161240781612dc7565b845292840192908401906001016123f4565b5090979650505050505050565b600082601f830112612436578081fd5b813567ffffffffffffffff81111561245057612450612db1565b612463601f8201601f1916602001612c3a565b818152846020838601011115612477578283fd5b816020850160208301379081016020019190915292915050565b600061012082840312156124a3578081fd5b6124ab612c10565b90506124b682612398565b81526020820135602082015260408201356040820152606082013560608201526080820135608082015260a082013560a082015260c082013560c082015260e082013560e082015261010061250c818401612398565b9082015292915050565b600060208284031215612527578081fd5b8151611a0981612dc7565b60008060408385031215612544578081fd5b823561254f81612dc7565b9150602083013561255f81612dc7565b809150509250929050565b60008060008060008060008060006101208a8c031215612588578485fd5b893561259381612dc7565b985060208a0135975060408a0135965060608a0135955060808a0135945060a08a0135935060c08a0135925060e08a013591506101008a01356125d581612dc7565b809150509295985092959850929598565b6000602082840312156125f7578081fd5b815167ffffffffffffffff81111561260d578182fd5b611721848285016123ae565b60006020828403121561262a578081fd5b81518015158114611a09578182fd5b60006020828403121561264a578081fd5b813567ffffffffffffffff811115612660578182fd5b61172184828501612426565b600080610140838503121561267f578182fd5b823567ffffffffffffffff811115612695578283fd5b6126a185828601612426565b9250506126b18460208501612491565b90509250929050565b600061012082840312156126cc578081fd5b611a098383612491565b600061012082840312156126e8578081fd5b6126f0612c10565b6126f9836123a3565b81526020830151602082015260408301516040820152606083015160608201526080830151608082015260a083015160a082015260c083015160c082015260e083015160e082015261010061274f8185016123a3565b908201529392505050565b60006020828403121561276b578081fd5b5051919050565b600080600080600060a08688031215612789578283fd5b855194506020808701519450604087015167ffffffffffffffff808211156127af578586fd5b6127bb8a838b016123ae565b95506060890151945060808901519150808211156127d7578384fd5b508701601f810189136127e8578283fd5b80516127f66123ce82612c6b565b8082825284820191508484018c868560051b8701011115612815578687fd5b8694505b83851015612837578051835260019490940193918501918501612819565b5080955050505050509295509295909350565b60008060006060848603121561285e578081fd5b8335925060208401359150604084013567ffffffffffffffff811115612882578182fd5b61288e86828701612426565b9150509250925092565b600080600061016084860312156128ad578081fd5b83359250602084013591506128c58560408601612491565b90509250925092565b6000815180845260208085019450808401835b838110156129065781516001600160a01b0316875295820195908201906001016128e1565b509495945050505050565b60008151808452612929816020860160208601612cf1565b601f01601f19169290920160200192915050565b6000825161294f818460208701612cf1565b9190910192915050565b60018060a01b03851681528360208201528260408201526080606082015260006129866080830184612911565b9695505050505050565b6001600160a01b03998a168152602081019890985260408801969096526060870194909452608086019290925260a085015260c084015260e08301529091166101008201526101200190565b602081526000611a096020830184612911565b604081526000612a026040830185612911565b905060018060a01b03831660208301529392505050565b606081526000612a2c6060830186612911565b6001600160a01b039490941660208301525060400152919050565b604081526000612a5a6040830185612911565b8281036020840152612a6c8185612911565b95945050505050565b604081526000612a886040830185612911565b90508260208301529392505050565b60a081526000612aaa60a0830188612911565b8660208401528560408401528281036060840152612ac881866128ce565b90508281036080840152612adc81856128ce565b98975050505050505050565b60208082526019908201527f706c6561736520636865636b2074686520616464726573732100000000000000604082015260600190565b81516001600160a01b0390811682526020808401519083015260408084015190830152606092830151169181019190915260800190565b60006101208201905060018060a01b0383511682526020830151602083015260408301516040830152606083015160608301526080830151608083015260a083015160a083015260c083015160c083015260e083015160e083015261010080840151612bcc828501826001600160a01b03169052565b505092915050565b848152836020820152608060408201526000612bf360808301856128ce565b8281036060840152612c0581856128ce565b979650505050505050565b604051610120810167ffffffffffffffff81118282101715612c3457612c34612db1565b60405290565b604051601f8201601f1916810167ffffffffffffffff81118282101715612c6357612c63612db1565b604052919050565b600067ffffffffffffffff821115612c8557612c85612db1565b5060051b60200190565b60008219821115612ca257612ca2612d85565b500190565b600082612cb657612cb6612d9b565b500490565b6000816000190483118215151615612cd557612cd5612d85565b500290565b600082821015612cec57612cec612d85565b500390565b60005b83811015612d0c578181015183820152602001612cf4565b83811115612d1b576000848401525b50505050565b600181811c90821680612d3557607f821691505b60208210811415611d4a57634e487b7160e01b600052602260045260246000fd5b6000600019821415612d6a57612d6a612d85565b5060010190565b600082612d8057612d80612d9b565b500690565b634e487b7160e01b600052601160045260246000fd5b634e487b7160e01b600052601260045260246000fd5b634e487b7160e01b600052604160045260246000fd5b6001600160a01b0381168114612ddc57600080fd5b5056fea26469706673582212201c56684a8a7fdadd480e7a7e78961d4303b23f9d073973ac42d081e16209fc8464736f6c63430008040033",
  "linkReferences": {},
  "deployedLinkReferences": {}
}