{
  "_format": "hh-sol-artifact-1",
  "contractName": "LotteryManager",
  "sourceName": "contracts/LotteryManager.sol",
  "abi": [
    {
      "inputs": [
        {
          "internalType": "address",
          "name": "_factory",
          "type": "address"
        },
        {
          "internalType": "address",
          "name": "_tokenAddress",
          "type": "address"
        }
      ],
      "stateMutability": "nonpayable",
      "type": "constructor"
    },
    {
      "anonymous": false,
      "inputs": [
        {
          "indexed": false,
          "internalType": "address",
          "name": "player",
          "type": "address"
        },
        {
          "indexed": false,
          "internalType": "address",
          "name": "banker",
          "type": "address"
        },
        {
          "indexed": false,
          "internalType": "uint256",
          "name": "amount",
          "type": "uint256"
        }
      ],
      "name": "BankerCommission",
      "type": "event"
    },
    {
      "anonymous": false,
      "inputs": [
        {
          "indexed": false,
          "internalType": "string",
          "name": "hash",
          "type": "string"
        }
      ],
      "name": "CreateTableIfNecessary",
      "type": "event"
    },
    {
      "anonymous": false,
      "inputs": [
        {
          "indexed": false,
          "internalType": "string",
          "name": "beforeHash",
          "type": "string"
        },
        {
          "indexed": false,
          "internalType": "string",
          "name": "newHash",
          "type": "string"
        }
      ],
      "name": "EditTable",
      "type": "event"
    },
    {
      "anonymous": false,
      "inputs": [
        {
          "indexed": false,
          "internalType": "string",
          "name": "hash",
          "type": "string"
        },
        {
          "indexed": false,
          "internalType": "uint256",
          "name": "round",
          "type": "uint256"
        },
        {
          "indexed": false,
          "internalType": "address[]",
          "name": "players",
          "type": "address[]"
        },
        {
          "indexed": false,
          "internalType": "uint256[]",
          "name": "numbers",
          "type": "uint256[]"
        },
        {
          "indexed": false,
          "internalType": "uint256[]",
          "name": "counts",
          "type": "uint256[]"
        }
      ],
      "name": "HoldingTicket",
      "type": "event"
    },
    {
      "anonymous": false,
      "inputs": [
        {
          "indexed": false,
          "internalType": "address",
          "name": "player",
          "type": "address"
        },
        {
          "indexed": false,
          "internalType": "uint256",
          "name": "count",
          "type": "uint256"
        },
        {
          "indexed": false,
          "internalType": "uint256",
          "name": "number",
          "type": "uint256"
        },
        {
          "indexed": false,
          "internalType": "string",
          "name": "hash",
          "type": "string"
        }
      ],
      "name": "JoinTable",
      "type": "event"
    },
    {
      "anonymous": false,
      "inputs": [
        {
          "indexed": false,
          "internalType": "address",
          "name": "player",
          "type": "address"
        },
        {
          "indexed": false,
          "internalType": "address",
          "name": "refer",
          "type": "address"
        },
        {
          "indexed": false,
          "internalType": "uint256",
          "name": "amount",
          "type": "uint256"
        }
      ],
      "name": "ReferCommission",
      "type": "event"
    },
    {
      "anonymous": false,
      "inputs": [
        {
          "indexed": false,
          "internalType": "string",
          "name": "hash",
          "type": "string"
        },
        {
          "indexed": false,
          "internalType": "uint256",
          "name": "round",
          "type": "uint256"
        },
        {
          "indexed": false,
          "internalType": "uint256",
          "name": "poolAmount",
          "type": "uint256"
        },
        {
          "indexed": false,
          "internalType": "uint256",
          "name": "roundNumber",
          "type": "uint256"
        },
        {
          "indexed": false,
          "internalType": "address[]",
          "name": "roundWinnerArray",
          "type": "address[]"
        },
        {
          "indexed": false,
          "internalType": "uint256[]",
          "name": "rewards",
          "type": "uint256[]"
        },
        {
          "indexed": false,
          "internalType": "address[]",
          "name": "allPlayers",
          "type": "address[]"
        },
        {
          "indexed": false,
          "internalType": "uint256[]",
          "name": "numbers",
          "type": "uint256[]"
        },
        {
          "indexed": false,
          "internalType": "uint256[]",
          "name": "counts",
          "type": "uint256[]"
        }
      ],
      "name": "StartRound",
      "type": "event"
    },
    {
      "inputs": [
        {
          "internalType": "address",
          "name": "newOwner",
          "type": "address"
        }
      ],
      "name": "changeOwner",
      "outputs": [
        {
          "internalType": "bool",
          "name": "result",
          "type": "bool"
        }
      ],
      "stateMutability": "nonpayable",
      "type": "function"
    },
    {
      "inputs": [
        {
          "internalType": "string",
          "name": "hash",
          "type": "string"
        },
        {
          "internalType": "address",
          "name": "newManagerContract",
          "type": "address"
        }
      ],
      "name": "changeTableManager",
      "outputs": [
        {
          "internalType": "bool",
          "name": "result",
          "type": "bool"
        }
      ],
      "stateMutability": "nonpayable",
      "type": "function"
    },
    {
      "inputs": [
        {
          "internalType": "address",
          "name": "creator",
          "type": "address"
        },
        {
          "internalType": "uint256",
          "name": "amount",
          "type": "uint256"
        },
        {
          "internalType": "uint256",
          "name": "minPPL",
          "type": "uint256"
        },
        {
          "internalType": "uint256",
          "name": "maxPPL",
          "type": "uint256"
        },
        {
          "internalType": "uint256",
          "name": "coolDownTime",
          "type": "uint256"
        },
        {
          "internalType": "uint256",
          "name": "gameTime",
          "type": "uint256"
        },
        {
          "internalType": "uint256",
          "name": "bankerCommission",
          "type": "uint256"
        },
        {
          "internalType": "uint256",
          "name": "referralCommission",
          "type": "uint256"
        },
        {
          "internalType": "address",
          "name": "bankerWallet",
          "type": "address"
        }
      ],
      "name": "createTableIfNecessary",
      "outputs": [
        {
          "internalType": "string",
          "name": "hashString",
          "type": "string"
        }
      ],
      "stateMutability": "payable",
      "type": "function"
    },
    {
      "inputs": [
        {
          "internalType": "string",
          "name": "hashString",
          "type": "string"
        },
        {
          "components": [
            {
              "internalType": "address",
              "name": "creator",
              "type": "address"
            },
            {
              "internalType": "uint256",
              "name": "amount",
              "type": "uint256"
            },
            {
              "internalType": "uint256",
              "name": "minPPL",
              "type": "uint256"
            },
            {
              "internalType": "uint256",
              "name": "maxPPL",
              "type": "uint256"
            },
            {
              "internalType": "uint256",
              "name": "coolDownTime",
              "type": "uint256"
            },
            {
              "internalType": "uint256",
              "name": "gameTime",
              "type": "uint256"
            },
            {
              "internalType": "uint256",
              "name": "bankerCommission",
              "type": "uint256"
            },
            {
              "internalType": "uint256",
              "name": "referralCommission",
              "type": "uint256"
            },
            {
              "internalType": "address",
              "name": "bankerWallet",
              "type": "address"
            }
          ],
          "internalType": "struct ILotteryTable.TableInfo",
          "name": "tableInfo",
          "type": "tuple"
        }
      ],
      "name": "editTable",
      "outputs": [],
      "stateMutability": "nonpayable",
      "type": "function"
    },
    {
      "inputs": [],
      "name": "factory",
      "outputs": [
        {
          "internalType": "address",
          "name": "",
          "type": "address"
        }
      ],
      "stateMutability": "view",
      "type": "function"
    },
    {
      "inputs": [
        {
          "internalType": "string",
          "name": "hash",
          "type": "string"
        }
      ],
      "name": "holdingTicket",
      "outputs": [
        {
          "internalType": "string",
          "name": "tableHash",
          "type": "string"
        },
        {
          "internalType": "uint256",
          "name": "round",
          "type": "uint256"
        },
        {
          "internalType": "address[]",
          "name": "players",
          "type": "address[]"
        },
        {
          "internalType": "uint256[]",
          "name": "numbers",
          "type": "uint256[]"
        },
        {
          "internalType": "uint256[]",
          "name": "counts",
          "type": "uint256[]"
        }
      ],
      "stateMutability": "view",
      "type": "function"
    },
    {
      "inputs": [
        {
          "internalType": "uint256",
          "name": "count",
          "type": "uint256"
        },
        {
          "internalType": "uint256",
          "name": "number",
          "type": "uint256"
        },
        {
          "internalType": "string",
          "name": "hash",
          "type": "string"
        }
      ],
      "name": "joinTableV2",
      "outputs": [
        {
          "internalType": "bool",
          "name": "result",
          "type": "bool"
        }
      ],
      "stateMutability": "payable",
      "type": "function"
    },
    {
      "inputs": [],
      "name": "owner",
      "outputs": [
        {
          "internalType": "address",
          "name": "",
          "type": "address"
        }
      ],
      "stateMutability": "view",
      "type": "function"
    },
    {
      "inputs": [
        {
          "internalType": "address",
          "name": "a",
          "type": "address"
        },
        {
          "internalType": "address",
          "name": "b",
          "type": "address"
        }
      ],
      "name": "referral",
      "outputs": [
        {
          "internalType": "bool",
          "name": "result",
          "type": "bool"
        }
      ],
      "stateMutability": "nonpayable",
      "type": "function"
    },
    {
      "inputs": [
        {
          "internalType": "string",
          "name": "hash",
          "type": "string"
        }
      ],
      "name": "startRoundV2",
      "outputs": [
        {
          "internalType": "bool",
          "name": "",
          "type": "bool"
        }
      ],
      "stateMutability": "payable",
      "type": "function"
    }
  ],
  "bytecode": "0x60a06040523480156200001157600080fd5b5060405162002d4638038062002d46833981016040819052620000349162000097565b6001600160601b031960609290921b91909116608052600080546001600160a01b03929092166001600160a01b03199283161790556001805490911633179055620000ce565b80516001600160a01b03811681146200009257600080fd5b919050565b60008060408385031215620000aa578182fd5b620000b5836200007a565b9150620000c5602084016200007a565b90509250929050565b60805160601c612c4b620000fb600039600081816101c1015281816102db01526103e00152612c4b6000f3fe6080604052600436106100915760003560e01c80635433f103116100595780635433f103146101445780638da5cb5b14610157578063a6f9dae11461018f578063c45a0155146101af578063efc50bcc146101e357600080fd5b806315282636146100965780631c505d1d146100bf578063225276c8146100ef57806338afd4c51461010257806353b00f4214610122575b600080fd5b6100a96100a4366004612113565b610214565b6040516100b69190612704565b60405180910390f35b3480156100cb57600080fd5b506100df6100da3660046120db565b6105aa565b60405190151581526020016100b6565b6100df6100fd3660046121e1565b61064e565b34801561010e57600080fd5b506100df61011d366004612213565b610c96565b34801561012e57600080fd5b5061014261013d366004612257565b610d94565b005b6100df61015236600461257a565b610ee4565b34801561016357600080fd5b50600154610177906001600160a01b031681565b6040516001600160a01b0390911681526020016100b6565b34801561019b57600080fd5b506100df6101aa3660046120a3565b6110e0565b3480156101bb57600080fd5b506101777f000000000000000000000000000000000000000000000000000000000000000081565b3480156101ef57600080fd5b506102036101fe3660046121e1565b611131565b6040516100b695949392919061279f565b6001546060906001600160a01b0316331461024a5760405162461bcd60e51b81526004016102419061291b565b60405180910390fd5b6001546001600160a01b031633146102c15760405162461bcd60e51b815260206004820152603460248201527f4f6e6c7920636f6e7472616374206f776e657220697320616c6c6f7765642074604482015273379031b0b636103a3434b990333ab731ba34b7b760611b6064820152608401610241565b6040516336c8dfbf60e21b81526000906001600160a01b037f0000000000000000000000000000000000000000000000000000000000000000169063db237efc90610320908e908e908e908e908e908e908e908e908e906004016126b8565b60206040518083038186803b15801561033857600080fd5b505afa15801561034c573d6000803e3d6000fd5b505050506040513d601f19601f8201168201806040525081019061037091906120bf565b90506001600160a01b03811661046057604051633ebc31eb60e11b81523060048201526001600160a01b038c81166024830152604482018c9052606482018b9052608482018a905260a4820189905260c4820188905260e4820187905261010482018690528481166101248301527f00000000000000000000000000000000000000000000000000000000000000001690637d7863d69061014401602060405180830381600087803b15801561042557600080fd5b505af1158015610439573d6000803e3d6000fd5b505050506040513d601f19601f8201168201806040525081019061045d91906120bf565b90505b60008b8b8b8b8b8b8b8b8b604051602001610483999897969594939291906126b8565b6040516020818303038152906040528051906020012060001c90506104a781611298565b9250816003846040516104ba9190612665565b908152604080516020928190038301902080546001600160a01b0319166001600160a01b0394851617905591841660009081526004825291909120845161050392860190611e8f565b5061052f604051806040016040528060098152602001683a30b136329034b99d60b91b815250836113b9565b610564604051806040016040528060138152602001727461626c652068617368537472696e6720697360681b81525084611402565b7ffeadb03e5864c7ba3800506584c86f9177a7d4a3547a3db6021574c3a678b3d1836040516105939190612704565b60405180910390a150509998505050505050505050565b6001546000906001600160a01b031633146105d75760405162461bcd60e51b81526004016102419061291b565b6001600160a01b0383166105ea57600080fd5b6001600160a01b0382166105fd57600080fd5b816001600160a01b0316836001600160a01b0316141561061c57600080fd5b506001600160a01b03918216600090815260026020526040902080546001600160a01b03191691909216179055600190565b6001546000906001600160a01b0316331461067b5760405162461bcd60e51b81526004016102419061291b565b81600060088260405161068e9190612665565b9081526040519081900360200190205460ff16905080156106e85760405162461bcd60e51b8152602060048201526014602482015273139bc81c994b595b9d1c985b98de481c9bdd5b9960621b6044820152606401610241565b6001905060006003856040516106fe9190612665565b908152604051908190036020019020546001600160a01b03169050806107365760405162461bcd60e51b8152600401610241906128e4565b60008190506000816001600160a01b0316635f2d82ea6040518163ffffffff1660e01b81526004016101206040518083038186803b15801561077757600080fd5b505afa15801561078b573d6000803e3d6000fd5b505050506040513d601f19601f820116820180604052508101906107af91906124de565b90506107bb8184611447565b6000826001600160a01b031663be9a65556040518163ffffffff1660e01b8152600401600060405180830381600087803b1580156107f857600080fd5b505af115801561080c573d6000803e3d6000fd5b505050506040513d6000823e601f3d908101601f1916820160405261083491908101906123cb565b9050610873604051806040016040528060128152602001713937bab73216103937bab732273ab6b132b960711b815250826000015183602001516115ee565b6001600160a01b03841660009081526005602052604090205460c08201515161093b576001600160a01b038581166000908152600560205260408082208290559054610100860151915163a9059cbb60e01b81529183166004830152602482018490529091169063a9059cbb90604401602060405180830381600087803b1580156108fd57600080fd5b505af1158015610911573d6000803e3d6000fd5b505050506040513d601f19601f8201168201806040525081019061093591906121c1565b50610bd9565b60005b8260c0015151811015610bd75760008360c00151828151811061097157634e487b7160e01b600052603260045260246000fd5b6020026020010151905060008460e0015183815181106109a157634e487b7160e01b600052603260045260246000fd5b6020026020010151905060006109ce826109c88860a001518861163a90919063ffffffff16565b9061164d565b6001600160a01b038a16600090815260056020526040902054909150811115610a455760405162461bcd60e51b8152602060048201526024808201527f7461626c6520706f6f6c206e6f7420656e6f75676820666f722077696e416d6f604482015263756e742160e01b6064820152608401610241565b6001600160a01b03891660009081526005602052604081208054839290610a6d908490612b13565b9091555050633b9aca006001600160a01b0384161015610b115760005460405163a9059cbb60e01b8152336004820152602481018390526001600160a01b039091169063a9059cbb90604401602060405180830381600087803b158015610ad357600080fd5b505af1158015610ae7573d6000803e3d6000fd5b505050506040513d601f19601f82011682018060405250810190610b0b91906121c1565b50610b99565b60005460405163a9059cbb60e01b81526001600160a01b038581166004830152602482018490529091169063a9059cbb90604401602060405180830381600087803b158015610b5f57600080fd5b505af1158015610b73573d6000803e3d6000fd5b505050506040513d601f19601f82011682018060405250810190610b9791906121c1565b505b6001600160a01b0389166000908152600660209081526040822080546001810182559083529120015550819050610bcf81612b8f565b91505061093e565b505b610be285611659565b507f134866e0e730a57fa05c42a8ec9422559703498548b926d98102c85e4f9287498983600001518385602001518660c00151600660008c6001600160a01b03166001600160a01b03168152602001908152602001600020886040015189606001518a60800151604051610c5e99989796959493929190612823565b60405180910390a16001600160a01b0385166000908152600660205260408120610c8791611f13565b50600198975050505050505050565b6001546000906001600160a01b03163314610cc35760405162461bcd60e51b81526004016102419061291b565b6000600384604051610cd59190612665565b908152604051908190036020019020546001600160a01b0316905080610d0d5760405162461bcd60e51b8152600401610241906128e4565b6040516351fddd5760e11b81526001600160a01b03848116600483015282919082169063a3fbbaae90602401602060405180830381600087803b158015610d5357600080fd5b505af1158015610d67573d6000803e3d6000fd5b505050506040513d601f19601f82011682018060405250810190610d8b91906121c1565b95945050505050565b6001546001600160a01b03163314610dbe5760405162461bcd60e51b81526004016102419061291b565b6000600383604051610dd09190612665565b908152604051908190036020019020546001600160a01b0316905080610e4f5760405162461bcd60e51b815260206004820152602e60248201527f4e6f207461626c6520776974682074686520686173682c20706c65617365206360448201526d6865636b2074686520686173682160901b6064820152608401610241565b6001600160a01b03908116600090815260076020818152604092839020855181546001600160a01b0319908116918716919091178255918601516001820155928501516002840155606085015160038401556080850151600484015560a0850151600584015560c0850151600684015560e0850151918301919091556101009093015160089091018054909316911617905550565b336000908152600260205260408082205490516001600160a01b03909116908290600390610f13908690612665565b908152604051908190036020019020546001600160a01b0316905080610f925760405162461bcd60e51b815260206004820152602e60248201527f6e6f207461626c6520776974682074686520686173682c20706c65617365206360448201526d6865636b2074686520686173682160901b6064820152608401610241565b60408051608081018252338152602081018890528082018790526001600160a01b038481166060830152915163796ab25d60e01b8152839283169063796ab25d90610fe1908490600401612952565b600060405180830381600087803b158015610ffb57600080fd5b505af115801561100f573d6000803e3d6000fd5b505050506000826001600160a01b0316635f2d82ea6040518163ffffffff1660e01b81526004016101206040518083038186803b15801561104f57600080fd5b505afa158015611063573d6000803e3d6000fd5b505050506040513d601f19601f8201168201806040525081019061108791906124de565b90506110948982866119c3565b7f08b584e6aceb13e620c46e9d7288284e3b3a1c9dce5ca8e843559f5c4c8456a7338a8a8a6040516110c99493929190612681565b60405180910390a150600198975050505050505050565b6001546000906001600160a01b0316331461110d5760405162461bcd60e51b81526004016102419061291b565b50600180546001600160a01b0319166001600160a01b039290921691909117815590565b606060006060806060600060038760405161114c9190612665565b908152604051908190036020019020546001600160a01b03169050806111845760405162461bcd60e51b8152600401610241906128e4565b60008190506000816001600160a01b03166384bc76a66040518163ffffffff1660e01b815260040160006040518083038186803b1580156111c457600080fd5b505afa1580156111d8573d6000803e3d6000fd5b505050506040513d6000823e601f3d908101601f19168201604052611200919081019061231d565b90506000826001600160a01b03166347e405536040518163ffffffff1660e01b815260040160206040518083038186803b15801561123d57600080fd5b505afa158015611251573d6000803e3d6000fd5b505050506040513d601f19601f820116820180604052508101906112759190612562565b825160208401516040909401519b9c919b909a5092985091965090945050505050565b6060816112bc5750506040805180820190915260018152600360fc1b602082015290565b8160005b81156112e657806112d081612b8f565b91506112df9050600a83612ae0565b91506112c0565b6000816001600160401b0381111561130e57634e487b7160e01b600052604160045260246000fd5b6040519080825280601f01601f191660200182016040528015611338576020820181803683370190505b5090505b84156113b15761134d600183612b13565b915061135a600a86612baa565b611365906030612ac8565b60f81b81838151811061138857634e487b7160e01b600052603260045260246000fd5b60200101906001600160f81b031916908160001a9053506113aa600a86612ae0565b945061133c565b949350505050565b6113fe82826040516024016113cf929190612717565b60408051601f198184030181529190526020810180516001600160e01b031663319af33360e01b179052611e0f565b5050565b6113fe8282604051602401611418929190612741565b60408051601f198184030181529190526020810180516001600160e01b0316634b5c427760e01b179052611e0f565b60008190506000816001600160a01b031663efa1c4826040518163ffffffff1660e01b815260040160006040518083038186803b15801561148757600080fd5b505afa15801561149b573d6000803e3d6000fd5b505050506040513d6000823e601f3d908101601f191682016040526114c3919081019061218f565b80516040860151919250908110156115e75760408501516000906114e79083611e30565b905060005b818110156115e457600061153b600a6115358460408051426020808301919091524482840152606080830194909452825180830390940184526080909101909152815191012090565b90611e3c565b604080516080810182526001600160a01b0380861682526001602083015281830184905260006060830152915163796ab25d60e01b81529293508492909189169063796ab25d90611590908490600401612952565b600060405180830381600087803b1580156115aa57600080fd5b505af11580156115be573d6000803e3d6000fd5b505050506115ce60018b8b6119c3565b50505080806115dc90612b8f565b9150506114ec565b50505b5050505050565b611635838383604051602401611606939291906127fe565b60408051601f198184030181529190526020810180516001600160e01b031663969cdd0360e01b179052611e0f565b505050565b60006116468284612ae0565b9392505050565b60006116468284612af4565b6001600160a01b038082166000908152600760208181526040808420815161012081018352815487168082526001830154948201949094526002820154928101929092526003810154606083015260048101546080830152600581015460a0830152600681015460c08301529283015460e08201526008909201549093166101008201529091156119b4576001600160a01b0383166000908152600460205260408120805461170790612b5a565b80601f016020809104026020016040519081016040528092919081815260200182805461173390612b5a565b80156117805780601f1061175557610100808354040283529160200191611780565b820191906000526020600020905b81548152906001019060200180831161176357829003601f168201915b505060405163fa2d259d60e01b815293945087936001600160a01b038516935063fa2d259d92506117b691508690600401612989565b600060405180830381600087803b1580156117d057600080fd5b505af11580156117e4573d6000803e3d6000fd5b505050506000836000015184602001518560400151866060015187608001518860a001518960c001518a60e001518b6101000151604051602001611830999897969594939291906126b8565b6040516020818303038152906040528051906020012060001c905085600361185783611298565b6040516118649190612665565b90815260405190819003602001902080546001600160a01b03929092166001600160a01b031990921691909117905561189c81611298565b6001600160a01b038716600090815260046020908152604090912082516118c99391929190910190611e8f565b506001600160a01b038616600090815260076020818152604080842080546001600160a01b0319908116825560018201869055600282018690556003820186905560048201869055600582018690556006820186905593810194909455600890930180549092169091558151808301909252600d82526c3132b337b932961030b33a32b960991b90820152611967908461196284611298565b611e48565b7fe3e57a24b8f74d2723608b23c0f9b294b5919b85093bade5338255ac2f9035568361199283611298565b6040516119a0929190612741565b60405180910390a150600195945050505050565b50600092915050565b50919050565b60006119dc83602001518561164d90919063ffffffff16565b6000546040516323b872dd60e01b8152336004820152306024820152604481018390529192506001600160a01b0316906323b872dd90606401602060405180830381600087803b158015611a2f57600080fd5b505af1158015611a43573d6000803e3d6000fd5b505050506040513d601f19601f82011682018060405250810190611a6791906121c1565b506001600160a01b03821660009081526005602052604081208054839290611a90908490612ac8565b909155505060c083015115611c405760c0830151600090611ab7906109c88461271061163a565b6001600160a01b038416600090815260056020526040902054909150811115611b365760405162461bcd60e51b815260206004820152602b60248201527f5461626c6520706f6f6c206e6f7420656e6f75676820666f722062616e6b657260448201526a436f6d6d697373696f6e2160a81b6064820152608401610241565b6001600160a01b03831660009081526005602052604081208054839290611b5e908490612b13565b909155505060005461010085015160405163a9059cbb60e01b81526001600160a01b0391821660048201526024810184905291169063a9059cbb90604401602060405180830381600087803b158015611bb657600080fd5b505af1158015611bca573d6000803e3d6000fd5b505050506040513d601f19601f82011682018060405250810190611bee91906121c1565b50610100840151604080513381526001600160a01b03909216602083015281018290527fda5163f4fef80ed29382eca50bb83c0bd880a912e0ad6adf0d4389fa62481a639060600160405180910390a1505b336000908152600260205260409020546001600160a01b03168015801590611c6c575060008460e00151115b156115e75760e0840151600090611c89906109c88561271061163a565b6001600160a01b038516600090815260056020526040902054909150811115611d0a5760405162461bcd60e51b815260206004820152602d60248201527f5461626c6520706f6f6c206e6f7420656e6f75676820666f722072656665727260448201526c616c436f6d6d697373696f6e2160981b6064820152608401610241565b6001600160a01b03841660009081526005602052604081208054839290611d32908490612b13565b909155505060005460405163a9059cbb60e01b81526001600160a01b038481166004830152602482018490529091169063a9059cbb90604401602060405180830381600087803b158015611d8557600080fd5b505af1158015611d99573d6000803e3d6000fd5b505050506040513d601f19601f82011682018060405250810190611dbd91906121c1565b50604080513381526001600160a01b03841660208201529081018290527fa97b13b2cce63d44be7b27fdf4d8e0c49f255b8b0a19f07ce2881ba924118f829060600160405180910390a1505050505050565b80516a636f6e736f6c652e6c6f67602083016000808483855afa5050505050565b60006116468284612b13565b60006116468284612baa565b611635838383604051602401611e6093929190612766565b60408051601f198184030181529190526020810180516001600160e01b0316632ced7cef60e01b179052611e0f565b828054611e9b90612b5a565b90600052602060002090601f016020900481019282611ebd5760008555611f03565b82601f10611ed657805160ff1916838001178555611f03565b82800160010185558215611f03579182015b82811115611f03578251825591602001919060010190611ee8565b50611f0f929150611f34565b5090565b5080546000825590600052602060002090810190611f319190611f34565b50565b5b80821115611f0f5760008155600101611f35565b8035611f5481612c00565b919050565b8051611f5481612c00565b600082601f830112611f74578081fd5b81516020611f89611f8483612aa5565b612a75565b80838252828201915082860187848660051b8901011115611fa8578586fd5b855b85811015611fcf578151611fbd81612c00565b84529284019290840190600101611faa565b5090979650505050505050565b600082601f830112611fec578081fd5b81516020611ffc611f8483612aa5565b80838252828201915082860187848660051b890101111561201b578586fd5b855b85811015611fcf5781518452928401929084019060010161201d565b600082601f830112612049578081fd5b81356001600160401b0381111561206257612062612bea565b612075601f8201601f1916602001612a75565b818152846020838601011115612089578283fd5b816020850160208301379081016020019190915292915050565b6000602082840312156120b4578081fd5b813561164681612c00565b6000602082840312156120d0578081fd5b815161164681612c00565b600080604083850312156120ed578081fd5b82356120f881612c00565b9150602083013561210881612c00565b809150509250929050565b60008060008060008060008060006101208a8c031215612131578485fd5b893561213c81612c00565b985060208a0135975060408a0135965060608a0135955060808a0135945060a08a0135935060c08a0135925060e08a013591506101008a013561217e81612c00565b809150509295985092959850929598565b6000602082840312156121a0578081fd5b81516001600160401b038111156121b5578182fd5b6113b184828501611f64565b6000602082840312156121d2578081fd5b81518015158114611646578182fd5b6000602082840312156121f2578081fd5b81356001600160401b03811115612207578182fd5b6113b184828501612039565b60008060408385031215612225578182fd5b82356001600160401b0381111561223a578283fd5b61224685828601612039565b925050602083013561210881612c00565b60008082840361014081121561226b578283fd5b83356001600160401b03811115612280578384fd5b61228c86828701612039565b93505061012080601f19830112156122a2578283fd5b6122aa612a07565b91506122b860208601611f49565b825260408501356020830152606085013560408301526080850135606083015260a0850135608083015260c085013560a083015260e085013560c08301526101008086013560e084015261230d828701611f49565b9083015250919491935090915050565b60006020828403121561232e578081fd5b81516001600160401b0380821115612344578283fd5b9083019060608286031215612357578283fd5b61235f612a30565b82518281111561236d578485fd5b61237987828601611f64565b82525060208301518281111561238d578485fd5b61239987828601611fdc565b6020830152506040830151828111156123b0578485fd5b6123bc87828601611fdc565b60408301525095945050505050565b6000602082840312156123dc578081fd5b81516001600160401b03808211156123f2578283fd5b908301906101008286031215612406578283fd5b61240e612a52565b825181526020830151602082015260408301518281111561242d578485fd5b61243987828601611f64565b604083015250606083015182811115612450578485fd5b61245c87828601611fdc565b606083015250608083015182811115612473578485fd5b61247f87828601611fdc565b60808301525060a083015160a082015260c0830151828111156124a0578485fd5b6124ac87828601611f64565b60c08301525060e0830151828111156124c3578485fd5b6124cf87828601611fdc565b60e08301525095945050505050565b600061012082840312156124f0578081fd5b6124f8612a07565b61250183611f59565b81526020830151602082015260408301516040820152606083015160608201526080830151608082015260a083015160a082015260c083015160c082015260e083015160e0820152610100612557818501611f59565b908201529392505050565b600060208284031215612573578081fd5b5051919050565b60008060006060848603121561258e578081fd5b833592506020840135915060408401356001600160401b038111156125b1578182fd5b6125bd86828701612039565b9150509250925092565b6000815180845260208085019450808401835b838110156125ff5781516001600160a01b0316875295820195908201906001016125da565b509495945050505050565b6000815180845260208085019450808401835b838110156125ff5781518752958201959082019060010161261d565b60008151808452612651816020860160208601612b2a565b601f01601f19169290920160200192915050565b60008251612677818460208701612b2a565b9190910192915050565b60018060a01b03851681528360208201528260408201526080606082015260006126ae6080830184612639565b9695505050505050565b6001600160a01b03998a168152602081019890985260408801969096526060870194909452608086019290925260a085015260c084015260e08301529091166101008201526101200190565b6020815260006116466020830184612639565b60408152600061272a6040830185612639565b905060018060a01b03831660208301529392505050565b6040815260006127546040830185612639565b8281036020840152610d8b8185612639565b6060815260006127796060830186612639565b828103602084015261278b8186612639565b905082810360408401526126ae8185612639565b60a0815260006127b260a0830188612639565b86602084015282810360408401526127ca81876125c7565b905082810360608401526127de818661260a565b905082810360808401526127f2818561260a565b98975050505050505050565b6060815260006128116060830186612639565b60208301949094525060400152919050565b60006101208083526128378184018d612639565b905060208b818501528a6040850152896060850152838203608085015261285e828a6125c7565b84810360a08601528854808252898552828520935090820190845b8181101561289557845483526001948501949284019201612879565b505084810360c08601526128a981896125c7565b9250505082810360e08401526128bf818661260a565b90508281036101008401526128d4818561260a565b9c9b505050505050505050505050565b60208082526019908201527f706c6561736520636865636b2074686520616464726573732100000000000000604082015260600190565b6020808252601b908201527f6d73672e73656e646572206973206e6f7420746865206f776e65720000000000604082015260600190565b81516001600160a01b0390811682526020808401519083015260408084015190830152606092830151169181019190915260800190565b60006101208201905060018060a01b0383511682526020830151602083015260408301516040830152606083015160608301526080830151608083015260a083015160a083015260c083015160c083015260e083015160e0830152610100808401516129ff828501826001600160a01b03169052565b505092915050565b60405161012081016001600160401b0381118282101715612a2a57612a2a612bea565b60405290565b604051606081016001600160401b0381118282101715612a2a57612a2a612bea565b60405161010081016001600160401b0381118282101715612a2a57612a2a612bea565b604051601f8201601f191681016001600160401b0381118282101715612a9d57612a9d612bea565b604052919050565b60006001600160401b03821115612abe57612abe612bea565b5060051b60200190565b60008219821115612adb57612adb612bbe565b500190565b600082612aef57612aef612bd4565b500490565b6000816000190483118215151615612b0e57612b0e612bbe565b500290565b600082821015612b2557612b25612bbe565b500390565b60005b83811015612b45578181015183820152602001612b2d565b83811115612b54576000848401525b50505050565b600181811c90821680612b6e57607f821691505b602082108114156119bd57634e487b7160e01b600052602260045260246000fd5b6000600019821415612ba357612ba3612bbe565b5060010190565b600082612bb957612bb9612bd4565b500690565b634e487b7160e01b600052601160045260246000fd5b634e487b7160e01b600052601260045260246000fd5b634e487b7160e01b600052604160045260246000fd5b6001600160a01b0381168114611f3157600080fdfea26469706673582212204c1deb7639d92a42d8029757dc27009612de0668e8877b49d36bf1177f93c4d764736f6c63430008040033",
  "linkReferences": {},
  "deployedLinkReferences": {}
}