{
  "_format": "hh-sol-artifact-1",
  "contractName": "LotteryManager",
  "sourceName": "contracts/LotteryManager.sol",
  "abi": [
    {
      "inputs": [
        {
          "internalType": "address",
          "name": "_factory",
          "type": "address"
        }
      ],
      "stateMutability": "nonpayable",
      "type": "constructor"
    },
    {
      "inputs": [
        {
          "internalType": "address",
          "name": "creator",
          "type": "address"
        },
        {
          "internalType": "uint256",
          "name": "amount",
          "type": "uint256"
        },
        {
          "internalType": "uint256",
          "name": "minPPL",
          "type": "uint256"
        },
        {
          "internalType": "uint256",
          "name": "maxPPL",
          "type": "uint256"
        },
        {
          "internalType": "uint256",
          "name": "coolDownTime",
          "type": "uint256"
        },
        {
          "internalType": "uint256",
          "name": "gameTime",
          "type": "uint256"
        },
        {
          "internalType": "uint256",
          "name": "bankerCommission",
          "type": "uint256"
        },
        {
          "internalType": "uint256",
          "name": "referralCommission",
          "type": "uint256"
        },
        {
          "internalType": "address",
          "name": "bankerWallet",
          "type": "address"
        }
      ],
      "name": "createTableIfNecessary",
      "outputs": [
        {
          "internalType": "address",
          "name": "table",
          "type": "address"
        }
      ],
      "stateMutability": "payable",
      "type": "function"
    },
    {
      "inputs": [],
      "name": "factory",
      "outputs": [
        {
          "internalType": "address",
          "name": "",
          "type": "address"
        }
      ],
      "stateMutability": "view",
      "type": "function"
    },
    {
      "inputs": [
        {
          "internalType": "string",
          "name": "token",
          "type": "string"
        },
        {
          "internalType": "uint256",
          "name": "amount",
          "type": "uint256"
        }
      ],
      "name": "joinTable",
      "outputs": [
        {
          "internalType": "address",
          "name": "table",
          "type": "address"
        }
      ],
      "stateMutability": "payable",
      "type": "function"
    }
  ],
  "bytecode": "0x60a060405234801561001057600080fd5b506040516106b53803806106b583398101604081905261002f91610058565b60601b6001600160601b03191660805260008054336001600160a01b0319909116179055610086565b600060208284031215610069578081fd5b81516001600160a01b038116811461007f578182fd5b9392505050565b60805160601c6106046100b1600039600081816090015281816101a8015261026301526106046000f3fe6080604052600436106100345760003560e01c806315282636146100395780636c78c0fd14610068578063c45a01551461007e575b600080fd5b61004c6100473660046103c2565b6100b2565b6040516001600160a01b03909116815260200160405180910390f35b61004c61007636600461043e565b600092915050565b34801561008a57600080fd5b5061004c7f000000000000000000000000000000000000000000000000000000000000000081565b60408051808201909152600981526837bbb732b91034b99d60b91b60208201526000805490916100ea916001600160a01b0316610335565b6101166040518060400160405280600a81526020016939b2b73232b91034b99d60b11b81525033610335565b6000546001600160a01b031633146101915760405162461bcd60e51b815260206004820152603460248201527f4f6e6c7920636f6e7472616374206f776e657220697320616c6c6f7765642074604482015273379031b0b636103a3434b990333ab731ba34b7b760611b606482015260840160405180910390fd5b6040516336c8dfbf60e21b81526001600160a01b037f0000000000000000000000000000000000000000000000000000000000000000169063db237efc906101ed908d908d908d908d908d908d908d908d908d906004016104f0565b60206040518083038186803b15801561020557600080fd5b505afa158015610219573d6000803e3d6000fd5b505050506040513d601f19601f8201168201806040525081019061023d919061039f565b90506001600160a01b0381166102fd576040516203ca4760ed1b81526001600160a01b037f00000000000000000000000000000000000000000000000000000000000000001690637948e000906102a8908d908d908d908d908d908d908d908d908d906004016104f0565b602060405180830381600087803b1580156102c257600080fd5b505af11580156102d6573d6000803e3d6000fd5b505050506040513d601f19601f820116820180604052508101906102fa919061039f565b90505b610328604051806040016040528060098152602001683a30b136329034b99d60b91b81525082610335565b9998505050505050505050565b61037a828260405160240161034b92919061053c565b60408051601f198184030181529190526020810180516001600160e01b031663319af33360e01b17905261037e565b5050565b80516a636f6e736f6c652e6c6f67602083016000808483855afa5050505050565b6000602082840312156103b0578081fd5b81516103bb816105b6565b9392505050565b60008060008060008060008060006101208a8c0312156103e0578485fd5b89356103eb816105b6565b985060208a0135975060408a0135965060608a0135955060808a0135945060a08a0135935060c08a0135925060e08a013591506101008a013561042d816105b6565b809150509295985092959850929598565b60008060408385031215610450578182fd5b823567ffffffffffffffff80821115610467578384fd5b818501915085601f83011261047a578384fd5b81358181111561048c5761048c6105a0565b604051601f8201601f19908116603f011681019083821181831017156104b4576104b46105a0565b816040528281528860208487010111156104cc578687fd5b82602086016020830137918201602090810196909652509694909301359450505050565b6001600160a01b03998a168152602081019890985260408801969096526060870194909452608086019290925260a085015260c084015260e08301529091166101008201526101200190565b6040815260008351806040840152815b81811015610569576020818701810151606086840101520161054c565b8181111561057a5782606083860101525b506001600160a01b0393909316602083015250601f91909101601f191601606001919050565b634e487b7160e01b600052604160045260246000fd5b6001600160a01b03811681146105cb57600080fd5b5056fea2646970667358221220e2ee1d6b7251c11afaac16d1d09e53bec5b5347557c8fcc47afe0d0c5960cd8e64736f6c63430008040033",
  "linkReferences": {},
  "deployedLinkReferences": {}
}