{
  "_format": "hh-sol-artifact-1",
  "contractName": "LotteryManager",
  "sourceName": "contracts/LotteryManager.sol",
  "abi": [
    {
      "inputs": [
        {
          "internalType": "address",
          "name": "_factory",
          "type": "address"
        },
        {
          "internalType": "address",
          "name": "_tokenAddress",
          "type": "address"
        }
      ],
      "stateMutability": "nonpayable",
      "type": "constructor"
    },
    {
      "anonymous": false,
      "inputs": [
        {
          "indexed": false,
          "internalType": "address",
          "name": "player",
          "type": "address"
        },
        {
          "indexed": false,
          "internalType": "address",
          "name": "banker",
          "type": "address"
        },
        {
          "indexed": false,
          "internalType": "uint256",
          "name": "amount",
          "type": "uint256"
        }
      ],
      "name": "BankerCommission",
      "type": "event"
    },
    {
      "anonymous": false,
      "inputs": [
        {
          "indexed": false,
          "internalType": "string",
          "name": "hash",
          "type": "string"
        }
      ],
      "name": "CreateTableIfNecessary",
      "type": "event"
    },
    {
      "anonymous": false,
      "inputs": [
        {
          "indexed": false,
          "internalType": "string",
          "name": "beforeHash",
          "type": "string"
        },
        {
          "indexed": false,
          "internalType": "string",
          "name": "newHash",
          "type": "string"
        }
      ],
      "name": "EditTable",
      "type": "event"
    },
    {
      "anonymous": false,
      "inputs": [
        {
          "indexed": false,
          "internalType": "string",
          "name": "hash",
          "type": "string"
        },
        {
          "indexed": false,
          "internalType": "uint256",
          "name": "round",
          "type": "uint256"
        },
        {
          "indexed": false,
          "internalType": "address[]",
          "name": "players",
          "type": "address[]"
        },
        {
          "indexed": false,
          "internalType": "uint256[]",
          "name": "numbers",
          "type": "uint256[]"
        },
        {
          "indexed": false,
          "internalType": "uint256[]",
          "name": "counts",
          "type": "uint256[]"
        }
      ],
      "name": "HoldingTicket",
      "type": "event"
    },
    {
      "anonymous": false,
      "inputs": [
        {
          "indexed": false,
          "internalType": "address",
          "name": "player",
          "type": "address"
        },
        {
          "indexed": false,
          "internalType": "uint256",
          "name": "count",
          "type": "uint256"
        },
        {
          "indexed": false,
          "internalType": "uint256",
          "name": "number",
          "type": "uint256"
        },
        {
          "indexed": false,
          "internalType": "string",
          "name": "hash",
          "type": "string"
        }
      ],
      "name": "JoinTable",
      "type": "event"
    },
    {
      "anonymous": false,
      "inputs": [
        {
          "indexed": false,
          "internalType": "address",
          "name": "player",
          "type": "address"
        },
        {
          "indexed": false,
          "internalType": "address",
          "name": "refer",
          "type": "address"
        },
        {
          "indexed": false,
          "internalType": "uint256",
          "name": "amount",
          "type": "uint256"
        }
      ],
      "name": "ReferCommission",
      "type": "event"
    },
    {
      "anonymous": false,
      "inputs": [
        {
          "indexed": false,
          "internalType": "string",
          "name": "hash",
          "type": "string"
        },
        {
          "indexed": false,
          "internalType": "uint256",
          "name": "round",
          "type": "uint256"
        },
        {
          "indexed": false,
          "internalType": "uint256",
          "name": "poolAmount",
          "type": "uint256"
        },
        {
          "indexed": false,
          "internalType": "uint256",
          "name": "roundNumber",
          "type": "uint256"
        },
        {
          "indexed": false,
          "internalType": "address[]",
          "name": "roundWinnerArray",
          "type": "address[]"
        },
        {
          "indexed": false,
          "internalType": "uint256[]",
          "name": "winnerCount",
          "type": "uint256[]"
        },
        {
          "indexed": false,
          "internalType": "int256[]",
          "name": "rewards",
          "type": "int256[]"
        },
        {
          "indexed": false,
          "internalType": "address[]",
          "name": "allPlayers",
          "type": "address[]"
        },
        {
          "indexed": false,
          "internalType": "uint256[]",
          "name": "numbers",
          "type": "uint256[]"
        },
        {
          "indexed": false,
          "internalType": "uint256[]",
          "name": "counts",
          "type": "uint256[]"
        }
      ],
      "name": "StartRound",
      "type": "event"
    },
    {
      "inputs": [
        {
          "internalType": "address",
          "name": "newOwner",
          "type": "address"
        }
      ],
      "name": "changeOwner",
      "outputs": [
        {
          "internalType": "bool",
          "name": "result",
          "type": "bool"
        }
      ],
      "stateMutability": "nonpayable",
      "type": "function"
    },
    {
      "inputs": [
        {
          "internalType": "string",
          "name": "hash",
          "type": "string"
        },
        {
          "internalType": "address",
          "name": "newManagerContract",
          "type": "address"
        }
      ],
      "name": "changeTableManager",
      "outputs": [
        {
          "internalType": "bool",
          "name": "result",
          "type": "bool"
        }
      ],
      "stateMutability": "nonpayable",
      "type": "function"
    },
    {
      "inputs": [
        {
          "internalType": "address",
          "name": "creator",
          "type": "address"
        },
        {
          "internalType": "uint256",
          "name": "amount",
          "type": "uint256"
        },
        {
          "internalType": "uint256",
          "name": "minPPL",
          "type": "uint256"
        },
        {
          "internalType": "uint256",
          "name": "maxPPL",
          "type": "uint256"
        },
        {
          "internalType": "uint256",
          "name": "coolDownTime",
          "type": "uint256"
        },
        {
          "internalType": "uint256",
          "name": "gameTime",
          "type": "uint256"
        },
        {
          "internalType": "uint256",
          "name": "bankerCommission",
          "type": "uint256"
        },
        {
          "internalType": "uint256",
          "name": "referralCommission",
          "type": "uint256"
        },
        {
          "internalType": "address",
          "name": "bankerWallet",
          "type": "address"
        }
      ],
      "name": "createTableIfNecessary",
      "outputs": [
        {
          "internalType": "string",
          "name": "hashString",
          "type": "string"
        }
      ],
      "stateMutability": "payable",
      "type": "function"
    },
    {
      "inputs": [
        {
          "internalType": "string",
          "name": "hashString",
          "type": "string"
        },
        {
          "components": [
            {
              "internalType": "address",
              "name": "creator",
              "type": "address"
            },
            {
              "internalType": "uint256",
              "name": "amount",
              "type": "uint256"
            },
            {
              "internalType": "uint256",
              "name": "minPPL",
              "type": "uint256"
            },
            {
              "internalType": "uint256",
              "name": "maxPPL",
              "type": "uint256"
            },
            {
              "internalType": "uint256",
              "name": "coolDownTime",
              "type": "uint256"
            },
            {
              "internalType": "uint256",
              "name": "gameTime",
              "type": "uint256"
            },
            {
              "internalType": "uint256",
              "name": "bankerCommission",
              "type": "uint256"
            },
            {
              "internalType": "uint256",
              "name": "referralCommission",
              "type": "uint256"
            },
            {
              "internalType": "address",
              "name": "bankerWallet",
              "type": "address"
            }
          ],
          "internalType": "struct ILotteryTable.TableInfo",
          "name": "tableInfo",
          "type": "tuple"
        }
      ],
      "name": "editTable",
      "outputs": [],
      "stateMutability": "nonpayable",
      "type": "function"
    },
    {
      "inputs": [],
      "name": "factory",
      "outputs": [
        {
          "internalType": "address",
          "name": "",
          "type": "address"
        }
      ],
      "stateMutability": "view",
      "type": "function"
    },
    {
      "inputs": [
        {
          "internalType": "string",
          "name": "hash",
          "type": "string"
        }
      ],
      "name": "holdingTicket",
      "outputs": [
        {
          "internalType": "string",
          "name": "tableHash",
          "type": "string"
        },
        {
          "internalType": "uint256",
          "name": "round",
          "type": "uint256"
        },
        {
          "internalType": "address[]",
          "name": "players",
          "type": "address[]"
        },
        {
          "internalType": "uint256[]",
          "name": "numbers",
          "type": "uint256[]"
        },
        {
          "internalType": "uint256[]",
          "name": "counts",
          "type": "uint256[]"
        }
      ],
      "stateMutability": "view",
      "type": "function"
    },
    {
      "inputs": [
        {
          "internalType": "uint256",
          "name": "count",
          "type": "uint256"
        },
        {
          "internalType": "uint256",
          "name": "number",
          "type": "uint256"
        },
        {
          "internalType": "string",
          "name": "hash",
          "type": "string"
        }
      ],
      "name": "joinTableV2",
      "outputs": [
        {
          "internalType": "bool",
          "name": "result",
          "type": "bool"
        }
      ],
      "stateMutability": "payable",
      "type": "function"
    },
    {
      "inputs": [],
      "name": "owner",
      "outputs": [
        {
          "internalType": "address",
          "name": "",
          "type": "address"
        }
      ],
      "stateMutability": "view",
      "type": "function"
    },
    {
      "inputs": [
        {
          "internalType": "address",
          "name": "a",
          "type": "address"
        },
        {
          "internalType": "address",
          "name": "b",
          "type": "address"
        }
      ],
      "name": "referral",
      "outputs": [
        {
          "internalType": "bool",
          "name": "result",
          "type": "bool"
        }
      ],
      "stateMutability": "nonpayable",
      "type": "function"
    },
    {
      "inputs": [
        {
          "internalType": "string",
          "name": "hash",
          "type": "string"
        }
      ],
      "name": "startRoundV2",
      "outputs": [
        {
          "internalType": "bool",
          "name": "",
          "type": "bool"
        }
      ],
      "stateMutability": "payable",
      "type": "function"
    }
  ],
  "bytecode": "0x60a06040523480156200001157600080fd5b506040516200311b3803806200311b833981016040819052620000349162000097565b6001600160601b031960609290921b91909116608052600080546001600160a01b03929092166001600160a01b03199283161790556001805490911633179055620000ce565b80516001600160a01b03811681146200009257600080fd5b919050565b60008060408385031215620000aa578182fd5b620000b5836200007a565b9150620000c5602084016200007a565b90509250929050565b60805160601c613020620000fb600039600081816101c1015281816102db01526103e001526130206000f3fe6080604052600436106100915760003560e01c80635433f103116100595780635433f103146101445780638da5cb5b14610157578063a6f9dae11461018f578063c45a0155146101af578063efc50bcc146101e357600080fd5b806315282636146100965780631c505d1d146100bf578063225276c8146100ef57806338afd4c51461010257806353b00f4214610122575b600080fd5b6100a96100a436600461238c565b610214565b6040516100b6919061297d565b60405180910390f35b3480156100cb57600080fd5b506100df6100da366004612354565b6105aa565b60405190151581526020016100b6565b6100df6100fd36600461245a565b61064e565b34801561010e57600080fd5b506100df61011d36600461248c565b610e3a565b34801561012e57600080fd5b5061014261013d3660046124d0565b610f38565b005b6100df6101523660046127f3565b611083565b34801561016357600080fd5b50600154610177906001600160a01b031681565b6040516001600160a01b0390911681526020016100b6565b34801561019b57600080fd5b506100df6101aa36600461231c565b61127f565b3480156101bb57600080fd5b506101777f000000000000000000000000000000000000000000000000000000000000000081565b3480156101ef57600080fd5b506102036101fe36600461245a565b6112d0565b6040516100b6959493929190612a3a565b6001546060906001600160a01b0316331461024a5760405162461bcd60e51b815260040161024190612bfb565b60405180910390fd5b6001546001600160a01b031633146102c15760405162461bcd60e51b815260206004820152603460248201527f4f6e6c7920636f6e7472616374206f776e657220697320616c6c6f7765642074604482015273379031b0b636103a3434b990333ab731ba34b7b760611b6064820152608401610241565b6040516336c8dfbf60e21b81526000906001600160a01b037f0000000000000000000000000000000000000000000000000000000000000000169063db237efc90610320908e908e908e908e908e908e908e908e908e90600401612931565b60206040518083038186803b15801561033857600080fd5b505afa15801561034c573d6000803e3d6000fd5b505050506040513d601f19601f820116820180604052508101906103709190612338565b90506001600160a01b03811661046057604051633ebc31eb60e11b81523060048201526001600160a01b038c81166024830152604482018c9052606482018b9052608482018a905260a4820189905260c4820188905260e4820187905261010482018690528481166101248301527f00000000000000000000000000000000000000000000000000000000000000001690637d7863d69061014401602060405180830381600087803b15801561042557600080fd5b505af1158015610439573d6000803e3d6000fd5b505050506040513d601f19601f8201168201806040525081019061045d9190612338565b90505b60008b8b8b8b8b8b8b8b8b60405160200161048399989796959493929190612931565b6040516020818303038152906040528051906020012060001c90506104a781611437565b9250816003846040516104ba91906128de565b908152604080516020928190038301902080546001600160a01b0319166001600160a01b0394851617905591841660009081526004825291909120845161050392860190612108565b5061052f604051806040016040528060098152602001683a30b136329034b99d60b91b81525083611558565b610564604051806040016040528060138152602001727461626c652068617368537472696e6720697360681b815250846115a1565b7ffeadb03e5864c7ba3800506584c86f9177a7d4a3547a3db6021574c3a678b3d183604051610593919061297d565b60405180910390a150509998505050505050505050565b6001546000906001600160a01b031633146105d75760405162461bcd60e51b815260040161024190612bfb565b6001600160a01b0383166105ea57600080fd5b6001600160a01b0382166105fd57600080fd5b816001600160a01b0316836001600160a01b0316141561061c57600080fd5b506001600160a01b03918216600090815260026020526040902080546001600160a01b03191691909216179055600190565b6001546000906001600160a01b0316331461067b5760405162461bcd60e51b815260040161024190612bfb565b81600060098260405161068e91906128de565b9081526040519081900360200190205460ff16905080156106e85760405162461bcd60e51b8152602060048201526014602482015273139bc81c994b595b9d1c985b98de481c9bdd5b9960621b6044820152606401610241565b6001905060006003856040516106fe91906128de565b908152604051908190036020019020546001600160a01b03169050806107365760405162461bcd60e51b815260040161024190612bc4565b60008190506000816001600160a01b0316635f2d82ea6040518163ffffffff1660e01b81526004016101206040518083038186803b15801561077757600080fd5b505afa15801561078b573d6000803e3d6000fd5b505050506040513d601f19601f820116820180604052508101906107af9190612757565b90506107bb81846115e6565b6000826001600160a01b031663be9a65556040518163ffffffff1660e01b8152600401600060405180830381600087803b1580156107f857600080fd5b505af115801561080c573d6000803e3d6000fd5b505050506040513d6000823e601f3d908101601f191682016040526108349190810190612644565b90506108636040518060600160405280602e8152602001612fbd602e91398251602084015160a085015161178d565b600060056000866001600160a01b03166001600160a01b031681526020019081526020016000205490506108b5604051806060016040528060268152602001612f9760269139828460c00151516117dc565b6000806108cf8460a001518461182890919063ffffffff16565b915091506109036040518060400160405280600e81526020016d1bdb99541a5958d954995dd85c9960921b81525082611867565b60005b846040015151811015610a1d57600085602001518660600151838151811061093e57634e487b7160e01b600052603260045260246000fd5b602002602001015114156109915761098a8660800151838151811061097357634e487b7160e01b600052603260045260246000fd5b6020026020010151846118ac90919063ffffffff16565b90506109e2565b6109d3866080015183815181106109b857634e487b7160e01b600052603260045260246000fd5b602002602001015188602001516118ac90919063ffffffff16565b6109df90600019612dd4565b90505b6001600160a01b0389166000908152600660209081526040822080546001810182559083529120015580610a1581612eee565b915050610906565b5060c084015151610acd576001600160a01b038781166000908152600560205260408082208290559054610100880151915163a9059cbb60e01b81529183166004830152602482018690529091169063a9059cbb90604401602060405180830381600087803b158015610a8f57600080fd5b505af1158015610aa3573d6000803e3d6000fd5b505050506040513d601f19601f82011682018060405250810190610ac7919061243a565b50610d75565b60005b8460c0015151811015610d735760008560c001518281518110610b0357634e487b7160e01b600052603260045260246000fd5b6020026020010151905060008660e001518381518110610b3357634e487b7160e01b600052603260045260246000fd5b602002602001015190506000610b5282866118ac90919063ffffffff16565b9050610b8f604051806060016040528060228152602001612f75602291396001600160a01b038d16600090815260056020526040902054836117dc565b6001600160a01b038b16600090815260056020526040902054811115610bca57506001600160a01b038a166000908152600560205260409020545b6001600160a01b038b1660009081526005602052604081208054839290610bf2908490612e76565b9091555050633b9aca006001600160a01b0384161015610cd557610c4b6040518060400160405280601a81526020017f77696e6e657220697320726f626f742c2077696e416d6f756e7400000000000081525082611867565b60005460405163a9059cbb60e01b8152336004820152602481018390526001600160a01b039091169063a9059cbb90604401602060405180830381600087803b158015610c9757600080fd5b505af1158015610cab573d6000803e3d6000fd5b505050506040513d601f19601f82011682018060405250810190610ccf919061243a565b50610d5d565b60005460405163a9059cbb60e01b81526001600160a01b038581166004830152602482018490529091169063a9059cbb90604401602060405180830381600087803b158015610d2357600080fd5b505af1158015610d37573d6000803e3d6000fd5b505050506040513d601f19601f82011682018060405250810190610d5b919061243a565b505b5050508080610d6b90612eee565b915050610ad0565b505b610d7e876118bf565b507fb18b8dee98a892f88eb0ea7d01d6c1006541e2425a6d58c78242f568ed5444f58b85600001518587602001518860c001518960e00151600660008f6001600160a01b03166001600160a01b031681526020019081526020016000208b604001518c606001518d60800151604051610e009a99989796959493929190612aed565b60405180910390a16001600160a01b0387166000908152600660205260408120610e299161218c565b5060019a9950505050505050505050565b6001546000906001600160a01b03163314610e675760405162461bcd60e51b815260040161024190612bfb565b6000600384604051610e7991906128de565b908152604051908190036020019020546001600160a01b0316905080610eb15760405162461bcd60e51b815260040161024190612bc4565b6040516351fddd5760e11b81526001600160a01b03848116600483015282919082169063a3fbbaae90602401602060405180830381600087803b158015610ef757600080fd5b505af1158015610f0b573d6000803e3d6000fd5b505050506040513d601f19601f82011682018060405250810190610f2f919061243a565b95945050505050565b6001546001600160a01b03163314610f625760405162461bcd60e51b815260040161024190612bfb565b6000600383604051610f7491906128de565b908152604051908190036020019020546001600160a01b0316905080610ff35760405162461bcd60e51b815260206004820152602e60248201527f4e6f207461626c6520776974682074686520686173682c20706c65617365206360448201526d6865636b2074686520686173682160901b6064820152608401610241565b6001600160a01b03908116600090815260086020818152604092839020855181546001600160a01b0319908116918716919091178255918601516001820155928501516002840155606085015160038401556080850151600484015560a0850151600584015560c0850151600684015560e085015160078401556101009094015191018054909316911617905550565b336000908152600260205260408082205490516001600160a01b039091169082906003906110b29086906128de565b908152604051908190036020019020546001600160a01b03169050806111315760405162461bcd60e51b815260206004820152602e60248201527f6e6f207461626c6520776974682074686520686173682c20706c65617365206360448201526d6865636b2074686520686173682160901b6064820152608401610241565b60408051608081018252338152602081018890528082018790526001600160a01b038481166060830152915163796ab25d60e01b8152839283169063796ab25d90611180908490600401612c32565b600060405180830381600087803b15801561119a57600080fd5b505af11580156111ae573d6000803e3d6000fd5b505050506000826001600160a01b0316635f2d82ea6040518163ffffffff1660e01b81526004016101206040518083038186803b1580156111ee57600080fd5b505afa158015611202573d6000803e3d6000fd5b505050506040513d601f19601f820116820180604052508101906112269190612757565b9050611233898286611c2a565b7f08b584e6aceb13e620c46e9d7288284e3b3a1c9dce5ca8e843559f5c4c8456a7338a8a8a60405161126894939291906128fa565b60405180910390a150600198975050505050505050565b6001546000906001600160a01b031633146112ac5760405162461bcd60e51b815260040161024190612bfb565b50600180546001600160a01b0319166001600160a01b039290921691909117815590565b60606000606080606060006003876040516112eb91906128de565b908152604051908190036020019020546001600160a01b03169050806113235760405162461bcd60e51b815260040161024190612bc4565b60008190506000816001600160a01b03166384bc76a66040518163ffffffff1660e01b815260040160006040518083038186803b15801561136357600080fd5b505afa158015611377573d6000803e3d6000fd5b505050506040513d6000823e601f3d908101601f1916820160405261139f9190810190612596565b90506000826001600160a01b03166347e405536040518163ffffffff1660e01b815260040160206040518083038186803b1580156113dc57600080fd5b505afa1580156113f0573d6000803e3d6000fd5b505050506040513d601f19601f8201168201806040525081019061141491906127db565b825160208401516040909401519b9c919b909a5092985091965090945050505050565b60608161145b5750506040805180820190915260018152600360fc1b602082015290565b8160005b8115611485578061146f81612eee565b915061147e9050600a83612dc0565b915061145f565b6000816001600160401b038111156114ad57634e487b7160e01b600052604160045260246000fd5b6040519080825280601f01601f1916602001820160405280156114d7576020820181803683370190505b5090505b8415611550576114ec600183612e76565b91506114f9600a86612f09565b611504906030612da8565b60f81b81838151811061152757634e487b7160e01b600052603260045260246000fd5b60200101906001600160f81b031916908160001a905350611549600a86612dc0565b94506114db565b949350505050565b61159d828260405160240161156e929190612990565b60408051601f198184030181529190526020810180516001600160e01b031663319af33360e01b17905261207c565b5050565b61159d82826040516024016115b79291906129ba565b60408051601f198184030181529190526020810180516001600160e01b0316634b5c427760e01b17905261207c565b60008190506000816001600160a01b031663efa1c4826040518163ffffffff1660e01b815260040160006040518083038186803b15801561162657600080fd5b505afa15801561163a573d6000803e3d6000fd5b505050506040513d6000823e601f3d908101601f191682016040526116629190810190612408565b8051604086015191925090811015611786576040850151600090611686908361209d565b905060005b818110156117835760006116da600a6116d48460408051426020808301919091524482840152606080830194909452825180830390940184526080909101909152815191012090565b906120a9565b604080516080810182526001600160a01b0380861682526001602083015281830184905260006060830152915163796ab25d60e01b81529293508492909189169063796ab25d9061172f908490600401612c32565b600060405180830381600087803b15801561174957600080fd5b505af115801561175d573d6000803e3d6000fd5b5050505061176d60018b8b611c2a565b505050808061177b90612eee565b91505061168b565b50505b5050505050565b6117d6848484846040516024016117a79493929190612abe565b60408051601f198184030181529190526020810180516001600160e01b03166304772b3360e11b17905261207c565b50505050565b6118238383836040516024016117f493929190612a99565b60408051601f198184030181529190526020810180516001600160e01b031663969cdd0360e01b17905261207c565b505050565b6000808261183b57506000905080611860565b600183858161185a57634e487b7160e01b600052601260045260246000fd5b04915091505b9250929050565b61159d828260405160240161187d929190612a18565b60408051601f198184030181529190526020810180516001600160e01b03166309710a9d60e41b17905261207c565b60006118b88284612e57565b9392505050565b6001600160a01b038082166000908152600860208181526040808420815161012081018352815487168082526001830154948201949094526002820154928101929092526003810154606083015260048101546080830152600581015460a0830152600681015460c0830152600781015460e083015290920154909316610100820152909115611c1b576001600160a01b0383166000908152600460205260408120805461196c90612eb9565b80601f016020809104026020016040519081016040528092919081815260200182805461199890612eb9565b80156119e55780601f106119ba576101008083540402835291602001916119e5565b820191906000526020600020905b8154815290600101906020018083116119c857829003601f168201915b505060405163fa2d259d60e01b815293945087936001600160a01b038516935063fa2d259d9250611a1b91508690600401612c69565b600060405180830381600087803b158015611a3557600080fd5b505af1158015611a49573d6000803e3d6000fd5b505050506000836000015184602001518560400151866060015187608001518860a001518960c001518a60e001518b6101000151604051602001611a9599989796959493929190612931565b6040516020818303038152906040528051906020012060001c9050856003611abc83611437565b604051611ac991906128de565b90815260405190819003602001902080546001600160a01b03929092166001600160a01b0319909216919091179055611b0181611437565b6001600160a01b03871660009081526004602090815260409091208251611b2e9391929190910190612108565b506001600160a01b038616600090815260086020818152604080842080546001600160a01b03199081168255600182018690556002820186905560038201869055600482018690556005820186905560068201869055600782019590955590920180549093169092558051808201909152600d81526c3132b337b932961030b33a32b960991b91810191909152611bce9084611bc984611437565b6120b5565b7fe3e57a24b8f74d2723608b23c0f9b294b5919b85093bade5338255ac2f90355683611bf983611437565b604051611c079291906129ba565b60405180910390a150600195945050505050565b50600092915050565b50919050565b6000611c438360200151856118ac90919063ffffffff16565b6000546040516323b872dd60e01b8152336004820152306024820152604481018390529192506001600160a01b0316906323b872dd90606401602060405180830381600087803b158015611c9657600080fd5b505af1158015611caa573d6000803e3d6000fd5b505050506040513d601f19601f82011682018060405250810190611cce919061243a565b506001600160a01b03821660009081526005602052604081208054839290611cf7908490612da8565b909155505060c083015115611ead5760c0830151600090611d2490611d1e846127106120fc565b906118ac565b6001600160a01b038416600090815260056020526040902054909150811115611da35760405162461bcd60e51b815260206004820152602b60248201527f5461626c6520706f6f6c206e6f7420656e6f75676820666f722062616e6b657260448201526a436f6d6d697373696f6e2160a81b6064820152608401610241565b6001600160a01b03831660009081526005602052604081208054839290611dcb908490612e76565b909155505060005461010085015160405163a9059cbb60e01b81526001600160a01b0391821660048201526024810184905291169063a9059cbb90604401602060405180830381600087803b158015611e2357600080fd5b505af1158015611e37573d6000803e3d6000fd5b505050506040513d601f19601f82011682018060405250810190611e5b919061243a565b50610100840151604080513381526001600160a01b03909216602083015281018290527fda5163f4fef80ed29382eca50bb83c0bd880a912e0ad6adf0d4389fa62481a639060600160405180910390a1505b336000908152600260205260409020546001600160a01b03168015801590611ed9575060008460e00151115b156117865760e0840151600090611ef690611d1e856127106120fc565b6001600160a01b038516600090815260056020526040902054909150811115611f775760405162461bcd60e51b815260206004820152602d60248201527f5461626c6520706f6f6c206e6f7420656e6f75676820666f722072656665727260448201526c616c436f6d6d697373696f6e2160981b6064820152608401610241565b6001600160a01b03841660009081526005602052604081208054839290611f9f908490612e76565b909155505060005460405163a9059cbb60e01b81526001600160a01b038481166004830152602482018490529091169063a9059cbb90604401602060405180830381600087803b158015611ff257600080fd5b505af1158015612006573d6000803e3d6000fd5b505050506040513d601f19601f8201168201806040525081019061202a919061243a565b50604080513381526001600160a01b03841660208201529081018290527fa97b13b2cce63d44be7b27fdf4d8e0c49f255b8b0a19f07ce2881ba924118f829060600160405180910390a1505050505050565b80516a636f6e736f6c652e6c6f67602083016000808483855afa5050505050565b60006118b88284612e76565b60006118b88284612f09565b6118238383836040516024016120cd939291906129df565b60408051601f198184030181529190526020810180516001600160e01b0316632ced7cef60e01b17905261207c565b60006118b88284612dc0565b82805461211490612eb9565b90600052602060002090601f016020900481019282612136576000855561217c565b82601f1061214f57805160ff191683800117855561217c565b8280016001018555821561217c579182015b8281111561217c578251825591602001919060010190612161565b506121889291506121ad565b5090565b50805460008255906000526020600020908101906121aa91906121ad565b50565b5b8082111561218857600081556001016121ae565b80356121cd81612f5f565b919050565b80516121cd81612f5f565b600082601f8301126121ed578081fd5b815160206122026121fd83612d85565b612d55565b80838252828201915082860187848660051b8901011115612221578586fd5b855b8581101561224857815161223681612f5f565b84529284019290840190600101612223565b5090979650505050505050565b600082601f830112612265578081fd5b815160206122756121fd83612d85565b80838252828201915082860187848660051b8901011115612294578586fd5b855b8581101561224857815184529284019290840190600101612296565b600082601f8301126122c2578081fd5b81356001600160401b038111156122db576122db612f49565b6122ee601f8201601f1916602001612d55565b818152846020838601011115612302578283fd5b816020850160208301379081016020019190915292915050565b60006020828403121561232d578081fd5b81356118b881612f5f565b600060208284031215612349578081fd5b81516118b881612f5f565b60008060408385031215612366578081fd5b823561237181612f5f565b9150602083013561238181612f5f565b809150509250929050565b60008060008060008060008060006101208a8c0312156123aa578485fd5b89356123b581612f5f565b985060208a0135975060408a0135965060608a0135955060808a0135945060a08a0135935060c08a0135925060e08a013591506101008a01356123f781612f5f565b809150509295985092959850929598565b600060208284031215612419578081fd5b81516001600160401b0381111561242e578182fd5b611550848285016121dd565b60006020828403121561244b578081fd5b815180151581146118b8578182fd5b60006020828403121561246b578081fd5b81356001600160401b03811115612480578182fd5b611550848285016122b2565b6000806040838503121561249e578182fd5b82356001600160401b038111156124b3578283fd5b6124bf858286016122b2565b925050602083013561238181612f5f565b6000808284036101408112156124e4578283fd5b83356001600160401b038111156124f9578384fd5b612505868287016122b2565b93505061012080601f198301121561251b578283fd5b612523612ce7565b9150612531602086016121c2565b825260408501356020830152606085013560408301526080850135606083015260a0850135608083015260c085013560a083015260e085013560c08301526101008086013560e08401526125868287016121c2565b9083015250919491935090915050565b6000602082840312156125a7578081fd5b81516001600160401b03808211156125bd578283fd5b90830190606082860312156125d0578283fd5b6125d8612d10565b8251828111156125e6578485fd5b6125f2878286016121dd565b825250602083015182811115612606578485fd5b61261287828601612255565b602083015250604083015182811115612629578485fd5b61263587828601612255565b60408301525095945050505050565b600060208284031215612655578081fd5b81516001600160401b038082111561266b578283fd5b90830190610100828603121561267f578283fd5b612687612d32565b82518152602083015160208201526040830151828111156126a6578485fd5b6126b2878286016121dd565b6040830152506060830151828111156126c9578485fd5b6126d587828601612255565b6060830152506080830151828111156126ec578485fd5b6126f887828601612255565b60808301525060a083015160a082015260c083015182811115612719578485fd5b612725878286016121dd565b60c08301525060e08301518281111561273c578485fd5b61274887828601612255565b60e08301525095945050505050565b60006101208284031215612769578081fd5b612771612ce7565b61277a836121d2565b81526020830151602082015260408301516040820152606083015160608201526080830151608082015260a083015160a082015260c083015160c082015260e083015160e08201526101006127d08185016121d2565b908201529392505050565b6000602082840312156127ec578081fd5b5051919050565b600080600060608486031215612807578081fd5b833592506020840135915060408401356001600160401b0381111561282a578182fd5b612836868287016122b2565b9150509250925092565b6000815180845260208085019450808401835b838110156128785781516001600160a01b031687529582019590820190600101612853565b509495945050505050565b6000815180845260208085019450808401835b8381101561287857815187529582019590820190600101612896565b600081518084526128ca816020860160208601612e8d565b601f01601f19169290920160200192915050565b600082516128f0818460208701612e8d565b9190910192915050565b60018060a01b038516815283602082015282604082015260806060820152600061292760808301846128b2565b9695505050505050565b6001600160a01b03998a168152602081019890985260408801969096526060870194909452608086019290925260a085015260c084015260e08301529091166101008201526101200190565b6020815260006118b860208301846128b2565b6040815260006129a360408301856128b2565b905060018060a01b03831660208301529392505050565b6040815260006129cd60408301856128b2565b8281036020840152610f2f81856128b2565b6060815260006129f260608301866128b2565b8281036020840152612a0481866128b2565b9050828103604084015261292781856128b2565b604081526000612a2b60408301856128b2565b90508260208301529392505050565b60a081526000612a4d60a08301886128b2565b8660208401528281036040840152612a658187612840565b90508281036060840152612a798186612883565b90508281036080840152612a8d8185612883565b98975050505050505050565b606081526000612aac60608301866128b2565b60208301949094525060400152919050565b608081526000612ad160808301876128b2565b6020830195909552506040810192909252606090910152919050565b6000610140808352612b018184018e6128b2565b905060208c818501528b60408501528a60608501528382036080850152612b28828b612840565b915083820360a0850152612b3c828a612883565b84810360c08601528854808252898552828520935090820190845b81811015612b7357845483526001948501949284019201612b57565b505084810360e0860152612b878189612840565b92505050828103610100840152612b9e8186612883565b9050828103610120840152612bb38185612883565b9d9c50505050505050505050505050565b60208082526019908201527f706c6561736520636865636b2074686520616464726573732100000000000000604082015260600190565b6020808252601b908201527f6d73672e73656e646572206973206e6f7420746865206f776e65720000000000604082015260600190565b81516001600160a01b0390811682526020808401519083015260408084015190830152606092830151169181019190915260800190565b60006101208201905060018060a01b0383511682526020830151602083015260408301516040830152606083015160608301526080830151608083015260a083015160a083015260c083015160c083015260e083015160e083015261010080840151612cdf828501826001600160a01b03169052565b505092915050565b60405161012081016001600160401b0381118282101715612d0a57612d0a612f49565b60405290565b604051606081016001600160401b0381118282101715612d0a57612d0a612f49565b60405161010081016001600160401b0381118282101715612d0a57612d0a612f49565b604051601f8201601f191681016001600160401b0381118282101715612d7d57612d7d612f49565b604052919050565b60006001600160401b03821115612d9e57612d9e612f49565b5060051b60200190565b60008219821115612dbb57612dbb612f1d565b500190565b600082612dcf57612dcf612f33565b500490565b60006001600160ff1b0381841382841380821686840486111615612dfa57612dfa612f1d565b600160ff1b84871282811687830589121615612e1857612e18612f1d565b858712925087820587128484161615612e3357612e33612f1d565b87850587128184161615612e4957612e49612f1d565b505050929093029392505050565b6000816000190483118215151615612e7157612e71612f1d565b500290565b600082821015612e8857612e88612f1d565b500390565b60005b83811015612ea8578181015183820152602001612e90565b838111156117d65750506000910152565b600181811c90821680612ecd57607f821691505b60208210811415611c2457634e487b7160e01b600052602260045260246000fd5b6000600019821415612f0257612f02612f1d565b5060010190565b600082612f1857612f18612f33565b500690565b634e487b7160e01b600052601160045260246000fd5b634e487b7160e01b600052601260045260246000fd5b634e487b7160e01b600052604160045260246000fd5b6001600160a01b03811681146121aa57600080fdfe7461626c65506f6f6c5b7461626c65416464726573735d2c2077696e416d6f756e74706f6f6c416d6f756e742c20726f756e64526573756c742e77696e6e6572732e6c656e677468726f756e642c20726f756e644e756d6265722c20726f756e64526573756c742e77696e6e6572416c6c436f756e74a26469706673582212207cfe97634efa2144ceaee2533b1e490ab27da25f7af0d5d5b96ddb3d199d90d464736f6c63430008040033",
  "linkReferences": {},
  "deployedLinkReferences": {}
}