{
  "_format": "hh-sol-artifact-1",
  "contractName": "LotteryManager",
  "sourceName": "contracts/LotteryManager.sol",
  "abi": [
    {
      "inputs": [
        {
          "internalType": "address",
          "name": "_factory",
          "type": "address"
        }
      ],
      "stateMutability": "nonpayable",
      "type": "constructor"
    },
    {
      "inputs": [
        {
          "internalType": "address",
          "name": "creator",
          "type": "address"
        },
        {
          "internalType": "uint256",
          "name": "amount",
          "type": "uint256"
        },
        {
          "internalType": "uint256",
          "name": "minPPL",
          "type": "uint256"
        },
        {
          "internalType": "uint256",
          "name": "maxPPL",
          "type": "uint256"
        },
        {
          "internalType": "uint256",
          "name": "coolDownTime",
          "type": "uint256"
        },
        {
          "internalType": "uint256",
          "name": "gameTime",
          "type": "uint256"
        },
        {
          "internalType": "uint256",
          "name": "bankerCommission",
          "type": "uint256"
        },
        {
          "internalType": "uint256",
          "name": "referralCommission",
          "type": "uint256"
        },
        {
          "internalType": "address",
          "name": "bankerWallet",
          "type": "address"
        }
      ],
      "name": "createTableIfNecessary",
      "outputs": [
        {
          "internalType": "bool",
          "name": "result",
          "type": "bool"
        }
      ],
      "stateMutability": "payable",
      "type": "function"
    },
    {
      "inputs": [],
      "name": "factory",
      "outputs": [
        {
          "internalType": "address",
          "name": "",
          "type": "address"
        }
      ],
      "stateMutability": "view",
      "type": "function"
    },
    {
      "inputs": [
        {
          "internalType": "string",
          "name": "token",
          "type": "string"
        },
        {
          "internalType": "uint256",
          "name": "amount",
          "type": "uint256"
        }
      ],
      "name": "joinTable",
      "outputs": [
        {
          "internalType": "address",
          "name": "table",
          "type": "address"
        }
      ],
      "stateMutability": "payable",
      "type": "function"
    }
  ],
  "bytecode": "0x60a060405234801561001057600080fd5b506040516106cd3803806106cd83398101604081905261002f91610058565b60601b6001600160601b03191660805260008054336001600160a01b0319909116179055610086565b600060208284031215610069578081fd5b81516001600160a01b038116811461007f578182fd5b9392505050565b60805160601c61061c6100b16000396000818160a1015281816101bc0152610277015261061c6000f3fe6080604052600436106100345760003560e01c806315282636146100395780636c78c0fd14610061578063c45a01551461008f575b600080fd5b61004c6100473660046103da565b6100c3565b60405190151581526020015b60405180910390f35b61007761006f366004610456565b600092915050565b6040516001600160a01b039091168152602001610058565b34801561009b57600080fd5b506100777f000000000000000000000000000000000000000000000000000000000000000081565b60408051808201909152600981526837bbb732b91034b99d60b91b60208201526000805490916100fb916001600160a01b031661034d565b6101276040518060400160405280600a81526020016939b2b73232b91034b99d60b11b8152503361034d565b6000546001600160a01b031633146101a25760405162461bcd60e51b815260206004820152603460248201527f4f6e6c7920636f6e7472616374206f776e657220697320616c6c6f7765642074604482015273379031b0b636103a3434b990333ab731ba34b7b760611b606482015260840160405180910390fd5b6040516336c8dfbf60e21b81526000906001600160a01b037f0000000000000000000000000000000000000000000000000000000000000000169063db237efc90610201908e908e908e908e908e908e908e908e908e90600401610508565b60206040518083038186803b15801561021957600080fd5b505afa15801561022d573d6000803e3d6000fd5b505050506040513d601f19601f8201168201806040525081019061025191906103b7565b90506001600160a01b038116610311576040516203ca4760ed1b81526001600160a01b037f00000000000000000000000000000000000000000000000000000000000000001690637948e000906102bc908e908e908e908e908e908e908e908e908e90600401610508565b602060405180830381600087803b1580156102d657600080fd5b505af11580156102ea573d6000803e3d6000fd5b505050506040513d601f19601f8201168201806040525081019061030e91906103b7565b90505b61033c604051806040016040528060098152602001683a30b136329034b99d60b91b8152508261034d565b5060019a9950505050505050505050565b6103928282604051602401610363929190610554565b60408051601f198184030181529190526020810180516001600160e01b031663319af33360e01b179052610396565b5050565b80516a636f6e736f6c652e6c6f67602083016000808483855afa5050505050565b6000602082840312156103c8578081fd5b81516103d3816105ce565b9392505050565b60008060008060008060008060006101208a8c0312156103f8578485fd5b8935610403816105ce565b985060208a0135975060408a0135965060608a0135955060808a0135945060a08a0135935060c08a0135925060e08a013591506101008a0135610445816105ce565b809150509295985092959850929598565b60008060408385031215610468578182fd5b823567ffffffffffffffff8082111561047f578384fd5b818501915085601f830112610492578384fd5b8135818111156104a4576104a46105b8565b604051601f8201601f19908116603f011681019083821181831017156104cc576104cc6105b8565b816040528281528860208487010111156104e4578687fd5b82602086016020830137918201602090810196909652509694909301359450505050565b6001600160a01b03998a168152602081019890985260408801969096526060870194909452608086019290925260a085015260c084015260e08301529091166101008201526101200190565b6040815260008351806040840152815b818110156105815760208187018101516060868401015201610564565b818111156105925782606083860101525b506001600160a01b0393909316602083015250601f91909101601f191601606001919050565b634e487b7160e01b600052604160045260246000fd5b6001600160a01b03811681146105e357600080fd5b5056fea26469706673582212201a6700b001c6ff6a1cdef6787248d2e321754dae07998c8cc65d123fa7c7d0da64736f6c63430008040033",
  "linkReferences": {},
  "deployedLinkReferences": {}
}