{
  "_format": "hh-sol-artifact-1",
  "contractName": "LotteryManager",
  "sourceName": "contracts/LotteryManager.sol",
  "abi": [
    {
      "inputs": [
        {
          "internalType": "address",
          "name": "_factory",
          "type": "address"
        },
        {
          "internalType": "address",
          "name": "_tokenAddress",
          "type": "address"
        }
      ],
      "stateMutability": "nonpayable",
      "type": "constructor"
    },
    {
      "inputs": [
        {
          "internalType": "address",
          "name": "creator",
          "type": "address"
        },
        {
          "internalType": "uint256",
          "name": "amount",
          "type": "uint256"
        },
        {
          "internalType": "uint256",
          "name": "minPPL",
          "type": "uint256"
        },
        {
          "internalType": "uint256",
          "name": "maxPPL",
          "type": "uint256"
        },
        {
          "internalType": "uint256",
          "name": "coolDownTime",
          "type": "uint256"
        },
        {
          "internalType": "uint256",
          "name": "gameTime",
          "type": "uint256"
        },
        {
          "internalType": "uint256",
          "name": "bankerCommission",
          "type": "uint256"
        },
        {
          "internalType": "uint256",
          "name": "referralCommission",
          "type": "uint256"
        },
        {
          "internalType": "address",
          "name": "bankerWallet",
          "type": "address"
        }
      ],
      "name": "createTableIfNecessary",
      "outputs": [
        {
          "internalType": "string",
          "name": "hashString",
          "type": "string"
        }
      ],
      "stateMutability": "payable",
      "type": "function"
    },
    {
      "inputs": [
        {
          "internalType": "string",
          "name": "hashString",
          "type": "string"
        },
        {
          "components": [
            {
              "internalType": "address",
              "name": "creator",
              "type": "address"
            },
            {
              "internalType": "uint256",
              "name": "amount",
              "type": "uint256"
            },
            {
              "internalType": "uint256",
              "name": "minPPL",
              "type": "uint256"
            },
            {
              "internalType": "uint256",
              "name": "maxPPL",
              "type": "uint256"
            },
            {
              "internalType": "uint256",
              "name": "coolDownTime",
              "type": "uint256"
            },
            {
              "internalType": "uint256",
              "name": "gameTime",
              "type": "uint256"
            },
            {
              "internalType": "uint256",
              "name": "bankerCommission",
              "type": "uint256"
            },
            {
              "internalType": "uint256",
              "name": "referralCommission",
              "type": "uint256"
            },
            {
              "internalType": "address",
              "name": "bankerWallet",
              "type": "address"
            }
          ],
          "internalType": "struct ILotteryTable.TableInfo",
          "name": "tableInfo",
          "type": "tuple"
        }
      ],
      "name": "editTable",
      "outputs": [],
      "stateMutability": "nonpayable",
      "type": "function"
    },
    {
      "inputs": [],
      "name": "factory",
      "outputs": [
        {
          "internalType": "address",
          "name": "",
          "type": "address"
        }
      ],
      "stateMutability": "view",
      "type": "function"
    },
    {
      "inputs": [
        {
          "internalType": "uint256",
          "name": "count",
          "type": "uint256"
        },
        {
          "internalType": "uint256",
          "name": "number",
          "type": "uint256"
        },
        {
          "components": [
            {
              "internalType": "address",
              "name": "creator",
              "type": "address"
            },
            {
              "internalType": "uint256",
              "name": "amount",
              "type": "uint256"
            },
            {
              "internalType": "uint256",
              "name": "minPPL",
              "type": "uint256"
            },
            {
              "internalType": "uint256",
              "name": "maxPPL",
              "type": "uint256"
            },
            {
              "internalType": "uint256",
              "name": "coolDownTime",
              "type": "uint256"
            },
            {
              "internalType": "uint256",
              "name": "gameTime",
              "type": "uint256"
            },
            {
              "internalType": "uint256",
              "name": "bankerCommission",
              "type": "uint256"
            },
            {
              "internalType": "uint256",
              "name": "referralCommission",
              "type": "uint256"
            },
            {
              "internalType": "address",
              "name": "bankerWallet",
              "type": "address"
            }
          ],
          "internalType": "struct ILotteryTable.TableInfo",
          "name": "tableInfo",
          "type": "tuple"
        }
      ],
      "name": "joinTableV1",
      "outputs": [
        {
          "internalType": "bool",
          "name": "result",
          "type": "bool"
        }
      ],
      "stateMutability": "payable",
      "type": "function"
    },
    {
      "inputs": [
        {
          "internalType": "uint256",
          "name": "count",
          "type": "uint256"
        },
        {
          "internalType": "uint256",
          "name": "number",
          "type": "uint256"
        },
        {
          "internalType": "string",
          "name": "hash",
          "type": "string"
        }
      ],
      "name": "joinTableV2",
      "outputs": [
        {
          "internalType": "bool",
          "name": "result",
          "type": "bool"
        }
      ],
      "stateMutability": "payable",
      "type": "function"
    },
    {
      "inputs": [
        {
          "internalType": "address",
          "name": "a",
          "type": "address"
        },
        {
          "internalType": "address",
          "name": "b",
          "type": "address"
        }
      ],
      "name": "referral",
      "outputs": [
        {
          "internalType": "bool",
          "name": "result",
          "type": "bool"
        }
      ],
      "stateMutability": "nonpayable",
      "type": "function"
    },
    {
      "inputs": [
        {
          "components": [
            {
              "internalType": "address",
              "name": "creator",
              "type": "address"
            },
            {
              "internalType": "uint256",
              "name": "amount",
              "type": "uint256"
            },
            {
              "internalType": "uint256",
              "name": "minPPL",
              "type": "uint256"
            },
            {
              "internalType": "uint256",
              "name": "maxPPL",
              "type": "uint256"
            },
            {
              "internalType": "uint256",
              "name": "coolDownTime",
              "type": "uint256"
            },
            {
              "internalType": "uint256",
              "name": "gameTime",
              "type": "uint256"
            },
            {
              "internalType": "uint256",
              "name": "bankerCommission",
              "type": "uint256"
            },
            {
              "internalType": "uint256",
              "name": "referralCommission",
              "type": "uint256"
            },
            {
              "internalType": "address",
              "name": "bankerWallet",
              "type": "address"
            }
          ],
          "internalType": "struct ILotteryTable.TableInfo",
          "name": "tableInfo",
          "type": "tuple"
        }
      ],
      "name": "startRoundV1",
      "outputs": [
        {
          "internalType": "uint256",
          "name": "",
          "type": "uint256"
        },
        {
          "internalType": "uint256",
          "name": "",
          "type": "uint256"
        },
        {
          "internalType": "address[]",
          "name": "",
          "type": "address[]"
        },
        {
          "internalType": "address[]",
          "name": "",
          "type": "address[]"
        }
      ],
      "stateMutability": "payable",
      "type": "function"
    },
    {
      "inputs": [
        {
          "internalType": "string",
          "name": "hash",
          "type": "string"
        }
      ],
      "name": "startRoundV2",
      "outputs": [
        {
          "internalType": "uint256",
          "name": "",
          "type": "uint256"
        },
        {
          "internalType": "uint256",
          "name": "",
          "type": "uint256"
        },
        {
          "internalType": "address[]",
          "name": "",
          "type": "address[]"
        },
        {
          "internalType": "address[]",
          "name": "",
          "type": "address[]"
        }
      ],
      "stateMutability": "payable",
      "type": "function"
    },
    {
      "inputs": [],
      "name": "token",
      "outputs": [
        {
          "internalType": "contract IERC20",
          "name": "",
          "type": "address"
        }
      ],
      "stateMutability": "view",
      "type": "function"
    }
  ],
  "bytecode": "0x60a06040523480156200001157600080fd5b50604051620024cb380380620024cb833981016040819052620000349162000097565b6001600160601b031960609290921b91909116608052600080546001600160a01b03929092166001600160a01b03199283161790556001805490911633179055620000ce565b80516001600160a01b03811681146200009257600080fd5b919050565b60008060408385031215620000aa578182fd5b620000b5836200007a565b9150620000c5602084016200007a565b90509250929050565b60805160601c6123d0620000fb600039600081816101610152818161027e015261033901526123d06000f3fe6080604052600436106100865760003560e01c806353b00f421161005957806353b00f421461011a5780635433f1031461013c578063c45a01551461014f578063d0356c091461019b578063fc0c546a146101ae57600080fd5b8063152826361461008b5780631c505d1d146100b4578063225276c8146100e457806334ac125f14610107575b600080fd5b61009e610099366004611c05565b6101ce565b6040516100ab9190612040565b60405180910390f35b3480156100c057600080fd5b506100d46100cf366004611bcd565b6104b1565b60405190151581526020016100ab565b6100f76100f2366004611cd4565b610542565b6040516100ab9493929190612189565b6100f7610115366004611d55565b610a77565b34801561012657600080fd5b5061013a610135366004611d07565b610f88565b005b6100d461014a366004611ee5565b610fee565b34801561015b57600080fd5b506101837f000000000000000000000000000000000000000000000000000000000000000081565b6040516001600160a01b0390911681526020016100ab565b6100d46101a9366004611f33565b611166565b3480156101ba57600080fd5b50600054610183906001600160a01b031681565b6001546060906001600160a01b031633146101e857600080fd5b6001546001600160a01b031633146102645760405162461bcd60e51b815260206004820152603460248201527f4f6e6c7920636f6e7472616374206f776e657220697320616c6c6f7765642074604482015273379031b0b636103a3434b990333ab731ba34b7b760611b60648201526084015b60405180910390fd5b6040516336c8dfbf60e21b81526000906001600160a01b037f0000000000000000000000000000000000000000000000000000000000000000169063db237efc906102c3908e908e908e908e908e908e908e908e908e90600401611ff4565b60206040518083038186803b1580156102db57600080fd5b505afa1580156102ef573d6000803e3d6000fd5b505050506040513d601f19601f820116820180604052508101906103139190611bb1565b90506001600160a01b0381166103d3576040516203ca4760ed1b81526001600160a01b037f00000000000000000000000000000000000000000000000000000000000000001690637948e0009061037e908e908e908e908e908e908e908e908e908e90600401611ff4565b602060405180830381600087803b15801561039857600080fd5b505af11580156103ac573d6000803e3d6000fd5b505050506040513d601f19601f820116820180604052508101906103d09190611bb1565b90505b6103fe604051806040016040528060098152602001683a30b136329034b99d60b91b815250826112b7565b60008b8b8b8b8b8b8b8b8b60405160200161042199989796959493929190611ff4565b6040516020818303038152906040528051906020012060001c905061044581611300565b9250816003846040516104589190611fd8565b908152604080516020928190038301902080546001600160a01b0319166001600160a01b039485161790559184166000908152600482529190912084516104a192860190611995565b5050509998505050505050505050565b6001546000906001600160a01b031633146104cb57600080fd5b6001600160a01b0383166104de57600080fd5b6001600160a01b0382166104f157600080fd5b816001600160a01b0316836001600160a01b0316141561051057600080fd5b506001600160a01b03918216600090815260026020526040902080546001600160a01b03191691909216179055600190565b600154600090819060609081906001600160a01b0316331461056357600080fd5b60006003866040516105759190611fd8565b908152604051908190036020019020546001600160a01b03169050806105ad5760405162461bcd60e51b815260040161025b9061211b565b60008190506000816001600160a01b0316635f2d82ea6040518163ffffffff1660e01b81526004016101206040518083038186803b1580156105ee57600080fd5b505afa158015610602573d6000803e3d6000fd5b505050506040513d601f19601f820116820180604052508101906106269190611d71565b90506000806000806000866001600160a01b031663be9a65556040518163ffffffff1660e01b8152600401600060405180830381600087803b15801561066b57600080fd5b505af115801561067f573d6000803e3d6000fd5b505050506040513d6000823e601f3d908101601f191682016040526106a79190810190611e0d565b945094509450945094506106de6040518060400160405280600b81526020016a1c9bdd5b9914995cdd5b1d60aa1b81525085611422565b82516107a057600080546101008801516001600160a01b038b81168452600560205260409384902054935163a9059cbb60e01b81529181166004830152602482019390935291169063a9059cbb90604401602060405180830381600087803b15801561074957600080fd5b505af115801561075d573d6000803e3d6000fd5b505050506040513d601f19601f820116820180604052508101906107819190611cb4565b506001600160a01b038816600090815260056020526040812055610974565b6001600160a01b038816600090815260056020526040812054905b84518110156109715760008582815181106107e657634e487b7160e01b600052603260045260246000fd5b60200260200101519050600084838151811061081257634e487b7160e01b600052603260045260246000fd5b60200260200101519050600061083b82610835898861146790919063ffffffff16565b9061147a565b6001600160a01b038e1660009081526005602052604090205490915081106108a55760405162461bcd60e51b815260206004820152601e60248201527f706f6f6c206e6f7420656e6f75676820666f722077696e416d6f756e74210000604482015260640161025b565b60005460405163a9059cbb60e01b81526001600160a01b038581166004830152602482018490529091169063a9059cbb90604401602060405180830381600087803b1580156108f357600080fd5b505af1158015610907573d6000803e3d6000fd5b505050506040513d601f19601f8201168201806040525081019061092b9190611cb4565b506001600160a01b038d166000908152600560205260408120805483929061095490849061228f565b92505081905550505050808061096990612311565b9150506107bb565b50505b6000876001600160a01b031663efa1c4826040518163ffffffff1660e01b815260040160006040518083038186803b1580156109af57600080fd5b505afa1580156109c3573d6000803e3d6000fd5b505050506040513d6000823e601f3d908101601f191682016040526109eb9190810190611c81565b9050876001600160a01b031663d826f88f6040518163ffffffff1660e01b8152600401602060405180830381600087803b158015610a2857600080fd5b505af1158015610a3c573d6000803e3d6000fd5b505050506040513d601f19601f82011682018060405250810190610a609190611cb4565b50949d939c50919a50929850909650505050505050565b600154600090819060609081906001600160a01b03163314610a9857600080fd5b845160208087015160408089015160608a015160808b015160a08c015160c08d015160e08e01516101008f0151965160009a610ad89a9099989101611ff4565b6040516020818303038152906040528051906020012060001c905060006003610b0083611300565b604051610b0d9190611fd8565b908152604051908190036020019020546001600160a01b0316905080610b455760405162461bcd60e51b815260040161025b9061211b565b60008190506000806000806000856001600160a01b031663be9a65556040518163ffffffff1660e01b8152600401600060405180830381600087803b158015610b8d57600080fd5b505af1158015610ba1573d6000803e3d6000fd5b505050506040513d6000823e601f3d908101601f19168201604052610bc99190810190611e0d565b94509450945094509450610c006040518060400160405280600b81526020016a1c9bdd5b9914995cdd5b1d60aa1b81525085611422565b8251610d0857600060056000896001600160a01b03166001600160a01b031681526020019081526020016000208190555060008054906101000a90046001600160a01b03166001600160a01b031663a9059cbb8e6101000151600560008b6001600160a01b03166001600160a01b03168152602001908152602001600020546040518363ffffffff1660e01b8152600401610cb09291906001600160a01b03929092168252602082015260400190565b602060405180830381600087803b158015610cca57600080fd5b505af1158015610cde573d6000803e3d6000fd5b505050506040513d601f19601f82011682018060405250810190610d029190611cb4565b50610ed4565b6001600160a01b038716600090815260056020526040812054905b8451811015610ed1576000858281518110610d4e57634e487b7160e01b600052603260045260246000fd5b602002602001015190506000848381518110610d7a57634e487b7160e01b600052603260045260246000fd5b602002602001015190506000610d9d82610835898861146790919063ffffffff16565b6001600160a01b038d166000908152600560205260409020549091508110610e075760405162461bcd60e51b815260206004820152601e60248201527f706f6f6c206e6f7420656e6f75676820666f722077696e416d6f756e74210000604482015260640161025b565b6001600160a01b038c1660009081526005602052604081208054839290610e2f90849061228f565b909155505060005460405163a9059cbb60e01b81526001600160a01b038581166004830152602482018490529091169063a9059cbb90604401602060405180830381600087803b158015610e8257600080fd5b505af1158015610e96573d6000803e3d6000fd5b505050506040513d601f19601f82011682018060405250810190610eba9190611cb4565b505050508080610ec990612311565b915050610d23565b50505b6000866001600160a01b031663efa1c4826040518163ffffffff1660e01b815260040160006040518083038186803b158015610f0f57600080fd5b505afa158015610f23573d6000803e3d6000fd5b505050506040513d6000823e601f3d908101601f19168201604052610f4b9190810190611c81565b9050866001600160a01b031663d826f88f6040518163ffffffff1660e01b8152600401602060405180830381600087803b158015610a2857600080fd5b6001546001600160a01b03163314610f9f57600080fd5b6000600383604051610fb19190611fd8565b908152604051908190036020019020546001600160a01b0316905080610fe95760405162461bcd60e51b815260040161025b906120cd565b505050565b336000908152600260205260408082205490516001600160a01b0390911690829060039061101d908690611fd8565b908152604051908190036020019020546001600160a01b03169050806110555760405162461bcd60e51b815260040161025b906120cd565b60408051608081018252338152602081018890528082018790526001600160a01b038481166060830152915163796ab25d60e01b8152839283169063796ab25d906110a4908490600401612152565b600060405180830381600087803b1580156110be57600080fd5b505af11580156110d2573d6000803e3d6000fd5b505050506000826001600160a01b0316635f2d82ea6040518163ffffffff1660e01b81526004016101206040518083038186803b15801561111257600080fd5b505afa158015611126573d6000803e3d6000fd5b505050506040513d601f19601f8201168201806040525081019061114a9190611d71565b9050611157898286611486565b50600198975050505050505050565b33600090815260026020908152604080832054845185840151868401516060880151608089015160a08a015160c08b015160e08c01516101008d015199516001600160a01b039099169a8c9a6111be9a909101611ff4565b6040516020818303038152906040528051906020012060001c9050600060036111e683611300565b6040516111f39190611fd8565b908152604051908190036020019020546001600160a01b031690508061122b5760405162461bcd60e51b815260040161025b9061211b565b60408051608081018252338152602081018990528082018890526001600160a01b038581166060830152915163796ab25d60e01b8152839283169063796ab25d9061127a908490600401612152565b600060405180830381600087803b15801561129457600080fd5b505af11580156112a8573d6000803e3d6000fd5b50505050611157898885611486565b6112fc82826040516024016112cd929190612053565b60408051601f198184030181529190526020810180516001600160e01b031663319af33360e01b17905261192d565b5050565b6060816113245750506040805180820190915260018152600360fc1b602082015290565b8160005b811561134e578061133881612311565b91506113479050600a8361225c565b9150611328565b60008167ffffffffffffffff81111561137757634e487b7160e01b600052604160045260246000fd5b6040519080825280601f01601f1916602001820160405280156113a1576020820181803683370190505b5090505b841561141a576113b660018361228f565b91506113c3600a8661232c565b6113ce906030612244565b60f81b8183815181106113f157634e487b7160e01b600052603260045260246000fd5b60200101906001600160f81b031916908160001a905350611413600a8661225c565b94506113a5565b949350505050565b6112fc82826040516024016114389291906120ab565b60408051601f198184030181529190526020810180516001600160e01b03166309710a9d60e41b17905261192d565b6000611473828461225c565b9392505050565b60006114738284612270565b600061149f83602001518561147a90919063ffffffff16565b6000546040516323b872dd60e01b8152336004820152306024820152604481018390529192506001600160a01b0316906323b872dd90606401602060405180830381600087803b1580156114f257600080fd5b505af1158015611506573d6000803e3d6000fd5b505050506040513d601f19601f8201168201806040525081019061152a9190611cb4565b5060408051808201825260198152783130b630b731b29037b31030b2323932b9b9943a3434b9949d60391b602082015260005491516370a0823160e01b815230600482018190526115e29390916001600160a01b03909116906370a08231906024015b60206040518083038186803b1580156115a557600080fd5b505afa1580156115b9573d6000803e3d6000fd5b505050506040513d601f19601f820116820180604052508101906115dd9190611df5565b61194e565b6001600160a01b0382166000908152600560205260408120805483929061160a908490612244565b909155505060c08301516000906116279061083584612710611467565b6001600160a01b038416600090815260056020526040902054909150811061169f5760405162461bcd60e51b815260206004820152602560248201527f706f6f6c206e6f7420656e6f75676820666f722062616e6b6572436f6d6d697360448201526473696f6e2160d81b606482015260840161025b565b6001600160a01b038316600090815260056020526040812080548392906116c790849061228f565b909155505060005461010085015160405163a9059cbb60e01b81526001600160a01b0391821660048201526024810184905291169063a9059cbb90604401602060405180830381600087803b15801561171f57600080fd5b505af1158015611733573d6000803e3d6000fd5b505050506040513d601f19601f820116820180604052508101906117579190611cb4565b5060408051808201825260198152783130b630b731b29037b31030b2323932b9b9943a3434b9949d60391b602082015260005491516370a0823160e01b815230600482018190526117be9390916001600160a01b03909116906370a082319060240161158d565b336000908152600260205260409020546001600160a01b031680156119255760e08501516000906117f59061083586612710611467565b6001600160a01b038616600090815260056020526040902054909150811061186f5760405162461bcd60e51b815260206004820152602760248201527f706f6f6c206e6f7420656e6f75676820666f7220726566657272616c436f6d6d604482015266697373696f6e2160c81b606482015260840161025b565b6001600160a01b0385166000908152600560205260408120805483929061189790849061228f565b909155505060005460405163a9059cbb60e01b81526001600160a01b038481166004830152602482018490529091169063a9059cbb90604401602060405180830381600087803b1580156118ea57600080fd5b505af11580156118fe573d6000803e3d6000fd5b505050506040513d601f19601f820116820180604052508101906119229190611cb4565b50505b505050505050565b80516a636f6e736f6c652e6c6f67602083016000808483855afa5050505050565b610fe98383836040516024016119669392919061207d565b60408051601f198184030181529190526020810180516001600160e01b03166307c8121760e01b17905261192d565b8280546119a1906122d6565b90600052602060002090601f0160209004810192826119c35760008555611a09565b82601f106119dc57805160ff1916838001178555611a09565b82800160010185558215611a09579182015b82811115611a095782518255916020019190600101906119ee565b50611a15929150611a19565b5090565b5b80821115611a155760008155600101611a1a565b8035611a3981612382565b919050565b8051611a3981612382565b600082601f830112611a59578081fd5b81516020611a6e611a6983612220565b6121ef565b80838252828201915082860187848660051b8901011115611a8d578586fd5b855b85811015611ab4578151611aa281612382565b84529284019290840190600101611a8f565b5090979650505050505050565b600082601f830112611ad1578081fd5b813567ffffffffffffffff811115611aeb57611aeb61236c565b611afe601f8201601f19166020016121ef565b818152846020838601011115611b12578283fd5b816020850160208301379081016020019190915292915050565b60006101208284031215611b3e578081fd5b611b466121c5565b9050611b5182611a2e565b81526020820135602082015260408201356040820152606082013560608201526080820135608082015260a082013560a082015260c082013560c082015260e082013560e0820152610100611ba7818401611a2e565b9082015292915050565b600060208284031215611bc2578081fd5b815161147381612382565b60008060408385031215611bdf578081fd5b8235611bea81612382565b91506020830135611bfa81612382565b809150509250929050565b60008060008060008060008060006101208a8c031215611c23578485fd5b8935611c2e81612382565b985060208a0135975060408a0135965060608a0135955060808a0135945060a08a0135935060c08a0135925060e08a013591506101008a0135611c7081612382565b809150509295985092959850929598565b600060208284031215611c92578081fd5b815167ffffffffffffffff811115611ca8578182fd5b61141a84828501611a49565b600060208284031215611cc5578081fd5b81518015158114611473578182fd5b600060208284031215611ce5578081fd5b813567ffffffffffffffff811115611cfb578182fd5b61141a84828501611ac1565b6000806101408385031215611d1a578182fd5b823567ffffffffffffffff811115611d30578283fd5b611d3c85828601611ac1565b925050611d4c8460208501611b2c565b90509250929050565b60006101208284031215611d67578081fd5b6114738383611b2c565b60006101208284031215611d83578081fd5b611d8b6121c5565b611d9483611a3e565b81526020830151602082015260408301516040820152606083015160608201526080830151608082015260a083015160a082015260c083015160c082015260e083015160e0820152610100611dea818501611a3e565b908201529392505050565b600060208284031215611e06578081fd5b5051919050565b600080600080600060a08688031215611e24578283fd5b855194506020808701519450604087015167ffffffffffffffff80821115611e4a578586fd5b611e568a838b01611a49565b9550606089015194506080890151915080821115611e72578384fd5b508701601f81018913611e83578283fd5b8051611e91611a6982612220565b8082825284820191508484018c868560051b8701011115611eb0578687fd5b8694505b83851015611ed2578051835260019490940193918501918501611eb4565b5080955050505050509295509295909350565b600080600060608486031215611ef9578081fd5b8335925060208401359150604084013567ffffffffffffffff811115611f1d578182fd5b611f2986828701611ac1565b9150509250925092565b60008060006101608486031215611f48578081fd5b8335925060208401359150611f608560408601611b2c565b90509250925092565b6000815180845260208085019450808401835b83811015611fa15781516001600160a01b031687529582019590820190600101611f7c565b509495945050505050565b60008151808452611fc48160208601602086016122a6565b601f01601f19169290920160200192915050565b60008251611fea8184602087016122a6565b9190910192915050565b6001600160a01b03998a168152602081019890985260408801969096526060870194909452608086019290925260a085015260c084015260e08301529091166101008201526101200190565b6020815260006114736020830184611fac565b6040815260006120666040830185611fac565b905060018060a01b03831660208301529392505050565b6060815260006120906060830186611fac565b6001600160a01b039490941660208301525060400152919050565b6040815260006120be6040830185611fac565b90508260208301529392505050565b6020808252602e908201527f6e6f207461626c6520776974682074686520686173682c20706c65617365206360408201526d6865636b2074686520686173682160901b606082015260800190565b60208082526019908201527f706c6561736520636865636b2074686520616464726573732100000000000000604082015260600190565b81516001600160a01b0390811682526020808401519083015260408084015190830152606092830151169181019190915260800190565b8481528360208201526080604082015260006121a86080830185611f69565b82810360608401526121ba8185611f69565b979650505050505050565b604051610120810167ffffffffffffffff811182821017156121e9576121e961236c565b60405290565b604051601f8201601f1916810167ffffffffffffffff811182821017156122185761221861236c565b604052919050565b600067ffffffffffffffff82111561223a5761223a61236c565b5060051b60200190565b6000821982111561225757612257612340565b500190565b60008261226b5761226b612356565b500490565b600081600019048311821515161561228a5761228a612340565b500290565b6000828210156122a1576122a1612340565b500390565b60005b838110156122c15781810151838201526020016122a9565b838111156122d0576000848401525b50505050565b600181811c908216806122ea57607f821691505b6020821081141561230b57634e487b7160e01b600052602260045260246000fd5b50919050565b600060001982141561232557612325612340565b5060010190565b60008261233b5761233b612356565b500690565b634e487b7160e01b600052601160045260246000fd5b634e487b7160e01b600052601260045260246000fd5b634e487b7160e01b600052604160045260246000fd5b6001600160a01b038116811461239757600080fd5b5056fea2646970667358221220f4c175663c2fc7757ed7348702209da449a7ddf9dade40be6b2a371b249bc4fc64736f6c63430008040033",
  "linkReferences": {},
  "deployedLinkReferences": {}
}