{
  "_format": "hh-sol-artifact-1",
  "contractName": "LotteryManager",
  "sourceName": "contracts/LotteryManager.sol",
  "abi": [
    {
      "inputs": [
        {
          "internalType": "address",
          "name": "_factory",
          "type": "address"
        },
        {
          "internalType": "address",
          "name": "_tokenAddress",
          "type": "address"
        }
      ],
      "stateMutability": "nonpayable",
      "type": "constructor"
    },
    {
      "inputs": [
        {
          "internalType": "address",
          "name": "creator",
          "type": "address"
        },
        {
          "internalType": "uint256",
          "name": "amount",
          "type": "uint256"
        },
        {
          "internalType": "uint256",
          "name": "minPPL",
          "type": "uint256"
        },
        {
          "internalType": "uint256",
          "name": "maxPPL",
          "type": "uint256"
        },
        {
          "internalType": "uint256",
          "name": "coolDownTime",
          "type": "uint256"
        },
        {
          "internalType": "uint256",
          "name": "gameTime",
          "type": "uint256"
        },
        {
          "internalType": "uint256",
          "name": "bankerCommission",
          "type": "uint256"
        },
        {
          "internalType": "uint256",
          "name": "referralCommission",
          "type": "uint256"
        },
        {
          "internalType": "address",
          "name": "bankerWallet",
          "type": "address"
        }
      ],
      "name": "createTableIfNecessary",
      "outputs": [
        {
          "internalType": "bool",
          "name": "result",
          "type": "bool"
        }
      ],
      "stateMutability": "payable",
      "type": "function"
    },
    {
      "inputs": [],
      "name": "factory",
      "outputs": [
        {
          "internalType": "address",
          "name": "",
          "type": "address"
        }
      ],
      "stateMutability": "view",
      "type": "function"
    },
    {
      "inputs": [
        {
          "internalType": "uint32",
          "name": "count",
          "type": "uint32"
        },
        {
          "internalType": "uint8",
          "name": "number",
          "type": "uint8"
        },
        {
          "components": [
            {
              "internalType": "address",
              "name": "creator",
              "type": "address"
            },
            {
              "internalType": "uint256",
              "name": "amount",
              "type": "uint256"
            },
            {
              "internalType": "uint256",
              "name": "minPPL",
              "type": "uint256"
            },
            {
              "internalType": "uint256",
              "name": "maxPPL",
              "type": "uint256"
            },
            {
              "internalType": "uint256",
              "name": "coolDownTime",
              "type": "uint256"
            },
            {
              "internalType": "uint256",
              "name": "gameTime",
              "type": "uint256"
            },
            {
              "internalType": "uint256",
              "name": "bankerCommission",
              "type": "uint256"
            },
            {
              "internalType": "uint256",
              "name": "referralCommission",
              "type": "uint256"
            },
            {
              "internalType": "address",
              "name": "bankerWallet",
              "type": "address"
            }
          ],
          "internalType": "struct ILotteryTable.TableInfo",
          "name": "tableInfo",
          "type": "tuple"
        }
      ],
      "name": "joinTableV1",
      "outputs": [
        {
          "internalType": "bool",
          "name": "result",
          "type": "bool"
        }
      ],
      "stateMutability": "payable",
      "type": "function"
    },
    {
      "inputs": [
        {
          "internalType": "address",
          "name": "a",
          "type": "address"
        },
        {
          "internalType": "address",
          "name": "b",
          "type": "address"
        }
      ],
      "name": "referral",
      "outputs": [
        {
          "internalType": "bool",
          "name": "result",
          "type": "bool"
        }
      ],
      "stateMutability": "nonpayable",
      "type": "function"
    },
    {
      "inputs": [
        {
          "components": [
            {
              "internalType": "address",
              "name": "creator",
              "type": "address"
            },
            {
              "internalType": "uint256",
              "name": "amount",
              "type": "uint256"
            },
            {
              "internalType": "uint256",
              "name": "minPPL",
              "type": "uint256"
            },
            {
              "internalType": "uint256",
              "name": "maxPPL",
              "type": "uint256"
            },
            {
              "internalType": "uint256",
              "name": "coolDownTime",
              "type": "uint256"
            },
            {
              "internalType": "uint256",
              "name": "gameTime",
              "type": "uint256"
            },
            {
              "internalType": "uint256",
              "name": "bankerCommission",
              "type": "uint256"
            },
            {
              "internalType": "uint256",
              "name": "referralCommission",
              "type": "uint256"
            },
            {
              "internalType": "address",
              "name": "bankerWallet",
              "type": "address"
            }
          ],
          "internalType": "struct ILotteryTable.TableInfo",
          "name": "tableInfo",
          "type": "tuple"
        }
      ],
      "name": "startRound",
      "outputs": [
        {
          "internalType": "bool",
          "name": "result",
          "type": "bool"
        }
      ],
      "stateMutability": "payable",
      "type": "function"
    }
  ],
  "bytecode": "0x60a060405234801561001057600080fd5b50604051610d36380380610d3683398101604081905261002f91610090565b6001600160601b031960609290921b91909116608052600080546001600160a01b03929092166001600160a01b031992831617905560018054909116331790556100c2565b80516001600160a01b038116811461008b57600080fd5b919050565b600080604083850312156100a2578182fd5b6100ab83610074565b91506100b960208401610074565b90509250929050565b60805160601c610c496100ed6000396000818160cf015281816101b901526102740152610c496000f3fe60806040526004361061004a5760003560e01c8063152826361461004f5780631c505d1d1461007757806341b5987a14610097578063b3c7e317146100aa578063c45a0155146100bd575b600080fd5b61006261005d3660046109f3565b610109565b60405190151581526020015b60405180910390f35b34801561008357600080fd5b506100626100923660046109bb565b6103bd565b6100626100a5366004610a8b565b61044e565b6100626100b8366004610a6f565b610721565b3480156100c957600080fd5b506100f17f000000000000000000000000000000000000000000000000000000000000000081565b6040516001600160a01b03909116815260200161006e565b6001546000906001600160a01b0316331461012357600080fd5b6001546001600160a01b0316331461019f5760405162461bcd60e51b815260206004820152603460248201527f4f6e6c7920636f6e7472616374206f776e657220697320616c6c6f7765642074604482015273379031b0b636103a3434b990333ab731ba34b7b760611b60648201526084015b60405180910390fd5b6040516336c8dfbf60e21b81526000906001600160a01b037f0000000000000000000000000000000000000000000000000000000000000000169063db237efc906101fe908e908e908e908e908e908e908e908e908e90600401610b2b565b60206040518083038186803b15801561021657600080fd5b505afa15801561022a573d6000803e3d6000fd5b505050506040513d601f19601f8201168201806040525081019061024e9190610998565b90506001600160a01b03811661030e576040516203ca4760ed1b81526001600160a01b037f00000000000000000000000000000000000000000000000000000000000000001690637948e000906102b9908e908e908e908e908e908e908e908e908e90600401610b2b565b602060405180830381600087803b1580156102d357600080fd5b505af11580156102e7573d6000803e3d6000fd5b505050506040513d601f19601f8201168201806040525081019061030b9190610998565b90505b610339604051806040016040528060098152602001683a30b136329034b99d60b91b81525082610858565b60008b8b8b8b8b8b8b8b8b60405160200161035c99989796959493929190610b2b565b60408051601f19818403018152918152815160209283012060008181526003845282812080546001600160a01b039097166001600160a01b0319909716871790559485526004909252909220919091555060019a9950505050505050505050565b6001546000906001600160a01b031633146103d757600080fd5b6001600160a01b0383166103ea57600080fd5b6001600160a01b0382166103fd57600080fd5b816001600160a01b0316836001600160a01b0316141561041c57600080fd5b506001600160a01b03918216600090815260026020526040902080546001600160a01b03191691909216179055600190565b6000610488604051806040016040528060168152602001753537b4b72a30b13632ab189036b9b39739b2b73232b960511b81525033610858565b6104bb6040518060400160405280600d81526020016c3a30b13632a4b733379034b99d60991b8152508360000151610858565b3360009081526002602090815260408083205485518684015187840151606089015160808a015160a08b015160c08c015160e08d01516101008e015199516001600160a01b039099169b9a6105219a989997989697959694959394929391929101610b2b565b60408051601f198184030181529181528151602092830120600081815260039093529120549091506001600160a01b03168061059b5760405162461bcd60e51b8152602060048201526019602482015278706c6561736520636865636b2074686520616464726573732160381b6044820152606401610196565b6105cc6040518060400160405280600f81526020016e7461626c654164647265737320697360881b81525082610858565b6106306040518060400160405280601781526020017f7461626c65486173685b7461626c65416464726573735d00000000000000000081525060046000846001600160a01b03166001600160a01b03168152602001908152602001600020546108a1565b6001600160a01b03811660009081526004602052604090205461065257600080fd5b6106806040518060400160405280600c81526020016b7461626c654164647265737360a01b81525082610858565b6040805160608101825263ffffffff8916815260ff8816602082019081526001600160a01b03868116838501908152935163fbe9161360e01b81528351600482015291516024830152925183166044820152839283169063fbe9161390606401600060405180830381600087803b1580156106fa57600080fd5b505af115801561070e573d6000803e3d6000fd5b5060019c9b505050505050505050505050565b6001546000906001600160a01b0316331461073b57600080fd5b81516020808401516040808601516060870151608088015160a089015160c08a015160e08b01516101008c0151965160009a61077b9a9099989101610b2b565b60408051601f198184030181529181528151602092830120600081815260039093529120549091506001600160a01b0316806107f55760405162461bcd60e51b8152602060048201526019602482015278706c6561736520636865636b2074686520616464726573732160381b6044820152606401610196565b6000819050806001600160a01b031663be9a65556040518163ffffffff1660e01b8152600401600060405180830381600087803b15801561083557600080fd5b505af1158015610849573d6000803e3d6000fd5b50600198975050505050505050565b61089d828260405160240161086e929190610b77565b60408051601f198184030181529190526020810180516001600160e01b031663319af33360e01b1790526108e2565b5050565b61089d82826040516024016108b7929190610ba1565b60408051601f198184030181529190526020810180516001600160e01b03166309710a9d60e41b1790525b80516a636f6e736f6c652e6c6f67602083016000808483855afa5050505050565b803561090e81610bfb565b919050565b60006101208284031215610925578081fd5b61092d610bc3565b905061093882610903565b81526020820135602082015260408201356040820152606082013560608201526080820135608082015260a082013560a082015260c082013560c082015260e082013560e082015261010061098e818401610903565b9082015292915050565b6000602082840312156109a9578081fd5b81516109b481610bfb565b9392505050565b600080604083850312156109cd578081fd5b82356109d881610bfb565b915060208301356109e881610bfb565b809150509250929050565b60008060008060008060008060006101208a8c031215610a11578485fd5b8935610a1c81610bfb565b985060208a0135975060408a0135965060608a0135955060808a0135945060a08a0135935060c08a0135925060e08a013591506101008a0135610a5e81610bfb565b809150509295985092959850929598565b60006101208284031215610a81578081fd5b6109b48383610913565b60008060006101608486031215610aa0578283fd5b833563ffffffff81168114610ab3578384fd5b9250602084013560ff81168114610ac8578283fd5b9150610ad78560408601610913565b90509250925092565b60008151808452815b81811015610b0557602081850181015186830182015201610ae9565b81811115610b165782602083870101525b50601f01601f19169290920160200192915050565b6001600160a01b03998a168152602081019890985260408801969096526060870194909452608086019290925260a085015260c084015260e08301529091166101008201526101200190565b604081526000610b8a6040830185610ae0565b905060018060a01b03831660208301529392505050565b604081526000610bb46040830185610ae0565b90508260208301529392505050565b604051610120810167ffffffffffffffff81118282101715610bf557634e487b7160e01b600052604160045260246000fd5b60405290565b6001600160a01b0381168114610c1057600080fd5b5056fea26469706673582212203b109f977a55d77c924aa32258e344212bee19383c9891541e7bdaa4dae0181b64736f6c63430008040033",
  "linkReferences": {},
  "deployedLinkReferences": {}
}