{
  "_format": "hh-sol-artifact-1",
  "contractName": "LotteryManager",
  "sourceName": "contracts/LotteryManager.sol",
  "abi": [
    {
      "inputs": [
        {
          "internalType": "address",
          "name": "_factory",
          "type": "address"
        },
        {
          "internalType": "address",
          "name": "_tokenAddress",
          "type": "address"
        }
      ],
      "stateMutability": "nonpayable",
      "type": "constructor"
    },
    {
      "anonymous": false,
      "inputs": [
        {
          "indexed": false,
          "internalType": "address",
          "name": "player",
          "type": "address"
        },
        {
          "indexed": false,
          "internalType": "address",
          "name": "banker",
          "type": "address"
        },
        {
          "indexed": false,
          "internalType": "uint256",
          "name": "amount",
          "type": "uint256"
        }
      ],
      "name": "BankerCommission",
      "type": "event"
    },
    {
      "anonymous": false,
      "inputs": [
        {
          "indexed": false,
          "internalType": "string",
          "name": "hash",
          "type": "string"
        }
      ],
      "name": "CreateTableIfNecessary",
      "type": "event"
    },
    {
      "anonymous": false,
      "inputs": [
        {
          "indexed": false,
          "internalType": "string",
          "name": "beforeHash",
          "type": "string"
        },
        {
          "indexed": false,
          "internalType": "string",
          "name": "newHash",
          "type": "string"
        }
      ],
      "name": "EditTable",
      "type": "event"
    },
    {
      "anonymous": false,
      "inputs": [
        {
          "indexed": false,
          "internalType": "string",
          "name": "hash",
          "type": "string"
        },
        {
          "indexed": false,
          "internalType": "uint256",
          "name": "round",
          "type": "uint256"
        },
        {
          "indexed": false,
          "internalType": "address[]",
          "name": "players",
          "type": "address[]"
        },
        {
          "indexed": false,
          "internalType": "uint256[]",
          "name": "numbers",
          "type": "uint256[]"
        },
        {
          "indexed": false,
          "internalType": "uint256[]",
          "name": "counts",
          "type": "uint256[]"
        }
      ],
      "name": "HoldingTicket",
      "type": "event"
    },
    {
      "anonymous": false,
      "inputs": [
        {
          "indexed": false,
          "internalType": "address",
          "name": "player",
          "type": "address"
        },
        {
          "indexed": false,
          "internalType": "uint256",
          "name": "count",
          "type": "uint256"
        },
        {
          "indexed": false,
          "internalType": "uint256",
          "name": "number",
          "type": "uint256"
        },
        {
          "indexed": false,
          "internalType": "string",
          "name": "hash",
          "type": "string"
        }
      ],
      "name": "JoinTable",
      "type": "event"
    },
    {
      "anonymous": false,
      "inputs": [
        {
          "indexed": false,
          "internalType": "address",
          "name": "player",
          "type": "address"
        },
        {
          "indexed": false,
          "internalType": "address",
          "name": "refer",
          "type": "address"
        },
        {
          "indexed": false,
          "internalType": "uint256",
          "name": "amount",
          "type": "uint256"
        }
      ],
      "name": "ReferCommission",
      "type": "event"
    },
    {
      "anonymous": false,
      "inputs": [
        {
          "indexed": false,
          "internalType": "string",
          "name": "hash",
          "type": "string"
        },
        {
          "indexed": false,
          "internalType": "uint256",
          "name": "round",
          "type": "uint256"
        },
        {
          "indexed": false,
          "internalType": "uint256",
          "name": "roundNumber",
          "type": "uint256"
        },
        {
          "indexed": false,
          "internalType": "address[]",
          "name": "roundWinnerArray",
          "type": "address[]"
        },
        {
          "indexed": false,
          "internalType": "address[]",
          "name": "allPlayers",
          "type": "address[]"
        }
      ],
      "name": "StartRound",
      "type": "event"
    },
    {
      "inputs": [
        {
          "internalType": "address",
          "name": "creator",
          "type": "address"
        },
        {
          "internalType": "uint256",
          "name": "amount",
          "type": "uint256"
        },
        {
          "internalType": "uint256",
          "name": "minPPL",
          "type": "uint256"
        },
        {
          "internalType": "uint256",
          "name": "maxPPL",
          "type": "uint256"
        },
        {
          "internalType": "uint256",
          "name": "coolDownTime",
          "type": "uint256"
        },
        {
          "internalType": "uint256",
          "name": "gameTime",
          "type": "uint256"
        },
        {
          "internalType": "uint256",
          "name": "bankerCommission",
          "type": "uint256"
        },
        {
          "internalType": "uint256",
          "name": "referralCommission",
          "type": "uint256"
        },
        {
          "internalType": "address",
          "name": "bankerWallet",
          "type": "address"
        }
      ],
      "name": "createTableIfNecessary",
      "outputs": [
        {
          "internalType": "string",
          "name": "hashString",
          "type": "string"
        }
      ],
      "stateMutability": "payable",
      "type": "function"
    },
    {
      "inputs": [
        {
          "internalType": "string",
          "name": "hashString",
          "type": "string"
        },
        {
          "components": [
            {
              "internalType": "address",
              "name": "creator",
              "type": "address"
            },
            {
              "internalType": "uint256",
              "name": "amount",
              "type": "uint256"
            },
            {
              "internalType": "uint256",
              "name": "minPPL",
              "type": "uint256"
            },
            {
              "internalType": "uint256",
              "name": "maxPPL",
              "type": "uint256"
            },
            {
              "internalType": "uint256",
              "name": "coolDownTime",
              "type": "uint256"
            },
            {
              "internalType": "uint256",
              "name": "gameTime",
              "type": "uint256"
            },
            {
              "internalType": "uint256",
              "name": "bankerCommission",
              "type": "uint256"
            },
            {
              "internalType": "uint256",
              "name": "referralCommission",
              "type": "uint256"
            },
            {
              "internalType": "address",
              "name": "bankerWallet",
              "type": "address"
            }
          ],
          "internalType": "struct ILotteryTable.TableInfo",
          "name": "tableInfo",
          "type": "tuple"
        }
      ],
      "name": "editTable",
      "outputs": [],
      "stateMutability": "nonpayable",
      "type": "function"
    },
    {
      "inputs": [],
      "name": "factory",
      "outputs": [
        {
          "internalType": "address",
          "name": "",
          "type": "address"
        }
      ],
      "stateMutability": "view",
      "type": "function"
    },
    {
      "inputs": [
        {
          "internalType": "string",
          "name": "hash",
          "type": "string"
        }
      ],
      "name": "holdingTicket",
      "outputs": [],
      "stateMutability": "nonpayable",
      "type": "function"
    },
    {
      "inputs": [
        {
          "internalType": "uint256",
          "name": "count",
          "type": "uint256"
        },
        {
          "internalType": "uint256",
          "name": "number",
          "type": "uint256"
        },
        {
          "internalType": "string",
          "name": "hash",
          "type": "string"
        }
      ],
      "name": "joinTableV2",
      "outputs": [
        {
          "internalType": "bool",
          "name": "result",
          "type": "bool"
        }
      ],
      "stateMutability": "payable",
      "type": "function"
    },
    {
      "inputs": [],
      "name": "owner",
      "outputs": [
        {
          "internalType": "address",
          "name": "",
          "type": "address"
        }
      ],
      "stateMutability": "view",
      "type": "function"
    },
    {
      "inputs": [
        {
          "internalType": "address",
          "name": "a",
          "type": "address"
        },
        {
          "internalType": "address",
          "name": "b",
          "type": "address"
        }
      ],
      "name": "referral",
      "outputs": [
        {
          "internalType": "bool",
          "name": "result",
          "type": "bool"
        }
      ],
      "stateMutability": "nonpayable",
      "type": "function"
    },
    {
      "inputs": [
        {
          "internalType": "string",
          "name": "hash",
          "type": "string"
        }
      ],
      "name": "startRoundV2",
      "outputs": [
        {
          "internalType": "bool",
          "name": "",
          "type": "bool"
        }
      ],
      "stateMutability": "payable",
      "type": "function"
    }
  ],
  "bytecode": "0x60a06040523480156200001157600080fd5b5060405162002a1a38038062002a1a833981016040819052620000349162000097565b6001600160601b031960609290921b91909116608052600080546001600160a01b03929092166001600160a01b03199283161790556001805490911633179055620000ce565b80516001600160a01b03811681146200009257600080fd5b919050565b60008060408385031215620000aa578182fd5b620000b5836200007a565b9150620000c5602084016200007a565b90509250929050565b60805160601c61291f620000fb6000396000818161016b0152818161025d0152610362015261291f6000f3fe60806040526004361061007b5760003560e01c80635433f1031161004e5780635433f1031461010e5780638da5cb5b14610121578063c45a015514610159578063efc50bcc1461018d57600080fd5b806315282636146100805780631c505d1d146100a9578063225276c8146100d957806353b00f42146100ec575b600080fd5b61009361008e366004611f2f565b6101ad565b6040516100a09190612495565b60405180910390f35b3480156100b557600080fd5b506100c96100c4366004611ef7565b610527565b60405190151581526020016100a0565b6100c96100e7366004611ffd565b6105b8565b3480156100f857600080fd5b5061010c61010736600461202f565b610b2b565b005b6100c961011c36600461230b565b610c68565b34801561012d57600080fd5b50600154610141906001600160a01b031681565b6040516001600160a01b0390911681526020016100a0565b34801561016557600080fd5b506101417f000000000000000000000000000000000000000000000000000000000000000081565b34801561019957600080fd5b5061010c6101a8366004611ffd565b610e64565b6001546060906001600160a01b031633146101c757600080fd5b6001546001600160a01b031633146102435760405162461bcd60e51b815260206004820152603460248201527f4f6e6c7920636f6e7472616374206f776e657220697320616c6c6f7765642074604482015273379031b0b636103a3434b990333ab731ba34b7b760611b60648201526084015b60405180910390fd5b6040516336c8dfbf60e21b81526000906001600160a01b037f0000000000000000000000000000000000000000000000000000000000000000169063db237efc906102a2908e908e908e908e908e908e908e908e908e90600401612449565b60206040518083038186803b1580156102ba57600080fd5b505afa1580156102ce573d6000803e3d6000fd5b505050506040513d601f19601f820116820180604052508101906102f29190611edb565b90506001600160a01b0381166103e257604051633ebc31eb60e11b81523060048201526001600160a01b038c81166024830152604482018c9052606482018b9052608482018a905260a4820189905260c4820188905260e4820187905261010482018690528481166101248301527f00000000000000000000000000000000000000000000000000000000000000001690637d7863d69061014401602060405180830381600087803b1580156103a757600080fd5b505af11580156103bb573d6000803e3d6000fd5b505050506040513d601f19601f820116820180604052508101906103df9190611edb565b90505b60008b8b8b8b8b8b8b8b8b60405160200161040599989796959493929190612449565b6040516020818303038152906040528051906020012060001c90506104298161101f565b92508160038460405161043c91906123f6565b908152604080516020928190038301902080546001600160a01b0319166001600160a01b0394851617905591841660009081526004825291909120845161048592860190611ced565b506104b1604051806040016040528060098152602001683a30b136329034b99d60b91b81525083611140565b6104e16040518060400160405280600e81526020016d3430b9b429ba3934b7339034b99d60911b81525084611189565b7ffeadb03e5864c7ba3800506584c86f9177a7d4a3547a3db6021574c3a678b3d1836040516105109190612495565b60405180910390a150509998505050505050505050565b6001546000906001600160a01b0316331461054157600080fd5b6001600160a01b03831661055457600080fd5b6001600160a01b03821661056757600080fd5b816001600160a01b0316836001600160a01b0316141561058657600080fd5b506001600160a01b03918216600090815260026020526040902080546001600160a01b03191691909216179055600190565b6001546000906001600160a01b031633146105d257600080fd5b60006003836040516105e491906123f6565b908152604051908190036020019020546001600160a01b03169050806106485760405162461bcd60e51b8152602060048201526019602482015278706c6561736520636865636b2074686520616464726573732160381b604482015260640161023a565b60008190506000816001600160a01b0316635f2d82ea6040518163ffffffff1660e01b81526004016101206040518083038186803b15801561068957600080fd5b505afa15801561069d573d6000803e3d6000fd5b505050506040513d601f19601f820116820180604052508101906106c1919061226f565b90506106cd81846111ce565b6000826001600160a01b031663be9a65556040518163ffffffff1660e01b8152600401600060405180830381600087803b15801561070a57600080fd5b505af115801561071e573d6000803e3d6000fd5b505050506040513d6000823e601f3d908101601f1916820160405261074691908101906121a3565b9050610785604051806040016040528060128152602001713937bab73216103937bab732273ab6b132b960711b81525082600001518360200151611375565b6001600160a01b03841660009081526005602052604090205460808201515161084d576001600160a01b038581166000908152600560205260408082208290559054610100860151915163a9059cbb60e01b81529183166004830152602482018490529091169063a9059cbb90604401602060405180830381600087803b15801561080f57600080fd5b505af1158015610823573d6000803e3d6000fd5b505050506040513d601f19601f820116820180604052508101906108479190611fdd565b50610ac3565b60005b826080015151811015610ac15760008360800151828151811061088357634e487b7160e01b600052603260045260246000fd5b6020026020010151905060008460a0015183815181106108b357634e487b7160e01b600052603260045260246000fd5b6020026020010151905060006108e0826108da8860600151886113c190919063ffffffff16565b906113d4565b6001600160a01b038a166000908152600560205260409020549091508111156109575760405162461bcd60e51b8152602060048201526024808201527f7461626c6520706f6f6c206e6f7420656e6f75676820666f722077696e416d6f604482015263756e742160e01b606482015260840161023a565b6001600160a01b0389166000908152600560205260408120805483929061097f9084906127e4565b9091555050633b9aca006001600160a01b0384161015610a235760005460405163a9059cbb60e01b8152336004820152602481018390526001600160a01b039091169063a9059cbb90604401602060405180830381600087803b1580156109e557600080fd5b505af11580156109f9573d6000803e3d6000fd5b505050506040513d601f19601f82011682018060405250810190610a1d9190611fdd565b50610aab565b60005460405163a9059cbb60e01b81526001600160a01b038581166004830152602482018490529091169063a9059cbb90604401602060405180830381600087803b158015610a7157600080fd5b505af1158015610a85573d6000803e3d6000fd5b505050506040513d601f19601f82011682018060405250810190610aa99190611fdd565b505b5050508080610ab990612860565b915050610850565b505b610acc856113e0565b507f098bdb345a1d578ac9b9dc82f5e8fb1f6712f38b127c6020e3b780f130839936878360000151846020015185608001518660400151604051610b149594939291906125df565b60405180910390a16001955050505050505b919050565b6001546001600160a01b03163314610b4257600080fd5b6000600383604051610b5491906123f6565b908152604051908190036020019020546001600160a01b0316905080610bd35760405162461bcd60e51b815260206004820152602e60248201527f4e6f207461626c6520776974682074686520686173682c20706c65617365206360448201526d6865636b2074686520686173682160901b606482015260840161023a565b6001600160a01b03908116600090815260066020818152604092839020855181546001600160a01b0319908116918716919091178255918601516001820155928501516002840155606085015160038401556080850151600484015560a0850151600584015560c08501519183019190915560e084015160078301556101009093015160089091018054909316911617905550565b336000908152600260205260408082205490516001600160a01b03909116908290600390610c979086906123f6565b908152604051908190036020019020546001600160a01b0316905080610d165760405162461bcd60e51b815260206004820152602e60248201527f6e6f207461626c6520776974682074686520686173682c20706c65617365206360448201526d6865636b2074686520686173682160901b606482015260840161023a565b60408051608081018252338152602081018890528082018790526001600160a01b038481166060830152915163796ab25d60e01b8152839283169063796ab25d90610d65908490600401612624565b600060405180830381600087803b158015610d7f57600080fd5b505af1158015610d93573d6000803e3d6000fd5b505050506000826001600160a01b0316635f2d82ea6040518163ffffffff1660e01b81526004016101206040518083038186803b158015610dd357600080fd5b505afa158015610de7573d6000803e3d6000fd5b505050506040513d601f19601f82011682018060405250810190610e0b919061226f565b9050610e188982866117dc565b7f08b584e6aceb13e620c46e9d7288284e3b3a1c9dce5ca8e843559f5c4c8456a7338a8a8a604051610e4d9493929190612412565b60405180910390a150600198975050505050505050565b6000600382604051610e7691906123f6565b908152604051908190036020019020546001600160a01b0316905080610eda5760405162461bcd60e51b8152602060048201526019602482015278706c6561736520636865636b2074686520616464726573732160381b604482015260640161023a565b60008190506000816001600160a01b03166384bc76a66040518163ffffffff1660e01b815260040160006040518083038186803b158015610f1a57600080fd5b505afa158015610f2e573d6000803e3d6000fd5b505050506040513d6000823e601f3d908101601f19168201604052610f5691908101906120f5565b90506000826001600160a01b03166347e405536040518163ffffffff1660e01b815260040160206040518083038186803b158015610f9357600080fd5b505afa158015610fa7573d6000803e3d6000fd5b505050506040513d601f19601f82011682018060405250810190610fcb91906122f3565b90507f02d10e21069c4e39409797f6c79582d7ecc3c352595d0b76984afdf900ffa3b6858284600001518560200151866040015160405161101095949392919061255b565b60405180910390a15050505050565b6060816110435750506040805180820190915260018152600360fc1b602082015290565b8160005b811561106d578061105781612860565b91506110669050600a836127b1565b9150611047565b6000816001600160401b0381111561109557634e487b7160e01b600052604160045260246000fd5b6040519080825280601f01601f1916602001820160405280156110bf576020820181803683370190505b5090505b8415611138576110d46001836127e4565b91506110e1600a8661287b565b6110ec906030612799565b60f81b81838151811061110f57634e487b7160e01b600052603260045260246000fd5b60200101906001600160f81b031916908160001a905350611131600a866127b1565b94506110c3565b949350505050565b61118582826040516024016111569291906124a8565b60408051601f198184030181529190526020810180516001600160e01b031663319af33360e01b179052611c28565b5050565b611185828260405160240161119f9291906124d2565b60408051601f198184030181529190526020810180516001600160e01b0316634b5c427760e01b179052611c28565b60008190506000816001600160a01b031663efa1c4826040518163ffffffff1660e01b815260040160006040518083038186803b15801561120e57600080fd5b505afa158015611222573d6000803e3d6000fd5b505050506040513d6000823e601f3d908101601f1916820160405261124a9190810190611fab565b805160408601519192509081101561136e57604085015160009061126e9083611c49565b905060005b8181101561136b5760006112c2600a6112bc8460408051426020808301919091524482840152606080830194909452825180830390940184526080909101909152815191012090565b90611c55565b604080516080810182526001600160a01b0380861682526001602083015281830184905260006060830152915163796ab25d60e01b81529293508492909189169063796ab25d90611317908490600401612624565b600060405180830381600087803b15801561133157600080fd5b505af1158015611345573d6000803e3d6000fd5b5050505061135560018b8b6117dc565b505050808061136390612860565b915050611273565b50505b5050505050565b6113bc83838360405160240161138d939291906125ba565b60408051601f198184030181529190526020810180516001600160e01b031663969cdd0360e01b179052611c28565b505050565b60006113cd82846127b1565b9392505050565b60006113cd82846127c5565b6001600160a01b038082166000908152600660208181526040808420815161012081018352815487168082526001830154948201949094526002820154928101929092526003810154606083015260048101546080830152600581015460a08301529283015460c0820152600783015460e08201526008909201549093166101008201529091156117cd576001600160a01b0383166000908152600460205260408120805461148e9061282b565b80601f01602080910402602001604051908101604052809291908181526020018280546114ba9061282b565b80156115075780601f106114dc57610100808354040283529160200191611507565b820191906000526020600020905b8154815290600101906020018083116114ea57829003601f168201915b505060405163fa2d259d60e01b815293945087936001600160a01b038516935063fa2d259d925061153d9150869060040161265b565b600060405180830381600087803b15801561155757600080fd5b505af115801561156b573d6000803e3d6000fd5b50505050611609604051806040016040528060038152602001626e6f7760e81b815250826001600160a01b0316635f2d82ea6040518163ffffffff1660e01b81526004016101206040518083038186803b1580156115c857600080fd5b505afa1580156115dc573d6000803e3d6000fd5b505050506040513d601f19601f82011682018060405250810190611600919061226f565b60400151611c61565b82516020808501516040808701516060880151608089015160a08a015160c08b015160e08c01516101008d0151965160009a6116499a9099989101612449565b6040516020818303038152906040528051906020012060001c90508560036116708361101f565b60405161167d91906123f6565b90815260405190819003602001902080546001600160a01b03929092166001600160a01b03199092169190911790556116b58161101f565b6001600160a01b038716600090815260046020908152604090912082516116e29391929190910190611ced565b506001600160a01b038616600090815260066020818152604080842080546001600160a01b0319908116825560018201869055600282018690556003820186905560048201869055600582018690559381018590556007810194909455600890930180549092169091558151808301909252600d82526c3132b337b932961030b33a32b960991b90820152611780908461177b8461101f565b611ca6565b7fe3e57a24b8f74d2723608b23c0f9b294b5919b85093bade5338255ac2f903556836117ab8361101f565b6040516117b99291906124d2565b60405180910390a150600195945050505050565b50600092915050565b50919050565b60006117f58360200151856113d490919063ffffffff16565b6000546040516323b872dd60e01b8152336004820152306024820152604481018390529192506001600160a01b0316906323b872dd90606401602060405180830381600087803b15801561184857600080fd5b505af115801561185c573d6000803e3d6000fd5b505050506040513d601f19601f820116820180604052508101906118809190611fdd565b506001600160a01b038216600090815260056020526040812080548392906118a9908490612799565b909155505060c083015115611a595760c08301516000906118d0906108da846127106113c1565b6001600160a01b03841660009081526005602052604090205490915081111561194f5760405162461bcd60e51b815260206004820152602b60248201527f5461626c6520706f6f6c206e6f7420656e6f75676820666f722062616e6b657260448201526a436f6d6d697373696f6e2160a81b606482015260840161023a565b6001600160a01b038316600090815260056020526040812080548392906119779084906127e4565b909155505060005461010085015160405163a9059cbb60e01b81526001600160a01b0391821660048201526024810184905291169063a9059cbb90604401602060405180830381600087803b1580156119cf57600080fd5b505af11580156119e3573d6000803e3d6000fd5b505050506040513d601f19601f82011682018060405250810190611a079190611fdd565b50610100840151604080513381526001600160a01b03909216602083015281018290527fda5163f4fef80ed29382eca50bb83c0bd880a912e0ad6adf0d4389fa62481a639060600160405180910390a1505b336000908152600260205260409020546001600160a01b03168015801590611a85575060008460e00151115b1561136e5760e0840151600090611aa2906108da856127106113c1565b6001600160a01b038516600090815260056020526040902054909150811115611b235760405162461bcd60e51b815260206004820152602d60248201527f5461626c6520706f6f6c206e6f7420656e6f75676820666f722072656665727260448201526c616c436f6d6d697373696f6e2160981b606482015260840161023a565b6001600160a01b03841660009081526005602052604081208054839290611b4b9084906127e4565b909155505060005460405163a9059cbb60e01b81526001600160a01b038481166004830152602482018490529091169063a9059cbb90604401602060405180830381600087803b158015611b9e57600080fd5b505af1158015611bb2573d6000803e3d6000fd5b505050506040513d601f19601f82011682018060405250810190611bd69190611fdd565b50604080513381526001600160a01b03841660208201529081018290527fa97b13b2cce63d44be7b27fdf4d8e0c49f255b8b0a19f07ce2881ba924118f829060600160405180910390a1505050505050565b80516a636f6e736f6c652e6c6f67602083016000808483855afa5050505050565b60006113cd82846127e4565b60006113cd828461287b565b6111858282604051602401611c77929190612539565b60408051601f198184030181529190526020810180516001600160e01b03166309710a9d60e41b179052611c28565b6113bc838383604051602401611cbe93929190612500565b60408051601f198184030181529190526020810180516001600160e01b0316632ced7cef60e01b179052611c28565b828054611cf99061282b565b90600052602060002090601f016020900481019282611d1b5760008555611d61565b82601f10611d3457805160ff1916838001178555611d61565b82800160010185558215611d61579182015b82811115611d61578251825591602001919060010190611d46565b50611d6d929150611d71565b5090565b5b80821115611d6d5760008155600101611d72565b8035610b26816128d1565b8051610b26816128d1565b600082601f830112611dac578081fd5b81516020611dc1611dbc83612776565b612746565b80838252828201915082860187848660051b8901011115611de0578586fd5b855b85811015611e07578151611df5816128d1565b84529284019290840190600101611de2565b5090979650505050505050565b600082601f830112611e24578081fd5b81516020611e34611dbc83612776565b80838252828201915082860187848660051b8901011115611e53578586fd5b855b85811015611e0757815184529284019290840190600101611e55565b600082601f830112611e81578081fd5b81356001600160401b03811115611e9a57611e9a6128bb565b611ead601f8201601f1916602001612746565b818152846020838601011115611ec1578283fd5b816020850160208301379081016020019190915292915050565b600060208284031215611eec578081fd5b81516113cd816128d1565b60008060408385031215611f09578081fd5b8235611f14816128d1565b91506020830135611f24816128d1565b809150509250929050565b60008060008060008060008060006101208a8c031215611f4d578485fd5b8935611f58816128d1565b985060208a0135975060408a0135965060608a0135955060808a0135945060a08a0135935060c08a0135925060e08a013591506101008a0135611f9a816128d1565b809150509295985092959850929598565b600060208284031215611fbc578081fd5b81516001600160401b03811115611fd1578182fd5b61113884828501611d9c565b600060208284031215611fee578081fd5b815180151581146113cd578182fd5b60006020828403121561200e578081fd5b81356001600160401b03811115612023578182fd5b61113884828501611e71565b600080828403610140811215612043578283fd5b83356001600160401b03811115612058578384fd5b61206486828701611e71565b93505061012080601f198301121561207a578283fd5b6120826126d9565b915061209060208601611d86565b825260408501356020830152606085013560408301526080850135606083015260a0850135608083015260c085013560a083015260e085013560c08301526101008086013560e08401526120e5828701611d86565b9083015250919491935090915050565b600060208284031215612106578081fd5b81516001600160401b038082111561211c578283fd5b908301906060828603121561212f578283fd5b612137612702565b825182811115612145578485fd5b61215187828601611d9c565b825250602083015182811115612165578485fd5b61217187828601611e14565b602083015250604083015182811115612188578485fd5b61219487828601611e14565b60408301525095945050505050565b6000602082840312156121b4578081fd5b81516001600160401b03808211156121ca578283fd5b9083019060c082860312156121dd578283fd5b6121e5612724565b8251815260208301516020820152604083015182811115612204578485fd5b61221087828601611d9c565b60408301525060608301516060820152608083015182811115612231578485fd5b61223d87828601611d9c565b60808301525060a083015182811115612254578485fd5b61226087828601611e14565b60a08301525095945050505050565b60006101208284031215612281578081fd5b6122896126d9565b61229283611d91565b81526020830151602082015260408301516040820152606083015160608201526080830151608082015260a083015160a082015260c083015160c082015260e083015160e08201526101006122e8818501611d91565b908201529392505050565b600060208284031215612304578081fd5b5051919050565b60008060006060848603121561231f578081fd5b833592506020840135915060408401356001600160401b03811115612342578182fd5b61234e86828701611e71565b9150509250925092565b6000815180845260208085019450808401835b838110156123905781516001600160a01b03168752958201959082019060010161236b565b509495945050505050565b6000815180845260208085019450808401835b83811015612390578151875295820195908201906001016123ae565b600081518084526123e28160208601602086016127fb565b601f01601f19169290920160200192915050565b600082516124088184602087016127fb565b9190910192915050565b60018060a01b038516815283602082015282604082015260806060820152600061243f60808301846123ca565b9695505050505050565b6001600160a01b03998a168152602081019890985260408801969096526060870194909452608086019290925260a085015260c084015260e08301529091166101008201526101200190565b6020815260006113cd60208301846123ca565b6040815260006124bb60408301856123ca565b905060018060a01b03831660208301529392505050565b6040815260006124e560408301856123ca565b82810360208401526124f781856123ca565b95945050505050565b60608152600061251360608301866123ca565b828103602084015261252581866123ca565b9050828103604084015261243f81856123ca565b60408152600061254c60408301856123ca565b90508260208301529392505050565b60a08152600061256e60a08301886123ca565b86602084015282810360408401526125868187612358565b9050828103606084015261259a818661239b565b905082810360808401526125ae818561239b565b98975050505050505050565b6060815260006125cd60608301866123ca565b60208301949094525060400152919050565b60a0815260006125f260a08301886123ca565b86602084015285604084015282810360608401526126108186612358565b905082810360808401526125ae8185612358565b81516001600160a01b0390811682526020808401519083015260408084015190830152606092830151169181019190915260800190565b60006101208201905060018060a01b0383511682526020830151602083015260408301516040830152606083015160608301526080830151608083015260a083015160a083015260c083015160c083015260e083015160e0830152610100808401516126d1828501826001600160a01b03169052565b505092915050565b60405161012081016001600160401b03811182821017156126fc576126fc6128bb565b60405290565b604051606081016001600160401b03811182821017156126fc576126fc6128bb565b60405160c081016001600160401b03811182821017156126fc576126fc6128bb565b604051601f8201601f191681016001600160401b038111828210171561276e5761276e6128bb565b604052919050565b60006001600160401b0382111561278f5761278f6128bb565b5060051b60200190565b600082198211156127ac576127ac61288f565b500190565b6000826127c0576127c06128a5565b500490565b60008160001904831182151516156127df576127df61288f565b500290565b6000828210156127f6576127f661288f565b500390565b60005b838110156128165781810151838201526020016127fe565b83811115612825576000848401525b50505050565b600181811c9082168061283f57607f821691505b602082108114156117d657634e487b7160e01b600052602260045260246000fd5b60006000198214156128745761287461288f565b5060010190565b60008261288a5761288a6128a5565b500690565b634e487b7160e01b600052601160045260246000fd5b634e487b7160e01b600052601260045260246000fd5b634e487b7160e01b600052604160045260246000fd5b6001600160a01b03811681146128e657600080fd5b5056fea264697066735822122037dda07f2bb764a3b0fd690b46b344522fff729530f8b18f4e9d4c7fa384240264736f6c63430008040033",
  "linkReferences": {},
  "deployedLinkReferences": {}
}