{
  "_format": "hh-sol-artifact-1",
  "contractName": "LotteryFactory",
  "sourceName": "contracts/LotteryFactory.sol",
  "abi": [
    {
      "inputs": [],
      "stateMutability": "nonpayable",
      "type": "constructor"
    },
    {
      "anonymous": false,
      "inputs": [
        {
          "indexed": true,
          "internalType": "address",
          "name": "oldOwner",
          "type": "address"
        },
        {
          "indexed": true,
          "internalType": "address",
          "name": "newOwner",
          "type": "address"
        }
      ],
      "name": "OwnerChanged",
      "type": "event"
    },
    {
      "anonymous": false,
      "inputs": [
        {
          "indexed": false,
          "internalType": "address",
          "name": "creator",
          "type": "address"
        },
        {
          "indexed": false,
          "internalType": "uint256",
          "name": "amount",
          "type": "uint256"
        },
        {
          "indexed": false,
          "internalType": "uint256",
          "name": "minPPL",
          "type": "uint256"
        },
        {
          "indexed": false,
          "internalType": "uint256",
          "name": "maxPPL",
          "type": "uint256"
        },
        {
          "indexed": false,
          "internalType": "uint256",
          "name": "coolDownTime",
          "type": "uint256"
        },
        {
          "indexed": false,
          "internalType": "uint256",
          "name": "gameTime",
          "type": "uint256"
        },
        {
          "indexed": false,
          "internalType": "uint256",
          "name": "bankerCommission",
          "type": "uint256"
        },
        {
          "indexed": false,
          "internalType": "uint256",
          "name": "referralCommission",
          "type": "uint256"
        },
        {
          "indexed": false,
          "internalType": "address",
          "name": "bankerWallet",
          "type": "address"
        }
      ],
      "name": "tableCreated",
      "type": "event"
    },
    {
      "inputs": [
        {
          "internalType": "address",
          "name": "creator",
          "type": "address"
        },
        {
          "internalType": "uint256",
          "name": "amount",
          "type": "uint256"
        },
        {
          "internalType": "uint256",
          "name": "minPPL",
          "type": "uint256"
        },
        {
          "internalType": "uint256",
          "name": "maxPPL",
          "type": "uint256"
        },
        {
          "internalType": "uint256",
          "name": "coolDownTime",
          "type": "uint256"
        },
        {
          "internalType": "uint256",
          "name": "gameTime",
          "type": "uint256"
        },
        {
          "internalType": "uint256",
          "name": "bankerCommission",
          "type": "uint256"
        },
        {
          "internalType": "uint256",
          "name": "referralCommission",
          "type": "uint256"
        },
        {
          "internalType": "address",
          "name": "bankerWallet",
          "type": "address"
        }
      ],
      "name": "createTable",
      "outputs": [
        {
          "internalType": "address",
          "name": "table",
          "type": "address"
        }
      ],
      "stateMutability": "nonpayable",
      "type": "function"
    },
    {
      "inputs": [],
      "name": "getParameters",
      "outputs": [
        {
          "components": [
            {
              "internalType": "address",
              "name": "factory",
              "type": "address"
            },
            {
              "internalType": "address",
              "name": "creator",
              "type": "address"
            },
            {
              "internalType": "uint256",
              "name": "amount",
              "type": "uint256"
            },
            {
              "internalType": "uint256",
              "name": "minPPL",
              "type": "uint256"
            },
            {
              "internalType": "uint256",
              "name": "maxPPL",
              "type": "uint256"
            },
            {
              "internalType": "uint256",
              "name": "coolDownTime",
              "type": "uint256"
            },
            {
              "internalType": "uint256",
              "name": "gameTime",
              "type": "uint256"
            },
            {
              "internalType": "uint256",
              "name": "bankerCommission",
              "type": "uint256"
            },
            {
              "internalType": "uint256",
              "name": "referralCommission",
              "type": "uint256"
            },
            {
              "internalType": "address",
              "name": "bankerWallet",
              "type": "address"
            }
          ],
          "internalType": "struct ILotteryTableDeployer.Parameters",
          "name": "parameters",
          "type": "tuple"
        }
      ],
      "stateMutability": "view",
      "type": "function"
    },
    {
      "inputs": [
        {
          "internalType": "address",
          "name": "creator",
          "type": "address"
        },
        {
          "internalType": "uint256",
          "name": "amount",
          "type": "uint256"
        },
        {
          "internalType": "uint256",
          "name": "minPPL",
          "type": "uint256"
        },
        {
          "internalType": "uint256",
          "name": "maxPPL",
          "type": "uint256"
        },
        {
          "internalType": "uint256",
          "name": "coolDownTime",
          "type": "uint256"
        },
        {
          "internalType": "uint256",
          "name": "gameTime",
          "type": "uint256"
        },
        {
          "internalType": "uint256",
          "name": "bankerCommission",
          "type": "uint256"
        },
        {
          "internalType": "uint256",
          "name": "referralCommission",
          "type": "uint256"
        },
        {
          "internalType": "address",
          "name": "bankerWallet",
          "type": "address"
        }
      ],
      "name": "getTable",
      "outputs": [
        {
          "internalType": "address",
          "name": "table",
          "type": "address"
        }
      ],
      "stateMutability": "view",
      "type": "function"
    },
    {
      "inputs": [],
      "name": "owner",
      "outputs": [
        {
          "internalType": "address",
          "name": "",
          "type": "address"
        }
      ],
      "stateMutability": "view",
      "type": "function"
    },
    {
      "inputs": [],
      "name": "params",
      "outputs": [
        {
          "internalType": "address",
          "name": "factory",
          "type": "address"
        },
        {
          "internalType": "address",
          "name": "creator",
          "type": "address"
        },
        {
          "internalType": "uint256",
          "name": "amount",
          "type": "uint256"
        },
        {
          "internalType": "uint256",
          "name": "minPPL",
          "type": "uint256"
        },
        {
          "internalType": "uint256",
          "name": "maxPPL",
          "type": "uint256"
        },
        {
          "internalType": "uint256",
          "name": "coolDownTime",
          "type": "uint256"
        },
        {
          "internalType": "uint256",
          "name": "gameTime",
          "type": "uint256"
        },
        {
          "internalType": "uint256",
          "name": "bankerCommission",
          "type": "uint256"
        },
        {
          "internalType": "uint256",
          "name": "referralCommission",
          "type": "uint256"
        },
        {
          "internalType": "address",
          "name": "bankerWallet",
          "type": "address"
        }
      ],
      "stateMutability": "view",
      "type": "function"
    },
    {
      "inputs": [
        {
          "internalType": "address",
          "name": "_owner",
          "type": "address"
        }
      ],
      "name": "setOwner",
      "outputs": [],
      "stateMutability": "nonpayable",
      "type": "function"
    }
  ],
  "bytecode": "0x60a060405234801561001057600080fd5b503060601b608052600a80546001600160a01b031916339081179091556040516000907fb532073b38c83145e3e5135377a08bf9aab55bc0fd7c1179cd4fb995d2a5159c908290a360805160601c6126db610076600039600061051e01526126db6000f3fe608060405234801561001057600080fd5b50600436106100625760003560e01c806313af4035146100675780637948e0001461007c5780638da5cb5b146100ac578063a5ea11da146100bf578063cff0ab96146100d4578063db237efc14610169575b600080fd5b61007a61007536600461077f565b61017c565b005b61008f61008a3660046107a0565b6101ef565b6040516001600160a01b0390911681526020015b60405180910390f35b600a5461008f906001600160a01b031681565b6100c76103c8565b6040516100a391906108bd565b600054600154600254600354600454600554600654600754600854600954610110996001600160a01b039081169981169897969594939291168a565b604080516001600160a01b039b8c168152998b1660208b01528901979097526060880195909552608087019390935260a086019190915260c085015260e0840152610100830152909116610120820152610140016100a3565b61008f6101773660046107a0565b6104a9565b600a546001600160a01b0316331461019357600080fd5b600a546040516001600160a01b038084169216907fb532073b38c83145e3e5135377a08bf9aab55bc0fd7c1179cd4fb995d2a5159c90600090a3600a80546001600160a01b0319166001600160a01b0392909216919091179055565b60006101f9610513565b6001600160a01b038a1661020c57600080fd5b6000891161021957600080fd5b6000881161022657600080fd5b6000871161023357600080fd5b6000861161024057600080fd5b6000851161024d57600080fd5b6000841161025a57600080fd5b6000831161026757600080fd5b6001600160a01b03821661027a57600080fd5b6000898989898989898960405160200161029b989796959493929190610816565b60408051601f19818403018152828252805160209182012083830190925260048352630d0c2e6d60e31b9083015291506102d5908261054a565b6001600160a01b038b81166000908152600b60209081526040808320858452909152902054161561030557600080fd5b610317308c8c8c8c8c8c8c8c8c610593565b6001600160a01b038c81166000818152600b6020908152604080832087845282529182902080546001600160a01b031916868616179055815192835282018e905281018c9052606081018b9052608081018a905260a0810189905260c0810188905260e081018790529085166101008201529092507fde21502196fedda3172f49e07096afe58333a70e6e2f4da4e0c235b3845db91d906101200160405180910390a1509998505050505050505050565b61043960405180610140016040528060006001600160a01b0316815260200160006001600160a01b031681526020016000815260200160008152602001600081526020016000815260200160008152602001600081526020016000815260200160006001600160a01b031681525090565b5060408051610140810182526000546001600160a01b03908116825260015481166020830152600254928201929092526003546060820152600454608082015260055460a082015260065460c082015260075460e082015260085461010082015260095490911661012082015290565b60008089898989898989896040516020016104cb989796959493929190610816565b60408051601f1981840301815291815281516020928301206001600160a01b039d8e166000908152600b84528281209181529252902054909a169a9950505050505050505050565b306001600160a01b037f0000000000000000000000000000000000000000000000000000000000000000161461054857600080fd5b565b61058f8282604051602401610560929190610862565b60408051601f198184030181529190526020810180516001600160e01b03166309710a9d60e41b179052610735565b5050565b60408051610140810182526001600160a01b03808d168083528c821660208085018290528486018e9052606085018d9052608085018c905260a085018b905260c085018a905260e085018990526101008501889052928616610120909401849052600080546001600160a01b0319908116909317815560018054841690921790915560028d905560038c905560048b905560058a90556006899055600788905560088790556009805490921690931790559151909161069c918b918b918b918b918b918b918b918b9101978852602088019690965260408701949094526060860192909252608085015260a084015260c08301526001600160a01b031660e08201526101000190565b604051602081830303815290604052805190602001206040516106be90610756565b8190604051809103906000f59050801580156106de573d6000803e3d6000fd5b50600080546001600160a01b0319908116825560018054821690556002829055600382905560048290556005829055600682905560078290556008919091556009805490911690559b9a5050505050505050505050565b80516a636f6e736f6c652e6c6f67602083016000808483855afa5050505050565b611d508061095683390190565b80356001600160a01b038116811461077a57600080fd5b919050565b600060208284031215610790578081fd5b61079982610763565b9392505050565b60008060008060008060008060006101208a8c0312156107be578485fd5b6107c78a610763565b985060208a0135975060408a0135965060608a0135955060808a0135945060a08a0135935060c08a0135925060e08a013591506108076101008b01610763565b90509295985092959850929598565b97885260208801969096526040870194909452606080870193909352608086019190915260a085015260c08401919091521b6bffffffffffffffffffffffff191660e082015260f40190565b6040815260008351806040840152815b8181101561088f5760208187018101516060868401015201610872565b818111156108a05782606083860101525b50602083019390935250601f91909101601f191601606001919050565b81516001600160a01b03168152610140810160208301516108e960208401826001600160a01b03169052565b5060408301516040830152606083015160608301526080830151608083015260a083015160a083015260c083015160c083015260e083015160e08301526101008084015181840152506101208084015161094d828501826001600160a01b03169052565b50509291505056fe60a06040526040516200001290620001be565b604051809103906000f0801580156200002f573d6000803e3d6000fd5b50600a80546001600160a01b0319166001600160a01b03929092169190911790553480156200005d57600080fd5b5060016000819055506000336001600160a01b031663a5ea11da6040518163ffffffff1660e01b81526004016101406040518083038186803b158015620000a357600080fd5b505afa158015620000b8573d6000803e3d6000fd5b505050506040513d601f19601f82011682018060405250810190620000de9190620001e9565b80516001600160601b0319606091821b1660809081526040805161012080820183526020808701516001600160a01b039081168085528589018051938601849052888a0151968601879052878a01519886018990525196850187905260c0808a015160a0870181905260e0808c0151928801839052610100808d015191890182905296909b015190931694909501849052600180546001600160a01b0319908116909217905560029290925560039490945560049590955560059390935560069190915560075560089290925560098054909116909117905550620002c1565b610609806200174783390190565b80516001600160a01b0381168114620001e457600080fd5b919050565b60006101408284031215620001fc578081fd5b6200020662000289565b6200021183620001cc565b81526200022160208401620001cc565b602082015260408301516040820152606083015160608201526080830151608082015260a083015160a082015260c083015160c082015260e083015160e08201526101008084015181830152506101206200027e818501620001cc565b908201529392505050565b60405161014081016001600160401b0381118282101715620002bb57634e487b7160e01b600052604160045260246000fd5b60405290565b60805160601c611468620002df600039600060f001526114686000f3fe608060405234801561001057600080fd5b50600436106100885760003560e01c8063c45a01551161005b578063c45a0155146100eb578063d826f88f1461012a578063efa1c48214610142578063fa2d259d1461015757600080fd5b806347e405531461008d5780635f2d82ea146100a8578063796ab25d146100bd578063be9a6555146100d2575b600080fd5b6100956101d4565b6040519081526020015b60405180910390f35b6100b06101ef565b60405161009f9190610c53565b6100d06100cb366004610aed565b6102b5565b005b6100da61052a565b60405161009f959493929190610cd1565b6101127f000000000000000000000000000000000000000000000000000000000000000081565b6040516001600160a01b03909116815260200161009f565b6101326108e2565b604051901515815260200161009f565b61014a61094e565b60405161009f9190610c40565b6100d0610165366004610b61565b600180546009805484516001600160a01b03199384166001600160a01b0391821617909455602085015160025560408501516003556060850151600455608085015160055560a085015160065560c085015160075560e085015160085561010090940151919093169116179055565b60006101df600c5490565b6101ea906001610d95565b905090565b61025060405180610120016040528060006001600160a01b031681526020016000815260200160008152602001600081526020016000815260200160008152602001600081526020016000815260200160006001600160a01b031681525090565b5060408051610120810182526001546001600160a01b0390811682526002546020830152600354928201929092526004546060820152600554608082015260065460a082015260075460c082015260085460e082015260095490911661010082015290565b600a548151604051634f0cd27b60e01b81526001600160a01b039182166004820152911690634f0cd27b9060240160206040518083038186803b1580156102fb57600080fd5b505afa15801561030f573d6000803e3d6000fd5b505050506040513d601f19601f820116820180604052508101906103339190610be5565b156103775760405162461bcd60e51b815260206004820152600f60248201526e6475706c696361746564206265742160881b60448201526064015b60405180910390fd5b600a548151604051630640ef8160e11b81526001600160a01b039182166004820152911690630c81df0290602401600060405180830381600087803b1580156103bf57600080fd5b505af11580156103d3573d6000803e3d6000fd5b5050600a5483516020850151604051630a4341ab60e41b81526001600160a01b03928316600482015260248101919091529116925063a4341ab09150604401600060405180830381600087803b15801561042c57600080fd5b505af1158015610440573d6000803e3d6000fd5b5050600a548351604080860151905163108b42ef60e31b81526001600160a01b03928316600482015260248101919091529116925063845a17789150604401600060405180830381600087803b15801561049957600080fd5b505af11580156104ad573d6000803e3d6000fd5b5050600a546040808501516020860151915163bda642ef60e01b81526001600160a01b03909316945063bda642ef93506104f592909190600401918252602082015260400190565b600060405180830381600087803b15801561050f57600080fd5b505af1158015610523573d6000803e3d6000fd5b5050505050565b600080606060006060600260005414156105865760405162461bcd60e51b815260206004820152601f60248201527f5265656e7472616e637947756172643a207265656e7472616e742063616c6c00604482015260640161036e565b6002600055610599600c80546001019055565b600c5494506000610664600a60009054906101000a90046001600160a01b03166001600160a01b0316638b5b9ccc6040518163ffffffff1660e01b815260040160006040518083038186803b1580156105f157600080fd5b505afa158015610605573d6000803e3d6000fd5b505050506040513d6000823e601f3d908101601f1916820160405261062d9190810190610a39565b5160408051426020808301919091524482840152606080830194909452825180830390940184526080909101909152815191012090565b905061067181600a6109cf565b600a5460405163760e116d60e01b8152600481018390529196506001600160a01b03169063760e116d9060240160006040518083038186803b1580156106b657600080fd5b505afa1580156106ca573d6000803e3d6000fd5b505050506040513d6000823e601f3d908101601f191682016040526106f29190810190610a39565b600a5460405163478a1cbf60e01b8152600481018890529195506001600160a01b03169063478a1cbf9060240160206040518083038186803b15801561073757600080fd5b505afa15801561074b573d6000803e3d6000fd5b505050506040513d601f19601f8201168201806040525081019061076f9190610be5565b84519093501561087f5760005b845181101561087d5760008582815181106107a757634e487b7160e01b600052603260045260246000fd5b6020908102919091010151600a54604051634f0cd27b60e01b81526001600160a01b03808416600483015292935060009290911690634f0cd27b9060240160206040518083038186803b1580156107fd57600080fd5b505afa158015610811573d6000803e3d6000fd5b505050506040513d601f19601f820116820180604052508101906108359190610be5565b600b80546001810182556000919091527f0175b7a638427703f0dbe7bb9bbf987a2551717b34e79f33b5b1008d1fa01db901555081905061087581610dad565b91505061077c565b505b600b8054806020026020016040519081016040528092919081815260200182805480156108cb57602002820191906000526020600020905b8154815260200190600101908083116108b7575b505050505091505060016000819055509091929394565b600a80546001600160a01b031916905560006108ff600b826109e2565b60405161090b90610a03565b604051809103906000f080158015610927573d6000803e3d6000fd5b50600a80546001600160a01b0319166001600160a01b039290921691909117905550600190565b600a54604080516322d6e73360e21b815290516060926001600160a01b031691638b5b9ccc916004808301926000929190829003018186803b15801561099357600080fd5b505afa1580156109a7573d6000803e3d6000fd5b505050506040513d6000823e601f3d908101601f191682016040526101ea9190810190610a39565b60006109db8284610dc8565b9392505050565b5080546000825590600052602060002090810190610a009190610a10565b50565b61060980610e2a83390190565b5b80821115610a255760008155600101610a11565b5090565b8035610a3481610e14565b919050565b60006020808385031215610a4b578182fd5b825167ffffffffffffffff80821115610a62578384fd5b818501915085601f830112610a75578384fd5b815181811115610a8757610a87610dfe565b8060051b9150610a98848301610d64565b8181528481019084860184860187018a1015610ab2578788fd5b8795505b83861015610ae05780519450610acb85610e14565b84835260019590950194918601918601610ab6565b5098975050505050505050565b600060808284031215610afe578081fd5b6040516080810181811067ffffffffffffffff82111715610b2157610b21610dfe565b6040528235610b2f81610e14565b8082525060208301356020820152604083013560408201526060830135610b5581610e14565b60608201529392505050565b60006101208284031215610b73578081fd5b610b7b610d3a565b610b8483610a29565b81526020830135602082015260408301356040820152606083013560608201526080830135608082015260a083013560a082015260c083013560c082015260e083013560e0820152610100610bda818501610a29565b908201529392505050565b600060208284031215610bf6578081fd5b5051919050565b6000815180845260208085019450808401835b83811015610c355781516001600160a01b031687529582019590820190600101610c10565b509495945050505050565b6020815260006109db6020830184610bfd565b60006101208201905060018060a01b0383511682526020830151602083015260408301516040830152606083015160608301526080830151608083015260a083015160a083015260c083015160c083015260e083015160e083015261010080840151610cc9828501826001600160a01b03169052565b505092915050565b85815260006020868184015260a06040840152610cf160a0840187610bfd565b606084018690528381036080850152845180825282860191830190845b81811015610d2a57835183529284019291840191600101610d0e565b50909a9950505050505050505050565b604051610120810167ffffffffffffffff81118282101715610d5e57610d5e610dfe565b60405290565b604051601f8201601f1916810167ffffffffffffffff81118282101715610d8d57610d8d610dfe565b604052919050565b60008219821115610da857610da8610de8565b500190565b6000600019821415610dc157610dc1610de8565b5060010190565b600082610de357634e487b7160e01b81526012600452602481fd5b500690565b634e487b7160e01b600052601160045260246000fd5b634e487b7160e01b600052604160045260246000fd5b6001600160a01b0381168114610a0057600080fdfe608060405234801561001057600080fd5b506105e9806100206000396000f3fe608060405234801561001057600080fd5b50600436106100ea5760003560e01c80638b5b9ccc1161008c578063bda642ef11610066578063bda642ef146102bc578063df15c37e14610261578063e4064c4e146102cf578063f71d96cb1461032e57600080fd5b80638b5b9ccc14610261578063942ea46614610269578063a4341ab01461029257600080fd5b80634f0cd27b116100c85780634f0cd27b146101ce578063760e116d146101f75780637b5e6f6b14610217578063845a17781461023757600080fd5b80630c81df02146100ef578063276df0d11461014e578063478a1cbf1461019b575b600080fd5b61014c6100fd366004610494565b600080546001810182559080527f290decd9548b62a8d60345a988386fc84ba6bc95484008f6362f93160ef3e5630180546001600160a01b0319166001600160a01b0392909216919091179055565b005b61014c61015c3660046104f6565b600091825260056020908152604083208054600181018255908452922090910180546001600160a01b0319166001600160a01b03909216919091179055565b6101bb6101a93660046104de565b60009081526006602052604090205490565b6040519081526020015b60405180910390f35b6101bb6101dc366004610494565b6001600160a01b031660009081526002602052604090205490565b61020a6102053660046104de565b610359565b6040516101c59190610542565b6101bb610225366004610494565b60026020526000908152604090205481565b61014c6102453660046104b5565b6001600160a01b03909116600090815260036020526040902055565b61020a6103c5565b6101bb610277366004610494565b6001600160a01b031660009081526003602052604090205490565b61014c6102a03660046104b5565b6001600160a01b03909116600090815260026020526040902055565b61014c6102ca366004610521565b610427565b61014c6102dd366004610494565b6001805480820182556000919091527fb10e2d527612073b26eecdfd717e6a320cf44b4afac2b0732d9fcbe2b7fa0cf60180546001600160a01b0319166001600160a01b0392909216919091179055565b61034161033c3660046104de565b61044e565b6040516001600160a01b0390911681526020016101c5565b6000818152600560209081526040918290208054835181840281018401909452808452606093928301828280156103b957602002820191906000526020600020905b81546001600160a01b0316815260019091019060200180831161039b575b50505050509050919050565b6060600080548060200260200160405190810160405280929190818152602001828054801561041d57602002820191906000526020600020905b81546001600160a01b031681526001909101906020018083116103ff575b5050505050905090565b6000828152600660205260408120805483929061044590849061058f565b90915550505050565b6000818154811061045e57600080fd5b6000918252602090912001546001600160a01b0316905081565b80356001600160a01b038116811461048f57600080fd5b919050565b6000602082840312156104a5578081fd5b6104ae82610478565b9392505050565b600080604083850312156104c7578081fd5b6104d083610478565b946020939093013593505050565b6000602082840312156104ef578081fd5b5035919050565b60008060408385031215610508578182fd5b8235915061051860208401610478565b90509250929050565b60008060408385031215610533578182fd5b50508035926020909101359150565b6020808252825182820181905260009190848201906040850190845b818110156105835783516001600160a01b03168352928401929184019160010161055e565b50909695505050505050565b600082198211156105ae57634e487b7160e01b81526011600452602481fd5b50019056fea26469706673582212203456fa8f16a30834e1c4a64b881e747c2db8adb12e9827e9a7cb60c3c56f893364736f6c63430008040033a26469706673582212204f14669a883771a7c8fa235e9135390c97ffb733e318db45d482bdc39ce815c364736f6c63430008040033608060405234801561001057600080fd5b506105e9806100206000396000f3fe608060405234801561001057600080fd5b50600436106100ea5760003560e01c80638b5b9ccc1161008c578063bda642ef11610066578063bda642ef146102bc578063df15c37e14610261578063e4064c4e146102cf578063f71d96cb1461032e57600080fd5b80638b5b9ccc14610261578063942ea46614610269578063a4341ab01461029257600080fd5b80634f0cd27b116100c85780634f0cd27b146101ce578063760e116d146101f75780637b5e6f6b14610217578063845a17781461023757600080fd5b80630c81df02146100ef578063276df0d11461014e578063478a1cbf1461019b575b600080fd5b61014c6100fd366004610494565b600080546001810182559080527f290decd9548b62a8d60345a988386fc84ba6bc95484008f6362f93160ef3e5630180546001600160a01b0319166001600160a01b0392909216919091179055565b005b61014c61015c3660046104f6565b600091825260056020908152604083208054600181018255908452922090910180546001600160a01b0319166001600160a01b03909216919091179055565b6101bb6101a93660046104de565b60009081526006602052604090205490565b6040519081526020015b60405180910390f35b6101bb6101dc366004610494565b6001600160a01b031660009081526002602052604090205490565b61020a6102053660046104de565b610359565b6040516101c59190610542565b6101bb610225366004610494565b60026020526000908152604090205481565b61014c6102453660046104b5565b6001600160a01b03909116600090815260036020526040902055565b61020a6103c5565b6101bb610277366004610494565b6001600160a01b031660009081526003602052604090205490565b61014c6102a03660046104b5565b6001600160a01b03909116600090815260026020526040902055565b61014c6102ca366004610521565b610427565b61014c6102dd366004610494565b6001805480820182556000919091527fb10e2d527612073b26eecdfd717e6a320cf44b4afac2b0732d9fcbe2b7fa0cf60180546001600160a01b0319166001600160a01b0392909216919091179055565b61034161033c3660046104de565b61044e565b6040516001600160a01b0390911681526020016101c5565b6000818152600560209081526040918290208054835181840281018401909452808452606093928301828280156103b957602002820191906000526020600020905b81546001600160a01b0316815260019091019060200180831161039b575b50505050509050919050565b6060600080548060200260200160405190810160405280929190818152602001828054801561041d57602002820191906000526020600020905b81546001600160a01b031681526001909101906020018083116103ff575b5050505050905090565b6000828152600660205260408120805483929061044590849061058f565b90915550505050565b6000818154811061045e57600080fd5b6000918252602090912001546001600160a01b0316905081565b80356001600160a01b038116811461048f57600080fd5b919050565b6000602082840312156104a5578081fd5b6104ae82610478565b9392505050565b600080604083850312156104c7578081fd5b6104d083610478565b946020939093013593505050565b6000602082840312156104ef578081fd5b5035919050565b60008060408385031215610508578182fd5b8235915061051860208401610478565b90509250929050565b60008060408385031215610533578182fd5b50508035926020909101359150565b6020808252825182820181905260009190848201906040850190845b818110156105835783516001600160a01b03168352928401929184019160010161055e565b50909695505050505050565b600082198211156105ae57634e487b7160e01b81526011600452602481fd5b50019056fea26469706673582212203456fa8f16a30834e1c4a64b881e747c2db8adb12e9827e9a7cb60c3c56f893364736f6c63430008040033a26469706673582212201e71a000a905549cc8db635938535fd4c73dcf056d98060443f0cb385c3a8bd064736f6c63430008040033",
  "linkReferences": {},
  "deployedLinkReferences": {}
}