{
  "_format": "hh-sol-artifact-1",
  "contractName": "LotteryFactory",
  "sourceName": "contracts/LotteryFactory.sol",
  "abi": [
    {
      "inputs": [],
      "stateMutability": "nonpayable",
      "type": "constructor"
    },
    {
      "anonymous": false,
      "inputs": [
        {
          "indexed": true,
          "internalType": "address",
          "name": "oldOwner",
          "type": "address"
        },
        {
          "indexed": true,
          "internalType": "address",
          "name": "newOwner",
          "type": "address"
        }
      ],
      "name": "OwnerChanged",
      "type": "event"
    },
    {
      "anonymous": false,
      "inputs": [
        {
          "indexed": false,
          "internalType": "address",
          "name": "creator",
          "type": "address"
        },
        {
          "indexed": false,
          "internalType": "uint256",
          "name": "amount",
          "type": "uint256"
        },
        {
          "indexed": false,
          "internalType": "uint256",
          "name": "minPPL",
          "type": "uint256"
        },
        {
          "indexed": false,
          "internalType": "uint256",
          "name": "maxPPL",
          "type": "uint256"
        },
        {
          "indexed": false,
          "internalType": "uint256",
          "name": "coolDownTime",
          "type": "uint256"
        },
        {
          "indexed": false,
          "internalType": "uint256",
          "name": "gameTime",
          "type": "uint256"
        },
        {
          "indexed": false,
          "internalType": "uint256",
          "name": "bankerCommission",
          "type": "uint256"
        },
        {
          "indexed": false,
          "internalType": "uint256",
          "name": "referralCommission",
          "type": "uint256"
        },
        {
          "indexed": false,
          "internalType": "address",
          "name": "bankerWallet",
          "type": "address"
        }
      ],
      "name": "tableCreated",
      "type": "event"
    },
    {
      "inputs": [
        {
          "internalType": "address",
          "name": "managerContract",
          "type": "address"
        },
        {
          "internalType": "address",
          "name": "creator",
          "type": "address"
        },
        {
          "internalType": "uint256",
          "name": "amount",
          "type": "uint256"
        },
        {
          "internalType": "uint256",
          "name": "minPPL",
          "type": "uint256"
        },
        {
          "internalType": "uint256",
          "name": "maxPPL",
          "type": "uint256"
        },
        {
          "internalType": "uint256",
          "name": "coolDownTime",
          "type": "uint256"
        },
        {
          "internalType": "uint256",
          "name": "gameTime",
          "type": "uint256"
        },
        {
          "internalType": "uint256",
          "name": "bankerCommission",
          "type": "uint256"
        },
        {
          "internalType": "uint256",
          "name": "referralCommission",
          "type": "uint256"
        },
        {
          "internalType": "address",
          "name": "bankerWallet",
          "type": "address"
        }
      ],
      "name": "createTable",
      "outputs": [
        {
          "internalType": "address",
          "name": "table",
          "type": "address"
        }
      ],
      "stateMutability": "nonpayable",
      "type": "function"
    },
    {
      "inputs": [],
      "name": "getParameters",
      "outputs": [
        {
          "components": [
            {
              "internalType": "address",
              "name": "managerContract",
              "type": "address"
            },
            {
              "internalType": "address",
              "name": "factory",
              "type": "address"
            },
            {
              "internalType": "address",
              "name": "creator",
              "type": "address"
            },
            {
              "internalType": "uint256",
              "name": "amount",
              "type": "uint256"
            },
            {
              "internalType": "uint256",
              "name": "minPPL",
              "type": "uint256"
            },
            {
              "internalType": "uint256",
              "name": "maxPPL",
              "type": "uint256"
            },
            {
              "internalType": "uint256",
              "name": "coolDownTime",
              "type": "uint256"
            },
            {
              "internalType": "uint256",
              "name": "gameTime",
              "type": "uint256"
            },
            {
              "internalType": "uint256",
              "name": "bankerCommission",
              "type": "uint256"
            },
            {
              "internalType": "uint256",
              "name": "referralCommission",
              "type": "uint256"
            },
            {
              "internalType": "address",
              "name": "bankerWallet",
              "type": "address"
            }
          ],
          "internalType": "struct ILotteryTableDeployer.Parameters",
          "name": "parameters",
          "type": "tuple"
        }
      ],
      "stateMutability": "view",
      "type": "function"
    },
    {
      "inputs": [
        {
          "internalType": "address",
          "name": "creator",
          "type": "address"
        },
        {
          "internalType": "uint256",
          "name": "amount",
          "type": "uint256"
        },
        {
          "internalType": "uint256",
          "name": "minPPL",
          "type": "uint256"
        },
        {
          "internalType": "uint256",
          "name": "maxPPL",
          "type": "uint256"
        },
        {
          "internalType": "uint256",
          "name": "coolDownTime",
          "type": "uint256"
        },
        {
          "internalType": "uint256",
          "name": "gameTime",
          "type": "uint256"
        },
        {
          "internalType": "uint256",
          "name": "bankerCommission",
          "type": "uint256"
        },
        {
          "internalType": "uint256",
          "name": "referralCommission",
          "type": "uint256"
        },
        {
          "internalType": "address",
          "name": "bankerWallet",
          "type": "address"
        }
      ],
      "name": "getTable",
      "outputs": [
        {
          "internalType": "address",
          "name": "table",
          "type": "address"
        }
      ],
      "stateMutability": "view",
      "type": "function"
    },
    {
      "inputs": [],
      "name": "owner",
      "outputs": [
        {
          "internalType": "address",
          "name": "",
          "type": "address"
        }
      ],
      "stateMutability": "view",
      "type": "function"
    },
    {
      "inputs": [],
      "name": "params",
      "outputs": [
        {
          "internalType": "address",
          "name": "managerContract",
          "type": "address"
        },
        {
          "internalType": "address",
          "name": "factory",
          "type": "address"
        },
        {
          "internalType": "address",
          "name": "creator",
          "type": "address"
        },
        {
          "internalType": "uint256",
          "name": "amount",
          "type": "uint256"
        },
        {
          "internalType": "uint256",
          "name": "minPPL",
          "type": "uint256"
        },
        {
          "internalType": "uint256",
          "name": "maxPPL",
          "type": "uint256"
        },
        {
          "internalType": "uint256",
          "name": "coolDownTime",
          "type": "uint256"
        },
        {
          "internalType": "uint256",
          "name": "gameTime",
          "type": "uint256"
        },
        {
          "internalType": "uint256",
          "name": "bankerCommission",
          "type": "uint256"
        },
        {
          "internalType": "uint256",
          "name": "referralCommission",
          "type": "uint256"
        },
        {
          "internalType": "address",
          "name": "bankerWallet",
          "type": "address"
        }
      ],
      "stateMutability": "view",
      "type": "function"
    },
    {
      "inputs": [
        {
          "internalType": "address",
          "name": "_owner",
          "type": "address"
        }
      ],
      "name": "setOwner",
      "outputs": [],
      "stateMutability": "nonpayable",
      "type": "function"
    }
  ],
  "bytecode": "0x60a060405234801561001057600080fd5b503060601b608052600b80546001600160a01b031916339081179091556040516000907fb532073b38c83145e3e5135377a08bf9aab55bc0fd7c1179cd4fb995d2a5159c908290a360805160601c611b3c610076600039600061050b0152611b3c6000f3fe608060405234801561001057600080fd5b50600436106100625760003560e01c806313af4035146100675780637d7863d61461007c5780638da5cb5b146100ac578063a5ea11da146100bf578063cff0ab96146100d4578063db237efc14610179575b600080fd5b61007a6100753660046106ea565b61018c565b005b61008f61008a36600461070b565b6101ff565b6040516001600160a01b0390911681526020015b60405180910390f35b600b5461008f906001600160a01b031681565b6100c761039a565b6040516100a391906108a1565b600054600154600254600354600454600554600654600754600854600954600a546101169a6001600160a01b039081169a81169981169897969594939291168b565b604080516001600160a01b039c8d1681529a8c1660208c0152988b16988a01989098526060890196909652608088019490945260a087019290925260c086015260e0850152610100840152610120830152909116610140820152610160016100a3565b61008f610187366004610793565b610496565b600b546001600160a01b031633146101a357600080fd5b600b546040516001600160a01b038084169216907fb532073b38c83145e3e5135377a08bf9aab55bc0fd7c1179cd4fb995d2a5159c90600090a3600b80546001600160a01b0319166001600160a01b0392909216919091179055565b6000610209610500565b6001600160a01b038a1661021c57600080fd5b6000891161022957600080fd5b6000881161023657600080fd5b6000871161024357600080fd5b6000861161025057600080fd5b6000851161025d57600080fd5b6000841161026a57600080fd5b6000831161027757600080fd5b6001600160a01b03821661028a57600080fd5b600089898989898989896040516020016102ab989796959493929190610809565b60408051601f1981840301815291815281516020928301206001600160a01b038e81166000908152600c8552838120838252909452919092205491925016156102f357600080fd5b6103068c308d8d8d8d8d8d8d8d8d610537565b6001600160a01b038c81166000908152600c602090815260408083208684529091529081902080546001600160a01b03191692841692909217909155519092507fde21502196fedda3172f49e07096afe58333a70e6e2f4da4e0c235b3845db91d90610383908d908d908d908d908d908d908d908d908d90610855565b60405180910390a1509a9950505050505050505050565b61041b60405180610160016040528060006001600160a01b0316815260200160006001600160a01b0316815260200160006001600160a01b031681526020016000815260200160008152602001600081526020016000815260200160008152602001600081526020016000815260200160006001600160a01b031681525090565b5060408051610160810182526000546001600160a01b039081168252600154811660208301526002548116928201929092526003546060820152600454608082015260055460a082015260065460c082015260075460e0820152600854610100820152600954610120820152600a5490911661014082015290565b60008089898989898989896040516020016104b8989796959493929190610809565b60408051601f1981840301815291815281516020928301206001600160a01b039d8e166000908152600c84528281209181529252902054909a169a9950505050505050505050565b306001600160a01b037f0000000000000000000000000000000000000000000000000000000000000000161461053557600080fd5b565b60408051610160810182526001600160a01b03808e168083528d821660208085018290528e8416858701819052606086018f9052608086018e905260a086018d905260c086018c905260e086018b905261010086018a90526101208601899052938716610140909501859052600080546001600160a01b0319908116909417815560018054851690931790925560028054841690941790935560038d905560048c905560058b905560068a9055600789905560088890556009879055600a805490921690931790559151909161061f918c918c918c918c918c918c918c918c918c9101610855565b60405160208183030381529060405280519060200120604051610641906106c1565b8190604051809103906000f5905080158015610661573d6000803e3d6000fd5b50600080546001600160a01b0319908116825560018054821690556002805482169055600382905560048290556005829055600682905560078290556008829055600991909155600a805490911690559c9b505050505050505050505050565b6111b08061095783390190565b80356001600160a01b03811681146106e557600080fd5b919050565b6000602082840312156106fb578081fd5b610704826106ce565b9392505050565b6000806000806000806000806000806101408b8d03121561072a578586fd5b6107338b6106ce565b995061074160208c016106ce565b985060408b0135975060608b0135965060808b0135955060a08b0135945060c08b0135935060e08b013592506101008b013591506107826101208c016106ce565b90509295989b9194979a5092959850565b60008060008060008060008060006101208a8c0312156107b1578485fd5b6107ba8a6106ce565b985060208a0135975060408a0135965060608a0135955060808a0135945060a08a0135935060c08a0135925060e08a013591506107fa6101008b016106ce565b90509295985092959850929598565b97885260208801969096526040870194909452606080870193909352608086019190915260a085015260c08401919091521b6bffffffffffffffffffffffff191660e082015260f40190565b6001600160a01b03998a168152602081019890985260408801969096526060870194909452608086019290925260a085015260c084015260e08301529091166101008201526101200190565b81516001600160a01b03168152610160810160208301516108cd60208401826001600160a01b03169052565b5060408301516108e860408401826001600160a01b03169052565b50606083015160608301526080830151608083015260a083015160a083015260c083015160c083015260e083015160e08301526101008084015181840152506101208084015181840152506101408084015161094e828501826001600160a01b03169052565b50509291505056fe60c06040523480156200001157600080fd5b5060016000819055506000336001600160a01b031663a5ea11da6040518163ffffffff1660e01b81526004016101606040518083038186803b1580156200005757600080fd5b505afa1580156200006c573d6000803e3d6000fd5b505050506040513d601f19601f820116820180604052508101906200009291906200019b565b80516001600160601b0319606091821b811660a0908152602080850151841b9092166080908152604080516101208082018352828801516001600160a01b03908116808452888a018051988501899052868b0151958501869052878b01519985018a90525195840186905260e0808b0151978501889052610100808c015160c08701819052948c0151918601829052610140909b015190921699909301899052600180546001600160a01b031990811690941790556002969096556003929092556004959095556005919091556006919091556007556008556009805490911690911790555062000288565b80516001600160a01b03811681146200019657600080fd5b919050565b60006101608284031215620001ae578081fd5b620001b862000250565b620001c3836200017e565b8152620001d3602084016200017e565b6020820152620001e6604084016200017e565b6040820152606083015160608201526080830151608082015260a083015160a082015260c083015160c082015260e083015160e0820152610100808401518183015250610120808401518183015250610140620002458185016200017e565b908201529392505050565b60405161016081016001600160401b03811182821017156200028257634e487b7160e01b600052604160045260246000fd5b60405290565b60805160601c60a05160601c610ee1620002cf60003960008181609d015281816102810152818161039e0152818161058301526109fe0152600061014b0152610ee16000f3fe608060405234801561001057600080fd5b50600436106100935760003560e01c806384bc76a61161006657806384bc76a61461011c578063be9a655514610131578063c45a015514610146578063efa1c4821461016d578063fa2d259d1461018257600080fd5b80632710ac801461009857806347e40553146100dc5780635f2d82ea146100f2578063796ab25d14610107575b600080fd5b6100bf7f000000000000000000000000000000000000000000000000000000000000000081565b6040516001600160a01b0390911681526020015b60405180910390f35b6100e4610195565b6040519081526020016100d3565b6100fa6101b0565b6040516100d39190610d8c565b61011a610115366004610af8565b610276565b005b61012461036f565b6040516100d39190610cb5565b6101396104e3565b6040516100d39190610d16565b6100bf7f000000000000000000000000000000000000000000000000000000000000000081565b61017561098e565b6040516100d39190610c68565b61011a610190366004610b72565b6109f3565b60006101a0600a5490565b6101ab906001610e42565b905090565b61021160405180610120016040528060006001600160a01b031681526020016000815260200160008152602001600081526020016000815260200160008152602001600081526020016000815260200160006001600160a01b031681525090565b5060408051610120810182526001546001600160a01b0390811682526002546020830152600354928201929092526004546060820152600554608082015260065460a082015260075460c082015260085460e082015260095490911661010082015290565b336001600160a01b037f000000000000000000000000000000000000000000000000000000000000000016146102ab57600080fd5b8051600b80546001808201835560009283527f0175b7a638427703f0dbe7bb9bbf987a2551717b34e79f33b5b1008d1fa01db990910180546001600160a01b0319166001600160a01b03909416939093179092556040830151600c805480850182559083527fdf6966c971051c3d54ec59162606531493a51404a002842f56009d7e5cf4a8c701556020830151600d805493840181559091527fd7b6990105719101dabeb77144f2a3385c8033acd3af97e9423a695e81ad1eb59091015550565b50565b61039360405180606001604052806060815260200160608152602001606081525090565b336001600160a01b037f000000000000000000000000000000000000000000000000000000000000000016146103c857600080fd5b60408051600b805460806020820284018101909452606083018181529293849392919084018282801561042457602002820191906000526020600020905b81546001600160a01b03168152600190910190602001808311610406575b50505050508152602001600b60010180548060200260200160405190810160405280929190818152602001828054801561047d57602002820191906000526020600020905b815481526020019060010190808311610469575b50505050508152602001600b6002018054806020026020016040519081016040528092919081815260200182805480156104d657602002820191906000526020600020905b8154815260200190600101908083116104c2575b5050505050815250905090565b61051c6040518060c001604052806000815260200160008152602001606081526020016000815260200160608152602001606081525090565b600260005414156105735760405162461bcd60e51b815260206004820152601f60248201527f5265656e7472616e637947756172643a207265656e7472616e742063616c6c00604482015260640160405180910390fd5b6002600055336001600160a01b037f000000000000000000000000000000000000000000000000000000000000000016146105ad57600080fd5b6105bb600a80546001019055565b600b5460408051426020808301919091524482840152606080830194909452825180830390940184526080909101909152815191012060006105fe82600a610a97565b905060005b600c5481101561078c57600c80548290811061062f57634e487b7160e01b600052603260045260246000fd5b906000526020600020015482141561077a57600b8054600e91908390811061066757634e487b7160e01b600052603260045260246000fd5b60009182526020808320909101548354600181018555938352912090910180546001600160a01b0319166001600160a01b03909216919091179055600d8054829081106106c457634e487b7160e01b600052603260045260246000fd5b9060005260206000200154600b6004016000600b60000184815481106106fa57634e487b7160e01b600052603260045260246000fd5b60009182526020808320909101546001600160a01b031683528201929092526040018120805490919061072e908490610e42565b9091555050600d80548290811061075557634e487b7160e01b600052603260045260246000fd5b9060005260206000200154600b60060160008282546107749190610e42565b90915550505b8061078481610e5a565b915050610603565b5060005b600e5481101561081257600e8054601091600f9160009190859081106107c657634e487b7160e01b600052603260045260246000fd5b60009182526020808320909101546001600160a01b031683528281019390935260409091018120548354600181018555938252919020909101558061080a81610e5a565b915050610790565b50600a54835260208084018290526011546060850152600b805460408051828502810185019091528181529283018282801561087757602002820191906000526020600020905b81546001600160a01b03168152600190910190602001808311610859575b5050505060408086019290925250600e80548251602080830282018101909452818152928301828280156108d457602002820191906000526020600020905b81546001600160a01b031681526001909101906020018083116108b6575b50505050506080840152601080546040805160208084028201810190925282815292919083018282801561092757602002820191906000526020600020905b815481526020019060010190808311610913575b505050505060a0840152600b600061093f8282610aaa565b61094d600183016000610aaa565b61095b600283016000610aaa565b610969600383016000610aaa565b610977600583016000610aaa565b600682016000905550505050600160008190555090565b6060600b6000018054806020026020016040519081016040528092919081815260200182805480156109e957602002820191906000526020600020905b81546001600160a01b031681526001909101906020018083116109cb575b5050505050905090565b336001600160a01b037f00000000000000000000000000000000000000000000000000000000000000001614610a2857600080fd5b600180546009805484516001600160a01b03199384166001600160a01b0391821617909455602085015160025560408501516003556060850151600455608085015160055560a085015160065560c085015160075560e085015160085561010090940151919093169116179055565b6000610aa38284610e75565b9392505050565b508054600082559060005260206000209081019061036c91905b80821115610ad85760008155600101610ac4565b5090565b80356001600160a01b0381168114610af357600080fd5b919050565b600060808284031215610b09578081fd5b6040516080810181811067ffffffffffffffff82111715610b3857634e487b7160e01b83526041600452602483fd5b604052610b4483610adc565b81526020830135602082015260408301356040820152610b6660608401610adc565b60608201529392505050565b60006101208284031215610b84578081fd5b610b8c610e0a565b610b9583610adc565b81526020830135602082015260408301356040820152606083013560608201526080830135608082015260a083013560a082015260c083013560c082015260e083013560e0820152610100610beb818501610adc565b908201529392505050565b6000815180845260208085019450808401835b83811015610c2e5781516001600160a01b031687529582019590820190600101610c09565b509495945050505050565b6000815180845260208085019450808401835b83811015610c2e57815187529582019590820190600101610c4c565b6020808252825182820181905260009190848201906040850190845b81811015610ca95783516001600160a01b031683529284019291840191600101610c84565b50909695505050505050565b602081526000825160606020840152610cd16080840182610bf6565b90506020840151601f1980858403016040860152610cef8383610c39565b9250604086015191508085840301606086015250610d0d8282610c39565b95945050505050565b6020815281516020820152602082015160408201526000604083015160c06060840152610d4660e0840182610bf6565b9050606084015160808401526080840151601f19808584030160a0860152610d6e8383610bf6565b925060a08601519150808584030160c086015250610d0d8282610c39565b60006101208201905060018060a01b0383511682526020830151602083015260408301516040830152606083015160608301526080830151608083015260a083015160a083015260c083015160c083015260e083015160e083015261010080840151610e02828501826001600160a01b03169052565b505092915050565b604051610120810167ffffffffffffffff81118282101715610e3c57634e487b7160e01b600052604160045260246000fd5b60405290565b60008219821115610e5557610e55610e95565b500190565b6000600019821415610e6e57610e6e610e95565b5060010190565b600082610e9057634e487b7160e01b81526012600452602481fd5b500690565b634e487b7160e01b600052601160045260246000fdfea2646970667358221220f5de99be20e2b21401752ab60d72639def21a80feb8685e2c7efbf16ef235b4164736f6c63430008040033a2646970667358221220abed1bbe8076e7ffc74a15fd7620e6c0f6f6fcb1041bcdc284a945760258780164736f6c63430008040033",
  "linkReferences": {},
  "deployedLinkReferences": {}
}