{
  "_format": "hh-sol-artifact-1",
  "contractName": "LotteryFactory",
  "sourceName": "contracts/LotteryFactory.sol",
  "abi": [
    {
      "inputs": [],
      "stateMutability": "nonpayable",
      "type": "constructor"
    },
    {
      "anonymous": false,
      "inputs": [
        {
          "indexed": true,
          "internalType": "address",
          "name": "oldOwner",
          "type": "address"
        },
        {
          "indexed": true,
          "internalType": "address",
          "name": "newOwner",
          "type": "address"
        }
      ],
      "name": "OwnerChanged",
      "type": "event"
    },
    {
      "anonymous": false,
      "inputs": [
        {
          "indexed": false,
          "internalType": "address",
          "name": "creator",
          "type": "address"
        },
        {
          "indexed": false,
          "internalType": "uint256",
          "name": "amount",
          "type": "uint256"
        },
        {
          "indexed": false,
          "internalType": "uint256",
          "name": "minPPL",
          "type": "uint256"
        },
        {
          "indexed": false,
          "internalType": "uint256",
          "name": "maxPPL",
          "type": "uint256"
        },
        {
          "indexed": false,
          "internalType": "uint256",
          "name": "coolDownTime",
          "type": "uint256"
        },
        {
          "indexed": false,
          "internalType": "uint256",
          "name": "gameTime",
          "type": "uint256"
        },
        {
          "indexed": false,
          "internalType": "uint256",
          "name": "bankerCommission",
          "type": "uint256"
        },
        {
          "indexed": false,
          "internalType": "uint256",
          "name": "referralCommission",
          "type": "uint256"
        },
        {
          "indexed": false,
          "internalType": "address",
          "name": "bankerWallet",
          "type": "address"
        }
      ],
      "name": "tableCreated",
      "type": "event"
    },
    {
      "inputs": [
        {
          "internalType": "address",
          "name": "creator",
          "type": "address"
        },
        {
          "internalType": "uint256",
          "name": "amount",
          "type": "uint256"
        },
        {
          "internalType": "uint256",
          "name": "minPPL",
          "type": "uint256"
        },
        {
          "internalType": "uint256",
          "name": "maxPPL",
          "type": "uint256"
        },
        {
          "internalType": "uint256",
          "name": "coolDownTime",
          "type": "uint256"
        },
        {
          "internalType": "uint256",
          "name": "gameTime",
          "type": "uint256"
        },
        {
          "internalType": "uint256",
          "name": "bankerCommission",
          "type": "uint256"
        },
        {
          "internalType": "uint256",
          "name": "referralCommission",
          "type": "uint256"
        },
        {
          "internalType": "address",
          "name": "bankerWallet",
          "type": "address"
        }
      ],
      "name": "createTable",
      "outputs": [
        {
          "internalType": "address",
          "name": "table",
          "type": "address"
        }
      ],
      "stateMutability": "nonpayable",
      "type": "function"
    },
    {
      "inputs": [],
      "name": "getParameters",
      "outputs": [
        {
          "components": [
            {
              "internalType": "address",
              "name": "factory",
              "type": "address"
            },
            {
              "internalType": "address",
              "name": "creator",
              "type": "address"
            },
            {
              "internalType": "uint256",
              "name": "amount",
              "type": "uint256"
            },
            {
              "internalType": "uint256",
              "name": "minPPL",
              "type": "uint256"
            },
            {
              "internalType": "uint256",
              "name": "maxPPL",
              "type": "uint256"
            },
            {
              "internalType": "uint256",
              "name": "coolDownTime",
              "type": "uint256"
            },
            {
              "internalType": "uint256",
              "name": "gameTime",
              "type": "uint256"
            },
            {
              "internalType": "uint256",
              "name": "bankerCommission",
              "type": "uint256"
            },
            {
              "internalType": "uint256",
              "name": "referralCommission",
              "type": "uint256"
            },
            {
              "internalType": "address",
              "name": "bankerWallet",
              "type": "address"
            }
          ],
          "internalType": "struct ILotteryTableDeployer.Parameters",
          "name": "parameters",
          "type": "tuple"
        }
      ],
      "stateMutability": "view",
      "type": "function"
    },
    {
      "inputs": [
        {
          "internalType": "address",
          "name": "creator",
          "type": "address"
        },
        {
          "internalType": "uint256",
          "name": "amount",
          "type": "uint256"
        },
        {
          "internalType": "uint256",
          "name": "minPPL",
          "type": "uint256"
        },
        {
          "internalType": "uint256",
          "name": "maxPPL",
          "type": "uint256"
        },
        {
          "internalType": "uint256",
          "name": "coolDownTime",
          "type": "uint256"
        },
        {
          "internalType": "uint256",
          "name": "gameTime",
          "type": "uint256"
        },
        {
          "internalType": "uint256",
          "name": "bankerCommission",
          "type": "uint256"
        },
        {
          "internalType": "uint256",
          "name": "referralCommission",
          "type": "uint256"
        },
        {
          "internalType": "address",
          "name": "bankerWallet",
          "type": "address"
        }
      ],
      "name": "getTable",
      "outputs": [
        {
          "internalType": "address",
          "name": "table",
          "type": "address"
        }
      ],
      "stateMutability": "view",
      "type": "function"
    },
    {
      "inputs": [],
      "name": "owner",
      "outputs": [
        {
          "internalType": "address",
          "name": "",
          "type": "address"
        }
      ],
      "stateMutability": "view",
      "type": "function"
    },
    {
      "inputs": [],
      "name": "params",
      "outputs": [
        {
          "internalType": "address",
          "name": "factory",
          "type": "address"
        },
        {
          "internalType": "address",
          "name": "creator",
          "type": "address"
        },
        {
          "internalType": "uint256",
          "name": "amount",
          "type": "uint256"
        },
        {
          "internalType": "uint256",
          "name": "minPPL",
          "type": "uint256"
        },
        {
          "internalType": "uint256",
          "name": "maxPPL",
          "type": "uint256"
        },
        {
          "internalType": "uint256",
          "name": "coolDownTime",
          "type": "uint256"
        },
        {
          "internalType": "uint256",
          "name": "gameTime",
          "type": "uint256"
        },
        {
          "internalType": "uint256",
          "name": "bankerCommission",
          "type": "uint256"
        },
        {
          "internalType": "uint256",
          "name": "referralCommission",
          "type": "uint256"
        },
        {
          "internalType": "address",
          "name": "bankerWallet",
          "type": "address"
        }
      ],
      "stateMutability": "view",
      "type": "function"
    },
    {
      "inputs": [
        {
          "internalType": "address",
          "name": "_owner",
          "type": "address"
        }
      ],
      "name": "setOwner",
      "outputs": [],
      "stateMutability": "nonpayable",
      "type": "function"
    }
  ],
  "bytecode": "0x60a060405234801561001057600080fd5b503060601b608052600a80546001600160a01b031916339081179091556040516000907fb532073b38c83145e3e5135377a08bf9aab55bc0fd7c1179cd4fb995d2a5159c908290a360805160601c612814610076600039600061051e01526128146000f3fe608060405234801561001057600080fd5b50600436106100625760003560e01c806313af4035146100675780637948e0001461007c5780638da5cb5b146100ac578063a5ea11da146100bf578063cff0ab96146100d4578063db237efc14610169575b600080fd5b61007a61007536600461077f565b61017c565b005b61008f61008a3660046107a0565b6101ef565b6040516001600160a01b0390911681526020015b60405180910390f35b600a5461008f906001600160a01b031681565b6100c76103c8565b6040516100a391906108bd565b600054600154600254600354600454600554600654600754600854600954610110996001600160a01b039081169981169897969594939291168a565b604080516001600160a01b039b8c168152998b1660208b01528901979097526060880195909552608087019390935260a086019190915260c085015260e0840152610100830152909116610120820152610140016100a3565b61008f6101773660046107a0565b6104a9565b600a546001600160a01b0316331461019357600080fd5b600a546040516001600160a01b038084169216907fb532073b38c83145e3e5135377a08bf9aab55bc0fd7c1179cd4fb995d2a5159c90600090a3600a80546001600160a01b0319166001600160a01b0392909216919091179055565b60006101f9610513565b6001600160a01b038a1661020c57600080fd5b6000891161021957600080fd5b6000881161022657600080fd5b6000871161023357600080fd5b6000861161024057600080fd5b6000851161024d57600080fd5b6000841161025a57600080fd5b6000831161026757600080fd5b6001600160a01b03821661027a57600080fd5b6000898989898989898960405160200161029b989796959493929190610816565b60408051601f19818403018152828252805160209182012083830190925260048352630d0c2e6d60e31b9083015291506102d5908261054a565b6001600160a01b038b81166000908152600b60209081526040808320858452909152902054161561030557600080fd5b610317308c8c8c8c8c8c8c8c8c610593565b6001600160a01b038c81166000818152600b6020908152604080832087845282529182902080546001600160a01b031916868616179055815192835282018e905281018c9052606081018b9052608081018a905260a0810189905260c0810188905260e081018790529085166101008201529092507fde21502196fedda3172f49e07096afe58333a70e6e2f4da4e0c235b3845db91d906101200160405180910390a1509998505050505050505050565b61043960405180610140016040528060006001600160a01b0316815260200160006001600160a01b031681526020016000815260200160008152602001600081526020016000815260200160008152602001600081526020016000815260200160006001600160a01b031681525090565b5060408051610140810182526000546001600160a01b03908116825260015481166020830152600254928201929092526003546060820152600454608082015260055460a082015260065460c082015260075460e082015260085461010082015260095490911661012082015290565b60008089898989898989896040516020016104cb989796959493929190610816565b60408051601f1981840301815291815281516020928301206001600160a01b039d8e166000908152600b84528281209181529252902054909a169a9950505050505050505050565b306001600160a01b037f0000000000000000000000000000000000000000000000000000000000000000161461054857600080fd5b565b61058f8282604051602401610560929190610862565b60408051601f198184030181529190526020810180516001600160e01b03166309710a9d60e41b179052610735565b5050565b60408051610140810182526001600160a01b03808d168083528c821660208085018290528486018e9052606085018d9052608085018c905260a085018b905260c085018a905260e085018990526101008501889052928616610120909401849052600080546001600160a01b0319908116909317815560018054841690921790915560028d905560038c905560048b905560058a90556006899055600788905560088790556009805490921690931790559151909161069c918b918b918b918b918b918b918b918b9101978852602088019690965260408701949094526060860192909252608085015260a084015260c08301526001600160a01b031660e08201526101000190565b604051602081830303815290604052805190602001206040516106be90610756565b8190604051809103906000f59050801580156106de573d6000803e3d6000fd5b50600080546001600160a01b0319908116825560018054821690556002829055600382905560048290556005829055600682905560078290556008919091556009805490911690559b9a5050505050505050505050565b80516a636f6e736f6c652e6c6f67602083016000808483855afa5050505050565b611e898061095683390190565b80356001600160a01b038116811461077a57600080fd5b919050565b600060208284031215610790578081fd5b61079982610763565b9392505050565b60008060008060008060008060006101208a8c0312156107be578485fd5b6107c78a610763565b985060208a0135975060408a0135965060608a0135955060808a0135945060a08a0135935060c08a0135925060e08a013591506108076101008b01610763565b90509295985092959850929598565b97885260208801969096526040870194909452606080870193909352608086019190915260a085015260c08401919091521b6bffffffffffffffffffffffff191660e082015260f40190565b6040815260008351806040840152815b8181101561088f5760208187018101516060868401015201610872565b818111156108a05782606083860101525b50602083019390935250601f91909101601f191601606001919050565b81516001600160a01b03168152610140810160208301516108e960208401826001600160a01b03169052565b5060408301516040830152606083015160608301526080830151608083015260a083015160a083015260c083015160c083015260e083015160e08301526101008084015181840152506101208084015161094d828501826001600160a01b03169052565b50509291505056fe60a06040526040516200001290620001d8565b604051809103906000f0801580156200002f573d6000803e3d6000fd5b50600a80546001600160a01b0319166001600160a01b03929092169190911790553480156200005d57600080fd5b50600080546001600160a01b0319167373f7ff55196c525a8273c766beea3f61d1b829b2178155604080516352f508ed60e11b81529051339163a5ea11da91600480830192610140929190829003018186803b158015620000bd57600080fd5b505afa158015620000d2573d6000803e3d6000fd5b505050506040513d601f19601f82011682018060405250810190620000f8919062000203565b80516001600160601b0319606091821b1660809081526040805161012080820183526020808701516001600160a01b039081168085528589018051938601849052888a0151968601879052878a01519886018990525196850187905260c0808a015160a0870181905260e0808c0151928801839052610100808d015191890182905296909b015190931694909501849052600180546001600160a01b0319908116909217905560029290925560039490945560049590955560059390935560069190915560075560089290925560098054909116909117905550620002db565b610609806200188083390190565b80516001600160a01b0381168114620001fe57600080fd5b919050565b6000610140828403121562000216578081fd5b62000220620002a3565b6200022b83620001e6565b81526200023b60208401620001e6565b602082015260408301516040820152606083015160608201526080830151608082015260a083015160a082015260c083015160c082015260e083015160e082015261010080840151818301525061012062000298818501620001e6565b908201529392505050565b60405161014081016001600160401b0381118282101715620002d557634e487b7160e01b600052604160045260246000fd5b60405290565b60805160601c611587620002f96000396000606001526115876000f3fe60806040526004361061003f5760003560e01c8063be9a655514610044578063c45a01551461004e578063d707a2c41461009f578063fbe25d4714610132575b600080fd5b61004c610145565b005b34801561005a57600080fd5b506100827f000000000000000000000000000000000000000000000000000000000000000081565b6040516001600160a01b0390911681526020015b60405180910390f35b3480156100ab57600080fd5b506001546002546003546004546005546006546007546008546009546100e2986001600160a01b0390811698979695949392911689565b604080516001600160a01b039a8b16815260208101999099528801969096526060870194909452608086019290925260a085015260c084015260e083015290911661010082015261012001610096565b61004c610140366004610d46565b6105df565b600061020b600a60009054906101000a90046001600160a01b03166001600160a01b0316638b5b9ccc6040518163ffffffff1660e01b815260040160006040518083038186803b15801561019857600080fd5b505afa1580156101ac573d6000803e3d6000fd5b505050506040513d6000823e601f3d908101601f191682016040526101d49190810190610c72565b5160408051426020808301919091524482840152606080830194909452825180830390940184526080909101909152815191012090565b9050600061021a82600a610b75565b9050610244604051806040016040528060068152602001651c995cdd5b1d60d21b81525082610b88565b600a5460405163760e116d60e01b8152600481018390526000916001600160a01b03169063760e116d9060240160006040518083038186803b15801561028957600080fd5b505afa15801561029d573d6000803e3d6000fd5b505050506040513d6000823e601f3d908101601f191682016040526102c59190810190610c72565b600080546040516370a0823160e01b815233600482015292935090916001600160a01b03909116906370a082319060240160206040518083038186803b15801561030e57600080fd5b505afa158015610322573d6000803e3d6000fd5b505050506040513d601f19601f820116820180604052508101906103469190610dc4565b90508151600014156103e3576000546009546040516323b872dd60e01b81526001600160a01b03928316926323b872dd9261038b923392909116908690600401610ddc565b602060405180830381600087803b1580156103a557600080fd5b505af11580156103b9573d6000803e3d6000fd5b505050506040513d601f19601f820116820180604052508101906103dd9190610d26565b506105d1565b600a5460405163478a1cbf60e01b8152600481018590526000916001600160a01b03169063478a1cbf9060240160206040518083038186803b15801561042857600080fd5b505afa15801561043c573d6000803e3d6000fd5b505050506040513d601f19601f820116820180604052508101906104609190610dc4565b905060005b83518110156105ce57600084828151811061049057634e487b7160e01b600052603260045260246000fd5b6020908102919091010151600a54604051634f0cd27b60e01b81526001600160a01b03808416600483015292935060009290911690634f0cd27b9060240160206040518083038186803b1580156104e657600080fd5b505afa1580156104fa573d6000803e3d6000fd5b505050506040513d601f19601f8201168201806040525081019061051e9190610dc4565b6000549091506001600160a01b03166323b872dd3384610548610541868a610bd1565b8a90610bdd565b6040518463ffffffff1660e01b815260040161056693929190610ddc565b602060405180830381600087803b15801561058057600080fd5b505af1158015610594573d6000803e3d6000fd5b505050506040513d601f19601f820116820180604052508101906105b89190610d26565b50505080806105c690610ebf565b915050610465565b50505b6105d9610be9565b50505050565b604080518082018252601e81527f726f756e64496e666f2e676574436f756e74286d73672e73656e6465722900006020820152600a549151634f0cd27b60e01b8152336004820152610694926001600160a01b031690634f0cd27b906024015b60206040518083038186803b15801561065757600080fd5b505afa15801561066b573d6000803e3d6000fd5b505050506040513d601f19601f8201168201806040525081019061068f9190610dc4565b610b88565b600a54604051634f0cd27b60e01b81523360048201526001600160a01b0390911690634f0cd27b9060240160206040518083038186803b1580156106d757600080fd5b505afa1580156106eb573d6000803e3d6000fd5b505050506040513d601f19601f8201168201806040525081019061070f9190610dc4565b156107515760405162461bcd60e51b815260206004820152600e60248201526d191d5c1b1a58d85d19590818995d60921b604482015260640160405180910390fd5b61077c604051806040016040528060098152602001686d73672e76616c756560b81b81525034610b88565b6000546040516323b872dd60e01b81526001600160a01b03909116906323b872dd906107b090339030903490600401610ddc565b602060405180830381600087803b1580156107ca57600080fd5b505af11580156107de573d6000803e3d6000fd5b505050506040513d601f19601f820116820180604052508101906108029190610d26565b50604080518082018252601681527530b2323932b9b9943a3434b994903130b630b731b29d60511b602082015260005491516370a0823160e01b8152306004820152610860926001600160a01b0316906370a082319060240161063f565b60075460009061087290612710610bd1565b61087c9034610ea0565b6000546009546040516323b872dd60e01b81529293506001600160a01b03918216926323b872dd926108b79233929116908690600401610ddc565b602060405180830381600087803b1580156108d157600080fd5b505af11580156108e5573d6000803e3d6000fd5b505050506040513d601f19601f820116820180604052508101906109099190610d26565b5060408201516001600160a01b0316156109c95760085460009061092f90612710610bd1565b6109399034610ea0565b60005460408086015190516323b872dd60e01b81529293506001600160a01b03909116916323b872dd91610974913391908690600401610ddc565b602060405180830381600087803b15801561098e57600080fd5b505af11580156109a2573d6000803e3d6000fd5b505050506040513d601f19601f820116820180604052508101906109c69190610d26565b50505b600a54604051630640ef8160e11b81523360048201526001600160a01b0390911690630c81df0290602401600060405180830381600087803b158015610a0e57600080fd5b505af1158015610a22573d6000803e3d6000fd5b5050600a548451604051630a4341ab60e41b815233600482015263ffffffff90911660248201526001600160a01b03909116925063a4341ab09150604401600060405180830381600087803b158015610a7a57600080fd5b505af1158015610a8e573d6000803e3d6000fd5b5050600a54602085015160405163108b42ef60e31b815233600482015260ff90911660248201526001600160a01b03909116925063845a17789150604401600060405180830381600087803b158015610ae657600080fd5b505af1158015610afa573d6000803e3d6000fd5b5050600a546020850151855160405163bda642ef60e01b815260ff909216600483015263ffffffff1660248201526001600160a01b03909116925063bda642ef9150604401600060405180830381600087803b158015610b5957600080fd5b505af1158015610b6d573d6000803e3d6000fd5b505050505050565b6000610b818284610eda565b9392505050565b610bcd8282604051602401610b9e929190610e00565b60408051601f198184030181529190526020810180516001600160e01b03166309710a9d60e41b179052610c44565b5050565b6000610b818284610e8c565b6000610b818284610ea0565b600a80546001600160a01b0319169055604051610c0590610c65565b604051809103906000f080158015610c21573d6000803e3d6000fd5b50600a80546001600160a01b0319166001600160a01b0392909216919091179055565b80516a636f6e736f6c652e6c6f67602083016000808483855afa5050505050565b61060980610f4983390190565b60006020808385031215610c84578182fd5b825167ffffffffffffffff80821115610c9b578384fd5b818501915085601f830112610cae578384fd5b815181811115610cc057610cc0610f1a565b8060051b9150610cd1848301610e5b565b8181528481019084860184860187018a1015610ceb578788fd5b8795505b83861015610d195780519450610d0485610f30565b84835260019590950194918601918601610cef565b5098975050505050505050565b600060208284031215610d37578081fd5b81518015158114610b81578182fd5b600060608284031215610d57578081fd5b6040516060810181811067ffffffffffffffff82111715610d7a57610d7a610f1a565b604052823563ffffffff81168114610d90578283fd5b8152602083013560ff81168114610da5578283fd5b60208201526040830135610db881610f30565b60408201529392505050565b600060208284031215610dd5578081fd5b5051919050565b6001600160a01b039384168152919092166020820152604081019190915260600190565b6040815260008351806040840152815b81811015610e2d5760208187018101516060868401015201610e10565b81811115610e3e5782606083860101525b50602083019390935250601f91909101601f191601606001919050565b604051601f8201601f1916810167ffffffffffffffff81118282101715610e8457610e84610f1a565b604052919050565b600082610e9b57610e9b610f04565b500490565b6000816000190483118215151615610eba57610eba610eee565b500290565b6000600019821415610ed357610ed3610eee565b5060010190565b600082610ee957610ee9610f04565b500690565b634e487b7160e01b600052601160045260246000fd5b634e487b7160e01b600052601260045260246000fd5b634e487b7160e01b600052604160045260246000fd5b6001600160a01b0381168114610f4557600080fd5b5056fe608060405234801561001057600080fd5b506105e9806100206000396000f3fe608060405234801561001057600080fd5b50600436106100ea5760003560e01c80638b5b9ccc1161008c578063bda642ef11610066578063bda642ef146102bc578063df15c37e14610261578063e4064c4e146102cf578063f71d96cb1461032e57600080fd5b80638b5b9ccc14610261578063942ea46614610269578063a4341ab01461029257600080fd5b80634f0cd27b116100c85780634f0cd27b146101ce578063760e116d146101f75780637b5e6f6b14610217578063845a17781461023757600080fd5b80630c81df02146100ef578063276df0d11461014e578063478a1cbf1461019b575b600080fd5b61014c6100fd366004610494565b600080546001810182559080527f290decd9548b62a8d60345a988386fc84ba6bc95484008f6362f93160ef3e5630180546001600160a01b0319166001600160a01b0392909216919091179055565b005b61014c61015c3660046104f6565b600091825260056020908152604083208054600181018255908452922090910180546001600160a01b0319166001600160a01b03909216919091179055565b6101bb6101a93660046104de565b60009081526006602052604090205490565b6040519081526020015b60405180910390f35b6101bb6101dc366004610494565b6001600160a01b031660009081526002602052604090205490565b61020a6102053660046104de565b610359565b6040516101c59190610542565b6101bb610225366004610494565b60026020526000908152604090205481565b61014c6102453660046104b5565b6001600160a01b03909116600090815260036020526040902055565b61020a6103c5565b6101bb610277366004610494565b6001600160a01b031660009081526003602052604090205490565b61014c6102a03660046104b5565b6001600160a01b03909116600090815260026020526040902055565b61014c6102ca366004610521565b610427565b61014c6102dd366004610494565b6001805480820182556000919091527fb10e2d527612073b26eecdfd717e6a320cf44b4afac2b0732d9fcbe2b7fa0cf60180546001600160a01b0319166001600160a01b0392909216919091179055565b61034161033c3660046104de565b61044e565b6040516001600160a01b0390911681526020016101c5565b6000818152600560209081526040918290208054835181840281018401909452808452606093928301828280156103b957602002820191906000526020600020905b81546001600160a01b0316815260019091019060200180831161039b575b50505050509050919050565b6060600080548060200260200160405190810160405280929190818152602001828054801561041d57602002820191906000526020600020905b81546001600160a01b031681526001909101906020018083116103ff575b5050505050905090565b6000828152600660205260408120805483929061044590849061058f565b90915550505050565b6000818154811061045e57600080fd5b6000918252602090912001546001600160a01b0316905081565b80356001600160a01b038116811461048f57600080fd5b919050565b6000602082840312156104a5578081fd5b6104ae82610478565b9392505050565b600080604083850312156104c7578081fd5b6104d083610478565b946020939093013593505050565b6000602082840312156104ef578081fd5b5035919050565b60008060408385031215610508578182fd5b8235915061051860208401610478565b90509250929050565b60008060408385031215610533578182fd5b50508035926020909101359150565b6020808252825182820181905260009190848201906040850190845b818110156105835783516001600160a01b03168352928401929184019160010161055e565b50909695505050505050565b600082198211156105ae57634e487b7160e01b81526011600452602481fd5b50019056fea26469706673582212203456fa8f16a30834e1c4a64b881e747c2db8adb12e9827e9a7cb60c3c56f893364736f6c63430008040033a2646970667358221220813379c9c457f79e9acaccd1ac02375cb0df5207f4632b476475ba5da0624b1f64736f6c63430008040033608060405234801561001057600080fd5b506105e9806100206000396000f3fe608060405234801561001057600080fd5b50600436106100ea5760003560e01c80638b5b9ccc1161008c578063bda642ef11610066578063bda642ef146102bc578063df15c37e14610261578063e4064c4e146102cf578063f71d96cb1461032e57600080fd5b80638b5b9ccc14610261578063942ea46614610269578063a4341ab01461029257600080fd5b80634f0cd27b116100c85780634f0cd27b146101ce578063760e116d146101f75780637b5e6f6b14610217578063845a17781461023757600080fd5b80630c81df02146100ef578063276df0d11461014e578063478a1cbf1461019b575b600080fd5b61014c6100fd366004610494565b600080546001810182559080527f290decd9548b62a8d60345a988386fc84ba6bc95484008f6362f93160ef3e5630180546001600160a01b0319166001600160a01b0392909216919091179055565b005b61014c61015c3660046104f6565b600091825260056020908152604083208054600181018255908452922090910180546001600160a01b0319166001600160a01b03909216919091179055565b6101bb6101a93660046104de565b60009081526006602052604090205490565b6040519081526020015b60405180910390f35b6101bb6101dc366004610494565b6001600160a01b031660009081526002602052604090205490565b61020a6102053660046104de565b610359565b6040516101c59190610542565b6101bb610225366004610494565b60026020526000908152604090205481565b61014c6102453660046104b5565b6001600160a01b03909116600090815260036020526040902055565b61020a6103c5565b6101bb610277366004610494565b6001600160a01b031660009081526003602052604090205490565b61014c6102a03660046104b5565b6001600160a01b03909116600090815260026020526040902055565b61014c6102ca366004610521565b610427565b61014c6102dd366004610494565b6001805480820182556000919091527fb10e2d527612073b26eecdfd717e6a320cf44b4afac2b0732d9fcbe2b7fa0cf60180546001600160a01b0319166001600160a01b0392909216919091179055565b61034161033c3660046104de565b61044e565b6040516001600160a01b0390911681526020016101c5565b6000818152600560209081526040918290208054835181840281018401909452808452606093928301828280156103b957602002820191906000526020600020905b81546001600160a01b0316815260019091019060200180831161039b575b50505050509050919050565b6060600080548060200260200160405190810160405280929190818152602001828054801561041d57602002820191906000526020600020905b81546001600160a01b031681526001909101906020018083116103ff575b5050505050905090565b6000828152600660205260408120805483929061044590849061058f565b90915550505050565b6000818154811061045e57600080fd5b6000918252602090912001546001600160a01b0316905081565b80356001600160a01b038116811461048f57600080fd5b919050565b6000602082840312156104a5578081fd5b6104ae82610478565b9392505050565b600080604083850312156104c7578081fd5b6104d083610478565b946020939093013593505050565b6000602082840312156104ef578081fd5b5035919050565b60008060408385031215610508578182fd5b8235915061051860208401610478565b90509250929050565b60008060408385031215610533578182fd5b50508035926020909101359150565b6020808252825182820181905260009190848201906040850190845b818110156105835783516001600160a01b03168352928401929184019160010161055e565b50909695505050505050565b600082198211156105ae57634e487b7160e01b81526011600452602481fd5b50019056fea26469706673582212203456fa8f16a30834e1c4a64b881e747c2db8adb12e9827e9a7cb60c3c56f893364736f6c63430008040033a26469706673582212208f506f9afe7657634e58f63307dc02f3aca323d0c0ad75d2c9e96ea05315f9bf64736f6c63430008040033",
  "linkReferences": {},
  "deployedLinkReferences": {}
}