{
  "_format": "hh-sol-artifact-1",
  "contractName": "LotteryFactory",
  "sourceName": "contracts/LotteryFactory.sol",
  "abi": [
    {
      "inputs": [],
      "stateMutability": "nonpayable",
      "type": "constructor"
    },
    {
      "anonymous": false,
      "inputs": [
        {
          "indexed": true,
          "internalType": "address",
          "name": "oldOwner",
          "type": "address"
        },
        {
          "indexed": true,
          "internalType": "address",
          "name": "newOwner",
          "type": "address"
        }
      ],
      "name": "OwnerChanged",
      "type": "event"
    },
    {
      "anonymous": false,
      "inputs": [
        {
          "indexed": false,
          "internalType": "address",
          "name": "creator",
          "type": "address"
        },
        {
          "indexed": false,
          "internalType": "uint256",
          "name": "amount",
          "type": "uint256"
        },
        {
          "indexed": false,
          "internalType": "uint256",
          "name": "minPPL",
          "type": "uint256"
        },
        {
          "indexed": false,
          "internalType": "uint256",
          "name": "maxPPL",
          "type": "uint256"
        },
        {
          "indexed": false,
          "internalType": "uint256",
          "name": "coolDownTime",
          "type": "uint256"
        },
        {
          "indexed": false,
          "internalType": "uint256",
          "name": "gameTime",
          "type": "uint256"
        },
        {
          "indexed": false,
          "internalType": "uint256",
          "name": "bankerCommission",
          "type": "uint256"
        },
        {
          "indexed": false,
          "internalType": "uint256",
          "name": "referralCommission",
          "type": "uint256"
        },
        {
          "indexed": false,
          "internalType": "address",
          "name": "bankerWallet",
          "type": "address"
        }
      ],
      "name": "tableCreated",
      "type": "event"
    },
    {
      "inputs": [],
      "name": "_params",
      "outputs": [
        {
          "internalType": "address",
          "name": "factory",
          "type": "address"
        },
        {
          "internalType": "address",
          "name": "creator",
          "type": "address"
        },
        {
          "internalType": "uint256",
          "name": "amount",
          "type": "uint256"
        },
        {
          "internalType": "uint256",
          "name": "minPPL",
          "type": "uint256"
        },
        {
          "internalType": "uint256",
          "name": "maxPPL",
          "type": "uint256"
        },
        {
          "internalType": "uint256",
          "name": "coolDownTime",
          "type": "uint256"
        },
        {
          "internalType": "uint256",
          "name": "gameTime",
          "type": "uint256"
        },
        {
          "internalType": "uint256",
          "name": "bankerCommission",
          "type": "uint256"
        },
        {
          "internalType": "uint256",
          "name": "referralCommission",
          "type": "uint256"
        },
        {
          "internalType": "address",
          "name": "bankerWallet",
          "type": "address"
        }
      ],
      "stateMutability": "view",
      "type": "function"
    },
    {
      "inputs": [
        {
          "internalType": "address",
          "name": "creator",
          "type": "address"
        },
        {
          "internalType": "uint256",
          "name": "amount",
          "type": "uint256"
        },
        {
          "internalType": "uint256",
          "name": "minPPL",
          "type": "uint256"
        },
        {
          "internalType": "uint256",
          "name": "maxPPL",
          "type": "uint256"
        },
        {
          "internalType": "uint256",
          "name": "coolDownTime",
          "type": "uint256"
        },
        {
          "internalType": "uint256",
          "name": "gameTime",
          "type": "uint256"
        },
        {
          "internalType": "uint256",
          "name": "bankerCommission",
          "type": "uint256"
        },
        {
          "internalType": "uint256",
          "name": "referralCommission",
          "type": "uint256"
        },
        {
          "internalType": "address",
          "name": "bankerWallet",
          "type": "address"
        }
      ],
      "name": "createTable",
      "outputs": [
        {
          "internalType": "address",
          "name": "table",
          "type": "address"
        }
      ],
      "stateMutability": "nonpayable",
      "type": "function"
    },
    {
      "inputs": [],
      "name": "getParameters",
      "outputs": [
        {
          "components": [
            {
              "internalType": "address",
              "name": "factory",
              "type": "address"
            },
            {
              "internalType": "address",
              "name": "creator",
              "type": "address"
            },
            {
              "internalType": "uint256",
              "name": "amount",
              "type": "uint256"
            },
            {
              "internalType": "uint256",
              "name": "minPPL",
              "type": "uint256"
            },
            {
              "internalType": "uint256",
              "name": "maxPPL",
              "type": "uint256"
            },
            {
              "internalType": "uint256",
              "name": "coolDownTime",
              "type": "uint256"
            },
            {
              "internalType": "uint256",
              "name": "gameTime",
              "type": "uint256"
            },
            {
              "internalType": "uint256",
              "name": "bankerCommission",
              "type": "uint256"
            },
            {
              "internalType": "uint256",
              "name": "referralCommission",
              "type": "uint256"
            },
            {
              "internalType": "address",
              "name": "bankerWallet",
              "type": "address"
            }
          ],
          "internalType": "struct ILotteryTableDeployer.Parameters",
          "name": "parameters",
          "type": "tuple"
        }
      ],
      "stateMutability": "view",
      "type": "function"
    },
    {
      "inputs": [
        {
          "internalType": "address",
          "name": "creator",
          "type": "address"
        },
        {
          "internalType": "uint256",
          "name": "amount",
          "type": "uint256"
        },
        {
          "internalType": "uint256",
          "name": "minPPL",
          "type": "uint256"
        },
        {
          "internalType": "uint256",
          "name": "maxPPL",
          "type": "uint256"
        },
        {
          "internalType": "uint256",
          "name": "coolDownTime",
          "type": "uint256"
        },
        {
          "internalType": "uint256",
          "name": "gameTime",
          "type": "uint256"
        },
        {
          "internalType": "uint256",
          "name": "bankerCommission",
          "type": "uint256"
        },
        {
          "internalType": "uint256",
          "name": "referralCommission",
          "type": "uint256"
        },
        {
          "internalType": "address",
          "name": "bankerWallet",
          "type": "address"
        }
      ],
      "name": "getTable",
      "outputs": [
        {
          "internalType": "address",
          "name": "table",
          "type": "address"
        }
      ],
      "stateMutability": "view",
      "type": "function"
    },
    {
      "inputs": [],
      "name": "owner",
      "outputs": [
        {
          "internalType": "address",
          "name": "",
          "type": "address"
        }
      ],
      "stateMutability": "view",
      "type": "function"
    },
    {
      "inputs": [
        {
          "internalType": "address",
          "name": "_owner",
          "type": "address"
        }
      ],
      "name": "setOwner",
      "outputs": [],
      "stateMutability": "nonpayable",
      "type": "function"
    }
  ],
  "bytecode": "0x60a060405234801561001057600080fd5b503060601b608052600a80546001600160a01b031916339081179091556040516000907fb532073b38c83145e3e5135377a08bf9aab55bc0fd7c1179cd4fb995d2a5159c908290a360805160601c610dac61007660003960006105570152610dac6000f3fe608060405234801561001057600080fd5b50600436106100625760003560e01c806313af403514610067578063552b16ab1461007c5780637948e000146101165780638da5cb5b14610141578063a5ea11da14610154578063db237efc14610169575b600080fd5b61007a6100753660046107c1565b61017c565b005b6000546001546002546003546004546005546006546007546008546009546100b8996001600160a01b039081169981169897969594939291168a565b604080516001600160a01b039b8c168152998b1660208b01528901979097526060880195909552608087019390935260a086019190915260c085015260e0840152610100830152909116610120820152610140015b60405180910390f35b6101296101243660046107e2565b6101ef565b6040516001600160a01b03909116815260200161010d565b600a54610129906001600160a01b031681565b61015c6103aa565b60405161010d9190610987565b6101296101773660046107e2565b61048b565b600a546001600160a01b0316331461019357600080fd5b600a546040516001600160a01b038084169216907fb532073b38c83145e3e5135377a08bf9aab55bc0fd7c1179cd4fb995d2a5159c90600090a3600a80546001600160a01b0319166001600160a01b0392909216919091179055565b60006101f961054c565b6001600160a01b038a1661020c57600080fd5b6000891161021957600080fd5b6000881161022657600080fd5b6000871161023357600080fd5b6000861161024057600080fd5b6000851161024d57600080fd5b6000841161025a57600080fd5b6000831161026757600080fd5b6001600160a01b03821661027a57600080fd5b6000898989898989898960405160200161029b9897969594939291906108a3565b60408051601f19818403018152828252805160209182012083830190925260048352630d0c2e6d60e31b9083015291506102d59082610583565b6001600160a01b038b81166000908152600b60209081526040808320858452909152902054161561030557600080fd5b610317308c8c8c8c8c8c8c8c8c6105cc565b6001600160a01b038c81166000908152600b602090815260408083208684529091529081902080546001600160a01b03191692841692909217909155519092507fde21502196fedda3172f49e07096afe58333a70e6e2f4da4e0c235b3845db91d90610394908d908d908d908d908d908d908d908d908d906108ef565b60405180910390a1509998505050505050505050565b61041b60405180610140016040528060006001600160a01b0316815260200160006001600160a01b031681526020016000815260200160008152602001600081526020016000815260200160008152602001600081526020016000815260200160006001600160a01b031681525090565b5060408051610140810182526000546001600160a01b03908116825260015481166020830152600254928201929092526003546060820152600454608082015260055460a082015260065460c082015260075460e082015260085461010082015260095490911661012082015290565b60008089898989898989896040516020016104ad9897969594939291906108a3565b6040516020818303038152906040528051906020012060001c9050600b60008c6001600160a01b03166001600160a01b03168152602001908152602001600020600082815260200190815260200160002060009054906101000a90046001600160a01b0316915061053e604051806040016040528060088152602001676765745461626c6560c01b81525083610736565b509998505050505050505050565b306001600160a01b037f0000000000000000000000000000000000000000000000000000000000000000161461058157600080fd5b565b6105c88282604051602401610599929190610965565b60408051601f198184030181529190526020810180516001600160e01b03166309710a9d60e41b179052610777565b5050565b60408051610140810182526001600160a01b03808d168083528c821660208085018290528486018e9052606085018d9052608085018c905260a085018b905260c085018a905260e085018990526101008501889052928616610120909401849052600080546001600160a01b0319908116909317815560018054841690921790915560028d905560038c905560048b905560058a90556006899055600788905560088790556009805490921690931790559151909161069d918c918c918c918c918c918c918c918c918c91016108ef565b604051602081830303815290604052805190602001206040516106bf90610798565b8190604051809103906000f59050801580156106df573d6000803e3d6000fd5b50600080546001600160a01b0319908116825560018054821690556002829055600382905560048290556005829055600682905560078290556008919091556009805490911690559b9a5050505050505050505050565b6105c8828260405160240161074c92919061093b565b60408051601f198184030181529190526020810180516001600160e01b031663319af33360e01b1790525b80516a636f6e736f6c652e6c6f67602083016000808483855afa5050505050565b61035780610a2083390190565b80356001600160a01b03811681146107bc57600080fd5b919050565b6000602082840312156107d2578081fd5b6107db826107a5565b9392505050565b60008060008060008060008060006101208a8c031215610800578485fd5b6108098a6107a5565b985060208a0135975060408a0135965060608a0135955060808a0135945060a08a0135935060c08a0135925060e08a013591506108496101008b016107a5565b90509295985092959850929598565b60008151808452815b8181101561087d57602081850181015186830182015201610861565b8181111561088e5782602083870101525b50601f01601f19169290920160200192915050565b97885260208801969096526040870194909452606080870193909352608086019190915260a085015260c08401919091521b6bffffffffffffffffffffffff191660e082015260f40190565b6001600160a01b03998a168152602081019890985260408801969096526060870194909452608086019290925260a085015260c084015260e08301529091166101008201526101200190565b60408152600061094e6040830185610858565b905060018060a01b03831660208301529392505050565b6040815260006109786040830185610858565b90508260208301529392505050565b81516001600160a01b03168152610140810160208301516109b360208401826001600160a01b03169052565b5060408301516040830152606083015160608301526080830151608083015260a083015160a083015260c083015160c083015260e083015160e083015261010080840151818401525061012080840151610a17828501826001600160a01b03169052565b50509291505056fe608060405234801561001057600080fd5b506000336001600160a01b031663a5ea11da6040518163ffffffff1660e01b81526004016101406040518083038186803b15801561004d57600080fd5b505afa158015610061573d6000803e3d6000fd5b505050506040513d601f19601f820116820180604052508101906100859190610180565b604080516101408101825282516001600160a01b0390811680835260208086015183169084018190528486018051958501869052606080880151908601819052608080890151908701819052915160a0870181905260c0808a015190880181905260e0808b0151908901819052610100808c0151908a018190526101209b8c01519098169a9098018a9052600080546001600160a01b031990811690971790556001805487169095179094556002979097556003556004556005949094556006939093556007919091556008556009805490911690911790555061024e565b80516001600160a01b038116811461017b57600080fd5b919050565b60006101408284031215610192578081fd5b61019a610217565b6101a383610164565b81526101b160208401610164565b602082015260408301516040820152606083015160608201526080830151608082015260a083015160a082015260c083015160c082015260e083015160e082015261010080840151818301525061012061020c818501610164565b908201529392505050565b60405161014081016001600160401b038111828210171561024857634e487b7160e01b600052604160045260246000fd5b60405290565b60fb8061025c6000396000f3fe6080604052348015600f57600080fd5b506004361060285760003560e01c8063d707a2c414602d575b600080fd5b6000546001546002546003546004546005546006546007546008546009546068996001600160a01b039081169981169897969594939291168a565b604080516001600160a01b039b8c168152998b1660208b01528901979097526060880195909552608087019390935260a086019190915260c085015260e08401526101008301529091166101208201526101400160405180910390f3fea26469706673582212208e13afdc9a986ea61963fa08fb6fe6fad315a23f8780fef14003910bf546329364736f6c63430008040033a2646970667358221220df9b76a63baed286d4b4fd8be08fd9a8eedd7ecccae9f7ac6ef7685bd4c9fcae64736f6c63430008040033",
  "linkReferences": {},
  "deployedLinkReferences": {}
}