{
  "_format": "hh-sol-artifact-1",
  "contractName": "RoundInfo",
  "sourceName": "contracts/RoundInfo.sol",
  "abi": [
    {
      "inputs": [
        {
          "internalType": "uint256",
          "name": "number",
          "type": "uint256"
        },
        {
          "internalType": "uint256",
          "name": "count",
          "type": "uint256"
        }
      ],
      "name": "addNumberCount",
      "outputs": [],
      "stateMutability": "nonpayable",
      "type": "function"
    },
    {
      "inputs": [
        {
          "internalType": "address",
          "name": "player",
          "type": "address"
        }
      ],
      "name": "getCount",
      "outputs": [
        {
          "internalType": "uint256",
          "name": "",
          "type": "uint256"
        }
      ],
      "stateMutability": "view",
      "type": "function"
    },
    {
      "inputs": [
        {
          "internalType": "address",
          "name": "player",
          "type": "address"
        }
      ],
      "name": "getNumber",
      "outputs": [
        {
          "internalType": "uint256",
          "name": "",
          "type": "uint256"
        }
      ],
      "stateMutability": "view",
      "type": "function"
    },
    {
      "inputs": [
        {
          "internalType": "uint256",
          "name": "number",
          "type": "uint256"
        }
      ],
      "name": "getNumberCount",
      "outputs": [
        {
          "internalType": "uint256",
          "name": "",
          "type": "uint256"
        }
      ],
      "stateMutability": "view",
      "type": "function"
    },
    {
      "inputs": [
        {
          "internalType": "uint256",
          "name": "number",
          "type": "uint256"
        }
      ],
      "name": "getNumberPlayers",
      "outputs": [
        {
          "internalType": "address[]",
          "name": "",
          "type": "address[]"
        }
      ],
      "stateMutability": "view",
      "type": "function"
    },
    {
      "inputs": [],
      "name": "getPlayers",
      "outputs": [
        {
          "internalType": "address[]",
          "name": "",
          "type": "address[]"
        }
      ],
      "stateMutability": "view",
      "type": "function"
    },
    {
      "inputs": [],
      "name": "getWinners",
      "outputs": [
        {
          "internalType": "address[]",
          "name": "",
          "type": "address[]"
        }
      ],
      "stateMutability": "view",
      "type": "function"
    },
    {
      "inputs": [
        {
          "internalType": "uint256",
          "name": "",
          "type": "uint256"
        }
      ],
      "name": "players",
      "outputs": [
        {
          "internalType": "address",
          "name": "",
          "type": "address"
        }
      ],
      "stateMutability": "view",
      "type": "function"
    },
    {
      "inputs": [
        {
          "internalType": "address",
          "name": "",
          "type": "address"
        }
      ],
      "name": "playersCount",
      "outputs": [
        {
          "internalType": "uint256",
          "name": "",
          "type": "uint256"
        }
      ],
      "stateMutability": "view",
      "type": "function"
    },
    {
      "inputs": [
        {
          "internalType": "address",
          "name": "player",
          "type": "address"
        }
      ],
      "name": "pushPlayers",
      "outputs": [],
      "stateMutability": "nonpayable",
      "type": "function"
    },
    {
      "inputs": [
        {
          "internalType": "address",
          "name": "winner",
          "type": "address"
        }
      ],
      "name": "pushWinners",
      "outputs": [],
      "stateMutability": "nonpayable",
      "type": "function"
    },
    {
      "inputs": [
        {
          "internalType": "address",
          "name": "player",
          "type": "address"
        },
        {
          "internalType": "uint256",
          "name": "count",
          "type": "uint256"
        }
      ],
      "name": "setCount",
      "outputs": [],
      "stateMutability": "nonpayable",
      "type": "function"
    },
    {
      "inputs": [
        {
          "internalType": "address",
          "name": "player",
          "type": "address"
        },
        {
          "internalType": "uint256",
          "name": "number",
          "type": "uint256"
        }
      ],
      "name": "setNumber",
      "outputs": [],
      "stateMutability": "nonpayable",
      "type": "function"
    },
    {
      "inputs": [
        {
          "internalType": "uint256",
          "name": "number",
          "type": "uint256"
        },
        {
          "internalType": "address",
          "name": "player",
          "type": "address"
        }
      ],
      "name": "setNumberPlayers",
      "outputs": [],
      "stateMutability": "nonpayable",
      "type": "function"
    }
  ],
  "bytecode": "0x608060405234801561001057600080fd5b506105e9806100206000396000f3fe608060405234801561001057600080fd5b50600436106100ea5760003560e01c80638b5b9ccc1161008c578063bda642ef11610066578063bda642ef146102bc578063df15c37e14610261578063e4064c4e146102cf578063f71d96cb1461032e57600080fd5b80638b5b9ccc14610261578063942ea46614610269578063a4341ab01461029257600080fd5b80634f0cd27b116100c85780634f0cd27b146101ce578063760e116d146101f75780637b5e6f6b14610217578063845a17781461023757600080fd5b80630c81df02146100ef578063276df0d11461014e578063478a1cbf1461019b575b600080fd5b61014c6100fd366004610494565b600080546001810182559080527f290decd9548b62a8d60345a988386fc84ba6bc95484008f6362f93160ef3e5630180546001600160a01b0319166001600160a01b0392909216919091179055565b005b61014c61015c3660046104f6565b600091825260056020908152604083208054600181018255908452922090910180546001600160a01b0319166001600160a01b03909216919091179055565b6101bb6101a93660046104de565b60009081526006602052604090205490565b6040519081526020015b60405180910390f35b6101bb6101dc366004610494565b6001600160a01b031660009081526002602052604090205490565b61020a6102053660046104de565b610359565b6040516101c59190610542565b6101bb610225366004610494565b60026020526000908152604090205481565b61014c6102453660046104b5565b6001600160a01b03909116600090815260036020526040902055565b61020a6103c5565b6101bb610277366004610494565b6001600160a01b031660009081526003602052604090205490565b61014c6102a03660046104b5565b6001600160a01b03909116600090815260026020526040902055565b61014c6102ca366004610521565b610427565b61014c6102dd366004610494565b6001805480820182556000919091527fb10e2d527612073b26eecdfd717e6a320cf44b4afac2b0732d9fcbe2b7fa0cf60180546001600160a01b0319166001600160a01b0392909216919091179055565b61034161033c3660046104de565b61044e565b6040516001600160a01b0390911681526020016101c5565b6000818152600560209081526040918290208054835181840281018401909452808452606093928301828280156103b957602002820191906000526020600020905b81546001600160a01b0316815260019091019060200180831161039b575b50505050509050919050565b6060600080548060200260200160405190810160405280929190818152602001828054801561041d57602002820191906000526020600020905b81546001600160a01b031681526001909101906020018083116103ff575b5050505050905090565b6000828152600660205260408120805483929061044590849061058f565b90915550505050565b6000818154811061045e57600080fd5b6000918252602090912001546001600160a01b0316905081565b80356001600160a01b038116811461048f57600080fd5b919050565b6000602082840312156104a5578081fd5b6104ae82610478565b9392505050565b600080604083850312156104c7578081fd5b6104d083610478565b946020939093013593505050565b6000602082840312156104ef578081fd5b5035919050565b60008060408385031215610508578182fd5b8235915061051860208401610478565b90509250929050565b60008060408385031215610533578182fd5b50508035926020909101359150565b6020808252825182820181905260009190848201906040850190845b818110156105835783516001600160a01b03168352928401929184019160010161055e565b50909695505050505050565b600082198211156105ae57634e487b7160e01b81526011600452602481fd5b50019056fea26469706673582212203456fa8f16a30834e1c4a64b881e747c2db8adb12e9827e9a7cb60c3c56f893364736f6c63430008040033",
  "linkReferences": {},
  "deployedLinkReferences": {}
}