{
  "_format": "hh-sol-artifact-1",
  "contractName": "LotteryTableDeployer",
  "sourceName": "contracts/LotteryTableDeployer.sol",
  "abi": [
    {
      "inputs": [],
      "name": "getParameters",
      "outputs": [
        {
          "components": [
            {
              "internalType": "address",
              "name": "managerContract",
              "type": "address"
            },
            {
              "internalType": "address",
              "name": "factory",
              "type": "address"
            },
            {
              "internalType": "address",
              "name": "creator",
              "type": "address"
            },
            {
              "internalType": "uint256",
              "name": "amount",
              "type": "uint256"
            },
            {
              "internalType": "uint256",
              "name": "minPPL",
              "type": "uint256"
            },
            {
              "internalType": "uint256",
              "name": "maxPPL",
              "type": "uint256"
            },
            {
              "internalType": "uint256",
              "name": "coolDownTime",
              "type": "uint256"
            },
            {
              "internalType": "uint256",
              "name": "gameTime",
              "type": "uint256"
            },
            {
              "internalType": "uint256",
              "name": "bankerCommission",
              "type": "uint256"
            },
            {
              "internalType": "uint256",
              "name": "referralCommission",
              "type": "uint256"
            },
            {
              "internalType": "address",
              "name": "bankerWallet",
              "type": "address"
            }
          ],
          "internalType": "struct ILotteryTableDeployer.Parameters",
          "name": "parameters",
          "type": "tuple"
        }
      ],
      "stateMutability": "view",
      "type": "function"
    },
    {
      "inputs": [],
      "name": "params",
      "outputs": [
        {
          "internalType": "address",
          "name": "managerContract",
          "type": "address"
        },
        {
          "internalType": "address",
          "name": "factory",
          "type": "address"
        },
        {
          "internalType": "address",
          "name": "creator",
          "type": "address"
        },
        {
          "internalType": "uint256",
          "name": "amount",
          "type": "uint256"
        },
        {
          "internalType": "uint256",
          "name": "minPPL",
          "type": "uint256"
        },
        {
          "internalType": "uint256",
          "name": "maxPPL",
          "type": "uint256"
        },
        {
          "internalType": "uint256",
          "name": "coolDownTime",
          "type": "uint256"
        },
        {
          "internalType": "uint256",
          "name": "gameTime",
          "type": "uint256"
        },
        {
          "internalType": "uint256",
          "name": "bankerCommission",
          "type": "uint256"
        },
        {
          "internalType": "uint256",
          "name": "referralCommission",
          "type": "uint256"
        },
        {
          "internalType": "address",
          "name": "bankerWallet",
          "type": "address"
        }
      ],
      "stateMutability": "view",
      "type": "function"
    }
  ],
  "bytecode": "0x608060405234801561001057600080fd5b506102e5806100206000396000f3fe608060405234801561001057600080fd5b50600436106100365760003560e01c8063a5ea11da1461003b578063cff0ab9614610059575b600080fd5b6100436100fe565b60405161005091906101fa565b60405180910390f35b600054600154600254600354600454600554600654600754600854600954600a5461009b9a6001600160a01b039081169a81169981169897969594939291168b565b604080516001600160a01b039c8d1681529a8c1660208c0152988b16988a01989098526060890196909652608088019490945260a087019290925260c086015260e085015261010084015261012083015290911661014082015261016001610050565b61017f60405180610160016040528060006001600160a01b0316815260200160006001600160a01b0316815260200160006001600160a01b031681526020016000815260200160008152602001600081526020016000815260200160008152602001600081526020016000815260200160006001600160a01b031681525090565b5060408051610160810182526000546001600160a01b039081168252600154811660208301526002548116928201929092526003546060820152600454608082015260055460a082015260065460c082015260075460e0820152600854610100820152600954610120820152600a5490911661014082015290565b81516001600160a01b031681526101608101602083015161022660208401826001600160a01b03169052565b50604083015161024160408401826001600160a01b03169052565b50606083015160608301526080830151608083015260a083015160a083015260c083015160c083015260e083015160e0830152610100808401518184015250610120808401518184015250610140808401516102a7828501826001600160a01b03169052565b50509291505056fea2646970667358221220201be3fc16ec79d4f68e02902ae0fb40329549a6d8f75f15dae4dfe6ae36432464736f6c63430008040033",
  "linkReferences": {},
  "deployedLinkReferences": {}
}