{
  "_format": "hh-sol-artifact-1",
  "contractName": "LotteryTableDeployer",
  "sourceName": "contracts/LotteryTableDeployer.sol",
  "abi": [
    {
      "inputs": [],
      "name": "getParameters",
      "outputs": [
        {
          "components": [
            {
              "internalType": "address",
              "name": "factory",
              "type": "address"
            },
            {
              "internalType": "address",
              "name": "creator",
              "type": "address"
            },
            {
              "internalType": "uint256",
              "name": "amount",
              "type": "uint256"
            },
            {
              "internalType": "uint256",
              "name": "minPPL",
              "type": "uint256"
            },
            {
              "internalType": "uint256",
              "name": "maxPPL",
              "type": "uint256"
            },
            {
              "internalType": "uint256",
              "name": "coolDownTime",
              "type": "uint256"
            },
            {
              "internalType": "uint256",
              "name": "gameTime",
              "type": "uint256"
            },
            {
              "internalType": "uint256",
              "name": "bankerCommission",
              "type": "uint256"
            },
            {
              "internalType": "uint256",
              "name": "referralCommission",
              "type": "uint256"
            },
            {
              "internalType": "address",
              "name": "bankerWallet",
              "type": "address"
            }
          ],
          "internalType": "struct ILotteryTableDeployer.Parameters",
          "name": "parameters",
          "type": "tuple"
        }
      ],
      "stateMutability": "view",
      "type": "function"
    },
    {
      "inputs": [],
      "name": "params",
      "outputs": [
        {
          "internalType": "address",
          "name": "factory",
          "type": "address"
        },
        {
          "internalType": "address",
          "name": "creator",
          "type": "address"
        },
        {
          "internalType": "uint256",
          "name": "amount",
          "type": "uint256"
        },
        {
          "internalType": "uint256",
          "name": "minPPL",
          "type": "uint256"
        },
        {
          "internalType": "uint256",
          "name": "maxPPL",
          "type": "uint256"
        },
        {
          "internalType": "uint256",
          "name": "coolDownTime",
          "type": "uint256"
        },
        {
          "internalType": "uint256",
          "name": "gameTime",
          "type": "uint256"
        },
        {
          "internalType": "uint256",
          "name": "bankerCommission",
          "type": "uint256"
        },
        {
          "internalType": "uint256",
          "name": "referralCommission",
          "type": "uint256"
        },
        {
          "internalType": "address",
          "name": "bankerWallet",
          "type": "address"
        }
      ],
      "stateMutability": "view",
      "type": "function"
    }
  ],
  "bytecode": "0x608060405234801561001057600080fd5b5061029d806100206000396000f3fe608060405234801561001057600080fd5b50600436106100365760003560e01c8063a5ea11da1461003b578063cff0ab9614610059575b600080fd5b6100436100ee565b60405161005091906101cf565b60405180910390f35b600054600154600254600354600454600554600654600754600854600954610095996001600160a01b039081169981169897969594939291168a565b604080516001600160a01b039b8c168152998b1660208b01528901979097526060880195909552608087019390935260a086019190915260c085015260e084015261010083015290911661012082015261014001610050565b61015f60405180610140016040528060006001600160a01b0316815260200160006001600160a01b031681526020016000815260200160008152602001600081526020016000815260200160008152602001600081526020016000815260200160006001600160a01b031681525090565b5060408051610140810182526000546001600160a01b03908116825260015481166020830152600254928201929092526003546060820152600454608082015260055460a082015260065460c082015260075460e082015260085461010082015260095490911661012082015290565b81516001600160a01b03168152610140810160208301516101fb60208401826001600160a01b03169052565b5060408301516040830152606083015160608301526080830151608083015260a083015160a083015260c083015160c083015260e083015160e08301526101008084015181840152506101208084015161025f828501826001600160a01b03169052565b50509291505056fea2646970667358221220d97a0237a904b100dc8140d37a7c7f208b46723eab0e292b289919ec536fa23d64736f6c63430008040033",
  "linkReferences": {},
  "deployedLinkReferences": {}
}