{
  "_format": "hh-sol-artifact-1",
  "contractName": "CalTest",
  "sourceName": "contracts/test/CalTest.sol",
  "abi": [
    {
      "inputs": [
        {
          "internalType": "bytes32",
          "name": "b",
          "type": "bytes32"
        }
      ],
      "name": "bytesToUint",
      "outputs": [
        {
          "internalType": "uint256",
          "name": "",
          "type": "uint256"
        }
      ],
      "stateMutability": "view",
      "type": "function"
    },
    {
      "inputs": [
        {
          "internalType": "uint256",
          "name": "a",
          "type": "uint256"
        },
        {
          "internalType": "uint256",
          "name": "b",
          "type": "uint256"
        }
      ],
      "name": "divTest",
      "outputs": [
        {
          "internalType": "uint256",
          "name": "result",
          "type": "uint256"
        }
      ],
      "stateMutability": "pure",
      "type": "function"
    },
    {
      "inputs": [
        {
          "internalType": "bytes32",
          "name": "hash",
          "type": "bytes32"
        }
      ],
      "name": "getFirstDecimalFromHash",
      "outputs": [
        {
          "internalType": "uint256",
          "name": "result",
          "type": "uint256"
        }
      ],
      "stateMutability": "nonpayable",
      "type": "function"
    },
    {
      "inputs": [
        {
          "internalType": "uint256",
          "name": "a",
          "type": "uint256"
        },
        {
          "internalType": "uint256",
          "name": "b",
          "type": "uint256"
        }
      ],
      "name": "safeSubTest",
      "outputs": [
        {
          "internalType": "bool",
          "name": "flag",
          "type": "bool"
        },
        {
          "internalType": "uint256",
          "name": "result",
          "type": "uint256"
        }
      ],
      "stateMutability": "pure",
      "type": "function"
    },
    {
      "inputs": [
        {
          "internalType": "uint256",
          "name": "a",
          "type": "uint256"
        },
        {
          "internalType": "uint256",
          "name": "b",
          "type": "uint256"
        }
      ],
      "name": "subTest",
      "outputs": [
        {
          "internalType": "uint256",
          "name": "result",
          "type": "uint256"
        }
      ],
      "stateMutability": "pure",
      "type": "function"
    },
    {
      "inputs": [
        {
          "internalType": "bytes32",
          "name": "b",
          "type": "bytes32"
        }
      ],
      "name": "test",
      "outputs": [
        {
          "internalType": "uint256",
          "name": "result",
          "type": "uint256"
        },
        {
          "internalType": "bytes1",
          "name": "last",
          "type": "bytes1"
        }
      ],
      "stateMutability": "view",
      "type": "function"
    },
    {
      "inputs": [],
      "name": "test02",
      "outputs": [
        {
          "internalType": "bytes1",
          "name": "result",
          "type": "bytes1"
        }
      ],
      "stateMutability": "view",
      "type": "function"
    }
  ],
  "bytecode": "0x608060405234801561001057600080fd5b50610cd1806100206000396000f3fe608060405234801561001057600080fd5b506004361061007d5760003560e01c8063b9621b031161005b578063b9621b03146100fa578063cfc5a96914610124578063eda754ef14610137578063ef4b44811461014a57600080fd5b80633df0bbe114610082578063671c7d68146100a857806399372321146100c9575b600080fd5b6100956100903660046109c3565b61015d565b6040519081526020015b60405180910390f35b6100b06101ff565b6040516001600160f81b0319909116815260200161009f565b6100dc6100d73660046109c3565b610400565b604080519283526001600160f81b031990911660208301520161009f565b61010d6101083660046109db565b6104bd565b60408051921515835260208301919091520161009f565b6100956101323660046109c3565b6104d5565b6100956101453660046109db565b610561565b6100956101583660046109db565b610574565b600060015b60208110156101f957600083610179836020610bcd565b6020811061019757634e487b7160e01b600052603260045260246000fd5b1a905060006101a7601083610c4d565b9050600f600483901c16600a60ff831610156101ca575060ff1692506101f99050565b600a8160ff1610156101e35760ff1693506101f9915050565b50505080806101f190610c1e565b915050610162565b50919050565b6000807fe8b3a52a8dec17becfd10223bf290296717d49a4c37a32697950b3f55fde43c760001b905061025060405180604001604052806002815260200161623960f01b815250602060ff16610580565b8061025d60016020610be4565b60ff166020811061027e57634e487b7160e01b600052603260045260246000fd5b60408051808201909152600a8152690e4cae6ead8e892dce8760b31b602082015291901a60f881901b9350906102b49082610580565b60408051808201909152600f81526e3932b9bab63a24b73a1c101290189b60891b60208201526102f1906102e9601084610c4d565b60ff16610580565b60408051808201909152600c81526b1c995cdd5b1d125b9d0f8f8d60a21b602082015261032590600f600484901c16610580565b60408051808201909152600c81526b1c995cdd5b1d125b9d0f0f0d60a21b60208201526103599060f0600484901b16610580565b6103926040518060400160405280600c81526020016b3932b9bab63a24b73a29ba3960a11b81525061038d8360ff166105c9565b610625565b81600061039e8261066a565b90506103c56040518060400160405280600381526020016239ba3960e91b81525082610625565b60006103d0836105c9565b90506103f86040518060400160405280600481526020016339ba391960e11b81525082610625565b505050505090565b507fe8b3a52a8dec17becfd10223bf290296717d49a4c37a32697950b3f55fde43c76000808261043260016020610be4565b60ff166020811061045357634e487b7160e01b600052603260045260246000fd5b1a60f81b90506000610464846104d5565b905061048e604051806040016040528060068152602001651d1bd55a5b9d60d21b81525082610580565b60408051808201909152600581526437ba3432b960d91b602082015284906104b69082610580565b5050915091565b6000806104ca8484610784565b909590945092505050565b60008060005b602081101561055a576104ef816001610a97565b6104fa906020610bcd565b610505906008610bae565b610510906002610b06565b84826020811061053057634e487b7160e01b600052603260045260246000fd5b61053c9291901a610bae565b6105469083610a97565b91508061055281610c1e565b9150506104db565b5092915050565b600061056d8284610bcd565b9392505050565b600061056d83836107aa565b6105c58282604051602401610596929190610a75565b60408051601f198184030181529190526020810180516001600160e01b03166309710a9d60e41b1790526107bc565b5050565b6060816105f05750506040805180820190915260048152630307830360e41b602082015290565b8160005b8115610613578061060481610c1e565b915050600882901c91506105f4565b61061d84826107dd565b949350505050565b6105c5828260405160240161063b929190610a47565b60408051601f198184030181529190526020810180516001600160e01b0316634b5c427760e01b1790526107bc565b60608161068e5750506040805180820190915260018152600360fc1b602082015290565b8160005b81156106b857806106a281610c1e565b91506106b19050600a83610aaf565b9150610692565b60008167ffffffffffffffff8111156106e157634e487b7160e01b600052604160045260246000fd5b6040519080825280601f01601f19166020018201604052801561070b576020820181803683370190505b5090505b841561061d57610720600183610bcd565b915061072d600a86610c39565b610738906030610a97565b60f81b81838151811061075b57634e487b7160e01b600052603260045260246000fd5b60200101906001600160f81b031916908160001a90535061077d600a86610aaf565b945061070f565b6000808383111561079a575060009050806107a3565b50600190508183035b9250929050565b600061056d8284610aaf565b92915050565b80516a636f6e736f6c652e6c6f67602083016000808483855afa5050505050565b606060006107ec836002610bae565b6107f7906002610a97565b67ffffffffffffffff81111561081d57634e487b7160e01b600052604160045260246000fd5b6040519080825280601f01601f191660200182016040528015610847576020820181803683370190505b509050600360fc1b8160008151811061087057634e487b7160e01b600052603260045260246000fd5b60200101906001600160f81b031916908160001a905350600f60fb1b816001815181106108ad57634e487b7160e01b600052603260045260246000fd5b60200101906001600160f81b031916908160001a90535060006108d1846002610bae565b6108dc906001610a97565b90505b6001811115610970576f181899199a1a9b1b9c1cb0b131b232b360811b85600f166010811061091e57634e487b7160e01b600052603260045260246000fd5b1a60f81b82828151811061094257634e487b7160e01b600052603260045260246000fd5b60200101906001600160f81b031916908160001a90535060049490941c9361096981610c07565b90506108df565b50831561056d5760405162461bcd60e51b815260206004820181905260248201527f537472696e67733a20686578206c656e67746820696e73756666696369656e74604482015260640160405180910390fd5b6000602082840312156109d4578081fd5b5035919050565b600080604083850312156109ed578081fd5b50508035926020909101359150565b60008151808452815b81811015610a2157602081850181015186830182015201610a05565b81811115610a325782602083870101525b50601f01601f19169290920160200192915050565b604081526000610a5a60408301856109fc565b8281036020840152610a6c81856109fc565b95945050505050565b604081526000610a8860408301856109fc565b90508260208301529392505050565b60008219821115610aaa57610aaa610c6f565b500190565b600082610abe57610abe610c85565b500490565b600181815b80851115610afe578160001904821115610ae457610ae4610c6f565b80851615610af157918102915b93841c9390800290610ac8565b509250929050565b600061056d8383600082610b1c575060016107b6565b81610b29575060006107b6565b8160018114610b3f5760028114610b4957610b65565b60019150506107b6565b60ff841115610b5a57610b5a610c6f565b50506001821b6107b6565b5060208310610133831016604e8410600b8410161715610b88575081810a6107b6565b610b928383610ac3565b8060001904821115610ba657610ba6610c6f565b029392505050565b6000816000190483118215151615610bc857610bc8610c6f565b500290565b600082821015610bdf57610bdf610c6f565b500390565b600060ff821660ff841680821015610bfe57610bfe610c6f565b90039392505050565b600081610c1657610c16610c6f565b506000190190565b6000600019821415610c3257610c32610c6f565b5060010190565b600082610c4857610c48610c85565b500690565b600060ff831680610c6057610c60610c85565b8060ff84160691505092915050565b634e487b7160e01b600052601160045260246000fd5b634e487b7160e01b600052601260045260246000fdfea2646970667358221220dc45e426a181255b04b9a7e184e6d601c5bc389b2802246420584015d214188664736f6c63430008040033",
  "linkReferences": {},
  "deployedLinkReferences": {}
}