{
  "_format": "hh-sol-artifact-1",
  "contractName": "CalTest",
  "sourceName": "contracts/test/CalTest.sol",
  "abi": [
    {
      "inputs": [
        {
          "internalType": "uint256",
          "name": "a",
          "type": "uint256"
        },
        {
          "internalType": "uint256",
          "name": "b",
          "type": "uint256"
        }
      ],
      "name": "divTest",
      "outputs": [
        {
          "internalType": "uint256",
          "name": "result",
          "type": "uint256"
        }
      ],
      "stateMutability": "pure",
      "type": "function"
    },
    {
      "inputs": [
        {
          "internalType": "uint256",
          "name": "a",
          "type": "uint256"
        },
        {
          "internalType": "uint256",
          "name": "b",
          "type": "uint256"
        }
      ],
      "name": "safeSubTest",
      "outputs": [
        {
          "internalType": "bool",
          "name": "flag",
          "type": "bool"
        },
        {
          "internalType": "uint256",
          "name": "result",
          "type": "uint256"
        }
      ],
      "stateMutability": "pure",
      "type": "function"
    },
    {
      "inputs": [
        {
          "internalType": "uint256",
          "name": "a",
          "type": "uint256"
        },
        {
          "internalType": "uint256",
          "name": "b",
          "type": "uint256"
        }
      ],
      "name": "subTest",
      "outputs": [
        {
          "internalType": "uint256",
          "name": "result",
          "type": "uint256"
        }
      ],
      "stateMutability": "pure",
      "type": "function"
    }
  ],
  "bytecode": "0x608060405234801561001057600080fd5b506101ac806100206000396000f3fe608060405234801561001057600080fd5b50600436106100415760003560e01c8063b9621b0314610046578063eda754ef14610075578063ef4b448114610096575b600080fd5b610059610054366004610112565b6100a9565b6040805192151583526020830191909152015b60405180910390f35b610088610083366004610112565b6100c1565b60405190815260200161006c565b6100886100a4366004610112565b6100d4565b6000806100b684846100e0565b909590945092505050565b60006100cd8284610153565b9392505050565b60006100cd8383610106565b600080838311156100f6575060009050806100ff565b50600190508183035b9250929050565b60006100cd8284610133565b60008060408385031215610124578182fd5b50508035926020909101359150565b60008261014e57634e487b7160e01b81526012600452602481fd5b500490565b60008282101561017157634e487b7160e01b81526011600452602481fd5b50039056fea2646970667358221220d00e1bacd8543984bfa41b59cd277be411765de3e17536884fcebe92fd7e947264736f6c63430008040033",
  "linkReferences": {},
  "deployedLinkReferences": {}
}