{
  "_format": "hh-sol-artifact-1",
  "contractName": "CalTest",
  "sourceName": "contracts/test/CalTest.sol",
  "abi": [
    {
      "inputs": [
        {
          "internalType": "uint256",
          "name": "a",
          "type": "uint256"
        },
        {
          "internalType": "uint256",
          "name": "b",
          "type": "uint256"
        }
      ],
      "name": "safeSubTest",
      "outputs": [
        {
          "internalType": "bool",
          "name": "flag",
          "type": "bool"
        },
        {
          "internalType": "uint256",
          "name": "result",
          "type": "uint256"
        }
      ],
      "stateMutability": "pure",
      "type": "function"
    },
    {
      "inputs": [
        {
          "internalType": "uint256",
          "name": "a",
          "type": "uint256"
        },
        {
          "internalType": "uint256",
          "name": "b",
          "type": "uint256"
        }
      ],
      "name": "subTest",
      "outputs": [
        {
          "internalType": "uint256",
          "name": "result",
          "type": "uint256"
        }
      ],
      "stateMutability": "pure",
      "type": "function"
    }
  ],
  "bytecode": "0x608060405234801561001057600080fd5b50610156806100206000396000f3fe608060405234801561001057600080fd5b50600436106100365760003560e01c8063b9621b031461003b578063eda754ef1461006a575b600080fd5b61004e6100493660046100dc565b61008b565b6040805192151583526020830191909152015b60405180910390f35b61007d6100783660046100dc565b6100a3565b604051908152602001610061565b60008061009884846100b6565b909590945092505050565b60006100af82846100fd565b9392505050565b600080838311156100cc575060009050806100d5565b50600190508183035b9250929050565b600080604083850312156100ee578182fd5b50508035926020909101359150565b60008282101561011b57634e487b7160e01b81526011600452602481fd5b50039056fea264697066735822122031febb0d10eeb0a50cf0cac87077e3a9a19d65df1ca2f80362f72506f8ec367a64736f6c63430008040033",
  "linkReferences": {},
  "deployedLinkReferences": {}
}