{
  "_format": "hh-sol-artifact-1",
  "contractName": "LotteryManagerV3",
  "sourceName": "contracts/LotteryManagerV3.sol",
  "abi": [
    {
      "inputs": [
        {
          "internalType": "address",
          "name": "_factory",
          "type": "address"
        },
        {
          "internalType": "address",
          "name": "_tokenAddress",
          "type": "address"
        }
      ],
      "stateMutability": "nonpayable",
      "type": "constructor"
    },
    {
      "anonymous": false,
      "inputs": [
        {
          "indexed": false,
          "internalType": "address",
          "name": "player",
          "type": "address"
        },
        {
          "indexed": false,
          "internalType": "address",
          "name": "banker",
          "type": "address"
        },
        {
          "indexed": false,
          "internalType": "uint256",
          "name": "amount",
          "type": "uint256"
        }
      ],
      "name": "BankerCommission",
      "type": "event"
    },
    {
      "anonymous": false,
      "inputs": [
        {
          "indexed": false,
          "internalType": "string",
          "name": "hash",
          "type": "string"
        }
      ],
      "name": "CreateTableIfNecessary",
      "type": "event"
    },
    {
      "anonymous": false,
      "inputs": [
        {
          "indexed": false,
          "internalType": "string",
          "name": "beforeHash",
          "type": "string"
        },
        {
          "indexed": false,
          "internalType": "string",
          "name": "newHash",
          "type": "string"
        }
      ],
      "name": "EditTable",
      "type": "event"
    },
    {
      "anonymous": false,
      "inputs": [
        {
          "indexed": false,
          "internalType": "string",
          "name": "hash",
          "type": "string"
        },
        {
          "indexed": false,
          "internalType": "uint256",
          "name": "round",
          "type": "uint256"
        },
        {
          "indexed": false,
          "internalType": "address[]",
          "name": "players",
          "type": "address[]"
        },
        {
          "indexed": false,
          "internalType": "uint256[]",
          "name": "numbers",
          "type": "uint256[]"
        },
        {
          "indexed": false,
          "internalType": "uint256[]",
          "name": "counts",
          "type": "uint256[]"
        }
      ],
      "name": "HoldingTicket",
      "type": "event"
    },
    {
      "anonymous": false,
      "inputs": [
        {
          "indexed": false,
          "internalType": "address",
          "name": "player",
          "type": "address"
        },
        {
          "indexed": false,
          "internalType": "uint256",
          "name": "count",
          "type": "uint256"
        },
        {
          "indexed": false,
          "internalType": "uint256",
          "name": "number",
          "type": "uint256"
        },
        {
          "indexed": false,
          "internalType": "string",
          "name": "hash",
          "type": "string"
        }
      ],
      "name": "JoinTable",
      "type": "event"
    },
    {
      "anonymous": false,
      "inputs": [
        {
          "indexed": false,
          "internalType": "string",
          "name": "hash",
          "type": "string"
        },
        {
          "indexed": false,
          "internalType": "uint256",
          "name": "coolDownTimeBlock",
          "type": "uint256"
        },
        {
          "indexed": false,
          "internalType": "uint256",
          "name": "notifyTimestamp",
          "type": "uint256"
        }
      ],
      "name": "NotifyCoolDownTime",
      "type": "event"
    },
    {
      "anonymous": false,
      "inputs": [
        {
          "indexed": false,
          "internalType": "address",
          "name": "player",
          "type": "address"
        },
        {
          "indexed": false,
          "internalType": "address",
          "name": "refer",
          "type": "address"
        },
        {
          "indexed": false,
          "internalType": "uint256",
          "name": "amount",
          "type": "uint256"
        }
      ],
      "name": "ReferCommission",
      "type": "event"
    },
    {
      "anonymous": false,
      "inputs": [
        {
          "indexed": false,
          "internalType": "string",
          "name": "hash",
          "type": "string"
        },
        {
          "indexed": false,
          "internalType": "uint256",
          "name": "round",
          "type": "uint256"
        },
        {
          "indexed": false,
          "internalType": "uint256",
          "name": "poolAmount",
          "type": "uint256"
        },
        {
          "indexed": false,
          "internalType": "uint256",
          "name": "roundNumber",
          "type": "uint256"
        },
        {
          "indexed": false,
          "internalType": "uint256[]",
          "name": "prizeNumbers",
          "type": "uint256[]"
        },
        {
          "indexed": false,
          "internalType": "address[]",
          "name": "roundWinnerArray",
          "type": "address[]"
        },
        {
          "indexed": false,
          "internalType": "uint256[]",
          "name": "winnerCount",
          "type": "uint256[]"
        },
        {
          "indexed": false,
          "internalType": "int256[]",
          "name": "rewards",
          "type": "int256[]"
        },
        {
          "indexed": false,
          "internalType": "address[]",
          "name": "allPlayers",
          "type": "address[]"
        },
        {
          "indexed": false,
          "internalType": "uint256[]",
          "name": "numbers",
          "type": "uint256[]"
        },
        {
          "indexed": false,
          "internalType": "uint256[]",
          "name": "counts",
          "type": "uint256[]"
        }
      ],
      "name": "StartRound",
      "type": "event"
    },
    {
      "inputs": [
        {
          "internalType": "address",
          "name": "newOwner",
          "type": "address"
        }
      ],
      "name": "changeOwner",
      "outputs": [
        {
          "internalType": "bool",
          "name": "result",
          "type": "bool"
        }
      ],
      "stateMutability": "nonpayable",
      "type": "function"
    },
    {
      "inputs": [
        {
          "internalType": "string",
          "name": "hash",
          "type": "string"
        },
        {
          "internalType": "address",
          "name": "newManagerContract",
          "type": "address"
        }
      ],
      "name": "changeTableManager",
      "outputs": [
        {
          "internalType": "bool",
          "name": "result",
          "type": "bool"
        }
      ],
      "stateMutability": "nonpayable",
      "type": "function"
    },
    {
      "inputs": [
        {
          "internalType": "address",
          "name": "creator",
          "type": "address"
        },
        {
          "internalType": "uint256",
          "name": "amount",
          "type": "uint256"
        },
        {
          "internalType": "uint256",
          "name": "minPPL",
          "type": "uint256"
        },
        {
          "internalType": "uint256",
          "name": "maxPPL",
          "type": "uint256"
        },
        {
          "internalType": "uint256",
          "name": "coolDownTime",
          "type": "uint256"
        },
        {
          "internalType": "uint256",
          "name": "gameTime",
          "type": "uint256"
        },
        {
          "internalType": "uint256",
          "name": "bankerCommission",
          "type": "uint256"
        },
        {
          "internalType": "uint256",
          "name": "referralCommission",
          "type": "uint256"
        },
        {
          "internalType": "address",
          "name": "bankerWallet",
          "type": "address"
        },
        {
          "internalType": "uint256",
          "name": "delayBlock",
          "type": "uint256"
        }
      ],
      "name": "createTableIfNecessary",
      "outputs": [
        {
          "internalType": "string",
          "name": "hashString",
          "type": "string"
        }
      ],
      "stateMutability": "payable",
      "type": "function"
    },
    {
      "inputs": [
        {
          "internalType": "string",
          "name": "hashString",
          "type": "string"
        },
        {
          "components": [
            {
              "internalType": "address",
              "name": "creator",
              "type": "address"
            },
            {
              "internalType": "uint256",
              "name": "amount",
              "type": "uint256"
            },
            {
              "internalType": "uint256",
              "name": "minPPL",
              "type": "uint256"
            },
            {
              "internalType": "uint256",
              "name": "maxPPL",
              "type": "uint256"
            },
            {
              "internalType": "uint256",
              "name": "coolDownTime",
              "type": "uint256"
            },
            {
              "internalType": "uint256",
              "name": "gameTime",
              "type": "uint256"
            },
            {
              "internalType": "uint256",
              "name": "bankerCommission",
              "type": "uint256"
            },
            {
              "internalType": "uint256",
              "name": "referralCommission",
              "type": "uint256"
            },
            {
              "internalType": "address",
              "name": "bankerWallet",
              "type": "address"
            },
            {
              "internalType": "uint256",
              "name": "delayBlocks",
              "type": "uint256"
            }
          ],
          "internalType": "struct ILotteryTableV3.TableInfo",
          "name": "tableInfo",
          "type": "tuple"
        }
      ],
      "name": "editTable",
      "outputs": [],
      "stateMutability": "nonpayable",
      "type": "function"
    },
    {
      "inputs": [],
      "name": "factory",
      "outputs": [
        {
          "internalType": "address",
          "name": "",
          "type": "address"
        }
      ],
      "stateMutability": "view",
      "type": "function"
    },
    {
      "inputs": [
        {
          "internalType": "string",
          "name": "hash",
          "type": "string"
        }
      ],
      "name": "getCoolDownTimeBlock",
      "outputs": [
        {
          "internalType": "uint256",
          "name": "coolDownTimeBlock",
          "type": "uint256"
        },
        {
          "internalType": "uint256",
          "name": "notifyTimestamp",
          "type": "uint256"
        }
      ],
      "stateMutability": "view",
      "type": "function"
    },
    {
      "inputs": [
        {
          "internalType": "string",
          "name": "hash",
          "type": "string"
        }
      ],
      "name": "getTableInfo",
      "outputs": [
        {
          "components": [
            {
              "internalType": "address",
              "name": "creator",
              "type": "address"
            },
            {
              "internalType": "uint256",
              "name": "amount",
              "type": "uint256"
            },
            {
              "internalType": "uint256",
              "name": "minPPL",
              "type": "uint256"
            },
            {
              "internalType": "uint256",
              "name": "maxPPL",
              "type": "uint256"
            },
            {
              "internalType": "uint256",
              "name": "coolDownTime",
              "type": "uint256"
            },
            {
              "internalType": "uint256",
              "name": "gameTime",
              "type": "uint256"
            },
            {
              "internalType": "uint256",
              "name": "bankerCommission",
              "type": "uint256"
            },
            {
              "internalType": "uint256",
              "name": "referralCommission",
              "type": "uint256"
            },
            {
              "internalType": "address",
              "name": "bankerWallet",
              "type": "address"
            },
            {
              "internalType": "uint256",
              "name": "delayBlocks",
              "type": "uint256"
            }
          ],
          "internalType": "struct ILotteryTableV3.TableInfo",
          "name": "tableInfo",
          "type": "tuple"
        }
      ],
      "stateMutability": "view",
      "type": "function"
    },
    {
      "inputs": [
        {
          "internalType": "string",
          "name": "hash",
          "type": "string"
        }
      ],
      "name": "holdingTicket",
      "outputs": [
        {
          "internalType": "string",
          "name": "tableHash",
          "type": "string"
        },
        {
          "internalType": "uint256",
          "name": "round",
          "type": "uint256"
        },
        {
          "internalType": "address[]",
          "name": "players",
          "type": "address[]"
        },
        {
          "internalType": "uint256[]",
          "name": "numbers",
          "type": "uint256[]"
        },
        {
          "internalType": "uint256[]",
          "name": "counts",
          "type": "uint256[]"
        }
      ],
      "stateMutability": "view",
      "type": "function"
    },
    {
      "inputs": [
        {
          "internalType": "uint256",
          "name": "count",
          "type": "uint256"
        },
        {
          "internalType": "uint256",
          "name": "number",
          "type": "uint256"
        },
        {
          "internalType": "string",
          "name": "hash",
          "type": "string"
        }
      ],
      "name": "joinTableV2",
      "outputs": [
        {
          "internalType": "bool",
          "name": "result",
          "type": "bool"
        }
      ],
      "stateMutability": "payable",
      "type": "function"
    },
    {
      "inputs": [
        {
          "internalType": "string",
          "name": "hash",
          "type": "string"
        }
      ],
      "name": "notifyCoolDownTime",
      "outputs": [
        {
          "internalType": "uint256",
          "name": "coolDownTimeBlock",
          "type": "uint256"
        }
      ],
      "stateMutability": "nonpayable",
      "type": "function"
    },
    {
      "inputs": [],
      "name": "owner",
      "outputs": [
        {
          "internalType": "address",
          "name": "",
          "type": "address"
        }
      ],
      "stateMutability": "view",
      "type": "function"
    },
    {
      "inputs": [
        {
          "internalType": "address",
          "name": "a",
          "type": "address"
        },
        {
          "internalType": "address",
          "name": "b",
          "type": "address"
        }
      ],
      "name": "referral",
      "outputs": [
        {
          "internalType": "bool",
          "name": "result",
          "type": "bool"
        }
      ],
      "stateMutability": "nonpayable",
      "type": "function"
    },
    {
      "inputs": [
        {
          "internalType": "string",
          "name": "hash",
          "type": "string"
        }
      ],
      "name": "startRoundV2",
      "outputs": [
        {
          "internalType": "bool",
          "name": "",
          "type": "bool"
        }
      ],
      "stateMutability": "payable",
      "type": "function"
    }
  ],
  "bytecode": "0x60a06040523480156200001157600080fd5b506040516200372e3803806200372e833981016040819052620000349162000097565b6001600160601b031960609290921b91909116608052600080546001600160a01b03929092166001600160a01b03199283161790556001805490911633179055620000ce565b80516001600160a01b03811681146200009257600080fd5b919050565b60008060408385031215620000aa578182fd5b620000b5836200007a565b9150620000c5602084016200007a565b90509250929050565b60805160601c613633620000fb6000396000818161024d0152818161150201526115c201526136336000f3fe6080604052600436106100c25760003560e01c80638da5cb5b1161007f578063b50c83bc11610059578063b50c83bc1461021b578063c45a01551461023b578063efc50bcc1461026f578063f2901e68146102a057600080fd5b80638da5cb5b14610195578063a4565dd7146101cd578063a6f9dae1146101fb57600080fd5b8063184f9875146100c75780631c505d1d146100fd578063225276c81461012d5780633818aa7d1461014057806338afd4c5146101625780635433f10314610182575b600080fd5b3480156100d357600080fd5b506100e76100e2366004612a26565b6102d5565b6040516100f49190613276565b60405180910390f35b34801561010957600080fd5b5061011d610118366004612915565b61040f565b60405190151581526020016100f4565b61011d61013b366004612a26565b6104b3565b34801561014c57600080fd5b5061016061015b366004612a9c565b610e14565b005b34801561016e57600080fd5b5061011d61017d366004612a58565b610f69565b61011d610190366004612dfe565b611067565b3480156101a157600080fd5b506001546101b5906001600160a01b031681565b6040516001600160a01b0390911681526020016100f4565b3480156101d957600080fd5b506101ed6101e8366004612a26565b6112f3565b6040519081526020016100f4565b34801561020757600080fd5b5061011d6102163660046128dd565b611409565b61022e61022936600461294d565b61145a565b6040516100f49190612f9a565b34801561024757600080fd5b506101b57f000000000000000000000000000000000000000000000000000000000000000081565b34801561027b57600080fd5b5061028f61028a366004612a26565b6117c4565b6040516100f4959493929190613057565b3480156102ac57600080fd5b506102c06102bb366004612a26565b61192b565b604080519283526020830191909152016100f4565b61033d60405180610140016040528060006001600160a01b031681526020016000815260200160008152602001600081526020016000815260200160008152602001600081526020016000815260200160006001600160a01b03168152602001600081525090565b600060038360405161034f9190612ee9565b908152604051908190036020019020546001600160a01b03169050806103905760405162461bcd60e51b8152600401610387906131d1565b60405180910390fd5b6000819050806001600160a01b0316635f2d82ea6040518163ffffffff1660e01b81526004016101406040518083038186803b1580156103cf57600080fd5b505afa1580156103e3573d6000803e3d6000fd5b505050506040513d601f19601f820116820180604052508101906104079190612d55565b949350505050565b6001546000906001600160a01b0316331461043c5760405162461bcd60e51b815260040161038790613208565b6001600160a01b03831661044f57600080fd5b6001600160a01b03821661046257600080fd5b816001600160a01b0316836001600160a01b0316141561048157600080fd5b506001600160a01b03918216600090815260026020526040902080546001600160a01b03191691909216179055600190565b6001546000906001600160a01b031633146104e05760405162461bcd60e51b815260040161038790613208565b81600a816040516104f19190612ee9565b9081526040519081900360200190205460ff16156105485760405162461bcd60e51b8152602060048201526014602482015273139bc81c994b595b9d1c985b98de481c9bdd5b9960621b6044820152606401610387565b6001600a8260405161055a9190612ee9565b908152604051908190036020018120805492151560ff199093169290921790915560009060039061058c908690612ee9565b908152604051908190036020019020546001600160a01b03169050806105c45760405162461bcd60e51b8152600401610387906131d1565b60008190506000816001600160a01b0316635f2d82ea6040518163ffffffff1660e01b81526004016101406040518083038186803b15801561060557600080fd5b505afa158015610619573d6000803e3d6000fd5b505050506040513d601f19601f8201168201806040525081019061063d9190612d55565b905061064981846119a6565b6001600160a01b038316600090815260076020526040902054806106af5760405162461bcd60e51b815260206004820152601760248201527f77726f6e6720636f6f6c446f776e54696d65426c6f636b0000000000000000006044820152606401610387565b6040516395805dad60e01b8152600481018290526000906001600160a01b038516906395805dad90602401600060405180830381600087803b1580156106f457600080fd5b505af1158015610708573d6000803e3d6000fd5b505050506040513d6000823e601f3d908101601f191682016040526107309190810190612c1b565b905061075f6040518060600160405280602e81526020016135d0602e91398251602084015160c0850151611b4d565b600060056000876001600160a01b03166001600160a01b031681526020019081526020016000205490506107b16040518060600160405280602681526020016135aa60269139828460e0015151611b9c565b6000806107cb8460c0015184611be890919063ffffffff16565b915091506107ff6040518060400160405280600e81526020016d1bdb99541a5958d954995dd85c9960921b81525082611c27565b60005b84606001515181101561091957600085602001518660800151838151811061083a57634e487b7160e01b600052603260045260246000fd5b6020026020010151141561088d576108868660a00151838151811061086f57634e487b7160e01b600052603260045260246000fd5b602002602001015184611c7090919063ffffffff16565b90506108de565b6108cf8660a0015183815181106108b457634e487b7160e01b600052603260045260246000fd5b60200260200101518960200151611c7090919063ffffffff16565b6108db906000196133e7565b90505b6001600160a01b038a16600090815260066020908152604082208054600181018255908352912001558061091181613501565b915050610802565b5060e0840151516109c9576001600160a01b038881166000908152600560205260408082208290559054610100890151915163a9059cbb60e01b81529183166004830152602482018690529091169063a9059cbb90604401602060405180830381600087803b15801561098b57600080fd5b505af115801561099f573d6000803e3d6000fd5b505050506040513d601f19601f820116820180604052508101906109c39190612a06565b50610cab565b60005b8460e0015151811015610ca95760008560e0015182815181106109ff57634e487b7160e01b600052603260045260246000fd5b6020026020010151905060008661010001518381518110610a3057634e487b7160e01b600052603260045260246000fd5b602002602001015190506000610a4f8286611c7090919063ffffffff16565b9050610a8c604051806060016040528060228152602001613588602291396001600160a01b038e1660009081526005602052604090205483611b9c565b6001600160a01b038c16600090815260056020526040902054811115610b005760405162461bcd60e51b8152602060048201526024808201527f7461626c6520706f6f6c206e6f7420656e6f75676820666f722077696e416d6f604482015263756e742160e01b6064820152608401610387565b6001600160a01b038c1660009081526005602052604081208054839290610b28908490613489565b9091555050633b9aca006001600160a01b0384161015610c0b57610b816040518060400160405280601a81526020017f77696e6e657220697320726f626f742c2077696e416d6f756e7400000000000081525082611c27565b60005460405163a9059cbb60e01b8152336004820152602481018390526001600160a01b039091169063a9059cbb90604401602060405180830381600087803b158015610bcd57600080fd5b505af1158015610be1573d6000803e3d6000fd5b505050506040513d601f19601f82011682018060405250810190610c059190612a06565b50610c93565b60005460405163a9059cbb60e01b81526001600160a01b038581166004830152602482018490529091169063a9059cbb90604401602060405180830381600087803b158015610c5957600080fd5b505af1158015610c6d573d6000803e3d6000fd5b505050506040513d601f19601f82011682018060405250810190610c919190612a06565b505b5050508080610ca190613501565b9150506109cc565b505b610cb488611c83565b506001600160a01b038816600090815260066020908152604080832080548251818502810185019093528083529192909190830182828015610d1557602002820191906000526020600020905b815481526020019060010190808311610d01575b505050505090507f8daddefa871dbbbd880b6b7c86b38d78ca26fc0f0ffa33d9b36d03d1bf3580528c866000015186886020015189604001518a60e001518b6101000151888d606001518e608001518f60a00151604051610d809b9a9998979695949392919061310a565b60405180910390a1506001600160a01b0388166000908152600660205260408120610daa916126c9565b5050506001600160a01b039094166000908152600760209081526040808320839055600890915281205550600194505050506000600a82604051610dee9190612ee9565b908152604051908190036020019020805491151560ff1990921691909117905550919050565b6001546001600160a01b03163314610e3e5760405162461bcd60e51b815260040161038790613208565b6000600383604051610e509190612ee9565b908152604051908190036020019020546001600160a01b0316905080610ecf5760405162461bcd60e51b815260206004820152602e60248201527f4e6f207461626c6520776974682074686520686173682c20706c65617365206360448201526d6865636b2074686520686173682160901b6064820152608401610387565b6001600160a01b03908116600090815260096020818152604092839020855181549086166001600160a01b0319918216178255918601516001820155928501516002840155606085015160038401556080850151600484015560a0850151600584015560c0850151600684015560e08501516007840155610100850151600884018054919095169116179092556101209092015191015550565b6001546000906001600160a01b03163314610f965760405162461bcd60e51b815260040161038790613208565b6000600384604051610fa89190612ee9565b908152604051908190036020019020546001600160a01b0316905080610fe05760405162461bcd60e51b8152600401610387906131d1565b6040516351fddd5760e11b81526001600160a01b03848116600483015282919082169063a3fbbaae90602401602060405180830381600087803b15801561102657600080fd5b505af115801561103a573d6000803e3d6000fd5b505050506040513d601f19601f8201168201806040525081019061105e9190612a06565b95945050505050565b60008060038360405161107a9190612ee9565b908152604051908190036020019020546001600160a01b03169050806110f95760405162461bcd60e51b815260206004820152602e60248201527f6e6f207461626c6520776974682074686520686173682c20706c65617365206360448201526d6865636b2074686520686173682160901b6064820152608401610387565b6001600160a01b03811660009081526007602052604090205480158015906111215750804310155b1561118d5760405162461bcd60e51b815260206004820152603660248201527f6172726976656420636f6f6c20646f776e2074696d6520626c6f636b2c2063616044820152756e206e6f74206a6f696e207468697320726f756e642160501b6064820152608401610387565b336000818152600260209081526040918290205482516080810184529384529083018990528282018890526001600160a01b0390811660608401819052915163796ab25d60e01b815291928592909183169063796ab25d906111f390849060040161323f565b600060405180830381600087803b15801561120d57600080fd5b505af1158015611221573d6000803e3d6000fd5b505050506000826001600160a01b0316635f2d82ea6040518163ffffffff1660e01b81526004016101406040518083038186803b15801561126157600080fd5b505afa158015611275573d6000803e3d6000fd5b505050506040513d601f19601f820116820180604052508101906112999190612d55565b90506112a68a8288612048565b7f08b584e6aceb13e620c46e9d7288284e3b3a1c9dce5ca8e843559f5c4c8456a7338b8b8b6040516112db9493929190612f63565b60405180910390a15060019998505050505050505050565b6001546000906001600160a01b031633146113205760405162461bcd60e51b815260040161038790613208565b60006003836040516113329190612ee9565b908152604051908190036020019020546001600160a01b031690508061136a5760405162461bcd60e51b8152600401610387906131d1565b43915061139b6040518060400160405280600c81526020016b313637b1b597373ab6b132b960a11b81525083611c27565b6001600160a01b0381166000908152600760209081526040808320859055600890915290819020429081905590517fa69882baf66ab5e3584e5e8a7132a5d8f524b440db857ffdfa994cdabd944fee906113fa908690869085906130b6565b60405180910390a15050919050565b6001546000906001600160a01b031633146114365760405162461bcd60e51b815260040161038790613208565b50600180546001600160a01b0319166001600160a01b039290921691909117815590565b6001546060906001600160a01b031633146114875760405162461bcd60e51b815260040161038790613208565b6001546001600160a01b031633146114fe5760405162461bcd60e51b815260206004820152603460248201527f4f6e6c7920636f6e7472616374206f776e657220697320616c6c6f7765642074604482015273379031b0b636103a3434b990333ab731ba34b7b760611b6064820152608401610387565b60007f00000000000000000000000000000000000000000000000000000000000000006001600160a01b031663b6147fbc308e8e8e8e8e8e8e8e8e8e6040518c63ffffffff1660e01b81526004016115609b9a99989796959493929190612f05565b60206040518083038186803b15801561157857600080fd5b505afa15801561158c573d6000803e3d6000fd5b505050506040513d601f19601f820116820180604052508101906115b091906128f9565b90506001600160a01b038116611675577f00000000000000000000000000000000000000000000000000000000000000006001600160a01b031663447c9d04308e8e8e8e8e8e8e8e8e8e6040518c63ffffffff1660e01b81526004016116209b9a99989796959493929190612f05565b602060405180830381600087803b15801561163a57600080fd5b505af115801561164e573d6000803e3d6000fd5b505050506040513d601f19601f8201168201806040525081019061167291906128f9565b90505b6000308d8d8d8d8d8d8d8d8d8d60405160200161169c9b9a99989796959493929190612f05565b6040516020818303038152906040528051906020012060001c90506116c08161249a565b9250816003846040516116d39190612ee9565b908152604080516020928190038301902080546001600160a01b0319166001600160a01b0394851617905591841660009081526004825291909120845161171c928601906126ea565b50611748604051806040016040528060098152602001683a30b136329034b99d60b91b815250836125b3565b61177d604051806040016040528060138152602001727461626c652068617368537472696e6720697360681b815250846125f8565b7ffeadb03e5864c7ba3800506584c86f9177a7d4a3547a3db6021574c3a678b3d1836040516117ac9190612f9a565b60405180910390a150509a9950505050505050505050565b60606000606080606060006003876040516117df9190612ee9565b908152604051908190036020019020546001600160a01b03169050806118175760405162461bcd60e51b8152600401610387906131d1565b60008190506000816001600160a01b03166384bc76a66040518163ffffffff1660e01b815260040160006040518083038186803b15801561185757600080fd5b505afa15801561186b573d6000803e3d6000fd5b505050506040513d6000823e601f3d908101601f191682016040526118939190810190612b6d565b90506000826001600160a01b03166347e405536040518163ffffffff1660e01b815260040160206040518083038186803b1580156118d057600080fd5b505afa1580156118e4573d6000803e3d6000fd5b505050506040513d601f19601f820116820180604052508101906119089190612de6565b825160208401516040909401519b9c919b909a5092985091965090945050505050565b60008060006003846040516119409190612ee9565b908152604051908190036020019020546001600160a01b03169050806119785760405162461bcd60e51b8152600401610387906131d1565b6001600160a01b03166000908152600760209081526040808320546008909252909120549094909350915050565b60008190506000816001600160a01b031663efa1c4826040518163ffffffff1660e01b815260040160006040518083038186803b1580156119e657600080fd5b505afa1580156119fa573d6000803e3d6000fd5b505050506040513d6000823e601f3d908101601f19168201604052611a2291908101906129d4565b8051604086015191925090811015611b46576040850151600090611a46908361263d565b905060005b81811015611b43576000611a9a600a611a948460408051426020808301919091524482840152606080830194909452825180830390940184526080909101909152815191012090565b90612649565b604080516080810182526001600160a01b0380861682526001602083015281830184905260006060830152915163796ab25d60e01b81529293508492909189169063796ab25d90611aef90849060040161323f565b600060405180830381600087803b158015611b0957600080fd5b505af1158015611b1d573d6000803e3d6000fd5b50505050611b2d60018b8b612048565b5050508080611b3b90613501565b915050611a4b565b50505b5050505050565b611b9684848484604051602401611b6794939291906130db565b60408051601f198184030181529190526020810180516001600160e01b03166304772b3360e11b179052612655565b50505050565b611be3838383604051602401611bb4939291906130b6565b60408051601f198184030181529190526020810180516001600160e01b031663969cdd0360e01b179052612655565b505050565b60008082611bfb57506000905080611c20565b6001838581611c1a57634e487b7160e01b600052601260045260246000fd5b04915091505b9250929050565b611c6c8282604051602401611c3d929190613035565b60408051601f198184030181529190526020810180516001600160e01b03166309710a9d60e41b179052612655565b5050565b6000611c7c828461346a565b9392505050565b6001600160a01b038082166000908152600960208181526040808420815161014081018352815487168082526001830154948201949094526002820154928101929092526003810154606083015260048101546080830152600581015460a0830152600681015460c0830152600781015460e08301526008810154909516610100820152939091015461012084015290919015612039576001600160a01b03831660009081526004602052604081208054611d3d906134cc565b80601f0160208091040260200160405190810160405280929190818152602001828054611d69906134cc565b8015611db65780601f10611d8b57610100808354040283529160200191611db6565b820191906000526020600020905b815481529060010190602001808311611d9957829003601f168201915b505060405163cbddd8a960e01b815293945087936001600160a01b038516935063cbddd8a99250611dec91508690600401613276565b600060405180830381600087803b158015611e0657600080fd5b505af1158015611e1a573d6000803e3d6000fd5b505050506000836000015184602001518560400151866060015187608001518860a001518960c001518a60e001518b6101000151604051602001611ead999897969594939291906001600160a01b03998a168152602081019890985260408801969096526060870194909452608086019290925260a085015260c084015260e08301529091166101008201526101200190565b6040516020818303038152906040528051906020012060001c9050856003611ed48361249a565b604051611ee19190612ee9565b90815260405190819003602001902080546001600160a01b03929092166001600160a01b0319909216919091179055611f198161249a565b6001600160a01b03871660009081526004602090815260409091208251611f4693919291909101906126ea565b506001600160a01b038616600090815260096020818152604080842080546001600160a01b03199081168255600182018690556002820186905560038201869055600482018690556005820186905560068201869055600782018690556008820180549091169055909201929092558051808201909152600d81526c3132b337b932961030b33a32b960991b91810191909152611fec9084611fe78461249a565b612676565b7fe3e57a24b8f74d2723608b23c0f9b294b5919b85093bade5338255ac2f903556836120178361249a565b604051612025929190612fd7565b60405180910390a150600195945050505050565b50600092915050565b50919050565b6000612061836020015185611c7090919063ffffffff16565b6000546040516323b872dd60e01b8152336004820152306024820152604481018390529192506001600160a01b0316906323b872dd90606401602060405180830381600087803b1580156120b457600080fd5b505af11580156120c8573d6000803e3d6000fd5b505050506040513d601f19601f820116820180604052508101906120ec9190612a06565b506001600160a01b038216600090815260056020526040812080548392906121159084906133bb565b909155505060c0830151156122cb5760c08301516000906121429061213c846127106126bd565b90611c70565b6001600160a01b0384166000908152600560205260409020549091508111156121c15760405162461bcd60e51b815260206004820152602b60248201527f5461626c6520706f6f6c206e6f7420656e6f75676820666f722062616e6b657260448201526a436f6d6d697373696f6e2160a81b6064820152608401610387565b6001600160a01b038316600090815260056020526040812080548392906121e9908490613489565b909155505060005461010085015160405163a9059cbb60e01b81526001600160a01b0391821660048201526024810184905291169063a9059cbb90604401602060405180830381600087803b15801561224157600080fd5b505af1158015612255573d6000803e3d6000fd5b505050506040513d601f19601f820116820180604052508101906122799190612a06565b50610100840151604080513381526001600160a01b03909216602083015281018290527fda5163f4fef80ed29382eca50bb83c0bd880a912e0ad6adf0d4389fa62481a639060600160405180910390a1505b336000908152600260205260409020546001600160a01b031680158015906122f7575060008460e00151115b15611b465760e08401516000906123149061213c856127106126bd565b6001600160a01b0385166000908152600560205260409020549091508111156123955760405162461bcd60e51b815260206004820152602d60248201527f5461626c6520706f6f6c206e6f7420656e6f75676820666f722072656665727260448201526c616c436f6d6d697373696f6e2160981b6064820152608401610387565b6001600160a01b038416600090815260056020526040812080548392906123bd908490613489565b909155505060005460405163a9059cbb60e01b81526001600160a01b038481166004830152602482018490529091169063a9059cbb90604401602060405180830381600087803b15801561241057600080fd5b505af1158015612424573d6000803e3d6000fd5b505050506040513d601f19601f820116820180604052508101906124489190612a06565b50604080513381526001600160a01b03841660208201529081018290527fa97b13b2cce63d44be7b27fdf4d8e0c49f255b8b0a19f07ce2881ba924118f829060600160405180910390a1505050505050565b6060816124be5750506040805180820190915260018152600360fc1b602082015290565b8160005b81156124e857806124d281613501565b91506124e19050600a836133d3565b91506124c2565b6000816001600160401b0381111561251057634e487b7160e01b600052604160045260246000fd5b6040519080825280601f01601f19166020018201604052801561253a576020820181803683370190505b5090505b84156104075761254f600183613489565b915061255c600a8661351c565b6125679060306133bb565b60f81b81838151811061258a57634e487b7160e01b600052603260045260246000fd5b60200101906001600160f81b031916908160001a9053506125ac600a866133d3565b945061253e565b611c6c82826040516024016125c9929190612fad565b60408051601f198184030181529190526020810180516001600160e01b031663319af33360e01b179052612655565b611c6c828260405160240161260e929190612fd7565b60408051601f198184030181529190526020810180516001600160e01b0316634b5c427760e01b179052612655565b6000611c7c8284613489565b6000611c7c828461351c565b80516a636f6e736f6c652e6c6f67602083016000808483855afa5050505050565b611be383838360405160240161268e93929190612ffc565b60408051601f198184030181529190526020810180516001600160e01b0316632ced7cef60e01b179052612655565b6000611c7c82846133d3565b50805460008255906000526020600020908101906126e7919061276e565b50565b8280546126f6906134cc565b90600052602060002090601f016020900481019282612718576000855561275e565b82601f1061273157805160ff191683800117855561275e565b8280016001018555821561275e579182015b8281111561275e578251825591602001919060010190612743565b5061276a92915061276e565b5090565b5b8082111561276a576000815560010161276f565b803561278e81613572565b919050565b805161278e81613572565b600082601f8301126127ae578081fd5b815160206127c36127be83613398565b613368565b80838252828201915082860187848660051b89010111156127e2578586fd5b855b858110156128095781516127f781613572565b845292840192908401906001016127e4565b5090979650505050505050565b600082601f830112612826578081fd5b815160206128366127be83613398565b80838252828201915082860187848660051b8901011115612855578586fd5b855b8581101561280957815184529284019290840190600101612857565b600082601f830112612883578081fd5b81356001600160401b0381111561289c5761289c61355c565b6128af601f8201601f1916602001613368565b8181528460208386010111156128c3578283fd5b816020850160208301379081016020019190915292915050565b6000602082840312156128ee578081fd5b8135611c7c81613572565b60006020828403121561290a578081fd5b8151611c7c81613572565b60008060408385031215612927578081fd5b823561293281613572565b9150602083013561294281613572565b809150509250929050565b6000806000806000806000806000806101408b8d03121561296c578586fd5b8a3561297781613572565b995060208b0135985060408b0135975060608b0135965060808b0135955060a08b0135945060c08b0135935060e08b013592506101008b01356129b981613572565b809250506101208b013590509295989b9194979a5092959850565b6000602082840312156129e5578081fd5b81516001600160401b038111156129fa578182fd5b6104078482850161279e565b600060208284031215612a17578081fd5b81518015158114611c7c578182fd5b600060208284031215612a37578081fd5b81356001600160401b03811115612a4c578182fd5b61040784828501612873565b60008060408385031215612a6a578182fd5b82356001600160401b03811115612a7f578283fd5b612a8b85828601612873565b925050602083013561294281613572565b600080828403610160811215612ab0578283fd5b83356001600160401b03811115612ac5578384fd5b612ad186828701612873565b93505061014080601f1983011215612ae7578283fd5b612aef6132fa565b9150612afd60208601612783565b825260408501356020830152606085013560408301526080850135606083015260a0850135608083015260c085013560a083015260e085013560c08301526101008086013560e0840152610120612b55818801612783565b91840191909152940135938101939093525092909150565b600060208284031215612b7e578081fd5b81516001600160401b0380821115612b94578283fd5b9083019060608286031215612ba7578283fd5b612baf613323565b825182811115612bbd578485fd5b612bc98782860161279e565b825250602083015182811115612bdd578485fd5b612be987828601612816565b602083015250604083015182811115612c00578485fd5b612c0c87828601612816565b60408301525095945050505050565b600060208284031215612c2c578081fd5b81516001600160401b0380821115612c42578283fd5b908301906101208286031215612c56578283fd5b612c5e613345565b8251815260208301516020820152604083015182811115612c7d578485fd5b612c8987828601612816565b604083015250606083015182811115612ca0578485fd5b612cac8782860161279e565b606083015250608083015182811115612cc3578485fd5b612ccf87828601612816565b60808301525060a083015182811115612ce6578485fd5b612cf287828601612816565b60a08301525060c083015160c082015260e083015182811115612d13578485fd5b612d1f8782860161279e565b60e0830152506101008084015183811115612d38578586fd5b612d4488828701612816565b918301919091525095945050505050565b60006101408284031215612d67578081fd5b612d6f6132fa565b612d7883612793565b81526020830151602082015260408301516040820152606083015160608201526080830151608082015260a083015160a082015260c083015160c082015260e083015160e0820152610100612dce818501612793565b90820152610120928301519281019290925250919050565b600060208284031215612df7578081fd5b5051919050565b600080600060608486031215612e12578081fd5b833592506020840135915060408401356001600160401b03811115612e35578182fd5b612e4186828701612873565b9150509250925092565b6000815180845260208085019450808401835b83811015612e835781516001600160a01b031687529582019590820190600101612e5e565b509495945050505050565b6000815180845260208085019450808401835b83811015612e8357815187529582019590820190600101612ea1565b60008151808452612ed58160208601602086016134a0565b601f01601f19169290920160200192915050565b60008251612efb8184602087016134a0565b9190910192915050565b6001600160a01b039b8c168152998b1660208b015260408a01989098526060890196909652608088019490945260a087019290925260c086015260e08501526101008401529092166101208201526101408101919091526101600190565b60018060a01b0385168152836020820152826040820152608060608201526000612f906080830184612ebd565b9695505050505050565b602081526000611c7c6020830184612ebd565b604081526000612fc06040830185612ebd565b905060018060a01b03831660208301529392505050565b604081526000612fea6040830185612ebd565b828103602084015261105e8185612ebd565b60608152600061300f6060830186612ebd565b82810360208401526130218186612ebd565b90508281036040840152612f908185612ebd565b6040815260006130486040830185612ebd565b90508260208301529392505050565b60a08152600061306a60a0830188612ebd565b86602084015282810360408401526130828187612e4b565b905082810360608401526130968186612e8e565b905082810360808401526130aa8185612e8e565b98975050505050505050565b6060815260006130c96060830186612ebd565b60208301949094525060400152919050565b6080815260006130ee6080830187612ebd565b6020830195909552506040810192909252606090910152919050565b600061016080835261311e8184018f612ebd565b90508c60208401528b60408401528a60608401528281036080840152613144818b612e8e565b905082810360a0840152613158818a612e4b565b905082810360c084015261316c8189612e8e565b905082810360e08401526131808188612e8e565b90508281036101008401526131958187612e4b565b90508281036101208401526131aa8186612e8e565b90508281036101408401526131bf8185612e8e565b9e9d5050505050505050505050505050565b60208082526019908201527f706c6561736520636865636b2074686520616464726573732100000000000000604082015260600190565b6020808252601b908201527f6d73672e73656e646572206973206e6f7420746865206f776e65720000000000604082015260600190565b81516001600160a01b0390811682526020808401519083015260408084015190830152606092830151169181019190915260800190565b81516001600160a01b0316815261014081016020830151602083015260408301516040830152606083015160608301526080830151608083015260a083015160a083015260c083015160c083015260e083015160e0830152610100808401516132e9828501826001600160a01b03169052565b505061012092830151919092015290565b60405161014081016001600160401b038111828210171561331d5761331d61355c565b60405290565b604051606081016001600160401b038111828210171561331d5761331d61355c565b60405161012081016001600160401b038111828210171561331d5761331d61355c565b604051601f8201601f191681016001600160401b03811182821017156133905761339061355c565b604052919050565b60006001600160401b038211156133b1576133b161355c565b5060051b60200190565b600082198211156133ce576133ce613530565b500190565b6000826133e2576133e2613546565b500490565b60006001600160ff1b038184138284138082168684048611161561340d5761340d613530565b600160ff1b8487128281168783058912161561342b5761342b613530565b85871292508782058712848416161561344657613446613530565b8785058712818416161561345c5761345c613530565b505050929093029392505050565b600081600019048311821515161561348457613484613530565b500290565b60008282101561349b5761349b613530565b500390565b60005b838110156134bb5781810151838201526020016134a3565b83811115611b965750506000910152565b600181811c908216806134e057607f821691505b6020821081141561204257634e487b7160e01b600052602260045260246000fd5b600060001982141561351557613515613530565b5060010190565b60008261352b5761352b613546565b500690565b634e487b7160e01b600052601160045260246000fd5b634e487b7160e01b600052601260045260246000fd5b634e487b7160e01b600052604160045260246000fd5b6001600160a01b03811681146126e757600080fdfe7461626c65506f6f6c5b7461626c65416464726573735d2c2077696e416d6f756e74706f6f6c416d6f756e742c20726f756e64526573756c742e77696e6e6572732e6c656e677468726f756e642c20726f756e644e756d6265722c20726f756e64526573756c742e77696e6e6572416c6c436f756e74a26469706673582212203e6951f253992684c6fd7b3bb63b9927b61cdefe31773d8b9d209a753a1149c064736f6c63430008040033",
  "linkReferences": {},
  "deployedLinkReferences": {}
}