{
  "_format": "hh-sol-artifact-1",
  "contractName": "LotteryManagerV3",
  "sourceName": "contracts/LotteryManagerV3.sol",
  "abi": [
    {
      "inputs": [
        {
          "internalType": "address",
          "name": "_factory",
          "type": "address"
        },
        {
          "internalType": "address",
          "name": "_tokenAddress",
          "type": "address"
        }
      ],
      "stateMutability": "nonpayable",
      "type": "constructor"
    },
    {
      "anonymous": false,
      "inputs": [
        {
          "indexed": false,
          "internalType": "address",
          "name": "player",
          "type": "address"
        },
        {
          "indexed": false,
          "internalType": "address",
          "name": "banker",
          "type": "address"
        },
        {
          "indexed": false,
          "internalType": "uint256",
          "name": "amount",
          "type": "uint256"
        }
      ],
      "name": "BankerCommission",
      "type": "event"
    },
    {
      "anonymous": false,
      "inputs": [
        {
          "indexed": false,
          "internalType": "string",
          "name": "hash",
          "type": "string"
        }
      ],
      "name": "CreateTableIfNecessary",
      "type": "event"
    },
    {
      "anonymous": false,
      "inputs": [
        {
          "indexed": false,
          "internalType": "string",
          "name": "beforeHash",
          "type": "string"
        },
        {
          "indexed": false,
          "internalType": "string",
          "name": "newHash",
          "type": "string"
        }
      ],
      "name": "EditTable",
      "type": "event"
    },
    {
      "anonymous": false,
      "inputs": [
        {
          "indexed": false,
          "internalType": "string",
          "name": "hash",
          "type": "string"
        },
        {
          "indexed": false,
          "internalType": "uint256",
          "name": "round",
          "type": "uint256"
        },
        {
          "indexed": false,
          "internalType": "address[]",
          "name": "players",
          "type": "address[]"
        },
        {
          "indexed": false,
          "internalType": "uint256[]",
          "name": "numbers",
          "type": "uint256[]"
        },
        {
          "indexed": false,
          "internalType": "uint256[]",
          "name": "counts",
          "type": "uint256[]"
        }
      ],
      "name": "HoldingTicket",
      "type": "event"
    },
    {
      "anonymous": false,
      "inputs": [
        {
          "indexed": false,
          "internalType": "address",
          "name": "player",
          "type": "address"
        },
        {
          "indexed": false,
          "internalType": "uint256",
          "name": "count",
          "type": "uint256"
        },
        {
          "indexed": false,
          "internalType": "uint256",
          "name": "number",
          "type": "uint256"
        },
        {
          "indexed": false,
          "internalType": "string",
          "name": "hash",
          "type": "string"
        }
      ],
      "name": "JoinTable",
      "type": "event"
    },
    {
      "anonymous": false,
      "inputs": [
        {
          "indexed": false,
          "internalType": "string",
          "name": "hash",
          "type": "string"
        },
        {
          "indexed": false,
          "internalType": "uint256",
          "name": "coolDownTimeBlock",
          "type": "uint256"
        }
      ],
      "name": "NotifyCoolDownTime",
      "type": "event"
    },
    {
      "anonymous": false,
      "inputs": [
        {
          "indexed": false,
          "internalType": "address",
          "name": "player",
          "type": "address"
        },
        {
          "indexed": false,
          "internalType": "address",
          "name": "refer",
          "type": "address"
        },
        {
          "indexed": false,
          "internalType": "uint256",
          "name": "amount",
          "type": "uint256"
        }
      ],
      "name": "ReferCommission",
      "type": "event"
    },
    {
      "anonymous": false,
      "inputs": [
        {
          "indexed": false,
          "internalType": "string",
          "name": "hash",
          "type": "string"
        },
        {
          "indexed": false,
          "internalType": "uint256",
          "name": "round",
          "type": "uint256"
        },
        {
          "indexed": false,
          "internalType": "uint256",
          "name": "poolAmount",
          "type": "uint256"
        },
        {
          "indexed": false,
          "internalType": "uint256",
          "name": "roundNumber",
          "type": "uint256"
        },
        {
          "indexed": false,
          "internalType": "address[]",
          "name": "roundWinnerArray",
          "type": "address[]"
        },
        {
          "indexed": false,
          "internalType": "uint256[]",
          "name": "winnerCount",
          "type": "uint256[]"
        },
        {
          "indexed": false,
          "internalType": "int256[]",
          "name": "rewards",
          "type": "int256[]"
        },
        {
          "indexed": false,
          "internalType": "address[]",
          "name": "allPlayers",
          "type": "address[]"
        },
        {
          "indexed": false,
          "internalType": "uint256[]",
          "name": "numbers",
          "type": "uint256[]"
        },
        {
          "indexed": false,
          "internalType": "uint256[]",
          "name": "counts",
          "type": "uint256[]"
        }
      ],
      "name": "StartRound",
      "type": "event"
    },
    {
      "inputs": [
        {
          "internalType": "address",
          "name": "newOwner",
          "type": "address"
        }
      ],
      "name": "changeOwner",
      "outputs": [
        {
          "internalType": "bool",
          "name": "result",
          "type": "bool"
        }
      ],
      "stateMutability": "nonpayable",
      "type": "function"
    },
    {
      "inputs": [
        {
          "internalType": "string",
          "name": "hash",
          "type": "string"
        },
        {
          "internalType": "address",
          "name": "newManagerContract",
          "type": "address"
        }
      ],
      "name": "changeTableManager",
      "outputs": [
        {
          "internalType": "bool",
          "name": "result",
          "type": "bool"
        }
      ],
      "stateMutability": "nonpayable",
      "type": "function"
    },
    {
      "inputs": [
        {
          "internalType": "address",
          "name": "creator",
          "type": "address"
        },
        {
          "internalType": "uint256",
          "name": "amount",
          "type": "uint256"
        },
        {
          "internalType": "uint256",
          "name": "minPPL",
          "type": "uint256"
        },
        {
          "internalType": "uint256",
          "name": "maxPPL",
          "type": "uint256"
        },
        {
          "internalType": "uint256",
          "name": "coolDownTime",
          "type": "uint256"
        },
        {
          "internalType": "uint256",
          "name": "gameTime",
          "type": "uint256"
        },
        {
          "internalType": "uint256",
          "name": "bankerCommission",
          "type": "uint256"
        },
        {
          "internalType": "uint256",
          "name": "referralCommission",
          "type": "uint256"
        },
        {
          "internalType": "address",
          "name": "bankerWallet",
          "type": "address"
        },
        {
          "internalType": "uint256",
          "name": "delayBlock",
          "type": "uint256"
        }
      ],
      "name": "createTableIfNecessary",
      "outputs": [
        {
          "internalType": "string",
          "name": "hashString",
          "type": "string"
        }
      ],
      "stateMutability": "payable",
      "type": "function"
    },
    {
      "inputs": [
        {
          "internalType": "string",
          "name": "hashString",
          "type": "string"
        },
        {
          "components": [
            {
              "internalType": "address",
              "name": "creator",
              "type": "address"
            },
            {
              "internalType": "uint256",
              "name": "amount",
              "type": "uint256"
            },
            {
              "internalType": "uint256",
              "name": "minPPL",
              "type": "uint256"
            },
            {
              "internalType": "uint256",
              "name": "maxPPL",
              "type": "uint256"
            },
            {
              "internalType": "uint256",
              "name": "coolDownTime",
              "type": "uint256"
            },
            {
              "internalType": "uint256",
              "name": "gameTime",
              "type": "uint256"
            },
            {
              "internalType": "uint256",
              "name": "bankerCommission",
              "type": "uint256"
            },
            {
              "internalType": "uint256",
              "name": "referralCommission",
              "type": "uint256"
            },
            {
              "internalType": "address",
              "name": "bankerWallet",
              "type": "address"
            },
            {
              "internalType": "uint256",
              "name": "delayBlocks",
              "type": "uint256"
            }
          ],
          "internalType": "struct ILotteryTableV3.TableInfo",
          "name": "tableInfo",
          "type": "tuple"
        }
      ],
      "name": "editTable",
      "outputs": [],
      "stateMutability": "nonpayable",
      "type": "function"
    },
    {
      "inputs": [],
      "name": "factory",
      "outputs": [
        {
          "internalType": "address",
          "name": "",
          "type": "address"
        }
      ],
      "stateMutability": "view",
      "type": "function"
    },
    {
      "inputs": [
        {
          "internalType": "string",
          "name": "hash",
          "type": "string"
        }
      ],
      "name": "holdingTicket",
      "outputs": [
        {
          "internalType": "string",
          "name": "tableHash",
          "type": "string"
        },
        {
          "internalType": "uint256",
          "name": "round",
          "type": "uint256"
        },
        {
          "internalType": "address[]",
          "name": "players",
          "type": "address[]"
        },
        {
          "internalType": "uint256[]",
          "name": "numbers",
          "type": "uint256[]"
        },
        {
          "internalType": "uint256[]",
          "name": "counts",
          "type": "uint256[]"
        }
      ],
      "stateMutability": "view",
      "type": "function"
    },
    {
      "inputs": [
        {
          "internalType": "uint256",
          "name": "count",
          "type": "uint256"
        },
        {
          "internalType": "uint256",
          "name": "number",
          "type": "uint256"
        },
        {
          "internalType": "string",
          "name": "hash",
          "type": "string"
        }
      ],
      "name": "joinTableV2",
      "outputs": [
        {
          "internalType": "bool",
          "name": "result",
          "type": "bool"
        }
      ],
      "stateMutability": "payable",
      "type": "function"
    },
    {
      "inputs": [
        {
          "internalType": "string",
          "name": "hash",
          "type": "string"
        }
      ],
      "name": "notifyCoolDownTime",
      "outputs": [
        {
          "internalType": "uint256",
          "name": "coolDownTimeBlock",
          "type": "uint256"
        }
      ],
      "stateMutability": "nonpayable",
      "type": "function"
    },
    {
      "inputs": [],
      "name": "owner",
      "outputs": [
        {
          "internalType": "address",
          "name": "",
          "type": "address"
        }
      ],
      "stateMutability": "view",
      "type": "function"
    },
    {
      "inputs": [
        {
          "internalType": "address",
          "name": "a",
          "type": "address"
        },
        {
          "internalType": "address",
          "name": "b",
          "type": "address"
        }
      ],
      "name": "referral",
      "outputs": [
        {
          "internalType": "bool",
          "name": "result",
          "type": "bool"
        }
      ],
      "stateMutability": "nonpayable",
      "type": "function"
    },
    {
      "inputs": [
        {
          "internalType": "string",
          "name": "hash",
          "type": "string"
        }
      ],
      "name": "startRoundV2",
      "outputs": [
        {
          "internalType": "bool",
          "name": "",
          "type": "bool"
        }
      ],
      "stateMutability": "payable",
      "type": "function"
    }
  ],
  "bytecode": "0x60a06040523480156200001157600080fd5b50604051620033de380380620033de833981016040819052620000349162000097565b6001600160601b031960609290921b91909116608052600080546001600160a01b03929092166001600160a01b03199283161790556001805490911633179055620000ce565b80516001600160a01b03811681146200009257600080fd5b919050565b60008060408385031215620000aa578182fd5b620000b5836200007a565b9150620000c5602084016200007a565b90509250929050565b60805160601c6132e3620000fb600039600081816101f60152818161123d01526112fd01526132e36000f3fe60806040526004361061009c5760003560e01c80638da5cb5b116100645780638da5cb5b1461013e578063a4565dd714610176578063a6f9dae1146101a4578063b50c83bc146101c4578063c45a0155146101e4578063efc50bcc1461021857600080fd5b80631c505d1d146100a1578063225276c8146100d65780633818aa7d146100e957806338afd4c51461010b5780635433f1031461012b575b600080fd5b3480156100ad57600080fd5b506100c16100bc3660046125df565b610249565b60405190151581526020015b60405180910390f35b6100c16100e43660046126f0565b6102f6565b3480156100f557600080fd5b50610109610104366004612766565b610bf0565b005b34801561011757600080fd5b506100c1610126366004612722565b610d47565b6100c1610139366004612aa1565b610e45565b34801561014a57600080fd5b5060015461015e906001600160a01b031681565b6040516001600160a01b0390911681526020016100cd565b34801561018257600080fd5b506101966101913660046126f0565b611041565b6040519081526020016100cd565b3480156101b057600080fd5b506100c16101bf3660046125a7565b611144565b6101d76101d2366004612617565b611195565b6040516100cd9190612c3d565b3480156101f057600080fd5b5061015e7f000000000000000000000000000000000000000000000000000000000000000081565b34801561022457600080fd5b506102386102333660046126f0565b6114ff565b6040516100cd959493929190612cfa565b6001546000906001600160a01b0316331461027f5760405162461bcd60e51b815260040161027690612eb8565b60405180910390fd5b6001600160a01b03831661029257600080fd5b6001600160a01b0382166102a557600080fd5b816001600160a01b0316836001600160a01b031614156102c457600080fd5b506001600160a01b03918216600090815260026020526040902080546001600160a01b03191691909216179055600190565b6001546000906001600160a01b031633146103235760405162461bcd60e51b815260040161027690612eb8565b816009816040516103349190612b8c565b9081526040519081900360200190205460ff161561038b5760405162461bcd60e51b8152602060048201526014602482015273139bc81c994b595b9d1c985b98de481c9bdd5b9960621b6044820152606401610276565b600160098260405161039d9190612b8c565b908152604051908190036020018120805492151560ff19909316929092179091556000906003906103cf908690612b8c565b908152604051908190036020019020546001600160a01b03169050806104075760405162461bcd60e51b815260040161027690612e81565b60008190506000816001600160a01b0316635f2d82ea6040518163ffffffff1660e01b81526004016101406040518083038186803b15801561044857600080fd5b505afa15801561045c573d6000803e3d6000fd5b505050506040513d601f19601f8201168201806040525081019061048091906129f8565b905061048c8184611666565b6001600160a01b038316600090815260076020526040902054806104f25760405162461bcd60e51b815260206004820152601760248201527f77726f6e6720636f6f6c446f776e54696d65426c6f636b0000000000000000006044820152606401610276565b6040516395805dad60e01b8152600481018290526000906001600160a01b038516906395805dad90602401600060405180830381600087803b15801561053757600080fd5b505af115801561054b573d6000803e3d6000fd5b505050506040513d6000823e601f3d908101601f1916820160405261057391908101906128e5565b90506105a26040518060600160405280602e8152602001613280602e91398251602084015160a085015161180d565b600060056000876001600160a01b03166001600160a01b031681526020019081526020016000205490506105f460405180606001604052806026815260200161325a60269139828460c001515161185c565b60008061060e8460a00151846118a890919063ffffffff16565b915091506106426040518060400160405280600e81526020016d1bdb99541a5958d954995dd85c9960921b815250826118e7565b60005b84604001515181101561075c57600085602001518660600151838151811061067d57634e487b7160e01b600052603260045260246000fd5b602002602001015114156106d0576106c9866080015183815181106106b257634e487b7160e01b600052603260045260246000fd5b60200260200101518461193090919063ffffffff16565b9050610721565b610712866080015183815181106106f757634e487b7160e01b600052603260045260246000fd5b6020026020010151896020015161193090919063ffffffff16565b61071e90600019613097565b90505b6001600160a01b038a166000908152600660209081526040822080546001810182559083529120015580610754816131b1565b915050610645565b5060c08401515161080c576001600160a01b038881166000908152600560205260408082208290559054610100890151915163a9059cbb60e01b81529183166004830152602482018690529091169063a9059cbb90604401602060405180830381600087803b1580156107ce57600080fd5b505af11580156107e2573d6000803e3d6000fd5b505050506040513d601f19601f8201168201806040525081019061080691906126d0565b50610ab4565b60005b8460c0015151811015610ab25760008560c00151828151811061084257634e487b7160e01b600052603260045260246000fd5b6020026020010151905060008660e00151838151811061087257634e487b7160e01b600052603260045260246000fd5b602002602001015190506000610891828661193090919063ffffffff16565b90506108ce604051806060016040528060228152602001613238602291396001600160a01b038e166000908152600560205260409020548361185c565b6001600160a01b038c1660009081526005602052604090205481111561090957506001600160a01b038b166000908152600560205260409020545b6001600160a01b038c1660009081526005602052604081208054839290610931908490613139565b9091555050633b9aca006001600160a01b0384161015610a145761098a6040518060400160405280601a81526020017f77696e6e657220697320726f626f742c2077696e416d6f756e74000000000000815250826118e7565b60005460405163a9059cbb60e01b8152336004820152602481018390526001600160a01b039091169063a9059cbb90604401602060405180830381600087803b1580156109d657600080fd5b505af11580156109ea573d6000803e3d6000fd5b505050506040513d601f19601f82011682018060405250810190610a0e91906126d0565b50610a9c565b60005460405163a9059cbb60e01b81526001600160a01b038581166004830152602482018490529091169063a9059cbb90604401602060405180830381600087803b158015610a6257600080fd5b505af1158015610a76573d6000803e3d6000fd5b505050506040513d601f19601f82011682018060405250810190610a9a91906126d0565b505b5050508080610aaa906131b1565b91505061080f565b505b610abd88611943565b506001600160a01b038816600090815260066020908152604080832080548251818502810185019093528083529192909190830182828015610b1e57602002820191906000526020600020905b815481526020019060010190808311610b0a575b505050505090507fb18b8dee98a892f88eb0ea7d01d6c1006541e2425a6d58c78242f568ed5444f58c86600001518688602001518960c001518a60e00151878c604001518d606001518e60800151604051610b829a99989796959493929190612dad565b60405180910390a1506001600160a01b0388166000908152600660205260408120610bac91612393565b6001995050505050505050506000600982604051610bca9190612b8c565b908152604051908190036020019020805491151560ff1990921691909117905550919050565b6001546001600160a01b03163314610c1a5760405162461bcd60e51b815260040161027690612eb8565b6000600383604051610c2c9190612b8c565b908152604051908190036020019020546001600160a01b0316905080610cab5760405162461bcd60e51b815260206004820152602e60248201527f4e6f207461626c6520776974682074686520686173682c20706c65617365206360448201526d6865636b2074686520686173682160901b6064820152608401610276565b6001600160a01b03908116600090815260086020818152604092839020855181549086166001600160a01b0319918216178255918601516001820155928501516002840155606085015160038401556080850151600484015560a0850151600584015560c0850151600684015560e085015160078401556101008501519183018054929094169116179091556101209091015160099091015550565b6001546000906001600160a01b03163314610d745760405162461bcd60e51b815260040161027690612eb8565b6000600384604051610d869190612b8c565b908152604051908190036020019020546001600160a01b0316905080610dbe5760405162461bcd60e51b815260040161027690612e81565b6040516351fddd5760e11b81526001600160a01b03848116600483015282919082169063a3fbbaae90602401602060405180830381600087803b158015610e0457600080fd5b505af1158015610e18573d6000803e3d6000fd5b505050506040513d601f19601f82011682018060405250810190610e3c91906126d0565b95945050505050565b336000908152600260205260408082205490516001600160a01b03909116908290600390610e74908690612b8c565b908152604051908190036020019020546001600160a01b0316905080610ef35760405162461bcd60e51b815260206004820152602e60248201527f6e6f207461626c6520776974682074686520686173682c20706c65617365206360448201526d6865636b2074686520686173682160901b6064820152608401610276565b60408051608081018252338152602081018890528082018790526001600160a01b038481166060830152915163796ab25d60e01b8152839283169063796ab25d90610f42908490600401612eef565b600060405180830381600087803b158015610f5c57600080fd5b505af1158015610f70573d6000803e3d6000fd5b505050506000826001600160a01b0316635f2d82ea6040518163ffffffff1660e01b81526004016101406040518083038186803b158015610fb057600080fd5b505afa158015610fc4573d6000803e3d6000fd5b505050506040513d601f19601f82011682018060405250810190610fe891906129f8565b9050610ff5898286611d0a565b7f08b584e6aceb13e620c46e9d7288284e3b3a1c9dce5ca8e843559f5c4c8456a7338a8a8a60405161102a9493929190612c06565b60405180910390a150600198975050505050505050565b6001546000906001600160a01b0316331461106e5760405162461bcd60e51b815260040161027690612eb8565b60006003836040516110809190612b8c565b908152604051908190036020019020546001600160a01b03169050806110b85760405162461bcd60e51b815260040161027690612e81565b4391506110e96040518060400160405280600c81526020016b313637b1b597373ab6b132b960a11b815250836118e7565b6001600160a01b03811660009081526007602052604090819020839055517f4111df418e4a017af3de89230fd3d337d19dd7c9da1a78a2e80a0f0eaedb8606906111369085908590612cd8565b60405180910390a150919050565b6001546000906001600160a01b031633146111715760405162461bcd60e51b815260040161027690612eb8565b50600180546001600160a01b0319166001600160a01b039290921691909117815590565b6001546060906001600160a01b031633146111c25760405162461bcd60e51b815260040161027690612eb8565b6001546001600160a01b031633146112395760405162461bcd60e51b815260206004820152603460248201527f4f6e6c7920636f6e7472616374206f776e657220697320616c6c6f7765642074604482015273379031b0b636103a3434b990333ab731ba34b7b760611b6064820152608401610276565b60007f00000000000000000000000000000000000000000000000000000000000000006001600160a01b031663b6147fbc308e8e8e8e8e8e8e8e8e8e6040518c63ffffffff1660e01b815260040161129b9b9a99989796959493929190612ba8565b60206040518083038186803b1580156112b357600080fd5b505afa1580156112c7573d6000803e3d6000fd5b505050506040513d601f19601f820116820180604052508101906112eb91906125c3565b90506001600160a01b0381166113b0577f00000000000000000000000000000000000000000000000000000000000000006001600160a01b031663447c9d04308e8e8e8e8e8e8e8e8e8e6040518c63ffffffff1660e01b815260040161135b9b9a99989796959493929190612ba8565b602060405180830381600087803b15801561137557600080fd5b505af1158015611389573d6000803e3d6000fd5b505050506040513d601f19601f820116820180604052508101906113ad91906125c3565b90505b6000308d8d8d8d8d8d8d8d8d8d6040516020016113d79b9a99989796959493929190612ba8565b6040516020818303038152906040528051906020012060001c90506113fb8161215c565b92508160038460405161140e9190612b8c565b908152604080516020928190038301902080546001600160a01b0319166001600160a01b03948516179055918416600090815260048252919091208451611457928601906123b4565b50611483604051806040016040528060098152602001683a30b136329034b99d60b91b8152508361227d565b6114b8604051806040016040528060138152602001727461626c652068617368537472696e6720697360681b815250846122c2565b7ffeadb03e5864c7ba3800506584c86f9177a7d4a3547a3db6021574c3a678b3d1836040516114e79190612c3d565b60405180910390a150509a9950505050505050505050565b606060006060806060600060038760405161151a9190612b8c565b908152604051908190036020019020546001600160a01b03169050806115525760405162461bcd60e51b815260040161027690612e81565b60008190506000816001600160a01b03166384bc76a66040518163ffffffff1660e01b815260040160006040518083038186803b15801561159257600080fd5b505afa1580156115a6573d6000803e3d6000fd5b505050506040513d6000823e601f3d908101601f191682016040526115ce9190810190612837565b90506000826001600160a01b03166347e405536040518163ffffffff1660e01b815260040160206040518083038186803b15801561160b57600080fd5b505afa15801561161f573d6000803e3d6000fd5b505050506040513d601f19601f820116820180604052508101906116439190612a89565b825160208401516040909401519b9c919b909a5092985091965090945050505050565b60008190506000816001600160a01b031663efa1c4826040518163ffffffff1660e01b815260040160006040518083038186803b1580156116a657600080fd5b505afa1580156116ba573d6000803e3d6000fd5b505050506040513d6000823e601f3d908101601f191682016040526116e2919081019061269e565b80516040860151919250908110156118065760408501516000906117069083612307565b905060005b8181101561180357600061175a600a6117548460408051426020808301919091524482840152606080830194909452825180830390940184526080909101909152815191012090565b90612313565b604080516080810182526001600160a01b0380861682526001602083015281830184905260006060830152915163796ab25d60e01b81529293508492909189169063796ab25d906117af908490600401612eef565b600060405180830381600087803b1580156117c957600080fd5b505af11580156117dd573d6000803e3d6000fd5b505050506117ed60018b8b611d0a565b50505080806117fb906131b1565b91505061170b565b50505b5050505050565b611856848484846040516024016118279493929190612d7e565b60408051601f198184030181529190526020810180516001600160e01b03166304772b3360e11b17905261231f565b50505050565b6118a383838360405160240161187493929190612d59565b60408051601f198184030181529190526020810180516001600160e01b031663969cdd0360e01b17905261231f565b505050565b600080826118bb575060009050806118e0565b60018385816118da57634e487b7160e01b600052601260045260246000fd5b04915091505b9250929050565b61192c82826040516024016118fd929190612cd8565b60408051601f198184030181529190526020810180516001600160e01b03166309710a9d60e41b17905261231f565b5050565b600061193c828461311a565b9392505050565b6001600160a01b038082166000908152600860208181526040808420815161014081018352815487168082526001830154948201949094526002820154928101929092526003810154606083015260048101546080830152600581015460a0830152600681015460c0830152600781015460e08301529283015490941661010085015260099091015461012084015290919015611cfb576001600160a01b038316600090815260046020526040812080546119fd9061317c565b80601f0160208091040260200160405190810160405280929190818152602001828054611a299061317c565b8015611a765780601f10611a4b57610100808354040283529160200191611a76565b820191906000526020600020905b815481529060010190602001808311611a5957829003601f168201915b505060405163cbddd8a960e01b815293945087936001600160a01b038516935063cbddd8a99250611aac91508690600401612f26565b600060405180830381600087803b158015611ac657600080fd5b505af1158015611ada573d6000803e3d6000fd5b505050506000836000015184602001518560400151866060015187608001518860a001518960c001518a60e001518b6101000151604051602001611b6d999897969594939291906001600160a01b03998a168152602081019890985260408801969096526060870194909452608086019290925260a085015260c084015260e08301529091166101008201526101200190565b6040516020818303038152906040528051906020012060001c9050856003611b948361215c565b604051611ba19190612b8c565b90815260405190819003602001902080546001600160a01b03929092166001600160a01b0319909216919091179055611bd98161215c565b6001600160a01b03871660009081526004602090815260409091208251611c0693919291909101906123b4565b506001600160a01b038616600090815260086020818152604080842080546001600160a01b031990811682556001820186905560028201869055600382018690556004820186905560058201869055600682018690556007820186905593810180549094169093556009909201929092558051808201909152600d81526c3132b337b932961030b33a32b960991b91810191909152611cae9084611ca98461215c565b612340565b7fe3e57a24b8f74d2723608b23c0f9b294b5919b85093bade5338255ac2f90355683611cd98361215c565b604051611ce7929190612c7a565b60405180910390a150600195945050505050565b50600092915050565b50919050565b6000611d2383602001518561193090919063ffffffff16565b6000546040516323b872dd60e01b8152336004820152306024820152604481018390529192506001600160a01b0316906323b872dd90606401602060405180830381600087803b158015611d7657600080fd5b505af1158015611d8a573d6000803e3d6000fd5b505050506040513d601f19601f82011682018060405250810190611dae91906126d0565b506001600160a01b03821660009081526005602052604081208054839290611dd790849061306b565b909155505060c083015115611f8d5760c0830151600090611e0490611dfe84612710612387565b90611930565b6001600160a01b038416600090815260056020526040902054909150811115611e835760405162461bcd60e51b815260206004820152602b60248201527f5461626c6520706f6f6c206e6f7420656e6f75676820666f722062616e6b657260448201526a436f6d6d697373696f6e2160a81b6064820152608401610276565b6001600160a01b03831660009081526005602052604081208054839290611eab908490613139565b909155505060005461010085015160405163a9059cbb60e01b81526001600160a01b0391821660048201526024810184905291169063a9059cbb90604401602060405180830381600087803b158015611f0357600080fd5b505af1158015611f17573d6000803e3d6000fd5b505050506040513d601f19601f82011682018060405250810190611f3b91906126d0565b50610100840151604080513381526001600160a01b03909216602083015281018290527fda5163f4fef80ed29382eca50bb83c0bd880a912e0ad6adf0d4389fa62481a639060600160405180910390a1505b336000908152600260205260409020546001600160a01b03168015801590611fb9575060008460e00151115b156118065760e0840151600090611fd690611dfe85612710612387565b6001600160a01b0385166000908152600560205260409020549091508111156120575760405162461bcd60e51b815260206004820152602d60248201527f5461626c6520706f6f6c206e6f7420656e6f75676820666f722072656665727260448201526c616c436f6d6d697373696f6e2160981b6064820152608401610276565b6001600160a01b0384166000908152600560205260408120805483929061207f908490613139565b909155505060005460405163a9059cbb60e01b81526001600160a01b038481166004830152602482018490529091169063a9059cbb90604401602060405180830381600087803b1580156120d257600080fd5b505af11580156120e6573d6000803e3d6000fd5b505050506040513d601f19601f8201168201806040525081019061210a91906126d0565b50604080513381526001600160a01b03841660208201529081018290527fa97b13b2cce63d44be7b27fdf4d8e0c49f255b8b0a19f07ce2881ba924118f829060600160405180910390a1505050505050565b6060816121805750506040805180820190915260018152600360fc1b602082015290565b8160005b81156121aa5780612194816131b1565b91506121a39050600a83613083565b9150612184565b6000816001600160401b038111156121d257634e487b7160e01b600052604160045260246000fd5b6040519080825280601f01601f1916602001820160405280156121fc576020820181803683370190505b5090505b841561227557612211600183613139565b915061221e600a866131cc565b61222990603061306b565b60f81b81838151811061224c57634e487b7160e01b600052603260045260246000fd5b60200101906001600160f81b031916908160001a90535061226e600a86613083565b9450612200565b949350505050565b61192c8282604051602401612293929190612c50565b60408051601f198184030181529190526020810180516001600160e01b031663319af33360e01b17905261231f565b61192c82826040516024016122d8929190612c7a565b60408051601f198184030181529190526020810180516001600160e01b0316634b5c427760e01b17905261231f565b600061193c8284613139565b600061193c82846131cc565b80516a636f6e736f6c652e6c6f67602083016000808483855afa5050505050565b6118a383838360405160240161235893929190612c9f565b60408051601f198184030181529190526020810180516001600160e01b0316632ced7cef60e01b17905261231f565b600061193c8284613083565b50805460008255906000526020600020908101906123b19190612438565b50565b8280546123c09061317c565b90600052602060002090601f0160209004810192826123e25760008555612428565b82601f106123fb57805160ff1916838001178555612428565b82800160010185558215612428579182015b8281111561242857825182559160200191906001019061240d565b50612434929150612438565b5090565b5b808211156124345760008155600101612439565b803561245881613222565b919050565b805161245881613222565b600082601f830112612478578081fd5b8151602061248d61248883613048565b613018565b80838252828201915082860187848660051b89010111156124ac578586fd5b855b858110156124d35781516124c181613222565b845292840192908401906001016124ae565b5090979650505050505050565b600082601f8301126124f0578081fd5b8151602061250061248883613048565b80838252828201915082860187848660051b890101111561251f578586fd5b855b858110156124d357815184529284019290840190600101612521565b600082601f83011261254d578081fd5b81356001600160401b038111156125665761256661320c565b612579601f8201601f1916602001613018565b81815284602083860101111561258d578283fd5b816020850160208301379081016020019190915292915050565b6000602082840312156125b8578081fd5b813561193c81613222565b6000602082840312156125d4578081fd5b815161193c81613222565b600080604083850312156125f1578081fd5b82356125fc81613222565b9150602083013561260c81613222565b809150509250929050565b6000806000806000806000806000806101408b8d031215612636578586fd5b8a3561264181613222565b995060208b0135985060408b0135975060608b0135965060808b0135955060a08b0135945060c08b0135935060e08b013592506101008b013561268381613222565b809250506101208b013590509295989b9194979a5092959850565b6000602082840312156126af578081fd5b81516001600160401b038111156126c4578182fd5b61227584828501612468565b6000602082840312156126e1578081fd5b8151801515811461193c578182fd5b600060208284031215612701578081fd5b81356001600160401b03811115612716578182fd5b6122758482850161253d565b60008060408385031215612734578182fd5b82356001600160401b03811115612749578283fd5b6127558582860161253d565b925050602083013561260c81613222565b60008082840361016081121561277a578283fd5b83356001600160401b0381111561278f578384fd5b61279b8682870161253d565b93505061014080601f19830112156127b1578283fd5b6127b9612faa565b91506127c76020860161244d565b825260408501356020830152606085013560408301526080850135606083015260a0850135608083015260c085013560a083015260e085013560c08301526101008086013560e084015261012061281f81880161244d565b91840191909152940135938101939093525092909150565b600060208284031215612848578081fd5b81516001600160401b038082111561285e578283fd5b9083019060608286031215612871578283fd5b612879612fd3565b825182811115612887578485fd5b61289387828601612468565b8252506020830151828111156128a7578485fd5b6128b3878286016124e0565b6020830152506040830151828111156128ca578485fd5b6128d6878286016124e0565b60408301525095945050505050565b6000602082840312156128f6578081fd5b81516001600160401b038082111561290c578283fd5b908301906101008286031215612920578283fd5b612928612ff5565b8251815260208301516020820152604083015182811115612947578485fd5b61295387828601612468565b60408301525060608301518281111561296a578485fd5b612976878286016124e0565b60608301525060808301518281111561298d578485fd5b612999878286016124e0565b60808301525060a083015160a082015260c0830151828111156129ba578485fd5b6129c687828601612468565b60c08301525060e0830151828111156129dd578485fd5b6129e9878286016124e0565b60e08301525095945050505050565b60006101408284031215612a0a578081fd5b612a12612faa565b612a1b8361245d565b81526020830151602082015260408301516040820152606083015160608201526080830151608082015260a083015160a082015260c083015160c082015260e083015160e0820152610100612a7181850161245d565b90820152610120928301519281019290925250919050565b600060208284031215612a9a578081fd5b5051919050565b600080600060608486031215612ab5578081fd5b833592506020840135915060408401356001600160401b03811115612ad8578182fd5b612ae48682870161253d565b9150509250925092565b6000815180845260208085019450808401835b83811015612b265781516001600160a01b031687529582019590820190600101612b01565b509495945050505050565b6000815180845260208085019450808401835b83811015612b2657815187529582019590820190600101612b44565b60008151808452612b78816020860160208601613150565b601f01601f19169290920160200192915050565b60008251612b9e818460208701613150565b9190910192915050565b6001600160a01b039b8c168152998b1660208b015260408a01989098526060890196909652608088019490945260a087019290925260c086015260e08501526101008401529092166101208201526101408101919091526101600190565b60018060a01b0385168152836020820152826040820152608060608201526000612c336080830184612b60565b9695505050505050565b60208152600061193c6020830184612b60565b604081526000612c636040830185612b60565b905060018060a01b03831660208301529392505050565b604081526000612c8d6040830185612b60565b8281036020840152610e3c8185612b60565b606081526000612cb26060830186612b60565b8281036020840152612cc48186612b60565b90508281036040840152612c338185612b60565b604081526000612ceb6040830185612b60565b90508260208301529392505050565b60a081526000612d0d60a0830188612b60565b8660208401528281036040840152612d258187612aee565b90508281036060840152612d398186612b31565b90508281036080840152612d4d8185612b31565b98975050505050505050565b606081526000612d6c6060830186612b60565b60208301949094525060400152919050565b608081526000612d916080830187612b60565b6020830195909552506040810192909252606090910152919050565b6000610140808352612dc18184018e612b60565b905060208c818501528b60408501528a60608501528382036080850152612de8828b612aee565b915083820360a0850152612dfc828a612b31565b84810360c08601528851808252828a01935090820190845b81811015612e3057845183529383019391830191600101612e14565b505084810360e0860152612e448189612aee565b92505050828103610100840152612e5b8186612b31565b9050828103610120840152612e708185612b31565b9d9c50505050505050505050505050565b60208082526019908201527f706c6561736520636865636b2074686520616464726573732100000000000000604082015260600190565b6020808252601b908201527f6d73672e73656e646572206973206e6f7420746865206f776e65720000000000604082015260600190565b81516001600160a01b0390811682526020808401519083015260408084015190830152606092830151169181019190915260800190565b81516001600160a01b0316815261014081016020830151602083015260408301516040830152606083015160608301526080830151608083015260a083015160a083015260c083015160c083015260e083015160e083015261010080840151612f99828501826001600160a01b03169052565b505061012092830151919092015290565b60405161014081016001600160401b0381118282101715612fcd57612fcd61320c565b60405290565b604051606081016001600160401b0381118282101715612fcd57612fcd61320c565b60405161010081016001600160401b0381118282101715612fcd57612fcd61320c565b604051601f8201601f191681016001600160401b03811182821017156130405761304061320c565b604052919050565b60006001600160401b038211156130615761306161320c565b5060051b60200190565b6000821982111561307e5761307e6131e0565b500190565b600082613092576130926131f6565b500490565b60006001600160ff1b03818413828413808216868404861116156130bd576130bd6131e0565b600160ff1b848712828116878305891216156130db576130db6131e0565b8587129250878205871284841616156130f6576130f66131e0565b8785058712818416161561310c5761310c6131e0565b505050929093029392505050565b6000816000190483118215151615613134576131346131e0565b500290565b60008282101561314b5761314b6131e0565b500390565b60005b8381101561316b578181015183820152602001613153565b838111156118565750506000910152565b600181811c9082168061319057607f821691505b60208210811415611d0457634e487b7160e01b600052602260045260246000fd5b60006000198214156131c5576131c56131e0565b5060010190565b6000826131db576131db6131f6565b500690565b634e487b7160e01b600052601160045260246000fd5b634e487b7160e01b600052601260045260246000fd5b634e487b7160e01b600052604160045260246000fd5b6001600160a01b03811681146123b157600080fdfe7461626c65506f6f6c5b7461626c65416464726573735d2c2077696e416d6f756e74706f6f6c416d6f756e742c20726f756e64526573756c742e77696e6e6572732e6c656e677468726f756e642c20726f756e644e756d6265722c20726f756e64526573756c742e77696e6e6572416c6c436f756e74a26469706673582212206a7b630b4114495d1bdc0df0d7fa34dd9ece0d736e879085dd222e883fead20f64736f6c63430008040033",
  "linkReferences": {},
  "deployedLinkReferences": {}
}