{
  "_format": "hh-sol-artifact-1",
  "contractName": "LotteryManagerV3",
  "sourceName": "contracts/LotteryManagerV3.sol",
  "abi": [
    {
      "inputs": [
        {
          "internalType": "address",
          "name": "_factory",
          "type": "address"
        },
        {
          "internalType": "address",
          "name": "_tokenAddress",
          "type": "address"
        }
      ],
      "stateMutability": "nonpayable",
      "type": "constructor"
    },
    {
      "anonymous": false,
      "inputs": [
        {
          "indexed": false,
          "internalType": "address",
          "name": "player",
          "type": "address"
        },
        {
          "indexed": false,
          "internalType": "address",
          "name": "banker",
          "type": "address"
        },
        {
          "indexed": false,
          "internalType": "uint256",
          "name": "amount",
          "type": "uint256"
        }
      ],
      "name": "BankerCommission",
      "type": "event"
    },
    {
      "anonymous": false,
      "inputs": [
        {
          "indexed": false,
          "internalType": "string",
          "name": "hash",
          "type": "string"
        }
      ],
      "name": "CreateTableIfNecessary",
      "type": "event"
    },
    {
      "anonymous": false,
      "inputs": [
        {
          "indexed": false,
          "internalType": "string",
          "name": "beforeHash",
          "type": "string"
        },
        {
          "indexed": false,
          "internalType": "string",
          "name": "newHash",
          "type": "string"
        }
      ],
      "name": "EditTable",
      "type": "event"
    },
    {
      "anonymous": false,
      "inputs": [
        {
          "indexed": false,
          "internalType": "string",
          "name": "hash",
          "type": "string"
        },
        {
          "indexed": false,
          "internalType": "uint256",
          "name": "round",
          "type": "uint256"
        },
        {
          "indexed": false,
          "internalType": "address[]",
          "name": "players",
          "type": "address[]"
        },
        {
          "indexed": false,
          "internalType": "uint256[]",
          "name": "numbers",
          "type": "uint256[]"
        },
        {
          "indexed": false,
          "internalType": "uint256[]",
          "name": "counts",
          "type": "uint256[]"
        }
      ],
      "name": "HoldingTicket",
      "type": "event"
    },
    {
      "anonymous": false,
      "inputs": [
        {
          "indexed": false,
          "internalType": "address",
          "name": "player",
          "type": "address"
        },
        {
          "indexed": false,
          "internalType": "uint256",
          "name": "amount",
          "type": "uint256"
        },
        {
          "indexed": false,
          "internalType": "uint256",
          "name": "all",
          "type": "uint256"
        }
      ],
      "name": "JackpotCommission",
      "type": "event"
    },
    {
      "anonymous": false,
      "inputs": [
        {
          "indexed": false,
          "internalType": "address",
          "name": "player",
          "type": "address"
        },
        {
          "indexed": false,
          "internalType": "uint256",
          "name": "jackpotPrize",
          "type": "uint256"
        }
      ],
      "name": "JackpotWinner",
      "type": "event"
    },
    {
      "anonymous": false,
      "inputs": [
        {
          "indexed": false,
          "internalType": "address",
          "name": "player",
          "type": "address"
        },
        {
          "indexed": false,
          "internalType": "uint256",
          "name": "count",
          "type": "uint256"
        },
        {
          "indexed": false,
          "internalType": "uint256",
          "name": "number",
          "type": "uint256"
        },
        {
          "indexed": false,
          "internalType": "string",
          "name": "hash",
          "type": "string"
        }
      ],
      "name": "JoinTable",
      "type": "event"
    },
    {
      "anonymous": false,
      "inputs": [
        {
          "indexed": false,
          "internalType": "string",
          "name": "hash",
          "type": "string"
        },
        {
          "indexed": false,
          "internalType": "uint256",
          "name": "coolDownTimeBlock",
          "type": "uint256"
        },
        {
          "indexed": false,
          "internalType": "uint256",
          "name": "notifyTimestamp",
          "type": "uint256"
        }
      ],
      "name": "NotifyCoolDownTime",
      "type": "event"
    },
    {
      "anonymous": false,
      "inputs": [
        {
          "indexed": false,
          "internalType": "address",
          "name": "player",
          "type": "address"
        },
        {
          "indexed": false,
          "internalType": "address",
          "name": "refer",
          "type": "address"
        },
        {
          "indexed": false,
          "internalType": "uint256",
          "name": "amount",
          "type": "uint256"
        }
      ],
      "name": "ReferCommission",
      "type": "event"
    },
    {
      "anonymous": false,
      "inputs": [
        {
          "components": [
            {
              "internalType": "string",
              "name": "hash",
              "type": "string"
            },
            {
              "internalType": "uint256",
              "name": "round",
              "type": "uint256"
            },
            {
              "internalType": "uint256",
              "name": "poolAmount",
              "type": "uint256"
            },
            {
              "internalType": "uint256",
              "name": "roundNumber",
              "type": "uint256"
            },
            {
              "internalType": "uint256[]",
              "name": "prizeNumbers",
              "type": "uint256[]"
            },
            {
              "internalType": "address[]",
              "name": "roundWinnerArray",
              "type": "address[]"
            },
            {
              "internalType": "uint256[]",
              "name": "winnerCount",
              "type": "uint256[]"
            },
            {
              "internalType": "int256[]",
              "name": "rewards",
              "type": "int256[]"
            },
            {
              "internalType": "address[]",
              "name": "allPlayers",
              "type": "address[]"
            },
            {
              "internalType": "uint256[]",
              "name": "numbers",
              "type": "uint256[]"
            },
            {
              "internalType": "uint256[]",
              "name": "counts",
              "type": "uint256[]"
            },
            {
              "internalType": "address[]",
              "name": "jackpotWinners",
              "type": "address[]"
            },
            {
              "internalType": "uint256[]",
              "name": "jackpotRewards",
              "type": "uint256[]"
            }
          ],
          "indexed": false,
          "internalType": "struct LotteryManagerV3.StartRoundResult",
          "name": "startRoundResult",
          "type": "tuple"
        }
      ],
      "name": "StartRound",
      "type": "event"
    },
    {
      "inputs": [
        {
          "internalType": "address",
          "name": "newOwner",
          "type": "address"
        }
      ],
      "name": "changeOwner",
      "outputs": [
        {
          "internalType": "bool",
          "name": "result",
          "type": "bool"
        }
      ],
      "stateMutability": "nonpayable",
      "type": "function"
    },
    {
      "inputs": [
        {
          "internalType": "string",
          "name": "hash",
          "type": "string"
        },
        {
          "internalType": "address",
          "name": "newManagerContract",
          "type": "address"
        }
      ],
      "name": "changeTableManager",
      "outputs": [
        {
          "internalType": "bool",
          "name": "result",
          "type": "bool"
        }
      ],
      "stateMutability": "nonpayable",
      "type": "function"
    },
    {
      "inputs": [
        {
          "internalType": "address",
          "name": "creator",
          "type": "address"
        },
        {
          "internalType": "uint256",
          "name": "amount",
          "type": "uint256"
        },
        {
          "internalType": "uint256",
          "name": "minPPL",
          "type": "uint256"
        },
        {
          "internalType": "uint256",
          "name": "maxPPL",
          "type": "uint256"
        },
        {
          "internalType": "uint256",
          "name": "coolDownTime",
          "type": "uint256"
        },
        {
          "internalType": "uint256",
          "name": "gameTime",
          "type": "uint256"
        },
        {
          "internalType": "uint256",
          "name": "bankerCommission",
          "type": "uint256"
        },
        {
          "internalType": "uint256",
          "name": "referralCommission",
          "type": "uint256"
        },
        {
          "internalType": "address",
          "name": "bankerWallet",
          "type": "address"
        },
        {
          "internalType": "uint256",
          "name": "delayBlock",
          "type": "uint256"
        },
        {
          "internalType": "uint256",
          "name": "jackpotCommission",
          "type": "uint256"
        }
      ],
      "name": "createTableIfNecessary",
      "outputs": [
        {
          "internalType": "string",
          "name": "hashString",
          "type": "string"
        }
      ],
      "stateMutability": "payable",
      "type": "function"
    },
    {
      "inputs": [
        {
          "internalType": "string",
          "name": "hashString",
          "type": "string"
        },
        {
          "components": [
            {
              "internalType": "address",
              "name": "creator",
              "type": "address"
            },
            {
              "internalType": "uint256",
              "name": "amount",
              "type": "uint256"
            },
            {
              "internalType": "uint256",
              "name": "minPPL",
              "type": "uint256"
            },
            {
              "internalType": "uint256",
              "name": "maxPPL",
              "type": "uint256"
            },
            {
              "internalType": "uint256",
              "name": "coolDownTime",
              "type": "uint256"
            },
            {
              "internalType": "uint256",
              "name": "gameTime",
              "type": "uint256"
            },
            {
              "internalType": "uint256",
              "name": "bankerCommission",
              "type": "uint256"
            },
            {
              "internalType": "uint256",
              "name": "referralCommission",
              "type": "uint256"
            },
            {
              "internalType": "address",
              "name": "bankerWallet",
              "type": "address"
            },
            {
              "internalType": "uint256",
              "name": "delayBlocks",
              "type": "uint256"
            },
            {
              "internalType": "uint256",
              "name": "jackpotCommission",
              "type": "uint256"
            }
          ],
          "internalType": "struct ILotteryTableV3.TableInfo",
          "name": "tableInfo",
          "type": "tuple"
        }
      ],
      "name": "editTable",
      "outputs": [],
      "stateMutability": "nonpayable",
      "type": "function"
    },
    {
      "inputs": [],
      "name": "factory",
      "outputs": [
        {
          "internalType": "address",
          "name": "",
          "type": "address"
        }
      ],
      "stateMutability": "view",
      "type": "function"
    },
    {
      "inputs": [
        {
          "internalType": "string",
          "name": "hash",
          "type": "string"
        }
      ],
      "name": "getCoolDownTimeBlock",
      "outputs": [
        {
          "internalType": "uint256",
          "name": "coolDownTimeBlock",
          "type": "uint256"
        },
        {
          "internalType": "uint256",
          "name": "notifyTimestamp",
          "type": "uint256"
        }
      ],
      "stateMutability": "view",
      "type": "function"
    },
    {
      "inputs": [
        {
          "internalType": "string",
          "name": "hash",
          "type": "string"
        }
      ],
      "name": "getTableInfo",
      "outputs": [
        {
          "components": [
            {
              "internalType": "address",
              "name": "creator",
              "type": "address"
            },
            {
              "internalType": "uint256",
              "name": "amount",
              "type": "uint256"
            },
            {
              "internalType": "uint256",
              "name": "minPPL",
              "type": "uint256"
            },
            {
              "internalType": "uint256",
              "name": "maxPPL",
              "type": "uint256"
            },
            {
              "internalType": "uint256",
              "name": "coolDownTime",
              "type": "uint256"
            },
            {
              "internalType": "uint256",
              "name": "gameTime",
              "type": "uint256"
            },
            {
              "internalType": "uint256",
              "name": "bankerCommission",
              "type": "uint256"
            },
            {
              "internalType": "uint256",
              "name": "referralCommission",
              "type": "uint256"
            },
            {
              "internalType": "address",
              "name": "bankerWallet",
              "type": "address"
            },
            {
              "internalType": "uint256",
              "name": "delayBlocks",
              "type": "uint256"
            },
            {
              "internalType": "uint256",
              "name": "jackpotCommission",
              "type": "uint256"
            }
          ],
          "internalType": "struct ILotteryTableV3.TableInfo",
          "name": "tableInfo",
          "type": "tuple"
        }
      ],
      "stateMutability": "view",
      "type": "function"
    },
    {
      "inputs": [
        {
          "internalType": "string",
          "name": "hash",
          "type": "string"
        }
      ],
      "name": "holdingTicket",
      "outputs": [
        {
          "internalType": "string",
          "name": "tableHash",
          "type": "string"
        },
        {
          "internalType": "uint256",
          "name": "round",
          "type": "uint256"
        },
        {
          "internalType": "address[]",
          "name": "players",
          "type": "address[]"
        },
        {
          "internalType": "uint256[]",
          "name": "numbers",
          "type": "uint256[]"
        },
        {
          "internalType": "uint256[]",
          "name": "counts",
          "type": "uint256[]"
        }
      ],
      "stateMutability": "view",
      "type": "function"
    },
    {
      "inputs": [
        {
          "internalType": "uint256",
          "name": "count",
          "type": "uint256"
        },
        {
          "internalType": "uint256",
          "name": "number",
          "type": "uint256"
        },
        {
          "internalType": "string",
          "name": "hash",
          "type": "string"
        }
      ],
      "name": "joinTableV2",
      "outputs": [
        {
          "internalType": "bool",
          "name": "result",
          "type": "bool"
        }
      ],
      "stateMutability": "payable",
      "type": "function"
    },
    {
      "inputs": [
        {
          "internalType": "string",
          "name": "hash",
          "type": "string"
        }
      ],
      "name": "notifyCoolDownTime",
      "outputs": [
        {
          "internalType": "uint256",
          "name": "coolDownTimeBlock",
          "type": "uint256"
        }
      ],
      "stateMutability": "nonpayable",
      "type": "function"
    },
    {
      "inputs": [],
      "name": "owner",
      "outputs": [
        {
          "internalType": "address",
          "name": "",
          "type": "address"
        }
      ],
      "stateMutability": "view",
      "type": "function"
    },
    {
      "inputs": [
        {
          "internalType": "address",
          "name": "a",
          "type": "address"
        },
        {
          "internalType": "address",
          "name": "b",
          "type": "address"
        }
      ],
      "name": "referral",
      "outputs": [
        {
          "internalType": "bool",
          "name": "result",
          "type": "bool"
        }
      ],
      "stateMutability": "nonpayable",
      "type": "function"
    },
    {
      "inputs": [
        {
          "internalType": "string",
          "name": "hash",
          "type": "string"
        }
      ],
      "name": "startRoundV2",
      "outputs": [
        {
          "internalType": "bool",
          "name": "",
          "type": "bool"
        }
      ],
      "stateMutability": "payable",
      "type": "function"
    }
  ],
  "bytecode": "0x60a06040523480156200001157600080fd5b5060405162003f3e38038062003f3e833981016040819052620000349162000097565b6001600160601b031960609290921b91909116608052600080546001600160a01b03929092166001600160a01b03199283161790556001805490911633179055620000ce565b80516001600160a01b03811681146200009257600080fd5b919050565b60008060408385031215620000aa578182fd5b620000b5836200007a565b9150620000c5602084016200007a565b90509250929050565b60805160601c613e43620000fb6000396000818161024d015281816111f601526112b80152613e436000f3fe6080604052600436106100c25760003560e01c80635433f1031161007f578063a6f9dae111610059578063a6f9dae11461021b578063c45a01551461023b578063efc50bcc1461026f578063f2901e68146102a057600080fd5b80635433f103146101a25780638da5cb5b146101b5578063a4565dd7146101ed57600080fd5b8063184f9875146100c75780631c505d1d146100fd578063225276c81461012d5780633645b8241461014057806338afd4c5146101605780634711876f14610180575b600080fd5b3480156100d357600080fd5b506100e76100e2366004613138565b6102d5565b6040516100f49190613a57565b60405180910390f35b34801561010957600080fd5b5061011d61011836600461301c565b610416565b60405190151581526020016100f4565b61011d61013b366004613138565b6104ba565b61015361014e366004613054565b61114e565b6040516100f491906136f6565b34801561016c57600080fd5b5061011d61017b36600461316a565b6114bf565b34801561018c57600080fd5b506101a061019b3660046131ae565b6115bd565b005b61011d6101b036600461354e565b611720565b3480156101c157600080fd5b506001546101d5906001600160a01b031681565b6040516001600160a01b0390911681526020016100f4565b3480156101f957600080fd5b5061020d610208366004613138565b6119ac565b6040519081526020016100f4565b34801561022757600080fd5b5061011d610236366004612fe4565b611b43565b34801561024757600080fd5b506101d57f000000000000000000000000000000000000000000000000000000000000000081565b34801561027b57600080fd5b5061028f61028a366004613138565b611b94565b6040516100f49594939291906137b3565b3480156102ac57600080fd5b506102c06102bb366004613138565b611cfb565b604080519283526020830191909152016100f4565b61034460405180610160016040528060006001600160a01b031681526020016000815260200160008152602001600081526020016000815260200160008152602001600081526020016000815260200160006001600160a01b0316815260200160008152602001600081525090565b60006003836040516103569190613639565b908152604051908190036020019020546001600160a01b03169050806103975760405162461bcd60e51b815260040161038e90613866565b60405180910390fd5b6000819050806001600160a01b0316635f2d82ea6040518163ffffffff1660e01b81526004016101606040518083038186803b1580156103d657600080fd5b505afa1580156103ea573d6000803e3d6000fd5b505050506040513d601f19601f8201168201806040525081019061040e919061349a565b949350505050565b6001546000906001600160a01b031633146104435760405162461bcd60e51b815260040161038e9061389d565b6001600160a01b03831661045657600080fd5b6001600160a01b03821661046957600080fd5b816001600160a01b0316836001600160a01b0316141561048857600080fd5b506001600160a01b03918216600090815260026020526040902080546001600160a01b03191691909216179055600190565b6001546000906001600160a01b031633146104e75760405162461bcd60e51b815260040161038e9061389d565b81600c816040516104f89190613639565b9081526040519081900360200190205460ff161561054f5760405162461bcd60e51b8152602060048201526014602482015273139bc81c994b595b9d1c985b98de481c9bdd5b9960621b604482015260640161038e565b6001600c826040516105619190613639565b908152604051908190036020018120805492151560ff1990931692909217909155600090600390610593908690613639565b908152604051908190036020019020546001600160a01b03169050806105cb5760405162461bcd60e51b815260040161038e90613866565b60008190506000816001600160a01b0316635f2d82ea6040518163ffffffff1660e01b81526004016101606040518083038186803b15801561060c57600080fd5b505afa158015610620573d6000803e3d6000fd5b505050506040513d601f19601f82011682018060405250810190610644919061349a565b6001600160a01b038416600090815260086020526040902054909150806106ad5760405162461bcd60e51b815260206004820152601760248201527f77726f6e6720636f6f6c446f776e54696d65426c6f636b000000000000000000604482015260640161038e565b6040516395805dad60e01b8152600481018290526000906001600160a01b038516906395805dad90602401600060405180830381600087803b1580156106f257600080fd5b505af1158015610706573d6000803e3d6000fd5b505050506040513d6000823e601f3d908101601f1916820160405261072e919081019061333b565b905061075d6040518060600160405280602e8152602001613dbf602e91398251602084015160c0850151611d76565b600060056000876001600160a01b03166001600160a01b031681526020019081526020016000205490506107af604051806060016040528060268152602001613d9960269139828460e0015151611dc5565b6000806107c98460c0015184611e1190919063ffffffff16565b915091506107fd6040518060400160405280600e81526020016d1bdb99541a5958d954995dd85c9960921b81525082611e50565b60005b8460e0015151811015610add5760008560e00151828151811061083357634e487b7160e01b600052603260045260246000fd5b602002602001015190506000866101000151838151811061086457634e487b7160e01b600052603260045260246000fd5b6020026020010151905060006108838286611e9990919063ffffffff16565b90506108c0604051806060016040528060228152602001613d77602291396001600160a01b038e1660009081526005602052604090205483611dc5565b6001600160a01b038c166000908152600560205260409020548111156109345760405162461bcd60e51b8152602060048201526024808201527f7461626c6520706f6f6c206e6f7420656e6f75676820666f722077696e416d6f604482015263756e742160e01b606482015260840161038e565b6001600160a01b038c166000908152600560205260408120805483929061095c908490613c78565b9091555050633b9aca006001600160a01b0384161015610a3f576109b56040518060400160405280601a81526020017f77696e6e657220697320726f626f742c2077696e416d6f756e7400000000000081525082611e50565b60005460405163a9059cbb60e01b8152336004820152602481018390526001600160a01b039091169063a9059cbb90604401602060405180830381600087803b158015610a0157600080fd5b505af1158015610a15573d6000803e3d6000fd5b505050506040513d601f19601f82011682018060405250810190610a399190613118565b50610ac7565b60005460405163a9059cbb60e01b81526001600160a01b038581166004830152602482018490529091169063a9059cbb90604401602060405180830381600087803b158015610a8d57600080fd5b505af1158015610aa1573d6000803e3d6000fd5b505050506040513d601f19601f82011682018060405250810190610ac59190613118565b505b5050508080610ad590613cf0565b915050610800565b506101208401515115610e14576001600160a01b0388166000908152600a6020818152604092839020548351808501909452918352691a9858dadc1bdd105b1b60b21b9083015290610b2f9082611e50565b610b57604051806060016040528060218152602001613ded6021913986610120015151611e50565b600080610b738761012001515184611e1190919063ffffffff16565b91509150818015610b845750600081115b15610e105760005b87610120015151811015610e0e5760008861012001518281518110610bc157634e487b7160e01b600052603260045260246000fd5b6020026020010151905082600a60008f6001600160a01b03166001600160a01b03168152602001908152602001600020541015610c405760405162461bcd60e51b815260206004820152601860248201527f6a61636b706f7420706f6f6c206e6f7420656e6f756768210000000000000000604482015260640161038e565b6001600160a01b038d166000908152600a602052604081208054859290610c68908490613c78565b90915550506001600160a01b03808e16600090815260076020908152604082208054600181018255908352912001849055633b9aca009082161015610d315760005460405163a9059cbb60e01b8152336004820152602481018590526001600160a01b039091169063a9059cbb90604401602060405180830381600087803b158015610cf357600080fd5b505af1158015610d07573d6000803e3d6000fd5b505050506040513d601f19601f82011682018060405250810190610d2b9190613118565b50610db9565b60005460405163a9059cbb60e01b81526001600160a01b038381166004830152602482018690529091169063a9059cbb90604401602060405180830381600087803b158015610d7f57600080fd5b505af1158015610d93573d6000803e3d6000fd5b505050506040513d601f19601f82011682018060405250810190610db79190613118565b505b604080516001600160a01b0383168152602081018590527f2f874f9b35a653e61365e8de37b7a2293b82a7d06dd79a30025f33ff342a1c73910160405180910390a15080610e0681613cf0565b915050610b8c565b505b5050505b60005b84606001515181101561108c57600085604001515160011415610f26578560400151600081518110610e5957634e487b7160e01b600052603260045260246000fd5b602002602001015186608001518381518110610e8557634e487b7160e01b600052603260045260246000fd5b60200260200101511415610ed857610ed18660a001518381518110610eba57634e487b7160e01b600052603260045260246000fd5b602002602001015184611e9990919063ffffffff16565b9050611051565b610f1a8660a001518381518110610eff57634e487b7160e01b600052603260045260246000fd5b60200260200101518960200151611e9990919063ffffffff16565b610ed190600019613bd6565b85604001515160021415611051578560400151600081518110610f5957634e487b7160e01b600052603260045260246000fd5b602002602001015186608001518381518110610f8557634e487b7160e01b600052603260045260246000fd5b60200260200101511480610fef57508560400151600181518110610fb957634e487b7160e01b600052603260045260246000fd5b602002602001015186608001518381518110610fe557634e487b7160e01b600052603260045260246000fd5b6020026020010151145b1561101b57610ed18660a001518381518110610eba57634e487b7160e01b600052603260045260246000fd5b6110428660a001518381518110610eff57634e487b7160e01b600052603260045260246000fd5b61104e90600019613bd6565b90505b6001600160a01b038a16600090815260066020908152604082208054600181018255908352912001558061108481613cf0565b915050610e17565b5061109688611eac565b506110a28b84866122a4565b6001600160a01b03881660009081526006602052604081206110c391612dd0565b6001600160a01b03881660009081526007602052604081206110e491612dd0565b5050506001600160a01b039094166000908152600860209081526040808320839055600990915281205550600194505050506000600c826040516111289190613639565b908152604051908190036020019020805491151560ff1990921691909117905550919050565b6001546060906001600160a01b0316331461117b5760405162461bcd60e51b815260040161038e9061389d565b6001546001600160a01b031633146111f25760405162461bcd60e51b815260206004820152603460248201527f4f6e6c7920636f6e7472616374206f776e657220697320616c6c6f7765642074604482015273379031b0b636103a3434b990333ab731ba34b7b760611b606482015260840161038e565b60007f00000000000000000000000000000000000000000000000000000000000000006001600160a01b0316635abca103308f8f8f8f8f8f8f8f8f8f8f6040518d63ffffffff1660e01b81526004016112569c9b9a99989796959493929190613655565b60206040518083038186803b15801561126e57600080fd5b505afa158015611282573d6000803e3d6000fd5b505050506040513d601f19601f820116820180604052508101906112a69190613000565b90506001600160a01b03811661136d577f00000000000000000000000000000000000000000000000000000000000000006001600160a01b0316634627572f308f8f8f8f8f8f8f8f8f8f8f6040518d63ffffffff1660e01b81526004016113189c9b9a99989796959493929190613655565b602060405180830381600087803b15801561133257600080fd5b505af1158015611346573d6000803e3d6000fd5b505050506040513d601f19601f8201168201806040525081019061136a9190613000565b90505b6000308e8e8e8e8e8e8e8e8e8e8e6040516020016113969c9b9a99989796959493929190613655565b6040516020818303038152906040528051906020012060001c90506113ba81612450565b9250816003846040516113cd9190613639565b908152604080516020928190038301902080546001600160a01b0319166001600160a01b0394851617905591841660009081526004825291909120845161141692860190612df1565b50611442604051806040016040528060098152602001683a30b136329034b99d60b91b81525083612569565b611477604051806040016040528060138152602001727461626c652068617368537472696e6720697360681b815250846125ae565b7ffeadb03e5864c7ba3800506584c86f9177a7d4a3547a3db6021574c3a678b3d1836040516114a691906136f6565b60405180910390a150509b9a5050505050505050505050565b6001546000906001600160a01b031633146114ec5760405162461bcd60e51b815260040161038e9061389d565b60006003846040516114fe9190613639565b908152604051908190036020019020546001600160a01b03169050806115365760405162461bcd60e51b815260040161038e90613866565b6040516351fddd5760e11b81526001600160a01b03848116600483015282919082169063a3fbbaae90602401602060405180830381600087803b15801561157c57600080fd5b505af1158015611590573d6000803e3d6000fd5b505050506040513d601f19601f820116820180604052508101906115b49190613118565b95945050505050565b6001546001600160a01b031633146115e75760405162461bcd60e51b815260040161038e9061389d565b60006003836040516115f99190613639565b908152604051908190036020019020546001600160a01b03169050806116785760405162461bcd60e51b815260206004820152602e60248201527f4e6f207461626c6520776974682074686520686173682c20706c65617365206360448201526d6865636b2074686520686173682160901b606482015260840161038e565b6001600160a01b039081166000908152600b6020908152604091829020845181549085166001600160a01b0319918216178255918501516001820155918401516002830155606084015160038301556080840151600483015560a0840151600583015560c0840151600683015560e0840151600783015561010084015160088301805491909416911617909155610120820151600982015561014090910151600a9091015550565b6000806003836040516117339190613639565b908152604051908190036020019020546001600160a01b03169050806117b25760405162461bcd60e51b815260206004820152602e60248201527f6e6f207461626c6520776974682074686520686173682c20706c65617365206360448201526d6865636b2074686520686173682160901b606482015260840161038e565b6001600160a01b03811660009081526008602052604090205480158015906117da5750804310155b156118465760405162461bcd60e51b815260206004820152603660248201527f6172726976656420636f6f6c20646f776e2074696d6520626c6f636b2c2063616044820152756e206e6f74206a6f696e207468697320726f756e642160501b606482015260840161038e565b336000818152600260209081526040918290205482516080810184529384529083018990528282018890526001600160a01b0390811660608401819052915163796ab25d60e01b815291928592909183169063796ab25d906118ac9084906004016138d4565b600060405180830381600087803b1580156118c657600080fd5b505af11580156118da573d6000803e3d6000fd5b505050506000826001600160a01b0316635f2d82ea6040518163ffffffff1660e01b81526004016101606040518083038186803b15801561191a57600080fd5b505afa15801561192e573d6000803e3d6000fd5b505050506040513d601f19601f82011682018060405250810190611952919061349a565b905061195f8a82886125f3565b7f08b584e6aceb13e620c46e9d7288284e3b3a1c9dce5ca8e843559f5c4c8456a7338b8b8b60405161199494939291906136bf565b60405180910390a15060019998505050505050505050565b6001546000906001600160a01b031633146119d95760405162461bcd60e51b815260040161038e9061389d565b60006003836040516119eb9190613639565b908152604051908190036020019020546001600160a01b0316905080611a235760405162461bcd60e51b815260040161038e90613866565b439150611a546040518060400160405280600c81526020016b313637b1b597373ab6b132b960a11b81525083611e50565b6001600160a01b0381166000818152600860209081526040808320869055600990915280822042908190558151632f96c17560e11b8152915190938593929091635f2d82ea9160048082019261016092909190829003018186803b158015611abb57600080fd5b505afa158015611acf573d6000803e3d6000fd5b505050506040513d601f19601f82011682018060405250810190611af3919061349a565b9050611aff8185612b9e565b7fa69882baf66ab5e3584e5e8a7132a5d8f524b440db857ffdfa994cdabd944fee868642604051611b3293929190613812565b60405180910390a150505050919050565b6001546000906001600160a01b03163314611b705760405162461bcd60e51b815260040161038e9061389d565b50600180546001600160a01b0319166001600160a01b039290921691909117815590565b6060600060608060606000600387604051611baf9190613639565b908152604051908190036020019020546001600160a01b0316905080611be75760405162461bcd60e51b815260040161038e90613866565b60008190506000816001600160a01b03166384bc76a66040518163ffffffff1660e01b815260040160006040518083038186803b158015611c2757600080fd5b505afa158015611c3b573d6000803e3d6000fd5b505050506040513d6000823e601f3d908101601f19168201604052611c63919081019061328d565b90506000826001600160a01b03166347e405536040518163ffffffff1660e01b815260040160206040518083038186803b158015611ca057600080fd5b505afa158015611cb4573d6000803e3d6000fd5b505050506040513d601f19601f82011682018060405250810190611cd89190613536565b825160208401516040909401519b9c919b909a5092985091965090945050505050565b6000806000600384604051611d109190613639565b908152604051908190036020019020546001600160a01b0316905080611d485760405162461bcd60e51b815260040161038e90613866565b6001600160a01b03166000908152600860209081526040808320546009909252909120549094909350915050565b611dbf84848484604051602401611d909493929190613837565b60408051601f198184030181529190526020810180516001600160e01b03166304772b3360e11b179052612d44565b50505050565b611e0c838383604051602401611ddd93929190613812565b60408051601f198184030181529190526020810180516001600160e01b031663969cdd0360e01b179052612d44565b505050565b60008082611e2457506000905080611e49565b6001838581611e4357634e487b7160e01b600052601260045260246000fd5b04915091505b9250929050565b611e958282604051602401611e66929190613791565b60408051601f198184030181529190526020810180516001600160e01b03166309710a9d60e41b179052612d44565b5050565b6000611ea58284613c59565b9392505050565b6001600160a01b038082166000908152600b60209081526040808320815161016081018352815486168082526001830154948201949094526002820154928101929092526003810154606083015260048101546080830152600581015460a0830152600681015460c0830152600781015460e083015260088101549094166101008201526009840154610120820152600a9093015461014084015290919015612295576001600160a01b03831660009081526004602052604081208054611f7290613cbb565b80601f0160208091040260200160405190810160405280929190818152602001828054611f9e90613cbb565b8015611feb5780601f10611fc057610100808354040283529160200191611feb565b820191906000526020600020905b815481529060010190602001808311611fce57829003601f168201915b5050604051632498155360e11b815293945087936001600160a01b03851693506349302aa6925061202191508690600401613a57565b600060405180830381600087803b15801561203b57600080fd5b505af115801561204f573d6000803e3d6000fd5b505050506000836000015184602001518560400151866060015187608001518860a001518960c001518a60e001518b61010001518c61012001518d61014001516040516020016121059b9a999897969594939291906001600160a01b039b8c168152602081019a909a5260408a01989098526060890196909652608088019490945260a087019290925260c086015260e08501529093166101008301526101208201929092526101408101919091526101600190565b6040516020818303038152906040528051906020012060001c905085600361212c83612450565b6040516121399190613639565b90815260405190819003602001902080546001600160a01b03929092166001600160a01b031990921691909117905561217181612450565b6001600160a01b0387166000908152600460209081526040909120825161219e9391929190910190612df1565b506001600160a01b0386166000908152600b6020908152604080832080546001600160a01b0319908116825560018201859055600282018590556003820185905560048201859055600582018590556006820185905560078201859055600882018054909116905560098101849055600a01929092558151808301909252600d82526c3132b337b932961030b33a32b960991b90820152612248908461224384612450565b612d65565b7fe3e57a24b8f74d2723608b23c0f9b294b5919b85093bade5338255ac2f9035568361227383612450565b604051612281929190613733565b60405180910390a150600195945050505050565b50600092915050565b50919050565b60006003846040516122b69190613639565b908152604080519182900360209081018320546101a08401835287845285518483015283830187905285820151606085015285830151608085015260e08087015160a086015261010087015160c08601526001600160a01b0390911660008181526006845284902080548551818602810186019096528086529196507fc0ec51606c487dd657ad454c00b53ad9f5b378283485d0ae58cf92d3ce7641df95949285019390919083018282801561238b57602002820191906000526020600020905b815481526020019060010190808311612377575b5050505050815260200184606001518152602001846080015181526020018460a001518152602001846101200151815260200160076000856001600160a01b03166001600160a01b0316815260200190815260200160002080548060200260200160405190810160405280929190818152602001828054801561242d57602002820191906000526020600020905b815481526020019060010190808311612419575b5050505050815250604051612442919061390b565b60405180910390a150505050565b6060816124745750506040805180820190915260018152600360fc1b602082015290565b8160005b811561249e578061248881613cf0565b91506124979050600a83613bc2565b9150612478565b6000816001600160401b038111156124c657634e487b7160e01b600052604160045260246000fd5b6040519080825280601f01601f1916602001820160405280156124f0576020820181803683370190505b5090505b841561040e57612505600183613c78565b9150612512600a86613d0b565b61251d906030613baa565b60f81b81838151811061254057634e487b7160e01b600052603260045260246000fd5b60200101906001600160f81b031916908160001a905350612562600a86613bc2565b94506124f4565b611e95828260405160240161257f929190613709565b60408051601f198184030181529190526020810180516001600160e01b031663319af33360e01b179052612d44565b611e9582826040516024016125c4929190613733565b60408051601f198184030181529190526020810180516001600160e01b0316634b5c427760e01b179052612d44565b600061260c836020015185611e9990919063ffffffff16565b6000546040516323b872dd60e01b8152336004820152306024820152604481018390529192506001600160a01b0316906323b872dd90606401602060405180830381600087803b15801561265f57600080fd5b505af1158015612673573d6000803e3d6000fd5b505050506040513d601f19601f820116820180604052508101906126979190613118565b506001600160a01b038216600090815260056020526040812080548392906126c0908490613baa565b909155505060c0830151156129ce5760c08301516000906126ed906126e784612710612dac565b90611e99565b6001600160a01b03841660009081526005602052604090205490915081111561276c5760405162461bcd60e51b815260206004820152602b60248201527f5461626c6520706f6f6c206e6f7420656e6f75676820666f722062616e6b657260448201526a436f6d6d697373696f6e2160a81b606482015260840161038e565b6001600160a01b03831660009081526005602052604081208054839290612794908490613c78565b909155505060005461010085015160405163a9059cbb60e01b81526001600160a01b0391821660048201526024810184905291169063a9059cbb90604401602060405180830381600087803b1580156127ec57600080fd5b505af1158015612800573d6000803e3d6000fd5b505050506040513d601f19601f820116820180604052508101906128249190613118565b50610100840151604080513381526001600160a01b03909216602083015281018290527fda5163f4fef80ed29382eca50bb83c0bd880a912e0ad6adf0d4389fa62481a639060600160405180910390a1610140840151156129cc57610140840151600090612898906126e784612710612dac565b6001600160a01b0385166000908152600560205260409020549091508111156129185760405162461bcd60e51b815260206004820152602c60248201527f5461626c6520706f6f6c206e6f7420656e6f75676820666f72206a61636b706f60448201526b74436f6d6d697373696f6e2160a01b606482015260840161038e565b6001600160a01b03841660009081526005602052604081208054839290612940908490613c78565b90915550506001600160a01b0384166000908152600a60205260408120805483929061296d908490613baa565b90915550506001600160a01b0384166000908152600a60209081526040918290205482513381529182018490528183015290517ff864fe483b7edde37b34a983ba165cd5b188c5a8bbe3b5bfa25cdc2baf346a1a9181900360600190a1505b505b336000908152600260205260409020546001600160a01b031680158015906129fa575060008460e00151115b15612b975760e0840151600090612a17906126e785612710612dac565b6001600160a01b038516600090815260056020526040902054909150811115612a985760405162461bcd60e51b815260206004820152602d60248201527f5461626c6520706f6f6c206e6f7420656e6f75676820666f722072656665727260448201526c616c436f6d6d697373696f6e2160981b606482015260840161038e565b6001600160a01b03841660009081526005602052604081208054839290612ac0908490613c78565b909155505060005460405163a9059cbb60e01b81526001600160a01b038481166004830152602482018490529091169063a9059cbb90604401602060405180830381600087803b158015612b1357600080fd5b505af1158015612b27573d6000803e3d6000fd5b505050506040513d601f19601f82011682018060405250810190612b4b9190613118565b50604080513381526001600160a01b03841660208201529081018290527fa97b13b2cce63d44be7b27fdf4d8e0c49f255b8b0a19f07ce2881ba924118f829060600160405180910390a1505b5050505050565b60008190506000816001600160a01b031663efa1c4826040518163ffffffff1660e01b815260040160006040518083038186803b158015612bde57600080fd5b505afa158015612bf2573d6000803e3d6000fd5b505050506040513d6000823e601f3d908101601f19168201604052612c1a91908101906130e6565b8051604086015191925090811015612b97576040850151600090612c3e9083612db8565b905060005b81811015612d3b576000612c92600a612c8c8460408051426020808301919091524482840152606080830194909452825180830390940184526080909101909152815191012090565b90612dc4565b604080516080810182526001600160a01b0380861682526001602083015281830184905260006060830152915163796ab25d60e01b81529293508492909189169063796ab25d90612ce79084906004016138d4565b600060405180830381600087803b158015612d0157600080fd5b505af1158015612d15573d6000803e3d6000fd5b50505050612d2560018b8b6125f3565b5050508080612d3390613cf0565b915050612c43565b50505050505050565b80516a636f6e736f6c652e6c6f67602083016000808483855afa5050505050565b611e0c838383604051602401612d7d93929190613758565b60408051601f198184030181529190526020810180516001600160e01b0316632ced7cef60e01b179052612d44565b6000611ea58284613bc2565b6000611ea58284613c78565b6000611ea58284613d0b565b5080546000825590600052602060002090810190612dee9190612e75565b50565b828054612dfd90613cbb565b90600052602060002090601f016020900481019282612e1f5760008555612e65565b82601f10612e3857805160ff1916838001178555612e65565b82800160010185558215612e65579182015b82811115612e65578251825591602001919060010190612e4a565b50612e71929150612e75565b5090565b5b80821115612e715760008155600101612e76565b8035612e9581613d61565b919050565b8051612e9581613d61565b600082601f830112612eb5578081fd5b81516020612eca612ec583613b87565b613b57565b80838252828201915082860187848660051b8901011115612ee9578586fd5b855b85811015612f10578151612efe81613d61565b84529284019290840190600101612eeb565b5090979650505050505050565b600082601f830112612f2d578081fd5b81516020612f3d612ec583613b87565b80838252828201915082860187848660051b8901011115612f5c578586fd5b855b85811015612f1057815184529284019290840190600101612f5e565b600082601f830112612f8a578081fd5b81356001600160401b03811115612fa357612fa3613d4b565b612fb6601f8201601f1916602001613b57565b818152846020838601011115612fca578283fd5b816020850160208301379081016020019190915292915050565b600060208284031215612ff5578081fd5b8135611ea581613d61565b600060208284031215613011578081fd5b8151611ea581613d61565b6000806040838503121561302e578081fd5b823561303981613d61565b9150602083013561304981613d61565b809150509250929050565b60008060008060008060008060008060006101608c8e031215613075578687fd5b8b3561308081613d61565b9a5060208c0135995060408c0135985060608c0135975060808c0135965060a08c0135955060c08c0135945060e08c013593506101008c01356130c281613d61565b809350506101208c013591506101408c013590509295989b509295989b9093969950565b6000602082840312156130f7578081fd5b81516001600160401b0381111561310c578182fd5b61040e84828501612ea5565b600060208284031215613129578081fd5b81518015158114611ea5578182fd5b600060208284031215613149578081fd5b81356001600160401b0381111561315e578182fd5b61040e84828501612f7a565b6000806040838503121561317c578182fd5b82356001600160401b03811115613191578283fd5b61319d85828601612f7a565b925050602083013561304981613d61565b6000808284036101808112156131c2578283fd5b83356001600160401b038111156131d7578384fd5b6131e386828701612f7a565b93505061016080601f19830112156131f9578283fd5b613201613ae9565b915061320f60208601612e8a565b825260408501356020830152606085013560408301526080850135606083015260a0850135608083015260c085013560a083015260e085013560c08301526101008086013560e0840152610120613267818801612e8a565b918401919091526101408681013591840191909152940135938101939093525092909150565b60006020828403121561329e578081fd5b81516001600160401b03808211156132b4578283fd5b90830190606082860312156132c7578283fd5b6132cf613b12565b8251828111156132dd578485fd5b6132e987828601612ea5565b8252506020830151828111156132fd578485fd5b61330987828601612f1d565b602083015250604083015182811115613320578485fd5b61332c87828601612f1d565b60408301525095945050505050565b60006020828403121561334c578081fd5b81516001600160401b0380821115613362578283fd5b908301906101408286031215613376578283fd5b61337e613b34565b825181526020830151602082015260408301518281111561339d578485fd5b6133a987828601612f1d565b6040830152506060830151828111156133c0578485fd5b6133cc87828601612ea5565b6060830152506080830151828111156133e3578485fd5b6133ef87828601612f1d565b60808301525060a083015182811115613406578485fd5b61341287828601612f1d565b60a08301525060c083015160c082015260e083015182811115613433578485fd5b61343f87828601612ea5565b60e0830152506101008084015183811115613458578586fd5b61346488828701612f1d565b828401525050610120808401518381111561347d578586fd5b61348988828701612ea5565b918301919091525095945050505050565b600061016082840312156134ac578081fd5b6134b4613ae9565b6134bd83612e9a565b81526020830151602082015260408301516040820152606083015160608201526080830151608082015260a083015160a082015260c083015160c082015260e083015160e0820152610100613513818501612e9a565b908201526101208381015190820152610140928301519281019290925250919050565b600060208284031215613547578081fd5b5051919050565b600080600060608486031215613562578081fd5b833592506020840135915060408401356001600160401b03811115613585578182fd5b61359186828701612f7a565b9150509250925092565b6000815180845260208085019450808401835b838110156135d35781516001600160a01b0316875295820195908201906001016135ae565b509495945050505050565b6000815180845260208085019450808401835b838110156135d3578151875295820195908201906001016135f1565b60008151808452613625816020860160208601613c8f565b601f01601f19169290920160200192915050565b6000825161364b818460208701613c8f565b9190910192915050565b6001600160a01b039c8d1681529a8c1660208c015260408b019990995260608a0197909752608089019590955260a088019390935260c087019190915260e08601526101008501529093166101208301526101408201929092526101608101919091526101800190565b60018060a01b03851681528360208201528260408201526080606082015260006136ec608083018461360d565b9695505050505050565b602081526000611ea5602083018461360d565b60408152600061371c604083018561360d565b905060018060a01b03831660208301529392505050565b604081526000613746604083018561360d565b82810360208401526115b4818561360d565b60608152600061376b606083018661360d565b828103602084015261377d818661360d565b905082810360408401526136ec818561360d565b6040815260006137a4604083018561360d565b90508260208301529392505050565b60a0815260006137c660a083018861360d565b86602084015282810360408401526137de818761359b565b905082810360608401526137f281866135de565b9050828103608084015261380681856135de565b98975050505050505050565b606081526000613825606083018661360d565b60208301949094525060400152919050565b60808152600061384a608083018761360d565b6020830195909552506040810192909252606090910152919050565b60208082526019908201527f706c6561736520636865636b2074686520616464726573732100000000000000604082015260600190565b6020808252601b908201527f6d73672e73656e646572206973206e6f7420746865206f776e65720000000000604082015260600190565b81516001600160a01b0390811682526020808401519083015260408084015190830152606092830151169181019190915260800190565b60208152600082516101a080602085015261392a6101c085018361360d565b91506020850151604085015260408501516060850152606085015160808501526080850151601f19808685030160a087015261396684836135de565b935060a08701519150808685030160c0870152613983848361359b565b935060c08701519150808685030160e08701526139a084836135de565b935060e087015191506101008187860301818801526139bf85846135de565b9450808801519250506101208187860301818801526139de858461359b565b9450808801519250506101408187860301818801526139fd85846135de565b945080880151925050610160818786030181880152613a1c85846135de565b945080880151925050610180818786030181880152613a3b858461359b565b9088015187820390920184880152935090506136ec83826135de565b81516001600160a01b0316815261016081016020830151602083015260408301516040830152606083015160608301526080830151608083015260a083015160a083015260c083015160c083015260e083015160e083015261010080840151613aca828501826001600160a01b03169052565b5050610120838101519083015261014092830151929091019190915290565b60405161016081016001600160401b0381118282101715613b0c57613b0c613d4b565b60405290565b604051606081016001600160401b0381118282101715613b0c57613b0c613d4b565b60405161014081016001600160401b0381118282101715613b0c57613b0c613d4b565b604051601f8201601f191681016001600160401b0381118282101715613b7f57613b7f613d4b565b604052919050565b60006001600160401b03821115613ba057613ba0613d4b565b5060051b60200190565b60008219821115613bbd57613bbd613d1f565b500190565b600082613bd157613bd1613d35565b500490565b60006001600160ff1b0381841382841380821686840486111615613bfc57613bfc613d1f565b600160ff1b84871282811687830589121615613c1a57613c1a613d1f565b858712925087820587128484161615613c3557613c35613d1f565b87850587128184161615613c4b57613c4b613d1f565b505050929093029392505050565b6000816000190483118215151615613c7357613c73613d1f565b500290565b600082821015613c8a57613c8a613d1f565b500390565b60005b83811015613caa578181015183820152602001613c92565b83811115611dbf5750506000910152565b600181811c90821680613ccf57607f821691505b6020821081141561229e57634e487b7160e01b600052602260045260246000fd5b6000600019821415613d0457613d04613d1f565b5060010190565b600082613d1a57613d1a613d35565b500690565b634e487b7160e01b600052601160045260246000fd5b634e487b7160e01b600052601260045260246000fd5b634e487b7160e01b600052604160045260246000fd5b6001600160a01b0381168114612dee57600080fdfe7461626c65506f6f6c5b7461626c65416464726573735d2c2077696e416d6f756e74706f6f6c416d6f756e742c20726f756e64526573756c742e77696e6e6572732e6c656e677468726f756e642c20726f756e644e756d6265722c20726f756e64526573756c742e77696e6e6572416c6c436f756e74726f756e64526573756c742e6a61636b706f7457696e6e6572732e6c656e677468a2646970667358221220bb568bb61adca41d599d21d942d39c207eb65abe9c1e08c4bd5fa3c4c38b549d64736f6c63430008040033",
  "linkReferences": {},
  "deployedLinkReferences": {}
}