{
  "_format": "hh-sol-artifact-1",
  "contractName": "LotteryManagerV3",
  "sourceName": "contracts/LotteryManagerV3.sol",
  "abi": [
    {
      "inputs": [
        {
          "internalType": "address",
          "name": "_factory",
          "type": "address"
        },
        {
          "internalType": "address",
          "name": "_tokenAddress",
          "type": "address"
        }
      ],
      "stateMutability": "nonpayable",
      "type": "constructor"
    },
    {
      "anonymous": false,
      "inputs": [
        {
          "indexed": false,
          "internalType": "address",
          "name": "player",
          "type": "address"
        },
        {
          "indexed": false,
          "internalType": "address",
          "name": "banker",
          "type": "address"
        },
        {
          "indexed": false,
          "internalType": "uint256",
          "name": "amount",
          "type": "uint256"
        }
      ],
      "name": "BankerCommission",
      "type": "event"
    },
    {
      "anonymous": false,
      "inputs": [
        {
          "indexed": false,
          "internalType": "string",
          "name": "hash",
          "type": "string"
        }
      ],
      "name": "CreateTableIfNecessary",
      "type": "event"
    },
    {
      "anonymous": false,
      "inputs": [
        {
          "indexed": false,
          "internalType": "string",
          "name": "beforeHash",
          "type": "string"
        },
        {
          "indexed": false,
          "internalType": "string",
          "name": "newHash",
          "type": "string"
        }
      ],
      "name": "EditTable",
      "type": "event"
    },
    {
      "anonymous": false,
      "inputs": [
        {
          "indexed": false,
          "internalType": "string",
          "name": "hash",
          "type": "string"
        },
        {
          "indexed": false,
          "internalType": "uint256",
          "name": "round",
          "type": "uint256"
        },
        {
          "indexed": false,
          "internalType": "address[]",
          "name": "players",
          "type": "address[]"
        },
        {
          "indexed": false,
          "internalType": "uint256[]",
          "name": "numbers",
          "type": "uint256[]"
        },
        {
          "indexed": false,
          "internalType": "uint256[]",
          "name": "counts",
          "type": "uint256[]"
        }
      ],
      "name": "HoldingTicket",
      "type": "event"
    },
    {
      "anonymous": false,
      "inputs": [
        {
          "indexed": false,
          "internalType": "address",
          "name": "player",
          "type": "address"
        },
        {
          "indexed": false,
          "internalType": "uint256",
          "name": "count",
          "type": "uint256"
        },
        {
          "indexed": false,
          "internalType": "uint256",
          "name": "number",
          "type": "uint256"
        },
        {
          "indexed": false,
          "internalType": "string",
          "name": "hash",
          "type": "string"
        }
      ],
      "name": "JoinTable",
      "type": "event"
    },
    {
      "anonymous": false,
      "inputs": [
        {
          "indexed": false,
          "internalType": "string",
          "name": "hash",
          "type": "string"
        },
        {
          "indexed": false,
          "internalType": "uint256",
          "name": "coolDownTimeBlock",
          "type": "uint256"
        }
      ],
      "name": "NotifyCoolDownTime",
      "type": "event"
    },
    {
      "anonymous": false,
      "inputs": [
        {
          "indexed": false,
          "internalType": "address",
          "name": "player",
          "type": "address"
        },
        {
          "indexed": false,
          "internalType": "address",
          "name": "refer",
          "type": "address"
        },
        {
          "indexed": false,
          "internalType": "uint256",
          "name": "amount",
          "type": "uint256"
        }
      ],
      "name": "ReferCommission",
      "type": "event"
    },
    {
      "anonymous": false,
      "inputs": [
        {
          "indexed": false,
          "internalType": "string",
          "name": "hash",
          "type": "string"
        },
        {
          "indexed": false,
          "internalType": "uint256",
          "name": "round",
          "type": "uint256"
        },
        {
          "indexed": false,
          "internalType": "uint256",
          "name": "poolAmount",
          "type": "uint256"
        },
        {
          "indexed": false,
          "internalType": "uint256",
          "name": "roundNumber",
          "type": "uint256"
        },
        {
          "indexed": false,
          "internalType": "uint256[]",
          "name": "prizeNumbers",
          "type": "uint256[]"
        },
        {
          "indexed": false,
          "internalType": "address[]",
          "name": "roundWinnerArray",
          "type": "address[]"
        },
        {
          "indexed": false,
          "internalType": "uint256[]",
          "name": "winnerCount",
          "type": "uint256[]"
        },
        {
          "indexed": false,
          "internalType": "int256[]",
          "name": "rewards",
          "type": "int256[]"
        },
        {
          "indexed": false,
          "internalType": "address[]",
          "name": "allPlayers",
          "type": "address[]"
        },
        {
          "indexed": false,
          "internalType": "uint256[]",
          "name": "numbers",
          "type": "uint256[]"
        },
        {
          "indexed": false,
          "internalType": "uint256[]",
          "name": "counts",
          "type": "uint256[]"
        }
      ],
      "name": "StartRound",
      "type": "event"
    },
    {
      "inputs": [
        {
          "internalType": "address",
          "name": "newOwner",
          "type": "address"
        }
      ],
      "name": "changeOwner",
      "outputs": [
        {
          "internalType": "bool",
          "name": "result",
          "type": "bool"
        }
      ],
      "stateMutability": "nonpayable",
      "type": "function"
    },
    {
      "inputs": [
        {
          "internalType": "string",
          "name": "hash",
          "type": "string"
        },
        {
          "internalType": "address",
          "name": "newManagerContract",
          "type": "address"
        }
      ],
      "name": "changeTableManager",
      "outputs": [
        {
          "internalType": "bool",
          "name": "result",
          "type": "bool"
        }
      ],
      "stateMutability": "nonpayable",
      "type": "function"
    },
    {
      "inputs": [
        {
          "internalType": "address",
          "name": "creator",
          "type": "address"
        },
        {
          "internalType": "uint256",
          "name": "amount",
          "type": "uint256"
        },
        {
          "internalType": "uint256",
          "name": "minPPL",
          "type": "uint256"
        },
        {
          "internalType": "uint256",
          "name": "maxPPL",
          "type": "uint256"
        },
        {
          "internalType": "uint256",
          "name": "coolDownTime",
          "type": "uint256"
        },
        {
          "internalType": "uint256",
          "name": "gameTime",
          "type": "uint256"
        },
        {
          "internalType": "uint256",
          "name": "bankerCommission",
          "type": "uint256"
        },
        {
          "internalType": "uint256",
          "name": "referralCommission",
          "type": "uint256"
        },
        {
          "internalType": "address",
          "name": "bankerWallet",
          "type": "address"
        },
        {
          "internalType": "uint256",
          "name": "delayBlock",
          "type": "uint256"
        }
      ],
      "name": "createTableIfNecessary",
      "outputs": [
        {
          "internalType": "string",
          "name": "hashString",
          "type": "string"
        }
      ],
      "stateMutability": "payable",
      "type": "function"
    },
    {
      "inputs": [
        {
          "internalType": "string",
          "name": "hashString",
          "type": "string"
        },
        {
          "components": [
            {
              "internalType": "address",
              "name": "creator",
              "type": "address"
            },
            {
              "internalType": "uint256",
              "name": "amount",
              "type": "uint256"
            },
            {
              "internalType": "uint256",
              "name": "minPPL",
              "type": "uint256"
            },
            {
              "internalType": "uint256",
              "name": "maxPPL",
              "type": "uint256"
            },
            {
              "internalType": "uint256",
              "name": "coolDownTime",
              "type": "uint256"
            },
            {
              "internalType": "uint256",
              "name": "gameTime",
              "type": "uint256"
            },
            {
              "internalType": "uint256",
              "name": "bankerCommission",
              "type": "uint256"
            },
            {
              "internalType": "uint256",
              "name": "referralCommission",
              "type": "uint256"
            },
            {
              "internalType": "address",
              "name": "bankerWallet",
              "type": "address"
            },
            {
              "internalType": "uint256",
              "name": "delayBlocks",
              "type": "uint256"
            }
          ],
          "internalType": "struct ILotteryTableV3.TableInfo",
          "name": "tableInfo",
          "type": "tuple"
        }
      ],
      "name": "editTable",
      "outputs": [],
      "stateMutability": "nonpayable",
      "type": "function"
    },
    {
      "inputs": [],
      "name": "factory",
      "outputs": [
        {
          "internalType": "address",
          "name": "",
          "type": "address"
        }
      ],
      "stateMutability": "view",
      "type": "function"
    },
    {
      "inputs": [
        {
          "internalType": "string",
          "name": "hash",
          "type": "string"
        }
      ],
      "name": "getCoolDownTimeBlock",
      "outputs": [
        {
          "internalType": "uint256",
          "name": "coolDownTimeBlock",
          "type": "uint256"
        }
      ],
      "stateMutability": "view",
      "type": "function"
    },
    {
      "inputs": [
        {
          "internalType": "string",
          "name": "hash",
          "type": "string"
        }
      ],
      "name": "holdingTicket",
      "outputs": [
        {
          "internalType": "string",
          "name": "tableHash",
          "type": "string"
        },
        {
          "internalType": "uint256",
          "name": "round",
          "type": "uint256"
        },
        {
          "internalType": "address[]",
          "name": "players",
          "type": "address[]"
        },
        {
          "internalType": "uint256[]",
          "name": "numbers",
          "type": "uint256[]"
        },
        {
          "internalType": "uint256[]",
          "name": "counts",
          "type": "uint256[]"
        }
      ],
      "stateMutability": "view",
      "type": "function"
    },
    {
      "inputs": [
        {
          "internalType": "uint256",
          "name": "count",
          "type": "uint256"
        },
        {
          "internalType": "uint256",
          "name": "number",
          "type": "uint256"
        },
        {
          "internalType": "string",
          "name": "hash",
          "type": "string"
        }
      ],
      "name": "joinTableV2",
      "outputs": [
        {
          "internalType": "bool",
          "name": "result",
          "type": "bool"
        }
      ],
      "stateMutability": "payable",
      "type": "function"
    },
    {
      "inputs": [
        {
          "internalType": "string",
          "name": "hash",
          "type": "string"
        }
      ],
      "name": "notifyCoolDownTime",
      "outputs": [
        {
          "internalType": "uint256",
          "name": "coolDownTimeBlock",
          "type": "uint256"
        }
      ],
      "stateMutability": "nonpayable",
      "type": "function"
    },
    {
      "inputs": [],
      "name": "owner",
      "outputs": [
        {
          "internalType": "address",
          "name": "",
          "type": "address"
        }
      ],
      "stateMutability": "view",
      "type": "function"
    },
    {
      "inputs": [
        {
          "internalType": "address",
          "name": "a",
          "type": "address"
        },
        {
          "internalType": "address",
          "name": "b",
          "type": "address"
        }
      ],
      "name": "referral",
      "outputs": [
        {
          "internalType": "bool",
          "name": "result",
          "type": "bool"
        }
      ],
      "stateMutability": "nonpayable",
      "type": "function"
    },
    {
      "inputs": [
        {
          "internalType": "string",
          "name": "hash",
          "type": "string"
        }
      ],
      "name": "startRoundV2",
      "outputs": [
        {
          "internalType": "bool",
          "name": "",
          "type": "bool"
        }
      ],
      "stateMutability": "payable",
      "type": "function"
    }
  ],
  "bytecode": "0x60a06040523480156200001157600080fd5b506040516200357638038062003576833981016040819052620000349162000097565b6001600160601b031960609290921b91909116608052600080546001600160a01b03929092166001600160a01b03199283161790556001805490911633179055620000ce565b80516001600160a01b03811681146200009257600080fd5b919050565b60008060408385031215620000aa578182fd5b620000b5836200007a565b9150620000c5602084016200007a565b90509250929050565b60805160601c61347b620000fb60003960008181610201015281816113520152611412015261347b6000f3fe6080604052600436106100a75760003560e01c8063a4565dd711610064578063a4565dd714610181578063a6f9dae1146101af578063b50c83bc146101cf578063c45a0155146101ef578063efc50bcc14610223578063f2901e681461025457600080fd5b80631c505d1d146100ac578063225276c8146100e15780633818aa7d146100f457806338afd4c5146101165780635433f103146101365780638da5cb5b14610149575b600080fd5b3480156100b857600080fd5b506100cc6100c736600461275d565b610274565b60405190151581526020015b60405180910390f35b6100cc6100ef36600461286e565b610321565b34801561010057600080fd5b5061011461010f3660046128e4565b610c75565b005b34801561012257600080fd5b506100cc6101313660046128a0565b610dcc565b6100cc610144366004612c46565b610eca565b34801561015557600080fd5b50600154610169906001600160a01b031681565b6040516001600160a01b0390911681526020016100d8565b34801561018d57600080fd5b506101a161019c36600461286e565b611156565b6040519081526020016100d8565b3480156101bb57600080fd5b506100cc6101ca366004612725565b611259565b6101e26101dd366004612795565b6112aa565b6040516100d89190612de2565b3480156101fb57600080fd5b506101697f000000000000000000000000000000000000000000000000000000000000000081565b34801561022f57600080fd5b5061024361023e36600461286e565b611614565b6040516100d8959493929190612e9f565b34801561026057600080fd5b506101a161026f36600461286e565b61177b565b6001546000906001600160a01b031633146102aa5760405162461bcd60e51b81526004016102a190613050565b60405180910390fd5b6001600160a01b0383166102bd57600080fd5b6001600160a01b0382166102d057600080fd5b816001600160a01b0316836001600160a01b031614156102ef57600080fd5b506001600160a01b03918216600090815260026020526040902080546001600160a01b03191691909216179055600190565b6001546000906001600160a01b0316331461034e5760405162461bcd60e51b81526004016102a190613050565b8160098160405161035f9190612d31565b9081526040519081900360200190205460ff16156103b65760405162461bcd60e51b8152602060048201526014602482015273139bc81c994b595b9d1c985b98de481c9bdd5b9960621b60448201526064016102a1565b60016009826040516103c89190612d31565b908152604051908190036020018120805492151560ff19909316929092179091556000906003906103fa908690612d31565b908152604051908190036020019020546001600160a01b03169050806104325760405162461bcd60e51b81526004016102a190613019565b60008190506000816001600160a01b0316635f2d82ea6040518163ffffffff1660e01b81526004016101406040518083038186803b15801561047357600080fd5b505afa158015610487573d6000803e3d6000fd5b505050506040513d601f19601f820116820180604052508101906104ab9190612b9d565b90506104b781846117e4565b6001600160a01b0383166000908152600760205260409020548061051d5760405162461bcd60e51b815260206004820152601760248201527f77726f6e6720636f6f6c446f776e54696d65426c6f636b00000000000000000060448201526064016102a1565b6040516395805dad60e01b8152600481018290526000906001600160a01b038516906395805dad90602401600060405180830381600087803b15801561056257600080fd5b505af1158015610576573d6000803e3d6000fd5b505050506040513d6000823e601f3d908101601f1916820160405261059e9190810190612a63565b90506105cd6040518060600160405280602e8152602001613418602e91398251602084015160c085015161198b565b600060056000876001600160a01b03166001600160a01b0316815260200190815260200160002054905061061f6040518060600160405280602681526020016133f260269139828460e00151516119da565b6000806106398460c0015184611a2690919063ffffffff16565b9150915061066d6040518060400160405280600e81526020016d1bdb99541a5958d954995dd85c9960921b81525082611a65565b60005b8460600151518110156107875760008560200151866080015183815181106106a857634e487b7160e01b600052603260045260246000fd5b602002602001015114156106fb576106f48660a0015183815181106106dd57634e487b7160e01b600052603260045260246000fd5b602002602001015184611aae90919063ffffffff16565b905061074c565b61073d8660a00151838151811061072257634e487b7160e01b600052603260045260246000fd5b60200260200101518960200151611aae90919063ffffffff16565b6107499060001961322f565b90505b6001600160a01b038a16600090815260066020908152604082208054600181018255908352912001558061077f81613349565b915050610670565b5060e084015151610837576001600160a01b038881166000908152600560205260408082208290559054610100890151915163a9059cbb60e01b81529183166004830152602482018690529091169063a9059cbb90604401602060405180830381600087803b1580156107f957600080fd5b505af115801561080d573d6000803e3d6000fd5b505050506040513d601f19601f82011682018060405250810190610831919061284e565b50610b19565b60005b8460e0015151811015610b175760008560e00151828151811061086d57634e487b7160e01b600052603260045260246000fd5b602002602001015190506000866101000151838151811061089e57634e487b7160e01b600052603260045260246000fd5b6020026020010151905060006108bd8286611aae90919063ffffffff16565b90506108fa6040518060600160405280602281526020016133d0602291396001600160a01b038e16600090815260056020526040902054836119da565b6001600160a01b038c1660009081526005602052604090205481111561096e5760405162461bcd60e51b8152602060048201526024808201527f7461626c6520706f6f6c206e6f7420656e6f75676820666f722077696e416d6f604482015263756e742160e01b60648201526084016102a1565b6001600160a01b038c16600090815260056020526040812080548392906109969084906132d1565b9091555050633b9aca006001600160a01b0384161015610a79576109ef6040518060400160405280601a81526020017f77696e6e657220697320726f626f742c2077696e416d6f756e7400000000000081525082611a65565b60005460405163a9059cbb60e01b8152336004820152602481018390526001600160a01b039091169063a9059cbb90604401602060405180830381600087803b158015610a3b57600080fd5b505af1158015610a4f573d6000803e3d6000fd5b505050506040513d601f19601f82011682018060405250810190610a73919061284e565b50610b01565b60005460405163a9059cbb60e01b81526001600160a01b038581166004830152602482018490529091169063a9059cbb90604401602060405180830381600087803b158015610ac757600080fd5b505af1158015610adb573d6000803e3d6000fd5b505050506040513d601f19601f82011682018060405250810190610aff919061284e565b505b5050508080610b0f90613349565b91505061083a565b505b610b2288611ac1565b506001600160a01b038816600090815260066020908152604080832080548251818502810185019093528083529192909190830182828015610b8357602002820191906000526020600020905b815481526020019060010190808311610b6f575b505050505090507f8daddefa871dbbbd880b6b7c86b38d78ca26fc0f0ffa33d9b36d03d1bf3580528c866000015186886020015189604001518a60e001518b6101000151888d606001518e608001518f60a00151604051610bee9b9a99989796959493929190612f52565b60405180910390a1506001600160a01b0388166000908152600660205260408120610c1891612511565b5050506001600160a01b0390941660009081526007602052604081205550600194505050506000600982604051610c4f9190612d31565b908152604051908190036020019020805491151560ff1990921691909117905550919050565b6001546001600160a01b03163314610c9f5760405162461bcd60e51b81526004016102a190613050565b6000600383604051610cb19190612d31565b908152604051908190036020019020546001600160a01b0316905080610d305760405162461bcd60e51b815260206004820152602e60248201527f4e6f207461626c6520776974682074686520686173682c20706c65617365206360448201526d6865636b2074686520686173682160901b60648201526084016102a1565b6001600160a01b03908116600090815260086020818152604092839020855181549086166001600160a01b0319918216178255918601516001820155928501516002840155606085015160038401556080850151600484015560a0850151600584015560c0850151600684015560e085015160078401556101008501519183018054929094169116179091556101209091015160099091015550565b6001546000906001600160a01b03163314610df95760405162461bcd60e51b81526004016102a190613050565b6000600384604051610e0b9190612d31565b908152604051908190036020019020546001600160a01b0316905080610e435760405162461bcd60e51b81526004016102a190613019565b6040516351fddd5760e11b81526001600160a01b03848116600483015282919082169063a3fbbaae90602401602060405180830381600087803b158015610e8957600080fd5b505af1158015610e9d573d6000803e3d6000fd5b505050506040513d601f19601f82011682018060405250810190610ec1919061284e565b95945050505050565b600080600383604051610edd9190612d31565b908152604051908190036020019020546001600160a01b0316905080610f5c5760405162461bcd60e51b815260206004820152602e60248201527f6e6f207461626c6520776974682074686520686173682c20706c65617365206360448201526d6865636b2074686520686173682160901b60648201526084016102a1565b6001600160a01b0381166000908152600760205260409020548015801590610f845750804310155b15610ff05760405162461bcd60e51b815260206004820152603660248201527f6172726976656420636f6f6c20646f776e2074696d6520626c6f636b2c2063616044820152756e206e6f74206a6f696e207468697320726f756e642160501b60648201526084016102a1565b336000818152600260209081526040918290205482516080810184529384529083018990528282018890526001600160a01b0390811660608401819052915163796ab25d60e01b815291928592909183169063796ab25d90611056908490600401613087565b600060405180830381600087803b15801561107057600080fd5b505af1158015611084573d6000803e3d6000fd5b505050506000826001600160a01b0316635f2d82ea6040518163ffffffff1660e01b81526004016101406040518083038186803b1580156110c457600080fd5b505afa1580156110d8573d6000803e3d6000fd5b505050506040513d601f19601f820116820180604052508101906110fc9190612b9d565b90506111098a8288611e88565b7f08b584e6aceb13e620c46e9d7288284e3b3a1c9dce5ca8e843559f5c4c8456a7338b8b8b60405161113e9493929190612dab565b60405180910390a15060019998505050505050505050565b6001546000906001600160a01b031633146111835760405162461bcd60e51b81526004016102a190613050565b60006003836040516111959190612d31565b908152604051908190036020019020546001600160a01b03169050806111cd5760405162461bcd60e51b81526004016102a190613019565b4391506111fe6040518060400160405280600c81526020016b313637b1b597373ab6b132b960a11b81525083611a65565b6001600160a01b03811660009081526007602052604090819020839055517f4111df418e4a017af3de89230fd3d337d19dd7c9da1a78a2e80a0f0eaedb86069061124b9085908590612e7d565b60405180910390a150919050565b6001546000906001600160a01b031633146112865760405162461bcd60e51b81526004016102a190613050565b50600180546001600160a01b0319166001600160a01b039290921691909117815590565b6001546060906001600160a01b031633146112d75760405162461bcd60e51b81526004016102a190613050565b6001546001600160a01b0316331461134e5760405162461bcd60e51b815260206004820152603460248201527f4f6e6c7920636f6e7472616374206f776e657220697320616c6c6f7765642074604482015273379031b0b636103a3434b990333ab731ba34b7b760611b60648201526084016102a1565b60007f00000000000000000000000000000000000000000000000000000000000000006001600160a01b031663b6147fbc308e8e8e8e8e8e8e8e8e8e6040518c63ffffffff1660e01b81526004016113b09b9a99989796959493929190612d4d565b60206040518083038186803b1580156113c857600080fd5b505afa1580156113dc573d6000803e3d6000fd5b505050506040513d601f19601f820116820180604052508101906114009190612741565b90506001600160a01b0381166114c5577f00000000000000000000000000000000000000000000000000000000000000006001600160a01b031663447c9d04308e8e8e8e8e8e8e8e8e8e6040518c63ffffffff1660e01b81526004016114709b9a99989796959493929190612d4d565b602060405180830381600087803b15801561148a57600080fd5b505af115801561149e573d6000803e3d6000fd5b505050506040513d601f19601f820116820180604052508101906114c29190612741565b90505b6000308d8d8d8d8d8d8d8d8d8d6040516020016114ec9b9a99989796959493929190612d4d565b6040516020818303038152906040528051906020012060001c9050611510816122da565b9250816003846040516115239190612d31565b908152604080516020928190038301902080546001600160a01b0319166001600160a01b0394851617905591841660009081526004825291909120845161156c92860190612532565b50611598604051806040016040528060098152602001683a30b136329034b99d60b91b815250836123fb565b6115cd604051806040016040528060138152602001727461626c652068617368537472696e6720697360681b81525084612440565b7ffeadb03e5864c7ba3800506584c86f9177a7d4a3547a3db6021574c3a678b3d1836040516115fc9190612de2565b60405180910390a150509a9950505050505050505050565b606060006060806060600060038760405161162f9190612d31565b908152604051908190036020019020546001600160a01b03169050806116675760405162461bcd60e51b81526004016102a190613019565b60008190506000816001600160a01b03166384bc76a66040518163ffffffff1660e01b815260040160006040518083038186803b1580156116a757600080fd5b505afa1580156116bb573d6000803e3d6000fd5b505050506040513d6000823e601f3d908101601f191682016040526116e391908101906129b5565b90506000826001600160a01b03166347e405536040518163ffffffff1660e01b815260040160206040518083038186803b15801561172057600080fd5b505afa158015611734573d6000803e3d6000fd5b505050506040513d601f19601f820116820180604052508101906117589190612c2e565b825160208401516040909401519b9c919b909a5092985091965090945050505050565b60008060038360405161178e9190612d31565b908152604051908190036020019020546001600160a01b03169050806117c65760405162461bcd60e51b81526004016102a190613019565b6001600160a01b031660009081526007602052604090205492915050565b60008190506000816001600160a01b031663efa1c4826040518163ffffffff1660e01b815260040160006040518083038186803b15801561182457600080fd5b505afa158015611838573d6000803e3d6000fd5b505050506040513d6000823e601f3d908101601f19168201604052611860919081019061281c565b80516040860151919250908110156119845760408501516000906118849083612485565b905060005b818110156119815760006118d8600a6118d28460408051426020808301919091524482840152606080830194909452825180830390940184526080909101909152815191012090565b90612491565b604080516080810182526001600160a01b0380861682526001602083015281830184905260006060830152915163796ab25d60e01b81529293508492909189169063796ab25d9061192d908490600401613087565b600060405180830381600087803b15801561194757600080fd5b505af115801561195b573d6000803e3d6000fd5b5050505061196b60018b8b611e88565b505050808061197990613349565b915050611889565b50505b5050505050565b6119d4848484846040516024016119a59493929190612f23565b60408051601f198184030181529190526020810180516001600160e01b03166304772b3360e11b17905261249d565b50505050565b611a218383836040516024016119f293929190612efe565b60408051601f198184030181529190526020810180516001600160e01b031663969cdd0360e01b17905261249d565b505050565b60008082611a3957506000905080611a5e565b6001838581611a5857634e487b7160e01b600052601260045260246000fd5b04915091505b9250929050565b611aaa8282604051602401611a7b929190612e7d565b60408051601f198184030181529190526020810180516001600160e01b03166309710a9d60e41b17905261249d565b5050565b6000611aba82846132b2565b9392505050565b6001600160a01b038082166000908152600860208181526040808420815161014081018352815487168082526001830154948201949094526002820154928101929092526003810154606083015260048101546080830152600581015460a0830152600681015460c0830152600781015460e08301529283015490941661010085015260099091015461012084015290919015611e79576001600160a01b03831660009081526004602052604081208054611b7b90613314565b80601f0160208091040260200160405190810160405280929190818152602001828054611ba790613314565b8015611bf45780601f10611bc957610100808354040283529160200191611bf4565b820191906000526020600020905b815481529060010190602001808311611bd757829003601f168201915b505060405163cbddd8a960e01b815293945087936001600160a01b038516935063cbddd8a99250611c2a915086906004016130be565b600060405180830381600087803b158015611c4457600080fd5b505af1158015611c58573d6000803e3d6000fd5b505050506000836000015184602001518560400151866060015187608001518860a001518960c001518a60e001518b6101000151604051602001611ceb999897969594939291906001600160a01b03998a168152602081019890985260408801969096526060870194909452608086019290925260a085015260c084015260e08301529091166101008201526101200190565b6040516020818303038152906040528051906020012060001c9050856003611d12836122da565b604051611d1f9190612d31565b90815260405190819003602001902080546001600160a01b03929092166001600160a01b0319909216919091179055611d57816122da565b6001600160a01b03871660009081526004602090815260409091208251611d849391929190910190612532565b506001600160a01b038616600090815260086020818152604080842080546001600160a01b031990811682556001820186905560028201869055600382018690556004820186905560058201869055600682018690556007820186905593810180549094169093556009909201929092558051808201909152600d81526c3132b337b932961030b33a32b960991b91810191909152611e2c9084611e27846122da565b6124be565b7fe3e57a24b8f74d2723608b23c0f9b294b5919b85093bade5338255ac2f90355683611e57836122da565b604051611e65929190612e1f565b60405180910390a150600195945050505050565b50600092915050565b50919050565b6000611ea1836020015185611aae90919063ffffffff16565b6000546040516323b872dd60e01b8152336004820152306024820152604481018390529192506001600160a01b0316906323b872dd90606401602060405180830381600087803b158015611ef457600080fd5b505af1158015611f08573d6000803e3d6000fd5b505050506040513d601f19601f82011682018060405250810190611f2c919061284e565b506001600160a01b03821660009081526005602052604081208054839290611f55908490613203565b909155505060c08301511561210b5760c0830151600090611f8290611f7c84612710612505565b90611aae565b6001600160a01b0384166000908152600560205260409020549091508111156120015760405162461bcd60e51b815260206004820152602b60248201527f5461626c6520706f6f6c206e6f7420656e6f75676820666f722062616e6b657260448201526a436f6d6d697373696f6e2160a81b60648201526084016102a1565b6001600160a01b038316600090815260056020526040812080548392906120299084906132d1565b909155505060005461010085015160405163a9059cbb60e01b81526001600160a01b0391821660048201526024810184905291169063a9059cbb90604401602060405180830381600087803b15801561208157600080fd5b505af1158015612095573d6000803e3d6000fd5b505050506040513d601f19601f820116820180604052508101906120b9919061284e565b50610100840151604080513381526001600160a01b03909216602083015281018290527fda5163f4fef80ed29382eca50bb83c0bd880a912e0ad6adf0d4389fa62481a639060600160405180910390a1505b336000908152600260205260409020546001600160a01b03168015801590612137575060008460e00151115b156119845760e084015160009061215490611f7c85612710612505565b6001600160a01b0385166000908152600560205260409020549091508111156121d55760405162461bcd60e51b815260206004820152602d60248201527f5461626c6520706f6f6c206e6f7420656e6f75676820666f722072656665727260448201526c616c436f6d6d697373696f6e2160981b60648201526084016102a1565b6001600160a01b038416600090815260056020526040812080548392906121fd9084906132d1565b909155505060005460405163a9059cbb60e01b81526001600160a01b038481166004830152602482018490529091169063a9059cbb90604401602060405180830381600087803b15801561225057600080fd5b505af1158015612264573d6000803e3d6000fd5b505050506040513d601f19601f82011682018060405250810190612288919061284e565b50604080513381526001600160a01b03841660208201529081018290527fa97b13b2cce63d44be7b27fdf4d8e0c49f255b8b0a19f07ce2881ba924118f829060600160405180910390a1505050505050565b6060816122fe5750506040805180820190915260018152600360fc1b602082015290565b8160005b8115612328578061231281613349565b91506123219050600a8361321b565b9150612302565b6000816001600160401b0381111561235057634e487b7160e01b600052604160045260246000fd5b6040519080825280601f01601f19166020018201604052801561237a576020820181803683370190505b5090505b84156123f35761238f6001836132d1565b915061239c600a86613364565b6123a7906030613203565b60f81b8183815181106123ca57634e487b7160e01b600052603260045260246000fd5b60200101906001600160f81b031916908160001a9053506123ec600a8661321b565b945061237e565b949350505050565b611aaa8282604051602401612411929190612df5565b60408051601f198184030181529190526020810180516001600160e01b031663319af33360e01b17905261249d565b611aaa8282604051602401612456929190612e1f565b60408051601f198184030181529190526020810180516001600160e01b0316634b5c427760e01b17905261249d565b6000611aba82846132d1565b6000611aba8284613364565b80516a636f6e736f6c652e6c6f67602083016000808483855afa5050505050565b611a218383836040516024016124d693929190612e44565b60408051601f198184030181529190526020810180516001600160e01b0316632ced7cef60e01b17905261249d565b6000611aba828461321b565b508054600082559060005260206000209081019061252f91906125b6565b50565b82805461253e90613314565b90600052602060002090601f01602090048101928261256057600085556125a6565b82601f1061257957805160ff19168380011785556125a6565b828001600101855582156125a6579182015b828111156125a657825182559160200191906001019061258b565b506125b29291506125b6565b5090565b5b808211156125b257600081556001016125b7565b80356125d6816133ba565b919050565b80516125d6816133ba565b600082601f8301126125f6578081fd5b8151602061260b612606836131e0565b6131b0565b80838252828201915082860187848660051b890101111561262a578586fd5b855b8581101561265157815161263f816133ba565b8452928401929084019060010161262c565b5090979650505050505050565b600082601f83011261266e578081fd5b8151602061267e612606836131e0565b80838252828201915082860187848660051b890101111561269d578586fd5b855b858110156126515781518452928401929084019060010161269f565b600082601f8301126126cb578081fd5b81356001600160401b038111156126e4576126e46133a4565b6126f7601f8201601f19166020016131b0565b81815284602083860101111561270b578283fd5b816020850160208301379081016020019190915292915050565b600060208284031215612736578081fd5b8135611aba816133ba565b600060208284031215612752578081fd5b8151611aba816133ba565b6000806040838503121561276f578081fd5b823561277a816133ba565b9150602083013561278a816133ba565b809150509250929050565b6000806000806000806000806000806101408b8d0312156127b4578586fd5b8a356127bf816133ba565b995060208b0135985060408b0135975060608b0135965060808b0135955060a08b0135945060c08b0135935060e08b013592506101008b0135612801816133ba565b809250506101208b013590509295989b9194979a5092959850565b60006020828403121561282d578081fd5b81516001600160401b03811115612842578182fd5b6123f3848285016125e6565b60006020828403121561285f578081fd5b81518015158114611aba578182fd5b60006020828403121561287f578081fd5b81356001600160401b03811115612894578182fd5b6123f3848285016126bb565b600080604083850312156128b2578182fd5b82356001600160401b038111156128c7578283fd5b6128d3858286016126bb565b925050602083013561278a816133ba565b6000808284036101608112156128f8578283fd5b83356001600160401b0381111561290d578384fd5b612919868287016126bb565b93505061014080601f198301121561292f578283fd5b612937613142565b9150612945602086016125cb565b825260408501356020830152606085013560408301526080850135606083015260a0850135608083015260c085013560a083015260e085013560c08301526101008086013560e084015261012061299d8188016125cb565b91840191909152940135938101939093525092909150565b6000602082840312156129c6578081fd5b81516001600160401b03808211156129dc578283fd5b90830190606082860312156129ef578283fd5b6129f761316b565b825182811115612a05578485fd5b612a11878286016125e6565b825250602083015182811115612a25578485fd5b612a318782860161265e565b602083015250604083015182811115612a48578485fd5b612a548782860161265e565b60408301525095945050505050565b600060208284031215612a74578081fd5b81516001600160401b0380821115612a8a578283fd5b908301906101208286031215612a9e578283fd5b612aa661318d565b8251815260208301516020820152604083015182811115612ac5578485fd5b612ad18782860161265e565b604083015250606083015182811115612ae8578485fd5b612af4878286016125e6565b606083015250608083015182811115612b0b578485fd5b612b178782860161265e565b60808301525060a083015182811115612b2e578485fd5b612b3a8782860161265e565b60a08301525060c083015160c082015260e083015182811115612b5b578485fd5b612b67878286016125e6565b60e0830152506101008084015183811115612b80578586fd5b612b8c8882870161265e565b918301919091525095945050505050565b60006101408284031215612baf578081fd5b612bb7613142565b612bc0836125db565b81526020830151602082015260408301516040820152606083015160608201526080830151608082015260a083015160a082015260c083015160c082015260e083015160e0820152610100612c168185016125db565b90820152610120928301519281019290925250919050565b600060208284031215612c3f578081fd5b5051919050565b600080600060608486031215612c5a578081fd5b833592506020840135915060408401356001600160401b03811115612c7d578182fd5b612c89868287016126bb565b9150509250925092565b6000815180845260208085019450808401835b83811015612ccb5781516001600160a01b031687529582019590820190600101612ca6565b509495945050505050565b6000815180845260208085019450808401835b83811015612ccb57815187529582019590820190600101612ce9565b60008151808452612d1d8160208601602086016132e8565b601f01601f19169290920160200192915050565b60008251612d438184602087016132e8565b9190910192915050565b6001600160a01b039b8c168152998b1660208b015260408a01989098526060890196909652608088019490945260a087019290925260c086015260e08501526101008401529092166101208201526101408101919091526101600190565b60018060a01b0385168152836020820152826040820152608060608201526000612dd86080830184612d05565b9695505050505050565b602081526000611aba6020830184612d05565b604081526000612e086040830185612d05565b905060018060a01b03831660208301529392505050565b604081526000612e326040830185612d05565b8281036020840152610ec18185612d05565b606081526000612e576060830186612d05565b8281036020840152612e698186612d05565b90508281036040840152612dd88185612d05565b604081526000612e906040830185612d05565b90508260208301529392505050565b60a081526000612eb260a0830188612d05565b8660208401528281036040840152612eca8187612c93565b90508281036060840152612ede8186612cd6565b90508281036080840152612ef28185612cd6565b98975050505050505050565b606081526000612f116060830186612d05565b60208301949094525060400152919050565b608081526000612f366080830187612d05565b6020830195909552506040810192909252606090910152919050565b6000610160808352612f668184018f612d05565b90508c60208401528b60408401528a60608401528281036080840152612f8c818b612cd6565b905082810360a0840152612fa0818a612c93565b905082810360c0840152612fb48189612cd6565b905082810360e0840152612fc88188612cd6565b9050828103610100840152612fdd8187612c93565b9050828103610120840152612ff28186612cd6565b90508281036101408401526130078185612cd6565b9e9d5050505050505050505050505050565b60208082526019908201527f706c6561736520636865636b2074686520616464726573732100000000000000604082015260600190565b6020808252601b908201527f6d73672e73656e646572206973206e6f7420746865206f776e65720000000000604082015260600190565b81516001600160a01b0390811682526020808401519083015260408084015190830152606092830151169181019190915260800190565b81516001600160a01b0316815261014081016020830151602083015260408301516040830152606083015160608301526080830151608083015260a083015160a083015260c083015160c083015260e083015160e083015261010080840151613131828501826001600160a01b03169052565b505061012092830151919092015290565b60405161014081016001600160401b0381118282101715613165576131656133a4565b60405290565b604051606081016001600160401b0381118282101715613165576131656133a4565b60405161012081016001600160401b0381118282101715613165576131656133a4565b604051601f8201601f191681016001600160401b03811182821017156131d8576131d86133a4565b604052919050565b60006001600160401b038211156131f9576131f96133a4565b5060051b60200190565b6000821982111561321657613216613378565b500190565b60008261322a5761322a61338e565b500490565b60006001600160ff1b038184138284138082168684048611161561325557613255613378565b600160ff1b8487128281168783058912161561327357613273613378565b85871292508782058712848416161561328e5761328e613378565b878505871281841616156132a4576132a4613378565b505050929093029392505050565b60008160001904831182151516156132cc576132cc613378565b500290565b6000828210156132e3576132e3613378565b500390565b60005b838110156133035781810151838201526020016132eb565b838111156119d45750506000910152565b600181811c9082168061332857607f821691505b60208210811415611e8257634e487b7160e01b600052602260045260246000fd5b600060001982141561335d5761335d613378565b5060010190565b6000826133735761337361338e565b500690565b634e487b7160e01b600052601160045260246000fd5b634e487b7160e01b600052601260045260246000fd5b634e487b7160e01b600052604160045260246000fd5b6001600160a01b038116811461252f57600080fdfe7461626c65506f6f6c5b7461626c65416464726573735d2c2077696e416d6f756e74706f6f6c416d6f756e742c20726f756e64526573756c742e77696e6e6572732e6c656e677468726f756e642c20726f756e644e756d6265722c20726f756e64526573756c742e77696e6e6572416c6c436f756e74a26469706673582212202fae68cc78082bdc4c8707e2a25bdc9aebc6c290c4f32ef8de3f404d283cfb9b64736f6c63430008040033",
  "linkReferences": {},
  "deployedLinkReferences": {}
}