{
  "_format": "hh-sol-artifact-1",
  "contractName": "LotteryManagerV3",
  "sourceName": "contracts/LotteryManagerV3.sol",
  "abi": [
    {
      "inputs": [
        {
          "internalType": "address",
          "name": "_factory",
          "type": "address"
        },
        {
          "internalType": "address",
          "name": "_tokenAddress",
          "type": "address"
        }
      ],
      "stateMutability": "nonpayable",
      "type": "constructor"
    },
    {
      "anonymous": false,
      "inputs": [
        {
          "indexed": false,
          "internalType": "address",
          "name": "player",
          "type": "address"
        },
        {
          "indexed": false,
          "internalType": "address",
          "name": "banker",
          "type": "address"
        },
        {
          "indexed": false,
          "internalType": "uint256",
          "name": "amount",
          "type": "uint256"
        }
      ],
      "name": "BankerCommission",
      "type": "event"
    },
    {
      "anonymous": false,
      "inputs": [
        {
          "indexed": false,
          "internalType": "string",
          "name": "hash",
          "type": "string"
        }
      ],
      "name": "CreateTableIfNecessary",
      "type": "event"
    },
    {
      "anonymous": false,
      "inputs": [
        {
          "indexed": false,
          "internalType": "string",
          "name": "beforeHash",
          "type": "string"
        },
        {
          "indexed": false,
          "internalType": "string",
          "name": "newHash",
          "type": "string"
        }
      ],
      "name": "EditTable",
      "type": "event"
    },
    {
      "anonymous": false,
      "inputs": [
        {
          "indexed": false,
          "internalType": "string",
          "name": "hash",
          "type": "string"
        },
        {
          "indexed": false,
          "internalType": "uint256",
          "name": "round",
          "type": "uint256"
        },
        {
          "indexed": false,
          "internalType": "address[]",
          "name": "players",
          "type": "address[]"
        },
        {
          "indexed": false,
          "internalType": "uint256[]",
          "name": "numbers",
          "type": "uint256[]"
        },
        {
          "indexed": false,
          "internalType": "uint256[]",
          "name": "counts",
          "type": "uint256[]"
        }
      ],
      "name": "HoldingTicket",
      "type": "event"
    },
    {
      "anonymous": false,
      "inputs": [
        {
          "indexed": false,
          "internalType": "address",
          "name": "player",
          "type": "address"
        },
        {
          "indexed": false,
          "internalType": "uint256",
          "name": "count",
          "type": "uint256"
        },
        {
          "indexed": false,
          "internalType": "uint256",
          "name": "number",
          "type": "uint256"
        },
        {
          "indexed": false,
          "internalType": "string",
          "name": "hash",
          "type": "string"
        }
      ],
      "name": "JoinTable",
      "type": "event"
    },
    {
      "anonymous": false,
      "inputs": [
        {
          "indexed": false,
          "internalType": "string",
          "name": "hash",
          "type": "string"
        },
        {
          "indexed": false,
          "internalType": "uint256",
          "name": "coolDownTimeBlock",
          "type": "uint256"
        },
        {
          "indexed": false,
          "internalType": "uint256",
          "name": "notifyTimestamp",
          "type": "uint256"
        }
      ],
      "name": "NotifyCoolDownTime",
      "type": "event"
    },
    {
      "anonymous": false,
      "inputs": [
        {
          "indexed": false,
          "internalType": "address",
          "name": "player",
          "type": "address"
        },
        {
          "indexed": false,
          "internalType": "address",
          "name": "refer",
          "type": "address"
        },
        {
          "indexed": false,
          "internalType": "uint256",
          "name": "amount",
          "type": "uint256"
        }
      ],
      "name": "ReferCommission",
      "type": "event"
    },
    {
      "anonymous": false,
      "inputs": [
        {
          "indexed": false,
          "internalType": "string",
          "name": "hash",
          "type": "string"
        },
        {
          "indexed": false,
          "internalType": "uint256",
          "name": "round",
          "type": "uint256"
        },
        {
          "indexed": false,
          "internalType": "uint256",
          "name": "poolAmount",
          "type": "uint256"
        },
        {
          "indexed": false,
          "internalType": "uint256",
          "name": "roundNumber",
          "type": "uint256"
        },
        {
          "indexed": false,
          "internalType": "uint256[]",
          "name": "prizeNumbers",
          "type": "uint256[]"
        },
        {
          "indexed": false,
          "internalType": "address[]",
          "name": "roundWinnerArray",
          "type": "address[]"
        },
        {
          "indexed": false,
          "internalType": "uint256[]",
          "name": "winnerCount",
          "type": "uint256[]"
        },
        {
          "indexed": false,
          "internalType": "int256[]",
          "name": "rewards",
          "type": "int256[]"
        },
        {
          "indexed": false,
          "internalType": "address[]",
          "name": "allPlayers",
          "type": "address[]"
        },
        {
          "indexed": false,
          "internalType": "uint256[]",
          "name": "numbers",
          "type": "uint256[]"
        },
        {
          "indexed": false,
          "internalType": "uint256[]",
          "name": "counts",
          "type": "uint256[]"
        }
      ],
      "name": "StartRound",
      "type": "event"
    },
    {
      "inputs": [
        {
          "internalType": "address",
          "name": "newOwner",
          "type": "address"
        }
      ],
      "name": "changeOwner",
      "outputs": [
        {
          "internalType": "bool",
          "name": "result",
          "type": "bool"
        }
      ],
      "stateMutability": "nonpayable",
      "type": "function"
    },
    {
      "inputs": [
        {
          "internalType": "string",
          "name": "hash",
          "type": "string"
        },
        {
          "internalType": "address",
          "name": "newManagerContract",
          "type": "address"
        }
      ],
      "name": "changeTableManager",
      "outputs": [
        {
          "internalType": "bool",
          "name": "result",
          "type": "bool"
        }
      ],
      "stateMutability": "nonpayable",
      "type": "function"
    },
    {
      "inputs": [
        {
          "internalType": "address",
          "name": "creator",
          "type": "address"
        },
        {
          "internalType": "uint256",
          "name": "amount",
          "type": "uint256"
        },
        {
          "internalType": "uint256",
          "name": "minPPL",
          "type": "uint256"
        },
        {
          "internalType": "uint256",
          "name": "maxPPL",
          "type": "uint256"
        },
        {
          "internalType": "uint256",
          "name": "coolDownTime",
          "type": "uint256"
        },
        {
          "internalType": "uint256",
          "name": "gameTime",
          "type": "uint256"
        },
        {
          "internalType": "uint256",
          "name": "bankerCommission",
          "type": "uint256"
        },
        {
          "internalType": "uint256",
          "name": "referralCommission",
          "type": "uint256"
        },
        {
          "internalType": "address",
          "name": "bankerWallet",
          "type": "address"
        },
        {
          "internalType": "uint256",
          "name": "delayBlock",
          "type": "uint256"
        }
      ],
      "name": "createTableIfNecessary",
      "outputs": [
        {
          "internalType": "string",
          "name": "hashString",
          "type": "string"
        }
      ],
      "stateMutability": "payable",
      "type": "function"
    },
    {
      "inputs": [
        {
          "internalType": "string",
          "name": "hashString",
          "type": "string"
        },
        {
          "components": [
            {
              "internalType": "address",
              "name": "creator",
              "type": "address"
            },
            {
              "internalType": "uint256",
              "name": "amount",
              "type": "uint256"
            },
            {
              "internalType": "uint256",
              "name": "minPPL",
              "type": "uint256"
            },
            {
              "internalType": "uint256",
              "name": "maxPPL",
              "type": "uint256"
            },
            {
              "internalType": "uint256",
              "name": "coolDownTime",
              "type": "uint256"
            },
            {
              "internalType": "uint256",
              "name": "gameTime",
              "type": "uint256"
            },
            {
              "internalType": "uint256",
              "name": "bankerCommission",
              "type": "uint256"
            },
            {
              "internalType": "uint256",
              "name": "referralCommission",
              "type": "uint256"
            },
            {
              "internalType": "address",
              "name": "bankerWallet",
              "type": "address"
            },
            {
              "internalType": "uint256",
              "name": "delayBlocks",
              "type": "uint256"
            }
          ],
          "internalType": "struct ILotteryTableV3.TableInfo",
          "name": "tableInfo",
          "type": "tuple"
        }
      ],
      "name": "editTable",
      "outputs": [],
      "stateMutability": "nonpayable",
      "type": "function"
    },
    {
      "inputs": [],
      "name": "factory",
      "outputs": [
        {
          "internalType": "address",
          "name": "",
          "type": "address"
        }
      ],
      "stateMutability": "view",
      "type": "function"
    },
    {
      "inputs": [
        {
          "internalType": "string",
          "name": "hash",
          "type": "string"
        }
      ],
      "name": "getCoolDownTimeBlock",
      "outputs": [
        {
          "internalType": "uint256",
          "name": "coolDownTimeBlock",
          "type": "uint256"
        },
        {
          "internalType": "uint256",
          "name": "notifyTimestamp",
          "type": "uint256"
        }
      ],
      "stateMutability": "view",
      "type": "function"
    },
    {
      "inputs": [
        {
          "internalType": "string",
          "name": "hash",
          "type": "string"
        }
      ],
      "name": "getTableInfo",
      "outputs": [
        {
          "components": [
            {
              "internalType": "address",
              "name": "creator",
              "type": "address"
            },
            {
              "internalType": "uint256",
              "name": "amount",
              "type": "uint256"
            },
            {
              "internalType": "uint256",
              "name": "minPPL",
              "type": "uint256"
            },
            {
              "internalType": "uint256",
              "name": "maxPPL",
              "type": "uint256"
            },
            {
              "internalType": "uint256",
              "name": "coolDownTime",
              "type": "uint256"
            },
            {
              "internalType": "uint256",
              "name": "gameTime",
              "type": "uint256"
            },
            {
              "internalType": "uint256",
              "name": "bankerCommission",
              "type": "uint256"
            },
            {
              "internalType": "uint256",
              "name": "referralCommission",
              "type": "uint256"
            },
            {
              "internalType": "address",
              "name": "bankerWallet",
              "type": "address"
            },
            {
              "internalType": "uint256",
              "name": "delayBlocks",
              "type": "uint256"
            }
          ],
          "internalType": "struct ILotteryTableV3.TableInfo",
          "name": "tableInfo",
          "type": "tuple"
        }
      ],
      "stateMutability": "view",
      "type": "function"
    },
    {
      "inputs": [
        {
          "internalType": "string",
          "name": "hash",
          "type": "string"
        }
      ],
      "name": "holdingTicket",
      "outputs": [
        {
          "internalType": "string",
          "name": "tableHash",
          "type": "string"
        },
        {
          "internalType": "uint256",
          "name": "round",
          "type": "uint256"
        },
        {
          "internalType": "address[]",
          "name": "players",
          "type": "address[]"
        },
        {
          "internalType": "uint256[]",
          "name": "numbers",
          "type": "uint256[]"
        },
        {
          "internalType": "uint256[]",
          "name": "counts",
          "type": "uint256[]"
        }
      ],
      "stateMutability": "view",
      "type": "function"
    },
    {
      "inputs": [
        {
          "internalType": "uint256",
          "name": "count",
          "type": "uint256"
        },
        {
          "internalType": "uint256",
          "name": "number",
          "type": "uint256"
        },
        {
          "internalType": "string",
          "name": "hash",
          "type": "string"
        }
      ],
      "name": "joinTableV2",
      "outputs": [
        {
          "internalType": "bool",
          "name": "result",
          "type": "bool"
        }
      ],
      "stateMutability": "payable",
      "type": "function"
    },
    {
      "inputs": [
        {
          "internalType": "string",
          "name": "hash",
          "type": "string"
        }
      ],
      "name": "notifyCoolDownTime",
      "outputs": [
        {
          "internalType": "uint256",
          "name": "coolDownTimeBlock",
          "type": "uint256"
        }
      ],
      "stateMutability": "nonpayable",
      "type": "function"
    },
    {
      "inputs": [],
      "name": "owner",
      "outputs": [
        {
          "internalType": "address",
          "name": "",
          "type": "address"
        }
      ],
      "stateMutability": "view",
      "type": "function"
    },
    {
      "inputs": [
        {
          "internalType": "address",
          "name": "a",
          "type": "address"
        },
        {
          "internalType": "address",
          "name": "b",
          "type": "address"
        }
      ],
      "name": "referral",
      "outputs": [
        {
          "internalType": "bool",
          "name": "result",
          "type": "bool"
        }
      ],
      "stateMutability": "nonpayable",
      "type": "function"
    },
    {
      "inputs": [
        {
          "internalType": "string",
          "name": "hash",
          "type": "string"
        }
      ],
      "name": "startRoundV2",
      "outputs": [
        {
          "internalType": "bool",
          "name": "",
          "type": "bool"
        }
      ],
      "stateMutability": "payable",
      "type": "function"
    }
  ],
  "bytecode": "0x60a06040523480156200001157600080fd5b506040516200387e3803806200387e833981016040819052620000349162000097565b6001600160601b031960609290921b91909116608052600080546001600160a01b03929092166001600160a01b03199283161790556001805490911633179055620000ce565b80516001600160a01b03811681146200009257600080fd5b919050565b60008060408385031215620000aa578182fd5b620000b5836200007a565b9150620000c5602084016200007a565b90509250929050565b60805160601c613783620000fb6000396000818161024d01528181611652015261171201526137836000f3fe6080604052600436106100c25760003560e01c80638da5cb5b1161007f578063b50c83bc11610059578063b50c83bc1461021b578063c45a01551461023b578063efc50bcc1461026f578063f2901e68146102a057600080fd5b80638da5cb5b14610195578063a4565dd7146101cd578063a6f9dae1146101fb57600080fd5b8063184f9875146100c75780631c505d1d146100fd578063225276c81461012d5780633818aa7d1461014057806338afd4c5146101625780635433f10314610182575b600080fd5b3480156100d357600080fd5b506100e76100e2366004612b76565b6102d5565b6040516100f491906133c6565b60405180910390f35b34801561010957600080fd5b5061011d610118366004612a65565b61040f565b60405190151581526020016100f4565b61011d61013b366004612b76565b6104b3565b34801561014c57600080fd5b5061016061015b366004612bec565b610f64565b005b34801561016e57600080fd5b5061011d61017d366004612ba8565b6110b9565b61011d610190366004612f4e565b6111b7565b3480156101a157600080fd5b506001546101b5906001600160a01b031681565b6040516001600160a01b0390911681526020016100f4565b3480156101d957600080fd5b506101ed6101e8366004612b76565b611443565b6040519081526020016100f4565b34801561020757600080fd5b5061011d610216366004612a2d565b611559565b61022e610229366004612a9d565b6115aa565b6040516100f491906130ea565b34801561024757600080fd5b506101b57f000000000000000000000000000000000000000000000000000000000000000081565b34801561027b57600080fd5b5061028f61028a366004612b76565b611914565b6040516100f49594939291906131a7565b3480156102ac57600080fd5b506102c06102bb366004612b76565b611a7b565b604080519283526020830191909152016100f4565b61033d60405180610140016040528060006001600160a01b031681526020016000815260200160008152602001600081526020016000815260200160008152602001600081526020016000815260200160006001600160a01b03168152602001600081525090565b600060038360405161034f9190613039565b908152604051908190036020019020546001600160a01b03169050806103905760405162461bcd60e51b815260040161038790613321565b60405180910390fd5b6000819050806001600160a01b0316635f2d82ea6040518163ffffffff1660e01b81526004016101406040518083038186803b1580156103cf57600080fd5b505afa1580156103e3573d6000803e3d6000fd5b505050506040513d601f19601f820116820180604052508101906104079190612ea5565b949350505050565b6001546000906001600160a01b0316331461043c5760405162461bcd60e51b815260040161038790613358565b6001600160a01b03831661044f57600080fd5b6001600160a01b03821661046257600080fd5b816001600160a01b0316836001600160a01b0316141561048157600080fd5b506001600160a01b03918216600090815260026020526040902080546001600160a01b03191691909216179055600190565b6001546000906001600160a01b031633146104e05760405162461bcd60e51b815260040161038790613358565b81600a816040516104f19190613039565b9081526040519081900360200190205460ff16156105485760405162461bcd60e51b8152602060048201526014602482015273139bc81c994b595b9d1c985b98de481c9bdd5b9960621b6044820152606401610387565b6001600a8260405161055a9190613039565b908152604051908190036020018120805492151560ff199093169290921790915560009060039061058c908690613039565b908152604051908190036020019020546001600160a01b03169050806105c45760405162461bcd60e51b815260040161038790613321565b60008190506000816001600160a01b0316635f2d82ea6040518163ffffffff1660e01b81526004016101406040518083038186803b15801561060557600080fd5b505afa158015610619573d6000803e3d6000fd5b505050506040513d601f19601f8201168201806040525081019061063d9190612ea5565b90506106498184611af6565b6001600160a01b038316600090815260076020526040902054806106af5760405162461bcd60e51b815260206004820152601760248201527f77726f6e6720636f6f6c446f776e54696d65426c6f636b0000000000000000006044820152606401610387565b6040516395805dad60e01b8152600481018290526000906001600160a01b038516906395805dad90602401600060405180830381600087803b1580156106f457600080fd5b505af1158015610708573d6000803e3d6000fd5b505050506040513d6000823e601f3d908101601f191682016040526107309190810190612d6b565b905061075f6040518060600160405280602e8152602001613720602e91398251602084015160c0850151611c9d565b600060056000876001600160a01b03166001600160a01b031681526020019081526020016000205490506107b16040518060600160405280602681526020016136fa60269139828460e0015151611cec565b6000806107cb8460c0015184611d3890919063ffffffff16565b915091506107ff6040518060400160405280600e81526020016d1bdb99541a5958d954995dd85c9960921b81525082611d77565b60e0840151516108ae576001600160a01b038881166000908152600560205260408082208290559054610100890151915163a9059cbb60e01b81529183166004830152602482018690529091169063a9059cbb90604401602060405180830381600087803b15801561087057600080fd5b505af1158015610884573d6000803e3d6000fd5b505050506040513d601f19601f820116820180604052508101906108a89190612b56565b50610b90565b60005b8460e0015151811015610b8e5760008560e0015182815181106108e457634e487b7160e01b600052603260045260246000fd5b602002602001015190506000866101000151838151811061091557634e487b7160e01b600052603260045260246000fd5b6020026020010151905060006109348286611dc090919063ffffffff16565b90506109716040518060600160405280602281526020016136d8602291396001600160a01b038e1660009081526005602052604090205483611cec565b6001600160a01b038c166000908152600560205260409020548111156109e55760405162461bcd60e51b8152602060048201526024808201527f7461626c6520706f6f6c206e6f7420656e6f75676820666f722077696e416d6f604482015263756e742160e01b6064820152608401610387565b6001600160a01b038c1660009081526005602052604081208054839290610a0d9084906135d9565b9091555050633b9aca006001600160a01b0384161015610af057610a666040518060400160405280601a81526020017f77696e6e657220697320726f626f742c2077696e416d6f756e7400000000000081525082611d77565b60005460405163a9059cbb60e01b8152336004820152602481018390526001600160a01b039091169063a9059cbb90604401602060405180830381600087803b158015610ab257600080fd5b505af1158015610ac6573d6000803e3d6000fd5b505050506040513d601f19601f82011682018060405250810190610aea9190612b56565b50610b78565b60005460405163a9059cbb60e01b81526001600160a01b038581166004830152602482018490529091169063a9059cbb90604401602060405180830381600087803b158015610b3e57600080fd5b505af1158015610b52573d6000803e3d6000fd5b505050506040513d601f19601f82011682018060405250810190610b769190612b56565b505b5050508080610b8690613651565b9150506108b1565b505b60005b846060015151811015610dfa57600085604001515160011415610ca2578560400151600081518110610bd557634e487b7160e01b600052603260045260246000fd5b602002602001015186608001518381518110610c0157634e487b7160e01b600052603260045260246000fd5b60200260200101511415610c5457610c4d8660a001518381518110610c3657634e487b7160e01b600052603260045260246000fd5b602002602001015184611dc090919063ffffffff16565b9050610dbf565b610c968660a001518381518110610c7b57634e487b7160e01b600052603260045260246000fd5b60200260200101518960200151611dc090919063ffffffff16565b610c4d90600019613537565b8560400151600081518110610cc757634e487b7160e01b600052603260045260246000fd5b602002602001015186608001518381518110610cf357634e487b7160e01b600052603260045260246000fd5b60200260200101511480610d5d57508560400151600181518110610d2757634e487b7160e01b600052603260045260246000fd5b602002602001015186608001518381518110610d5357634e487b7160e01b600052603260045260246000fd5b6020026020010151145b15610d8957610c4d8660a001518381518110610c3657634e487b7160e01b600052603260045260246000fd5b610db08660a001518381518110610c7b57634e487b7160e01b600052603260045260246000fd5b610dbc90600019613537565b90505b6001600160a01b038a166000908152600660209081526040822080546001810182559083529120015580610df281613651565b915050610b93565b50610e0488611dd3565b506001600160a01b038816600090815260066020908152604080832080548251818502810185019093528083529192909190830182828015610e6557602002820191906000526020600020905b815481526020019060010190808311610e51575b505050505090507f8daddefa871dbbbd880b6b7c86b38d78ca26fc0f0ffa33d9b36d03d1bf3580528c866000015186886020015189604001518a60e001518b6101000151888d606001518e608001518f60a00151604051610ed09b9a9998979695949392919061325a565b60405180910390a1506001600160a01b0388166000908152600660205260408120610efa91612819565b5050506001600160a01b039094166000908152600760209081526040808320839055600890915281205550600194505050506000600a82604051610f3e9190613039565b908152604051908190036020019020805491151560ff1990921691909117905550919050565b6001546001600160a01b03163314610f8e5760405162461bcd60e51b815260040161038790613358565b6000600383604051610fa09190613039565b908152604051908190036020019020546001600160a01b031690508061101f5760405162461bcd60e51b815260206004820152602e60248201527f4e6f207461626c6520776974682074686520686173682c20706c65617365206360448201526d6865636b2074686520686173682160901b6064820152608401610387565b6001600160a01b03908116600090815260096020818152604092839020855181549086166001600160a01b0319918216178255918601516001820155928501516002840155606085015160038401556080850151600484015560a0850151600584015560c0850151600684015560e08501516007840155610100850151600884018054919095169116179092556101209092015191015550565b6001546000906001600160a01b031633146110e65760405162461bcd60e51b815260040161038790613358565b60006003846040516110f89190613039565b908152604051908190036020019020546001600160a01b03169050806111305760405162461bcd60e51b815260040161038790613321565b6040516351fddd5760e11b81526001600160a01b03848116600483015282919082169063a3fbbaae90602401602060405180830381600087803b15801561117657600080fd5b505af115801561118a573d6000803e3d6000fd5b505050506040513d601f19601f820116820180604052508101906111ae9190612b56565b95945050505050565b6000806003836040516111ca9190613039565b908152604051908190036020019020546001600160a01b03169050806112495760405162461bcd60e51b815260206004820152602e60248201527f6e6f207461626c6520776974682074686520686173682c20706c65617365206360448201526d6865636b2074686520686173682160901b6064820152608401610387565b6001600160a01b03811660009081526007602052604090205480158015906112715750804310155b156112dd5760405162461bcd60e51b815260206004820152603660248201527f6172726976656420636f6f6c20646f776e2074696d6520626c6f636b2c2063616044820152756e206e6f74206a6f696e207468697320726f756e642160501b6064820152608401610387565b336000818152600260209081526040918290205482516080810184529384529083018990528282018890526001600160a01b0390811660608401819052915163796ab25d60e01b815291928592909183169063796ab25d9061134390849060040161338f565b600060405180830381600087803b15801561135d57600080fd5b505af1158015611371573d6000803e3d6000fd5b505050506000826001600160a01b0316635f2d82ea6040518163ffffffff1660e01b81526004016101406040518083038186803b1580156113b157600080fd5b505afa1580156113c5573d6000803e3d6000fd5b505050506040513d601f19601f820116820180604052508101906113e99190612ea5565b90506113f68a8288612198565b7f08b584e6aceb13e620c46e9d7288284e3b3a1c9dce5ca8e843559f5c4c8456a7338b8b8b60405161142b94939291906130b3565b60405180910390a15060019998505050505050505050565b6001546000906001600160a01b031633146114705760405162461bcd60e51b815260040161038790613358565b60006003836040516114829190613039565b908152604051908190036020019020546001600160a01b03169050806114ba5760405162461bcd60e51b815260040161038790613321565b4391506114eb6040518060400160405280600c81526020016b313637b1b597373ab6b132b960a11b81525083611d77565b6001600160a01b0381166000908152600760209081526040808320859055600890915290819020429081905590517fa69882baf66ab5e3584e5e8a7132a5d8f524b440db857ffdfa994cdabd944fee9061154a90869086908590613206565b60405180910390a15050919050565b6001546000906001600160a01b031633146115865760405162461bcd60e51b815260040161038790613358565b50600180546001600160a01b0319166001600160a01b039290921691909117815590565b6001546060906001600160a01b031633146115d75760405162461bcd60e51b815260040161038790613358565b6001546001600160a01b0316331461164e5760405162461bcd60e51b815260206004820152603460248201527f4f6e6c7920636f6e7472616374206f776e657220697320616c6c6f7765642074604482015273379031b0b636103a3434b990333ab731ba34b7b760611b6064820152608401610387565b60007f00000000000000000000000000000000000000000000000000000000000000006001600160a01b031663b6147fbc308e8e8e8e8e8e8e8e8e8e6040518c63ffffffff1660e01b81526004016116b09b9a99989796959493929190613055565b60206040518083038186803b1580156116c857600080fd5b505afa1580156116dc573d6000803e3d6000fd5b505050506040513d601f19601f820116820180604052508101906117009190612a49565b90506001600160a01b0381166117c5577f00000000000000000000000000000000000000000000000000000000000000006001600160a01b031663447c9d04308e8e8e8e8e8e8e8e8e8e6040518c63ffffffff1660e01b81526004016117709b9a99989796959493929190613055565b602060405180830381600087803b15801561178a57600080fd5b505af115801561179e573d6000803e3d6000fd5b505050506040513d601f19601f820116820180604052508101906117c29190612a49565b90505b6000308d8d8d8d8d8d8d8d8d8d6040516020016117ec9b9a99989796959493929190613055565b6040516020818303038152906040528051906020012060001c9050611810816125ea565b9250816003846040516118239190613039565b908152604080516020928190038301902080546001600160a01b0319166001600160a01b0394851617905591841660009081526004825291909120845161186c9286019061283a565b50611898604051806040016040528060098152602001683a30b136329034b99d60b91b81525083612703565b6118cd604051806040016040528060138152602001727461626c652068617368537472696e6720697360681b81525084612748565b7ffeadb03e5864c7ba3800506584c86f9177a7d4a3547a3db6021574c3a678b3d1836040516118fc91906130ea565b60405180910390a150509a9950505050505050505050565b606060006060806060600060038760405161192f9190613039565b908152604051908190036020019020546001600160a01b03169050806119675760405162461bcd60e51b815260040161038790613321565b60008190506000816001600160a01b03166384bc76a66040518163ffffffff1660e01b815260040160006040518083038186803b1580156119a757600080fd5b505afa1580156119bb573d6000803e3d6000fd5b505050506040513d6000823e601f3d908101601f191682016040526119e39190810190612cbd565b90506000826001600160a01b03166347e405536040518163ffffffff1660e01b815260040160206040518083038186803b158015611a2057600080fd5b505afa158015611a34573d6000803e3d6000fd5b505050506040513d601f19601f82011682018060405250810190611a589190612f36565b825160208401516040909401519b9c919b909a5092985091965090945050505050565b6000806000600384604051611a909190613039565b908152604051908190036020019020546001600160a01b0316905080611ac85760405162461bcd60e51b815260040161038790613321565b6001600160a01b03166000908152600760209081526040808320546008909252909120549094909350915050565b60008190506000816001600160a01b031663efa1c4826040518163ffffffff1660e01b815260040160006040518083038186803b158015611b3657600080fd5b505afa158015611b4a573d6000803e3d6000fd5b505050506040513d6000823e601f3d908101601f19168201604052611b729190810190612b24565b8051604086015191925090811015611c96576040850151600090611b96908361278d565b905060005b81811015611c93576000611bea600a611be48460408051426020808301919091524482840152606080830194909452825180830390940184526080909101909152815191012090565b90612799565b604080516080810182526001600160a01b0380861682526001602083015281830184905260006060830152915163796ab25d60e01b81529293508492909189169063796ab25d90611c3f90849060040161338f565b600060405180830381600087803b158015611c5957600080fd5b505af1158015611c6d573d6000803e3d6000fd5b50505050611c7d60018b8b612198565b5050508080611c8b90613651565b915050611b9b565b50505b5050505050565b611ce684848484604051602401611cb7949392919061322b565b60408051601f198184030181529190526020810180516001600160e01b03166304772b3360e11b1790526127a5565b50505050565b611d33838383604051602401611d0493929190613206565b60408051601f198184030181529190526020810180516001600160e01b031663969cdd0360e01b1790526127a5565b505050565b60008082611d4b57506000905080611d70565b6001838581611d6a57634e487b7160e01b600052601260045260246000fd5b04915091505b9250929050565b611dbc8282604051602401611d8d929190613185565b60408051601f198184030181529190526020810180516001600160e01b03166309710a9d60e41b1790526127a5565b5050565b6000611dcc82846135ba565b9392505050565b6001600160a01b038082166000908152600960208181526040808420815161014081018352815487168082526001830154948201949094526002820154928101929092526003810154606083015260048101546080830152600581015460a0830152600681015460c0830152600781015460e08301526008810154909516610100820152939091015461012084015290919015612189576001600160a01b03831660009081526004602052604081208054611e8d9061361c565b80601f0160208091040260200160405190810160405280929190818152602001828054611eb99061361c565b8015611f065780601f10611edb57610100808354040283529160200191611f06565b820191906000526020600020905b815481529060010190602001808311611ee957829003601f168201915b505060405163cbddd8a960e01b815293945087936001600160a01b038516935063cbddd8a99250611f3c915086906004016133c6565b600060405180830381600087803b158015611f5657600080fd5b505af1158015611f6a573d6000803e3d6000fd5b505050506000836000015184602001518560400151866060015187608001518860a001518960c001518a60e001518b6101000151604051602001611ffd999897969594939291906001600160a01b03998a168152602081019890985260408801969096526060870194909452608086019290925260a085015260c084015260e08301529091166101008201526101200190565b6040516020818303038152906040528051906020012060001c9050856003612024836125ea565b6040516120319190613039565b90815260405190819003602001902080546001600160a01b03929092166001600160a01b0319909216919091179055612069816125ea565b6001600160a01b03871660009081526004602090815260409091208251612096939192919091019061283a565b506001600160a01b038616600090815260096020818152604080842080546001600160a01b03199081168255600182018690556002820186905560038201869055600482018690556005820186905560068201869055600782018690556008820180549091169055909201929092558051808201909152600d81526c3132b337b932961030b33a32b960991b9181019190915261213c9084612137846125ea565b6127c6565b7fe3e57a24b8f74d2723608b23c0f9b294b5919b85093bade5338255ac2f90355683612167836125ea565b604051612175929190613127565b60405180910390a150600195945050505050565b50600092915050565b50919050565b60006121b1836020015185611dc090919063ffffffff16565b6000546040516323b872dd60e01b8152336004820152306024820152604481018390529192506001600160a01b0316906323b872dd90606401602060405180830381600087803b15801561220457600080fd5b505af1158015612218573d6000803e3d6000fd5b505050506040513d601f19601f8201168201806040525081019061223c9190612b56565b506001600160a01b0382166000908152600560205260408120805483929061226590849061350b565b909155505060c08301511561241b5760c08301516000906122929061228c8461271061280d565b90611dc0565b6001600160a01b0384166000908152600560205260409020549091508111156123115760405162461bcd60e51b815260206004820152602b60248201527f5461626c6520706f6f6c206e6f7420656e6f75676820666f722062616e6b657260448201526a436f6d6d697373696f6e2160a81b6064820152608401610387565b6001600160a01b038316600090815260056020526040812080548392906123399084906135d9565b909155505060005461010085015160405163a9059cbb60e01b81526001600160a01b0391821660048201526024810184905291169063a9059cbb90604401602060405180830381600087803b15801561239157600080fd5b505af11580156123a5573d6000803e3d6000fd5b505050506040513d601f19601f820116820180604052508101906123c99190612b56565b50610100840151604080513381526001600160a01b03909216602083015281018290527fda5163f4fef80ed29382eca50bb83c0bd880a912e0ad6adf0d4389fa62481a639060600160405180910390a1505b336000908152600260205260409020546001600160a01b03168015801590612447575060008460e00151115b15611c965760e08401516000906124649061228c8561271061280d565b6001600160a01b0385166000908152600560205260409020549091508111156124e55760405162461bcd60e51b815260206004820152602d60248201527f5461626c6520706f6f6c206e6f7420656e6f75676820666f722072656665727260448201526c616c436f6d6d697373696f6e2160981b6064820152608401610387565b6001600160a01b0384166000908152600560205260408120805483929061250d9084906135d9565b909155505060005460405163a9059cbb60e01b81526001600160a01b038481166004830152602482018490529091169063a9059cbb90604401602060405180830381600087803b15801561256057600080fd5b505af1158015612574573d6000803e3d6000fd5b505050506040513d601f19601f820116820180604052508101906125989190612b56565b50604080513381526001600160a01b03841660208201529081018290527fa97b13b2cce63d44be7b27fdf4d8e0c49f255b8b0a19f07ce2881ba924118f829060600160405180910390a1505050505050565b60608161260e5750506040805180820190915260018152600360fc1b602082015290565b8160005b8115612638578061262281613651565b91506126319050600a83613523565b9150612612565b6000816001600160401b0381111561266057634e487b7160e01b600052604160045260246000fd5b6040519080825280601f01601f19166020018201604052801561268a576020820181803683370190505b5090505b84156104075761269f6001836135d9565b91506126ac600a8661366c565b6126b790603061350b565b60f81b8183815181106126da57634e487b7160e01b600052603260045260246000fd5b60200101906001600160f81b031916908160001a9053506126fc600a86613523565b945061268e565b611dbc82826040516024016127199291906130fd565b60408051601f198184030181529190526020810180516001600160e01b031663319af33360e01b1790526127a5565b611dbc828260405160240161275e929190613127565b60408051601f198184030181529190526020810180516001600160e01b0316634b5c427760e01b1790526127a5565b6000611dcc82846135d9565b6000611dcc828461366c565b80516a636f6e736f6c652e6c6f67602083016000808483855afa5050505050565b611d338383836040516024016127de9392919061314c565b60408051601f198184030181529190526020810180516001600160e01b0316632ced7cef60e01b1790526127a5565b6000611dcc8284613523565b508054600082559060005260206000209081019061283791906128be565b50565b8280546128469061361c565b90600052602060002090601f01602090048101928261286857600085556128ae565b82601f1061288157805160ff19168380011785556128ae565b828001600101855582156128ae579182015b828111156128ae578251825591602001919060010190612893565b506128ba9291506128be565b5090565b5b808211156128ba57600081556001016128bf565b80356128de816136c2565b919050565b80516128de816136c2565b600082601f8301126128fe578081fd5b8151602061291361290e836134e8565b6134b8565b80838252828201915082860187848660051b8901011115612932578586fd5b855b85811015612959578151612947816136c2565b84529284019290840190600101612934565b5090979650505050505050565b600082601f830112612976578081fd5b8151602061298661290e836134e8565b80838252828201915082860187848660051b89010111156129a5578586fd5b855b85811015612959578151845292840192908401906001016129a7565b600082601f8301126129d3578081fd5b81356001600160401b038111156129ec576129ec6136ac565b6129ff601f8201601f19166020016134b8565b818152846020838601011115612a13578283fd5b816020850160208301379081016020019190915292915050565b600060208284031215612a3e578081fd5b8135611dcc816136c2565b600060208284031215612a5a578081fd5b8151611dcc816136c2565b60008060408385031215612a77578081fd5b8235612a82816136c2565b91506020830135612a92816136c2565b809150509250929050565b6000806000806000806000806000806101408b8d031215612abc578586fd5b8a35612ac7816136c2565b995060208b0135985060408b0135975060608b0135965060808b0135955060a08b0135945060c08b0135935060e08b013592506101008b0135612b09816136c2565b809250506101208b013590509295989b9194979a5092959850565b600060208284031215612b35578081fd5b81516001600160401b03811115612b4a578182fd5b610407848285016128ee565b600060208284031215612b67578081fd5b81518015158114611dcc578182fd5b600060208284031215612b87578081fd5b81356001600160401b03811115612b9c578182fd5b610407848285016129c3565b60008060408385031215612bba578182fd5b82356001600160401b03811115612bcf578283fd5b612bdb858286016129c3565b9250506020830135612a92816136c2565b600080828403610160811215612c00578283fd5b83356001600160401b03811115612c15578384fd5b612c21868287016129c3565b93505061014080601f1983011215612c37578283fd5b612c3f61344a565b9150612c4d602086016128d3565b825260408501356020830152606085013560408301526080850135606083015260a0850135608083015260c085013560a083015260e085013560c08301526101008086013560e0840152610120612ca58188016128d3565b91840191909152940135938101939093525092909150565b600060208284031215612cce578081fd5b81516001600160401b0380821115612ce4578283fd5b9083019060608286031215612cf7578283fd5b612cff613473565b825182811115612d0d578485fd5b612d19878286016128ee565b825250602083015182811115612d2d578485fd5b612d3987828601612966565b602083015250604083015182811115612d50578485fd5b612d5c87828601612966565b60408301525095945050505050565b600060208284031215612d7c578081fd5b81516001600160401b0380821115612d92578283fd5b908301906101208286031215612da6578283fd5b612dae613495565b8251815260208301516020820152604083015182811115612dcd578485fd5b612dd987828601612966565b604083015250606083015182811115612df0578485fd5b612dfc878286016128ee565b606083015250608083015182811115612e13578485fd5b612e1f87828601612966565b60808301525060a083015182811115612e36578485fd5b612e4287828601612966565b60a08301525060c083015160c082015260e083015182811115612e63578485fd5b612e6f878286016128ee565b60e0830152506101008084015183811115612e88578586fd5b612e9488828701612966565b918301919091525095945050505050565b60006101408284031215612eb7578081fd5b612ebf61344a565b612ec8836128e3565b81526020830151602082015260408301516040820152606083015160608201526080830151608082015260a083015160a082015260c083015160c082015260e083015160e0820152610100612f1e8185016128e3565b90820152610120928301519281019290925250919050565b600060208284031215612f47578081fd5b5051919050565b600080600060608486031215612f62578081fd5b833592506020840135915060408401356001600160401b03811115612f85578182fd5b612f91868287016129c3565b9150509250925092565b6000815180845260208085019450808401835b83811015612fd35781516001600160a01b031687529582019590820190600101612fae565b509495945050505050565b6000815180845260208085019450808401835b83811015612fd357815187529582019590820190600101612ff1565b600081518084526130258160208601602086016135f0565b601f01601f19169290920160200192915050565b6000825161304b8184602087016135f0565b9190910192915050565b6001600160a01b039b8c168152998b1660208b015260408a01989098526060890196909652608088019490945260a087019290925260c086015260e08501526101008401529092166101208201526101408101919091526101600190565b60018060a01b03851681528360208201528260408201526080606082015260006130e0608083018461300d565b9695505050505050565b602081526000611dcc602083018461300d565b604081526000613110604083018561300d565b905060018060a01b03831660208301529392505050565b60408152600061313a604083018561300d565b82810360208401526111ae818561300d565b60608152600061315f606083018661300d565b8281036020840152613171818661300d565b905082810360408401526130e0818561300d565b604081526000613198604083018561300d565b90508260208301529392505050565b60a0815260006131ba60a083018861300d565b86602084015282810360408401526131d28187612f9b565b905082810360608401526131e68186612fde565b905082810360808401526131fa8185612fde565b98975050505050505050565b606081526000613219606083018661300d565b60208301949094525060400152919050565b60808152600061323e608083018761300d565b6020830195909552506040810192909252606090910152919050565b600061016080835261326e8184018f61300d565b90508c60208401528b60408401528a60608401528281036080840152613294818b612fde565b905082810360a08401526132a8818a612f9b565b905082810360c08401526132bc8189612fde565b905082810360e08401526132d08188612fde565b90508281036101008401526132e58187612f9b565b90508281036101208401526132fa8186612fde565b905082810361014084015261330f8185612fde565b9e9d5050505050505050505050505050565b60208082526019908201527f706c6561736520636865636b2074686520616464726573732100000000000000604082015260600190565b6020808252601b908201527f6d73672e73656e646572206973206e6f7420746865206f776e65720000000000604082015260600190565b81516001600160a01b0390811682526020808401519083015260408084015190830152606092830151169181019190915260800190565b81516001600160a01b0316815261014081016020830151602083015260408301516040830152606083015160608301526080830151608083015260a083015160a083015260c083015160c083015260e083015160e083015261010080840151613439828501826001600160a01b03169052565b505061012092830151919092015290565b60405161014081016001600160401b038111828210171561346d5761346d6136ac565b60405290565b604051606081016001600160401b038111828210171561346d5761346d6136ac565b60405161012081016001600160401b038111828210171561346d5761346d6136ac565b604051601f8201601f191681016001600160401b03811182821017156134e0576134e06136ac565b604052919050565b60006001600160401b03821115613501576135016136ac565b5060051b60200190565b6000821982111561351e5761351e613680565b500190565b60008261353257613532613696565b500490565b60006001600160ff1b038184138284138082168684048611161561355d5761355d613680565b600160ff1b8487128281168783058912161561357b5761357b613680565b85871292508782058712848416161561359657613596613680565b878505871281841616156135ac576135ac613680565b505050929093029392505050565b60008160001904831182151516156135d4576135d4613680565b500290565b6000828210156135eb576135eb613680565b500390565b60005b8381101561360b5781810151838201526020016135f3565b83811115611ce65750506000910152565b600181811c9082168061363057607f821691505b6020821081141561219257634e487b7160e01b600052602260045260246000fd5b600060001982141561366557613665613680565b5060010190565b60008261367b5761367b613696565b500690565b634e487b7160e01b600052601160045260246000fd5b634e487b7160e01b600052601260045260246000fd5b634e487b7160e01b600052604160045260246000fd5b6001600160a01b038116811461283757600080fdfe7461626c65506f6f6c5b7461626c65416464726573735d2c2077696e416d6f756e74706f6f6c416d6f756e742c20726f756e64526573756c742e77696e6e6572732e6c656e677468726f756e642c20726f756e644e756d6265722c20726f756e64526573756c742e77696e6e6572416c6c436f756e74a264697066735822122012e9d474da1761be9033395f9f9d27844c8be643400dc3b3b219a45c5a8935a864736f6c63430008040033",
  "linkReferences": {},
  "deployedLinkReferences": {}
}