{
  "_format": "hh-sol-artifact-1",
  "contractName": "LotteryManagerV3",
  "sourceName": "contracts/LotteryManagerV3.sol",
  "abi": [
    {
      "inputs": [
        {
          "internalType": "address",
          "name": "_factory",
          "type": "address"
        },
        {
          "internalType": "address",
          "name": "_tokenAddress",
          "type": "address"
        }
      ],
      "stateMutability": "nonpayable",
      "type": "constructor"
    },
    {
      "anonymous": false,
      "inputs": [
        {
          "indexed": false,
          "internalType": "address",
          "name": "player",
          "type": "address"
        },
        {
          "indexed": false,
          "internalType": "address",
          "name": "banker",
          "type": "address"
        },
        {
          "indexed": false,
          "internalType": "uint256",
          "name": "amount",
          "type": "uint256"
        }
      ],
      "name": "BankerCommission",
      "type": "event"
    },
    {
      "anonymous": false,
      "inputs": [
        {
          "indexed": false,
          "internalType": "string",
          "name": "hash",
          "type": "string"
        }
      ],
      "name": "CreateTableIfNecessary",
      "type": "event"
    },
    {
      "anonymous": false,
      "inputs": [
        {
          "indexed": false,
          "internalType": "string",
          "name": "beforeHash",
          "type": "string"
        },
        {
          "indexed": false,
          "internalType": "string",
          "name": "newHash",
          "type": "string"
        }
      ],
      "name": "EditTable",
      "type": "event"
    },
    {
      "anonymous": false,
      "inputs": [
        {
          "indexed": false,
          "internalType": "string",
          "name": "hash",
          "type": "string"
        },
        {
          "indexed": false,
          "internalType": "uint256",
          "name": "round",
          "type": "uint256"
        },
        {
          "indexed": false,
          "internalType": "address[]",
          "name": "players",
          "type": "address[]"
        },
        {
          "indexed": false,
          "internalType": "uint256[]",
          "name": "numbers",
          "type": "uint256[]"
        },
        {
          "indexed": false,
          "internalType": "uint256[]",
          "name": "counts",
          "type": "uint256[]"
        }
      ],
      "name": "HoldingTicket",
      "type": "event"
    },
    {
      "anonymous": false,
      "inputs": [
        {
          "indexed": false,
          "internalType": "address",
          "name": "player",
          "type": "address"
        },
        {
          "indexed": false,
          "internalType": "uint256",
          "name": "amount",
          "type": "uint256"
        },
        {
          "indexed": false,
          "internalType": "uint256",
          "name": "all",
          "type": "uint256"
        }
      ],
      "name": "JackpotCommission",
      "type": "event"
    },
    {
      "anonymous": false,
      "inputs": [
        {
          "indexed": false,
          "internalType": "address",
          "name": "player",
          "type": "address"
        },
        {
          "indexed": false,
          "internalType": "uint256",
          "name": "jackpotPrize",
          "type": "uint256"
        }
      ],
      "name": "JackpotWinner",
      "type": "event"
    },
    {
      "anonymous": false,
      "inputs": [
        {
          "indexed": false,
          "internalType": "address",
          "name": "player",
          "type": "address"
        },
        {
          "indexed": false,
          "internalType": "uint256",
          "name": "count",
          "type": "uint256"
        },
        {
          "indexed": false,
          "internalType": "uint256",
          "name": "number",
          "type": "uint256"
        },
        {
          "indexed": false,
          "internalType": "string",
          "name": "hash",
          "type": "string"
        }
      ],
      "name": "JoinTable",
      "type": "event"
    },
    {
      "anonymous": false,
      "inputs": [
        {
          "indexed": false,
          "internalType": "string",
          "name": "hash",
          "type": "string"
        },
        {
          "indexed": false,
          "internalType": "uint256",
          "name": "coolDownTimeBlock",
          "type": "uint256"
        },
        {
          "indexed": false,
          "internalType": "uint256",
          "name": "notifyTimestamp",
          "type": "uint256"
        }
      ],
      "name": "NotifyCoolDownTime",
      "type": "event"
    },
    {
      "anonymous": false,
      "inputs": [
        {
          "indexed": false,
          "internalType": "address",
          "name": "player",
          "type": "address"
        },
        {
          "indexed": false,
          "internalType": "address",
          "name": "refer",
          "type": "address"
        },
        {
          "indexed": false,
          "internalType": "uint256",
          "name": "amount",
          "type": "uint256"
        }
      ],
      "name": "ReferCommission",
      "type": "event"
    },
    {
      "anonymous": false,
      "inputs": [
        {
          "components": [
            {
              "internalType": "string",
              "name": "hash",
              "type": "string"
            },
            {
              "internalType": "uint256",
              "name": "round",
              "type": "uint256"
            },
            {
              "internalType": "uint256",
              "name": "poolAmount",
              "type": "uint256"
            },
            {
              "internalType": "uint256",
              "name": "roundNumber",
              "type": "uint256"
            },
            {
              "internalType": "uint256[]",
              "name": "prizeNumbers",
              "type": "uint256[]"
            },
            {
              "internalType": "address[]",
              "name": "roundWinnerArray",
              "type": "address[]"
            },
            {
              "internalType": "uint256[]",
              "name": "winnerCount",
              "type": "uint256[]"
            },
            {
              "internalType": "int256[]",
              "name": "rewards",
              "type": "int256[]"
            },
            {
              "internalType": "address[]",
              "name": "allPlayers",
              "type": "address[]"
            },
            {
              "internalType": "uint256[]",
              "name": "numbers",
              "type": "uint256[]"
            },
            {
              "internalType": "uint256[]",
              "name": "counts",
              "type": "uint256[]"
            },
            {
              "internalType": "address[]",
              "name": "jackpotWinners",
              "type": "address[]"
            },
            {
              "internalType": "uint256[]",
              "name": "jackpotRewards",
              "type": "uint256[]"
            }
          ],
          "indexed": false,
          "internalType": "struct LotteryManagerV3.StartRoundResult",
          "name": "startRoundResult",
          "type": "tuple"
        }
      ],
      "name": "StartRound",
      "type": "event"
    },
    {
      "inputs": [
        {
          "internalType": "address",
          "name": "newOwner",
          "type": "address"
        }
      ],
      "name": "changeOwner",
      "outputs": [
        {
          "internalType": "bool",
          "name": "result",
          "type": "bool"
        }
      ],
      "stateMutability": "nonpayable",
      "type": "function"
    },
    {
      "inputs": [
        {
          "internalType": "string",
          "name": "hash",
          "type": "string"
        },
        {
          "internalType": "address",
          "name": "newManagerContract",
          "type": "address"
        }
      ],
      "name": "changeTableManager",
      "outputs": [
        {
          "internalType": "bool",
          "name": "result",
          "type": "bool"
        }
      ],
      "stateMutability": "nonpayable",
      "type": "function"
    },
    {
      "inputs": [
        {
          "internalType": "address",
          "name": "creator",
          "type": "address"
        },
        {
          "internalType": "uint256",
          "name": "amount",
          "type": "uint256"
        },
        {
          "internalType": "uint256",
          "name": "minPPL",
          "type": "uint256"
        },
        {
          "internalType": "uint256",
          "name": "maxPPL",
          "type": "uint256"
        },
        {
          "internalType": "uint256",
          "name": "coolDownTime",
          "type": "uint256"
        },
        {
          "internalType": "uint256",
          "name": "gameTime",
          "type": "uint256"
        },
        {
          "internalType": "uint256",
          "name": "bankerCommission",
          "type": "uint256"
        },
        {
          "internalType": "uint256",
          "name": "referralCommission",
          "type": "uint256"
        },
        {
          "internalType": "address",
          "name": "bankerWallet",
          "type": "address"
        },
        {
          "internalType": "uint256",
          "name": "delayBlock",
          "type": "uint256"
        },
        {
          "internalType": "uint256",
          "name": "jackpotCommission",
          "type": "uint256"
        }
      ],
      "name": "createTableIfNecessary",
      "outputs": [
        {
          "internalType": "string",
          "name": "hashString",
          "type": "string"
        }
      ],
      "stateMutability": "payable",
      "type": "function"
    },
    {
      "inputs": [
        {
          "internalType": "string",
          "name": "hashString",
          "type": "string"
        },
        {
          "components": [
            {
              "internalType": "address",
              "name": "creator",
              "type": "address"
            },
            {
              "internalType": "uint256",
              "name": "amount",
              "type": "uint256"
            },
            {
              "internalType": "uint256",
              "name": "minPPL",
              "type": "uint256"
            },
            {
              "internalType": "uint256",
              "name": "maxPPL",
              "type": "uint256"
            },
            {
              "internalType": "uint256",
              "name": "coolDownTime",
              "type": "uint256"
            },
            {
              "internalType": "uint256",
              "name": "gameTime",
              "type": "uint256"
            },
            {
              "internalType": "uint256",
              "name": "bankerCommission",
              "type": "uint256"
            },
            {
              "internalType": "uint256",
              "name": "referralCommission",
              "type": "uint256"
            },
            {
              "internalType": "address",
              "name": "bankerWallet",
              "type": "address"
            },
            {
              "internalType": "uint256",
              "name": "delayBlocks",
              "type": "uint256"
            },
            {
              "internalType": "uint256",
              "name": "jackpotCommission",
              "type": "uint256"
            }
          ],
          "internalType": "struct ILotteryTableV3.TableInfo",
          "name": "tableInfo",
          "type": "tuple"
        }
      ],
      "name": "editTable",
      "outputs": [],
      "stateMutability": "nonpayable",
      "type": "function"
    },
    {
      "inputs": [],
      "name": "factory",
      "outputs": [
        {
          "internalType": "address",
          "name": "",
          "type": "address"
        }
      ],
      "stateMutability": "view",
      "type": "function"
    },
    {
      "inputs": [
        {
          "internalType": "string",
          "name": "hash",
          "type": "string"
        }
      ],
      "name": "getCoolDownTimeBlock",
      "outputs": [
        {
          "internalType": "uint256",
          "name": "coolDownTimeBlock",
          "type": "uint256"
        },
        {
          "internalType": "uint256",
          "name": "notifyTimestamp",
          "type": "uint256"
        }
      ],
      "stateMutability": "view",
      "type": "function"
    },
    {
      "inputs": [
        {
          "internalType": "string",
          "name": "hash",
          "type": "string"
        },
        {
          "internalType": "uint256",
          "name": "round",
          "type": "uint256"
        }
      ],
      "name": "getRoundStatus",
      "outputs": [
        {
          "components": [
            {
              "internalType": "string",
              "name": "status",
              "type": "string"
            },
            {
              "internalType": "string",
              "name": "result",
              "type": "string"
            },
            {
              "internalType": "string",
              "name": "message",
              "type": "string"
            },
            {
              "components": [
                {
                  "internalType": "string",
                  "name": "hash",
                  "type": "string"
                },
                {
                  "internalType": "uint256",
                  "name": "round",
                  "type": "uint256"
                },
                {
                  "internalType": "uint256",
                  "name": "poolAmount",
                  "type": "uint256"
                },
                {
                  "internalType": "uint256",
                  "name": "roundNumber",
                  "type": "uint256"
                },
                {
                  "internalType": "uint256[]",
                  "name": "prizeNumbers",
                  "type": "uint256[]"
                },
                {
                  "internalType": "address[]",
                  "name": "roundWinnerArray",
                  "type": "address[]"
                },
                {
                  "internalType": "uint256[]",
                  "name": "winnerCount",
                  "type": "uint256[]"
                },
                {
                  "internalType": "int256[]",
                  "name": "rewards",
                  "type": "int256[]"
                },
                {
                  "internalType": "address[]",
                  "name": "allPlayers",
                  "type": "address[]"
                },
                {
                  "internalType": "uint256[]",
                  "name": "numbers",
                  "type": "uint256[]"
                },
                {
                  "internalType": "uint256[]",
                  "name": "counts",
                  "type": "uint256[]"
                },
                {
                  "internalType": "address[]",
                  "name": "jackpotWinners",
                  "type": "address[]"
                },
                {
                  "internalType": "uint256[]",
                  "name": "jackpotRewards",
                  "type": "uint256[]"
                }
              ],
              "internalType": "struct LotteryManagerV3.StartRoundResult",
              "name": "startRoundResult",
              "type": "tuple"
            },
            {
              "components": [
                {
                  "internalType": "string",
                  "name": "beforeHash",
                  "type": "string"
                },
                {
                  "internalType": "string",
                  "name": "newHash",
                  "type": "string"
                }
              ],
              "internalType": "struct LotteryManagerV3.EditTableResult",
              "name": "editTableResult",
              "type": "tuple"
            }
          ],
          "internalType": "struct LotteryManagerV3.RoundStatus",
          "name": "roundStatus",
          "type": "tuple"
        }
      ],
      "stateMutability": "view",
      "type": "function"
    },
    {
      "inputs": [
        {
          "internalType": "string",
          "name": "hash",
          "type": "string"
        }
      ],
      "name": "getTableInfo",
      "outputs": [
        {
          "components": [
            {
              "internalType": "address",
              "name": "creator",
              "type": "address"
            },
            {
              "internalType": "uint256",
              "name": "amount",
              "type": "uint256"
            },
            {
              "internalType": "uint256",
              "name": "minPPL",
              "type": "uint256"
            },
            {
              "internalType": "uint256",
              "name": "maxPPL",
              "type": "uint256"
            },
            {
              "internalType": "uint256",
              "name": "coolDownTime",
              "type": "uint256"
            },
            {
              "internalType": "uint256",
              "name": "gameTime",
              "type": "uint256"
            },
            {
              "internalType": "uint256",
              "name": "bankerCommission",
              "type": "uint256"
            },
            {
              "internalType": "uint256",
              "name": "referralCommission",
              "type": "uint256"
            },
            {
              "internalType": "address",
              "name": "bankerWallet",
              "type": "address"
            },
            {
              "internalType": "uint256",
              "name": "delayBlocks",
              "type": "uint256"
            },
            {
              "internalType": "uint256",
              "name": "jackpotCommission",
              "type": "uint256"
            }
          ],
          "internalType": "struct ILotteryTableV3.TableInfo",
          "name": "tableInfo",
          "type": "tuple"
        }
      ],
      "stateMutability": "view",
      "type": "function"
    },
    {
      "inputs": [
        {
          "internalType": "string",
          "name": "hash",
          "type": "string"
        }
      ],
      "name": "holdingTicket",
      "outputs": [
        {
          "internalType": "string",
          "name": "tableHash",
          "type": "string"
        },
        {
          "internalType": "uint256",
          "name": "round",
          "type": "uint256"
        },
        {
          "internalType": "address[]",
          "name": "players",
          "type": "address[]"
        },
        {
          "internalType": "uint256[]",
          "name": "numbers",
          "type": "uint256[]"
        },
        {
          "internalType": "uint256[]",
          "name": "counts",
          "type": "uint256[]"
        }
      ],
      "stateMutability": "view",
      "type": "function"
    },
    {
      "inputs": [
        {
          "internalType": "uint256",
          "name": "count",
          "type": "uint256"
        },
        {
          "internalType": "uint256",
          "name": "number",
          "type": "uint256"
        },
        {
          "internalType": "string",
          "name": "hash",
          "type": "string"
        },
        {
          "internalType": "uint256",
          "name": "currentRound",
          "type": "uint256"
        }
      ],
      "name": "joinTableV2",
      "outputs": [
        {
          "internalType": "bool",
          "name": "result",
          "type": "bool"
        }
      ],
      "stateMutability": "payable",
      "type": "function"
    },
    {
      "inputs": [
        {
          "internalType": "string",
          "name": "hash",
          "type": "string"
        }
      ],
      "name": "notifyCoolDownTime",
      "outputs": [
        {
          "internalType": "uint256",
          "name": "coolDownTimeBlock",
          "type": "uint256"
        }
      ],
      "stateMutability": "nonpayable",
      "type": "function"
    },
    {
      "inputs": [],
      "name": "owner",
      "outputs": [
        {
          "internalType": "address",
          "name": "",
          "type": "address"
        }
      ],
      "stateMutability": "view",
      "type": "function"
    },
    {
      "inputs": [
        {
          "internalType": "address",
          "name": "a",
          "type": "address"
        },
        {
          "internalType": "address",
          "name": "b",
          "type": "address"
        }
      ],
      "name": "referral",
      "outputs": [
        {
          "internalType": "bool",
          "name": "result",
          "type": "bool"
        }
      ],
      "stateMutability": "nonpayable",
      "type": "function"
    },
    {
      "inputs": [
        {
          "internalType": "string",
          "name": "hash",
          "type": "string"
        }
      ],
      "name": "startRoundV2",
      "outputs": [
        {
          "internalType": "bool",
          "name": "",
          "type": "bool"
        }
      ],
      "stateMutability": "payable",
      "type": "function"
    }
  ],
  "bytecode": "0x60a06040523480156200001157600080fd5b5060405162004be538038062004be5833981016040819052620000349162000097565b6001600160601b031960609290921b91909116608052600080546001600160a01b03929092166001600160a01b03199283161790556001805490911633179055620000ce565b80516001600160a01b03811681146200009257600080fd5b919050565b60008060408385031215620000aa578182fd5b620000b5836200007a565b9150620000c5602084016200007a565b90509250929050565b60805160601c614aea620000fb600039600081816102950152818161124301526113050152614aea6000f3fe6080604052600436106100dd5760003560e01c80637a721af61161007f578063a6f9dae111610059578063a6f9dae114610263578063c45a015514610283578063efc50bcc146102b7578063f2901e68146102e857600080fd5b80637a721af6146101d05780638da5cb5b146101fd578063a4565dd71461023557600080fd5b80633645b824116100bb5780633645b8241461015b57806338afd4c51461017b5780633ea64f3d1461019b5780634711876f146101ae57600080fd5b8063184f9875146100e25780631c505d1d14610118578063225276c814610148575b600080fd5b3480156100ee57600080fd5b506101026100fd366004613ce5565b61031d565b60405161010f91906146fe565b60405180910390f35b34801561012457600080fd5b50610138610133366004613bc9565b61045e565b604051901515815260200161010f565b610138610156366004613ce5565b610502565b61016e610169366004613c01565b61119b565b60405161010f9190614414565b34801561018757600080fd5b50610138610196366004613d17565b61150c565b6101386101a936600461413d565b61160a565b3480156101ba57600080fd5b506101ce6101c9366004613d5b565b61189e565b005b3480156101dc57600080fd5b506101f06101eb366004613e3a565b611a01565b60405161010f9190614635565b34801561020957600080fd5b5060015461021d906001600160a01b031681565b6040516001600160a01b03909116815260200161010f565b34801561024157600080fd5b50610255610250366004613ce5565b61212b565b60405190815260200161010f565b34801561026f57600080fd5b5061013861027e366004613b91565b6122c2565b34801561028f57600080fd5b5061021d7f000000000000000000000000000000000000000000000000000000000000000081565b3480156102c357600080fd5b506102d76102d2366004613ce5565b612313565b60405161010f9594939291906144d1565b3480156102f457600080fd5b50610308610303366004613ce5565b61247a565b6040805192835260208301919091520161010f565b61038c60405180610160016040528060006001600160a01b031681526020016000815260200160008152602001600081526020016000815260200160008152602001600081526020016000815260200160006001600160a01b0316815260200160008152602001600081525090565b600060038360405161039e9190614361565b908152604051908190036020019020546001600160a01b03169050806103df5760405162461bcd60e51b81526004016103d690614584565b60405180910390fd5b6000819050806001600160a01b0316635f2d82ea6040518163ffffffff1660e01b81526004016101606040518083038186803b15801561041e57600080fd5b505afa158015610432573d6000803e3d6000fd5b505050506040513d601f19601f820116820180604052508101906104569190614089565b949350505050565b6001546000906001600160a01b0316331461048b5760405162461bcd60e51b81526004016103d6906145bb565b6001600160a01b03831661049e57600080fd5b6001600160a01b0382166104b157600080fd5b816001600160a01b0316836001600160a01b031614156104d057600080fd5b506001600160a01b03918216600090815260026020526040902080546001600160a01b03191691909216179055600190565b6001546000906001600160a01b0316331461052f5760405162461bcd60e51b81526004016103d6906145bb565b81600c816040516105409190614361565b9081526040519081900360200190205460ff16156105975760405162461bcd60e51b8152602060048201526014602482015273139bc81c994b595b9d1c985b98de481c9bdd5b9960621b60448201526064016103d6565b6001600c826040516105a99190614361565b908152604051908190036020018120805492151560ff19909316929092179091556000906003906105db908690614361565b908152604051908190036020019020546001600160a01b03169050806106135760405162461bcd60e51b81526004016103d690614584565b60008190506000816001600160a01b0316635f2d82ea6040518163ffffffff1660e01b81526004016101606040518083038186803b15801561065457600080fd5b505afa158015610668573d6000803e3d6000fd5b505050506040513d601f19601f8201168201806040525081019061068c9190614089565b6001600160a01b038416600090815260086020526040902054909150806106f55760405162461bcd60e51b815260206004820152601760248201527f77726f6e6720636f6f6c446f776e54696d65426c6f636b00000000000000000060448201526064016103d6565b6040516395805dad60e01b8152600481018290526000906001600160a01b038516906395805dad90602401600060405180830381600087803b15801561073a57600080fd5b505af115801561074e573d6000803e3d6000fd5b505050506040513d6000823e601f3d908101601f191682016040526107769190810190613f2a565b90506107a56040518060600160405280602e8152602001614a66602e91398251602084015160c08501516124f5565b600060056000876001600160a01b03166001600160a01b031681526020019081526020016000205490506107f7604051806060016040528060268152602001614a4060269139828460e0015151612544565b6000806108118460c001518461259090919063ffffffff16565b915091506108456040518060400160405280600e81526020016d1bdb99541a5958d954995dd85c9960921b815250826125cf565b60005b8460e0015151811015610b255760008560e00151828151811061087b57634e487b7160e01b600052603260045260246000fd5b60200260200101519050600086610100015183815181106108ac57634e487b7160e01b600052603260045260246000fd5b6020026020010151905060006108cb828661261890919063ffffffff16565b9050610908604051806060016040528060228152602001614a1e602291396001600160a01b038e1660009081526005602052604090205483612544565b6001600160a01b038c1660009081526005602052604090205481111561097c5760405162461bcd60e51b8152602060048201526024808201527f7461626c6520706f6f6c206e6f7420656e6f75676820666f722077696e416d6f604482015263756e742160e01b60648201526084016103d6565b6001600160a01b038c16600090815260056020526040812080548392906109a490849061491f565b9091555050633b9aca006001600160a01b0384161015610a87576109fd6040518060400160405280601a81526020017f77696e6e657220697320726f626f742c2077696e416d6f756e74000000000000815250826125cf565b60005460405163a9059cbb60e01b8152336004820152602481018390526001600160a01b039091169063a9059cbb90604401602060405180830381600087803b158015610a4957600080fd5b505af1158015610a5d573d6000803e3d6000fd5b505050506040513d601f19601f82011682018060405250810190610a819190613cc5565b50610b0f565b60005460405163a9059cbb60e01b81526001600160a01b038581166004830152602482018490529091169063a9059cbb90604401602060405180830381600087803b158015610ad557600080fd5b505af1158015610ae9573d6000803e3d6000fd5b505050506040513d601f19601f82011682018060405250810190610b0d9190613cc5565b505b5050508080610b1d90614997565b915050610848565b506101208401515115610e5c576001600160a01b0388166000908152600a6020818152604092839020548351808501909452918352691a9858dadc1bdd105b1b60b21b9083015290610b7790826125cf565b610b9f604051806060016040528060218152602001614a9460219139866101200151516125cf565b600080610bbb876101200151518461259090919063ffffffff16565b91509150818015610bcc5750600081115b15610e585760005b87610120015151811015610e565760008861012001518281518110610c0957634e487b7160e01b600052603260045260246000fd5b6020026020010151905082600a60008f6001600160a01b03166001600160a01b03168152602001908152602001600020541015610c885760405162461bcd60e51b815260206004820152601860248201527f6a61636b706f7420706f6f6c206e6f7420656e6f75676821000000000000000060448201526064016103d6565b6001600160a01b038d166000908152600a602052604081208054859290610cb090849061491f565b90915550506001600160a01b03808e16600090815260076020908152604082208054600181018255908352912001849055633b9aca009082161015610d795760005460405163a9059cbb60e01b8152336004820152602481018590526001600160a01b039091169063a9059cbb90604401602060405180830381600087803b158015610d3b57600080fd5b505af1158015610d4f573d6000803e3d6000fd5b505050506040513d601f19601f82011682018060405250810190610d739190613cc5565b50610e01565b60005460405163a9059cbb60e01b81526001600160a01b038381166004830152602482018690529091169063a9059cbb90604401602060405180830381600087803b158015610dc757600080fd5b505af1158015610ddb573d6000803e3d6000fd5b505050506040513d601f19601f82011682018060405250810190610dff9190613cc5565b505b604080516001600160a01b0383168152602081018590527f2f874f9b35a653e61365e8de37b7a2293b82a7d06dd79a30025f33ff342a1c73910160405180910390a15080610e4e81614997565b915050610bd4565b505b5050505b60005b8460600151518110156110d457600085604001515160011415610f6e578560400151600081518110610ea157634e487b7160e01b600052603260045260246000fd5b602002602001015186608001518381518110610ecd57634e487b7160e01b600052603260045260246000fd5b60200260200101511415610f2057610f198660a001518381518110610f0257634e487b7160e01b600052603260045260246000fd5b60200260200101518461261890919063ffffffff16565b9050611099565b610f628660a001518381518110610f4757634e487b7160e01b600052603260045260246000fd5b6020026020010151896020015161261890919063ffffffff16565b610f199060001961487d565b85604001515160021415611099578560400151600081518110610fa157634e487b7160e01b600052603260045260246000fd5b602002602001015186608001518381518110610fcd57634e487b7160e01b600052603260045260246000fd5b602002602001015114806110375750856040015160018151811061100157634e487b7160e01b600052603260045260246000fd5b60200260200101518660800151838151811061102d57634e487b7160e01b600052603260045260246000fd5b6020026020010151145b1561106357610f198660a001518381518110610f0257634e487b7160e01b600052603260045260246000fd5b61108a8660a001518381518110610f4757634e487b7160e01b600052603260045260246000fd5b6110969060001961487d565b90505b6001600160a01b038a1660009081526006602090815260408220805460018101825590835291200155806110cc81614997565b915050610e5f565b5060006110e08961262b565b90506110ee8c858784612a1d565b6001600160a01b038916600090815260066020526040812061110f9161383c565b6001600160a01b03891660009081526007602052604081206111309161383c565b5050506001600160a01b03909516600090815260086020908152604080832083905560099091528120555060019550505050506000600c826040516111759190614361565b908152604051908190036020019020805491151560ff1990921691909117905550919050565b6001546060906001600160a01b031633146111c85760405162461bcd60e51b81526004016103d6906145bb565b6001546001600160a01b0316331461123f5760405162461bcd60e51b815260206004820152603460248201527f4f6e6c7920636f6e7472616374206f776e657220697320616c6c6f7765642074604482015273379031b0b636103a3434b990333ab731ba34b7b760611b60648201526084016103d6565b60007f00000000000000000000000000000000000000000000000000000000000000006001600160a01b0316635abca103308f8f8f8f8f8f8f8f8f8f8f6040518d63ffffffff1660e01b81526004016112a39c9b9a9998979695949392919061437d565b60206040518083038186803b1580156112bb57600080fd5b505afa1580156112cf573d6000803e3d6000fd5b505050506040513d601f19601f820116820180604052508101906112f39190613bad565b90506001600160a01b0381166113ba577f00000000000000000000000000000000000000000000000000000000000000006001600160a01b0316634627572f308f8f8f8f8f8f8f8f8f8f8f6040518d63ffffffff1660e01b81526004016113659c9b9a9998979695949392919061437d565b602060405180830381600087803b15801561137f57600080fd5b505af1158015611393573d6000803e3d6000fd5b505050506040513d601f19601f820116820180604052508101906113b79190613bad565b90505b6000308e8e8e8e8e8e8e8e8e8e8e6040516020016113e39c9b9a9998979695949392919061437d565b6040516020818303038152906040528051906020012060001c905061140781612e3f565b92508160038460405161141a9190614361565b908152604080516020928190038301902080546001600160a01b0319166001600160a01b039485161790559184166000908152600482529190912084516114639286019061385d565b5061148f604051806040016040528060098152602001683a30b136329034b99d60b91b81525083612f58565b6114c4604051806040016040528060138152602001727461626c652068617368537472696e6720697360681b81525084612f9d565b7ffeadb03e5864c7ba3800506584c86f9177a7d4a3547a3db6021574c3a678b3d1836040516114f39190614414565b60405180910390a150509b9a5050505050505050505050565b6001546000906001600160a01b031633146115395760405162461bcd60e51b81526004016103d6906145bb565b600060038460405161154b9190614361565b908152604051908190036020019020546001600160a01b03169050806115835760405162461bcd60e51b81526004016103d690614584565b6040516351fddd5760e11b81526001600160a01b03848116600483015282919082169063a3fbbaae90602401602060405180830381600087803b1580156115c957600080fd5b505af11580156115dd573d6000803e3d6000fd5b505050506040513d601f19601f820116820180604052508101906116019190613cc5565b95945050505050565b60008060038460405161161d9190614361565b908152604051908190036020019020546001600160a01b031690508061169c5760405162461bcd60e51b815260206004820152602e60248201527f6e6f207461626c6520776974682074686520686173682c20706c65617365206360448201526d6865636b2074686520686173682160901b60648201526084016103d6565b6001600160a01b03811660009081526008602052604090205480158015906116c45750804310155b156117305760405162461bcd60e51b815260206004820152603660248201527f6172726976656420636f6f6c20646f776e2074696d6520626c6f636b2c2063616044820152756e206e6f74206a6f696e207468697320726f756e642160501b60648201526084016103d6565b3360008181526002602090815260409182902054825160a0810184529384529083018a90528282018990526001600160a01b039081166060840181905260808401889052915163092468bd60e11b8152919285929091831690631248d17a9061179d9084906004016145f2565b600060405180830381600087803b1580156117b757600080fd5b505af11580156117cb573d6000803e3d6000fd5b505050506000826001600160a01b0316635f2d82ea6040518163ffffffff1660e01b81526004016101606040518083038186803b15801561180b57600080fd5b505afa15801561181f573d6000803e3d6000fd5b505050506040513d601f19601f820116820180604052508101906118439190614089565b90506118508b8288612fe2565b7f08b584e6aceb13e620c46e9d7288284e3b3a1c9dce5ca8e843559f5c4c8456a7338c8c8c60405161188594939291906143e7565b60405180910390a15060019a9950505050505050505050565b6001546001600160a01b031633146118c85760405162461bcd60e51b81526004016103d6906145bb565b60006003836040516118da9190614361565b908152604051908190036020019020546001600160a01b03169050806119595760405162461bcd60e51b815260206004820152602e60248201527f4e6f207461626c6520776974682074686520686173682c20706c65617365206360448201526d6865636b2074686520686173682160901b60648201526084016103d6565b6001600160a01b039081166000908152600b6020908152604091829020845181549085166001600160a01b0319918216178255918501516001820155918401516002830155606084015160038301556080840151600483015560a0840151600583015560c0840151600683015560e0840151600783015561010084015160088301805491909416911617909155610120820151600982015561014090910151600a9091015550565b611a096138e1565b600d83604051611a199190614361565b9081526040805191829003602090810183206000868152915281902060a08301909152805482908290611a4b90614962565b80601f0160208091040260200160405190810160405280929190818152602001828054611a7790614962565b8015611ac45780601f10611a9957610100808354040283529160200191611ac4565b820191906000526020600020905b815481529060010190602001808311611aa757829003601f168201915b50505050508152602001600182018054611add90614962565b80601f0160208091040260200160405190810160405280929190818152602001828054611b0990614962565b8015611b565780601f10611b2b57610100808354040283529160200191611b56565b820191906000526020600020905b815481529060010190602001808311611b3957829003601f168201915b50505050508152602001600282018054611b6f90614962565b80601f0160208091040260200160405190810160405280929190818152602001828054611b9b90614962565b8015611be85780601f10611bbd57610100808354040283529160200191611be8565b820191906000526020600020905b815481529060010190602001808311611bcb57829003601f168201915b5050505050815260200160038201604051806101a0016040529081600082018054611c1290614962565b80601f0160208091040260200160405190810160405280929190818152602001828054611c3e90614962565b8015611c8b5780601f10611c6057610100808354040283529160200191611c8b565b820191906000526020600020905b815481529060010190602001808311611c6e57829003601f168201915b5050505050815260200160018201548152602001600282015481526020016003820154815260200160048201805480602002602001604051908101604052809291908181526020018280548015611d0157602002820191906000526020600020905b815481526020019060010190808311611ced575b5050505050815260200160058201805480602002602001604051908101604052809291908181526020018280548015611d6357602002820191906000526020600020905b81546001600160a01b03168152600190910190602001808311611d45575b5050505050815260200160068201805480602002602001604051908101604052809291908181526020018280548015611dbb57602002820191906000526020600020905b815481526020019060010190808311611da7575b5050505050815260200160078201805480602002602001604051908101604052809291908181526020018280548015611e1357602002820191906000526020600020905b815481526020019060010190808311611dff575b5050505050815260200160088201805480602002602001604051908101604052809291908181526020018280548015611e7557602002820191906000526020600020905b81546001600160a01b03168152600190910190602001808311611e57575b5050505050815260200160098201805480602002602001604051908101604052809291908181526020018280548015611ecd57602002820191906000526020600020905b815481526020019060010190808311611eb9575b50505050508152602001600a8201805480602002602001604051908101604052809291908181526020018280548015611f2557602002820191906000526020600020905b815481526020019060010190808311611f11575b50505050508152602001600b8201805480602002602001604051908101604052809291908181526020018280548015611f8757602002820191906000526020600020905b81546001600160a01b03168152600190910190602001808311611f69575b50505050508152602001600c8201805480602002602001604051908101604052809291908181526020018280548015611fdf57602002820191906000526020600020905b815481526020019060010190808311611fcb575b50505050508152505081526020016010820160405180604001604052908160008201805461200c90614962565b80601f016020809104026020016040519081016040528092919081815260200182805461203890614962565b80156120855780601f1061205a57610100808354040283529160200191612085565b820191906000526020600020905b81548152906001019060200180831161206857829003601f168201915b5050505050815260200160018201805461209e90614962565b80601f01602080910402602001604051908101604052809291908181526020018280546120ca90614962565b80156121175780601f106120ec57610100808354040283529160200191612117565b820191906000526020600020905b8154815290600101906020018083116120fa57829003601f168201915b505050919092525050509052509392505050565b6001546000906001600160a01b031633146121585760405162461bcd60e51b81526004016103d6906145bb565b600060038360405161216a9190614361565b908152604051908190036020019020546001600160a01b03169050806121a25760405162461bcd60e51b81526004016103d690614584565b4391506121d36040518060400160405280600c81526020016b313637b1b597373ab6b132b960a11b815250836125cf565b6001600160a01b0381166000818152600860209081526040808320869055600990915280822042908190558151632f96c17560e11b8152915190938593929091635f2d82ea9160048082019261016092909190829003018186803b15801561223a57600080fd5b505afa15801561224e573d6000803e3d6000fd5b505050506040513d601f19601f820116820180604052508101906122729190614089565b905061227e818561358d565b7fa69882baf66ab5e3584e5e8a7132a5d8f524b440db857ffdfa994cdabd944fee8686426040516122b193929190614530565b60405180910390a150505050919050565b6001546000906001600160a01b031633146122ef5760405162461bcd60e51b81526004016103d6906145bb565b50600180546001600160a01b0319166001600160a01b039290921691909117815590565b606060006060806060600060038760405161232e9190614361565b908152604051908190036020019020546001600160a01b03169050806123665760405162461bcd60e51b81526004016103d690614584565b60008190506000816001600160a01b03166384bc76a66040518163ffffffff1660e01b815260040160006040518083038186803b1580156123a657600080fd5b505afa1580156123ba573d6000803e3d6000fd5b505050506040513d6000823e601f3d908101601f191682016040526123e29190810190613e7c565b90506000826001600160a01b03166347e405536040518163ffffffff1660e01b815260040160206040518083038186803b15801561241f57600080fd5b505afa158015612433573d6000803e3d6000fd5b505050506040513d601f19601f820116820180604052508101906124579190614125565b825160208401516040909401519b9c919b909a5092985091965090945050505050565b600080600060038460405161248f9190614361565b908152604051908190036020019020546001600160a01b03169050806124c75760405162461bcd60e51b81526004016103d690614584565b6001600160a01b03166000908152600860209081526040808320546009909252909120549094909350915050565b61253e8484848460405160240161250f9493929190614555565b60408051601f198184030181529190526020810180516001600160e01b03166304772b3360e11b1790526137b0565b50505050565b61258b83838360405160240161255c93929190614530565b60408051601f198184030181529190526020810180516001600160e01b031663969cdd0360e01b1790526137b0565b505050565b600080826125a3575060009050806125c8565b60018385816125c257634e487b7160e01b600052601260045260246000fd5b04915091505b9250929050565b61261482826040516024016125e59291906144af565b60408051601f198184030181529190526020810180516001600160e01b03166309710a9d60e41b1790526137b0565b5050565b60006126248284614900565b9392505050565b6001600160a01b038082166000908152600b602090815260409182902082516101608101845281548516808252600183015493820193909352600282015493810193909352600381015460608481019190915260048201546080850152600582015460a0850152600682015460c0850152600782015460e085015260088201549094166101008401526009810154610120840152600a015461014083015215612a17576001600160a01b038316600090815260046020526040812080546126f190614962565b80601f016020809104026020016040519081016040528092919081815260200182805461271d90614962565b801561276a5780601f1061273f5761010080835404028352916020019161276a565b820191906000526020600020905b81548152906001019060200180831161274d57829003601f168201915b5050604051632498155360e11b815293945087936001600160a01b03851693506349302aa692506127a0915086906004016146fe565b600060405180830381600087803b1580156127ba57600080fd5b505af11580156127ce573d6000803e3d6000fd5b505050506000836000015184602001518560400151866060015187608001518860a001518960c001518a60e001518b61010001518c61012001518d61014001516040516020016128849b9a999897969594939291906001600160a01b039b8c168152602081019a909a5260408a01989098526060890196909652608088019490945260a087019290925260c086015260e08501529093166101008301526101208201929092526101408101919091526101600190565b6040516020818303038152906040528051906020012060001c90508560036128ab83612e3f565b6040516128b89190614361565b90815260405190819003602001902080546001600160a01b03929092166001600160a01b03199092169190911790556128f081612e3f565b6001600160a01b0387166000908152600460209081526040909120825161291d939192919091019061385d565b506001600160a01b0386166000908152600b6020908152604080832080546001600160a01b0319908116825560018201859055600282018590556003820185905560048201859055600582018590556006820185905560078201859055600882018054909116905560098101849055600a01929092558151808301909252600d82526c3132b337b932961030b33a32b960991b908201526129c790846129c284612e3f565b6137d1565b7fe3e57a24b8f74d2723608b23c0f9b294b5919b85093bade5338255ac2f903556836129f283612e3f565b604051612a00929190614451565b60405180910390a1612a1181612e3f565b94505050505b50919050565b6000600385604051612a2f9190614361565b908152604080519182900360209081018320546101a08401835288845286518483015283830188905286820151606085015286830151608085015260e08088015160a086015261010088015160c08601526001600160a01b03909116600081815260068452848120805486518187028101870190975280875292975090959492850193909190830182828015612ae457602002820191906000526020600020905b815481526020019060010190808311612ad0575b5050505050815260200185606001518152602001856080015181526020018560a001518152602001856101200151815260200160076000856001600160a01b03166001600160a01b03168152602001908152602001600020805480602002602001604051908101604052809291908181526020018280548015612b8657602002820191906000526020600020905b815481526020019060010190808311612b72575b5050509190925250506040805180820182528881526020808201879052825160e081018452600360a082019081526211539160ea1b60c08301528152835180850185526007808252665355434345535360c81b8285018190528385019290925285518087018752908152928301528084019190915260608101849052608081018290529151929350918190600d90612c1f908b90614361565b90815260408051602092819003830190208951600090815290835220825180519192612c509284929091019061385d565b506020828101518051612c69926001850192019061385d565b5060408201518051612c8591600284019160209091019061385d565b506060820151805180516003840191612ca39183916020019061385d565b506020828101516001830155604083015160028301556060830151600383015560808301518051612cda9260048501920190613993565b5060a08201518051612cf69160058401916020909101906139cd565b5060c08201518051612d12916006840191602090910190613993565b5060e08201518051612d2e916007840191602090910190613993565b506101008201518051612d4b9160088401916020909101906139cd565b506101208201518051612d68916009840191602090910190613993565b506101408201518051612d8591600a840191602090910190613993565b506101608201518051612da291600b8401916020909101906139cd565b506101808201518051612dbf91600c840191602090910190613993565b5050506080820151805180516010840191612ddf9183916020019061385d565b506020828101518051612df8926001850192019061385d565b5050509050507fc0ec51606c487dd657ad454c00b53ad9f5b378283485d0ae58cf92d3ce7641df83604051612e2d91906146eb565b60405180910390a15050505050505050565b606081612e635750506040805180820190915260018152600360fc1b602082015290565b8160005b8115612e8d5780612e7781614997565b9150612e869050600a83614869565b9150612e67565b6000816001600160401b03811115612eb557634e487b7160e01b600052604160045260246000fd5b6040519080825280601f01601f191660200182016040528015612edf576020820181803683370190505b5090505b841561045657612ef460018361491f565b9150612f01600a866149b2565b612f0c906030614851565b60f81b818381518110612f2f57634e487b7160e01b600052603260045260246000fd5b60200101906001600160f81b031916908160001a905350612f51600a86614869565b9450612ee3565b6126148282604051602401612f6e929190614427565b60408051601f198184030181529190526020810180516001600160e01b031663319af33360e01b1790526137b0565b6126148282604051602401612fb3929190614451565b60408051601f198184030181529190526020810180516001600160e01b0316634b5c427760e01b1790526137b0565b6000612ffb83602001518561261890919063ffffffff16565b6000546040516323b872dd60e01b8152336004820152306024820152604481018390529192506001600160a01b0316906323b872dd90606401602060405180830381600087803b15801561304e57600080fd5b505af1158015613062573d6000803e3d6000fd5b505050506040513d601f19601f820116820180604052508101906130869190613cc5565b506001600160a01b038216600090815260056020526040812080548392906130af908490614851565b909155505060c0830151156133bd5760c08301516000906130dc906130d684612710613818565b90612618565b6001600160a01b03841660009081526005602052604090205490915081111561315b5760405162461bcd60e51b815260206004820152602b60248201527f5461626c6520706f6f6c206e6f7420656e6f75676820666f722062616e6b657260448201526a436f6d6d697373696f6e2160a81b60648201526084016103d6565b6001600160a01b0383166000908152600560205260408120805483929061318390849061491f565b909155505060005461010085015160405163a9059cbb60e01b81526001600160a01b0391821660048201526024810184905291169063a9059cbb90604401602060405180830381600087803b1580156131db57600080fd5b505af11580156131ef573d6000803e3d6000fd5b505050506040513d601f19601f820116820180604052508101906132139190613cc5565b50610100840151604080513381526001600160a01b03909216602083015281018290527fda5163f4fef80ed29382eca50bb83c0bd880a912e0ad6adf0d4389fa62481a639060600160405180910390a1610140840151156133bb57610140840151600090613287906130d684612710613818565b6001600160a01b0385166000908152600560205260409020549091508111156133075760405162461bcd60e51b815260206004820152602c60248201527f5461626c6520706f6f6c206e6f7420656e6f75676820666f72206a61636b706f60448201526b74436f6d6d697373696f6e2160a01b60648201526084016103d6565b6001600160a01b0384166000908152600560205260408120805483929061332f90849061491f565b90915550506001600160a01b0384166000908152600a60205260408120805483929061335c908490614851565b90915550506001600160a01b0384166000908152600a60209081526040918290205482513381529182018490528183015290517ff864fe483b7edde37b34a983ba165cd5b188c5a8bbe3b5bfa25cdc2baf346a1a9181900360600190a1505b505b336000908152600260205260409020546001600160a01b031680158015906133e9575060008460e00151115b156135865760e0840151600090613406906130d685612710613818565b6001600160a01b0385166000908152600560205260409020549091508111156134875760405162461bcd60e51b815260206004820152602d60248201527f5461626c6520706f6f6c206e6f7420656e6f75676820666f722072656665727260448201526c616c436f6d6d697373696f6e2160981b60648201526084016103d6565b6001600160a01b038416600090815260056020526040812080548392906134af90849061491f565b909155505060005460405163a9059cbb60e01b81526001600160a01b038481166004830152602482018490529091169063a9059cbb90604401602060405180830381600087803b15801561350257600080fd5b505af1158015613516573d6000803e3d6000fd5b505050506040513d601f19601f8201168201806040525081019061353a9190613cc5565b50604080513381526001600160a01b03841660208201529081018290527fa97b13b2cce63d44be7b27fdf4d8e0c49f255b8b0a19f07ce2881ba924118f829060600160405180910390a1505b5050505050565b60008190506000816001600160a01b031663efa1c4826040518163ffffffff1660e01b815260040160006040518083038186803b1580156135cd57600080fd5b505afa1580156135e1573d6000803e3d6000fd5b505050506040513d6000823e601f3d908101601f191682016040526136099190810190613c93565b805160408601519192509081101561358657604085015160009061362d9083613824565b90506000846001600160a01b03166347e405536040518163ffffffff1660e01b815260040160206040518083038186803b15801561366a57600080fd5b505afa15801561367e573d6000803e3d6000fd5b505050506040513d601f19601f820116820180604052508101906136a29190614125565b905060005b828110156137a65760006136f6600a6136f08460408051426020808301919091524482840152606080830194909452825180830390940184526080909101909152815191012090565b90613830565b6040805160a0810182526001600160a01b038086168252600160208301528183018490526000606083015260808201879052915163092468bd60e11b8152929350849290918a1690631248d17a906137529084906004016145f2565b600060405180830381600087803b15801561376c57600080fd5b505af1158015613780573d6000803e3d6000fd5b5050505061379060018c8c612fe2565b505050808061379e90614997565b9150506136a7565b5050505050505050565b80516a636f6e736f6c652e6c6f67602083016000808483855afa5050505050565b61258b8383836040516024016137e993929190614476565b60408051601f198184030181529190526020810180516001600160e01b0316632ced7cef60e01b1790526137b0565b60006126248284614869565b6000612624828461491f565b600061262482846149b2565b508054600082559060005260206000209081019061385a9190613a22565b50565b82805461386990614962565b90600052602060002090601f01602090048101928261388b57600085556138d1565b82601f106138a457805160ff19168380011785556138d1565b828001600101855582156138d1579182015b828111156138d15782518255916020019190600101906138b6565b506138dd929150613a22565b5090565b6040518060a0016040528060608152602001606081526020016060815260200161396c604051806101a00160405280606081526020016000815260200160008152602001600081526020016060815260200160608152602001606081526020016060815260200160608152602001606081526020016060815260200160608152602001606081525090565b815260200161398e604051806040016040528060608152602001606081525090565b905290565b8280548282559060005260206000209081019282156138d157916020028201828111156138d15782518255916020019190600101906138b6565b8280548282559060005260206000209081019282156138d1579160200282015b828111156138d157825182546001600160a01b0319166001600160a01b039091161782556020909201916001909101906139ed565b5b808211156138dd5760008155600101613a23565b8035613a4281614a08565b919050565b8051613a4281614a08565b600082601f830112613a62578081fd5b81516020613a77613a728361482e565b6147fe565b80838252828201915082860187848660051b8901011115613a96578586fd5b855b85811015613abd578151613aab81614a08565b84529284019290840190600101613a98565b5090979650505050505050565b600082601f830112613ada578081fd5b81516020613aea613a728361482e565b80838252828201915082860187848660051b8901011115613b09578586fd5b855b85811015613abd57815184529284019290840190600101613b0b565b600082601f830112613b37578081fd5b81356001600160401b03811115613b5057613b506149f2565b613b63601f8201601f19166020016147fe565b818152846020838601011115613b77578283fd5b816020850160208301379081016020019190915292915050565b600060208284031215613ba2578081fd5b813561262481614a08565b600060208284031215613bbe578081fd5b815161262481614a08565b60008060408385031215613bdb578081fd5b8235613be681614a08565b91506020830135613bf681614a08565b809150509250929050565b60008060008060008060008060008060006101608c8e031215613c22578687fd5b8b35613c2d81614a08565b9a5060208c0135995060408c0135985060608c0135975060808c0135965060a08c0135955060c08c0135945060e08c013593506101008c0135613c6f81614a08565b809350506101208c013591506101408c013590509295989b509295989b9093969950565b600060208284031215613ca4578081fd5b81516001600160401b03811115613cb9578182fd5b61045684828501613a52565b600060208284031215613cd6578081fd5b81518015158114612624578182fd5b600060208284031215613cf6578081fd5b81356001600160401b03811115613d0b578182fd5b61045684828501613b27565b60008060408385031215613d29578182fd5b82356001600160401b03811115613d3e578283fd5b613d4a85828601613b27565b9250506020830135613bf681614a08565b600080828403610180811215613d6f578283fd5b83356001600160401b03811115613d84578384fd5b613d9086828701613b27565b93505061016080601f1983011215613da6578283fd5b613dae614790565b9150613dbc60208601613a37565b825260408501356020830152606085013560408301526080850135606083015260a0850135608083015260c085013560a083015260e085013560c08301526101008086013560e0840152610120613e14818801613a37565b918401919091526101408681013591840191909152940135938101939093525092909150565b60008060408385031215613e4c578182fd5b82356001600160401b03811115613e61578283fd5b613e6d85828601613b27565b95602094909401359450505050565b600060208284031215613e8d578081fd5b81516001600160401b0380821115613ea3578283fd5b9083019060608286031215613eb6578283fd5b613ebe6147b9565b825182811115613ecc578485fd5b613ed887828601613a52565b825250602083015182811115613eec578485fd5b613ef887828601613aca565b602083015250604083015182811115613f0f578485fd5b613f1b87828601613aca565b60408301525095945050505050565b600060208284031215613f3b578081fd5b81516001600160401b0380821115613f51578283fd5b908301906101408286031215613f65578283fd5b613f6d6147db565b8251815260208301516020820152604083015182811115613f8c578485fd5b613f9887828601613aca565b604083015250606083015182811115613faf578485fd5b613fbb87828601613a52565b606083015250608083015182811115613fd2578485fd5b613fde87828601613aca565b60808301525060a083015182811115613ff5578485fd5b61400187828601613aca565b60a08301525060c083015160c082015260e083015182811115614022578485fd5b61402e87828601613a52565b60e0830152506101008084015183811115614047578586fd5b61405388828701613aca565b828401525050610120808401518381111561406c578586fd5b61407888828701613a52565b918301919091525095945050505050565b6000610160828403121561409b578081fd5b6140a3614790565b6140ac83613a47565b81526020830151602082015260408301516040820152606083015160608201526080830151608082015260a083015160a082015260c083015160c082015260e083015160e0820152610100614102818501613a47565b908201526101208381015190820152610140928301519281019290925250919050565b600060208284031215614136578081fd5b5051919050565b60008060008060808587031215614152578182fd5b843593506020850135925060408501356001600160401b03811115614175578283fd5b61418187828801613b27565b949793965093946060013593505050565b6000815180845260208085019450808401835b838110156141ca5781516001600160a01b0316875295820195908201906001016141a5565b509495945050505050565b6000815180845260208085019450808401835b838110156141ca578151875295820195908201906001016141e8565b6000815180845261421c816020860160208601614936565b601f01601f19169290920160200192915050565b60006101a0825181855261424682860182614204565b9150506020830151602085015260408301516040850152606083015160608501526080830151848203608086015261427e82826141d5565b91505060a083015184820360a08601526142988282614192565b91505060c083015184820360c08601526142b282826141d5565b91505060e083015184820360e08601526142cc82826141d5565b91505061010080840151858303828701526142e78382614192565b92505050610120808401518583038287015261430383826141d5565b92505050610140808401518583038287015261431f83826141d5565b92505050610160808401518583038287015261433b8382614192565b92505050610180808401518583038287015261435783826141d5565b9695505050505050565b60008251614373818460208701614936565b9190910192915050565b6001600160a01b039c8d1681529a8c1660208c015260408b019990995260608a0197909752608089019590955260a088019390935260c087019190915260e08601526101008501529093166101208301526101408201929092526101608101919091526101800190565b60018060a01b03851681528360208201528260408201526080606082015260006143576080830184614204565b6020815260006126246020830184614204565b60408152600061443a6040830185614204565b905060018060a01b03831660208301529392505050565b6040815260006144646040830185614204565b82810360208401526116018185614204565b6060815260006144896060830186614204565b828103602084015261449b8186614204565b905082810360408401526143578185614204565b6040815260006144c26040830185614204565b90508260208301529392505050565b60a0815260006144e460a0830188614204565b86602084015282810360408401526144fc8187614192565b9050828103606084015261451081866141d5565b9050828103608084015261452481856141d5565b98975050505050505050565b6060815260006145436060830186614204565b60208301949094525060400152919050565b6080815260006145686080830187614204565b6020830195909552506040810192909252606090910152919050565b60208082526019908201527f706c6561736520636865636b2074686520616464726573732100000000000000604082015260600190565b6020808252601b908201527f6d73672e73656e646572206973206e6f7420746865206f776e65720000000000604082015260600190565b81516001600160a01b0390811682526020808401519083015260408084015190830152606080840151909116908201526080918201519181019190915260a00190565b602081526000825160a0602084015261465160c0840182614204565b90506020840151601f198085840301604086015261466f8383614204565b9250604086015191508085840301606086015261468c8383614204565b925060608601519150808584030160808601526146a98383614230565b925060808601519150808584030160a0860152508051604083526146d06040840182614204565b90506020820151915082810360208401526143578183614204565b6020815260006126246020830184614230565b81516001600160a01b0316815261016081016020830151602083015260408301516040830152606083015160608301526080830151608083015260a083015160a083015260c083015160c083015260e083015160e083015261010080840151614771828501826001600160a01b03169052565b5050610120838101519083015261014092830151929091019190915290565b60405161016081016001600160401b03811182821017156147b3576147b36149f2565b60405290565b604051606081016001600160401b03811182821017156147b3576147b36149f2565b60405161014081016001600160401b03811182821017156147b3576147b36149f2565b604051601f8201601f191681016001600160401b0381118282101715614826576148266149f2565b604052919050565b60006001600160401b03821115614847576148476149f2565b5060051b60200190565b60008219821115614864576148646149c6565b500190565b600082614878576148786149dc565b500490565b60006001600160ff1b03818413828413808216868404861116156148a3576148a36149c6565b600160ff1b848712828116878305891216156148c1576148c16149c6565b8587129250878205871284841616156148dc576148dc6149c6565b878505871281841616156148f2576148f26149c6565b505050929093029392505050565b600081600019048311821515161561491a5761491a6149c6565b500290565b600082821015614931576149316149c6565b500390565b60005b83811015614951578181015183820152602001614939565b8381111561253e5750506000910152565b600181811c9082168061497657607f821691505b60208210811415612a1757634e487b7160e01b600052602260045260246000fd5b60006000198214156149ab576149ab6149c6565b5060010190565b6000826149c1576149c16149dc565b500690565b634e487b7160e01b600052601160045260246000fd5b634e487b7160e01b600052601260045260246000fd5b634e487b7160e01b600052604160045260246000fd5b6001600160a01b038116811461385a57600080fdfe7461626c65506f6f6c5b7461626c65416464726573735d2c2077696e416d6f756e74706f6f6c416d6f756e742c20726f756e64526573756c742e77696e6e6572732e6c656e677468726f756e642c20726f756e644e756d6265722c20726f756e64526573756c742e77696e6e6572416c6c436f756e74726f756e64526573756c742e6a61636b706f7457696e6e6572732e6c656e677468a26469706673582212201ac21094e6f41f4008291fae5a68db9d15b1ec9431c3fd45dfd9024fb8c48f4e64736f6c63430008040033",
  "linkReferences": {},
  "deployedLinkReferences": {}
}