{
  "_format": "hh-sol-artifact-1",
  "contractName": "LotteryManagerV3",
  "sourceName": "contracts/LotteryManagerV3.sol",
  "abi": [
    {
      "inputs": [
        {
          "internalType": "address",
          "name": "_factory",
          "type": "address"
        },
        {
          "internalType": "address",
          "name": "_tokenAddress",
          "type": "address"
        }
      ],
      "stateMutability": "nonpayable",
      "type": "constructor"
    },
    {
      "anonymous": false,
      "inputs": [
        {
          "indexed": false,
          "internalType": "address",
          "name": "player",
          "type": "address"
        },
        {
          "indexed": false,
          "internalType": "address",
          "name": "banker",
          "type": "address"
        },
        {
          "indexed": false,
          "internalType": "uint256",
          "name": "amount",
          "type": "uint256"
        }
      ],
      "name": "BankerCommission",
      "type": "event"
    },
    {
      "anonymous": false,
      "inputs": [
        {
          "indexed": false,
          "internalType": "string",
          "name": "hash",
          "type": "string"
        }
      ],
      "name": "CreateTableIfNecessary",
      "type": "event"
    },
    {
      "anonymous": false,
      "inputs": [
        {
          "indexed": false,
          "internalType": "string",
          "name": "beforeHash",
          "type": "string"
        },
        {
          "indexed": false,
          "internalType": "string",
          "name": "newHash",
          "type": "string"
        }
      ],
      "name": "EditTable",
      "type": "event"
    },
    {
      "anonymous": false,
      "inputs": [
        {
          "indexed": false,
          "internalType": "string",
          "name": "hash",
          "type": "string"
        },
        {
          "indexed": false,
          "internalType": "uint256",
          "name": "round",
          "type": "uint256"
        },
        {
          "indexed": false,
          "internalType": "address[]",
          "name": "players",
          "type": "address[]"
        },
        {
          "indexed": false,
          "internalType": "uint256[]",
          "name": "numbers",
          "type": "uint256[]"
        },
        {
          "indexed": false,
          "internalType": "uint256[]",
          "name": "counts",
          "type": "uint256[]"
        }
      ],
      "name": "HoldingTicket",
      "type": "event"
    },
    {
      "anonymous": false,
      "inputs": [
        {
          "indexed": false,
          "internalType": "address",
          "name": "player",
          "type": "address"
        },
        {
          "indexed": false,
          "internalType": "uint256",
          "name": "amount",
          "type": "uint256"
        },
        {
          "indexed": false,
          "internalType": "uint256",
          "name": "all",
          "type": "uint256"
        }
      ],
      "name": "JackpotCommission",
      "type": "event"
    },
    {
      "anonymous": false,
      "inputs": [
        {
          "indexed": false,
          "internalType": "address",
          "name": "player",
          "type": "address"
        },
        {
          "indexed": false,
          "internalType": "uint256",
          "name": "jackpotPrize",
          "type": "uint256"
        }
      ],
      "name": "JackpotWinner",
      "type": "event"
    },
    {
      "anonymous": false,
      "inputs": [
        {
          "indexed": false,
          "internalType": "address",
          "name": "player",
          "type": "address"
        },
        {
          "indexed": false,
          "internalType": "uint256",
          "name": "count",
          "type": "uint256"
        },
        {
          "indexed": false,
          "internalType": "uint256",
          "name": "number",
          "type": "uint256"
        },
        {
          "indexed": false,
          "internalType": "string",
          "name": "hash",
          "type": "string"
        }
      ],
      "name": "JoinTable",
      "type": "event"
    },
    {
      "anonymous": false,
      "inputs": [
        {
          "indexed": false,
          "internalType": "string",
          "name": "hash",
          "type": "string"
        },
        {
          "indexed": false,
          "internalType": "uint256",
          "name": "coolDownTimeBlock",
          "type": "uint256"
        },
        {
          "indexed": false,
          "internalType": "uint256",
          "name": "notifyTimestamp",
          "type": "uint256"
        }
      ],
      "name": "NotifyCoolDownTime",
      "type": "event"
    },
    {
      "anonymous": false,
      "inputs": [
        {
          "indexed": false,
          "internalType": "address",
          "name": "player",
          "type": "address"
        },
        {
          "indexed": false,
          "internalType": "address",
          "name": "refer",
          "type": "address"
        },
        {
          "indexed": false,
          "internalType": "uint256",
          "name": "amount",
          "type": "uint256"
        }
      ],
      "name": "ReferCommission",
      "type": "event"
    },
    {
      "anonymous": false,
      "inputs": [
        {
          "indexed": false,
          "internalType": "string",
          "name": "hash",
          "type": "string"
        },
        {
          "indexed": false,
          "internalType": "uint256",
          "name": "round",
          "type": "uint256"
        },
        {
          "indexed": false,
          "internalType": "uint256",
          "name": "poolAmount",
          "type": "uint256"
        },
        {
          "indexed": false,
          "internalType": "uint256",
          "name": "roundNumber",
          "type": "uint256"
        },
        {
          "indexed": false,
          "internalType": "uint256[]",
          "name": "prizeNumbers",
          "type": "uint256[]"
        },
        {
          "indexed": false,
          "internalType": "address[]",
          "name": "roundWinnerArray",
          "type": "address[]"
        },
        {
          "indexed": false,
          "internalType": "uint256[]",
          "name": "winnerCount",
          "type": "uint256[]"
        },
        {
          "indexed": false,
          "internalType": "int256[]",
          "name": "rewards",
          "type": "int256[]"
        },
        {
          "indexed": false,
          "internalType": "address[]",
          "name": "allPlayers",
          "type": "address[]"
        },
        {
          "indexed": false,
          "internalType": "uint256[]",
          "name": "numbers",
          "type": "uint256[]"
        },
        {
          "indexed": false,
          "internalType": "uint256[]",
          "name": "counts",
          "type": "uint256[]"
        },
        {
          "indexed": false,
          "internalType": "address[]",
          "name": "jackpotWinners",
          "type": "address[]"
        }
      ],
      "name": "StartRound",
      "type": "event"
    },
    {
      "inputs": [
        {
          "internalType": "address",
          "name": "newOwner",
          "type": "address"
        }
      ],
      "name": "changeOwner",
      "outputs": [
        {
          "internalType": "bool",
          "name": "result",
          "type": "bool"
        }
      ],
      "stateMutability": "nonpayable",
      "type": "function"
    },
    {
      "inputs": [
        {
          "internalType": "string",
          "name": "hash",
          "type": "string"
        },
        {
          "internalType": "address",
          "name": "newManagerContract",
          "type": "address"
        }
      ],
      "name": "changeTableManager",
      "outputs": [
        {
          "internalType": "bool",
          "name": "result",
          "type": "bool"
        }
      ],
      "stateMutability": "nonpayable",
      "type": "function"
    },
    {
      "inputs": [
        {
          "internalType": "address",
          "name": "creator",
          "type": "address"
        },
        {
          "internalType": "uint256",
          "name": "amount",
          "type": "uint256"
        },
        {
          "internalType": "uint256",
          "name": "minPPL",
          "type": "uint256"
        },
        {
          "internalType": "uint256",
          "name": "maxPPL",
          "type": "uint256"
        },
        {
          "internalType": "uint256",
          "name": "coolDownTime",
          "type": "uint256"
        },
        {
          "internalType": "uint256",
          "name": "gameTime",
          "type": "uint256"
        },
        {
          "internalType": "uint256",
          "name": "bankerCommission",
          "type": "uint256"
        },
        {
          "internalType": "uint256",
          "name": "referralCommission",
          "type": "uint256"
        },
        {
          "internalType": "address",
          "name": "bankerWallet",
          "type": "address"
        },
        {
          "internalType": "uint256",
          "name": "delayBlock",
          "type": "uint256"
        },
        {
          "internalType": "uint256",
          "name": "jackpotCommission",
          "type": "uint256"
        }
      ],
      "name": "createTableIfNecessary",
      "outputs": [
        {
          "internalType": "string",
          "name": "hashString",
          "type": "string"
        }
      ],
      "stateMutability": "payable",
      "type": "function"
    },
    {
      "inputs": [
        {
          "internalType": "string",
          "name": "hashString",
          "type": "string"
        },
        {
          "components": [
            {
              "internalType": "address",
              "name": "creator",
              "type": "address"
            },
            {
              "internalType": "uint256",
              "name": "amount",
              "type": "uint256"
            },
            {
              "internalType": "uint256",
              "name": "minPPL",
              "type": "uint256"
            },
            {
              "internalType": "uint256",
              "name": "maxPPL",
              "type": "uint256"
            },
            {
              "internalType": "uint256",
              "name": "coolDownTime",
              "type": "uint256"
            },
            {
              "internalType": "uint256",
              "name": "gameTime",
              "type": "uint256"
            },
            {
              "internalType": "uint256",
              "name": "bankerCommission",
              "type": "uint256"
            },
            {
              "internalType": "uint256",
              "name": "referralCommission",
              "type": "uint256"
            },
            {
              "internalType": "address",
              "name": "bankerWallet",
              "type": "address"
            },
            {
              "internalType": "uint256",
              "name": "delayBlocks",
              "type": "uint256"
            },
            {
              "internalType": "uint256",
              "name": "jackpotCommission",
              "type": "uint256"
            }
          ],
          "internalType": "struct ILotteryTableV3.TableInfo",
          "name": "tableInfo",
          "type": "tuple"
        }
      ],
      "name": "editTable",
      "outputs": [],
      "stateMutability": "nonpayable",
      "type": "function"
    },
    {
      "inputs": [],
      "name": "factory",
      "outputs": [
        {
          "internalType": "address",
          "name": "",
          "type": "address"
        }
      ],
      "stateMutability": "view",
      "type": "function"
    },
    {
      "inputs": [
        {
          "internalType": "string",
          "name": "hash",
          "type": "string"
        }
      ],
      "name": "getCoolDownTimeBlock",
      "outputs": [
        {
          "internalType": "uint256",
          "name": "coolDownTimeBlock",
          "type": "uint256"
        },
        {
          "internalType": "uint256",
          "name": "notifyTimestamp",
          "type": "uint256"
        }
      ],
      "stateMutability": "view",
      "type": "function"
    },
    {
      "inputs": [
        {
          "internalType": "string",
          "name": "hash",
          "type": "string"
        }
      ],
      "name": "getTableInfo",
      "outputs": [
        {
          "components": [
            {
              "internalType": "address",
              "name": "creator",
              "type": "address"
            },
            {
              "internalType": "uint256",
              "name": "amount",
              "type": "uint256"
            },
            {
              "internalType": "uint256",
              "name": "minPPL",
              "type": "uint256"
            },
            {
              "internalType": "uint256",
              "name": "maxPPL",
              "type": "uint256"
            },
            {
              "internalType": "uint256",
              "name": "coolDownTime",
              "type": "uint256"
            },
            {
              "internalType": "uint256",
              "name": "gameTime",
              "type": "uint256"
            },
            {
              "internalType": "uint256",
              "name": "bankerCommission",
              "type": "uint256"
            },
            {
              "internalType": "uint256",
              "name": "referralCommission",
              "type": "uint256"
            },
            {
              "internalType": "address",
              "name": "bankerWallet",
              "type": "address"
            },
            {
              "internalType": "uint256",
              "name": "delayBlocks",
              "type": "uint256"
            },
            {
              "internalType": "uint256",
              "name": "jackpotCommission",
              "type": "uint256"
            }
          ],
          "internalType": "struct ILotteryTableV3.TableInfo",
          "name": "tableInfo",
          "type": "tuple"
        }
      ],
      "stateMutability": "view",
      "type": "function"
    },
    {
      "inputs": [
        {
          "internalType": "string",
          "name": "hash",
          "type": "string"
        }
      ],
      "name": "holdingTicket",
      "outputs": [
        {
          "internalType": "string",
          "name": "tableHash",
          "type": "string"
        },
        {
          "internalType": "uint256",
          "name": "round",
          "type": "uint256"
        },
        {
          "internalType": "address[]",
          "name": "players",
          "type": "address[]"
        },
        {
          "internalType": "uint256[]",
          "name": "numbers",
          "type": "uint256[]"
        },
        {
          "internalType": "uint256[]",
          "name": "counts",
          "type": "uint256[]"
        }
      ],
      "stateMutability": "view",
      "type": "function"
    },
    {
      "inputs": [
        {
          "internalType": "uint256",
          "name": "count",
          "type": "uint256"
        },
        {
          "internalType": "uint256",
          "name": "number",
          "type": "uint256"
        },
        {
          "internalType": "string",
          "name": "hash",
          "type": "string"
        }
      ],
      "name": "joinTableV2",
      "outputs": [
        {
          "internalType": "bool",
          "name": "result",
          "type": "bool"
        }
      ],
      "stateMutability": "payable",
      "type": "function"
    },
    {
      "inputs": [
        {
          "internalType": "string",
          "name": "hash",
          "type": "string"
        }
      ],
      "name": "notifyCoolDownTime",
      "outputs": [
        {
          "internalType": "uint256",
          "name": "coolDownTimeBlock",
          "type": "uint256"
        }
      ],
      "stateMutability": "nonpayable",
      "type": "function"
    },
    {
      "inputs": [],
      "name": "owner",
      "outputs": [
        {
          "internalType": "address",
          "name": "",
          "type": "address"
        }
      ],
      "stateMutability": "view",
      "type": "function"
    },
    {
      "inputs": [
        {
          "internalType": "address",
          "name": "a",
          "type": "address"
        },
        {
          "internalType": "address",
          "name": "b",
          "type": "address"
        }
      ],
      "name": "referral",
      "outputs": [
        {
          "internalType": "bool",
          "name": "result",
          "type": "bool"
        }
      ],
      "stateMutability": "nonpayable",
      "type": "function"
    },
    {
      "inputs": [
        {
          "internalType": "string",
          "name": "hash",
          "type": "string"
        }
      ],
      "name": "startRoundV2",
      "outputs": [
        {
          "internalType": "bool",
          "name": "",
          "type": "bool"
        }
      ],
      "stateMutability": "payable",
      "type": "function"
    }
  ],
  "bytecode": "0x60a06040523480156200001157600080fd5b5060405162003df138038062003df1833981016040819052620000349162000097565b6001600160601b031960609290921b91909116608052600080546001600160a01b03929092166001600160a01b03199283161790556001805490911633179055620000ce565b80516001600160a01b03811681146200009257600080fd5b919050565b60008060408385031215620000aa578182fd5b620000b5836200007a565b9150620000c5602084016200007a565b90509250929050565b60805160601c613cf6620000fb6000396000818161024d015281816111c101526112830152613cf66000f3fe6080604052600436106100c25760003560e01c80635433f1031161007f578063a6f9dae111610059578063a6f9dae11461021b578063c45a01551461023b578063efc50bcc1461026f578063f2901e68146102a057600080fd5b80635433f103146101a25780638da5cb5b146101b5578063a4565dd7146101ed57600080fd5b8063184f9875146100c75780631c505d1d146100fd578063225276c81461012d5780633645b8241461014057806338afd4c5146101605780634711876f14610180575b600080fd5b3480156100d357600080fd5b506100e76100e2366004613029565b6102d5565b6040516100f4919061390a565b60405180910390f35b34801561010957600080fd5b5061011d610118366004612f0d565b610416565b60405190151581526020016100f4565b61011d61013b366004613029565b6104ba565b61015361014e366004612f45565b611119565b6040516100f49190613619565b34801561016c57600080fd5b5061011d61017b36600461305b565b61148a565b34801561018c57600080fd5b506101a061019b36600461309f565b611588565b005b61011d6101b036600461343f565b6116e8565b3480156101c157600080fd5b506001546101d5906001600160a01b031681565b6040516001600160a01b0390911681526020016100f4565b3480156101f957600080fd5b5061020d610208366004613029565b611974565b6040519081526020016100f4565b34801561022757600080fd5b5061011d610236366004612ed5565b611b0b565b34801561024757600080fd5b506101d57f000000000000000000000000000000000000000000000000000000000000000081565b34801561027b57600080fd5b5061028f61028a366004613029565b611b5c565b6040516100f49594939291906136d6565b3480156102ac57600080fd5b506102c06102bb366004613029565b611cc3565b604080519283526020830191909152016100f4565b61034460405180610160016040528060006001600160a01b031681526020016000815260200160008152602001600081526020016000815260200160008152602001600081526020016000815260200160006001600160a01b0316815260200160008152602001600081525090565b6000600383604051610356919061355c565b908152604051908190036020019020546001600160a01b03169050806103975760405162461bcd60e51b815260040161038e90613865565b60405180910390fd5b6000819050806001600160a01b0316635f2d82ea6040518163ffffffff1660e01b81526004016101606040518083038186803b1580156103d657600080fd5b505afa1580156103ea573d6000803e3d6000fd5b505050506040513d601f19601f8201168201806040525081019061040e919061338b565b949350505050565b6001546000906001600160a01b031633146104435760405162461bcd60e51b815260040161038e9061389c565b6001600160a01b03831661045657600080fd5b6001600160a01b03821661046957600080fd5b816001600160a01b0316836001600160a01b0316141561048857600080fd5b506001600160a01b03918216600090815260026020526040902080546001600160a01b03191691909216179055600190565b6001546000906001600160a01b031633146104e75760405162461bcd60e51b815260040161038e9061389c565b81600b816040516104f8919061355c565b9081526040519081900360200190205460ff161561054f5760405162461bcd60e51b8152602060048201526014602482015273139bc81c994b595b9d1c985b98de481c9bdd5b9960621b604482015260640161038e565b6001600b82604051610561919061355c565b908152604051908190036020018120805492151560ff199093169290921790915560009060039061059390869061355c565b908152604051908190036020019020546001600160a01b03169050806105cb5760405162461bcd60e51b815260040161038e90613865565b60008190506000816001600160a01b0316635f2d82ea6040518163ffffffff1660e01b81526004016101606040518083038186803b15801561060c57600080fd5b505afa158015610620573d6000803e3d6000fd5b505050506040513d601f19601f82011682018060405250810190610644919061338b565b6001600160a01b038416600090815260076020526040902054909150806106ad5760405162461bcd60e51b815260206004820152601760248201527f77726f6e6720636f6f6c446f776e54696d65426c6f636b000000000000000000604482015260640161038e565b6040516395805dad60e01b8152600481018290526000906001600160a01b038516906395805dad90602401600060405180830381600087803b1580156106f257600080fd5b505af1158015610706573d6000803e3d6000fd5b505050506040513d6000823e601f3d908101601f1916820160405261072e919081019061322c565b905061075d6040518060600160405280602e8152602001613c72602e91398251602084015160c0850151611d3e565b600060056000876001600160a01b03166001600160a01b031681526020019081526020016000205490506107af604051806060016040528060268152602001613c4c60269139828460e0015151611d8d565b6000806107c98460c0015184611dd990919063ffffffff16565b915091506107fd6040518060400160405280600e81526020016d1bdb99541a5958d954995dd85c9960921b81525082611e18565b60005b8460e0015151811015610add5760008560e00151828151811061083357634e487b7160e01b600052603260045260246000fd5b602002602001015190506000866101000151838151811061086457634e487b7160e01b600052603260045260246000fd5b6020026020010151905060006108838286611e6190919063ffffffff16565b90506108c0604051806060016040528060228152602001613c2a602291396001600160a01b038e1660009081526005602052604090205483611d8d565b6001600160a01b038c166000908152600560205260409020548111156109345760405162461bcd60e51b8152602060048201526024808201527f7461626c6520706f6f6c206e6f7420656e6f75676820666f722077696e416d6f604482015263756e742160e01b606482015260840161038e565b6001600160a01b038c166000908152600560205260408120805483929061095c908490613b2b565b9091555050633b9aca006001600160a01b0384161015610a3f576109b56040518060400160405280601a81526020017f77696e6e657220697320726f626f742c2077696e416d6f756e7400000000000081525082611e18565b60005460405163a9059cbb60e01b8152336004820152602481018390526001600160a01b039091169063a9059cbb90604401602060405180830381600087803b158015610a0157600080fd5b505af1158015610a15573d6000803e3d6000fd5b505050506040513d601f19601f82011682018060405250810190610a399190613009565b50610ac7565b60005460405163a9059cbb60e01b81526001600160a01b038581166004830152602482018490529091169063a9059cbb90604401602060405180830381600087803b158015610a8d57600080fd5b505af1158015610aa1573d6000803e3d6000fd5b505050506040513d601f19601f82011682018060405250810190610ac59190613009565b505b5050508080610ad590613ba3565b915050610800565b506101208401515115610e00576000600960008a6001600160a01b03166001600160a01b03168152602001908152602001600020549050610b406040518060400160405280600a8152602001691a9858dadc1bdd105b1b60b21b81525082611e18565b610b68604051806060016040528060218152602001613ca06021913986610120015151611e18565b600080610b848761012001515184611dd990919063ffffffff16565b91509150818015610b955750600081115b15610dfc5760005b87610120015151811015610dfa5760008861012001518281518110610bd257634e487b7160e01b600052603260045260246000fd5b6020026020010151905082600960008f6001600160a01b03166001600160a01b03168152602001908152602001600020541015610c515760405162461bcd60e51b815260206004820152601860248201527f6a61636b706f7420706f6f6c206e6f7420656e6f756768210000000000000000604482015260640161038e565b6001600160a01b038d1660009081526009602052604081208054859290610c79908490613b2b565b9091555050633b9aca006001600160a01b0382161015610d1d5760005460405163a9059cbb60e01b8152336004820152602481018590526001600160a01b039091169063a9059cbb90604401602060405180830381600087803b158015610cdf57600080fd5b505af1158015610cf3573d6000803e3d6000fd5b505050506040513d601f19601f82011682018060405250810190610d179190613009565b50610da5565b60005460405163a9059cbb60e01b81526001600160a01b038381166004830152602482018690529091169063a9059cbb90604401602060405180830381600087803b158015610d6b57600080fd5b505af1158015610d7f573d6000803e3d6000fd5b505050506040513d601f19601f82011682018060405250810190610da39190613009565b505b604080516001600160a01b0383168152602081018590527f2f874f9b35a653e61365e8de37b7a2293b82a7d06dd79a30025f33ff342a1c73910160405180910390a15080610df281613ba3565b915050610b9d565b505b5050505b60005b84606001515181101561107857600085604001515160011415610f12578560400151600081518110610e4557634e487b7160e01b600052603260045260246000fd5b602002602001015186608001518381518110610e7157634e487b7160e01b600052603260045260246000fd5b60200260200101511415610ec457610ebd8660a001518381518110610ea657634e487b7160e01b600052603260045260246000fd5b602002602001015184611e6190919063ffffffff16565b905061103d565b610f068660a001518381518110610eeb57634e487b7160e01b600052603260045260246000fd5b60200260200101518960200151611e6190919063ffffffff16565b610ebd90600019613a89565b8560400151516002141561103d578560400151600081518110610f4557634e487b7160e01b600052603260045260246000fd5b602002602001015186608001518381518110610f7157634e487b7160e01b600052603260045260246000fd5b60200260200101511480610fdb57508560400151600181518110610fa557634e487b7160e01b600052603260045260246000fd5b602002602001015186608001518381518110610fd157634e487b7160e01b600052603260045260246000fd5b6020026020010151145b1561100757610ebd8660a001518381518110610ea657634e487b7160e01b600052603260045260246000fd5b61102e8660a001518381518110610eeb57634e487b7160e01b600052603260045260246000fd5b61103a90600019613a89565b90505b6001600160a01b038a16600090815260066020908152604082208054600181018255908352912001558061107081613ba3565b915050610e03565b5061108288611e74565b5061108e8b848661226e565b6001600160a01b03881660009081526006602052604081206110af91612cc1565b5050506001600160a01b039094166000908152600760209081526040808320839055600890915281205550600194505050506000600b826040516110f3919061355c565b908152604051908190036020019020805491151560ff1990921691909117905550919050565b6001546060906001600160a01b031633146111465760405162461bcd60e51b815260040161038e9061389c565b6001546001600160a01b031633146111bd5760405162461bcd60e51b815260206004820152603460248201527f4f6e6c7920636f6e7472616374206f776e657220697320616c6c6f7765642074604482015273379031b0b636103a3434b990333ab731ba34b7b760611b606482015260840161038e565b60007f00000000000000000000000000000000000000000000000000000000000000006001600160a01b0316635abca103308f8f8f8f8f8f8f8f8f8f8f6040518d63ffffffff1660e01b81526004016112219c9b9a99989796959493929190613578565b60206040518083038186803b15801561123957600080fd5b505afa15801561124d573d6000803e3d6000fd5b505050506040513d601f19601f820116820180604052508101906112719190612ef1565b90506001600160a01b038116611338577f00000000000000000000000000000000000000000000000000000000000000006001600160a01b0316634627572f308f8f8f8f8f8f8f8f8f8f8f6040518d63ffffffff1660e01b81526004016112e39c9b9a99989796959493929190613578565b602060405180830381600087803b1580156112fd57600080fd5b505af1158015611311573d6000803e3d6000fd5b505050506040513d601f19601f820116820180604052508101906113359190612ef1565b90505b6000308e8e8e8e8e8e8e8e8e8e8e6040516020016113619c9b9a99989796959493929190613578565b6040516020818303038152906040528051906020012060001c905061138581612341565b925081600384604051611398919061355c565b908152604080516020928190038301902080546001600160a01b0319166001600160a01b039485161790559184166000908152600482529190912084516113e192860190612ce2565b5061140d604051806040016040528060098152602001683a30b136329034b99d60b91b8152508361245a565b611442604051806040016040528060138152602001727461626c652068617368537472696e6720697360681b8152508461249f565b7ffeadb03e5864c7ba3800506584c86f9177a7d4a3547a3db6021574c3a678b3d1836040516114719190613619565b60405180910390a150509b9a5050505050505050505050565b6001546000906001600160a01b031633146114b75760405162461bcd60e51b815260040161038e9061389c565b60006003846040516114c9919061355c565b908152604051908190036020019020546001600160a01b03169050806115015760405162461bcd60e51b815260040161038e90613865565b6040516351fddd5760e11b81526001600160a01b03848116600483015282919082169063a3fbbaae90602401602060405180830381600087803b15801561154757600080fd5b505af115801561155b573d6000803e3d6000fd5b505050506040513d601f19601f8201168201806040525081019061157f9190613009565b95945050505050565b6001546001600160a01b031633146115b25760405162461bcd60e51b815260040161038e9061389c565b60006003836040516115c4919061355c565b908152604051908190036020019020546001600160a01b03169050806116435760405162461bcd60e51b815260206004820152602e60248201527f4e6f207461626c6520776974682074686520686173682c20706c65617365206360448201526d6865636b2074686520686173682160901b606482015260840161038e565b6001600160a01b039081166000908152600a6020818152604092839020855181549086166001600160a01b0319918216178255918601516001820155928501516002840155606085015160038401556080850151600484015560a0850151600584015560c0850151600684015560e085015160078401556101008501516008840180549190951691161790925561012083015160098201556101409092015191015550565b6000806003836040516116fb919061355c565b908152604051908190036020019020546001600160a01b031690508061177a5760405162461bcd60e51b815260206004820152602e60248201527f6e6f207461626c6520776974682074686520686173682c20706c65617365206360448201526d6865636b2074686520686173682160901b606482015260840161038e565b6001600160a01b03811660009081526007602052604090205480158015906117a25750804310155b1561180e5760405162461bcd60e51b815260206004820152603660248201527f6172726976656420636f6f6c20646f776e2074696d6520626c6f636b2c2063616044820152756e206e6f74206a6f696e207468697320726f756e642160501b606482015260840161038e565b336000818152600260209081526040918290205482516080810184529384529083018990528282018890526001600160a01b0390811660608401819052915163796ab25d60e01b815291928592909183169063796ab25d906118749084906004016138d3565b600060405180830381600087803b15801561188e57600080fd5b505af11580156118a2573d6000803e3d6000fd5b505050506000826001600160a01b0316635f2d82ea6040518163ffffffff1660e01b81526004016101606040518083038186803b1580156118e257600080fd5b505afa1580156118f6573d6000803e3d6000fd5b505050506040513d601f19601f8201168201806040525081019061191a919061338b565b90506119278a82886124e4565b7f08b584e6aceb13e620c46e9d7288284e3b3a1c9dce5ca8e843559f5c4c8456a7338b8b8b60405161195c94939291906135e2565b60405180910390a15060019998505050505050505050565b6001546000906001600160a01b031633146119a15760405162461bcd60e51b815260040161038e9061389c565b60006003836040516119b3919061355c565b908152604051908190036020019020546001600160a01b03169050806119eb5760405162461bcd60e51b815260040161038e90613865565b439150611a1c6040518060400160405280600c81526020016b313637b1b597373ab6b132b960a11b81525083611e18565b6001600160a01b0381166000818152600760209081526040808320869055600890915280822042908190558151632f96c17560e11b8152915190938593929091635f2d82ea9160048082019261016092909190829003018186803b158015611a8357600080fd5b505afa158015611a97573d6000803e3d6000fd5b505050506040513d601f19601f82011682018060405250810190611abb919061338b565b9050611ac78185612a8f565b7fa69882baf66ab5e3584e5e8a7132a5d8f524b440db857ffdfa994cdabd944fee868642604051611afa93929190613735565b60405180910390a150505050919050565b6001546000906001600160a01b03163314611b385760405162461bcd60e51b815260040161038e9061389c565b50600180546001600160a01b0319166001600160a01b039290921691909117815590565b6060600060608060606000600387604051611b77919061355c565b908152604051908190036020019020546001600160a01b0316905080611baf5760405162461bcd60e51b815260040161038e90613865565b60008190506000816001600160a01b03166384bc76a66040518163ffffffff1660e01b815260040160006040518083038186803b158015611bef57600080fd5b505afa158015611c03573d6000803e3d6000fd5b505050506040513d6000823e601f3d908101601f19168201604052611c2b919081019061317e565b90506000826001600160a01b03166347e405536040518163ffffffff1660e01b815260040160206040518083038186803b158015611c6857600080fd5b505afa158015611c7c573d6000803e3d6000fd5b505050506040513d601f19601f82011682018060405250810190611ca09190613427565b825160208401516040909401519b9c919b909a5092985091965090945050505050565b6000806000600384604051611cd8919061355c565b908152604051908190036020019020546001600160a01b0316905080611d105760405162461bcd60e51b815260040161038e90613865565b6001600160a01b03166000908152600760209081526040808320546008909252909120549094909350915050565b611d8784848484604051602401611d58949392919061375a565b60408051601f198184030181529190526020810180516001600160e01b03166304772b3360e11b179052612c35565b50505050565b611dd4838383604051602401611da593929190613735565b60408051601f198184030181529190526020810180516001600160e01b031663969cdd0360e01b179052612c35565b505050565b60008082611dec57506000905080611e11565b6001838581611e0b57634e487b7160e01b600052601260045260246000fd5b04915091505b9250929050565b611e5d8282604051602401611e2e9291906136b4565b60408051601f198184030181529190526020810180516001600160e01b03166309710a9d60e41b179052612c35565b5050565b6000611e6d8284613b0c565b9392505050565b6001600160a01b038082166000908152600a60208181526040808420815161016081018352815487168082526001830154948201949094526002820154928101929092526003810154606083015260048101546080830152600581015460a0830152600681015460c0830152600781015460e08301526008810154909516610100820152600985015461012082015293909101546101408401529091901561225f576001600160a01b03831660009081526004602052604081208054611f3990613b6e565b80601f0160208091040260200160405190810160405280929190818152602001828054611f6590613b6e565b8015611fb25780601f10611f8757610100808354040283529160200191611fb2565b820191906000526020600020905b815481529060010190602001808311611f9557829003601f168201915b5050604051632498155360e11b815293945087936001600160a01b03851693506349302aa69250611fe89150869060040161390a565b600060405180830381600087803b15801561200257600080fd5b505af1158015612016573d6000803e3d6000fd5b505050506000836000015184602001518560400151866060015187608001518860a001518960c001518a60e001518b61010001518c61012001518d61014001516040516020016120cc9b9a999897969594939291906001600160a01b039b8c168152602081019a909a5260408a01989098526060890196909652608088019490945260a087019290925260c086015260e08501529093166101008301526101208201929092526101408101919091526101600190565b6040516020818303038152906040528051906020012060001c90508560036120f383612341565b604051612100919061355c565b90815260405190819003602001902080546001600160a01b03929092166001600160a01b031990921691909117905561213881612341565b6001600160a01b038716600090815260046020908152604090912082516121659391929190910190612ce2565b506001600160a01b0386166000908152600a6020818152604080842080546001600160a01b0319908116825560018201869055600282018690556003820186905560048201869055600582018690556006820186905560078201869055600882018054909116905560098101859055909201929092558051808201909152600d81526c3132b337b932961030b33a32b960991b91810191909152612212908461220d84612341565b612c56565b7fe3e57a24b8f74d2723608b23c0f9b294b5919b85093bade5338255ac2f9035568361223d83612341565b60405161224b929190613656565b60405180910390a150600195945050505050565b50600092915050565b50919050565b6000600384604051612280919061355c565b908152602001604051809103902060009054906101000a90046001600160a01b031690507f14c0d665d866f702a08cdad8cd5c5ea522326c52f51978b26f65d54944928ab584836000015185856020015186604001518760e00151886101000151600660008a6001600160a01b03166001600160a01b031681526020019081526020016000208a606001518b608001518c60a001518d61012001516040516123339c9b9a99989796959493929190613789565b60405180910390a150505050565b6060816123655750506040805180820190915260018152600360fc1b602082015290565b8160005b811561238f578061237981613ba3565b91506123889050600a83613a75565b9150612369565b6000816001600160401b038111156123b757634e487b7160e01b600052604160045260246000fd5b6040519080825280601f01601f1916602001820160405280156123e1576020820181803683370190505b5090505b841561040e576123f6600183613b2b565b9150612403600a86613bbe565b61240e906030613a5d565b60f81b81838151811061243157634e487b7160e01b600052603260045260246000fd5b60200101906001600160f81b031916908160001a905350612453600a86613a75565b94506123e5565b611e5d828260405160240161247092919061362c565b60408051601f198184030181529190526020810180516001600160e01b031663319af33360e01b179052612c35565b611e5d82826040516024016124b5929190613656565b60408051601f198184030181529190526020810180516001600160e01b0316634b5c427760e01b179052612c35565b60006124fd836020015185611e6190919063ffffffff16565b6000546040516323b872dd60e01b8152336004820152306024820152604481018390529192506001600160a01b0316906323b872dd90606401602060405180830381600087803b15801561255057600080fd5b505af1158015612564573d6000803e3d6000fd5b505050506040513d601f19601f820116820180604052508101906125889190613009565b506001600160a01b038216600090815260056020526040812080548392906125b1908490613a5d565b909155505060c0830151156128bf5760c08301516000906125de906125d884612710612c9d565b90611e61565b6001600160a01b03841660009081526005602052604090205490915081111561265d5760405162461bcd60e51b815260206004820152602b60248201527f5461626c6520706f6f6c206e6f7420656e6f75676820666f722062616e6b657260448201526a436f6d6d697373696f6e2160a81b606482015260840161038e565b6001600160a01b03831660009081526005602052604081208054839290612685908490613b2b565b909155505060005461010085015160405163a9059cbb60e01b81526001600160a01b0391821660048201526024810184905291169063a9059cbb90604401602060405180830381600087803b1580156126dd57600080fd5b505af11580156126f1573d6000803e3d6000fd5b505050506040513d601f19601f820116820180604052508101906127159190613009565b50610100840151604080513381526001600160a01b03909216602083015281018290527fda5163f4fef80ed29382eca50bb83c0bd880a912e0ad6adf0d4389fa62481a639060600160405180910390a1610140840151156128bd57610140840151600090612789906125d884612710612c9d565b6001600160a01b0385166000908152600560205260409020549091508111156128095760405162461bcd60e51b815260206004820152602c60248201527f5461626c6520706f6f6c206e6f7420656e6f75676820666f72206a61636b706f60448201526b74436f6d6d697373696f6e2160a01b606482015260840161038e565b6001600160a01b03841660009081526005602052604081208054839290612831908490613b2b565b90915550506001600160a01b0384166000908152600960205260408120805483929061285e908490613a5d565b90915550506001600160a01b0384166000908152600960209081526040918290205482513381529182018490528183015290517ff864fe483b7edde37b34a983ba165cd5b188c5a8bbe3b5bfa25cdc2baf346a1a9181900360600190a1505b505b336000908152600260205260409020546001600160a01b031680158015906128eb575060008460e00151115b15612a885760e0840151600090612908906125d885612710612c9d565b6001600160a01b0385166000908152600560205260409020549091508111156129895760405162461bcd60e51b815260206004820152602d60248201527f5461626c6520706f6f6c206e6f7420656e6f75676820666f722072656665727260448201526c616c436f6d6d697373696f6e2160981b606482015260840161038e565b6001600160a01b038416600090815260056020526040812080548392906129b1908490613b2b565b909155505060005460405163a9059cbb60e01b81526001600160a01b038481166004830152602482018490529091169063a9059cbb90604401602060405180830381600087803b158015612a0457600080fd5b505af1158015612a18573d6000803e3d6000fd5b505050506040513d601f19601f82011682018060405250810190612a3c9190613009565b50604080513381526001600160a01b03841660208201529081018290527fa97b13b2cce63d44be7b27fdf4d8e0c49f255b8b0a19f07ce2881ba924118f829060600160405180910390a1505b5050505050565b60008190506000816001600160a01b031663efa1c4826040518163ffffffff1660e01b815260040160006040518083038186803b158015612acf57600080fd5b505afa158015612ae3573d6000803e3d6000fd5b505050506040513d6000823e601f3d908101601f19168201604052612b0b9190810190612fd7565b8051604086015191925090811015612a88576040850151600090612b2f9083612ca9565b905060005b81811015612c2c576000612b83600a612b7d8460408051426020808301919091524482840152606080830194909452825180830390940184526080909101909152815191012090565b90612cb5565b604080516080810182526001600160a01b0380861682526001602083015281830184905260006060830152915163796ab25d60e01b81529293508492909189169063796ab25d90612bd89084906004016138d3565b600060405180830381600087803b158015612bf257600080fd5b505af1158015612c06573d6000803e3d6000fd5b50505050612c1660018b8b6124e4565b5050508080612c2490613ba3565b915050612b34565b50505050505050565b80516a636f6e736f6c652e6c6f67602083016000808483855afa5050505050565b611dd4838383604051602401612c6e9392919061367b565b60408051601f198184030181529190526020810180516001600160e01b0316632ced7cef60e01b179052612c35565b6000611e6d8284613a75565b6000611e6d8284613b2b565b6000611e6d8284613bbe565b5080546000825590600052602060002090810190612cdf9190612d66565b50565b828054612cee90613b6e565b90600052602060002090601f016020900481019282612d105760008555612d56565b82601f10612d2957805160ff1916838001178555612d56565b82800160010185558215612d56579182015b82811115612d56578251825591602001919060010190612d3b565b50612d62929150612d66565b5090565b5b80821115612d625760008155600101612d67565b8035612d8681613c14565b919050565b8051612d8681613c14565b600082601f830112612da6578081fd5b81516020612dbb612db683613a3a565b613a0a565b80838252828201915082860187848660051b8901011115612dda578586fd5b855b85811015612e01578151612def81613c14565b84529284019290840190600101612ddc565b5090979650505050505050565b600082601f830112612e1e578081fd5b81516020612e2e612db683613a3a565b80838252828201915082860187848660051b8901011115612e4d578586fd5b855b85811015612e0157815184529284019290840190600101612e4f565b600082601f830112612e7b578081fd5b81356001600160401b03811115612e9457612e94613bfe565b612ea7601f8201601f1916602001613a0a565b818152846020838601011115612ebb578283fd5b816020850160208301379081016020019190915292915050565b600060208284031215612ee6578081fd5b8135611e6d81613c14565b600060208284031215612f02578081fd5b8151611e6d81613c14565b60008060408385031215612f1f578081fd5b8235612f2a81613c14565b91506020830135612f3a81613c14565b809150509250929050565b60008060008060008060008060008060006101608c8e031215612f66578687fd5b8b35612f7181613c14565b9a5060208c0135995060408c0135985060608c0135975060808c0135965060a08c0135955060c08c0135945060e08c013593506101008c0135612fb381613c14565b809350506101208c013591506101408c013590509295989b509295989b9093969950565b600060208284031215612fe8578081fd5b81516001600160401b03811115612ffd578182fd5b61040e84828501612d96565b60006020828403121561301a578081fd5b81518015158114611e6d578182fd5b60006020828403121561303a578081fd5b81356001600160401b0381111561304f578182fd5b61040e84828501612e6b565b6000806040838503121561306d578182fd5b82356001600160401b03811115613082578283fd5b61308e85828601612e6b565b9250506020830135612f3a81613c14565b6000808284036101808112156130b3578283fd5b83356001600160401b038111156130c8578384fd5b6130d486828701612e6b565b93505061016080601f19830112156130ea578283fd5b6130f261399c565b915061310060208601612d7b565b825260408501356020830152606085013560408301526080850135606083015260a0850135608083015260c085013560a083015260e085013560c08301526101008086013560e0840152610120613158818801612d7b565b918401919091526101408681013591840191909152940135938101939093525092909150565b60006020828403121561318f578081fd5b81516001600160401b03808211156131a5578283fd5b90830190606082860312156131b8578283fd5b6131c06139c5565b8251828111156131ce578485fd5b6131da87828601612d96565b8252506020830151828111156131ee578485fd5b6131fa87828601612e0e565b602083015250604083015182811115613211578485fd5b61321d87828601612e0e565b60408301525095945050505050565b60006020828403121561323d578081fd5b81516001600160401b0380821115613253578283fd5b908301906101408286031215613267578283fd5b61326f6139e7565b825181526020830151602082015260408301518281111561328e578485fd5b61329a87828601612e0e565b6040830152506060830151828111156132b1578485fd5b6132bd87828601612d96565b6060830152506080830151828111156132d4578485fd5b6132e087828601612e0e565b60808301525060a0830151828111156132f7578485fd5b61330387828601612e0e565b60a08301525060c083015160c082015260e083015182811115613324578485fd5b61333087828601612d96565b60e0830152506101008084015183811115613349578586fd5b61335588828701612e0e565b828401525050610120808401518381111561336e578586fd5b61337a88828701612d96565b918301919091525095945050505050565b6000610160828403121561339d578081fd5b6133a561399c565b6133ae83612d8b565b81526020830151602082015260408301516040820152606083015160608201526080830151608082015260a083015160a082015260c083015160c082015260e083015160e0820152610100613404818501612d8b565b908201526101208381015190820152610140928301519281019290925250919050565b600060208284031215613438578081fd5b5051919050565b600080600060608486031215613453578081fd5b833592506020840135915060408401356001600160401b03811115613476578182fd5b61348286828701612e6b565b9150509250925092565b6000815180845260208085019450808401835b838110156134c45781516001600160a01b03168752958201959082019060010161349f565b509495945050505050565b6000815480845260208085019450838352808320835b838110156134c4578154875295820195600191820191016134e5565b6000815180845260208085019450808401835b838110156134c457815187529582019590820190600101613514565b60008151808452613548816020860160208601613b42565b601f01601f19169290920160200192915050565b6000825161356e818460208701613b42565b9190910192915050565b6001600160a01b039c8d1681529a8c1660208c015260408b019990995260608a0197909752608089019590955260a088019390935260c087019190915260e08601526101008501529093166101208301526101408201929092526101608101919091526101800190565b60018060a01b038516815283602082015282604082015260806060820152600061360f6080830184613530565b9695505050505050565b602081526000611e6d6020830184613530565b60408152600061363f6040830185613530565b905060018060a01b03831660208301529392505050565b6040815260006136696040830185613530565b828103602084015261157f8185613530565b60608152600061368e6060830186613530565b82810360208401526136a08186613530565b9050828103604084015261360f8185613530565b6040815260006136c76040830185613530565b90508260208301529392505050565b60a0815260006136e960a0830188613530565b8660208401528281036040840152613701818761348c565b905082810360608401526137158186613501565b905082810360808401526137298185613501565b98975050505050505050565b6060815260006137486060830186613530565b60208301949094525060400152919050565b60808152600061376d6080830187613530565b6020830195909552506040810192909252606090910152919050565b6101808152600061379e61018083018f613530565b8d60208401528c60408401528b606084015282810360808401526137c2818c613501565b905082810360a08401526137d6818b61348c565b905082810360c08401526137ea818a613501565b905082810360e08401526137fe81896134cf565b9050828103610100840152613813818861348c565b90508281036101208401526138288187613501565b905082810361014084015261383d8186613501565b9050828103610160840152613852818561348c565b9f9e505050505050505050505050505050565b60208082526019908201527f706c6561736520636865636b2074686520616464726573732100000000000000604082015260600190565b6020808252601b908201527f6d73672e73656e646572206973206e6f7420746865206f776e65720000000000604082015260600190565b81516001600160a01b0390811682526020808401519083015260408084015190830152606092830151169181019190915260800190565b81516001600160a01b0316815261016081016020830151602083015260408301516040830152606083015160608301526080830151608083015260a083015160a083015260c083015160c083015260e083015160e08301526101008084015161397d828501826001600160a01b03169052565b5050610120838101519083015261014092830151929091019190915290565b60405161016081016001600160401b03811182821017156139bf576139bf613bfe565b60405290565b604051606081016001600160401b03811182821017156139bf576139bf613bfe565b60405161014081016001600160401b03811182821017156139bf576139bf613bfe565b604051601f8201601f191681016001600160401b0381118282101715613a3257613a32613bfe565b604052919050565b60006001600160401b03821115613a5357613a53613bfe565b5060051b60200190565b60008219821115613a7057613a70613bd2565b500190565b600082613a8457613a84613be8565b500490565b60006001600160ff1b0381841382841380821686840486111615613aaf57613aaf613bd2565b600160ff1b84871282811687830589121615613acd57613acd613bd2565b858712925087820587128484161615613ae857613ae8613bd2565b87850587128184161615613afe57613afe613bd2565b505050929093029392505050565b6000816000190483118215151615613b2657613b26613bd2565b500290565b600082821015613b3d57613b3d613bd2565b500390565b60005b83811015613b5d578181015183820152602001613b45565b83811115611d875750506000910152565b600181811c90821680613b8257607f821691505b6020821081141561226857634e487b7160e01b600052602260045260246000fd5b6000600019821415613bb757613bb7613bd2565b5060010190565b600082613bcd57613bcd613be8565b500690565b634e487b7160e01b600052601160045260246000fd5b634e487b7160e01b600052601260045260246000fd5b634e487b7160e01b600052604160045260246000fd5b6001600160a01b0381168114612cdf57600080fdfe7461626c65506f6f6c5b7461626c65416464726573735d2c2077696e416d6f756e74706f6f6c416d6f756e742c20726f756e64526573756c742e77696e6e6572732e6c656e677468726f756e642c20726f756e644e756d6265722c20726f756e64526573756c742e77696e6e6572416c6c436f756e74726f756e64526573756c742e6a61636b706f7457696e6e6572732e6c656e677468a26469706673582212207f28df8017361cbc4a6e45cce051e63090d9dadf78f3f8ca317503a30c548c8764736f6c63430008040033",
  "linkReferences": {},
  "deployedLinkReferences": {}
}