{
  "_format": "hh-sol-artifact-1",
  "contractName": "LotteryManagerV3",
  "sourceName": "contracts/LotteryManagerV3.sol",
  "abi": [
    {
      "inputs": [
        {
          "internalType": "address",
          "name": "_factory",
          "type": "address"
        },
        {
          "internalType": "address",
          "name": "_tokenAddress",
          "type": "address"
        }
      ],
      "stateMutability": "nonpayable",
      "type": "constructor"
    },
    {
      "anonymous": false,
      "inputs": [
        {
          "indexed": false,
          "internalType": "address",
          "name": "player",
          "type": "address"
        },
        {
          "indexed": false,
          "internalType": "address",
          "name": "banker",
          "type": "address"
        },
        {
          "indexed": false,
          "internalType": "uint256",
          "name": "amount",
          "type": "uint256"
        }
      ],
      "name": "BankerCommission",
      "type": "event"
    },
    {
      "anonymous": false,
      "inputs": [
        {
          "indexed": false,
          "internalType": "string",
          "name": "hash",
          "type": "string"
        }
      ],
      "name": "CreateTableIfNecessary",
      "type": "event"
    },
    {
      "anonymous": false,
      "inputs": [
        {
          "indexed": false,
          "internalType": "string",
          "name": "beforeHash",
          "type": "string"
        },
        {
          "indexed": false,
          "internalType": "string",
          "name": "newHash",
          "type": "string"
        }
      ],
      "name": "EditTable",
      "type": "event"
    },
    {
      "anonymous": false,
      "inputs": [
        {
          "indexed": false,
          "internalType": "string",
          "name": "hash",
          "type": "string"
        },
        {
          "indexed": false,
          "internalType": "uint256",
          "name": "round",
          "type": "uint256"
        },
        {
          "indexed": false,
          "internalType": "address[]",
          "name": "players",
          "type": "address[]"
        },
        {
          "indexed": false,
          "internalType": "uint256[]",
          "name": "numbers",
          "type": "uint256[]"
        },
        {
          "indexed": false,
          "internalType": "uint256[]",
          "name": "counts",
          "type": "uint256[]"
        }
      ],
      "name": "HoldingTicket",
      "type": "event"
    },
    {
      "anonymous": false,
      "inputs": [
        {
          "indexed": false,
          "internalType": "address",
          "name": "player",
          "type": "address"
        },
        {
          "indexed": false,
          "internalType": "uint256",
          "name": "count",
          "type": "uint256"
        },
        {
          "indexed": false,
          "internalType": "uint256",
          "name": "number",
          "type": "uint256"
        },
        {
          "indexed": false,
          "internalType": "string",
          "name": "hash",
          "type": "string"
        }
      ],
      "name": "JoinTable",
      "type": "event"
    },
    {
      "anonymous": false,
      "inputs": [
        {
          "indexed": false,
          "internalType": "string",
          "name": "hash",
          "type": "string"
        },
        {
          "indexed": false,
          "internalType": "uint256",
          "name": "coolDownTimeBlock",
          "type": "uint256"
        }
      ],
      "name": "NotifyCoolDownTime",
      "type": "event"
    },
    {
      "anonymous": false,
      "inputs": [
        {
          "indexed": false,
          "internalType": "address",
          "name": "player",
          "type": "address"
        },
        {
          "indexed": false,
          "internalType": "address",
          "name": "refer",
          "type": "address"
        },
        {
          "indexed": false,
          "internalType": "uint256",
          "name": "amount",
          "type": "uint256"
        }
      ],
      "name": "ReferCommission",
      "type": "event"
    },
    {
      "anonymous": false,
      "inputs": [
        {
          "indexed": false,
          "internalType": "string",
          "name": "hash",
          "type": "string"
        },
        {
          "indexed": false,
          "internalType": "uint256",
          "name": "round",
          "type": "uint256"
        },
        {
          "indexed": false,
          "internalType": "uint256",
          "name": "poolAmount",
          "type": "uint256"
        },
        {
          "indexed": false,
          "internalType": "uint256",
          "name": "roundNumber",
          "type": "uint256"
        },
        {
          "indexed": false,
          "internalType": "uint256[]",
          "name": "prizeNumbers",
          "type": "uint256[]"
        },
        {
          "indexed": false,
          "internalType": "address[]",
          "name": "roundWinnerArray",
          "type": "address[]"
        },
        {
          "indexed": false,
          "internalType": "uint256[]",
          "name": "winnerCount",
          "type": "uint256[]"
        },
        {
          "indexed": false,
          "internalType": "int256[]",
          "name": "rewards",
          "type": "int256[]"
        },
        {
          "indexed": false,
          "internalType": "address[]",
          "name": "allPlayers",
          "type": "address[]"
        },
        {
          "indexed": false,
          "internalType": "uint256[]",
          "name": "numbers",
          "type": "uint256[]"
        },
        {
          "indexed": false,
          "internalType": "uint256[]",
          "name": "counts",
          "type": "uint256[]"
        }
      ],
      "name": "StartRound",
      "type": "event"
    },
    {
      "inputs": [
        {
          "internalType": "address",
          "name": "newOwner",
          "type": "address"
        }
      ],
      "name": "changeOwner",
      "outputs": [
        {
          "internalType": "bool",
          "name": "result",
          "type": "bool"
        }
      ],
      "stateMutability": "nonpayable",
      "type": "function"
    },
    {
      "inputs": [
        {
          "internalType": "string",
          "name": "hash",
          "type": "string"
        },
        {
          "internalType": "address",
          "name": "newManagerContract",
          "type": "address"
        }
      ],
      "name": "changeTableManager",
      "outputs": [
        {
          "internalType": "bool",
          "name": "result",
          "type": "bool"
        }
      ],
      "stateMutability": "nonpayable",
      "type": "function"
    },
    {
      "inputs": [
        {
          "internalType": "address",
          "name": "creator",
          "type": "address"
        },
        {
          "internalType": "uint256",
          "name": "amount",
          "type": "uint256"
        },
        {
          "internalType": "uint256",
          "name": "minPPL",
          "type": "uint256"
        },
        {
          "internalType": "uint256",
          "name": "maxPPL",
          "type": "uint256"
        },
        {
          "internalType": "uint256",
          "name": "coolDownTime",
          "type": "uint256"
        },
        {
          "internalType": "uint256",
          "name": "gameTime",
          "type": "uint256"
        },
        {
          "internalType": "uint256",
          "name": "bankerCommission",
          "type": "uint256"
        },
        {
          "internalType": "uint256",
          "name": "referralCommission",
          "type": "uint256"
        },
        {
          "internalType": "address",
          "name": "bankerWallet",
          "type": "address"
        },
        {
          "internalType": "uint256",
          "name": "delayBlock",
          "type": "uint256"
        }
      ],
      "name": "createTableIfNecessary",
      "outputs": [
        {
          "internalType": "string",
          "name": "hashString",
          "type": "string"
        }
      ],
      "stateMutability": "payable",
      "type": "function"
    },
    {
      "inputs": [
        {
          "internalType": "string",
          "name": "hashString",
          "type": "string"
        },
        {
          "components": [
            {
              "internalType": "address",
              "name": "creator",
              "type": "address"
            },
            {
              "internalType": "uint256",
              "name": "amount",
              "type": "uint256"
            },
            {
              "internalType": "uint256",
              "name": "minPPL",
              "type": "uint256"
            },
            {
              "internalType": "uint256",
              "name": "maxPPL",
              "type": "uint256"
            },
            {
              "internalType": "uint256",
              "name": "coolDownTime",
              "type": "uint256"
            },
            {
              "internalType": "uint256",
              "name": "gameTime",
              "type": "uint256"
            },
            {
              "internalType": "uint256",
              "name": "bankerCommission",
              "type": "uint256"
            },
            {
              "internalType": "uint256",
              "name": "referralCommission",
              "type": "uint256"
            },
            {
              "internalType": "address",
              "name": "bankerWallet",
              "type": "address"
            },
            {
              "internalType": "uint256",
              "name": "delayBlocks",
              "type": "uint256"
            }
          ],
          "internalType": "struct ILotteryTableV3.TableInfo",
          "name": "tableInfo",
          "type": "tuple"
        }
      ],
      "name": "editTable",
      "outputs": [],
      "stateMutability": "nonpayable",
      "type": "function"
    },
    {
      "inputs": [],
      "name": "factory",
      "outputs": [
        {
          "internalType": "address",
          "name": "",
          "type": "address"
        }
      ],
      "stateMutability": "view",
      "type": "function"
    },
    {
      "inputs": [
        {
          "internalType": "string",
          "name": "hash",
          "type": "string"
        }
      ],
      "name": "holdingTicket",
      "outputs": [
        {
          "internalType": "string",
          "name": "tableHash",
          "type": "string"
        },
        {
          "internalType": "uint256",
          "name": "round",
          "type": "uint256"
        },
        {
          "internalType": "address[]",
          "name": "players",
          "type": "address[]"
        },
        {
          "internalType": "uint256[]",
          "name": "numbers",
          "type": "uint256[]"
        },
        {
          "internalType": "uint256[]",
          "name": "counts",
          "type": "uint256[]"
        }
      ],
      "stateMutability": "view",
      "type": "function"
    },
    {
      "inputs": [
        {
          "internalType": "uint256",
          "name": "count",
          "type": "uint256"
        },
        {
          "internalType": "uint256",
          "name": "number",
          "type": "uint256"
        },
        {
          "internalType": "string",
          "name": "hash",
          "type": "string"
        }
      ],
      "name": "joinTableV2",
      "outputs": [
        {
          "internalType": "bool",
          "name": "result",
          "type": "bool"
        }
      ],
      "stateMutability": "payable",
      "type": "function"
    },
    {
      "inputs": [
        {
          "internalType": "string",
          "name": "hash",
          "type": "string"
        }
      ],
      "name": "notifyCoolDownTime",
      "outputs": [
        {
          "internalType": "uint256",
          "name": "coolDownTimeBlock",
          "type": "uint256"
        }
      ],
      "stateMutability": "nonpayable",
      "type": "function"
    },
    {
      "inputs": [],
      "name": "owner",
      "outputs": [
        {
          "internalType": "address",
          "name": "",
          "type": "address"
        }
      ],
      "stateMutability": "view",
      "type": "function"
    },
    {
      "inputs": [
        {
          "internalType": "address",
          "name": "a",
          "type": "address"
        },
        {
          "internalType": "address",
          "name": "b",
          "type": "address"
        }
      ],
      "name": "referral",
      "outputs": [
        {
          "internalType": "bool",
          "name": "result",
          "type": "bool"
        }
      ],
      "stateMutability": "nonpayable",
      "type": "function"
    },
    {
      "inputs": [
        {
          "internalType": "string",
          "name": "hash",
          "type": "string"
        }
      ],
      "name": "startRoundV2",
      "outputs": [
        {
          "internalType": "bool",
          "name": "",
          "type": "bool"
        }
      ],
      "stateMutability": "payable",
      "type": "function"
    }
  ],
  "bytecode": "0x60a06040523480156200001157600080fd5b50604051620034e2380380620034e2833981016040819052620000349162000097565b6001600160601b031960609290921b91909116608052600080546001600160a01b03929092166001600160a01b03199283161790556001805490911633179055620000ce565b80516001600160a01b03811681146200009257600080fd5b919050565b60008060408385031215620000aa578182fd5b620000b5836200007a565b9150620000c5602084016200007a565b90509250929050565b60805160601c6133e7620000fb600039600081816101f60152818161132701526113e701526133e76000f3fe60806040526004361061009c5760003560e01c80638da5cb5b116100645780638da5cb5b1461013e578063a4565dd714610176578063a6f9dae1146101a4578063b50c83bc146101c4578063c45a0155146101e4578063efc50bcc1461021857600080fd5b80631c505d1d146100a1578063225276c8146100d65780633818aa7d146100e957806338afd4c51461010b5780635433f1031461012b575b600080fd5b3480156100ad57600080fd5b506100c16100bc3660046126c9565b610249565b60405190151581526020015b60405180910390f35b6100c16100e43660046127da565b6102f6565b3480156100f557600080fd5b50610109610104366004612850565b610c4a565b005b34801561011757600080fd5b506100c161012636600461280c565b610da1565b6100c1610139366004612bb2565b610e9f565b34801561014a57600080fd5b5060015461015e906001600160a01b031681565b6040516001600160a01b0390911681526020016100cd565b34801561018257600080fd5b506101966101913660046127da565b61112b565b6040519081526020016100cd565b3480156101b057600080fd5b506100c16101bf366004612691565b61122e565b6101d76101d2366004612701565b61127f565b6040516100cd9190612d4e565b3480156101f057600080fd5b5061015e7f000000000000000000000000000000000000000000000000000000000000000081565b34801561022457600080fd5b506102386102333660046127da565b6115e9565b6040516100cd959493929190612e0b565b6001546000906001600160a01b0316331461027f5760405162461bcd60e51b815260040161027690612fbc565b60405180910390fd5b6001600160a01b03831661029257600080fd5b6001600160a01b0382166102a557600080fd5b816001600160a01b0316836001600160a01b031614156102c457600080fd5b506001600160a01b03918216600090815260026020526040902080546001600160a01b03191691909216179055600190565b6001546000906001600160a01b031633146103235760405162461bcd60e51b815260040161027690612fbc565b816009816040516103349190612c9d565b9081526040519081900360200190205460ff161561038b5760405162461bcd60e51b8152602060048201526014602482015273139bc81c994b595b9d1c985b98de481c9bdd5b9960621b6044820152606401610276565b600160098260405161039d9190612c9d565b908152604051908190036020018120805492151560ff19909316929092179091556000906003906103cf908690612c9d565b908152604051908190036020019020546001600160a01b03169050806104075760405162461bcd60e51b815260040161027690612f85565b60008190506000816001600160a01b0316635f2d82ea6040518163ffffffff1660e01b81526004016101406040518083038186803b15801561044857600080fd5b505afa15801561045c573d6000803e3d6000fd5b505050506040513d601f19601f820116820180604052508101906104809190612b09565b905061048c8184611750565b6001600160a01b038316600090815260076020526040902054806104f25760405162461bcd60e51b815260206004820152601760248201527f77726f6e6720636f6f6c446f776e54696d65426c6f636b0000000000000000006044820152606401610276565b6040516395805dad60e01b8152600481018290526000906001600160a01b038516906395805dad90602401600060405180830381600087803b15801561053757600080fd5b505af115801561054b573d6000803e3d6000fd5b505050506040513d6000823e601f3d908101601f1916820160405261057391908101906129cf565b90506105a26040518060600160405280602e8152602001613384602e91398251602084015160c08501516118f7565b600060056000876001600160a01b03166001600160a01b031681526020019081526020016000205490506105f460405180606001604052806026815260200161335e60269139828460e0015151611946565b60008061060e8460c001518461199290919063ffffffff16565b915091506106426040518060400160405280600e81526020016d1bdb99541a5958d954995dd85c9960921b815250826119d1565b60005b84606001515181101561075c57600085602001518660800151838151811061067d57634e487b7160e01b600052603260045260246000fd5b602002602001015114156106d0576106c98660a0015183815181106106b257634e487b7160e01b600052603260045260246000fd5b602002602001015184611a1a90919063ffffffff16565b9050610721565b6107128660a0015183815181106106f757634e487b7160e01b600052603260045260246000fd5b60200260200101518960200151611a1a90919063ffffffff16565b61071e9060001961319b565b90505b6001600160a01b038a166000908152600660209081526040822080546001810182559083529120015580610754816132b5565b915050610645565b5060e08401515161080c576001600160a01b038881166000908152600560205260408082208290559054610100890151915163a9059cbb60e01b81529183166004830152602482018690529091169063a9059cbb90604401602060405180830381600087803b1580156107ce57600080fd5b505af11580156107e2573d6000803e3d6000fd5b505050506040513d601f19601f8201168201806040525081019061080691906127ba565b50610aee565b60005b8460e0015151811015610aec5760008560e00151828151811061084257634e487b7160e01b600052603260045260246000fd5b602002602001015190506000866101000151838151811061087357634e487b7160e01b600052603260045260246000fd5b6020026020010151905060006108928286611a1a90919063ffffffff16565b90506108cf60405180606001604052806022815260200161333c602291396001600160a01b038e1660009081526005602052604090205483611946565b6001600160a01b038c166000908152600560205260409020548111156109435760405162461bcd60e51b8152602060048201526024808201527f7461626c6520706f6f6c206e6f7420656e6f75676820666f722077696e416d6f604482015263756e742160e01b6064820152608401610276565b6001600160a01b038c166000908152600560205260408120805483929061096b90849061323d565b9091555050633b9aca006001600160a01b0384161015610a4e576109c46040518060400160405280601a81526020017f77696e6e657220697320726f626f742c2077696e416d6f756e74000000000000815250826119d1565b60005460405163a9059cbb60e01b8152336004820152602481018390526001600160a01b039091169063a9059cbb90604401602060405180830381600087803b158015610a1057600080fd5b505af1158015610a24573d6000803e3d6000fd5b505050506040513d601f19601f82011682018060405250810190610a4891906127ba565b50610ad6565b60005460405163a9059cbb60e01b81526001600160a01b038581166004830152602482018490529091169063a9059cbb90604401602060405180830381600087803b158015610a9c57600080fd5b505af1158015610ab0573d6000803e3d6000fd5b505050506040513d601f19601f82011682018060405250810190610ad491906127ba565b505b5050508080610ae4906132b5565b91505061080f565b505b610af788611a2d565b506001600160a01b038816600090815260066020908152604080832080548251818502810185019093528083529192909190830182828015610b5857602002820191906000526020600020905b815481526020019060010190808311610b44575b505050505090507f8daddefa871dbbbd880b6b7c86b38d78ca26fc0f0ffa33d9b36d03d1bf3580528c866000015186886020015189604001518a60e001518b6101000151888d606001518e608001518f60a00151604051610bc39b9a99989796959493929190612ebe565b60405180910390a1506001600160a01b0388166000908152600660205260408120610bed9161247d565b5050506001600160a01b0390941660009081526007602052604081205550600194505050506000600982604051610c249190612c9d565b908152604051908190036020019020805491151560ff1990921691909117905550919050565b6001546001600160a01b03163314610c745760405162461bcd60e51b815260040161027690612fbc565b6000600383604051610c869190612c9d565b908152604051908190036020019020546001600160a01b0316905080610d055760405162461bcd60e51b815260206004820152602e60248201527f4e6f207461626c6520776974682074686520686173682c20706c65617365206360448201526d6865636b2074686520686173682160901b6064820152608401610276565b6001600160a01b03908116600090815260086020818152604092839020855181549086166001600160a01b0319918216178255918601516001820155928501516002840155606085015160038401556080850151600484015560a0850151600584015560c0850151600684015560e085015160078401556101008501519183018054929094169116179091556101209091015160099091015550565b6001546000906001600160a01b03163314610dce5760405162461bcd60e51b815260040161027690612fbc565b6000600384604051610de09190612c9d565b908152604051908190036020019020546001600160a01b0316905080610e185760405162461bcd60e51b815260040161027690612f85565b6040516351fddd5760e11b81526001600160a01b03848116600483015282919082169063a3fbbaae90602401602060405180830381600087803b158015610e5e57600080fd5b505af1158015610e72573d6000803e3d6000fd5b505050506040513d601f19601f82011682018060405250810190610e9691906127ba565b95945050505050565b600080600383604051610eb29190612c9d565b908152604051908190036020019020546001600160a01b0316905080610f315760405162461bcd60e51b815260206004820152602e60248201527f6e6f207461626c6520776974682074686520686173682c20706c65617365206360448201526d6865636b2074686520686173682160901b6064820152608401610276565b6001600160a01b0381166000908152600760205260409020548015801590610f595750804310155b15610fc55760405162461bcd60e51b815260206004820152603660248201527f6172726976656420636f6f6c20646f776e2074696d6520626c6f636b2c2063616044820152756e206e6f74206a6f696e207468697320726f756e642160501b6064820152608401610276565b336000818152600260209081526040918290205482516080810184529384529083018990528282018890526001600160a01b0390811660608401819052915163796ab25d60e01b815291928592909183169063796ab25d9061102b908490600401612ff3565b600060405180830381600087803b15801561104557600080fd5b505af1158015611059573d6000803e3d6000fd5b505050506000826001600160a01b0316635f2d82ea6040518163ffffffff1660e01b81526004016101406040518083038186803b15801561109957600080fd5b505afa1580156110ad573d6000803e3d6000fd5b505050506040513d601f19601f820116820180604052508101906110d19190612b09565b90506110de8a8288611df4565b7f08b584e6aceb13e620c46e9d7288284e3b3a1c9dce5ca8e843559f5c4c8456a7338b8b8b6040516111139493929190612d17565b60405180910390a15060019998505050505050505050565b6001546000906001600160a01b031633146111585760405162461bcd60e51b815260040161027690612fbc565b600060038360405161116a9190612c9d565b908152604051908190036020019020546001600160a01b03169050806111a25760405162461bcd60e51b815260040161027690612f85565b4391506111d36040518060400160405280600c81526020016b313637b1b597373ab6b132b960a11b815250836119d1565b6001600160a01b03811660009081526007602052604090819020839055517f4111df418e4a017af3de89230fd3d337d19dd7c9da1a78a2e80a0f0eaedb8606906112209085908590612de9565b60405180910390a150919050565b6001546000906001600160a01b0316331461125b5760405162461bcd60e51b815260040161027690612fbc565b50600180546001600160a01b0319166001600160a01b039290921691909117815590565b6001546060906001600160a01b031633146112ac5760405162461bcd60e51b815260040161027690612fbc565b6001546001600160a01b031633146113235760405162461bcd60e51b815260206004820152603460248201527f4f6e6c7920636f6e7472616374206f776e657220697320616c6c6f7765642074604482015273379031b0b636103a3434b990333ab731ba34b7b760611b6064820152608401610276565b60007f00000000000000000000000000000000000000000000000000000000000000006001600160a01b031663b6147fbc308e8e8e8e8e8e8e8e8e8e6040518c63ffffffff1660e01b81526004016113859b9a99989796959493929190612cb9565b60206040518083038186803b15801561139d57600080fd5b505afa1580156113b1573d6000803e3d6000fd5b505050506040513d601f19601f820116820180604052508101906113d591906126ad565b90506001600160a01b03811661149a577f00000000000000000000000000000000000000000000000000000000000000006001600160a01b031663447c9d04308e8e8e8e8e8e8e8e8e8e6040518c63ffffffff1660e01b81526004016114459b9a99989796959493929190612cb9565b602060405180830381600087803b15801561145f57600080fd5b505af1158015611473573d6000803e3d6000fd5b505050506040513d601f19601f8201168201806040525081019061149791906126ad565b90505b6000308d8d8d8d8d8d8d8d8d8d6040516020016114c19b9a99989796959493929190612cb9565b6040516020818303038152906040528051906020012060001c90506114e581612246565b9250816003846040516114f89190612c9d565b908152604080516020928190038301902080546001600160a01b0319166001600160a01b039485161790559184166000908152600482529190912084516115419286019061249e565b5061156d604051806040016040528060098152602001683a30b136329034b99d60b91b81525083612367565b6115a2604051806040016040528060138152602001727461626c652068617368537472696e6720697360681b815250846123ac565b7ffeadb03e5864c7ba3800506584c86f9177a7d4a3547a3db6021574c3a678b3d1836040516115d19190612d4e565b60405180910390a150509a9950505050505050505050565b60606000606080606060006003876040516116049190612c9d565b908152604051908190036020019020546001600160a01b031690508061163c5760405162461bcd60e51b815260040161027690612f85565b60008190506000816001600160a01b03166384bc76a66040518163ffffffff1660e01b815260040160006040518083038186803b15801561167c57600080fd5b505afa158015611690573d6000803e3d6000fd5b505050506040513d6000823e601f3d908101601f191682016040526116b89190810190612921565b90506000826001600160a01b03166347e405536040518163ffffffff1660e01b815260040160206040518083038186803b1580156116f557600080fd5b505afa158015611709573d6000803e3d6000fd5b505050506040513d601f19601f8201168201806040525081019061172d9190612b9a565b825160208401516040909401519b9c919b909a5092985091965090945050505050565b60008190506000816001600160a01b031663efa1c4826040518163ffffffff1660e01b815260040160006040518083038186803b15801561179057600080fd5b505afa1580156117a4573d6000803e3d6000fd5b505050506040513d6000823e601f3d908101601f191682016040526117cc9190810190612788565b80516040860151919250908110156118f05760408501516000906117f090836123f1565b905060005b818110156118ed576000611844600a61183e8460408051426020808301919091524482840152606080830194909452825180830390940184526080909101909152815191012090565b906123fd565b604080516080810182526001600160a01b0380861682526001602083015281830184905260006060830152915163796ab25d60e01b81529293508492909189169063796ab25d90611899908490600401612ff3565b600060405180830381600087803b1580156118b357600080fd5b505af11580156118c7573d6000803e3d6000fd5b505050506118d760018b8b611df4565b50505080806118e5906132b5565b9150506117f5565b50505b5050505050565b611940848484846040516024016119119493929190612e8f565b60408051601f198184030181529190526020810180516001600160e01b03166304772b3360e11b179052612409565b50505050565b61198d83838360405160240161195e93929190612e6a565b60408051601f198184030181529190526020810180516001600160e01b031663969cdd0360e01b179052612409565b505050565b600080826119a5575060009050806119ca565b60018385816119c457634e487b7160e01b600052601260045260246000fd5b04915091505b9250929050565b611a1682826040516024016119e7929190612de9565b60408051601f198184030181529190526020810180516001600160e01b03166309710a9d60e41b179052612409565b5050565b6000611a26828461321e565b9392505050565b6001600160a01b038082166000908152600860208181526040808420815161014081018352815487168082526001830154948201949094526002820154928101929092526003810154606083015260048101546080830152600581015460a0830152600681015460c0830152600781015460e08301529283015490941661010085015260099091015461012084015290919015611de5576001600160a01b03831660009081526004602052604081208054611ae790613280565b80601f0160208091040260200160405190810160405280929190818152602001828054611b1390613280565b8015611b605780601f10611b3557610100808354040283529160200191611b60565b820191906000526020600020905b815481529060010190602001808311611b4357829003601f168201915b505060405163cbddd8a960e01b815293945087936001600160a01b038516935063cbddd8a99250611b969150869060040161302a565b600060405180830381600087803b158015611bb057600080fd5b505af1158015611bc4573d6000803e3d6000fd5b505050506000836000015184602001518560400151866060015187608001518860a001518960c001518a60e001518b6101000151604051602001611c57999897969594939291906001600160a01b03998a168152602081019890985260408801969096526060870194909452608086019290925260a085015260c084015260e08301529091166101008201526101200190565b6040516020818303038152906040528051906020012060001c9050856003611c7e83612246565b604051611c8b9190612c9d565b90815260405190819003602001902080546001600160a01b03929092166001600160a01b0319909216919091179055611cc381612246565b6001600160a01b03871660009081526004602090815260409091208251611cf0939192919091019061249e565b506001600160a01b038616600090815260086020818152604080842080546001600160a01b031990811682556001820186905560028201869055600382018690556004820186905560058201869055600682018690556007820186905593810180549094169093556009909201929092558051808201909152600d81526c3132b337b932961030b33a32b960991b91810191909152611d989084611d9384612246565b61242a565b7fe3e57a24b8f74d2723608b23c0f9b294b5919b85093bade5338255ac2f90355683611dc383612246565b604051611dd1929190612d8b565b60405180910390a150600195945050505050565b50600092915050565b50919050565b6000611e0d836020015185611a1a90919063ffffffff16565b6000546040516323b872dd60e01b8152336004820152306024820152604481018390529192506001600160a01b0316906323b872dd90606401602060405180830381600087803b158015611e6057600080fd5b505af1158015611e74573d6000803e3d6000fd5b505050506040513d601f19601f82011682018060405250810190611e9891906127ba565b506001600160a01b03821660009081526005602052604081208054839290611ec190849061316f565b909155505060c0830151156120775760c0830151600090611eee90611ee884612710612471565b90611a1a565b6001600160a01b038416600090815260056020526040902054909150811115611f6d5760405162461bcd60e51b815260206004820152602b60248201527f5461626c6520706f6f6c206e6f7420656e6f75676820666f722062616e6b657260448201526a436f6d6d697373696f6e2160a81b6064820152608401610276565b6001600160a01b03831660009081526005602052604081208054839290611f9590849061323d565b909155505060005461010085015160405163a9059cbb60e01b81526001600160a01b0391821660048201526024810184905291169063a9059cbb90604401602060405180830381600087803b158015611fed57600080fd5b505af1158015612001573d6000803e3d6000fd5b505050506040513d601f19601f8201168201806040525081019061202591906127ba565b50610100840151604080513381526001600160a01b03909216602083015281018290527fda5163f4fef80ed29382eca50bb83c0bd880a912e0ad6adf0d4389fa62481a639060600160405180910390a1505b336000908152600260205260409020546001600160a01b031680158015906120a3575060008460e00151115b156118f05760e08401516000906120c090611ee885612710612471565b6001600160a01b0385166000908152600560205260409020549091508111156121415760405162461bcd60e51b815260206004820152602d60248201527f5461626c6520706f6f6c206e6f7420656e6f75676820666f722072656665727260448201526c616c436f6d6d697373696f6e2160981b6064820152608401610276565b6001600160a01b0384166000908152600560205260408120805483929061216990849061323d565b909155505060005460405163a9059cbb60e01b81526001600160a01b038481166004830152602482018490529091169063a9059cbb90604401602060405180830381600087803b1580156121bc57600080fd5b505af11580156121d0573d6000803e3d6000fd5b505050506040513d601f19601f820116820180604052508101906121f491906127ba565b50604080513381526001600160a01b03841660208201529081018290527fa97b13b2cce63d44be7b27fdf4d8e0c49f255b8b0a19f07ce2881ba924118f829060600160405180910390a1505050505050565b60608161226a5750506040805180820190915260018152600360fc1b602082015290565b8160005b8115612294578061227e816132b5565b915061228d9050600a83613187565b915061226e565b6000816001600160401b038111156122bc57634e487b7160e01b600052604160045260246000fd5b6040519080825280601f01601f1916602001820160405280156122e6576020820181803683370190505b5090505b841561235f576122fb60018361323d565b9150612308600a866132d0565b61231390603061316f565b60f81b81838151811061233657634e487b7160e01b600052603260045260246000fd5b60200101906001600160f81b031916908160001a905350612358600a86613187565b94506122ea565b949350505050565b611a16828260405160240161237d929190612d61565b60408051601f198184030181529190526020810180516001600160e01b031663319af33360e01b179052612409565b611a1682826040516024016123c2929190612d8b565b60408051601f198184030181529190526020810180516001600160e01b0316634b5c427760e01b179052612409565b6000611a26828461323d565b6000611a2682846132d0565b80516a636f6e736f6c652e6c6f67602083016000808483855afa5050505050565b61198d83838360405160240161244293929190612db0565b60408051601f198184030181529190526020810180516001600160e01b0316632ced7cef60e01b179052612409565b6000611a268284613187565b508054600082559060005260206000209081019061249b9190612522565b50565b8280546124aa90613280565b90600052602060002090601f0160209004810192826124cc5760008555612512565b82601f106124e557805160ff1916838001178555612512565b82800160010185558215612512579182015b828111156125125782518255916020019190600101906124f7565b5061251e929150612522565b5090565b5b8082111561251e5760008155600101612523565b803561254281613326565b919050565b805161254281613326565b600082601f830112612562578081fd5b815160206125776125728361314c565b61311c565b80838252828201915082860187848660051b8901011115612596578586fd5b855b858110156125bd5781516125ab81613326565b84529284019290840190600101612598565b5090979650505050505050565b600082601f8301126125da578081fd5b815160206125ea6125728361314c565b80838252828201915082860187848660051b8901011115612609578586fd5b855b858110156125bd5781518452928401929084019060010161260b565b600082601f830112612637578081fd5b81356001600160401b0381111561265057612650613310565b612663601f8201601f191660200161311c565b818152846020838601011115612677578283fd5b816020850160208301379081016020019190915292915050565b6000602082840312156126a2578081fd5b8135611a2681613326565b6000602082840312156126be578081fd5b8151611a2681613326565b600080604083850312156126db578081fd5b82356126e681613326565b915060208301356126f681613326565b809150509250929050565b6000806000806000806000806000806101408b8d031215612720578586fd5b8a3561272b81613326565b995060208b0135985060408b0135975060608b0135965060808b0135955060a08b0135945060c08b0135935060e08b013592506101008b013561276d81613326565b809250506101208b013590509295989b9194979a5092959850565b600060208284031215612799578081fd5b81516001600160401b038111156127ae578182fd5b61235f84828501612552565b6000602082840312156127cb578081fd5b81518015158114611a26578182fd5b6000602082840312156127eb578081fd5b81356001600160401b03811115612800578182fd5b61235f84828501612627565b6000806040838503121561281e578182fd5b82356001600160401b03811115612833578283fd5b61283f85828601612627565b92505060208301356126f681613326565b600080828403610160811215612864578283fd5b83356001600160401b03811115612879578384fd5b61288586828701612627565b93505061014080601f198301121561289b578283fd5b6128a36130ae565b91506128b160208601612537565b825260408501356020830152606085013560408301526080850135606083015260a0850135608083015260c085013560a083015260e085013560c08301526101008086013560e0840152610120612909818801612537565b91840191909152940135938101939093525092909150565b600060208284031215612932578081fd5b81516001600160401b0380821115612948578283fd5b908301906060828603121561295b578283fd5b6129636130d7565b825182811115612971578485fd5b61297d87828601612552565b825250602083015182811115612991578485fd5b61299d878286016125ca565b6020830152506040830151828111156129b4578485fd5b6129c0878286016125ca565b60408301525095945050505050565b6000602082840312156129e0578081fd5b81516001600160401b03808211156129f6578283fd5b908301906101208286031215612a0a578283fd5b612a126130f9565b8251815260208301516020820152604083015182811115612a31578485fd5b612a3d878286016125ca565b604083015250606083015182811115612a54578485fd5b612a6087828601612552565b606083015250608083015182811115612a77578485fd5b612a83878286016125ca565b60808301525060a083015182811115612a9a578485fd5b612aa6878286016125ca565b60a08301525060c083015160c082015260e083015182811115612ac7578485fd5b612ad387828601612552565b60e0830152506101008084015183811115612aec578586fd5b612af8888287016125ca565b918301919091525095945050505050565b60006101408284031215612b1b578081fd5b612b236130ae565b612b2c83612547565b81526020830151602082015260408301516040820152606083015160608201526080830151608082015260a083015160a082015260c083015160c082015260e083015160e0820152610100612b82818501612547565b90820152610120928301519281019290925250919050565b600060208284031215612bab578081fd5b5051919050565b600080600060608486031215612bc6578081fd5b833592506020840135915060408401356001600160401b03811115612be9578182fd5b612bf586828701612627565b9150509250925092565b6000815180845260208085019450808401835b83811015612c375781516001600160a01b031687529582019590820190600101612c12565b509495945050505050565b6000815180845260208085019450808401835b83811015612c3757815187529582019590820190600101612c55565b60008151808452612c89816020860160208601613254565b601f01601f19169290920160200192915050565b60008251612caf818460208701613254565b9190910192915050565b6001600160a01b039b8c168152998b1660208b015260408a01989098526060890196909652608088019490945260a087019290925260c086015260e08501526101008401529092166101208201526101408101919091526101600190565b60018060a01b0385168152836020820152826040820152608060608201526000612d446080830184612c71565b9695505050505050565b602081526000611a266020830184612c71565b604081526000612d746040830185612c71565b905060018060a01b03831660208301529392505050565b604081526000612d9e6040830185612c71565b8281036020840152610e968185612c71565b606081526000612dc36060830186612c71565b8281036020840152612dd58186612c71565b90508281036040840152612d448185612c71565b604081526000612dfc6040830185612c71565b90508260208301529392505050565b60a081526000612e1e60a0830188612c71565b8660208401528281036040840152612e368187612bff565b90508281036060840152612e4a8186612c42565b90508281036080840152612e5e8185612c42565b98975050505050505050565b606081526000612e7d6060830186612c71565b60208301949094525060400152919050565b608081526000612ea26080830187612c71565b6020830195909552506040810192909252606090910152919050565b6000610160808352612ed28184018f612c71565b90508c60208401528b60408401528a60608401528281036080840152612ef8818b612c42565b905082810360a0840152612f0c818a612bff565b905082810360c0840152612f208189612c42565b905082810360e0840152612f348188612c42565b9050828103610100840152612f498187612bff565b9050828103610120840152612f5e8186612c42565b9050828103610140840152612f738185612c42565b9e9d5050505050505050505050505050565b60208082526019908201527f706c6561736520636865636b2074686520616464726573732100000000000000604082015260600190565b6020808252601b908201527f6d73672e73656e646572206973206e6f7420746865206f776e65720000000000604082015260600190565b81516001600160a01b0390811682526020808401519083015260408084015190830152606092830151169181019190915260800190565b81516001600160a01b0316815261014081016020830151602083015260408301516040830152606083015160608301526080830151608083015260a083015160a083015260c083015160c083015260e083015160e08301526101008084015161309d828501826001600160a01b03169052565b505061012092830151919092015290565b60405161014081016001600160401b03811182821017156130d1576130d1613310565b60405290565b604051606081016001600160401b03811182821017156130d1576130d1613310565b60405161012081016001600160401b03811182821017156130d1576130d1613310565b604051601f8201601f191681016001600160401b038111828210171561314457613144613310565b604052919050565b60006001600160401b0382111561316557613165613310565b5060051b60200190565b60008219821115613182576131826132e4565b500190565b600082613196576131966132fa565b500490565b60006001600160ff1b03818413828413808216868404861116156131c1576131c16132e4565b600160ff1b848712828116878305891216156131df576131df6132e4565b8587129250878205871284841616156131fa576131fa6132e4565b87850587128184161615613210576132106132e4565b505050929093029392505050565b6000816000190483118215151615613238576132386132e4565b500290565b60008282101561324f5761324f6132e4565b500390565b60005b8381101561326f578181015183820152602001613257565b838111156119405750506000910152565b600181811c9082168061329457607f821691505b60208210811415611dee57634e487b7160e01b600052602260045260246000fd5b60006000198214156132c9576132c96132e4565b5060010190565b6000826132df576132df6132fa565b500690565b634e487b7160e01b600052601160045260246000fd5b634e487b7160e01b600052601260045260246000fd5b634e487b7160e01b600052604160045260246000fd5b6001600160a01b038116811461249b57600080fdfe7461626c65506f6f6c5b7461626c65416464726573735d2c2077696e416d6f756e74706f6f6c416d6f756e742c20726f756e64526573756c742e77696e6e6572732e6c656e677468726f756e642c20726f756e644e756d6265722c20726f756e64526573756c742e77696e6e6572416c6c436f756e74a2646970667358221220a35538f1e6b7856a1b7091ce3fe496b0856e87198369394c90e173bb228947a464736f6c63430008040033",
  "linkReferences": {},
  "deployedLinkReferences": {}
}