{
  "_format": "hh-sol-artifact-1",
  "contractName": "LotteryManagerV3",
  "sourceName": "contracts/LotteryManagerV3.sol",
  "abi": [
    {
      "inputs": [
        {
          "internalType": "address",
          "name": "_factory",
          "type": "address"
        },
        {
          "internalType": "address",
          "name": "_tokenAddress",
          "type": "address"
        }
      ],
      "stateMutability": "nonpayable",
      "type": "constructor"
    },
    {
      "anonymous": false,
      "inputs": [
        {
          "indexed": false,
          "internalType": "address",
          "name": "player",
          "type": "address"
        },
        {
          "indexed": false,
          "internalType": "address",
          "name": "banker",
          "type": "address"
        },
        {
          "indexed": false,
          "internalType": "uint256",
          "name": "amount",
          "type": "uint256"
        }
      ],
      "name": "BankerCommission",
      "type": "event"
    },
    {
      "anonymous": false,
      "inputs": [
        {
          "indexed": false,
          "internalType": "string",
          "name": "hash",
          "type": "string"
        }
      ],
      "name": "CreateTableIfNecessary",
      "type": "event"
    },
    {
      "anonymous": false,
      "inputs": [
        {
          "indexed": false,
          "internalType": "string",
          "name": "beforeHash",
          "type": "string"
        },
        {
          "indexed": false,
          "internalType": "string",
          "name": "newHash",
          "type": "string"
        }
      ],
      "name": "EditTable",
      "type": "event"
    },
    {
      "anonymous": false,
      "inputs": [
        {
          "indexed": false,
          "internalType": "string",
          "name": "hash",
          "type": "string"
        },
        {
          "indexed": false,
          "internalType": "uint256",
          "name": "round",
          "type": "uint256"
        },
        {
          "indexed": false,
          "internalType": "address[]",
          "name": "players",
          "type": "address[]"
        },
        {
          "indexed": false,
          "internalType": "uint256[]",
          "name": "numbers",
          "type": "uint256[]"
        },
        {
          "indexed": false,
          "internalType": "uint256[]",
          "name": "counts",
          "type": "uint256[]"
        }
      ],
      "name": "HoldingTicket",
      "type": "event"
    },
    {
      "anonymous": false,
      "inputs": [
        {
          "indexed": false,
          "internalType": "address",
          "name": "player",
          "type": "address"
        },
        {
          "indexed": false,
          "internalType": "uint256",
          "name": "amount",
          "type": "uint256"
        },
        {
          "indexed": false,
          "internalType": "uint256",
          "name": "all",
          "type": "uint256"
        }
      ],
      "name": "JackpotCommission",
      "type": "event"
    },
    {
      "anonymous": false,
      "inputs": [
        {
          "indexed": false,
          "internalType": "address",
          "name": "player",
          "type": "address"
        },
        {
          "indexed": false,
          "internalType": "uint256",
          "name": "jackpotPrize",
          "type": "uint256"
        }
      ],
      "name": "JackpotWinner",
      "type": "event"
    },
    {
      "anonymous": false,
      "inputs": [
        {
          "indexed": false,
          "internalType": "address",
          "name": "player",
          "type": "address"
        },
        {
          "indexed": false,
          "internalType": "uint256",
          "name": "count",
          "type": "uint256"
        },
        {
          "indexed": false,
          "internalType": "uint256",
          "name": "number",
          "type": "uint256"
        },
        {
          "indexed": false,
          "internalType": "string",
          "name": "hash",
          "type": "string"
        }
      ],
      "name": "JoinTable",
      "type": "event"
    },
    {
      "anonymous": false,
      "inputs": [
        {
          "indexed": false,
          "internalType": "string",
          "name": "hash",
          "type": "string"
        },
        {
          "indexed": false,
          "internalType": "uint256",
          "name": "coolDownTimeBlock",
          "type": "uint256"
        },
        {
          "indexed": false,
          "internalType": "uint256",
          "name": "notifyTimestamp",
          "type": "uint256"
        }
      ],
      "name": "NotifyCoolDownTime",
      "type": "event"
    },
    {
      "anonymous": false,
      "inputs": [
        {
          "indexed": false,
          "internalType": "address",
          "name": "player",
          "type": "address"
        },
        {
          "indexed": false,
          "internalType": "address",
          "name": "refer",
          "type": "address"
        },
        {
          "indexed": false,
          "internalType": "uint256",
          "name": "amount",
          "type": "uint256"
        }
      ],
      "name": "ReferCommission",
      "type": "event"
    },
    {
      "anonymous": false,
      "inputs": [
        {
          "components": [
            {
              "internalType": "string",
              "name": "hash",
              "type": "string"
            },
            {
              "internalType": "uint256",
              "name": "round",
              "type": "uint256"
            },
            {
              "internalType": "uint256",
              "name": "poolAmount",
              "type": "uint256"
            },
            {
              "internalType": "uint256",
              "name": "roundNumber",
              "type": "uint256"
            },
            {
              "internalType": "uint256[]",
              "name": "prizeNumbers",
              "type": "uint256[]"
            },
            {
              "internalType": "address[]",
              "name": "roundWinnerArray",
              "type": "address[]"
            },
            {
              "internalType": "uint256[]",
              "name": "winnerCount",
              "type": "uint256[]"
            },
            {
              "internalType": "int256[]",
              "name": "rewards",
              "type": "int256[]"
            },
            {
              "internalType": "address[]",
              "name": "allPlayers",
              "type": "address[]"
            },
            {
              "internalType": "uint256[]",
              "name": "numbers",
              "type": "uint256[]"
            },
            {
              "internalType": "uint256[]",
              "name": "counts",
              "type": "uint256[]"
            },
            {
              "internalType": "address[]",
              "name": "jackpotWinners",
              "type": "address[]"
            },
            {
              "internalType": "uint256[]",
              "name": "jackpotRewards",
              "type": "uint256[]"
            }
          ],
          "indexed": false,
          "internalType": "struct LotteryManagerV3.StartRoundResult",
          "name": "startRoundResult",
          "type": "tuple"
        }
      ],
      "name": "StartRound",
      "type": "event"
    },
    {
      "inputs": [
        {
          "internalType": "address",
          "name": "newOwner",
          "type": "address"
        }
      ],
      "name": "changeOwner",
      "outputs": [
        {
          "internalType": "bool",
          "name": "result",
          "type": "bool"
        }
      ],
      "stateMutability": "nonpayable",
      "type": "function"
    },
    {
      "inputs": [
        {
          "internalType": "string",
          "name": "hash",
          "type": "string"
        },
        {
          "internalType": "address",
          "name": "newManagerContract",
          "type": "address"
        }
      ],
      "name": "changeTableManager",
      "outputs": [
        {
          "internalType": "bool",
          "name": "result",
          "type": "bool"
        }
      ],
      "stateMutability": "nonpayable",
      "type": "function"
    },
    {
      "inputs": [
        {
          "internalType": "address",
          "name": "creator",
          "type": "address"
        },
        {
          "internalType": "uint256",
          "name": "amount",
          "type": "uint256"
        },
        {
          "internalType": "uint256",
          "name": "minPPL",
          "type": "uint256"
        },
        {
          "internalType": "uint256",
          "name": "maxPPL",
          "type": "uint256"
        },
        {
          "internalType": "uint256",
          "name": "coolDownTime",
          "type": "uint256"
        },
        {
          "internalType": "uint256",
          "name": "gameTime",
          "type": "uint256"
        },
        {
          "internalType": "uint256",
          "name": "bankerCommission",
          "type": "uint256"
        },
        {
          "internalType": "uint256",
          "name": "referralCommission",
          "type": "uint256"
        },
        {
          "internalType": "address",
          "name": "bankerWallet",
          "type": "address"
        },
        {
          "internalType": "uint256",
          "name": "delayBlock",
          "type": "uint256"
        },
        {
          "internalType": "uint256",
          "name": "jackpotCommission",
          "type": "uint256"
        }
      ],
      "name": "createTableIfNecessary",
      "outputs": [
        {
          "internalType": "string",
          "name": "hashString",
          "type": "string"
        }
      ],
      "stateMutability": "payable",
      "type": "function"
    },
    {
      "inputs": [
        {
          "internalType": "string",
          "name": "hashString",
          "type": "string"
        },
        {
          "components": [
            {
              "internalType": "address",
              "name": "creator",
              "type": "address"
            },
            {
              "internalType": "uint256",
              "name": "amount",
              "type": "uint256"
            },
            {
              "internalType": "uint256",
              "name": "minPPL",
              "type": "uint256"
            },
            {
              "internalType": "uint256",
              "name": "maxPPL",
              "type": "uint256"
            },
            {
              "internalType": "uint256",
              "name": "coolDownTime",
              "type": "uint256"
            },
            {
              "internalType": "uint256",
              "name": "gameTime",
              "type": "uint256"
            },
            {
              "internalType": "uint256",
              "name": "bankerCommission",
              "type": "uint256"
            },
            {
              "internalType": "uint256",
              "name": "referralCommission",
              "type": "uint256"
            },
            {
              "internalType": "address",
              "name": "bankerWallet",
              "type": "address"
            },
            {
              "internalType": "uint256",
              "name": "delayBlocks",
              "type": "uint256"
            },
            {
              "internalType": "uint256",
              "name": "jackpotCommission",
              "type": "uint256"
            }
          ],
          "internalType": "struct ILotteryTableV3.TableInfo",
          "name": "tableInfo",
          "type": "tuple"
        }
      ],
      "name": "editTable",
      "outputs": [],
      "stateMutability": "nonpayable",
      "type": "function"
    },
    {
      "inputs": [],
      "name": "factory",
      "outputs": [
        {
          "internalType": "address",
          "name": "",
          "type": "address"
        }
      ],
      "stateMutability": "view",
      "type": "function"
    },
    {
      "inputs": [
        {
          "internalType": "string",
          "name": "hash",
          "type": "string"
        }
      ],
      "name": "getCoolDownTimeBlock",
      "outputs": [
        {
          "internalType": "uint256",
          "name": "coolDownTimeBlock",
          "type": "uint256"
        },
        {
          "internalType": "uint256",
          "name": "notifyTimestamp",
          "type": "uint256"
        }
      ],
      "stateMutability": "view",
      "type": "function"
    },
    {
      "inputs": [
        {
          "internalType": "string",
          "name": "hash",
          "type": "string"
        }
      ],
      "name": "getTableInfo",
      "outputs": [
        {
          "components": [
            {
              "internalType": "address",
              "name": "creator",
              "type": "address"
            },
            {
              "internalType": "uint256",
              "name": "amount",
              "type": "uint256"
            },
            {
              "internalType": "uint256",
              "name": "minPPL",
              "type": "uint256"
            },
            {
              "internalType": "uint256",
              "name": "maxPPL",
              "type": "uint256"
            },
            {
              "internalType": "uint256",
              "name": "coolDownTime",
              "type": "uint256"
            },
            {
              "internalType": "uint256",
              "name": "gameTime",
              "type": "uint256"
            },
            {
              "internalType": "uint256",
              "name": "bankerCommission",
              "type": "uint256"
            },
            {
              "internalType": "uint256",
              "name": "referralCommission",
              "type": "uint256"
            },
            {
              "internalType": "address",
              "name": "bankerWallet",
              "type": "address"
            },
            {
              "internalType": "uint256",
              "name": "delayBlocks",
              "type": "uint256"
            },
            {
              "internalType": "uint256",
              "name": "jackpotCommission",
              "type": "uint256"
            }
          ],
          "internalType": "struct ILotteryTableV3.TableInfo",
          "name": "tableInfo",
          "type": "tuple"
        }
      ],
      "stateMutability": "view",
      "type": "function"
    },
    {
      "inputs": [
        {
          "internalType": "string",
          "name": "hash",
          "type": "string"
        }
      ],
      "name": "holdingTicket",
      "outputs": [
        {
          "internalType": "string",
          "name": "tableHash",
          "type": "string"
        },
        {
          "internalType": "uint256",
          "name": "round",
          "type": "uint256"
        },
        {
          "internalType": "address[]",
          "name": "players",
          "type": "address[]"
        },
        {
          "internalType": "uint256[]",
          "name": "numbers",
          "type": "uint256[]"
        },
        {
          "internalType": "uint256[]",
          "name": "counts",
          "type": "uint256[]"
        }
      ],
      "stateMutability": "view",
      "type": "function"
    },
    {
      "inputs": [
        {
          "internalType": "uint256",
          "name": "count",
          "type": "uint256"
        },
        {
          "internalType": "uint256",
          "name": "number",
          "type": "uint256"
        },
        {
          "internalType": "string",
          "name": "hash",
          "type": "string"
        },
        {
          "internalType": "uint256",
          "name": "currentRound",
          "type": "uint256"
        }
      ],
      "name": "joinTableV2",
      "outputs": [
        {
          "internalType": "bool",
          "name": "result",
          "type": "bool"
        }
      ],
      "stateMutability": "payable",
      "type": "function"
    },
    {
      "inputs": [
        {
          "internalType": "string",
          "name": "hash",
          "type": "string"
        }
      ],
      "name": "notifyCoolDownTime",
      "outputs": [
        {
          "internalType": "uint256",
          "name": "coolDownTimeBlock",
          "type": "uint256"
        }
      ],
      "stateMutability": "nonpayable",
      "type": "function"
    },
    {
      "inputs": [],
      "name": "owner",
      "outputs": [
        {
          "internalType": "address",
          "name": "",
          "type": "address"
        }
      ],
      "stateMutability": "view",
      "type": "function"
    },
    {
      "inputs": [
        {
          "internalType": "address",
          "name": "a",
          "type": "address"
        },
        {
          "internalType": "address",
          "name": "b",
          "type": "address"
        }
      ],
      "name": "referral",
      "outputs": [
        {
          "internalType": "bool",
          "name": "result",
          "type": "bool"
        }
      ],
      "stateMutability": "nonpayable",
      "type": "function"
    },
    {
      "inputs": [
        {
          "internalType": "string",
          "name": "hash",
          "type": "string"
        }
      ],
      "name": "startRoundV2",
      "outputs": [
        {
          "internalType": "bool",
          "name": "",
          "type": "bool"
        }
      ],
      "stateMutability": "payable",
      "type": "function"
    }
  ],
  "bytecode": "0x60a06040523480156200001157600080fd5b5060405162003fd738038062003fd7833981016040819052620000349162000097565b6001600160601b031960609290921b91909116608052600080546001600160a01b03929092166001600160a01b03199283161790556001805490911633179055620000ce565b80516001600160a01b03811681146200009257600080fd5b919050565b60008060408385031215620000aa578182fd5b620000b5836200007a565b9150620000c5602084016200007a565b90509250929050565b60805160601c613edc620000fb6000396000818161024d015281816111f601526112b80152613edc6000f3fe6080604052600436106100c25760003560e01c80634711876f1161007f578063a6f9dae111610059578063a6f9dae11461021b578063c45a01551461023b578063efc50bcc1461026f578063f2901e68146102a057600080fd5b80634711876f146101935780638da5cb5b146101b5578063a4565dd7146101ed57600080fd5b8063184f9875146100c75780631c505d1d146100fd578063225276c81461012d5780633645b8241461014057806338afd4c5146101605780633ea64f3d14610180575b600080fd5b3480156100d357600080fd5b506100e76100e23660046131bd565b6102d5565b6040516100f49190613af0565b60405180910390f35b34801561010957600080fd5b5061011d6101183660046130a1565b610416565b60405190151581526020016100f4565b61011d61013b3660046131bd565b6104ba565b61015361014e3660046130d9565b61114e565b6040516100f49190613783565b34801561016c57600080fd5b5061011d61017b3660046131ef565b6114bf565b61011d61018e3660046135d3565b6115bd565b34801561019f57600080fd5b506101b36101ae366004613233565b611851565b005b3480156101c157600080fd5b506001546101d5906001600160a01b031681565b6040516001600160a01b0390911681526020016100f4565b3480156101f957600080fd5b5061020d6102083660046131bd565b6119b4565b6040519081526020016100f4565b34801561022757600080fd5b5061011d610236366004613069565b611b4b565b34801561024757600080fd5b506101d57f000000000000000000000000000000000000000000000000000000000000000081565b34801561027b57600080fd5b5061028f61028a3660046131bd565b611b9c565b6040516100f4959493929190613840565b3480156102ac57600080fd5b506102c06102bb3660046131bd565b611d03565b604080519283526020830191909152016100f4565b61034460405180610160016040528060006001600160a01b031681526020016000815260200160008152602001600081526020016000815260200160008152602001600081526020016000815260200160006001600160a01b0316815260200160008152602001600081525090565b600060038360405161035691906136c6565b908152604051908190036020019020546001600160a01b03169050806103975760405162461bcd60e51b815260040161038e906138f3565b60405180910390fd5b6000819050806001600160a01b0316635f2d82ea6040518163ffffffff1660e01b81526004016101606040518083038186803b1580156103d657600080fd5b505afa1580156103ea573d6000803e3d6000fd5b505050506040513d601f19601f8201168201806040525081019061040e919061351f565b949350505050565b6001546000906001600160a01b031633146104435760405162461bcd60e51b815260040161038e9061392a565b6001600160a01b03831661045657600080fd5b6001600160a01b03821661046957600080fd5b816001600160a01b0316836001600160a01b0316141561048857600080fd5b506001600160a01b03918216600090815260026020526040902080546001600160a01b03191691909216179055600190565b6001546000906001600160a01b031633146104e75760405162461bcd60e51b815260040161038e9061392a565b81600c816040516104f891906136c6565b9081526040519081900360200190205460ff161561054f5760405162461bcd60e51b8152602060048201526014602482015273139bc81c994b595b9d1c985b98de481c9bdd5b9960621b604482015260640161038e565b6001600c8260405161056191906136c6565b908152604051908190036020018120805492151560ff19909316929092179091556000906003906105939086906136c6565b908152604051908190036020019020546001600160a01b03169050806105cb5760405162461bcd60e51b815260040161038e906138f3565b60008190506000816001600160a01b0316635f2d82ea6040518163ffffffff1660e01b81526004016101606040518083038186803b15801561060c57600080fd5b505afa158015610620573d6000803e3d6000fd5b505050506040513d601f19601f82011682018060405250810190610644919061351f565b6001600160a01b038416600090815260086020526040902054909150806106ad5760405162461bcd60e51b815260206004820152601760248201527f77726f6e6720636f6f6c446f776e54696d65426c6f636b000000000000000000604482015260640161038e565b6040516395805dad60e01b8152600481018290526000906001600160a01b038516906395805dad90602401600060405180830381600087803b1580156106f257600080fd5b505af1158015610706573d6000803e3d6000fd5b505050506040513d6000823e601f3d908101601f1916820160405261072e91908101906133c0565b905061075d6040518060600160405280602e8152602001613e58602e91398251602084015160c0850151611d7e565b600060056000876001600160a01b03166001600160a01b031681526020019081526020016000205490506107af604051806060016040528060268152602001613e3260269139828460e0015151611dcd565b6000806107c98460c0015184611e1990919063ffffffff16565b915091506107fd6040518060400160405280600e81526020016d1bdb99541a5958d954995dd85c9960921b81525082611e58565b60005b8460e0015151811015610add5760008560e00151828151811061083357634e487b7160e01b600052603260045260246000fd5b602002602001015190506000866101000151838151811061086457634e487b7160e01b600052603260045260246000fd5b6020026020010151905060006108838286611ea190919063ffffffff16565b90506108c0604051806060016040528060228152602001613e10602291396001600160a01b038e1660009081526005602052604090205483611dcd565b6001600160a01b038c166000908152600560205260409020548111156109345760405162461bcd60e51b8152602060048201526024808201527f7461626c6520706f6f6c206e6f7420656e6f75676820666f722077696e416d6f604482015263756e742160e01b606482015260840161038e565b6001600160a01b038c166000908152600560205260408120805483929061095c908490613d11565b9091555050633b9aca006001600160a01b0384161015610a3f576109b56040518060400160405280601a81526020017f77696e6e657220697320726f626f742c2077696e416d6f756e7400000000000081525082611e58565b60005460405163a9059cbb60e01b8152336004820152602481018390526001600160a01b039091169063a9059cbb90604401602060405180830381600087803b158015610a0157600080fd5b505af1158015610a15573d6000803e3d6000fd5b505050506040513d601f19601f82011682018060405250810190610a39919061319d565b50610ac7565b60005460405163a9059cbb60e01b81526001600160a01b038581166004830152602482018490529091169063a9059cbb90604401602060405180830381600087803b158015610a8d57600080fd5b505af1158015610aa1573d6000803e3d6000fd5b505050506040513d601f19601f82011682018060405250810190610ac5919061319d565b505b5050508080610ad590613d89565b915050610800565b506101208401515115610e14576001600160a01b0388166000908152600a6020818152604092839020548351808501909452918352691a9858dadc1bdd105b1b60b21b9083015290610b2f9082611e58565b610b57604051806060016040528060218152602001613e866021913986610120015151611e58565b600080610b738761012001515184611e1990919063ffffffff16565b91509150818015610b845750600081115b15610e105760005b87610120015151811015610e0e5760008861012001518281518110610bc157634e487b7160e01b600052603260045260246000fd5b6020026020010151905082600a60008f6001600160a01b03166001600160a01b03168152602001908152602001600020541015610c405760405162461bcd60e51b815260206004820152601860248201527f6a61636b706f7420706f6f6c206e6f7420656e6f756768210000000000000000604482015260640161038e565b6001600160a01b038d166000908152600a602052604081208054859290610c68908490613d11565b90915550506001600160a01b03808e16600090815260076020908152604082208054600181018255908352912001849055633b9aca009082161015610d315760005460405163a9059cbb60e01b8152336004820152602481018590526001600160a01b039091169063a9059cbb90604401602060405180830381600087803b158015610cf357600080fd5b505af1158015610d07573d6000803e3d6000fd5b505050506040513d601f19601f82011682018060405250810190610d2b919061319d565b50610db9565b60005460405163a9059cbb60e01b81526001600160a01b038381166004830152602482018690529091169063a9059cbb90604401602060405180830381600087803b158015610d7f57600080fd5b505af1158015610d93573d6000803e3d6000fd5b505050506040513d601f19601f82011682018060405250810190610db7919061319d565b505b604080516001600160a01b0383168152602081018590527f2f874f9b35a653e61365e8de37b7a2293b82a7d06dd79a30025f33ff342a1c73910160405180910390a15080610e0681613d89565b915050610b8c565b505b5050505b60005b84606001515181101561108c57600085604001515160011415610f26578560400151600081518110610e5957634e487b7160e01b600052603260045260246000fd5b602002602001015186608001518381518110610e8557634e487b7160e01b600052603260045260246000fd5b60200260200101511415610ed857610ed18660a001518381518110610eba57634e487b7160e01b600052603260045260246000fd5b602002602001015184611ea190919063ffffffff16565b9050611051565b610f1a8660a001518381518110610eff57634e487b7160e01b600052603260045260246000fd5b60200260200101518960200151611ea190919063ffffffff16565b610ed190600019613c6f565b85604001515160021415611051578560400151600081518110610f5957634e487b7160e01b600052603260045260246000fd5b602002602001015186608001518381518110610f8557634e487b7160e01b600052603260045260246000fd5b60200260200101511480610fef57508560400151600181518110610fb957634e487b7160e01b600052603260045260246000fd5b602002602001015186608001518381518110610fe557634e487b7160e01b600052603260045260246000fd5b6020026020010151145b1561101b57610ed18660a001518381518110610eba57634e487b7160e01b600052603260045260246000fd5b6110428660a001518381518110610eff57634e487b7160e01b600052603260045260246000fd5b61104e90600019613c6f565b90505b6001600160a01b038a16600090815260066020908152604082208054600181018255908352912001558061108481613d89565b915050610e17565b5061109688611eb4565b506110a28b84866122ac565b6001600160a01b03881660009081526006602052604081206110c391612e55565b6001600160a01b03881660009081526007602052604081206110e491612e55565b5050506001600160a01b039094166000908152600860209081526040808320839055600990915281205550600194505050506000600c8260405161112891906136c6565b908152604051908190036020019020805491151560ff1990921691909117905550919050565b6001546060906001600160a01b0316331461117b5760405162461bcd60e51b815260040161038e9061392a565b6001546001600160a01b031633146111f25760405162461bcd60e51b815260206004820152603460248201527f4f6e6c7920636f6e7472616374206f776e657220697320616c6c6f7765642074604482015273379031b0b636103a3434b990333ab731ba34b7b760611b606482015260840161038e565b60007f00000000000000000000000000000000000000000000000000000000000000006001600160a01b0316635abca103308f8f8f8f8f8f8f8f8f8f8f6040518d63ffffffff1660e01b81526004016112569c9b9a999897969594939291906136e2565b60206040518083038186803b15801561126e57600080fd5b505afa158015611282573d6000803e3d6000fd5b505050506040513d601f19601f820116820180604052508101906112a69190613085565b90506001600160a01b03811661136d577f00000000000000000000000000000000000000000000000000000000000000006001600160a01b0316634627572f308f8f8f8f8f8f8f8f8f8f8f6040518d63ffffffff1660e01b81526004016113189c9b9a999897969594939291906136e2565b602060405180830381600087803b15801561133257600080fd5b505af1158015611346573d6000803e3d6000fd5b505050506040513d601f19601f8201168201806040525081019061136a9190613085565b90505b6000308e8e8e8e8e8e8e8e8e8e8e6040516020016113969c9b9a999897969594939291906136e2565b6040516020818303038152906040528051906020012060001c90506113ba81612458565b9250816003846040516113cd91906136c6565b908152604080516020928190038301902080546001600160a01b0319166001600160a01b0394851617905591841660009081526004825291909120845161141692860190612e76565b50611442604051806040016040528060098152602001683a30b136329034b99d60b91b81525083612571565b611477604051806040016040528060138152602001727461626c652068617368537472696e6720697360681b815250846125b6565b7ffeadb03e5864c7ba3800506584c86f9177a7d4a3547a3db6021574c3a678b3d1836040516114a69190613783565b60405180910390a150509b9a5050505050505050505050565b6001546000906001600160a01b031633146114ec5760405162461bcd60e51b815260040161038e9061392a565b60006003846040516114fe91906136c6565b908152604051908190036020019020546001600160a01b03169050806115365760405162461bcd60e51b815260040161038e906138f3565b6040516351fddd5760e11b81526001600160a01b03848116600483015282919082169063a3fbbaae90602401602060405180830381600087803b15801561157c57600080fd5b505af1158015611590573d6000803e3d6000fd5b505050506040513d601f19601f820116820180604052508101906115b4919061319d565b95945050505050565b6000806003846040516115d091906136c6565b908152604051908190036020019020546001600160a01b031690508061164f5760405162461bcd60e51b815260206004820152602e60248201527f6e6f207461626c6520776974682074686520686173682c20706c65617365206360448201526d6865636b2074686520686173682160901b606482015260840161038e565b6001600160a01b03811660009081526008602052604090205480158015906116775750804310155b156116e35760405162461bcd60e51b815260206004820152603660248201527f6172726976656420636f6f6c20646f776e2074696d6520626c6f636b2c2063616044820152756e206e6f74206a6f696e207468697320726f756e642160501b606482015260840161038e565b3360008181526002602090815260409182902054825160a0810184529384529083018a90528282018990526001600160a01b039081166060840181905260808401889052915163092468bd60e11b8152919285929091831690631248d17a90611750908490600401613961565b600060405180830381600087803b15801561176a57600080fd5b505af115801561177e573d6000803e3d6000fd5b505050506000826001600160a01b0316635f2d82ea6040518163ffffffff1660e01b81526004016101606040518083038186803b1580156117be57600080fd5b505afa1580156117d2573d6000803e3d6000fd5b505050506040513d601f19601f820116820180604052508101906117f6919061351f565b90506118038b82886125fb565b7f08b584e6aceb13e620c46e9d7288284e3b3a1c9dce5ca8e843559f5c4c8456a7338c8c8c604051611838949392919061374c565b60405180910390a15060019a9950505050505050505050565b6001546001600160a01b0316331461187b5760405162461bcd60e51b815260040161038e9061392a565b600060038360405161188d91906136c6565b908152604051908190036020019020546001600160a01b031690508061190c5760405162461bcd60e51b815260206004820152602e60248201527f4e6f207461626c6520776974682074686520686173682c20706c65617365206360448201526d6865636b2074686520686173682160901b606482015260840161038e565b6001600160a01b039081166000908152600b6020908152604091829020845181549085166001600160a01b0319918216178255918501516001820155918401516002830155606084015160038301556080840151600483015560a0840151600583015560c0840151600683015560e0840151600783015561010084015160088301805491909416911617909155610120820151600982015561014090910151600a9091015550565b6001546000906001600160a01b031633146119e15760405162461bcd60e51b815260040161038e9061392a565b60006003836040516119f391906136c6565b908152604051908190036020019020546001600160a01b0316905080611a2b5760405162461bcd60e51b815260040161038e906138f3565b439150611a5c6040518060400160405280600c81526020016b313637b1b597373ab6b132b960a11b81525083611e58565b6001600160a01b0381166000818152600860209081526040808320869055600990915280822042908190558151632f96c17560e11b8152915190938593929091635f2d82ea9160048082019261016092909190829003018186803b158015611ac357600080fd5b505afa158015611ad7573d6000803e3d6000fd5b505050506040513d601f19601f82011682018060405250810190611afb919061351f565b9050611b078185612ba6565b7fa69882baf66ab5e3584e5e8a7132a5d8f524b440db857ffdfa994cdabd944fee868642604051611b3a9392919061389f565b60405180910390a150505050919050565b6001546000906001600160a01b03163314611b785760405162461bcd60e51b815260040161038e9061392a565b50600180546001600160a01b0319166001600160a01b039290921691909117815590565b6060600060608060606000600387604051611bb791906136c6565b908152604051908190036020019020546001600160a01b0316905080611bef5760405162461bcd60e51b815260040161038e906138f3565b60008190506000816001600160a01b03166384bc76a66040518163ffffffff1660e01b815260040160006040518083038186803b158015611c2f57600080fd5b505afa158015611c43573d6000803e3d6000fd5b505050506040513d6000823e601f3d908101601f19168201604052611c6b9190810190613312565b90506000826001600160a01b03166347e405536040518163ffffffff1660e01b815260040160206040518083038186803b158015611ca857600080fd5b505afa158015611cbc573d6000803e3d6000fd5b505050506040513d601f19601f82011682018060405250810190611ce091906135bb565b825160208401516040909401519b9c919b909a5092985091965090945050505050565b6000806000600384604051611d1891906136c6565b908152604051908190036020019020546001600160a01b0316905080611d505760405162461bcd60e51b815260040161038e906138f3565b6001600160a01b03166000908152600860209081526040808320546009909252909120549094909350915050565b611dc784848484604051602401611d9894939291906138c4565b60408051601f198184030181529190526020810180516001600160e01b03166304772b3360e11b179052612dc9565b50505050565b611e14838383604051602401611de59392919061389f565b60408051601f198184030181529190526020810180516001600160e01b031663969cdd0360e01b179052612dc9565b505050565b60008082611e2c57506000905080611e51565b6001838581611e4b57634e487b7160e01b600052601260045260246000fd5b04915091505b9250929050565b611e9d8282604051602401611e6e92919061381e565b60408051601f198184030181529190526020810180516001600160e01b03166309710a9d60e41b179052612dc9565b5050565b6000611ead8284613cf2565b9392505050565b6001600160a01b038082166000908152600b60209081526040808320815161016081018352815486168082526001830154948201949094526002820154928101929092526003810154606083015260048101546080830152600581015460a0830152600681015460c0830152600781015460e083015260088101549094166101008201526009840154610120820152600a909301546101408401529091901561229d576001600160a01b03831660009081526004602052604081208054611f7a90613d54565b80601f0160208091040260200160405190810160405280929190818152602001828054611fa690613d54565b8015611ff35780601f10611fc857610100808354040283529160200191611ff3565b820191906000526020600020905b815481529060010190602001808311611fd657829003601f168201915b5050604051632498155360e11b815293945087936001600160a01b03851693506349302aa6925061202991508690600401613af0565b600060405180830381600087803b15801561204357600080fd5b505af1158015612057573d6000803e3d6000fd5b505050506000836000015184602001518560400151866060015187608001518860a001518960c001518a60e001518b61010001518c61012001518d610140015160405160200161210d9b9a999897969594939291906001600160a01b039b8c168152602081019a909a5260408a01989098526060890196909652608088019490945260a087019290925260c086015260e08501529093166101008301526101208201929092526101408101919091526101600190565b6040516020818303038152906040528051906020012060001c905085600361213483612458565b60405161214191906136c6565b90815260405190819003602001902080546001600160a01b03929092166001600160a01b031990921691909117905561217981612458565b6001600160a01b038716600090815260046020908152604090912082516121a69391929190910190612e76565b506001600160a01b0386166000908152600b6020908152604080832080546001600160a01b0319908116825560018201859055600282018590556003820185905560048201859055600582018590556006820185905560078201859055600882018054909116905560098101849055600a01929092558151808301909252600d82526c3132b337b932961030b33a32b960991b90820152612250908461224b84612458565b612dea565b7fe3e57a24b8f74d2723608b23c0f9b294b5919b85093bade5338255ac2f9035568361227b83612458565b6040516122899291906137c0565b60405180910390a150600195945050505050565b50600092915050565b50919050565b60006003846040516122be91906136c6565b908152604080519182900360209081018320546101a08401835287845285518483015283830187905285820151606085015285830151608085015260e08087015160a086015261010087015160c08601526001600160a01b0390911660008181526006845284902080548551818602810186019096528086529196507fc0ec51606c487dd657ad454c00b53ad9f5b378283485d0ae58cf92d3ce7641df95949285019390919083018282801561239357602002820191906000526020600020905b81548152602001906001019080831161237f575b5050505050815260200184606001518152602001846080015181526020018460a001518152602001846101200151815260200160076000856001600160a01b03166001600160a01b0316815260200190815260200160002080548060200260200160405190810160405280929190818152602001828054801561243557602002820191906000526020600020905b815481526020019060010190808311612421575b505050505081525060405161244a91906139a4565b60405180910390a150505050565b60608161247c5750506040805180820190915260018152600360fc1b602082015290565b8160005b81156124a6578061249081613d89565b915061249f9050600a83613c5b565b9150612480565b6000816001600160401b038111156124ce57634e487b7160e01b600052604160045260246000fd5b6040519080825280601f01601f1916602001820160405280156124f8576020820181803683370190505b5090505b841561040e5761250d600183613d11565b915061251a600a86613da4565b612525906030613c43565b60f81b81838151811061254857634e487b7160e01b600052603260045260246000fd5b60200101906001600160f81b031916908160001a90535061256a600a86613c5b565b94506124fc565b611e9d8282604051602401612587929190613796565b60408051601f198184030181529190526020810180516001600160e01b031663319af33360e01b179052612dc9565b611e9d82826040516024016125cc9291906137c0565b60408051601f198184030181529190526020810180516001600160e01b0316634b5c427760e01b179052612dc9565b6000612614836020015185611ea190919063ffffffff16565b6000546040516323b872dd60e01b8152336004820152306024820152604481018390529192506001600160a01b0316906323b872dd90606401602060405180830381600087803b15801561266757600080fd5b505af115801561267b573d6000803e3d6000fd5b505050506040513d601f19601f8201168201806040525081019061269f919061319d565b506001600160a01b038216600090815260056020526040812080548392906126c8908490613c43565b909155505060c0830151156129d65760c08301516000906126f5906126ef84612710612e31565b90611ea1565b6001600160a01b0384166000908152600560205260409020549091508111156127745760405162461bcd60e51b815260206004820152602b60248201527f5461626c6520706f6f6c206e6f7420656e6f75676820666f722062616e6b657260448201526a436f6d6d697373696f6e2160a81b606482015260840161038e565b6001600160a01b0383166000908152600560205260408120805483929061279c908490613d11565b909155505060005461010085015160405163a9059cbb60e01b81526001600160a01b0391821660048201526024810184905291169063a9059cbb90604401602060405180830381600087803b1580156127f457600080fd5b505af1158015612808573d6000803e3d6000fd5b505050506040513d601f19601f8201168201806040525081019061282c919061319d565b50610100840151604080513381526001600160a01b03909216602083015281018290527fda5163f4fef80ed29382eca50bb83c0bd880a912e0ad6adf0d4389fa62481a639060600160405180910390a1610140840151156129d4576101408401516000906128a0906126ef84612710612e31565b6001600160a01b0385166000908152600560205260409020549091508111156129205760405162461bcd60e51b815260206004820152602c60248201527f5461626c6520706f6f6c206e6f7420656e6f75676820666f72206a61636b706f60448201526b74436f6d6d697373696f6e2160a01b606482015260840161038e565b6001600160a01b03841660009081526005602052604081208054839290612948908490613d11565b90915550506001600160a01b0384166000908152600a602052604081208054839290612975908490613c43565b90915550506001600160a01b0384166000908152600a60209081526040918290205482513381529182018490528183015290517ff864fe483b7edde37b34a983ba165cd5b188c5a8bbe3b5bfa25cdc2baf346a1a9181900360600190a1505b505b336000908152600260205260409020546001600160a01b03168015801590612a02575060008460e00151115b15612b9f5760e0840151600090612a1f906126ef85612710612e31565b6001600160a01b038516600090815260056020526040902054909150811115612aa05760405162461bcd60e51b815260206004820152602d60248201527f5461626c6520706f6f6c206e6f7420656e6f75676820666f722072656665727260448201526c616c436f6d6d697373696f6e2160981b606482015260840161038e565b6001600160a01b03841660009081526005602052604081208054839290612ac8908490613d11565b909155505060005460405163a9059cbb60e01b81526001600160a01b038481166004830152602482018490529091169063a9059cbb90604401602060405180830381600087803b158015612b1b57600080fd5b505af1158015612b2f573d6000803e3d6000fd5b505050506040513d601f19601f82011682018060405250810190612b53919061319d565b50604080513381526001600160a01b03841660208201529081018290527fa97b13b2cce63d44be7b27fdf4d8e0c49f255b8b0a19f07ce2881ba924118f829060600160405180910390a1505b5050505050565b60008190506000816001600160a01b031663efa1c4826040518163ffffffff1660e01b815260040160006040518083038186803b158015612be657600080fd5b505afa158015612bfa573d6000803e3d6000fd5b505050506040513d6000823e601f3d908101601f19168201604052612c22919081019061316b565b8051604086015191925090811015612b9f576040850151600090612c469083612e3d565b90506000846001600160a01b03166347e405536040518163ffffffff1660e01b815260040160206040518083038186803b158015612c8357600080fd5b505afa158015612c97573d6000803e3d6000fd5b505050506040513d601f19601f82011682018060405250810190612cbb91906135bb565b905060005b82811015612dbf576000612d0f600a612d098460408051426020808301919091524482840152606080830194909452825180830390940184526080909101909152815191012090565b90612e49565b6040805160a0810182526001600160a01b038086168252600160208301528183018490526000606083015260808201879052915163092468bd60e11b8152929350849290918a1690631248d17a90612d6b908490600401613961565b600060405180830381600087803b158015612d8557600080fd5b505af1158015612d99573d6000803e3d6000fd5b50505050612da960018c8c6125fb565b5050508080612db790613d89565b915050612cc0565b5050505050505050565b80516a636f6e736f6c652e6c6f67602083016000808483855afa5050505050565b611e14838383604051602401612e02939291906137e5565b60408051601f198184030181529190526020810180516001600160e01b0316632ced7cef60e01b179052612dc9565b6000611ead8284613c5b565b6000611ead8284613d11565b6000611ead8284613da4565b5080546000825590600052602060002090810190612e739190612efa565b50565b828054612e8290613d54565b90600052602060002090601f016020900481019282612ea45760008555612eea565b82601f10612ebd57805160ff1916838001178555612eea565b82800160010185558215612eea579182015b82811115612eea578251825591602001919060010190612ecf565b50612ef6929150612efa565b5090565b5b80821115612ef65760008155600101612efb565b8035612f1a81613dfa565b919050565b8051612f1a81613dfa565b600082601f830112612f3a578081fd5b81516020612f4f612f4a83613c20565b613bf0565b80838252828201915082860187848660051b8901011115612f6e578586fd5b855b85811015612f95578151612f8381613dfa565b84529284019290840190600101612f70565b5090979650505050505050565b600082601f830112612fb2578081fd5b81516020612fc2612f4a83613c20565b80838252828201915082860187848660051b8901011115612fe1578586fd5b855b85811015612f9557815184529284019290840190600101612fe3565b600082601f83011261300f578081fd5b81356001600160401b0381111561302857613028613de4565b61303b601f8201601f1916602001613bf0565b81815284602083860101111561304f578283fd5b816020850160208301379081016020019190915292915050565b60006020828403121561307a578081fd5b8135611ead81613dfa565b600060208284031215613096578081fd5b8151611ead81613dfa565b600080604083850312156130b3578081fd5b82356130be81613dfa565b915060208301356130ce81613dfa565b809150509250929050565b60008060008060008060008060008060006101608c8e0312156130fa578687fd5b8b3561310581613dfa565b9a5060208c0135995060408c0135985060608c0135975060808c0135965060a08c0135955060c08c0135945060e08c013593506101008c013561314781613dfa565b809350506101208c013591506101408c013590509295989b509295989b9093969950565b60006020828403121561317c578081fd5b81516001600160401b03811115613191578182fd5b61040e84828501612f2a565b6000602082840312156131ae578081fd5b81518015158114611ead578182fd5b6000602082840312156131ce578081fd5b81356001600160401b038111156131e3578182fd5b61040e84828501612fff565b60008060408385031215613201578182fd5b82356001600160401b03811115613216578283fd5b61322285828601612fff565b92505060208301356130ce81613dfa565b600080828403610180811215613247578283fd5b83356001600160401b0381111561325c578384fd5b61326886828701612fff565b93505061016080601f198301121561327e578283fd5b613286613b82565b915061329460208601612f0f565b825260408501356020830152606085013560408301526080850135606083015260a0850135608083015260c085013560a083015260e085013560c08301526101008086013560e08401526101206132ec818801612f0f565b918401919091526101408681013591840191909152940135938101939093525092909150565b600060208284031215613323578081fd5b81516001600160401b0380821115613339578283fd5b908301906060828603121561334c578283fd5b613354613bab565b825182811115613362578485fd5b61336e87828601612f2a565b825250602083015182811115613382578485fd5b61338e87828601612fa2565b6020830152506040830151828111156133a5578485fd5b6133b187828601612fa2565b60408301525095945050505050565b6000602082840312156133d1578081fd5b81516001600160401b03808211156133e7578283fd5b9083019061014082860312156133fb578283fd5b613403613bcd565b8251815260208301516020820152604083015182811115613422578485fd5b61342e87828601612fa2565b604083015250606083015182811115613445578485fd5b61345187828601612f2a565b606083015250608083015182811115613468578485fd5b61347487828601612fa2565b60808301525060a08301518281111561348b578485fd5b61349787828601612fa2565b60a08301525060c083015160c082015260e0830151828111156134b8578485fd5b6134c487828601612f2a565b60e08301525061010080840151838111156134dd578586fd5b6134e988828701612fa2565b8284015250506101208084015183811115613502578586fd5b61350e88828701612f2a565b918301919091525095945050505050565b60006101608284031215613531578081fd5b613539613b82565b61354283612f1f565b81526020830151602082015260408301516040820152606083015160608201526080830151608082015260a083015160a082015260c083015160c082015260e083015160e0820152610100613598818501612f1f565b908201526101208381015190820152610140928301519281019290925250919050565b6000602082840312156135cc578081fd5b5051919050565b600080600080608085870312156135e8578182fd5b843593506020850135925060408501356001600160401b0381111561360b578283fd5b61361787828801612fff565b949793965093946060013593505050565b6000815180845260208085019450808401835b838110156136605781516001600160a01b03168752958201959082019060010161363b565b509495945050505050565b6000815180845260208085019450808401835b838110156136605781518752958201959082019060010161367e565b600081518084526136b2816020860160208601613d28565b601f01601f19169290920160200192915050565b600082516136d8818460208701613d28565b9190910192915050565b6001600160a01b039c8d1681529a8c1660208c015260408b019990995260608a0197909752608089019590955260a088019390935260c087019190915260e08601526101008501529093166101208301526101408201929092526101608101919091526101800190565b60018060a01b0385168152836020820152826040820152608060608201526000613779608083018461369a565b9695505050505050565b602081526000611ead602083018461369a565b6040815260006137a9604083018561369a565b905060018060a01b03831660208301529392505050565b6040815260006137d3604083018561369a565b82810360208401526115b4818561369a565b6060815260006137f8606083018661369a565b828103602084015261380a818661369a565b90508281036040840152613779818561369a565b604081526000613831604083018561369a565b90508260208301529392505050565b60a08152600061385360a083018861369a565b866020840152828103604084015261386b8187613628565b9050828103606084015261387f818661366b565b90508281036080840152613893818561366b565b98975050505050505050565b6060815260006138b2606083018661369a565b60208301949094525060400152919050565b6080815260006138d7608083018761369a565b6020830195909552506040810192909252606090910152919050565b60208082526019908201527f706c6561736520636865636b2074686520616464726573732100000000000000604082015260600190565b6020808252601b908201527f6d73672e73656e646572206973206e6f7420746865206f776e65720000000000604082015260600190565b81516001600160a01b0390811682526020808401519083015260408084015190830152606080840151909116908201526080918201519181019190915260a00190565b60208152600082516101a08060208501526139c36101c085018361369a565b91506020850151604085015260408501516060850152606085015160808501526080850151601f19808685030160a08701526139ff848361366b565b935060a08701519150808685030160c0870152613a1c8483613628565b935060c08701519150808685030160e0870152613a39848361366b565b935060e08701519150610100818786030181880152613a58858461366b565b945080880151925050610120818786030181880152613a778584613628565b945080880151925050610140818786030181880152613a96858461366b565b945080880151925050610160818786030181880152613ab5858461366b565b945080880151925050610180818786030181880152613ad48584613628565b908801518782039092018488015293509050613779838261366b565b81516001600160a01b0316815261016081016020830151602083015260408301516040830152606083015160608301526080830151608083015260a083015160a083015260c083015160c083015260e083015160e083015261010080840151613b63828501826001600160a01b03169052565b5050610120838101519083015261014092830151929091019190915290565b60405161016081016001600160401b0381118282101715613ba557613ba5613de4565b60405290565b604051606081016001600160401b0381118282101715613ba557613ba5613de4565b60405161014081016001600160401b0381118282101715613ba557613ba5613de4565b604051601f8201601f191681016001600160401b0381118282101715613c1857613c18613de4565b604052919050565b60006001600160401b03821115613c3957613c39613de4565b5060051b60200190565b60008219821115613c5657613c56613db8565b500190565b600082613c6a57613c6a613dce565b500490565b60006001600160ff1b0381841382841380821686840486111615613c9557613c95613db8565b600160ff1b84871282811687830589121615613cb357613cb3613db8565b858712925087820587128484161615613cce57613cce613db8565b87850587128184161615613ce457613ce4613db8565b505050929093029392505050565b6000816000190483118215151615613d0c57613d0c613db8565b500290565b600082821015613d2357613d23613db8565b500390565b60005b83811015613d43578181015183820152602001613d2b565b83811115611dc75750506000910152565b600181811c90821680613d6857607f821691505b602082108114156122a657634e487b7160e01b600052602260045260246000fd5b6000600019821415613d9d57613d9d613db8565b5060010190565b600082613db357613db3613dce565b500690565b634e487b7160e01b600052601160045260246000fd5b634e487b7160e01b600052601260045260246000fd5b634e487b7160e01b600052604160045260246000fd5b6001600160a01b0381168114612e7357600080fdfe7461626c65506f6f6c5b7461626c65416464726573735d2c2077696e416d6f756e74706f6f6c416d6f756e742c20726f756e64526573756c742e77696e6e6572732e6c656e677468726f756e642c20726f756e644e756d6265722c20726f756e64526573756c742e77696e6e6572416c6c436f756e74726f756e64526573756c742e6a61636b706f7457696e6e6572732e6c656e677468a26469706673582212207ba579e5b677314eb69d6ebf8eaa150d8c4da51dc85236bc5fae87f5e5ffdb1564736f6c63430008040033",
  "linkReferences": {},
  "deployedLinkReferences": {}
}