{
  "_format": "hh-sol-artifact-1",
  "contractName": "LotteryManagerV3",
  "sourceName": "contracts/LotteryManagerV3.sol",
  "abi": [
    {
      "inputs": [
        {
          "internalType": "address",
          "name": "_factory",
          "type": "address"
        },
        {
          "internalType": "address",
          "name": "_tokenAddress",
          "type": "address"
        }
      ],
      "stateMutability": "nonpayable",
      "type": "constructor"
    },
    {
      "anonymous": false,
      "inputs": [
        {
          "indexed": false,
          "internalType": "address",
          "name": "player",
          "type": "address"
        },
        {
          "indexed": false,
          "internalType": "address",
          "name": "banker",
          "type": "address"
        },
        {
          "indexed": false,
          "internalType": "uint256",
          "name": "amount",
          "type": "uint256"
        }
      ],
      "name": "BankerCommission",
      "type": "event"
    },
    {
      "anonymous": false,
      "inputs": [
        {
          "indexed": false,
          "internalType": "string",
          "name": "hash",
          "type": "string"
        }
      ],
      "name": "CreateTableIfNecessary",
      "type": "event"
    },
    {
      "anonymous": false,
      "inputs": [
        {
          "indexed": false,
          "internalType": "string",
          "name": "beforeHash",
          "type": "string"
        },
        {
          "indexed": false,
          "internalType": "string",
          "name": "newHash",
          "type": "string"
        }
      ],
      "name": "EditTable",
      "type": "event"
    },
    {
      "anonymous": false,
      "inputs": [
        {
          "indexed": false,
          "internalType": "string",
          "name": "hash",
          "type": "string"
        },
        {
          "indexed": false,
          "internalType": "uint256",
          "name": "round",
          "type": "uint256"
        },
        {
          "indexed": false,
          "internalType": "address[]",
          "name": "players",
          "type": "address[]"
        },
        {
          "indexed": false,
          "internalType": "uint256[]",
          "name": "numbers",
          "type": "uint256[]"
        },
        {
          "indexed": false,
          "internalType": "uint256[]",
          "name": "counts",
          "type": "uint256[]"
        }
      ],
      "name": "HoldingTicket",
      "type": "event"
    },
    {
      "anonymous": false,
      "inputs": [
        {
          "indexed": false,
          "internalType": "address",
          "name": "player",
          "type": "address"
        },
        {
          "indexed": false,
          "internalType": "uint256",
          "name": "count",
          "type": "uint256"
        },
        {
          "indexed": false,
          "internalType": "uint256",
          "name": "number",
          "type": "uint256"
        },
        {
          "indexed": false,
          "internalType": "string",
          "name": "hash",
          "type": "string"
        }
      ],
      "name": "JoinTable",
      "type": "event"
    },
    {
      "anonymous": false,
      "inputs": [
        {
          "indexed": false,
          "internalType": "string",
          "name": "hash",
          "type": "string"
        },
        {
          "indexed": false,
          "internalType": "uint256",
          "name": "coolDownTimeBlock",
          "type": "uint256"
        },
        {
          "indexed": false,
          "internalType": "uint256",
          "name": "notifyTimestamp",
          "type": "uint256"
        }
      ],
      "name": "NotifyCoolDownTime",
      "type": "event"
    },
    {
      "anonymous": false,
      "inputs": [
        {
          "indexed": false,
          "internalType": "address",
          "name": "player",
          "type": "address"
        },
        {
          "indexed": false,
          "internalType": "address",
          "name": "refer",
          "type": "address"
        },
        {
          "indexed": false,
          "internalType": "uint256",
          "name": "amount",
          "type": "uint256"
        }
      ],
      "name": "ReferCommission",
      "type": "event"
    },
    {
      "anonymous": false,
      "inputs": [
        {
          "indexed": false,
          "internalType": "string",
          "name": "hash",
          "type": "string"
        },
        {
          "indexed": false,
          "internalType": "uint256",
          "name": "round",
          "type": "uint256"
        },
        {
          "indexed": false,
          "internalType": "uint256",
          "name": "poolAmount",
          "type": "uint256"
        },
        {
          "indexed": false,
          "internalType": "uint256",
          "name": "roundNumber",
          "type": "uint256"
        },
        {
          "indexed": false,
          "internalType": "uint256[]",
          "name": "prizeNumbers",
          "type": "uint256[]"
        },
        {
          "indexed": false,
          "internalType": "address[]",
          "name": "roundWinnerArray",
          "type": "address[]"
        },
        {
          "indexed": false,
          "internalType": "uint256[]",
          "name": "winnerCount",
          "type": "uint256[]"
        },
        {
          "indexed": false,
          "internalType": "int256[]",
          "name": "rewards",
          "type": "int256[]"
        },
        {
          "indexed": false,
          "internalType": "address[]",
          "name": "allPlayers",
          "type": "address[]"
        },
        {
          "indexed": false,
          "internalType": "uint256[]",
          "name": "numbers",
          "type": "uint256[]"
        },
        {
          "indexed": false,
          "internalType": "uint256[]",
          "name": "counts",
          "type": "uint256[]"
        }
      ],
      "name": "StartRound",
      "type": "event"
    },
    {
      "inputs": [
        {
          "internalType": "address",
          "name": "newOwner",
          "type": "address"
        }
      ],
      "name": "changeOwner",
      "outputs": [
        {
          "internalType": "bool",
          "name": "result",
          "type": "bool"
        }
      ],
      "stateMutability": "nonpayable",
      "type": "function"
    },
    {
      "inputs": [
        {
          "internalType": "string",
          "name": "hash",
          "type": "string"
        },
        {
          "internalType": "address",
          "name": "newManagerContract",
          "type": "address"
        }
      ],
      "name": "changeTableManager",
      "outputs": [
        {
          "internalType": "bool",
          "name": "result",
          "type": "bool"
        }
      ],
      "stateMutability": "nonpayable",
      "type": "function"
    },
    {
      "inputs": [
        {
          "internalType": "address",
          "name": "creator",
          "type": "address"
        },
        {
          "internalType": "uint256",
          "name": "amount",
          "type": "uint256"
        },
        {
          "internalType": "uint256",
          "name": "minPPL",
          "type": "uint256"
        },
        {
          "internalType": "uint256",
          "name": "maxPPL",
          "type": "uint256"
        },
        {
          "internalType": "uint256",
          "name": "coolDownTime",
          "type": "uint256"
        },
        {
          "internalType": "uint256",
          "name": "gameTime",
          "type": "uint256"
        },
        {
          "internalType": "uint256",
          "name": "bankerCommission",
          "type": "uint256"
        },
        {
          "internalType": "uint256",
          "name": "referralCommission",
          "type": "uint256"
        },
        {
          "internalType": "address",
          "name": "bankerWallet",
          "type": "address"
        },
        {
          "internalType": "uint256",
          "name": "delayBlock",
          "type": "uint256"
        }
      ],
      "name": "createTableIfNecessary",
      "outputs": [
        {
          "internalType": "string",
          "name": "hashString",
          "type": "string"
        }
      ],
      "stateMutability": "payable",
      "type": "function"
    },
    {
      "inputs": [
        {
          "internalType": "string",
          "name": "hashString",
          "type": "string"
        },
        {
          "components": [
            {
              "internalType": "address",
              "name": "creator",
              "type": "address"
            },
            {
              "internalType": "uint256",
              "name": "amount",
              "type": "uint256"
            },
            {
              "internalType": "uint256",
              "name": "minPPL",
              "type": "uint256"
            },
            {
              "internalType": "uint256",
              "name": "maxPPL",
              "type": "uint256"
            },
            {
              "internalType": "uint256",
              "name": "coolDownTime",
              "type": "uint256"
            },
            {
              "internalType": "uint256",
              "name": "gameTime",
              "type": "uint256"
            },
            {
              "internalType": "uint256",
              "name": "bankerCommission",
              "type": "uint256"
            },
            {
              "internalType": "uint256",
              "name": "referralCommission",
              "type": "uint256"
            },
            {
              "internalType": "address",
              "name": "bankerWallet",
              "type": "address"
            },
            {
              "internalType": "uint256",
              "name": "delayBlocks",
              "type": "uint256"
            }
          ],
          "internalType": "struct ILotteryTableV3.TableInfo",
          "name": "tableInfo",
          "type": "tuple"
        }
      ],
      "name": "editTable",
      "outputs": [],
      "stateMutability": "nonpayable",
      "type": "function"
    },
    {
      "inputs": [],
      "name": "factory",
      "outputs": [
        {
          "internalType": "address",
          "name": "",
          "type": "address"
        }
      ],
      "stateMutability": "view",
      "type": "function"
    },
    {
      "inputs": [
        {
          "internalType": "string",
          "name": "hash",
          "type": "string"
        }
      ],
      "name": "getCoolDownTimeBlock",
      "outputs": [
        {
          "internalType": "uint256",
          "name": "coolDownTimeBlock",
          "type": "uint256"
        },
        {
          "internalType": "uint256",
          "name": "notifyTimestamp",
          "type": "uint256"
        }
      ],
      "stateMutability": "view",
      "type": "function"
    },
    {
      "inputs": [
        {
          "internalType": "string",
          "name": "hash",
          "type": "string"
        }
      ],
      "name": "holdingTicket",
      "outputs": [
        {
          "internalType": "string",
          "name": "tableHash",
          "type": "string"
        },
        {
          "internalType": "uint256",
          "name": "round",
          "type": "uint256"
        },
        {
          "internalType": "address[]",
          "name": "players",
          "type": "address[]"
        },
        {
          "internalType": "uint256[]",
          "name": "numbers",
          "type": "uint256[]"
        },
        {
          "internalType": "uint256[]",
          "name": "counts",
          "type": "uint256[]"
        }
      ],
      "stateMutability": "view",
      "type": "function"
    },
    {
      "inputs": [
        {
          "internalType": "uint256",
          "name": "count",
          "type": "uint256"
        },
        {
          "internalType": "uint256",
          "name": "number",
          "type": "uint256"
        },
        {
          "internalType": "string",
          "name": "hash",
          "type": "string"
        }
      ],
      "name": "joinTableV2",
      "outputs": [
        {
          "internalType": "bool",
          "name": "result",
          "type": "bool"
        }
      ],
      "stateMutability": "payable",
      "type": "function"
    },
    {
      "inputs": [
        {
          "internalType": "string",
          "name": "hash",
          "type": "string"
        }
      ],
      "name": "notifyCoolDownTime",
      "outputs": [
        {
          "internalType": "uint256",
          "name": "coolDownTimeBlock",
          "type": "uint256"
        }
      ],
      "stateMutability": "nonpayable",
      "type": "function"
    },
    {
      "inputs": [],
      "name": "owner",
      "outputs": [
        {
          "internalType": "address",
          "name": "",
          "type": "address"
        }
      ],
      "stateMutability": "view",
      "type": "function"
    },
    {
      "inputs": [
        {
          "internalType": "address",
          "name": "a",
          "type": "address"
        },
        {
          "internalType": "address",
          "name": "b",
          "type": "address"
        }
      ],
      "name": "referral",
      "outputs": [
        {
          "internalType": "bool",
          "name": "result",
          "type": "bool"
        }
      ],
      "stateMutability": "nonpayable",
      "type": "function"
    },
    {
      "inputs": [
        {
          "internalType": "string",
          "name": "hash",
          "type": "string"
        }
      ],
      "name": "startRoundV2",
      "outputs": [
        {
          "internalType": "bool",
          "name": "",
          "type": "bool"
        }
      ],
      "stateMutability": "payable",
      "type": "function"
    }
  ],
  "bytecode": "0x60a06040523480156200001157600080fd5b50604051620035b9380380620035b9833981016040819052620000349162000097565b6001600160601b031960609290921b91909116608052600080546001600160a01b03929092166001600160a01b03199283161790556001805490911633179055620000ce565b80516001600160a01b03811681146200009257600080fd5b919050565b60008060408385031215620000aa578182fd5b620000b5836200007a565b9150620000c5602084016200007a565b90509250929050565b60805160601c6134be620000fb6000396000818161020101528181611385015261144501526134be6000f3fe6080604052600436106100a75760003560e01c8063a4565dd711610064578063a4565dd714610181578063a6f9dae1146101af578063b50c83bc146101cf578063c45a0155146101ef578063efc50bcc14610223578063f2901e681461025457600080fd5b80631c505d1d146100ac578063225276c8146100e15780633818aa7d146100f457806338afd4c5146101165780635433f103146101365780638da5cb5b14610149575b600080fd5b3480156100b857600080fd5b506100cc6100c73660046127a0565b610289565b60405190151581526020015b60405180910390f35b6100cc6100ef3660046128b1565b610336565b34801561010057600080fd5b5061011461010f366004612927565b610c97565b005b34801561012257600080fd5b506100cc6101313660046128e3565b610dec565b6100cc610144366004612c89565b610eea565b34801561015557600080fd5b50600154610169906001600160a01b031681565b6040516001600160a01b0390911681526020016100d8565b34801561018d57600080fd5b506101a161019c3660046128b1565b611176565b6040519081526020016100d8565b3480156101bb57600080fd5b506100cc6101ca366004612768565b61128c565b6101e26101dd3660046127d8565b6112dd565b6040516100d89190612e25565b3480156101fb57600080fd5b506101697f000000000000000000000000000000000000000000000000000000000000000081565b34801561022f57600080fd5b5061024361023e3660046128b1565b611647565b6040516100d8959493929190612ee2565b34801561026057600080fd5b5061027461026f3660046128b1565b6117ae565b604080519283526020830191909152016100d8565b6001546000906001600160a01b031633146102bf5760405162461bcd60e51b81526004016102b690613093565b60405180910390fd5b6001600160a01b0383166102d257600080fd5b6001600160a01b0382166102e557600080fd5b816001600160a01b0316836001600160a01b0316141561030457600080fd5b506001600160a01b03918216600090815260026020526040902080546001600160a01b03191691909216179055600190565b6001546000906001600160a01b031633146103635760405162461bcd60e51b81526004016102b690613093565b81600a816040516103749190612d74565b9081526040519081900360200190205460ff16156103cb5760405162461bcd60e51b8152602060048201526014602482015273139bc81c994b595b9d1c985b98de481c9bdd5b9960621b60448201526064016102b6565b6001600a826040516103dd9190612d74565b908152604051908190036020018120805492151560ff199093169290921790915560009060039061040f908690612d74565b908152604051908190036020019020546001600160a01b03169050806104475760405162461bcd60e51b81526004016102b69061305c565b60008190506000816001600160a01b0316635f2d82ea6040518163ffffffff1660e01b81526004016101406040518083038186803b15801561048857600080fd5b505afa15801561049c573d6000803e3d6000fd5b505050506040513d601f19601f820116820180604052508101906104c09190612be0565b90506104cc8184611829565b6001600160a01b038316600090815260076020526040902054806105325760405162461bcd60e51b815260206004820152601760248201527f77726f6e6720636f6f6c446f776e54696d65426c6f636b00000000000000000060448201526064016102b6565b6040516395805dad60e01b8152600481018290526000906001600160a01b038516906395805dad90602401600060405180830381600087803b15801561057757600080fd5b505af115801561058b573d6000803e3d6000fd5b505050506040513d6000823e601f3d908101601f191682016040526105b39190810190612aa6565b90506105e26040518060600160405280602e815260200161345b602e91398251602084015160c08501516119d0565b600060056000876001600160a01b03166001600160a01b0316815260200190815260200160002054905061063460405180606001604052806026815260200161343560269139828460e0015151611a1f565b60008061064e8460c0015184611a6b90919063ffffffff16565b915091506106826040518060400160405280600e81526020016d1bdb99541a5958d954995dd85c9960921b81525082611aaa565b60005b84606001515181101561079c5760008560200151866080015183815181106106bd57634e487b7160e01b600052603260045260246000fd5b60200260200101511415610710576107098660a0015183815181106106f257634e487b7160e01b600052603260045260246000fd5b602002602001015184611af390919063ffffffff16565b9050610761565b6107528660a00151838151811061073757634e487b7160e01b600052603260045260246000fd5b60200260200101518960200151611af390919063ffffffff16565b61075e90600019613272565b90505b6001600160a01b038a1660009081526006602090815260408220805460018101825590835291200155806107948161338c565b915050610685565b5060e08401515161084c576001600160a01b038881166000908152600560205260408082208290559054610100890151915163a9059cbb60e01b81529183166004830152602482018690529091169063a9059cbb90604401602060405180830381600087803b15801561080e57600080fd5b505af1158015610822573d6000803e3d6000fd5b505050506040513d601f19601f820116820180604052508101906108469190612891565b50610b2e565b60005b8460e0015151811015610b2c5760008560e00151828151811061088257634e487b7160e01b600052603260045260246000fd5b60200260200101519050600086610100015183815181106108b357634e487b7160e01b600052603260045260246000fd5b6020026020010151905060006108d28286611af390919063ffffffff16565b905061090f604051806060016040528060228152602001613413602291396001600160a01b038e1660009081526005602052604090205483611a1f565b6001600160a01b038c166000908152600560205260409020548111156109835760405162461bcd60e51b8152602060048201526024808201527f7461626c6520706f6f6c206e6f7420656e6f75676820666f722077696e416d6f604482015263756e742160e01b60648201526084016102b6565b6001600160a01b038c16600090815260056020526040812080548392906109ab908490613314565b9091555050633b9aca006001600160a01b0384161015610a8e57610a046040518060400160405280601a81526020017f77696e6e657220697320726f626f742c2077696e416d6f756e7400000000000081525082611aaa565b60005460405163a9059cbb60e01b8152336004820152602481018390526001600160a01b039091169063a9059cbb90604401602060405180830381600087803b158015610a5057600080fd5b505af1158015610a64573d6000803e3d6000fd5b505050506040513d601f19601f82011682018060405250810190610a889190612891565b50610b16565b60005460405163a9059cbb60e01b81526001600160a01b038581166004830152602482018490529091169063a9059cbb90604401602060405180830381600087803b158015610adc57600080fd5b505af1158015610af0573d6000803e3d6000fd5b505050506040513d601f19601f82011682018060405250810190610b149190612891565b505b5050508080610b249061338c565b91505061084f565b505b610b3788611b06565b506001600160a01b038816600090815260066020908152604080832080548251818502810185019093528083529192909190830182828015610b9857602002820191906000526020600020905b815481526020019060010190808311610b84575b505050505090507f8daddefa871dbbbd880b6b7c86b38d78ca26fc0f0ffa33d9b36d03d1bf3580528c866000015186886020015189604001518a60e001518b6101000151888d606001518e608001518f60a00151604051610c039b9a99989796959493929190612f95565b60405180910390a1506001600160a01b0388166000908152600660205260408120610c2d91612554565b5050506001600160a01b039094166000908152600760209081526040808320839055600890915281205550600194505050506000600a82604051610c719190612d74565b908152604051908190036020019020805491151560ff1990921691909117905550919050565b6001546001600160a01b03163314610cc15760405162461bcd60e51b81526004016102b690613093565b6000600383604051610cd39190612d74565b908152604051908190036020019020546001600160a01b0316905080610d525760405162461bcd60e51b815260206004820152602e60248201527f4e6f207461626c6520776974682074686520686173682c20706c65617365206360448201526d6865636b2074686520686173682160901b60648201526084016102b6565b6001600160a01b03908116600090815260096020818152604092839020855181549086166001600160a01b0319918216178255918601516001820155928501516002840155606085015160038401556080850151600484015560a0850151600584015560c0850151600684015560e08501516007840155610100850151600884018054919095169116179092556101209092015191015550565b6001546000906001600160a01b03163314610e195760405162461bcd60e51b81526004016102b690613093565b6000600384604051610e2b9190612d74565b908152604051908190036020019020546001600160a01b0316905080610e635760405162461bcd60e51b81526004016102b69061305c565b6040516351fddd5760e11b81526001600160a01b03848116600483015282919082169063a3fbbaae90602401602060405180830381600087803b158015610ea957600080fd5b505af1158015610ebd573d6000803e3d6000fd5b505050506040513d601f19601f82011682018060405250810190610ee19190612891565b95945050505050565b600080600383604051610efd9190612d74565b908152604051908190036020019020546001600160a01b0316905080610f7c5760405162461bcd60e51b815260206004820152602e60248201527f6e6f207461626c6520776974682074686520686173682c20706c65617365206360448201526d6865636b2074686520686173682160901b60648201526084016102b6565b6001600160a01b0381166000908152600760205260409020548015801590610fa45750804310155b156110105760405162461bcd60e51b815260206004820152603660248201527f6172726976656420636f6f6c20646f776e2074696d6520626c6f636b2c2063616044820152756e206e6f74206a6f696e207468697320726f756e642160501b60648201526084016102b6565b336000818152600260209081526040918290205482516080810184529384529083018990528282018890526001600160a01b0390811660608401819052915163796ab25d60e01b815291928592909183169063796ab25d906110769084906004016130ca565b600060405180830381600087803b15801561109057600080fd5b505af11580156110a4573d6000803e3d6000fd5b505050506000826001600160a01b0316635f2d82ea6040518163ffffffff1660e01b81526004016101406040518083038186803b1580156110e457600080fd5b505afa1580156110f8573d6000803e3d6000fd5b505050506040513d601f19601f8201168201806040525081019061111c9190612be0565b90506111298a8288611ecb565b7f08b584e6aceb13e620c46e9d7288284e3b3a1c9dce5ca8e843559f5c4c8456a7338b8b8b60405161115e9493929190612dee565b60405180910390a15060019998505050505050505050565b6001546000906001600160a01b031633146111a35760405162461bcd60e51b81526004016102b690613093565b60006003836040516111b59190612d74565b908152604051908190036020019020546001600160a01b03169050806111ed5760405162461bcd60e51b81526004016102b69061305c565b43915061121e6040518060400160405280600c81526020016b313637b1b597373ab6b132b960a11b81525083611aaa565b6001600160a01b0381166000908152600760209081526040808320859055600890915290819020429081905590517fa69882baf66ab5e3584e5e8a7132a5d8f524b440db857ffdfa994cdabd944fee9061127d90869086908590612f41565b60405180910390a15050919050565b6001546000906001600160a01b031633146112b95760405162461bcd60e51b81526004016102b690613093565b50600180546001600160a01b0319166001600160a01b039290921691909117815590565b6001546060906001600160a01b0316331461130a5760405162461bcd60e51b81526004016102b690613093565b6001546001600160a01b031633146113815760405162461bcd60e51b815260206004820152603460248201527f4f6e6c7920636f6e7472616374206f776e657220697320616c6c6f7765642074604482015273379031b0b636103a3434b990333ab731ba34b7b760611b60648201526084016102b6565b60007f00000000000000000000000000000000000000000000000000000000000000006001600160a01b031663b6147fbc308e8e8e8e8e8e8e8e8e8e6040518c63ffffffff1660e01b81526004016113e39b9a99989796959493929190612d90565b60206040518083038186803b1580156113fb57600080fd5b505afa15801561140f573d6000803e3d6000fd5b505050506040513d601f19601f820116820180604052508101906114339190612784565b90506001600160a01b0381166114f8577f00000000000000000000000000000000000000000000000000000000000000006001600160a01b031663447c9d04308e8e8e8e8e8e8e8e8e8e6040518c63ffffffff1660e01b81526004016114a39b9a99989796959493929190612d90565b602060405180830381600087803b1580156114bd57600080fd5b505af11580156114d1573d6000803e3d6000fd5b505050506040513d601f19601f820116820180604052508101906114f59190612784565b90505b6000308d8d8d8d8d8d8d8d8d8d60405160200161151f9b9a99989796959493929190612d90565b6040516020818303038152906040528051906020012060001c90506115438161231d565b9250816003846040516115569190612d74565b908152604080516020928190038301902080546001600160a01b0319166001600160a01b0394851617905591841660009081526004825291909120845161159f92860190612575565b506115cb604051806040016040528060098152602001683a30b136329034b99d60b91b8152508361243e565b611600604051806040016040528060138152602001727461626c652068617368537472696e6720697360681b81525084612483565b7ffeadb03e5864c7ba3800506584c86f9177a7d4a3547a3db6021574c3a678b3d18360405161162f9190612e25565b60405180910390a150509a9950505050505050505050565b60606000606080606060006003876040516116629190612d74565b908152604051908190036020019020546001600160a01b031690508061169a5760405162461bcd60e51b81526004016102b69061305c565b60008190506000816001600160a01b03166384bc76a66040518163ffffffff1660e01b815260040160006040518083038186803b1580156116da57600080fd5b505afa1580156116ee573d6000803e3d6000fd5b505050506040513d6000823e601f3d908101601f1916820160405261171691908101906129f8565b90506000826001600160a01b03166347e405536040518163ffffffff1660e01b815260040160206040518083038186803b15801561175357600080fd5b505afa158015611767573d6000803e3d6000fd5b505050506040513d601f19601f8201168201806040525081019061178b9190612c71565b825160208401516040909401519b9c919b909a5092985091965090945050505050565b60008060006003846040516117c39190612d74565b908152604051908190036020019020546001600160a01b03169050806117fb5760405162461bcd60e51b81526004016102b69061305c565b6001600160a01b03166000908152600760209081526040808320546008909252909120549094909350915050565b60008190506000816001600160a01b031663efa1c4826040518163ffffffff1660e01b815260040160006040518083038186803b15801561186957600080fd5b505afa15801561187d573d6000803e3d6000fd5b505050506040513d6000823e601f3d908101601f191682016040526118a5919081019061285f565b80516040860151919250908110156119c95760408501516000906118c990836124c8565b905060005b818110156119c657600061191d600a6119178460408051426020808301919091524482840152606080830194909452825180830390940184526080909101909152815191012090565b906124d4565b604080516080810182526001600160a01b0380861682526001602083015281830184905260006060830152915163796ab25d60e01b81529293508492909189169063796ab25d906119729084906004016130ca565b600060405180830381600087803b15801561198c57600080fd5b505af11580156119a0573d6000803e3d6000fd5b505050506119b060018b8b611ecb565b50505080806119be9061338c565b9150506118ce565b50505b5050505050565b611a19848484846040516024016119ea9493929190612f66565b60408051601f198184030181529190526020810180516001600160e01b03166304772b3360e11b1790526124e0565b50505050565b611a66838383604051602401611a3793929190612f41565b60408051601f198184030181529190526020810180516001600160e01b031663969cdd0360e01b1790526124e0565b505050565b60008082611a7e57506000905080611aa3565b6001838581611a9d57634e487b7160e01b600052601260045260246000fd5b04915091505b9250929050565b611aef8282604051602401611ac0929190612ec0565b60408051601f198184030181529190526020810180516001600160e01b03166309710a9d60e41b1790526124e0565b5050565b6000611aff82846132f5565b9392505050565b6001600160a01b038082166000908152600960208181526040808420815161014081018352815487168082526001830154948201949094526002820154928101929092526003810154606083015260048101546080830152600581015460a0830152600681015460c0830152600781015460e08301526008810154909516610100820152939091015461012084015290919015611ebc576001600160a01b03831660009081526004602052604081208054611bc090613357565b80601f0160208091040260200160405190810160405280929190818152602001828054611bec90613357565b8015611c395780601f10611c0e57610100808354040283529160200191611c39565b820191906000526020600020905b815481529060010190602001808311611c1c57829003601f168201915b505060405163cbddd8a960e01b815293945087936001600160a01b038516935063cbddd8a99250611c6f91508690600401613101565b600060405180830381600087803b158015611c8957600080fd5b505af1158015611c9d573d6000803e3d6000fd5b505050506000836000015184602001518560400151866060015187608001518860a001518960c001518a60e001518b6101000151604051602001611d30999897969594939291906001600160a01b03998a168152602081019890985260408801969096526060870194909452608086019290925260a085015260c084015260e08301529091166101008201526101200190565b6040516020818303038152906040528051906020012060001c9050856003611d578361231d565b604051611d649190612d74565b90815260405190819003602001902080546001600160a01b03929092166001600160a01b0319909216919091179055611d9c8161231d565b6001600160a01b03871660009081526004602090815260409091208251611dc99391929190910190612575565b506001600160a01b038616600090815260096020818152604080842080546001600160a01b03199081168255600182018690556002820186905560038201869055600482018690556005820186905560068201869055600782018690556008820180549091169055909201929092558051808201909152600d81526c3132b337b932961030b33a32b960991b91810191909152611e6f9084611e6a8461231d565b612501565b7fe3e57a24b8f74d2723608b23c0f9b294b5919b85093bade5338255ac2f90355683611e9a8361231d565b604051611ea8929190612e62565b60405180910390a150600195945050505050565b50600092915050565b50919050565b6000611ee4836020015185611af390919063ffffffff16565b6000546040516323b872dd60e01b8152336004820152306024820152604481018390529192506001600160a01b0316906323b872dd90606401602060405180830381600087803b158015611f3757600080fd5b505af1158015611f4b573d6000803e3d6000fd5b505050506040513d601f19601f82011682018060405250810190611f6f9190612891565b506001600160a01b03821660009081526005602052604081208054839290611f98908490613246565b909155505060c08301511561214e5760c0830151600090611fc590611fbf84612710612548565b90611af3565b6001600160a01b0384166000908152600560205260409020549091508111156120445760405162461bcd60e51b815260206004820152602b60248201527f5461626c6520706f6f6c206e6f7420656e6f75676820666f722062616e6b657260448201526a436f6d6d697373696f6e2160a81b60648201526084016102b6565b6001600160a01b0383166000908152600560205260408120805483929061206c908490613314565b909155505060005461010085015160405163a9059cbb60e01b81526001600160a01b0391821660048201526024810184905291169063a9059cbb90604401602060405180830381600087803b1580156120c457600080fd5b505af11580156120d8573d6000803e3d6000fd5b505050506040513d601f19601f820116820180604052508101906120fc9190612891565b50610100840151604080513381526001600160a01b03909216602083015281018290527fda5163f4fef80ed29382eca50bb83c0bd880a912e0ad6adf0d4389fa62481a639060600160405180910390a1505b336000908152600260205260409020546001600160a01b0316801580159061217a575060008460e00151115b156119c95760e084015160009061219790611fbf85612710612548565b6001600160a01b0385166000908152600560205260409020549091508111156122185760405162461bcd60e51b815260206004820152602d60248201527f5461626c6520706f6f6c206e6f7420656e6f75676820666f722072656665727260448201526c616c436f6d6d697373696f6e2160981b60648201526084016102b6565b6001600160a01b03841660009081526005602052604081208054839290612240908490613314565b909155505060005460405163a9059cbb60e01b81526001600160a01b038481166004830152602482018490529091169063a9059cbb90604401602060405180830381600087803b15801561229357600080fd5b505af11580156122a7573d6000803e3d6000fd5b505050506040513d601f19601f820116820180604052508101906122cb9190612891565b50604080513381526001600160a01b03841660208201529081018290527fa97b13b2cce63d44be7b27fdf4d8e0c49f255b8b0a19f07ce2881ba924118f829060600160405180910390a1505050505050565b6060816123415750506040805180820190915260018152600360fc1b602082015290565b8160005b811561236b57806123558161338c565b91506123649050600a8361325e565b9150612345565b6000816001600160401b0381111561239357634e487b7160e01b600052604160045260246000fd5b6040519080825280601f01601f1916602001820160405280156123bd576020820181803683370190505b5090505b8415612436576123d2600183613314565b91506123df600a866133a7565b6123ea906030613246565b60f81b81838151811061240d57634e487b7160e01b600052603260045260246000fd5b60200101906001600160f81b031916908160001a90535061242f600a8661325e565b94506123c1565b949350505050565b611aef8282604051602401612454929190612e38565b60408051601f198184030181529190526020810180516001600160e01b031663319af33360e01b1790526124e0565b611aef8282604051602401612499929190612e62565b60408051601f198184030181529190526020810180516001600160e01b0316634b5c427760e01b1790526124e0565b6000611aff8284613314565b6000611aff82846133a7565b80516a636f6e736f6c652e6c6f67602083016000808483855afa5050505050565b611a6683838360405160240161251993929190612e87565b60408051601f198184030181529190526020810180516001600160e01b0316632ced7cef60e01b1790526124e0565b6000611aff828461325e565b508054600082559060005260206000209081019061257291906125f9565b50565b82805461258190613357565b90600052602060002090601f0160209004810192826125a357600085556125e9565b82601f106125bc57805160ff19168380011785556125e9565b828001600101855582156125e9579182015b828111156125e95782518255916020019190600101906125ce565b506125f59291506125f9565b5090565b5b808211156125f557600081556001016125fa565b8035612619816133fd565b919050565b8051612619816133fd565b600082601f830112612639578081fd5b8151602061264e61264983613223565b6131f3565b80838252828201915082860187848660051b890101111561266d578586fd5b855b85811015612694578151612682816133fd565b8452928401929084019060010161266f565b5090979650505050505050565b600082601f8301126126b1578081fd5b815160206126c161264983613223565b80838252828201915082860187848660051b89010111156126e0578586fd5b855b85811015612694578151845292840192908401906001016126e2565b600082601f83011261270e578081fd5b81356001600160401b03811115612727576127276133e7565b61273a601f8201601f19166020016131f3565b81815284602083860101111561274e578283fd5b816020850160208301379081016020019190915292915050565b600060208284031215612779578081fd5b8135611aff816133fd565b600060208284031215612795578081fd5b8151611aff816133fd565b600080604083850312156127b2578081fd5b82356127bd816133fd565b915060208301356127cd816133fd565b809150509250929050565b6000806000806000806000806000806101408b8d0312156127f7578586fd5b8a35612802816133fd565b995060208b0135985060408b0135975060608b0135965060808b0135955060a08b0135945060c08b0135935060e08b013592506101008b0135612844816133fd565b809250506101208b013590509295989b9194979a5092959850565b600060208284031215612870578081fd5b81516001600160401b03811115612885578182fd5b61243684828501612629565b6000602082840312156128a2578081fd5b81518015158114611aff578182fd5b6000602082840312156128c2578081fd5b81356001600160401b038111156128d7578182fd5b612436848285016126fe565b600080604083850312156128f5578182fd5b82356001600160401b0381111561290a578283fd5b612916858286016126fe565b92505060208301356127cd816133fd565b60008082840361016081121561293b578283fd5b83356001600160401b03811115612950578384fd5b61295c868287016126fe565b93505061014080601f1983011215612972578283fd5b61297a613185565b91506129886020860161260e565b825260408501356020830152606085013560408301526080850135606083015260a0850135608083015260c085013560a083015260e085013560c08301526101008086013560e08401526101206129e081880161260e565b91840191909152940135938101939093525092909150565b600060208284031215612a09578081fd5b81516001600160401b0380821115612a1f578283fd5b9083019060608286031215612a32578283fd5b612a3a6131ae565b825182811115612a48578485fd5b612a5487828601612629565b825250602083015182811115612a68578485fd5b612a74878286016126a1565b602083015250604083015182811115612a8b578485fd5b612a97878286016126a1565b60408301525095945050505050565b600060208284031215612ab7578081fd5b81516001600160401b0380821115612acd578283fd5b908301906101208286031215612ae1578283fd5b612ae96131d0565b8251815260208301516020820152604083015182811115612b08578485fd5b612b14878286016126a1565b604083015250606083015182811115612b2b578485fd5b612b3787828601612629565b606083015250608083015182811115612b4e578485fd5b612b5a878286016126a1565b60808301525060a083015182811115612b71578485fd5b612b7d878286016126a1565b60a08301525060c083015160c082015260e083015182811115612b9e578485fd5b612baa87828601612629565b60e0830152506101008084015183811115612bc3578586fd5b612bcf888287016126a1565b918301919091525095945050505050565b60006101408284031215612bf2578081fd5b612bfa613185565b612c038361261e565b81526020830151602082015260408301516040820152606083015160608201526080830151608082015260a083015160a082015260c083015160c082015260e083015160e0820152610100612c5981850161261e565b90820152610120928301519281019290925250919050565b600060208284031215612c82578081fd5b5051919050565b600080600060608486031215612c9d578081fd5b833592506020840135915060408401356001600160401b03811115612cc0578182fd5b612ccc868287016126fe565b9150509250925092565b6000815180845260208085019450808401835b83811015612d0e5781516001600160a01b031687529582019590820190600101612ce9565b509495945050505050565b6000815180845260208085019450808401835b83811015612d0e57815187529582019590820190600101612d2c565b60008151808452612d6081602086016020860161332b565b601f01601f19169290920160200192915050565b60008251612d8681846020870161332b565b9190910192915050565b6001600160a01b039b8c168152998b1660208b015260408a01989098526060890196909652608088019490945260a087019290925260c086015260e08501526101008401529092166101208201526101408101919091526101600190565b60018060a01b0385168152836020820152826040820152608060608201526000612e1b6080830184612d48565b9695505050505050565b602081526000611aff6020830184612d48565b604081526000612e4b6040830185612d48565b905060018060a01b03831660208301529392505050565b604081526000612e756040830185612d48565b8281036020840152610ee18185612d48565b606081526000612e9a6060830186612d48565b8281036020840152612eac8186612d48565b90508281036040840152612e1b8185612d48565b604081526000612ed36040830185612d48565b90508260208301529392505050565b60a081526000612ef560a0830188612d48565b8660208401528281036040840152612f0d8187612cd6565b90508281036060840152612f218186612d19565b90508281036080840152612f358185612d19565b98975050505050505050565b606081526000612f546060830186612d48565b60208301949094525060400152919050565b608081526000612f796080830187612d48565b6020830195909552506040810192909252606090910152919050565b6000610160808352612fa98184018f612d48565b90508c60208401528b60408401528a60608401528281036080840152612fcf818b612d19565b905082810360a0840152612fe3818a612cd6565b905082810360c0840152612ff78189612d19565b905082810360e084015261300b8188612d19565b90508281036101008401526130208187612cd6565b90508281036101208401526130358186612d19565b905082810361014084015261304a8185612d19565b9e9d5050505050505050505050505050565b60208082526019908201527f706c6561736520636865636b2074686520616464726573732100000000000000604082015260600190565b6020808252601b908201527f6d73672e73656e646572206973206e6f7420746865206f776e65720000000000604082015260600190565b81516001600160a01b0390811682526020808401519083015260408084015190830152606092830151169181019190915260800190565b81516001600160a01b0316815261014081016020830151602083015260408301516040830152606083015160608301526080830151608083015260a083015160a083015260c083015160c083015260e083015160e083015261010080840151613174828501826001600160a01b03169052565b505061012092830151919092015290565b60405161014081016001600160401b03811182821017156131a8576131a86133e7565b60405290565b604051606081016001600160401b03811182821017156131a8576131a86133e7565b60405161012081016001600160401b03811182821017156131a8576131a86133e7565b604051601f8201601f191681016001600160401b038111828210171561321b5761321b6133e7565b604052919050565b60006001600160401b0382111561323c5761323c6133e7565b5060051b60200190565b60008219821115613259576132596133bb565b500190565b60008261326d5761326d6133d1565b500490565b60006001600160ff1b0381841382841380821686840486111615613298576132986133bb565b600160ff1b848712828116878305891216156132b6576132b66133bb565b8587129250878205871284841616156132d1576132d16133bb565b878505871281841616156132e7576132e76133bb565b505050929093029392505050565b600081600019048311821515161561330f5761330f6133bb565b500290565b600082821015613326576133266133bb565b500390565b60005b8381101561334657818101518382015260200161332e565b83811115611a195750506000910152565b600181811c9082168061336b57607f821691505b60208210811415611ec557634e487b7160e01b600052602260045260246000fd5b60006000198214156133a0576133a06133bb565b5060010190565b6000826133b6576133b66133d1565b500690565b634e487b7160e01b600052601160045260246000fd5b634e487b7160e01b600052601260045260246000fd5b634e487b7160e01b600052604160045260246000fd5b6001600160a01b038116811461257257600080fdfe7461626c65506f6f6c5b7461626c65416464726573735d2c2077696e416d6f756e74706f6f6c416d6f756e742c20726f756e64526573756c742e77696e6e6572732e6c656e677468726f756e642c20726f756e644e756d6265722c20726f756e64526573756c742e77696e6e6572416c6c436f756e74a2646970667358221220ece7495caed637628592d5adf4de32a5602afabdca73799a73e6591cb5c50a3664736f6c63430008040033",
  "linkReferences": {},
  "deployedLinkReferences": {}
}