{
  "_format": "hh-sol-artifact-1",
  "contractName": "TableAddress",
  "sourceName": "contracts/libraries/TableAddress.sol",
  "abi": [
    {
      "inputs": [
        {
          "internalType": "address",
          "name": "factory",
          "type": "address"
        },
        {
          "components": [
            {
              "internalType": "address",
              "name": "factory",
              "type": "address"
            },
            {
              "internalType": "address",
              "name": "creator",
              "type": "address"
            },
            {
              "internalType": "uint256",
              "name": "amount",
              "type": "uint256"
            },
            {
              "internalType": "uint256",
              "name": "minPPL",
              "type": "uint256"
            },
            {
              "internalType": "uint256",
              "name": "maxPPL",
              "type": "uint256"
            },
            {
              "internalType": "uint256",
              "name": "coolDownTime",
              "type": "uint256"
            },
            {
              "internalType": "uint256",
              "name": "gameTime",
              "type": "uint256"
            },
            {
              "internalType": "uint256",
              "name": "bankerCommission",
              "type": "uint256"
            },
            {
              "internalType": "uint256",
              "name": "referralCommission",
              "type": "uint256"
            },
            {
              "internalType": "address",
              "name": "bankerWallet",
              "type": "address"
            }
          ],
          "internalType": "struct TableAddress.TableKey",
          "name": "key",
          "type": "tuple"
        }
      ],
      "name": "computeAddressV1",
      "outputs": [
        {
          "internalType": "address",
          "name": "table",
          "type": "address"
        }
      ],
      "stateMutability": "pure",
      "type": "function"
    }
  ],
  "bytecode": "0x6122c961003a600b82828239805160001a60731461002d57634e487b7160e01b600052600060045260246000fd5b30600052607381538281f3fe73000000000000000000000000000000000000000030146080604052600436106100355760003560e01c806354363abe1461003a575b600080fd5b61004d6100483660046101c8565b610069565b6040516001600160a01b03909116815260200160405180910390f35b60008282602001518360400151846060015185608001518660a001518760c001518860e001518961010001518a61012001516040516020016100fa999897969594939291906001600160a01b03998a168152602081019890985260408801969096526060870194909452608086019290925260a085015260c084015260e08301529091166101008201526101200190565b60405160208183030381529060405280519060200120604051806020016101209061019f565b6020820181038252601f19601f8201166040525080519060200120604051602001610180939291906001600160f81b0319815260609390931b6bffffffffffffffffffffffff191660018401526015830191909152603582015260550190565b60408051601f1981840301815291905280516020909101209392505050565b611fd4806102c083390190565b80356001600160a01b03811681146101c357600080fd5b919050565b6000808284036101608112156101dc578283fd5b6101e5846101ac565b925061014080601f19830112156101fa578283fd5b610202610287565b9150610210602086016101ac565b825261021e604086016101ac565b6020830152606085013560408301526080850135606083015260a0850135608083015260c085013560a083015260e085013560c08301526101008086013560e084015261012080870135828501526102778388016101ac565b9084015250929590945092505050565b604051610140810167ffffffffffffffff811182821017156102b957634e487b7160e01b600052604160045260246000fd5b6040529056fe60a06040526040516200001290620001d8565b604051809103906000f0801580156200002f573d6000803e3d6000fd5b50600a80546001600160a01b0319166001600160a01b03929092169190911790553480156200005d57600080fd5b50600080546001600160a01b03191673337610d27c682e347c9cd60bd4b3b107c9d34ddd178155604080516352f508ed60e11b81529051339163a5ea11da91600480830192610140929190829003018186803b158015620000bd57600080fd5b505afa158015620000d2573d6000803e3d6000fd5b505050506040513d601f19601f82011682018060405250810190620000f8919062000203565b80516001600160601b0319606091821b1660809081526040805161012080820183526020808701516001600160a01b039081168085528589018051938601849052888a0151968601879052878a01519886018990525196850187905260c0808a015160a0870181905260e0808c0151928801839052610100808d015191890182905296909b015190931694909501849052600180546001600160a01b0319908116909217905560029290925560039490945560049590955560059390935560069190915560075560089290925560098054909116909117905550620002db565b61060980620019cb83390190565b80516001600160a01b0381168114620001fe57600080fd5b919050565b6000610140828403121562000216578081fd5b62000220620002a3565b6200022b83620001e6565b81526200023b60208401620001e6565b602082015260408301516040820152606083015160608201526080830151608082015260a083015160a082015260c083015160c082015260e083015160e082015261010080840151818301525061012062000298818501620001e6565b908201529392505050565b60405161014081016001600160401b0381118282101715620002d557634e487b7160e01b600052604160045260246000fd5b60405290565b60805160601c6116d2620002f96000396000606001526116d26000f3fe60806040526004361061003f5760003560e01c8063be9a655514610044578063c45a01551461004e578063d707a2c41461009f578063fbe9161314610132575b600080fd5b61004c610145565b005b34801561005a57600080fd5b506100827f000000000000000000000000000000000000000000000000000000000000000081565b6040516001600160a01b0390911681526020015b60405180910390f35b3480156100ab57600080fd5b506001546002546003546004546005546006546007546008546009546100e2986001600160a01b0390811698979695949392911689565b604080516001600160a01b039a8b16815260208101999099528801969096526060870194909452608086019290925260a085015260c084015260e083015290911661010082015261012001610096565b61004c610140366004610e72565b6105df565b600061020b600a60009054906101000a90046001600160a01b03166001600160a01b0316638b5b9ccc6040518163ffffffff1660e01b815260040160006040518083038186803b15801561019857600080fd5b505afa1580156101ac573d6000803e3d6000fd5b505050506040513d6000823e601f3d908101601f191682016040526101d49190810190610d9e565b5160408051426020808301919091524482840152606080830194909452825180830390940184526080909101909152815191012090565b9050600061021a82600a610c60565b9050610244604051806040016040528060068152602001651c995cdd5b1d60d21b81525082610c73565b600a5460405163760e116d60e01b8152600481018390526000916001600160a01b03169063760e116d9060240160006040518083038186803b15801561028957600080fd5b505afa15801561029d573d6000803e3d6000fd5b505050506040513d6000823e601f3d908101601f191682016040526102c59190810190610d9e565b600080546040516370a0823160e01b815233600482015292935090916001600160a01b03909116906370a082319060240160206040518083038186803b15801561030e57600080fd5b505afa158015610322573d6000803e3d6000fd5b505050506040513d601f19601f820116820180604052508101906103469190610ed3565b90508151600014156103e3576000546009546040516323b872dd60e01b81526001600160a01b03928316926323b872dd9261038b923392909116908690600401610f36565b602060405180830381600087803b1580156103a557600080fd5b505af11580156103b9573d6000803e3d6000fd5b505050506040513d601f19601f820116820180604052508101906103dd9190610e52565b506105d1565b600a5460405163478a1cbf60e01b8152600481018590526000916001600160a01b03169063478a1cbf9060240160206040518083038186803b15801561042857600080fd5b505afa15801561043c573d6000803e3d6000fd5b505050506040513d601f19601f820116820180604052508101906104609190610ed3565b905060005b83518110156105ce57600084828151811061049057634e487b7160e01b600052603260045260246000fd5b6020908102919091010151600a54604051634f0cd27b60e01b81526001600160a01b03808416600483015292935060009290911690634f0cd27b9060240160206040518083038186803b1580156104e657600080fd5b505afa1580156104fa573d6000803e3d6000fd5b505050506040513d601f19601f8201168201806040525081019061051e9190610ed3565b6000549091506001600160a01b03166323b872dd3384610548610541868a610cbc565b8a90610cc8565b6040518463ffffffff1660e01b815260040161056693929190610f36565b602060405180830381600087803b15801561058057600080fd5b505af1158015610594573d6000803e3d6000fd5b505050506040513d601f19601f820116820180604052508101906105b89190610e52565b50505080806105c69061100a565b915050610465565b50505b6105d9610cd4565b50505050565b604080518082018252601e81527f726f756e64496e666f2e676574436f756e74286d73672e73656e6465722900006020820152600a549151634f0cd27b60e01b8152336004820152610694926001600160a01b031690634f0cd27b906024015b60206040518083038186803b15801561065757600080fd5b505afa15801561066b573d6000803e3d6000fd5b505050506040513d601f19601f8201168201806040525081019061068f9190610ed3565b610c73565b6106c36040518060400160405280600d81526020016c6164647265737328746869732960981b81525030610d2f565b600a54604051634f0cd27b60e01b81523360048201526001600160a01b0390911690634f0cd27b9060240160206040518083038186803b15801561070657600080fd5b505afa15801561071a573d6000803e3d6000fd5b505050506040513d601f19601f8201168201806040525081019061073e9190610ed3565b156107805760405162461bcd60e51b815260206004820152600e60248201526d191d5c1b1a58d85d19590818995d60921b604482015260640160405180910390fd5b60025481516000916107929190610cc8565b90506107bf6040518060400160405280600981526020016818995d105b5bdd5b9d60ba1b81525082610c73565b6108326040518060400160405280600b81526020016a746f74616c537570706c7960a81b81525060008054906101000a90046001600160a01b03166001600160a01b03166318160ddd6040518163ffffffff1660e01b815260040160206040518083038186803b15801561065757600080fd5b61085e6040518060400160405280600a81526020016936b9b39739b2b73232b960b11b81525033610d2f565b604080518082018252601b81527f757364742e62616c616e63654f66286d73672e73656e646572293a0000000000602082015260005491516370a0823160e01b81523360048201526108c2926001600160a01b0316906370a082319060240161063f565b604051309082156108fc029083906000818181858888f193505050501580156108ef573d6000803e3d6000fd5b50604080518082018252601b81527f757364742e62616c616e63654f66286d73672e73656e646572293a0000000000602082015260005491516370a0823160e01b8152336004820152610954926001600160a01b0316906370a082319060240161063f565b60075460009061096690612710610cbc565b6109709034610feb565b6000546009546040516323b872dd60e01b81529293506001600160a01b03918216926323b872dd926109ab9233929116908690600401610f36565b602060405180830381600087803b1580156109c557600080fd5b505af11580156109d9573d6000803e3d6000fd5b505050506040513d601f19601f820116820180604052508101906109fd9190610e52565b5060408301516001600160a01b031615610abd57600854600090610a2390612710610cbc565b610a2d9034610feb565b60005460408087015190516323b872dd60e01b81529293506001600160a01b03909116916323b872dd91610a68913391908690600401610f36565b602060405180830381600087803b158015610a8257600080fd5b505af1158015610a96573d6000803e3d6000fd5b505050506040513d601f19601f82011682018060405250810190610aba9190610e52565b50505b600a54604051630640ef8160e11b81523360048201526001600160a01b0390911690630c81df0290602401600060405180830381600087803b158015610b0257600080fd5b505af1158015610b16573d6000803e3d6000fd5b5050600a548551604051630a4341ab60e41b815233600482015260248101919091526001600160a01b03909116925063a4341ab09150604401600060405180830381600087803b158015610b6957600080fd5b505af1158015610b7d573d6000803e3d6000fd5b5050600a54602086015160405163108b42ef60e31b815233600482015260248101919091526001600160a01b03909116925063845a17789150604401600060405180830381600087803b158015610bd357600080fd5b505af1158015610be7573d6000803e3d6000fd5b5050600a546020860151865160405163bda642ef60e01b81526001600160a01b03909316945063bda642ef9350610c2992600401918252602082015260400190565b600060405180830381600087803b158015610c4357600080fd5b505af1158015610c57573d6000803e3d6000fd5b50505050505050565b6000610c6c8284611025565b9392505050565b610cb88282604051602401610c89929190610f84565b60408051601f198184030181529190526020810180516001600160e01b03166309710a9d60e41b179052610d70565b5050565b6000610c6c8284610fd7565b6000610c6c8284610feb565b600a80546001600160a01b0319169055604051610cf090610d91565b604051809103906000f080158015610d0c573d6000803e3d6000fd5b50600a80546001600160a01b0319166001600160a01b0392909216919091179055565b610cb88282604051602401610d45929190610f5a565b60408051601f198184030181529190526020810180516001600160e01b031663319af33360e01b1790525b80516a636f6e736f6c652e6c6f67602083016000808483855afa5050505050565b6106098061109483390190565b60006020808385031215610db0578182fd5b825167ffffffffffffffff80821115610dc7578384fd5b818501915085601f830112610dda578384fd5b815181811115610dec57610dec611065565b8060051b9150610dfd848301610fa6565b8181528481019084860184860187018a1015610e17578788fd5b8795505b83861015610e455780519450610e308561107b565b84835260019590950194918601918601610e1b565b5098975050505050505050565b600060208284031215610e63578081fd5b81518015158114610c6c578182fd5b600060608284031215610e83578081fd5b6040516060810181811067ffffffffffffffff82111715610ea657610ea6611065565b806040525082358152602083013560208201526040830135610ec78161107b565b60408201529392505050565b600060208284031215610ee4578081fd5b5051919050565b60008151808452815b81811015610f1057602081850181015186830182015201610ef4565b81811115610f215782602083870101525b50601f01601f19169290920160200192915050565b6001600160a01b039384168152919092166020820152604081019190915260600190565b604081526000610f6d6040830185610eeb565b905060018060a01b03831660208301529392505050565b604081526000610f976040830185610eeb565b90508260208301529392505050565b604051601f8201601f1916810167ffffffffffffffff81118282101715610fcf57610fcf611065565b604052919050565b600082610fe657610fe661104f565b500490565b600081600019048311821515161561100557611005611039565b500290565b600060001982141561101e5761101e611039565b5060010190565b6000826110345761103461104f565b500690565b634e487b7160e01b600052601160045260246000fd5b634e487b7160e01b600052601260045260246000fd5b634e487b7160e01b600052604160045260246000fd5b6001600160a01b038116811461109057600080fd5b5056fe608060405234801561001057600080fd5b506105e9806100206000396000f3fe608060405234801561001057600080fd5b50600436106100ea5760003560e01c80638b5b9ccc1161008c578063bda642ef11610066578063bda642ef146102bc578063df15c37e14610261578063e4064c4e146102cf578063f71d96cb1461032e57600080fd5b80638b5b9ccc14610261578063942ea46614610269578063a4341ab01461029257600080fd5b80634f0cd27b116100c85780634f0cd27b146101ce578063760e116d146101f75780637b5e6f6b14610217578063845a17781461023757600080fd5b80630c81df02146100ef578063276df0d11461014e578063478a1cbf1461019b575b600080fd5b61014c6100fd366004610494565b600080546001810182559080527f290decd9548b62a8d60345a988386fc84ba6bc95484008f6362f93160ef3e5630180546001600160a01b0319166001600160a01b0392909216919091179055565b005b61014c61015c3660046104f6565b600091825260056020908152604083208054600181018255908452922090910180546001600160a01b0319166001600160a01b03909216919091179055565b6101bb6101a93660046104de565b60009081526006602052604090205490565b6040519081526020015b60405180910390f35b6101bb6101dc366004610494565b6001600160a01b031660009081526002602052604090205490565b61020a6102053660046104de565b610359565b6040516101c59190610542565b6101bb610225366004610494565b60026020526000908152604090205481565b61014c6102453660046104b5565b6001600160a01b03909116600090815260036020526040902055565b61020a6103c5565b6101bb610277366004610494565b6001600160a01b031660009081526003602052604090205490565b61014c6102a03660046104b5565b6001600160a01b03909116600090815260026020526040902055565b61014c6102ca366004610521565b610427565b61014c6102dd366004610494565b6001805480820182556000919091527fb10e2d527612073b26eecdfd717e6a320cf44b4afac2b0732d9fcbe2b7fa0cf60180546001600160a01b0319166001600160a01b0392909216919091179055565b61034161033c3660046104de565b61044e565b6040516001600160a01b0390911681526020016101c5565b6000818152600560209081526040918290208054835181840281018401909452808452606093928301828280156103b957602002820191906000526020600020905b81546001600160a01b0316815260019091019060200180831161039b575b50505050509050919050565b6060600080548060200260200160405190810160405280929190818152602001828054801561041d57602002820191906000526020600020905b81546001600160a01b031681526001909101906020018083116103ff575b5050505050905090565b6000828152600660205260408120805483929061044590849061058f565b90915550505050565b6000818154811061045e57600080fd5b6000918252602090912001546001600160a01b0316905081565b80356001600160a01b038116811461048f57600080fd5b919050565b6000602082840312156104a5578081fd5b6104ae82610478565b9392505050565b600080604083850312156104c7578081fd5b6104d083610478565b946020939093013593505050565b6000602082840312156104ef578081fd5b5035919050565b60008060408385031215610508578182fd5b8235915061051860208401610478565b90509250929050565b60008060408385031215610533578182fd5b50508035926020909101359150565b6020808252825182820181905260009190848201906040850190845b818110156105835783516001600160a01b03168352928401929184019160010161055e565b50909695505050505050565b600082198211156105ae57634e487b7160e01b81526011600452602481fd5b50019056fea26469706673582212203456fa8f16a30834e1c4a64b881e747c2db8adb12e9827e9a7cb60c3c56f893364736f6c63430008040033a264697066735822122074737788b8714536e60918026312e7818e11f928f1cb65a95013b2bb4d61099064736f6c63430008040033608060405234801561001057600080fd5b506105e9806100206000396000f3fe608060405234801561001057600080fd5b50600436106100ea5760003560e01c80638b5b9ccc1161008c578063bda642ef11610066578063bda642ef146102bc578063df15c37e14610261578063e4064c4e146102cf578063f71d96cb1461032e57600080fd5b80638b5b9ccc14610261578063942ea46614610269578063a4341ab01461029257600080fd5b80634f0cd27b116100c85780634f0cd27b146101ce578063760e116d146101f75780637b5e6f6b14610217578063845a17781461023757600080fd5b80630c81df02146100ef578063276df0d11461014e578063478a1cbf1461019b575b600080fd5b61014c6100fd366004610494565b600080546001810182559080527f290decd9548b62a8d60345a988386fc84ba6bc95484008f6362f93160ef3e5630180546001600160a01b0319166001600160a01b0392909216919091179055565b005b61014c61015c3660046104f6565b600091825260056020908152604083208054600181018255908452922090910180546001600160a01b0319166001600160a01b03909216919091179055565b6101bb6101a93660046104de565b60009081526006602052604090205490565b6040519081526020015b60405180910390f35b6101bb6101dc366004610494565b6001600160a01b031660009081526002602052604090205490565b61020a6102053660046104de565b610359565b6040516101c59190610542565b6101bb610225366004610494565b60026020526000908152604090205481565b61014c6102453660046104b5565b6001600160a01b03909116600090815260036020526040902055565b61020a6103c5565b6101bb610277366004610494565b6001600160a01b031660009081526003602052604090205490565b61014c6102a03660046104b5565b6001600160a01b03909116600090815260026020526040902055565b61014c6102ca366004610521565b610427565b61014c6102dd366004610494565b6001805480820182556000919091527fb10e2d527612073b26eecdfd717e6a320cf44b4afac2b0732d9fcbe2b7fa0cf60180546001600160a01b0319166001600160a01b0392909216919091179055565b61034161033c3660046104de565b61044e565b6040516001600160a01b0390911681526020016101c5565b6000818152600560209081526040918290208054835181840281018401909452808452606093928301828280156103b957602002820191906000526020600020905b81546001600160a01b0316815260019091019060200180831161039b575b50505050509050919050565b6060600080548060200260200160405190810160405280929190818152602001828054801561041d57602002820191906000526020600020905b81546001600160a01b031681526001909101906020018083116103ff575b5050505050905090565b6000828152600660205260408120805483929061044590849061058f565b90915550505050565b6000818154811061045e57600080fd5b6000918252602090912001546001600160a01b0316905081565b80356001600160a01b038116811461048f57600080fd5b919050565b6000602082840312156104a5578081fd5b6104ae82610478565b9392505050565b600080604083850312156104c7578081fd5b6104d083610478565b946020939093013593505050565b6000602082840312156104ef578081fd5b5035919050565b60008060408385031215610508578182fd5b8235915061051860208401610478565b90509250929050565b60008060408385031215610533578182fd5b50508035926020909101359150565b6020808252825182820181905260009190848201906040850190845b818110156105835783516001600160a01b03168352928401929184019160010161055e565b50909695505050505050565b600082198211156105ae57634e487b7160e01b81526011600452602481fd5b50019056fea26469706673582212203456fa8f16a30834e1c4a64b881e747c2db8adb12e9827e9a7cb60c3c56f893364736f6c63430008040033a264697066735822122043d82109c68049cf5cefdd7e66564bc0fe8d22f04138f2fb5a97a9d1b2bd0f7564736f6c63430008040033",
  "linkReferences": {},
  "deployedLinkReferences": {}
}