{
  "_format": "hh-sol-artifact-1",
  "contractName": "TableAddress",
  "sourceName": "contracts/libraries/TableAddress.sol",
  "abi": [
    {
      "inputs": [
        {
          "internalType": "address",
          "name": "factory",
          "type": "address"
        },
        {
          "components": [
            {
              "internalType": "address",
              "name": "factory",
              "type": "address"
            },
            {
              "internalType": "address",
              "name": "creator",
              "type": "address"
            },
            {
              "internalType": "uint256",
              "name": "amount",
              "type": "uint256"
            },
            {
              "internalType": "uint256",
              "name": "minPPL",
              "type": "uint256"
            },
            {
              "internalType": "uint256",
              "name": "maxPPL",
              "type": "uint256"
            },
            {
              "internalType": "uint256",
              "name": "coolDownTime",
              "type": "uint256"
            },
            {
              "internalType": "uint256",
              "name": "gameTime",
              "type": "uint256"
            },
            {
              "internalType": "uint256",
              "name": "bankerCommission",
              "type": "uint256"
            },
            {
              "internalType": "uint256",
              "name": "referralCommission",
              "type": "uint256"
            },
            {
              "internalType": "address",
              "name": "bankerWallet",
              "type": "address"
            }
          ],
          "internalType": "struct TableAddress.TableKey",
          "name": "key",
          "type": "tuple"
        }
      ],
      "name": "computeAddressV1",
      "outputs": [
        {
          "internalType": "address",
          "name": "table",
          "type": "address"
        }
      ],
      "stateMutability": "pure",
      "type": "function"
    }
  ],
  "bytecode": "0x6114a561003a600b82828239805160001a60731461002d57634e487b7160e01b600052600060045260246000fd5b30600052607381538281f3fe73000000000000000000000000000000000000000030146080604052600436106100355760003560e01c806354363abe1461003a575b600080fd5b61004d6100483660046101c8565b610069565b6040516001600160a01b03909116815260200160405180910390f35b60008282602001518360400151846060015185608001518660a001518760c001518860e001518961010001518a61012001516040516020016100fa999897969594939291906001600160a01b03998a168152602081019890985260408801969096526060870194909452608086019290925260a085015260c084015260e08301529091166101008201526101200190565b60405160208183030381529060405280519060200120604051806020016101209061019f565b6020820181038252601f19601f8201166040525080519060200120604051602001610180939291906001600160f81b0319815260609390931b6bffffffffffffffffffffffff191660018401526015830191909152603582015260550190565b60408051601f1981840301815291905280516020909101209392505050565b6111b0806102c083390190565b80356001600160a01b03811681146101c357600080fd5b919050565b6000808284036101608112156101dc578283fd5b6101e5846101ac565b925061014080601f19830112156101fa578283fd5b610202610287565b9150610210602086016101ac565b825261021e604086016101ac565b6020830152606085013560408301526080850135606083015260a0850135608083015260c085013560a083015260e085013560c08301526101008086013560e084015261012080870135828501526102778388016101ac565b9084015250929590945092505050565b604051610140810167ffffffffffffffff811182821017156102b957634e487b7160e01b600052604160045260246000fd5b6040529056fe60c06040523480156200001157600080fd5b5060016000819055506000336001600160a01b031663a5ea11da6040518163ffffffff1660e01b81526004016101606040518083038186803b1580156200005757600080fd5b505afa1580156200006c573d6000803e3d6000fd5b505050506040513d601f19601f820116820180604052508101906200009291906200019b565b80516001600160601b0319606091821b811660a0908152602080850151841b9092166080908152604080516101208082018352828801516001600160a01b03908116808452888a018051988501899052868b0151958501869052878b01519985018a90525195840186905260e0808b0151978501889052610100808c015160c08701819052948c0151918601829052610140909b015190921699909301899052600180546001600160a01b031990811690941790556002969096556003929092556004959095556005919091556006919091556007556008556009805490911690911790555062000288565b80516001600160a01b03811681146200019657600080fd5b919050565b60006101608284031215620001ae578081fd5b620001b862000250565b620001c3836200017e565b8152620001d3602084016200017e565b6020820152620001e6604084016200017e565b6040820152606083015160608201526080830151608082015260a083015160a082015260c083015160c082015260e083015160e0820152610100808401518183015250610120808401518183015250610140620002458185016200017e565b908201529392505050565b60405161016081016001600160401b03811182821017156200028257634e487b7160e01b600052604160045260246000fd5b60405290565b60805160601c60a05160601c610ee1620002cf60003960008181609d015281816102810152818161039e0152818161058301526109fe0152600061014b0152610ee16000f3fe608060405234801561001057600080fd5b50600436106100935760003560e01c806384bc76a61161006657806384bc76a61461011c578063be9a655514610131578063c45a015514610146578063efa1c4821461016d578063fa2d259d1461018257600080fd5b80632710ac801461009857806347e40553146100dc5780635f2d82ea146100f2578063796ab25d14610107575b600080fd5b6100bf7f000000000000000000000000000000000000000000000000000000000000000081565b6040516001600160a01b0390911681526020015b60405180910390f35b6100e4610195565b6040519081526020016100d3565b6100fa6101b0565b6040516100d39190610d8c565b61011a610115366004610af8565b610276565b005b61012461036f565b6040516100d39190610cb5565b6101396104e3565b6040516100d39190610d16565b6100bf7f000000000000000000000000000000000000000000000000000000000000000081565b61017561098e565b6040516100d39190610c68565b61011a610190366004610b72565b6109f3565b60006101a0600a5490565b6101ab906001610e42565b905090565b61021160405180610120016040528060006001600160a01b031681526020016000815260200160008152602001600081526020016000815260200160008152602001600081526020016000815260200160006001600160a01b031681525090565b5060408051610120810182526001546001600160a01b0390811682526002546020830152600354928201929092526004546060820152600554608082015260065460a082015260075460c082015260085460e082015260095490911661010082015290565b336001600160a01b037f000000000000000000000000000000000000000000000000000000000000000016146102ab57600080fd5b8051600b80546001808201835560009283527f0175b7a638427703f0dbe7bb9bbf987a2551717b34e79f33b5b1008d1fa01db990910180546001600160a01b0319166001600160a01b03909416939093179092556040830151600c805480850182559083527fdf6966c971051c3d54ec59162606531493a51404a002842f56009d7e5cf4a8c701556020830151600d805493840181559091527fd7b6990105719101dabeb77144f2a3385c8033acd3af97e9423a695e81ad1eb59091015550565b50565b61039360405180606001604052806060815260200160608152602001606081525090565b336001600160a01b037f000000000000000000000000000000000000000000000000000000000000000016146103c857600080fd5b60408051600b805460806020820284018101909452606083018181529293849392919084018282801561042457602002820191906000526020600020905b81546001600160a01b03168152600190910190602001808311610406575b50505050508152602001600b60010180548060200260200160405190810160405280929190818152602001828054801561047d57602002820191906000526020600020905b815481526020019060010190808311610469575b50505050508152602001600b6002018054806020026020016040519081016040528092919081815260200182805480156104d657602002820191906000526020600020905b8154815260200190600101908083116104c2575b5050505050815250905090565b61051c6040518060c001604052806000815260200160008152602001606081526020016000815260200160608152602001606081525090565b600260005414156105735760405162461bcd60e51b815260206004820152601f60248201527f5265656e7472616e637947756172643a207265656e7472616e742063616c6c00604482015260640160405180910390fd5b6002600055336001600160a01b037f000000000000000000000000000000000000000000000000000000000000000016146105ad57600080fd5b6105bb600a80546001019055565b600b5460408051426020808301919091524482840152606080830194909452825180830390940184526080909101909152815191012060006105fe82600a610a97565b905060005b600c5481101561078c57600c80548290811061062f57634e487b7160e01b600052603260045260246000fd5b906000526020600020015482141561077a57600b8054600e91908390811061066757634e487b7160e01b600052603260045260246000fd5b60009182526020808320909101548354600181018555938352912090910180546001600160a01b0319166001600160a01b03909216919091179055600d8054829081106106c457634e487b7160e01b600052603260045260246000fd5b9060005260206000200154600b6004016000600b60000184815481106106fa57634e487b7160e01b600052603260045260246000fd5b60009182526020808320909101546001600160a01b031683528201929092526040018120805490919061072e908490610e42565b9091555050600d80548290811061075557634e487b7160e01b600052603260045260246000fd5b9060005260206000200154600b60060160008282546107749190610e42565b90915550505b8061078481610e5a565b915050610603565b5060005b600e5481101561081257600e8054601091600f9160009190859081106107c657634e487b7160e01b600052603260045260246000fd5b60009182526020808320909101546001600160a01b031683528281019390935260409091018120548354600181018555938252919020909101558061080a81610e5a565b915050610790565b50600a54835260208084018290526011546060850152600b805460408051828502810185019091528181529283018282801561087757602002820191906000526020600020905b81546001600160a01b03168152600190910190602001808311610859575b5050505060408086019290925250600e80548251602080830282018101909452818152928301828280156108d457602002820191906000526020600020905b81546001600160a01b031681526001909101906020018083116108b6575b50505050506080840152601080546040805160208084028201810190925282815292919083018282801561092757602002820191906000526020600020905b815481526020019060010190808311610913575b505050505060a0840152600b600061093f8282610aaa565b61094d600183016000610aaa565b61095b600283016000610aaa565b610969600383016000610aaa565b610977600583016000610aaa565b600682016000905550505050600160008190555090565b6060600b6000018054806020026020016040519081016040528092919081815260200182805480156109e957602002820191906000526020600020905b81546001600160a01b031681526001909101906020018083116109cb575b5050505050905090565b336001600160a01b037f00000000000000000000000000000000000000000000000000000000000000001614610a2857600080fd5b600180546009805484516001600160a01b03199384166001600160a01b0391821617909455602085015160025560408501516003556060850151600455608085015160055560a085015160065560c085015160075560e085015160085561010090940151919093169116179055565b6000610aa38284610e75565b9392505050565b508054600082559060005260206000209081019061036c91905b80821115610ad85760008155600101610ac4565b5090565b80356001600160a01b0381168114610af357600080fd5b919050565b600060808284031215610b09578081fd5b6040516080810181811067ffffffffffffffff82111715610b3857634e487b7160e01b83526041600452602483fd5b604052610b4483610adc565b81526020830135602082015260408301356040820152610b6660608401610adc565b60608201529392505050565b60006101208284031215610b84578081fd5b610b8c610e0a565b610b9583610adc565b81526020830135602082015260408301356040820152606083013560608201526080830135608082015260a083013560a082015260c083013560c082015260e083013560e0820152610100610beb818501610adc565b908201529392505050565b6000815180845260208085019450808401835b83811015610c2e5781516001600160a01b031687529582019590820190600101610c09565b509495945050505050565b6000815180845260208085019450808401835b83811015610c2e57815187529582019590820190600101610c4c565b6020808252825182820181905260009190848201906040850190845b81811015610ca95783516001600160a01b031683529284019291840191600101610c84565b50909695505050505050565b602081526000825160606020840152610cd16080840182610bf6565b90506020840151601f1980858403016040860152610cef8383610c39565b9250604086015191508085840301606086015250610d0d8282610c39565b95945050505050565b6020815281516020820152602082015160408201526000604083015160c06060840152610d4660e0840182610bf6565b9050606084015160808401526080840151601f19808584030160a0860152610d6e8383610bf6565b925060a08601519150808584030160c086015250610d0d8282610c39565b60006101208201905060018060a01b0383511682526020830151602083015260408301516040830152606083015160608301526080830151608083015260a083015160a083015260c083015160c083015260e083015160e083015261010080840151610e02828501826001600160a01b03169052565b505092915050565b604051610120810167ffffffffffffffff81118282101715610e3c57634e487b7160e01b600052604160045260246000fd5b60405290565b60008219821115610e5557610e55610e95565b500190565b6000600019821415610e6e57610e6e610e95565b5060010190565b600082610e9057634e487b7160e01b81526012600452602481fd5b500690565b634e487b7160e01b600052601160045260246000fdfea2646970667358221220f5de99be20e2b21401752ab60d72639def21a80feb8685e2c7efbf16ef235b4164736f6c63430008040033a2646970667358221220e4d9733a6b11c3f4cd0e47368944eaba794b56d76124c80fc6db5f6e99ab577c64736f6c63430008040033",
  "linkReferences": {},
  "deployedLinkReferences": {}
}