{
  "contractName": "CalTest",
  "abi": [
    {
      "inputs": [
        {
          "internalType": "uint256",
          "name": "a",
          "type": "uint256"
        },
        {
          "internalType": "uint256",
          "name": "b",
          "type": "uint256"
        }
      ],
      "name": "safeSubTest",
      "outputs": [
        {
          "internalType": "bool",
          "name": "flag",
          "type": "bool"
        },
        {
          "internalType": "uint256",
          "name": "result",
          "type": "uint256"
        }
      ],
      "stateMutability": "pure",
      "type": "function"
    },
    {
      "inputs": [
        {
          "internalType": "uint256",
          "name": "a",
          "type": "uint256"
        },
        {
          "internalType": "uint256",
          "name": "b",
          "type": "uint256"
        }
      ],
      "name": "subTest",
      "outputs": [
        {
          "internalType": "uint256",
          "name": "result",
          "type": "uint256"
        }
      ],
      "stateMutability": "pure",
      "type": "function"
    }
  ],
  "bytecode": "0x608060405234801561001057600080fd5b50610281806100206000396000f3fe608060405234801561001057600080fd5b50600436106100365760003560e01c8063b9621b031461003b578063eda754ef1461006c575b600080fd5b61005560048036038101906100509190610114565b61009c565b604051610063929190610172565b60405180910390f35b61008660048036038101906100819190610114565b6100c1565b604051610093919061019b565b60405180910390f35b6000806100b283856100d790919063ffffffff16565b80925081935050509250929050565b600081836100cf91906101b6565b905092915050565b600080838311156100ee57600080915091506100f8565b6001838503915091505b9250929050565b60008135905061010e81610234565b92915050565b6000806040838503121561012b5761012a61022f565b5b6000610139858286016100ff565b925050602061014a858286016100ff565b9150509250929050565b61015d816101ea565b82525050565b61016c816101f6565b82525050565b60006040820190506101876000830185610154565b6101946020830184610163565b9392505050565b60006020820190506101b06000830184610163565b92915050565b60006101c1826101f6565b91506101cc836101f6565b9250828210156101df576101de610200565b5b828203905092915050565b60008115159050919050565b6000819050919050565b7f4e487b7100000000000000000000000000000000000000000000000000000000600052601160045260246000fd5b600080fd5b61023d816101f6565b811461024857600080fd5b5056fea26469706673582212206775bb613363ed876eea9a5f6baf0ec5699e56576058b934880c63b9b9adf4e364736f6c63430008060033",
  "source": "//SPDX-License-Identifier: UNLICENSED\npragma solidity ^0.8.0;\n\nimport \"@openzeppelin/contracts/utils/math/SafeMath.sol\";\ncontract CalTest {\n    using SafeMath for uint256;\n\n    function subTest(uint256 a, uint256 b) public pure returns (uint256 result) {\n        result = a - b;\n    }\n\n    function safeSubTest (uint256 a, uint256 b) public pure returns (bool flag, uint256 result) {\n        (flag, result) = a.trySub(b);\n    }\n\n}\n",
  "sourcePath": "/Users/way/23-tuofan/gamefimarksix/contracts/test/CalTest.sol",
  "compiler": {
    "name": "solc",
    "version": "0.8.6+commit.11564f7e.Emscripten.clang"
  },
  "schemaVersion": "2.0.1",
  "updatedAt": "2022-07-13T03:31:30.478Z"
}