{
  "contractName": "LotteryFactory",
  "abi": [
    {
      "inputs": [],
      "stateMutability": "nonpayable",
      "type": "constructor"
    },
    {
      "anonymous": false,
      "inputs": [
        {
          "indexed": true,
          "internalType": "address",
          "name": "oldOwner",
          "type": "address"
        },
        {
          "indexed": true,
          "internalType": "address",
          "name": "newOwner",
          "type": "address"
        }
      ],
      "name": "OwnerChanged",
      "type": "event"
    },
    {
      "anonymous": false,
      "inputs": [
        {
          "indexed": false,
          "internalType": "address",
          "name": "creator",
          "type": "address"
        },
        {
          "indexed": false,
          "internalType": "uint256",
          "name": "amount",
          "type": "uint256"
        },
        {
          "indexed": false,
          "internalType": "uint256",
          "name": "minPPL",
          "type": "uint256"
        },
        {
          "indexed": false,
          "internalType": "uint256",
          "name": "maxPPL",
          "type": "uint256"
        },
        {
          "indexed": false,
          "internalType": "uint256",
          "name": "coolDownTime",
          "type": "uint256"
        },
        {
          "indexed": false,
          "internalType": "uint256",
          "name": "gameTime",
          "type": "uint256"
        },
        {
          "indexed": false,
          "internalType": "uint256",
          "name": "bankerCommission",
          "type": "uint256"
        },
        {
          "indexed": false,
          "internalType": "uint256",
          "name": "referralCommission",
          "type": "uint256"
        },
        {
          "indexed": false,
          "internalType": "address",
          "name": "bankerWallet",
          "type": "address"
        }
      ],
      "name": "tableCreated",
      "type": "event"
    },
    {
      "inputs": [
        {
          "internalType": "address",
          "name": "managerContract",
          "type": "address"
        },
        {
          "internalType": "address",
          "name": "creator",
          "type": "address"
        },
        {
          "internalType": "uint256",
          "name": "amount",
          "type": "uint256"
        },
        {
          "internalType": "uint256",
          "name": "minPPL",
          "type": "uint256"
        },
        {
          "internalType": "uint256",
          "name": "maxPPL",
          "type": "uint256"
        },
        {
          "internalType": "uint256",
          "name": "coolDownTime",
          "type": "uint256"
        },
        {
          "internalType": "uint256",
          "name": "gameTime",
          "type": "uint256"
        },
        {
          "internalType": "uint256",
          "name": "bankerCommission",
          "type": "uint256"
        },
        {
          "internalType": "uint256",
          "name": "referralCommission",
          "type": "uint256"
        },
        {
          "internalType": "address",
          "name": "bankerWallet",
          "type": "address"
        }
      ],
      "name": "createTable",
      "outputs": [
        {
          "internalType": "address",
          "name": "table",
          "type": "address"
        }
      ],
      "stateMutability": "nonpayable",
      "type": "function"
    },
    {
      "inputs": [],
      "name": "getParameters",
      "outputs": [
        {
          "components": [
            {
              "internalType": "address",
              "name": "managerContract",
              "type": "address"
            },
            {
              "internalType": "address",
              "name": "factory",
              "type": "address"
            },
            {
              "internalType": "address",
              "name": "creator",
              "type": "address"
            },
            {
              "internalType": "uint256",
              "name": "amount",
              "type": "uint256"
            },
            {
              "internalType": "uint256",
              "name": "minPPL",
              "type": "uint256"
            },
            {
              "internalType": "uint256",
              "name": "maxPPL",
              "type": "uint256"
            },
            {
              "internalType": "uint256",
              "name": "coolDownTime",
              "type": "uint256"
            },
            {
              "internalType": "uint256",
              "name": "gameTime",
              "type": "uint256"
            },
            {
              "internalType": "uint256",
              "name": "bankerCommission",
              "type": "uint256"
            },
            {
              "internalType": "uint256",
              "name": "referralCommission",
              "type": "uint256"
            },
            {
              "internalType": "address",
              "name": "bankerWallet",
              "type": "address"
            }
          ],
          "internalType": "struct ILotteryTableDeployer.Parameters",
          "name": "parameters",
          "type": "tuple"
        }
      ],
      "stateMutability": "view",
      "type": "function"
    },
    {
      "inputs": [
        {
          "internalType": "address",
          "name": "creator",
          "type": "address"
        },
        {
          "internalType": "uint256",
          "name": "amount",
          "type": "uint256"
        },
        {
          "internalType": "uint256",
          "name": "minPPL",
          "type": "uint256"
        },
        {
          "internalType": "uint256",
          "name": "maxPPL",
          "type": "uint256"
        },
        {
          "internalType": "uint256",
          "name": "coolDownTime",
          "type": "uint256"
        },
        {
          "internalType": "uint256",
          "name": "gameTime",
          "type": "uint256"
        },
        {
          "internalType": "uint256",
          "name": "bankerCommission",
          "type": "uint256"
        },
        {
          "internalType": "uint256",
          "name": "referralCommission",
          "type": "uint256"
        },
        {
          "internalType": "address",
          "name": "bankerWallet",
          "type": "address"
        }
      ],
      "name": "getTable",
      "outputs": [
        {
          "internalType": "address",
          "name": "table",
          "type": "address"
        }
      ],
      "stateMutability": "view",
      "type": "function"
    },
    {
      "inputs": [],
      "name": "owner",
      "outputs": [
        {
          "internalType": "address",
          "name": "",
          "type": "address"
        }
      ],
      "stateMutability": "view",
      "type": "function"
    },
    {
      "inputs": [],
      "name": "params",
      "outputs": [
        {
          "internalType": "address",
          "name": "managerContract",
          "type": "address"
        },
        {
          "internalType": "address",
          "name": "factory",
          "type": "address"
        },
        {
          "internalType": "address",
          "name": "creator",
          "type": "address"
        },
        {
          "internalType": "uint256",
          "name": "amount",
          "type": "uint256"
        },
        {
          "internalType": "uint256",
          "name": "minPPL",
          "type": "uint256"
        },
        {
          "internalType": "uint256",
          "name": "maxPPL",
          "type": "uint256"
        },
        {
          "internalType": "uint256",
          "name": "coolDownTime",
          "type": "uint256"
        },
        {
          "internalType": "uint256",
          "name": "gameTime",
          "type": "uint256"
        },
        {
          "internalType": "uint256",
          "name": "bankerCommission",
          "type": "uint256"
        },
        {
          "internalType": "uint256",
          "name": "referralCommission",
          "type": "uint256"
        },
        {
          "internalType": "address",
          "name": "bankerWallet",
          "type": "address"
        }
      ],
      "stateMutability": "view",
      "type": "function"
    },
    {
      "inputs": [
        {
          "internalType": "address",
          "name": "_owner",
          "type": "address"
        }
      ],
      "name": "setOwner",
      "outputs": [],
      "stateMutability": "nonpayable",
      "type": "function"
    }
  ],
  "bytecode": "0x60a060405234801561001057600080fd5b503073ffffffffffffffffffffffffffffffffffffffff1660808173ffffffffffffffffffffffffffffffffffffffff1660601b8152505033600b60006101000a81548173ffffffffffffffffffffffffffffffffffffffff021916908373ffffffffffffffffffffffffffffffffffffffff1602179055503373ffffffffffffffffffffffffffffffffffffffff16600073ffffffffffffffffffffffffffffffffffffffff167fb532073b38c83145e3e5135377a08bf9aab55bc0fd7c1179cd4fb995d2a5159c60405160405180910390a360805160601c614c6861010260003960006108bb0152614c686000f3fe60806040523480156200001157600080fd5b50600436106200006a5760003560e01c806313af4035146200006f5780637d7863d6146200008f5780638da5cb5b14620000c5578063a5ea11da14620000e7578063cff0ab961462000109578063db237efc1462000135575b600080fd5b6200008d600480360381019062000087919062000d64565b6200016b565b005b620000ad6004803603810190620000a7919062000d96565b62000286565b604051620000bc91906200117e565b60405180910390f35b620000cf62000550565b604051620000de91906200117e565b60405180910390f35b620000f162000576565b604051620001009190620012fb565b60405180910390f35b6200011362000731565b6040516200012c9b9a999897969594939291906200119b565b60405180910390f35b6200015360048036038101906200014d919062000e8c565b620007f9565b6040516200016291906200117e565b60405180910390f35b600b60009054906101000a900473ffffffffffffffffffffffffffffffffffffffff1673ffffffffffffffffffffffffffffffffffffffff163373ffffffffffffffffffffffffffffffffffffffff1614620001c657600080fd5b8073ffffffffffffffffffffffffffffffffffffffff16600b60009054906101000a900473ffffffffffffffffffffffffffffffffffffffff1673ffffffffffffffffffffffffffffffffffffffff167fb532073b38c83145e3e5135377a08bf9aab55bc0fd7c1179cd4fb995d2a5159c60405160405180910390a380600b60006101000a81548173ffffffffffffffffffffffffffffffffffffffff021916908373ffffffffffffffffffffffffffffffffffffffff16021790555050565b600062000292620008b9565b600073ffffffffffffffffffffffffffffffffffffffff168a73ffffffffffffffffffffffffffffffffffffffff161415620002cd57600080fd5b60008911620002db57600080fd5b60008811620002e957600080fd5b60008711620002f757600080fd5b600086116200030557600080fd5b600085116200031357600080fd5b600084116200032157600080fd5b600083116200032f57600080fd5b600073ffffffffffffffffffffffffffffffffffffffff168273ffffffffffffffffffffffffffffffffffffffff1614156200036a57600080fd5b600089898989898989896040516020016200038d989796959493929190620010dc565b6040516020818303038152906040528051906020012060001c9050600073ffffffffffffffffffffffffffffffffffffffff16600c60008d73ffffffffffffffffffffffffffffffffffffffff1673ffffffffffffffffffffffffffffffffffffffff168152602001908152602001600020600083815260200190815260200160002060009054906101000a900473ffffffffffffffffffffffffffffffffffffffff1673ffffffffffffffffffffffffffffffffffffffff16146200045257600080fd5b620004678c308d8d8d8d8d8d8d8d8d62000914565b915081600c60008d73ffffffffffffffffffffffffffffffffffffffff1673ffffffffffffffffffffffffffffffffffffffff168152602001908152602001600020600083815260200190815260200160002060006101000a81548173ffffffffffffffffffffffffffffffffffffffff021916908373ffffffffffffffffffffffffffffffffffffffff1602179055507fde21502196fedda3172f49e07096afe58333a70e6e2f4da4e0c235b3845db91d8b8b8b8b8b8b8b8b8b60405162000539999897969594939291906200125c565b60405180910390a1509a9950505050505050505050565b600b60009054906101000a900473ffffffffffffffffffffffffffffffffffffffff1681565b6200058062000c76565b6000604051806101600160405290816000820160009054906101000a900473ffffffffffffffffffffffffffffffffffffffff1673ffffffffffffffffffffffffffffffffffffffff1673ffffffffffffffffffffffffffffffffffffffff1681526020016001820160009054906101000a900473ffffffffffffffffffffffffffffffffffffffff1673ffffffffffffffffffffffffffffffffffffffff1673ffffffffffffffffffffffffffffffffffffffff1681526020016002820160009054906101000a900473ffffffffffffffffffffffffffffffffffffffff1673ffffffffffffffffffffffffffffffffffffffff1673ffffffffffffffffffffffffffffffffffffffff16815260200160038201548152602001600482015481526020016005820154815260200160068201548152602001600782015481526020016008820154815260200160098201548152602001600a820160009054906101000a900473ffffffffffffffffffffffffffffffffffffffff1673ffffffffffffffffffffffffffffffffffffffff1673ffffffffffffffffffffffffffffffffffffffff1681525050905090565b60008060000160009054906101000a900473ffffffffffffffffffffffffffffffffffffffff16908060010160009054906101000a900473ffffffffffffffffffffffffffffffffffffffff16908060020160009054906101000a900473ffffffffffffffffffffffffffffffffffffffff169080600301549080600401549080600501549080600601549080600701549080600801549080600901549080600a0160009054906101000a900473ffffffffffffffffffffffffffffffffffffffff1690508b565b60008089898989898989896040516020016200081d989796959493929190620010dc565b6040516020818303038152906040528051906020012060001c9050600c60008c73ffffffffffffffffffffffffffffffffffffffff1673ffffffffffffffffffffffffffffffffffffffff168152602001908152602001600020600082815260200190815260200160002060009054906101000a900473ffffffffffffffffffffffffffffffffffffffff169150509998505050505050505050565b7f000000000000000000000000000000000000000000000000000000000000000073ffffffffffffffffffffffffffffffffffffffff163073ffffffffffffffffffffffffffffffffffffffff16146200091257600080fd5b565b60006040518061016001604052808d73ffffffffffffffffffffffffffffffffffffffff1681526020018c73ffffffffffffffffffffffffffffffffffffffff1681526020018b73ffffffffffffffffffffffffffffffffffffffff1681526020018a81526020018981526020018881526020018781526020018681526020018581526020018481526020018373ffffffffffffffffffffffffffffffffffffffff168152506000808201518160000160006101000a81548173ffffffffffffffffffffffffffffffffffffffff021916908373ffffffffffffffffffffffffffffffffffffffff16021790555060208201518160010160006101000a81548173ffffffffffffffffffffffffffffffffffffffff021916908373ffffffffffffffffffffffffffffffffffffffff16021790555060408201518160020160006101000a81548173ffffffffffffffffffffffffffffffffffffffff021916908373ffffffffffffffffffffffffffffffffffffffff160217905550606082015181600301556080820151816004015560a0820151816005015560c0820151816006015560e082015181600701556101008201518160080155610120820151816009015561014082015181600a0160006101000a81548173ffffffffffffffffffffffffffffffffffffffff021916908373ffffffffffffffffffffffffffffffffffffffff16021790555090505089898989898989898960405160200162000b46999897969594939291906200125c565b6040516020818303038152906040528051906020012060405162000b6a9062000d28565b8190604051809103906000f590508015801562000b8b573d6000803e3d6000fd5b5090506000806000820160006101000a81549073ffffffffffffffffffffffffffffffffffffffff02191690556001820160006101000a81549073ffffffffffffffffffffffffffffffffffffffff02191690556002820160006101000a81549073ffffffffffffffffffffffffffffffffffffffff02191690556003820160009055600482016000905560058201600090556006820160009055600782016000905560088201600090556009820160009055600a820160006101000a81549073ffffffffffffffffffffffffffffffffffffffff021916905550509b9a5050505050505050505050565b604051806101600160405280600073ffffffffffffffffffffffffffffffffffffffff168152602001600073ffffffffffffffffffffffffffffffffffffffff168152602001600073ffffffffffffffffffffffffffffffffffffffff16815260200160008152602001600081526020016000815260200160008152602001600081526020016000815260200160008152602001600073ffffffffffffffffffffffffffffffffffffffff1681525090565b61386380620013d083390190565b60008135905062000d47816200139b565b92915050565b60008135905062000d5e81620013b5565b92915050565b60006020828403121562000d7d5762000d7c62001389565b5b600062000d8d8482850162000d36565b91505092915050565b6000806000806000806000806000806101408b8d03121562000dbd5762000dbc62001389565b5b600062000dcd8d828e0162000d36565b9a5050602062000de08d828e0162000d36565b995050604062000df38d828e0162000d4d565b985050606062000e068d828e0162000d4d565b975050608062000e198d828e0162000d4d565b96505060a062000e2c8d828e0162000d4d565b95505060c062000e3f8d828e0162000d4d565b94505060e062000e528d828e0162000d4d565b93505061010062000e668d828e0162000d4d565b92505061012062000e7a8d828e0162000d36565b9150509295989b9194979a5092959850565b60008060008060008060008060006101208a8c03121562000eb25762000eb162001389565b5b600062000ec28c828d0162000d36565b995050602062000ed58c828d0162000d4d565b985050604062000ee88c828d0162000d4d565b975050606062000efb8c828d0162000d4d565b965050608062000f0e8c828d0162000d4d565b95505060a062000f218c828d0162000d4d565b94505060c062000f348c828d0162000d4d565b93505060e062000f478c828d0162000d4d565b92505061010062000f5b8c828d0162000d36565b9150509295985092959850929598565b62000f768162001319565b82525050565b62000f878162001319565b82525050565b62000fa262000f9c8262001319565b62001357565b82525050565b6101608201600082015162000fc1600085018262000f6b565b50602082015162000fd6602085018262000f6b565b50604082015162000feb604085018262000f6b565b5060608201516200100060608501826200109f565b5060808201516200101560808501826200109f565b5060a08201516200102a60a08501826200109f565b5060c08201516200103f60c08501826200109f565b5060e08201516200105460e08501826200109f565b506101008201516200106b6101008501826200109f565b50610120820151620010826101208501826200109f565b506101408201516200109961014085018262000f6b565b50505050565b620010aa816200134d565b82525050565b620010bb816200134d565b82525050565b620010d6620010d0826200134d565b6200137f565b82525050565b6000620010ea828b620010c1565b602082019150620010fc828a620010c1565b6020820191506200110e8289620010c1565b602082019150620011208288620010c1565b602082019150620011328287620010c1565b602082019150620011448286620010c1565b602082019150620011568285620010c1565b60208201915062001168828462000f8d565b6014820191508190509998505050505050505050565b600060208201905062001195600083018462000f7c565b92915050565b600061016082019050620011b3600083018e62000f7c565b620011c2602083018d62000f7c565b620011d1604083018c62000f7c565b620011e0606083018b620010b0565b620011ef608083018a620010b0565b620011fe60a0830189620010b0565b6200120d60c0830188620010b0565b6200121c60e0830187620010b0565b6200122c610100830186620010b0565b6200123c610120830185620010b0565b6200124c61014083018462000f7c565b9c9b505050505050505050505050565b60006101208201905062001274600083018c62000f7c565b62001283602083018b620010b0565b62001292604083018a620010b0565b620012a16060830189620010b0565b620012b06080830188620010b0565b620012bf60a0830187620010b0565b620012ce60c0830186620010b0565b620012dd60e0830185620010b0565b620012ed61010083018462000f7c565b9a9950505050505050505050565b60006101608201905062001313600083018462000fa8565b92915050565b600062001326826200132d565b9050919050565b600073ffffffffffffffffffffffffffffffffffffffff82169050919050565b6000819050919050565b600062001364826200136b565b9050919050565b600062001378826200138e565b9050919050565b6000819050919050565b600080fd5b60008160601b9050919050565b620013a68162001319565b8114620013b257600080fd5b50565b620013c0816200134d565b8114620013cc57600080fd5b5056fe60c06040526040516200001290620002f7565b604051809103906000f0801580156200002f573d6000803e3d6000fd5b50600a60006101000a81548173ffffffffffffffffffffffffffffffffffffffff021916908373ffffffffffffffffffffffffffffffffffffffff1602179055503480156200007d57600080fd5b50600160008190555060003373ffffffffffffffffffffffffffffffffffffffff1663a5ea11da6040518163ffffffff1660e01b81526004016101606040518083038186803b158015620000d057600080fd5b505afa158015620000e5573d6000803e3d6000fd5b505050506040513d601f19601f820116820180604052508101906200010b91906200045a565b9050806000015173ffffffffffffffffffffffffffffffffffffffff1660a08173ffffffffffffffffffffffffffffffffffffffff1660601b81525050806020015173ffffffffffffffffffffffffffffffffffffffff1660808173ffffffffffffffffffffffffffffffffffffffff1660601b81525050604051806101200160405280826040015173ffffffffffffffffffffffffffffffffffffffff16815260200182606001518152602001826080015181526020018260a001518152602001826060015181526020018260e0015181526020018261010001518152602001826101200151815260200182610140015173ffffffffffffffffffffffffffffffffffffffff16815250600160008201518160000160006101000a81548173ffffffffffffffffffffffffffffffffffffffff021916908373ffffffffffffffffffffffffffffffffffffffff1602179055506020820151816001015560408201518160020155606082015181600301556080820151816004015560a0820151816005015560c0820151816006015560e082015181600701556101008201518160080160006101000a81548173ffffffffffffffffffffffffffffffffffffffff021916908373ffffffffffffffffffffffffffffffffffffffff16021790555090505050620005a8565b610b7a8062002ce983390190565b600081519050620003168162000574565b92915050565b6000610160828403121562000336576200033562000559565b5b620003436101606200048d565b90506000620003558482850162000305565b60008301525060206200036b8482850162000305565b6020830152506040620003818482850162000305565b6040830152506060620003978482850162000443565b6060830152506080620003ad8482850162000443565b60808301525060a0620003c38482850162000443565b60a08301525060c0620003d98482850162000443565b60c08301525060e0620003ef8482850162000443565b60e083015250610100620004068482850162000443565b610100830152506101206200041e8482850162000443565b61012083015250610140620004368482850162000305565b6101408301525092915050565b60008151905062000454816200058e565b92915050565b600061016082840312156200047457620004736200055e565b5b600062000484848285016200031c565b91505092915050565b600062000499620004ac565b9050620004a78282620004f4565b919050565b6000604051905090565b6000620004c382620004ca565b9050919050565b600073ffffffffffffffffffffffffffffffffffffffff82169050919050565b6000819050919050565b620004ff8262000563565b810181811067ffffffffffffffff821117156200052157620005206200052a565b5b80604052505050565b7f4e487b7100000000000000000000000000000000000000000000000000000000600052604160045260246000fd5b600080fd5b600080fd5b6000601f19601f8301169050919050565b6200057f81620004b6565b81146200058b57600080fd5b50565b6200059981620004ea565b8114620005a557600080fd5b50565b60805160601c60a05160601c6126f9620005f0600039600081816101a8015281816102f6015281816104a2015281816108e40152610a8b015260006108be01526126f96000f3fe608060405234801561001057600080fd5b50600436106100935760003560e01c8063be9a655511610066578063be9a65551461010e578063c45a015514610130578063d826f88f1461014e578063efa1c4821461016c578063fa2d259d1461018a57610093565b80632710ac801461009857806347e40553146100b65780635f2d82ea146100d4578063796ab25d146100f2575b600080fd5b6100a06101a6565b6040516100ad9190611611565b60405180910390f35b6100be6101ca565b6040516100cb91906116ee565b60405180910390f35b6100dc6101e7565b6040516100e991906116d2565b60405180910390f35b61010c60048036038101906101079190611301565b6102f4565b005b610116610449565b60405161012795949392919061175b565b60405180910390f35b6101386108bc565b6040516101459190611611565b60405180910390f35b6101566108e0565b6040516101639190611677565b60405180910390f35b6101746109dd565b6040516101819190611655565b60405180910390f35b6101a4600480360381019061019f919061132e565b610a89565b005b7f000000000000000000000000000000000000000000000000000000000000000081565b600060016101d8600c610c4a565b6101e29190611890565b905090565b6101ef610fab565b6001604051806101200160405290816000820160009054906101000a900473ffffffffffffffffffffffffffffffffffffffff1673ffffffffffffffffffffffffffffffffffffffff1673ffffffffffffffffffffffffffffffffffffffff168152602001600182015481526020016002820154815260200160038201548152602001600482015481526020016005820154815260200160068201548152602001600782015481526020016008820160009054906101000a900473ffffffffffffffffffffffffffffffffffffffff1673ffffffffffffffffffffffffffffffffffffffff1673ffffffffffffffffffffffffffffffffffffffff1681525050905090565b7f000000000000000000000000000000000000000000000000000000000000000073ffffffffffffffffffffffffffffffffffffffff163373ffffffffffffffffffffffffffffffffffffffff161461034c57600080fd5b6000600a60009054906101000a900473ffffffffffffffffffffffffffffffffffffffff1673ffffffffffffffffffffffffffffffffffffffff16634f0cd27b83600001516040518263ffffffff1660e01b81526004016103ad9190611611565b60206040518083038186803b1580156103c557600080fd5b505afa1580156103d9573d6000803e3d6000fd5b505050506040513d601f19601f820116820180604052508101906103fd919061135c565b1461043d576040517f08c379a000000000000000000000000000000000000000000000000000000000815260040161043490611692565b60405180910390fd5b61044681610c58565b50565b60008060606000606060026000541415610498576040517f08c379a000000000000000000000000000000000000000000000000000000000815260040161048f906116b2565b60405180910390fd5b60026000819055507f000000000000000000000000000000000000000000000000000000000000000073ffffffffffffffffffffffffffffffffffffffff163373ffffffffffffffffffffffffffffffffffffffff16146104f857600080fd5b610502600c610f48565b61050c600c610c4a565b945060006105be600a60009054906101000a900473ffffffffffffffffffffffffffffffffffffffff1673ffffffffffffffffffffffffffffffffffffffff16638b5b9ccc6040518163ffffffff1660e01b815260040160006040518083038186803b15801561057b57600080fd5b505afa15801561058f573d6000803e3d6000fd5b505050506040513d6000823e3d601f19601f820116820180604052508101906105b891906112b8565b51610f5e565b90506105d4600a82610f9590919063ffffffff16565b9450600a60009054906101000a900473ffffffffffffffffffffffffffffffffffffffff1673ffffffffffffffffffffffffffffffffffffffff1663760e116d866040518263ffffffff1660e01b815260040161063191906116ee565b60006040518083038186803b15801561064957600080fd5b505afa15801561065d573d6000803e3d6000fd5b505050506040513d6000823e3d601f19601f8201168201806040525081019061068691906112b8565b9350600a60009054906101000a900473ffffffffffffffffffffffffffffffffffffffff1673ffffffffffffffffffffffffffffffffffffffff1663478a1cbf866040518263ffffffff1660e01b81526004016106e391906116ee565b60206040518083038186803b1580156106fb57600080fd5b505afa15801561070f573d6000803e3d6000fd5b505050506040513d601f19601f82011682018060405250810190610733919061135c565b92506000845111156108595760005b84518110156108575760008582815181106107605761075f611a41565b5b602002602001015190506000600a60009054906101000a900473ffffffffffffffffffffffffffffffffffffffff1673ffffffffffffffffffffffffffffffffffffffff16634f0cd27b836040518263ffffffff1660e01b81526004016107c79190611611565b60206040518083038186803b1580156107df57600080fd5b505afa1580156107f3573d6000803e3d6000fd5b505050506040513d601f19601f82011682018060405250810190610817919061135c565b9050600b8190806001815401808255809150506001900390600052602060002001600090919091909150555050808061084f9061195f565b915050610742565b505b600b8054806020026020016040519081016040528092919081815260200182805480156108a557602002820191906000526020600020905b815481526020019060010190808311610891575b505050505091505060016000819055509091929394565b7f000000000000000000000000000000000000000000000000000000000000000081565b60007f000000000000000000000000000000000000000000000000000000000000000073ffffffffffffffffffffffffffffffffffffffff163373ffffffffffffffffffffffffffffffffffffffff161461093a57600080fd5b600a60006101000a81549073ffffffffffffffffffffffffffffffffffffffff0219169055600b600061096d9190611023565b60405161097990611044565b604051809103906000f080158015610995573d6000803e3d6000fd5b50600a60006101000a81548173ffffffffffffffffffffffffffffffffffffffff021916908373ffffffffffffffffffffffffffffffffffffffff1602179055506001905090565b6060600a60009054906101000a900473ffffffffffffffffffffffffffffffffffffffff1673ffffffffffffffffffffffffffffffffffffffff16638b5b9ccc6040518163ffffffff1660e01b815260040160006040518083038186803b158015610a4757600080fd5b505afa158015610a5b573d6000803e3d6000fd5b505050506040513d6000823e3d601f19601f82011682018060405250810190610a8491906112b8565b905090565b7f000000000000000000000000000000000000000000000000000000000000000073ffffffffffffffffffffffffffffffffffffffff163373ffffffffffffffffffffffffffffffffffffffff1614610ae157600080fd5b6001600080820160006101000a81549073ffffffffffffffffffffffffffffffffffffffff021916905560018201600090556002820160009055600382016000905560048201600090556005820160009055600682016000905560078201600090556008820160006101000a81549073ffffffffffffffffffffffffffffffffffffffff0219169055505080600160008201518160000160006101000a81548173ffffffffffffffffffffffffffffffffffffffff021916908373ffffffffffffffffffffffffffffffffffffffff1602179055506020820151816001015560408201518160020155606082015181600301556080820151816004015560a0820151816005015560c0820151816006015560e082015181600701556101008201518160080160006101000a81548173ffffffffffffffffffffffffffffffffffffffff021916908373ffffffffffffffffffffffffffffffffffffffff16021790555090505050565b600081600001549050919050565b600a60009054906101000a900473ffffffffffffffffffffffffffffffffffffffff1673ffffffffffffffffffffffffffffffffffffffff16630c81df0282600001516040518263ffffffff1660e01b8152600401610cb79190611611565b600060405180830381600087803b158015610cd157600080fd5b505af1158015610ce5573d6000803e3d6000fd5b50505050600a60009054906101000a900473ffffffffffffffffffffffffffffffffffffffff1673ffffffffffffffffffffffffffffffffffffffff1663276df0d1826040015183600001516040518363ffffffff1660e01b8152600401610d4e929190611709565b600060405180830381600087803b158015610d6857600080fd5b505af1158015610d7c573d6000803e3d6000fd5b50505050600a60009054906101000a900473ffffffffffffffffffffffffffffffffffffffff1673ffffffffffffffffffffffffffffffffffffffff1663a4341ab0826000015183602001516040518363ffffffff1660e01b8152600401610de592919061162c565b600060405180830381600087803b158015610dff57600080fd5b505af1158015610e13573d6000803e3d6000fd5b50505050600a60009054906101000a900473ffffffffffffffffffffffffffffffffffffffff1673ffffffffffffffffffffffffffffffffffffffff1663845a1778826000015183604001516040518363ffffffff1660e01b8152600401610e7c92919061162c565b600060405180830381600087803b158015610e9657600080fd5b505af1158015610eaa573d6000803e3d6000fd5b50505050600a60009054906101000a900473ffffffffffffffffffffffffffffffffffffffff1673ffffffffffffffffffffffffffffffffffffffff1663bda642ef826040015183602001516040518363ffffffff1660e01b8152600401610f13929190611732565b600060405180830381600087803b158015610f2d57600080fd5b505af1158015610f41573d6000803e3d6000fd5b5050505050565b6001816000016000828254019250508190555050565b6000424483604051602001610f75939291906115d4565b6040516020818303038152906040528051906020012060001c9050919050565b60008183610fa391906119b2565b905092915050565b604051806101200160405280600073ffffffffffffffffffffffffffffffffffffffff16815260200160008152602001600081526020016000815260200160008152602001600081526020016000815260200160008152602001600073ffffffffffffffffffffffffffffffffffffffff1681525090565b50805460008255906000526020600020908101906110419190611051565b50565b610b7a80611b4a83390190565b5b8082111561106a576000816000905550600101611052565b5090565b600061108161107c846117e1565b6117bc565b905080838252602082019050828560208602820111156110a4576110a3611aa9565b5b60005b858110156110d457816110ba88826110f3565b8452602084019350602083019250506001810190506110a7565b5050509392505050565b6000813590506110ed81611b1b565b92915050565b60008151905061110281611b1b565b92915050565b600082601f83011261111d5761111c611a9f565b5b815161112d84826020860161106e565b91505092915050565b60006080828403121561114c5761114b611aa4565b5b61115660806117bc565b90506000611166848285016110de565b600083015250602061117a8482850161128e565b602083015250604061118e8482850161128e565b60408301525060606111a2848285016110de565b60608301525092915050565b600061012082840312156111c5576111c4611aa4565b5b6111d06101206117bc565b905060006111e0848285016110de565b60008301525060206111f48482850161128e565b60208301525060406112088482850161128e565b604083015250606061121c8482850161128e565b60608301525060806112308482850161128e565b60808301525060a06112448482850161128e565b60a08301525060c06112588482850161128e565b60c08301525060e061126c8482850161128e565b60e083015250610100611281848285016110de565b6101008301525092915050565b60008135905061129d81611b32565b92915050565b6000815190506112b281611b32565b92915050565b6000602082840312156112ce576112cd611ab3565b5b600082015167ffffffffffffffff8111156112ec576112eb611aae565b5b6112f884828501611108565b91505092915050565b60006080828403121561131757611316611ab3565b5b600061132584828501611136565b91505092915050565b6000610120828403121561134557611344611ab3565b5b6000611353848285016111ae565b91505092915050565b60006020828403121561137257611371611ab3565b5b6000611380848285016112a3565b91505092915050565b600061139583836113b9565b60208301905092915050565b60006113ad838361159f565b60208301905092915050565b6113c2816118e6565b82525050565b6113d1816118e6565b82525050565b60006113e28261182d565b6113ec818561185d565b93506113f78361180d565b8060005b8381101561142857815161140f8882611389565b975061141a83611843565b9250506001810190506113fb565b5085935050505092915050565b600061144082611838565b61144a818561186e565b93506114558361181d565b8060005b8381101561148657815161146d88826113a1565b975061147883611850565b925050600181019050611459565b5085935050505092915050565b61149c816118f8565b82525050565b60006114af600f8361187f565b91506114ba82611ac9565b602082019050919050565b60006114d2601f8361187f565b91506114dd82611af2565b602082019050919050565b610120820160008201516114ff60008501826113b9565b506020820151611512602085018261159f565b506040820151611525604085018261159f565b506060820151611538606085018261159f565b50608082015161154b608085018261159f565b5060a082015161155e60a085018261159f565b5060c082015161157160c085018261159f565b5060e082015161158460e085018261159f565b506101008201516115996101008501826113b9565b50505050565b6115a881611924565b82525050565b6115b781611924565b82525050565b6115ce6115c982611924565b6119a8565b82525050565b60006115e082866115bd565b6020820191506115f082856115bd565b60208201915061160082846115bd565b602082019150819050949350505050565b600060208201905061162660008301846113c8565b92915050565b600060408201905061164160008301856113c8565b61164e60208301846115ae565b9392505050565b6000602082019050818103600083015261166f81846113d7565b905092915050565b600060208201905061168c6000830184611493565b92915050565b600060208201905081810360008301526116ab816114a2565b9050919050565b600060208201905081810360008301526116cb816114c5565b9050919050565b6000610120820190506116e860008301846114e8565b92915050565b600060208201905061170360008301846115ae565b92915050565b600060408201905061171e60008301856115ae565b61172b60208301846113c8565b9392505050565b600060408201905061174760008301856115ae565b61175460208301846115ae565b9392505050565b600060a08201905061177060008301886115ae565b61177d60208301876115ae565b818103604083015261178f81866113d7565b905061179e60608301856115ae565b81810360808301526117b08184611435565b90509695505050505050565b60006117c66117d7565b90506117d2828261192e565b919050565b6000604051905090565b600067ffffffffffffffff8211156117fc576117fb611a70565b5b602082029050602081019050919050565b6000819050602082019050919050565b6000819050602082019050919050565b600081519050919050565b600081519050919050565b6000602082019050919050565b6000602082019050919050565b600082825260208201905092915050565b600082825260208201905092915050565b600082825260208201905092915050565b600061189b82611924565b91506118a683611924565b9250827fffffffffffffffffffffffffffffffffffffffffffffffffffffffffffffffff038211156118db576118da6119e3565b5b828201905092915050565b60006118f182611904565b9050919050565b60008115159050919050565b600073ffffffffffffffffffffffffffffffffffffffff82169050919050565b6000819050919050565b61193782611ab8565b810181811067ffffffffffffffff8211171561195657611955611a70565b5b80604052505050565b600061196a82611924565b91507fffffffffffffffffffffffffffffffffffffffffffffffffffffffffffffffff82141561199d5761199c6119e3565b5b600182019050919050565b6000819050919050565b60006119bd82611924565b91506119c883611924565b9250826119d8576119d7611a12565b5b828206905092915050565b7f4e487b7100000000000000000000000000000000000000000000000000000000600052601160045260246000fd5b7f4e487b7100000000000000000000000000000000000000000000000000000000600052601260045260246000fd5b7f4e487b7100000000000000000000000000000000000000000000000000000000600052603260045260246000fd5b7f4e487b7100000000000000000000000000000000000000000000000000000000600052604160045260246000fd5b600080fd5b600080fd5b600080fd5b600080fd5b600080fd5b6000601f19601f8301169050919050565b7f4475706c69636174656420626574210000000000000000000000000000000000600082015250565b7f5265656e7472616e637947756172643a207265656e7472616e742063616c6c00600082015250565b611b24816118e6565b8114611b2f57600080fd5b50565b611b3b81611924565b8114611b4657600080fd5b5056fe608060405234801561001057600080fd5b50610b5a806100206000396000f3fe608060405234801561001057600080fd5b50600436106100ea5760003560e01c80638b5b9ccc1161008c578063bda642ef11610066578063bda642ef1461026d578063df15c37e14610289578063e4064c4e146102a7578063f71d96cb146102c3576100ea565b80638b5b9ccc14610203578063942ea46614610221578063a4341ab014610251576100ea565b80634f0cd27b116100c85780634f0cd27b14610157578063760e116d146101875780637b5e6f6b146101b7578063845a1778146101e7576100ea565b80630c81df02146100ef578063276df0d11461010b578063478a1cbf14610127575b600080fd5b610109600480360381019061010491906107e2565b6102f3565b005b6101256004803603810190610120919061087c565b610359565b005b610141600480360381019061013c919061084f565b6103d1565b60405161014e91906109dc565b60405180910390f35b610171600480360381019061016c91906107e2565b6103ee565b60405161017e91906109dc565b60405180910390f35b6101a1600480360381019061019c919061084f565b610437565b6040516101ae91906109ba565b60405180910390f35b6101d160048036038101906101cc91906107e2565b6104d8565b6040516101de91906109dc565b60405180910390f35b61020160048036038101906101fc919061080f565b6104f0565b005b61020b610538565b60405161021891906109ba565b60405180910390f35b61023b600480360381019061023691906107e2565b6105c6565b60405161024891906109dc565b60405180910390f35b61026b6004803603810190610266919061080f565b61060f565b005b610287600480360381019061028291906108bc565b610657565b005b610291610685565b60405161029e91906109ba565b60405180910390f35b6102c160048036038101906102bc91906107e2565b610713565b005b6102dd60048036038101906102d8919061084f565b610779565b6040516102ea919061099f565b60405180910390f35b6000819080600181540180825580915050600190039060005260206000200160009091909190916101000a81548173ffffffffffffffffffffffffffffffffffffffff021916908373ffffffffffffffffffffffffffffffffffffffff16021790555050565b60056000838152602001908152602001600020819080600181540180825580915050600190039060005260206000200160009091909190916101000a81548173ffffffffffffffffffffffffffffffffffffffff021916908373ffffffffffffffffffffffffffffffffffffffff1602179055505050565b600060066000838152602001908152602001600020549050919050565b6000600260008373ffffffffffffffffffffffffffffffffffffffff1673ffffffffffffffffffffffffffffffffffffffff168152602001908152602001600020549050919050565b6060600560008381526020019081526020016000208054806020026020016040519081016040528092919081815260200182805480156104cc57602002820191906000526020600020905b8160009054906101000a900473ffffffffffffffffffffffffffffffffffffffff1673ffffffffffffffffffffffffffffffffffffffff1681526020019060010190808311610482575b50505050509050919050565b60026020528060005260406000206000915090505481565b80600360008473ffffffffffffffffffffffffffffffffffffffff1673ffffffffffffffffffffffffffffffffffffffff168152602001908152602001600020819055505050565b606060008054806020026020016040519081016040528092919081815260200182805480156105bc57602002820191906000526020600020905b8160009054906101000a900473ffffffffffffffffffffffffffffffffffffffff1673ffffffffffffffffffffffffffffffffffffffff1681526020019060010190808311610572575b5050505050905090565b6000600360008373ffffffffffffffffffffffffffffffffffffffff1673ffffffffffffffffffffffffffffffffffffffff168152602001908152602001600020549050919050565b80600260008473ffffffffffffffffffffffffffffffffffffffff1673ffffffffffffffffffffffffffffffffffffffff168152602001908152602001600020819055505050565b8060066000848152602001908152602001600020600082825461067a9190610a30565b925050819055505050565b6060600080548060200260200160405190810160405280929190818152602001828054801561070957602002820191906000526020600020905b8160009054906101000a900473ffffffffffffffffffffffffffffffffffffffff1673ffffffffffffffffffffffffffffffffffffffff16815260200190600101908083116106bf575b5050505050905090565b6001819080600181540180825580915050600190039060005260206000200160009091909190916101000a81548173ffffffffffffffffffffffffffffffffffffffff021916908373ffffffffffffffffffffffffffffffffffffffff16021790555050565b6000818154811061078957600080fd5b906000526020600020016000915054906101000a900473ffffffffffffffffffffffffffffffffffffffff1681565b6000813590506107c781610af6565b92915050565b6000813590506107dc81610b0d565b92915050565b6000602082840312156107f8576107f7610af1565b5b6000610806848285016107b8565b91505092915050565b6000806040838503121561082657610825610af1565b5b6000610834858286016107b8565b9250506020610845858286016107cd565b9150509250929050565b60006020828403121561086557610864610af1565b5b6000610873848285016107cd565b91505092915050565b6000806040838503121561089357610892610af1565b5b60006108a1858286016107cd565b92505060206108b2858286016107b8565b9150509250929050565b600080604083850312156108d3576108d2610af1565b5b60006108e1858286016107cd565b92505060206108f2858286016107cd565b9150509250929050565b60006109088383610914565b60208301905092915050565b61091d81610a86565b82525050565b61092c81610a86565b82525050565b600061093d82610a07565b6109478185610a1f565b9350610952836109f7565b8060005b8381101561098357815161096a88826108fc565b975061097583610a12565b925050600181019050610956565b5085935050505092915050565b61099981610ab8565b82525050565b60006020820190506109b46000830184610923565b92915050565b600060208201905081810360008301526109d48184610932565b905092915050565b60006020820190506109f16000830184610990565b92915050565b6000819050602082019050919050565b600081519050919050565b6000602082019050919050565b600082825260208201905092915050565b6000610a3b82610ab8565b9150610a4683610ab8565b9250827fffffffffffffffffffffffffffffffffffffffffffffffffffffffffffffffff03821115610a7b57610a7a610ac2565b5b828201905092915050565b6000610a9182610a98565b9050919050565b600073ffffffffffffffffffffffffffffffffffffffff82169050919050565b6000819050919050565b7f4e487b7100000000000000000000000000000000000000000000000000000000600052601160045260246000fd5b600080fd5b610aff81610a86565b8114610b0a57600080fd5b50565b610b1681610ab8565b8114610b2157600080fd5b5056fea2646970667358221220dbedc35218ef912f23a660e67298b48613239829b6ced6efa858d09d9ffcebe364736f6c63430008060033a264697066735822122069700a3496d2f94dd18796c9686dc77369f892fe07cbf44a49953a9cfb24daeb64736f6c63430008060033608060405234801561001057600080fd5b50610b5a806100206000396000f3fe608060405234801561001057600080fd5b50600436106100ea5760003560e01c80638b5b9ccc1161008c578063bda642ef11610066578063bda642ef1461026d578063df15c37e14610289578063e4064c4e146102a7578063f71d96cb146102c3576100ea565b80638b5b9ccc14610203578063942ea46614610221578063a4341ab014610251576100ea565b80634f0cd27b116100c85780634f0cd27b14610157578063760e116d146101875780637b5e6f6b146101b7578063845a1778146101e7576100ea565b80630c81df02146100ef578063276df0d11461010b578063478a1cbf14610127575b600080fd5b610109600480360381019061010491906107e2565b6102f3565b005b6101256004803603810190610120919061087c565b610359565b005b610141600480360381019061013c919061084f565b6103d1565b60405161014e91906109dc565b60405180910390f35b610171600480360381019061016c91906107e2565b6103ee565b60405161017e91906109dc565b60405180910390f35b6101a1600480360381019061019c919061084f565b610437565b6040516101ae91906109ba565b60405180910390f35b6101d160048036038101906101cc91906107e2565b6104d8565b6040516101de91906109dc565b60405180910390f35b61020160048036038101906101fc919061080f565b6104f0565b005b61020b610538565b60405161021891906109ba565b60405180910390f35b61023b600480360381019061023691906107e2565b6105c6565b60405161024891906109dc565b60405180910390f35b61026b6004803603810190610266919061080f565b61060f565b005b610287600480360381019061028291906108bc565b610657565b005b610291610685565b60405161029e91906109ba565b60405180910390f35b6102c160048036038101906102bc91906107e2565b610713565b005b6102dd60048036038101906102d8919061084f565b610779565b6040516102ea919061099f565b60405180910390f35b6000819080600181540180825580915050600190039060005260206000200160009091909190916101000a81548173ffffffffffffffffffffffffffffffffffffffff021916908373ffffffffffffffffffffffffffffffffffffffff16021790555050565b60056000838152602001908152602001600020819080600181540180825580915050600190039060005260206000200160009091909190916101000a81548173ffffffffffffffffffffffffffffffffffffffff021916908373ffffffffffffffffffffffffffffffffffffffff1602179055505050565b600060066000838152602001908152602001600020549050919050565b6000600260008373ffffffffffffffffffffffffffffffffffffffff1673ffffffffffffffffffffffffffffffffffffffff168152602001908152602001600020549050919050565b6060600560008381526020019081526020016000208054806020026020016040519081016040528092919081815260200182805480156104cc57602002820191906000526020600020905b8160009054906101000a900473ffffffffffffffffffffffffffffffffffffffff1673ffffffffffffffffffffffffffffffffffffffff1681526020019060010190808311610482575b50505050509050919050565b60026020528060005260406000206000915090505481565b80600360008473ffffffffffffffffffffffffffffffffffffffff1673ffffffffffffffffffffffffffffffffffffffff168152602001908152602001600020819055505050565b606060008054806020026020016040519081016040528092919081815260200182805480156105bc57602002820191906000526020600020905b8160009054906101000a900473ffffffffffffffffffffffffffffffffffffffff1673ffffffffffffffffffffffffffffffffffffffff1681526020019060010190808311610572575b5050505050905090565b6000600360008373ffffffffffffffffffffffffffffffffffffffff1673ffffffffffffffffffffffffffffffffffffffff168152602001908152602001600020549050919050565b80600260008473ffffffffffffffffffffffffffffffffffffffff1673ffffffffffffffffffffffffffffffffffffffff168152602001908152602001600020819055505050565b8060066000848152602001908152602001600020600082825461067a9190610a30565b925050819055505050565b6060600080548060200260200160405190810160405280929190818152602001828054801561070957602002820191906000526020600020905b8160009054906101000a900473ffffffffffffffffffffffffffffffffffffffff1673ffffffffffffffffffffffffffffffffffffffff16815260200190600101908083116106bf575b5050505050905090565b6001819080600181540180825580915050600190039060005260206000200160009091909190916101000a81548173ffffffffffffffffffffffffffffffffffffffff021916908373ffffffffffffffffffffffffffffffffffffffff16021790555050565b6000818154811061078957600080fd5b906000526020600020016000915054906101000a900473ffffffffffffffffffffffffffffffffffffffff1681565b6000813590506107c781610af6565b92915050565b6000813590506107dc81610b0d565b92915050565b6000602082840312156107f8576107f7610af1565b5b6000610806848285016107b8565b91505092915050565b6000806040838503121561082657610825610af1565b5b6000610834858286016107b8565b9250506020610845858286016107cd565b9150509250929050565b60006020828403121561086557610864610af1565b5b6000610873848285016107cd565b91505092915050565b6000806040838503121561089357610892610af1565b5b60006108a1858286016107cd565b92505060206108b2858286016107b8565b9150509250929050565b600080604083850312156108d3576108d2610af1565b5b60006108e1858286016107cd565b92505060206108f2858286016107cd565b9150509250929050565b60006109088383610914565b60208301905092915050565b61091d81610a86565b82525050565b61092c81610a86565b82525050565b600061093d82610a07565b6109478185610a1f565b9350610952836109f7565b8060005b8381101561098357815161096a88826108fc565b975061097583610a12565b925050600181019050610956565b5085935050505092915050565b61099981610ab8565b82525050565b60006020820190506109b46000830184610923565b92915050565b600060208201905081810360008301526109d48184610932565b905092915050565b60006020820190506109f16000830184610990565b92915050565b6000819050602082019050919050565b600081519050919050565b6000602082019050919050565b600082825260208201905092915050565b6000610a3b82610ab8565b9150610a4683610ab8565b9250827fffffffffffffffffffffffffffffffffffffffffffffffffffffffffffffffff03821115610a7b57610a7a610ac2565b5b828201905092915050565b6000610a9182610a98565b9050919050565b600073ffffffffffffffffffffffffffffffffffffffff82169050919050565b6000819050919050565b7f4e487b7100000000000000000000000000000000000000000000000000000000600052601160045260246000fd5b600080fd5b610aff81610a86565b8114610b0a57600080fd5b50565b610b1681610ab8565b8114610b2157600080fd5b5056fea2646970667358221220dbedc35218ef912f23a660e67298b48613239829b6ced6efa858d09d9ffcebe364736f6c63430008060033a26469706673582212201ba773170293924a379dd40e23c8df6569fd4d4f63d61be50209b4bf0897a95d64736f6c63430008060033",
  "source": "//SPDX-License-Identifier: UNLICENSED\npragma solidity ^0.8.0;\n\nimport \"./interfaces/ILotteryFactory.sol\";\nimport \"./NoDelegateCall.sol\";\nimport \"./LotteryTableDeployer.sol\";\n\nimport \"hardhat/console.sol\";\n\ncontract LotteryFactory is ILotteryFactory, LotteryTableDeployer, NoDelegateCall{\n\n    address public override owner;\n\n    mapping(address => mapping(uint256 => address)) private tableMap;\n\n    constructor() {\n        owner = msg.sender;\n        emit OwnerChanged(address(0), msg.sender);\n    }\n\n    function getTable(address creator, uint256 amount, uint256 minPPL,\n        uint256 maxPPL, uint256 coolDownTime, uint256 gameTime,\n        uint256 bankerCommission, uint256 referralCommission, address bankerWallet) external view override\n    returns (address table) {\n        uint256 hash = uint256(keccak256(abi.encodePacked(amount, minPPL, maxPPL, coolDownTime, gameTime, bankerCommission, referralCommission, bankerWallet)));\n        table = tableMap[creator][hash];\n    }\n\n    //TODO \n    function createTable(address managerContract, address creator, uint256 amount, uint256 minPPL,\n        uint256 maxPPL, uint256 coolDownTime, uint256 gameTime,\n        uint256 bankerCommission, uint256 referralCommission, address bankerWallet)\n    external override noDelegateCall\n    returns (address table) {\n        require(creator != address(0));\n        require(amount > 0);\n        require(minPPL > 0);\n        require(maxPPL > 0);\n        require(coolDownTime > 0);\n        require(gameTime > 0);\n        require(bankerCommission > 0);\n        require(referralCommission > 0);\n        require(bankerWallet != address(0));\n\n        uint256 hash = uint256(keccak256(abi.encodePacked(amount, minPPL, maxPPL, coolDownTime, gameTime, bankerCommission, referralCommission, bankerWallet)));\n        require(tableMap[creator][hash] == address(0));\n        table = deploy(managerContract, address(this), creator, amount, minPPL, maxPPL, coolDownTime, gameTime, bankerCommission, referralCommission, bankerWallet);\n        tableMap[creator][hash] = table;\n\n        emit tableCreated(creator, amount, minPPL, maxPPL, coolDownTime, gameTime, bankerCommission, referralCommission, bankerWallet);\n    }\n\n    function setOwner(address _owner) external override {\n        require(msg.sender == owner);\n        emit OwnerChanged(owner, _owner);\n        owner = _owner;\n    }\n\n}\n",
  "sourcePath": "/Users/way/23-tuofan/gamefimarksix/contracts/LotteryFactory.sol",
  "compiler": {
    "name": "solc",
    "version": "0.8.6+commit.11564f7e.Emscripten.clang"
  },
  "schemaVersion": "2.0.1",
  "updatedAt": "2022-07-13T03:31:30.435Z"
}