{
  "contractName": "RoundInfo",
  "abi": [
    {
      "inputs": [
        {
          "internalType": "uint256",
          "name": "number",
          "type": "uint256"
        },
        {
          "internalType": "uint256",
          "name": "count",
          "type": "uint256"
        }
      ],
      "name": "addNumberCount",
      "outputs": [],
      "stateMutability": "nonpayable",
      "type": "function"
    },
    {
      "inputs": [
        {
          "internalType": "address",
          "name": "player",
          "type": "address"
        }
      ],
      "name": "getCount",
      "outputs": [
        {
          "internalType": "uint256",
          "name": "",
          "type": "uint256"
        }
      ],
      "stateMutability": "view",
      "type": "function"
    },
    {
      "inputs": [
        {
          "internalType": "address",
          "name": "player",
          "type": "address"
        }
      ],
      "name": "getNumber",
      "outputs": [
        {
          "internalType": "uint256",
          "name": "",
          "type": "uint256"
        }
      ],
      "stateMutability": "view",
      "type": "function"
    },
    {
      "inputs": [
        {
          "internalType": "uint256",
          "name": "number",
          "type": "uint256"
        }
      ],
      "name": "getNumberCount",
      "outputs": [
        {
          "internalType": "uint256",
          "name": "",
          "type": "uint256"
        }
      ],
      "stateMutability": "view",
      "type": "function"
    },
    {
      "inputs": [
        {
          "internalType": "uint256",
          "name": "number",
          "type": "uint256"
        }
      ],
      "name": "getNumberPlayers",
      "outputs": [
        {
          "internalType": "address[]",
          "name": "",
          "type": "address[]"
        }
      ],
      "stateMutability": "view",
      "type": "function"
    },
    {
      "inputs": [],
      "name": "getPlayers",
      "outputs": [
        {
          "internalType": "address[]",
          "name": "",
          "type": "address[]"
        }
      ],
      "stateMutability": "view",
      "type": "function"
    },
    {
      "inputs": [],
      "name": "getWinners",
      "outputs": [
        {
          "internalType": "address[]",
          "name": "",
          "type": "address[]"
        }
      ],
      "stateMutability": "view",
      "type": "function"
    },
    {
      "inputs": [
        {
          "internalType": "uint256",
          "name": "",
          "type": "uint256"
        }
      ],
      "name": "players",
      "outputs": [
        {
          "internalType": "address",
          "name": "",
          "type": "address"
        }
      ],
      "stateMutability": "view",
      "type": "function"
    },
    {
      "inputs": [
        {
          "internalType": "address",
          "name": "",
          "type": "address"
        }
      ],
      "name": "playersCount",
      "outputs": [
        {
          "internalType": "uint256",
          "name": "",
          "type": "uint256"
        }
      ],
      "stateMutability": "view",
      "type": "function"
    },
    {
      "inputs": [
        {
          "internalType": "address",
          "name": "player",
          "type": "address"
        }
      ],
      "name": "pushPlayers",
      "outputs": [],
      "stateMutability": "nonpayable",
      "type": "function"
    },
    {
      "inputs": [
        {
          "internalType": "address",
          "name": "winner",
          "type": "address"
        }
      ],
      "name": "pushWinners",
      "outputs": [],
      "stateMutability": "nonpayable",
      "type": "function"
    },
    {
      "inputs": [
        {
          "internalType": "address",
          "name": "player",
          "type": "address"
        },
        {
          "internalType": "uint256",
          "name": "count",
          "type": "uint256"
        }
      ],
      "name": "setCount",
      "outputs": [],
      "stateMutability": "nonpayable",
      "type": "function"
    },
    {
      "inputs": [
        {
          "internalType": "address",
          "name": "player",
          "type": "address"
        },
        {
          "internalType": "uint256",
          "name": "number",
          "type": "uint256"
        }
      ],
      "name": "setNumber",
      "outputs": [],
      "stateMutability": "nonpayable",
      "type": "function"
    },
    {
      "inputs": [
        {
          "internalType": "uint256",
          "name": "number",
          "type": "uint256"
        },
        {
          "internalType": "address",
          "name": "player",
          "type": "address"
        }
      ],
      "name": "setNumberPlayers",
      "outputs": [],
      "stateMutability": "nonpayable",
      "type": "function"
    }
  ],
  "bytecode": "0x608060405234801561001057600080fd5b50610b5a806100206000396000f3fe608060405234801561001057600080fd5b50600436106100ea5760003560e01c80638b5b9ccc1161008c578063bda642ef11610066578063bda642ef1461026d578063df15c37e14610289578063e4064c4e146102a7578063f71d96cb146102c3576100ea565b80638b5b9ccc14610203578063942ea46614610221578063a4341ab014610251576100ea565b80634f0cd27b116100c85780634f0cd27b14610157578063760e116d146101875780637b5e6f6b146101b7578063845a1778146101e7576100ea565b80630c81df02146100ef578063276df0d11461010b578063478a1cbf14610127575b600080fd5b610109600480360381019061010491906107e2565b6102f3565b005b6101256004803603810190610120919061087c565b610359565b005b610141600480360381019061013c919061084f565b6103d1565b60405161014e91906109dc565b60405180910390f35b610171600480360381019061016c91906107e2565b6103ee565b60405161017e91906109dc565b60405180910390f35b6101a1600480360381019061019c919061084f565b610437565b6040516101ae91906109ba565b60405180910390f35b6101d160048036038101906101cc91906107e2565b6104d8565b6040516101de91906109dc565b60405180910390f35b61020160048036038101906101fc919061080f565b6104f0565b005b61020b610538565b60405161021891906109ba565b60405180910390f35b61023b600480360381019061023691906107e2565b6105c6565b60405161024891906109dc565b60405180910390f35b61026b6004803603810190610266919061080f565b61060f565b005b610287600480360381019061028291906108bc565b610657565b005b610291610685565b60405161029e91906109ba565b60405180910390f35b6102c160048036038101906102bc91906107e2565b610713565b005b6102dd60048036038101906102d8919061084f565b610779565b6040516102ea919061099f565b60405180910390f35b6000819080600181540180825580915050600190039060005260206000200160009091909190916101000a81548173ffffffffffffffffffffffffffffffffffffffff021916908373ffffffffffffffffffffffffffffffffffffffff16021790555050565b60056000838152602001908152602001600020819080600181540180825580915050600190039060005260206000200160009091909190916101000a81548173ffffffffffffffffffffffffffffffffffffffff021916908373ffffffffffffffffffffffffffffffffffffffff1602179055505050565b600060066000838152602001908152602001600020549050919050565b6000600260008373ffffffffffffffffffffffffffffffffffffffff1673ffffffffffffffffffffffffffffffffffffffff168152602001908152602001600020549050919050565b6060600560008381526020019081526020016000208054806020026020016040519081016040528092919081815260200182805480156104cc57602002820191906000526020600020905b8160009054906101000a900473ffffffffffffffffffffffffffffffffffffffff1673ffffffffffffffffffffffffffffffffffffffff1681526020019060010190808311610482575b50505050509050919050565b60026020528060005260406000206000915090505481565b80600360008473ffffffffffffffffffffffffffffffffffffffff1673ffffffffffffffffffffffffffffffffffffffff168152602001908152602001600020819055505050565b606060008054806020026020016040519081016040528092919081815260200182805480156105bc57602002820191906000526020600020905b8160009054906101000a900473ffffffffffffffffffffffffffffffffffffffff1673ffffffffffffffffffffffffffffffffffffffff1681526020019060010190808311610572575b5050505050905090565b6000600360008373ffffffffffffffffffffffffffffffffffffffff1673ffffffffffffffffffffffffffffffffffffffff168152602001908152602001600020549050919050565b80600260008473ffffffffffffffffffffffffffffffffffffffff1673ffffffffffffffffffffffffffffffffffffffff168152602001908152602001600020819055505050565b8060066000848152602001908152602001600020600082825461067a9190610a30565b925050819055505050565b6060600080548060200260200160405190810160405280929190818152602001828054801561070957602002820191906000526020600020905b8160009054906101000a900473ffffffffffffffffffffffffffffffffffffffff1673ffffffffffffffffffffffffffffffffffffffff16815260200190600101908083116106bf575b5050505050905090565b6001819080600181540180825580915050600190039060005260206000200160009091909190916101000a81548173ffffffffffffffffffffffffffffffffffffffff021916908373ffffffffffffffffffffffffffffffffffffffff16021790555050565b6000818154811061078957600080fd5b906000526020600020016000915054906101000a900473ffffffffffffffffffffffffffffffffffffffff1681565b6000813590506107c781610af6565b92915050565b6000813590506107dc81610b0d565b92915050565b6000602082840312156107f8576107f7610af1565b5b6000610806848285016107b8565b91505092915050565b6000806040838503121561082657610825610af1565b5b6000610834858286016107b8565b9250506020610845858286016107cd565b9150509250929050565b60006020828403121561086557610864610af1565b5b6000610873848285016107cd565b91505092915050565b6000806040838503121561089357610892610af1565b5b60006108a1858286016107cd565b92505060206108b2858286016107b8565b9150509250929050565b600080604083850312156108d3576108d2610af1565b5b60006108e1858286016107cd565b92505060206108f2858286016107cd565b9150509250929050565b60006109088383610914565b60208301905092915050565b61091d81610a86565b82525050565b61092c81610a86565b82525050565b600061093d82610a07565b6109478185610a1f565b9350610952836109f7565b8060005b8381101561098357815161096a88826108fc565b975061097583610a12565b925050600181019050610956565b5085935050505092915050565b61099981610ab8565b82525050565b60006020820190506109b46000830184610923565b92915050565b600060208201905081810360008301526109d48184610932565b905092915050565b60006020820190506109f16000830184610990565b92915050565b6000819050602082019050919050565b600081519050919050565b6000602082019050919050565b600082825260208201905092915050565b6000610a3b82610ab8565b9150610a4683610ab8565b9250827fffffffffffffffffffffffffffffffffffffffffffffffffffffffffffffffff03821115610a7b57610a7a610ac2565b5b828201905092915050565b6000610a9182610a98565b9050919050565b600073ffffffffffffffffffffffffffffffffffffffff82169050919050565b6000819050919050565b7f4e487b7100000000000000000000000000000000000000000000000000000000600052601160045260246000fd5b600080fd5b610aff81610a86565b8114610b0a57600080fd5b50565b610b1681610ab8565b8114610b2157600080fd5b5056fea2646970667358221220dbedc35218ef912f23a660e67298b48613239829b6ced6efa858d09d9ffcebe364736f6c63430008060033",
  "source": "//SPDX-License-Identifier: UNLICENSED\npragma solidity ^0.8.0;\n\ncontract RoundInfo {\n    address[] public players; //玩家列表\n    address[] winners; //赢家\n    mapping(address => uint256)  public playersCount;//玩家下注数\n    mapping(address => uint256)  playersNumber;//玩家选择的number\n    mapping(address => uint256)  playersBet;//玩家实际投入资金（扣除commission）\n    mapping(uint256 => address[])  numberPlayers;//number有哪些玩家\n    mapping(uint256 => uint256)  numberCount; //number对应的下注数\n\n    function getPlayers() external view returns(address[] memory) {\n        return players;\n    }\n\n    function pushPlayers(address player) external {\n        players.push(player);\n    }\n\n    function getWinners() external view returns(address[] memory) {\n        return players;\n    }\n\n    function pushWinners(address winner) external {\n        winners.push(winner);\n    }\n\n    function getCount(address player) external view returns(uint256) {\n        return playersCount[player];\n    }\n\n    function setCount(address player, uint256 count) external {\n        playersCount[player] = count;\n    }\n\n    function getNumber(address player) external view returns(uint256) {\n        return playersNumber[player];\n    }\n\n    function setNumber(address player, uint256 number) external {\n        playersNumber[player] = number;\n    }\n\n    //playersBet TODO\n\n    function getNumberPlayers(uint256 number) external view returns(address[] memory) {\n        return numberPlayers[number];\n    }\n\n    function setNumberPlayers(uint256 number, address player) external {\n        numberPlayers[number].push(player);\n    }\n\n    function addNumberCount(uint256 number, uint256 count) external {\n        numberCount[number] += count;\n    }\n\n    function getNumberCount(uint256 number) external view returns(uint256) {\n        return numberCount[number];\n    }\n\n\n}\n",
  "sourcePath": "/Users/way/23-tuofan/gamefimarksix/contracts/RoundInfo.sol",
  "compiler": {
    "name": "solc",
    "version": "0.8.6+commit.11564f7e.Emscripten.clang"
  },
  "schemaVersion": "2.0.1",
  "updatedAt": "2022-07-13T07:22:21.185Z"
}