{
  "contractName": "Test",
  "abi": [
    {
      "inputs": [
        {
          "internalType": "string",
          "name": "_symbol",
          "type": "string"
        }
      ],
      "stateMutability": "nonpayable",
      "type": "constructor"
    },
    {
      "inputs": [],
      "name": "f",
      "outputs": [
        {
          "internalType": "string",
          "name": "",
          "type": "string"
        }
      ],
      "stateMutability": "pure",
      "type": "function"
    },
    {
      "inputs": [],
      "name": "g",
      "outputs": [
        {
          "internalType": "string",
          "name": "",
          "type": "string"
        }
      ],
      "stateMutability": "pure",
      "type": "function"
    }
  ],
  "bytecode": "0x608060405234801561001057600080fd5b5060405161054b38038061054b833981810160405281019061003291906101a2565b336000806101000a81548173ffffffffffffffffffffffffffffffffffffffff021916908373ffffffffffffffffffffffffffffffffffffffff160217905550806001908051906020019061008892919061008f565b505061035a565b82805461009b90610274565b90600052602060002090601f0160209004810192826100bd5760008555610104565b82601f106100d657805160ff1916838001178555610104565b82800160010185558215610104579182015b828111156101035782518255916020019190600101906100e8565b5b5090506101119190610115565b5090565b5b8082111561012e576000816000905550600101610116565b5090565b600061014561014084610210565b6101eb565b9050828152602081018484840111156101615761016061033a565b5b61016c848285610241565b509392505050565b600082601f83011261018957610188610335565b5b8151610199848260208601610132565b91505092915050565b6000602082840312156101b8576101b7610344565b5b600082015167ffffffffffffffff8111156101d6576101d561033f565b5b6101e284828501610174565b91505092915050565b60006101f5610206565b905061020182826102a6565b919050565b6000604051905090565b600067ffffffffffffffff82111561022b5761022a610306565b5b61023482610349565b9050602081019050919050565b60005b8381101561025f578082015181840152602081019050610244565b8381111561026e576000848401525b50505050565b6000600282049050600182168061028c57607f821691505b602082108114156102a05761029f6102d7565b5b50919050565b6102af82610349565b810181811067ffffffffffffffff821117156102ce576102cd610306565b5b80604052505050565b7f4e487b7100000000000000000000000000000000000000000000000000000000600052602260045260246000fd5b7f4e487b7100000000000000000000000000000000000000000000000000000000600052604160045260246000fd5b600080fd5b600080fd5b600080fd5b600080fd5b6000601f19601f8301169050919050565b6101e2806103696000396000f3fe608060405234801561001057600080fd5b50600436106100365760003560e01c806326121ff01461003b578063e2179b8e14610059575b600080fd5b610043610077565b604051610050919061012a565b60405180910390f35b6100616100b4565b60405161006e919061012a565b60405180910390f35b60606040518060400160405280600a81526020017f6d6574686f642066282900000000000000000000000000000000000000000000815250905090565b60606040518060400160405280600a81526020017f6d6574686f642067282900000000000000000000000000000000000000000000815250905090565b60006100fc8261014c565b6101068185610157565b9350610116818560208601610168565b61011f8161019b565b840191505092915050565b6000602082019050818103600083015261014481846100f1565b905092915050565b600081519050919050565b600082825260208201905092915050565b60005b8381101561018657808201518184015260208101905061016b565b83811115610195576000848401525b50505050565b6000601f19601f830116905091905056fea2646970667358221220de012408287871547d573089c446daf95a59cbb1ade0066e9c9043593453749064736f6c63430008060033",
  "source": "//SPDX-License-Identifier: UNLICENSED\npragma solidity ^0.8.0;\n\ncontract Test{\n\n    address owner;\n    string symbol;\n\n    constructor(string memory _symbol) {\n        owner = msg.sender;\n        symbol = _symbol;\n    }\n\n    function f() public pure returns (string memory){\n        return \"method f()\";\n    }\n    function g() public pure returns (string memory){\n        return \"method g()\";\n    }\n}\n",
  "sourcePath": "/Users/way/23-tuofan/gamefimarksix/contracts/Test.sol",
  "compiler": {
    "name": "solc",
    "version": "0.8.6+commit.11564f7e.Emscripten.clang"
  },
  "schemaVersion": "2.0.1",
  "updatedAt": "2022-07-13T03:37:39.760Z"
}