{
  "_format": "hh-sol-artifact-1",
  "contractName": "Test",
  "sourceName": "contracts/Test.sol",
  "abi": [
    {
      "inputs": [
        {
          "internalType": "string",
          "name": "_symbol",
          "type": "string"
        }
      ],
      "stateMutability": "nonpayable",
      "type": "constructor"
    },
    {
      "inputs": [],
      "name": "f",
      "outputs": [
        {
          "internalType": "string",
          "name": "",
          "type": "string"
        }
      ],
      "stateMutability": "pure",
      "type": "function"
    },
    {
      "inputs": [],
      "name": "g",
      "outputs": [
        {
          "internalType": "string",
          "name": "",
          "type": "string"
        }
      ],
      "stateMutability": "pure",
      "type": "function"
    }
  ],
  "bytecode": "0x608060405234801561001057600080fd5b5060405161033538038061033583398101604081905261002f916100f4565b600080546001600160a01b03191633179055805161005490600190602084019061005b565b505061020e565b828054610067906101bd565b90600052602060002090601f01602090048101928261008957600085556100cf565b82601f106100a257805160ff19168380011785556100cf565b828001600101855582156100cf579182015b828111156100cf5782518255916020019190600101906100b4565b506100db9291506100df565b5090565b5b808211156100db57600081556001016100e0565b60006020808385031215610106578182fd5b82516001600160401b038082111561011c578384fd5b818501915085601f83011261012f578384fd5b815181811115610141576101416101f8565b604051601f8201601f19908116603f01168101908382118183101715610169576101696101f8565b816040528281528886848701011115610180578687fd5b8693505b828410156101a15784840186015181850187015292850192610184565b828411156101b157868684830101525b98975050505050505050565b600181811c908216806101d157607f821691505b602082108114156101f257634e487b7160e01b600052602260045260246000fd5b50919050565b634e487b7160e01b600052604160045260246000fd5b6101188061021d6000396000f3fe6080604052348015600f57600080fd5b506004361060325760003560e01c806326121ff0146037578063e2179b8e14606d575b600080fd5b60408051808201909152600a8152696d6574686f642066282960b01b60208201525b604051606491906092565b60405180910390f35b60408051808201909152600a8152696d6574686f642067282960b01b60208201526059565b6000602080835283518082850152825b8181101560bc5785810183015185820160400152820160a2565b8181111560cc5783604083870101525b50601f01601f191692909201604001939250505056fea2646970667358221220a94f7577e3b08c6d69391b3e2c72ba590f5e20648470a6a466344c2c09e2f1c364736f6c63430008040033",
  "linkReferences": {},
  "deployedLinkReferences": {}
}