{
  "_format": "hh-sol-artifact-1",
  "contractName": "Random",
  "sourceName": "contracts/Random.sol",
  "abi": [
    {
      "inputs": [
        {
          "internalType": "uint256",
          "name": "seed",
          "type": "uint256"
        }
      ],
      "name": "importSeedFromThird",
      "outputs": [
        {
          "internalType": "uint8",
          "name": "",
          "type": "uint8"
        }
      ],
      "stateMutability": "view",
      "type": "function"
    }
  ],
  "bytecode": "0x608060405234801561001057600080fd5b50610107806100206000396000f3fe6080604052348015600f57600080fd5b506004361060285760003560e01c806326aaa10314602d575b600080fd5b603c6038366004609b565b6052565b60405160ff909116815260200160405180910390f35b600080606442846040516020016072929190918252602082015260400190565b6040516020818303038152906040528051906020012060001c6093919060b2565b905050919050565b60006020828403121560ab578081fd5b5035919050565b60008260cc57634e487b7160e01b81526012600452602481fd5b50069056fea26469706673582212200fa0a71b4250cedc75fca981092f304ac796e4f8066e138ab9569ebd5db6f88364736f6c63430008040033",
  "linkReferences": {},
  "deployedLinkReferences": {}
}